:1041140053B1BF53B2BF53B17F53B27F759850436D
:104124008920438780438E1053C4DFAB07AA06A9B6
:1041340005A8047F407E427D0F7C0012179FEF0488
:09414400F404F58DD28ED299220B
:0844DE00C2998F993099FD226B
:0344E6000244DEAF
:103F79000D0A3D3D3D3D3D3D3D3D3D3D3D3D3D3DCB
:103F89003D3D3D3D4D6F646966696564206F6E20F6
:103F9900284170722032372032303233202D2030C0
:103FA900383A34303A3536293D3D3D3D3D3D3D3D7C
:0B3FB9003D3D3D3D3D3D3D3D3D3D009B
:043D94004101E00009
:103F2C0043B30153B4FE43B30253B4FD43B3045340
:103F3C00B4FB43B10853B2F743B11053B2EF53ACD7
:103F4C00FE43AD0143B30843B40843B31043B4106C
:103F5C007F007EC27D017C0012411453E9FB43E9D2
:0D3F6C002043EA0853EBF7439B02D2AF223B
:1043C500C2B07FC87E007D007C00123CE2D2B07F87
:0A43D500C87E007D007C00023CE27F
:1044AC00123F2C7BFF7A3F79791219941243C51273
:0444BC00319680FEB7
:043D98004101DE7691
:0744C0001244C7D2937F0AEA
:0A44C700E4FEEEC39F50030E80F8E0
:0144D10022C8
:10444300D2947F011244C0C2947F071244C7C2931F
:054453007F010244C7D7
:0C44D200C2947F021244C0D2940244C77E
:023E8D00AD077F
:103E8F00E4FCEDA804088002C333D8FC30E704D269
:103E9F00948002C2947F031244C7D2930F1244C777
:103EAF00C2930CECB408DB7F011244C7D2947F039A
:103EBF001244C7D2931244C7309407E49001DFF045
:0F3ECF0080069001DF7401F0C2937F030244C7A5
:10418300E4FDD294FC7F011244C7C2937F0412441E
:10419300C7D2937F021244C7ED25E0FD3094010D91
:1041A3007F021244C70CECB408DBC2937F051244B0
:0341B300C7AF058E
:0141B60022E6
:10438D00EF7004C2948002D2947F081244C7D29376
:0C439D007F0F1244C7C2937F080244C780
:073A620090017BEDF0AC07C1
:103A6900124443AF04123E8D9001DFE07002802DB5
:103A790090017BE0FF123E8D9001DFE07002801D16
:103A8900E4900180F090017FE0FFA3E0C39F502202
:103A9900121582FF123E8D9001DFE070061244D2AA
:103AA9007F0022740129F9E43AFA900180E004F0D8
:073AB90080D31244D27F010B
:013AC00022E3
:08354A0090017AEFF0A3EDF00F
:1035520012444390017AE0FF123E8D9001DFE07049
:1035620002802290017BE0FF123E8D9001DFE0702D
:1035720002801212444390017AE004FF123E8D90C1
:1035820001DFE070091244D2E41215FBFF22E4903D
:103592000180F090017FE014FFA3E0C39F501B1253
:1035A2004183EF1215FBE4FF12438D740129F9E404
:1035B2003AFA900180E004F080D9124183EF1215AB
:0B35C200FB7F0112438D1244D27F01F9
:0135CD0022DB
:02427300AE0794
:10427500E4900179F09001DEE0FFAD067B017A0163
:10428500797990017F7401F012354AEF600690014B
:0642950079E0FF227F002A
:01429B002200
:02445800AE07AD
:10445A009001DEE0FFAD069001B9E090017FF01215
:02446A00354AD1
:01446C00222D
:07435200900179EDF0AE07C8
:104359009001DEE0FFAD067B017A01797990017F5A
:064369007401F0123A623B
:01436F00222B
:02446D00AE0798
:10446F009001DEE0FFAD069001BEE090017FF012FB
:02447F003A629F
:014481002218
:10003E000A4C54393631312072696E672043686933
:10004E0070204944203D2030782562782C2030786D
:10005E00256278000D0A204C54393631315F4C6FD1
:10006E0077506F7765725F6D6F64653A20656E7459
:10007E006572206C6F7720706F776572206D6F647C
:10008E006520000D0A204C54393631315F4C6F77A4
:10009E00506F7765725F6D6F64653A20657869742D
:1000AE00206C6F7720706F776572206D6F6465209E
:1000BE00000A4C54393631315F4D4950495F496E13
:1000CE007075745F44696774616C3A206C7439366C
:1000DE00313120736574206D697069206C616E65B5
:1000EE0073203D20256264000A4C54393631315F4D
:1000FE004D4950495F496E7075745F44696774610C
:10010E006C3A20706F72744120696E707574000ABB
:10011E004C54393631315F4D4950495F496E7075D7
:10012E00745F44696774616C3A206C74393631318E
:10013E0020736574206D69706920706F7274203D34
:10014E002032000A4C54393631315F4D4950495FE7
:10015E00496E7075745F44696774616C3A206C7493
:10016E003936313120736574206D69706920706F76
:10017E00727473203D2031000A4C54393631315F90
:10018E004D4950495F496E7075745F44696774617B
:10019E006C3A204C54393631312E6D6970695F6D71
:1001AE006F6465203D20637369000A4C5439363103
:1001BE00315F4D4950495F496E7075745F44696790
:1001CE0074616C3A204C54393631312E6D69706938
:1001DE005F6D6F6465203D20647369001B5B333275
:1001EE006D000A2D2D2D2D2D2D2D2D2D2D2D2D2D41
:1001FE002D2D2D2D2D2D2D2D2D2D2D2D2D2D2D2D21
:10020E002D2D2D2D2D2D2D2D2D2D2D2D2D2D2D2D10
:10021E002D2D2D2D2D2D2D2D2D2D2D2D2D2D2D2D00
:10022E002D2D2D2D2D2D2D2D2D2D2D2D2D2D2D2DF0
:10023E00000A4C54393631315F566964656F5F433D
:10024E006865636B3A20685F746F74616C5F737975
:10025E0073636C6B203D202564000A4C5439363193
:10026E00315F566964656F5F436865636B3A206CF6
:10027E0074393631312E696E7075745F636F6C6FC1
:10028E00725F7370616365203D205955563432326A
:10029E00000A4C54393631315F566964656F5F43DD
:1002AE006865636B3A206C74393631312E696E7025
:1002BE0075745F636F6C6F725F7370616365203D01
:1002CE0020524742383838000A4C54393631315FA3
:1002DE00566964656F5F436865636B3A20685F615A
:1002EE0063745F612C20685F6163745F622C20769B
:1002FE005F6163742C20765F74616C3A2025642CE8
:10030E002025642C2025642C2025642C20000A4CEA
:10031E0054393631315F566964656F5F4368656382
:10032E006B3A206D6970695F766964656F5F666FA1
:10033E00726D61743A203078256278000D0A4C5443
:10034E00393631315F566964656F5F436865636B3B
:10035E003A205043525F466F726D6174203D00200B
:10036E00766964656F5F363430783438305F363096
:10037E00487A200020766964656F5F3732307834B2
:10038E0038305F3630487A200020766964656F5FBA
:10039E00373230783537365F3530487A2000207660
:1003AE006964656F5F31323830783732305F36309E
:1003BE00487A200020766964656F5F313238307874
:1003CE003732305F3530487A200020766964656FA9
:1003DE005F31323830783732305F3330487A200030
:1003EE0020766964656F5F3139323078313038305C
:1003FE005F3630487A200020766964656F5F313948
:10040E00323078313038305F3530487A20002076FF
:10041E006964656F5F3139323078313038305F332F
:10042E0030487A200020766964656F5F313932304A
:10043E0078313038305F3235487A20002076696462
:10044E00656F5F3139323078313038305F32344851
:10045E007A200020766964656F5F333834307832E5
:10046E003136305F3330487A200020766964656F0C
:10047E005F3338343078323136305F3235487A2057
:10048E000020766964656F5F3338343078323136E8
:10049E00305F3234487A200020766964656F5F31B0
:1004AE00303234783736385F3630487A200020754F
:1004BE006E6B6E6F776E20766964656F20666F72F5
:1004CE006D617420001B5B33376D1B5B33376D0022
:1004DE000D0A4C54393631315F504C4C3A2073650D
:1004EE007420727820706C6C203D20256C64000D99
:1004FE000A4C54393631315F504C4C3A207063728D
:10050E005F6D203D2030782562782C2068646D69FF
:10051E005F706F73745F646976203D20256264009E
:10052E000D0A4C54393631315F504C4C3A20484408
:10053E004D4920706C6C206C6F636B6564A3AC626C
:10054E00616E64206F75743A203078256278000DE4
:10055E000A4C54393631315F504C4C3A2048444D98
:10056E004920706C6C20756E6C6F636B65642C200B
:10057E00726573657420706C6C000D0A4C543936BC
:10058E0031315F48444D495F54585F5068793A2085
:10059E00414320636F75706C65000D0A4C543936FB
:1005AE0031315F48444D495F54585F5068793A2065
:1005BE00444320636F75706C65000D0A4C543936D8
:1005CE0031315F6C6F61645F686463705F6B657916
:1005DE003A2065787465726E616C206B6579207651
:1005EE00616C6964000D0A4C54393631315F6C6FA1
:1005FE0061645F686463705F6B65793A20657874D7
:10060E0065726E616C206B657920756E76616C69B2
:10061E00642C207573696E6720696E7465726E61E5
:10062E006C2074657374206B657921000D0A204C63
:10063E0054393631315F484443505F456E61626CC8
:10064E006521000D0A204C54393631315F48444340
:10065E00505F44697361626C6521000D0A204C5431
:10066E00393631315F48444D495F4F75745F456E81
:10067E0061626C65000D0A204C54393631315F4889
:10068E00444D495F4F75745F44697361626C6500D8
:10069E000D0A4C54393631315F48444D495F545838
:1006AE005F4469676974616C3A20696E666F467261
:1006BE00616D655F656E203D203078253032627841
:1006CE00000D0A4C54393631315F48444D495F5460
:1006DE00585F4469676974616C3A20484D444920FB
:1006EE006D6F6465203D2048444D49000D0A4C5401
:1006FE00393631315F48444D495F54585F4469671C
:10070E006974616C3A20484D4449206D6F646520D0
:10071E003D20445649000D0A4C54393631315F4361
:10072E0053433A2059706270722034323220746F03
:10073E0020524742383838000D0A417564696F20DF
:10074E00696E7574203D2049325320326368000D66
:10075E000A417564696F20696E7574203D2053508F
:10076E00444946000A204C41206572726F72210086
:10077E000A436865636B73756D3A2030782562782D
:10078E0000202873686F756C6420626520307825B0
:10079E006278290A00202876616C6964290A000AA9
:1007AE00767364623A2030782562782C3078256230
:1007BE00782C3078256278000A707261736520702B
:1007CE006879736963616C20616464726573732008
:1007DE007375636365737321202578000A4345435F
:1007EE005F4552524F525F494E49544941544F5200
:1007FE002E000A4345435F4152425F4C4F53542EE5
:10080E00000A74785F646174653A20003078253090
:10081E003262782C20004345435F53454E445F447B
:10082E004F4E45203E3E004E41434B203E3E006C17
:10083E00615F616C6C6F636174696F6E5F646F6E24
:10084E00652E007265706F72745F7068797369637C
:10085E00616C5F616464726573732E0066656174AA
:10086E007572652061626F7274000A4345435F457D
:10087E0052524F525F464F4C4C4F5745522E000A24
:10088E0072785F646174653A2000706172736520DE
:10089E003C3C006C74393631312062726F61646396
:1008AE00617374206D73672E00496E76616C696496
:1008BE00206D73672C2064657374696E6174696F43
:1008CE006E2061646472657373206572726F72005C
:1008DE0061626F72742E0067697665207068797335
:1008EE006963616C20616464726573732E00726556
:1008FE00706F727420706F77657220737461747587
:10090E00732E003C6572726F723A706172616D6522
:10091E0074657273206D697373696E67006D656EB1
:10092E0075207374617475732E00666561747572CB
:10093E00652061626F72742E006365632076657246
:10094E0073696F6E2E007265706F727420706879A5
:10095E00736963616C20616464726573732E0073D6
:10096E0065742073747265616D20706174682E00F9
:10097E000D0A706F72742041206279746520636C69
:10098E006B203D20256C64000D0A706F727420413F
:10099E00206279746520636C6B20756E737461626E
:1009AE006C65000D0A706F72742042206279746556
:1009BE0020636C6B203D20256C64000D0A706F72F5
:1009CE00742042206279746520636C6B20756E739F
:1009DE007461626C65000D0A48746F74616C5F53CC
:1009EE007973636C6B203D202564000D0A4D3A30FF
:1009FE007825627800203078256278000D0A706FB5
:100A0E0072742041206C616E6520504E20697320F7
:100A1E007269676874000D0A706F72742041206CE1
:100A2E00616E6520504E206572726F72203078387C
:100A3E00336263203D203078256278000D0A706F96
:100A4E0072742041206C616E65203020736F7420AB
:100A5E00726967687420000D0A706F7274204120ED
:100A6E006C616E65203020736F74206572726F72C8
:100A7E00203D203078256278000D0A706F72742048
:100A8E0041206C616E65203120736F74207269672E
:100A9E00687420000D0A706F72742041206C616EB4
:100AAE0065203120736F74206572726F72203D2045
:100ABE003078256278000D0A706F72742041206CB8
:100ACE00616E65203220736F7420726967687420BE
:100ADE00000D0A706F72742041206C616E652032B9
:100AEE0020736F74206572726F72203D20307825EE
:100AFE006278000D0A706F72742041206C616E6511
:100B0E00203320736F7420726967687420000D0A99
:100B1E00706F72742041206C616E65203320736F8C
:100B2E0074206572726F72203D20307825627800D5
:100B3E000D0A706F72742041206C616E652030203A
:100B4E00736574746C65203D203078256278000DD5
:100B5E000A706F72742041206C616E6520312073B3
:100B6E006574746C65203D203078256278000D0A1E
:100B7E00706F72742041206C616E65203220736537
:100B8E0074746C65203D203078256278000D0A70F3
:100B9E006F72742041206C616E6520332073657412
:100BAE00746C65203D203078256278000D0A4C5417
:100BBE00393631315F456E61626C655F496E7465C1
:100BCE007272757074733A206870645F6972715FC7
:100BDE00656E61626C65000D0A4C54393631315FB9
:100BEE00456E61626C655F496E7465727275707484
:100BFE00733A206870645F6972715F6469736162D1
:100C0E006C65000D0A4C54393631315F456E6162A8
:100C1E006C655F496E74657272757074733A207686
:100C2E0069645F6368675F6972715F656E61626C4C
:100C3E0065000D0A4C54393631315F456E61626C78
:100C4E00655F496E74657272757074733A20766959
:100C5E00645F6368675F6972715F64697361626C18
:100C6E0065000D0A4C54393631315F4844505F49A6
:100C7E006E746572727570745F48616E646C653AFD
:100C8E002048504420616374656421000D0A4C5461
:100C9E00393631315F4844505F496E7465727275F2
:100CAE0070745F48616E646C653A2048444D49200B
:100CBE00636F6E6E65637465642E000D0A4C543955
:100CCE003631315F4844505F496E7465727275708B
:100CDE00745F48616E646C653A206E6F206D69704A
:100CEE006920766964656F2C2064697361626C6536
:100CFE002068646D69206F7574707574000D0A4CF0
:100D0E0054393631315F4844505F496E74657272A2
:100D1E007570745F48616E646C653A2048444D4945
:100D2E0020646973636F6E6E6563746564000D0A8B
:100D3E004C54393631315F5669645F4368675F4999
:100D4E006E746572727570745F48616E646C653A2C
:100D5E0020000A495251206365635F737461747594
:100D6E00733A2030782530326278000D0A7365743C
:100D7E0020706978656C20636C6B203D20256C6457
:100D8E00000D0A3D3D3D3D3D3D3D3D3D3D3D3D3D25
:100D9E003D3D3D3D3D3D3D3D3D3D3D3D3D4C543953
:100DAE0036313120496E697469616C20456E643D3F
:100DBE003D3D3D3D3D3D3D3D3D3D3D3D3D3D3D3D55
:100DCE003D3D3D3D3D3D3D3D3D3D3D3D3D3D0000BF
:100DDE00100060003002800320000A000200210192
:100DEE00E0020D0000000101000061A80010003EAD
:100DFE00003C02D0035A00090006001E01E0020D5D
:100E0E00000000020100006978000C00400044025E
:100E1E00D0036000050005002702400271000000AB
:100E2E00110100006978006E002800DC05000672D2
:100E3E0000050005001402D002EE010100040200BC
:100E4E0001220A01B8002800DC050007BC000500DD
:100E5E0005001402D002EE01010013020001220A65
:100E6E0006E0002800DC05000CE400050005001477
:100E7E0002D002EE01010000020001220A00580019
:100E8E002C00940780089800040005002404380400
:100E9E00650101001002000244140210002C00949F
:100EAE0007800A500004000500240438046501017F
:100EBE00001F02000244140058002C009407800802
:100ECE009800040005002404380465010100220284
:100EDE000001220A0210002C009407800A50000420
:100EEE0000050024043804650101002102000122DE
:100EFE000A027E002C009407800ABE000400050042
:100F0E00240438046501010020020001220A00B009
:100F1E00005801280F0011300008000A0048087020
:100F2E0008CA0101005F020004882804200058014D
:100F3E00280F0014A00008000A0048087008CA0113
:100F4E0001005E020004882804FC005801280F00EE
:100F5E00157C0008000A0048087008CA0101005DEF
:100F6E0002000488280018008800A0040005400034
:100F7E00030006001D03000326000000000200000F
:020F8E00FDE87C
:103D9C0049010B010000020001000100602A0137FB
:103DAC000000000000000000000000000000000007
:103DBC0000000000000000000000000000000000F7
:103DCC000000000000000000000041011400410050
:0C3DDC0005004200000000420002000050
:103EDE00900001E004F07006900000E004F0D39032
:103EEE000001E094FA900000E094004012E4F0A388
:103EFE00F0900003E004F07006900002E004F0D3AE
:103F0E00900003E09F900002E09400400EE49000C9
:0D3F1E0000F0A3F0A3F0A3F07F01227F00CC
:013F2B002273
:104058007D807FFF1243527D017FEE124352E4FFC1
:10406800124273C0077F01124273900179EFF090FA
:104078000178D0E0F07BFF7A00793E1219947D81B7
:104088007FFF1243527D187F011243527D807FFFCC
:034098000243528E
:104310007D817FFF1243527D487F021243527D8090
:104320007F23124352E4FD7F30124352E4FD7F01AC
:03433000024352F3
:10393500EF7D817FFF602E1243527D497F02124346
:10394500527D807F23124352E4FD7F301243527D26
:10395500807FFF1243527D0A7F111243527BFF7A0B
:10396500007962802C1243527D127F021243527DF0
:10397500407F231243527DEA7F301243527D807F80
:10398500FF1243527DFA7F111243527BFF7A007971
:053995009112199422BB
:103B1D007D827FFF1243527D117F511243527D6989
:103B2D007F1B1243527D787F1C1243527D697FCBE0
:103B3D001243527D787FCC1243527D807FFF12431A
:103B4D00527DF07F041243527DF07F061243527D69
:103B5D00807F0A1243527D467F0B1243527DEF7FC9
:0B3B6D000D1243527DFA7F11024352FB
:103B78007D817FFF1243527D607F061243527D3F55
:103B88007F071243527D3F7F081243527DFE7F0A12
:103B98001243527DBF7F0B1243527D607F11124347
:103BA800527D3F7F121243527D3F7F131243527D55
:103BB800FE7F151243527DBF7F161243527D037F4D
:0B3BC8001C1243527D037F2002435279
:1030C50090010CE0900165F07BFF7A0079BF9001DB
:1030D50078F01219947D827FFF1243527D107F5044
:1030E5001243527D837FFF124352E4FD7F03124357
:1030F500527BFF7A0079F61219947D827FFF124385
:10310500527D807F4F1243527D837FFF1243529041
:103115000165E0FDE4FF1243527D107F0212435228
:103125007D107F0612435290010BE0B4020F7D0320
:103135007F0A1243527BFF7A01791D800DE4FD7FE2
:103145000A1243527BFF7A01795112199490010DAD
:10315500E0640170327BFF7A0179861219947D83D0
:103165007FFF1243527D107F081243527D407F2C12
:10317500124352900113E070177D837FFF12435273
:103185007D017F1C0243527BFF7A0179B8121994A5
:013195002217
:100F9000E4900168F07D827FFF1243527F86124207
:100FA00073900173E4F0A3EFF07F87124273EFFDBB
:100FB0007C00900174E0FEE42DFFEC3E900173F0A4
:100FC000A3EFF07BFF7A0179EA1219947BFF7A0193
:100FD00079F01219947BFF7A02793F900173E0FF58
:100FE000A3E0900178CFF0A3EFF01219947F821262
:100FF000427390016FE4F0A3EFF07F83124273EF2E
:10100000FD7C00900170E0FEE42DFFEC3E90016F4E
:10101000F0A3EFF07F6C124273900171E4F0A3EF44
:10102000F07F6D124273EFFD7C00900172E0FEE4F0
:101030002DFFEC3E900171F0A3EFF07D837FFF1256
:1010400043527F8212427390016BE4F0A3EFF07F72
:1010500083124273EFFD7C0090016CE0FEE42DFFF3
:10106000EC3E90016BF0A3EFF07F8612427390018B
:101070006DE4F0A3EFF07F87124273EFFD7C0090E8
:10108000016EE0FEE42DFFEC3E90016DF0A3EFF069
:10109000900113E0B4011F7BFF7A02796812199462
:1010A00090016BE0C313F0A3E013F0A3E0C313F0CF
:1010B000A3E013F0803B900113E070357BFF7A02D0
:1010C000799F12199490016BE0FEA3E0FF7C007DF4
:1010D0000312162F90016BEEF0A3EFF0A3E0FEA336
:1010E000E0FF7C007D0312162F90016DEEF0A3EF60
:1010F000F07F88124273900168EFF07BFF7A0279EB
:10110000D690016BE0FFA3E0900178CFF0A3EFF061
:1011100090016DE0FFA3E090017ACFF0A3EFF09093
:10112000016FE0FFA3E090017CCFF0A3EFF090010E
:1011300071E0FFA3E090017ECFF0A3EFF0121994CD
:101140007BFF7A03791C900168E0900178F0121916
:101150009490010BE0B4021890016DE0FEA3E0FF53
:1011600090016CE02FFF90016BE03E900169800BD5
:1011700090016BE0FFA3E0900169CFF0A3EFF07B5B
:10118000FF7A03794A121994900DE3E493FE7401F7
:1011900093FF900169E0B5063BA3E0B50736900DDB
:1011A000EDE493FE740193FF90016FE0B50625A373
:1011B000E0B507207BFF7A03796D12199490010A3C
:1011C0007402F090010774FFF0A3740DF0A374DDB6
:1011D000F0021570900E00E493FE740193FF9001ED
:1011E00069E0B5063BA3E0B50736900E0AE493FE2E
:1011F000740193FF90016FE0B50625A3E0B50720C9
:101200007BFF7A03798212199490010A7401F0909D
:10121000010774FFF0A3740DF0A374FAF0021570C7
:10122000900E1DE493FE740193FF900169E0B506F2
:101230003BA3E0B50736900E27E493FE740193FFBD
:1012400090016FE0B50625A3E0B507207BFF7A0388
:10125000799712199490010A7401F090010774FFB4
:10126000F0A3740EF0A37417F0021570900E3AE418
:1012700093FE740193FF900169E06E7003A3E06F29
:10128000600302132D900E4493FE740193FF9001AE
:101290006FE06E7003A3E06F600302132DC3900133
:1012A00074E09476900173E0940250207BFF7A03FF
:1012B00079AC12199490010A7401F090010774FF3F
:1012C000F0A3740EF0A37434F0021570C39001748F
:1012D000E094EE900173E0940250207BFF7A037952
:1012E000C212199490010A7401F090010774FFF082
:1012F000A3740EF0A37451F0021570C3900174E052
:1013000094CE900173E0940440030215707BFF7A41
:101310000379D812199490010A7401F090010774AE
:10132000FFF0A3740EF0A3746EF0021570900E918E
:10133000E493FE740193FF900169E06E7003A3E0F3
:101340006F600302144C900E9B93FE740193FF9008
:10135000016FE06E7003A3E06F600302144CC39052
:101360000174E094AE900173E0940150207BFF7A09
:101370000379EE12199490010A7401F09001077438
:10138000FFF0A3740EF0A3748BF0021570C39001EC
:1013900074E094FE900173E0940150207BFF7A0486
:1013A000790512199490010A7401F090010774FFF5
:1013B000F0A3740EF0A374A8F0021570C39001742A
:1013C000E0943E900173E0940350207BFF7A04790F
:1013D0001C12199490010A7401F090010774FFF037
:1013E000A3740EF0A374C5F0021570C3900174E0ED
:1013F00094D4900173E0940350207BFF7A047933F6
:1014000012199490010A7401F090010774FFF0A37F
:10141000740EF0A374E2F0021570C3900174E094AE
:1014200006900173E0940440030215707BFF7A0478
:10143000794A12199490010A7401F090010774FF1F
:10144000F0A3740EF0A374FFF0021570900F22E465
:1014500093FE740193FF900169E06E7003A3E06F47
:101460006003021517900F2C93FE740193FF9001F7
:101470006FE06E7003A3E06F60030215177D107FAD
:10148000021243527D107F06124352C3900174E052
:1014900094AE900173E0940150207BFF7A0479614F
:1014A00012199490010A7401F090010774FFF0A3DF
:1014B000740FF0A3741CF0021570C3900174E094D3
:1014C000EA900173E0940150207BFF7A047978124E
:1014D000199490010A7401F090010774FFF0A3744D
:1014E0000FF0A37439F0021570C3900174E09408F2
:1014F000900173E0940250787BFF7A04798F12197F
:101500009490010A7401F090010774FFF0A3740F26
:10151000F0A37456F08059900F79E493FE74019310
:10152000FF900169E0B5063AA3E0B50735900F8357
:10153000E493FE740193FF90016FE0B50624A3E0ED
:10154000B5071F7BFF7A0479A612199490010A74DB
:1015500001F090010774FFF0A3740FF0A37473F00F
:10156000800EE490010AF07BFF7A0479BC12199492
:101570007BFF7A0179F01219947BFF7A0479D30208
:021580001994BC
:1026210090016BEBF0A3EAF0A3E9F07D837FFF1249
:10263100435290016BE0FBA3E0FAA3E0F990001292
:102641001216AFE5F0FD7F0D12435290016BE0FBD6
:10265100A3E0FAA3E0F99000121216AFFD7F0E126B
:10266100435290016BE0FBA3E0FAA3E0F990001064
:102671001216AFE5F0FD7F0F12435290016BE0FBA4
:10268100A3E0FAA3E0F99000101216AFFD7F10123B
:10269100435290016BE0FBA3E0FAA3E0F99000083C
:1026A1001216AFE5F0FD7F1112435290016BE0FB72
:1026B100A3E0FAA3E0F99000081216AFFD7F121211
:1026C100435290016BE0FBA3E0FAA3E0F99000060E
:1026D1001216AFE5F0FD7F1312435290016BE0FB40
:1026E100A3E0FAA3E0F99000061216AFFD7F1412E1
:1026F100435290016BE0FBA3E0FAA3E0F990000CD8
:102701001216AFFD7F1512435290016BE0FBA3E05F
:10271100FAA3E0F99000021216AFFD7F16124352A0
:1027210090016BE0FBA3E0FAA3E0F990000A121616
:10273100AFFD7F1712435290016BE0FBA3E0FAA3B8
:10274100E0F990000E1216AFFFAEF090000C1216D9
:10275100AF2FFFE5F03EAD077F1812435290016B9A
:10276100E0FBA3E0FAA3E0F9121684FD7F191243FE
:102771005290016BE0FBA3E0FAA3E0F99000041290
:1027810016AFFFAEF09000021216AF2FE5F03EFD3E
:10279100121684E5F0C4F8540FC868FFEF2DFD7FD1
:1027A1001A12435290016BE0FBA3E0FAA3E0F99007
:1027B10000041216AFFFAEF09000021216AF2FFF09
:0A27C100E5F03EAD077F1B02435216
:0B2C8400900107E0FBA3E0FAA3E0F9D9
:102C8F009000061216AFFF900169E5F0F0A3EFF088
:102C9F0090001412159B25E0FF90001512159B2F25
:102CAF00900168F0F4F05403F07D837FFF124352DC
:102CBF0090010BE064027064900169E0FEA3E0787C
:102CCF0002CEC313CE13D8F9F0EE900169F0A3E052
:102CDF002450F0900169E03400F0E0FEA3E0FFC360
:102CEF0094E0EE9403500280047E037FE09001692C
:102CFF00EEF0A3EFF0900169E0FD7F0B12435290CD
:102D0F000169A3E0FD7F0C124352900169E0FD7F42
:102D1F0048124352900169A3E0FD80177D017F0B9C
:102D2F001243527D107F0C124352E4FD7F48124331
:102D3F00527D817F491243527D4A7F211243527D3A
:102D4F00717F241243527D307F251243527D017FC4
:102D5F002A1243527D407F4A124352900168E04449
:102D6F0010FD7F1D124352900107E0FBA3E0FAA371
:102D7F00E0F91226217D837FFF124352900106E076
:102D8F00FD7F261243527D807FFF1243527D5A7F73
:102D9F00111243527F0A7E007D007C00123CE27DBF
:062DAF00FA7F11024352FD
:0B1C8E00900107E0FBA3E0FAA3E0F9DF
:101C99009000191218429001681218727BFF7A0499
:101CA90079DE900168E0FCA3E0FDA3E0FEA3E0FF7C
:101CB9009001781218721219947D817FFF12435294
:101CC9007D407F231243527D627F241243527D80DF
:101CD9007F251243527D557F261243527D377F2C33
:101CE9001243527D017F2F1243527D667F27124393
:101CF900527D887F281243527D207F2A1243527FCA
:101D0900F07E497D027C00900168E0F8A3E0F9A328
:101D1900E0FAA3E0FBD3121831400F7D887F2D1222
:101D2900435290016E7401F080387F807E387D01C6
:101D39007C00900168E0F8A3E0F9A3E0FAA3E0FBD6
:101D4900D3121831400F7D997F2D12435290016EA5
:101D59007402F0800D7DAA7F2D12435290016E749A
:101D690004F0E47F05FEFDFC900168E0F8A3E0F9CA
:101D7900A3E0FAA3E0FB121714A804A905AA06AB6D
:101D89000790016EE0FFE4FCFDFE121714E47B7876
:101D99007A69F9F812179F900106EFF0E014F07BC9
:101DA900FF7A0479FDE0900178F090016EE09001EE
:101DB90079F01219947D837FFF1243527D407F2D64
:101DC9001243527D087F31124352900106E044804C
:101DD900FD7F26124352900168E0FCA3E0FDA3E0D9
:101DE900FEA3E0FFE47B02FAF9F812179F9001685D
:101DF9001218727D827FFF124352E4FBFA7901F8CF
:101E0900900168E0FCA3E0FDA3E0FEA3E0FF121748
:101E19009FAD077FE3124352900168A3A3E0FEA39D
:101E2900E0FFE4FDFC900168121872E4FB7A01F905
:101E3900F8900168E0FCA3E0FDA3E0FEA3E0FF1237
:101E4900179FAD077FE4124352900168E0FCA3A3FA
:101E5900E0FEA3E0FFE4AD077FE51243527D207F5A
:101E6900DE1243527DE07FDE1243527D807FFF12F6
:101E790043527D5A7F111243527DFA7F1112435208
:101E89007DF27F161243527DDC7F181243527DFC8E
:101E99007F181243527DF37F16124352E490016F6B
:101EA900F07D807FFF1243527DE37F161243527DFE
:101EB900F37F161243527D827FFF1243527FE7124E
:101EC900427390016CEFF07FE612427390016DEF5F
:101ED900F07F15124273EF30E71B90016CE030E799
:101EE90014A3E0FFF4600E7BFF7A05792E90017848
:101EF900EFF00219947D807FFF1243527D5A7F11C2
:101F09001243527F0A7E007D007C00123CE27DFA7A
:101F19007F111243527DF27F161243527DDC7F18E6
:101F29001243527F0A7E007D007C00123CE27DFC58
:101F39007F181243527DF37F161243527BFF7A05B5
:101F4900795D1219947F0A7E007D007C00123CE2C3
:0F1F590090016FE004F0E0C394055003021EAA4C
:011F68002256
:1034C3007D817FFF1243527D6A7F30124352900108
:1034D30010E0700F7D737F311243527BFF7A0579C1
:1034E30088800D7D447F311243527BFF7A0579A892
:1034F3001219947D4A7F321243527D0B7F3312435C
:1035030052E4FD7F34124352E4FD7F35124352E40B
:10351300FD7F361243527D447F371243527D0F7F26
:103523003F1243527D987F401243527D987F411250
:1035330043527D987F421243527D987F43124352F8
:073543007D0A7F44024352A0
:104218007D857FFF1243527D1F7F07124352900115
:1042280012E0B401047DFC80027DF47F1312435236
:0E4238007D0F7F171243527D057F1502435202
:1037CD007D857FFF1243527D85E4FF1243527DC0FC
:1037DD007F031243527DC37F031243527DA07F04AA
:1037ED00124352E4FD7F051243527D207F061243A2
:1037FD00527DFF7F141243527D117F071243527D7C
:10380D00177F071243527F327E007D007C00123CF1
:10381D00E27F40124273EF5481FF7BFFBF81067A36
:10382D000579C880047A0579F31219947DC27F0356
:0A383D001243527D1F7F0702435221
:1040DA007D807FFF1243527D807F141243527DFF01
:1040EA007F141243527D857FFF1243527D017F1553
:1040FA001243527D717F151243527D657F1512431B
:0A410A00527BFF7A06793A021994FD
:10442C007D857FFF1243527D457F151243527BFFE2
:07443C007A06795102199480
:1038C0007D817FFF1243527D407F231243527D82D0
:1038D0007FFF1243527D207FDE1243527DE07FDE68
:1038E0001243527D807FFF1243527DDC7F181243CA
:1038F000527DFC7F181243527DF17F161243527D98
:10390000F37F161243527D5A7F111243527DFA7F84
:10391000111243527D817FFF1243527DEA7F3012A4
:103920004352900111E0B401031240DA7BFF7A06A2
:05393000796902199401
:10429C007D817FFF124352E4FD7F301243527D80BB
:1042AC007F231243527BFF7A067983121994900173
:0942BC0011E0B4010312442C22AC
:0B2AF700900107E0FBA3E0FAA3E0F968
:102B02009000161216AF900168F090001812159BF3
:102B1200900169F090016D740AF07BFF7A06799E4C
:102B2200900178F0121994900169E0C454F02408DD
:102B320090016BF0900168E0FFB45F07E490016CD4
:102B4200F0800590016CEFF090016CE0FFFD9001C8
:102B52006BE0FB7A002DFDEA33FCD3ED945FEC646D
:102B6200809480500FC3745F9BFDE49AFCC3ED9F79
:102B7200FFEC801790016BE0FFC3745F9FFF74014D
:102B82009400FEA3E0FDC3EF9DFFEE9400FE9001D2
:102B92006AEFF07D827FFF124352900112E0B4018E
:102BA2000F7D8E7FD61243527BFF7A0679CF801338
:102BB200900112E070107D0E7FD61243527BFF7A95
:102BC2000679FA12199490010FE070077D047FD7FD
:102BD20012435290010FE0B401077D807FD7124368
:102BE200527D847FFF12435290016AE0FD7F4312BF
:102BF200435290016BE0FD7F4512435290016CE01D
:102C0200FD7F471243527D847FFF1243527D027F34
:102C1200101243527D647F12124352900168E064A5
:102C22005F7D847FFF704D12435290016DE044201E
:102C3200FD7F3D1243527D817F741243527D017F9D
:102C4200751243527D057F761243527D497F77127A
:102C520043527D037F781243527D0C7F7912435297
:102C6200E4FD7F7A1243527D207F7B1243527D0125
:102C72007F7C800A12435290016DE0FD7F3D12433A
:012C820052FF
:012C8300222E
:10433300900113E0B401177D827FFF1243527D1871
:0F4343007FB91243527BFF7A0779241219942213
:1036D50090010FE070417BFF7A0779461219947DBE
:1036E500847FFF1243527D097F061243527D307F4E
:1036F500071243527D2B7F0F1243527DD47F341224
:103705004352E4FD7F351243527D187F36124352F2
:10371500E4FD7F3712435290010FE06401702C7B6A
:10372500FF7A07795D1219947D847FFF1243527DDC
:103735000C7F061243527D107F071243527DD47FC2
:0C374500341243527D207F361243522282
:01003A0022A3
:104246007D827FFF1243527F5E124273EF30E21A85
:104256007F0A7E007D007C00123CE27F5E12427384
:0D426600EF30E2037F01227F00227F002263
:10000300EF7D807FFF60251243527DFF7F0D1243FA
:10001300527DF17F151243527DF97F151243527DB4
:10002300867FFF1243527DA57FFE80071243527DD8
:07003300F17F151243522278
:104482007D807FFF1243527DF17F151243527DF9E9
:054492007F15024352FA
:102FCC0090002812159B7008900171740FF0800A04
:102FDC0090002312159B900171F0900171E0D39435
:102FEC000F40097BFF7A0779720219947D867FFF67
:102FFC00124352900171E0B4100040030230C490AF
:10300C003012F828287302304202304602304A024D
:10301C00304E02305202305602305A02305E0230CC
:10302C006902307402307F02308A0230950230A07F
:10303C000230AB0230B67D01801A7D0280167D0312
:10304C0080127D04800E7D10800A7D2080067D30EC
:10305C0080027D407FF7124352E4FD8056E4FD7FF1
:10306C00F71243527D01804BE4FD7FF71243527DF2
:10307C00028040E4FD7FF71243527D038035E4FD6E
:10308C007FF71243527D04802AE4FD7FF7124352EE
:10309C007D10801FE4FD7FF71243527D208014E4E5
:1030AC00FD7FF71243527D308009E4FD7FF7124318
:0830BC00527D407FF8124352DF
:0130C40022E9
:0E3313009001AFEBF0A3EAF0A3E9F0A3EDF018
:103321009001AFE0FBA3E0FAA3E0F9A3E0F5827519
:10333100830012159BFF9001B3F0E4A3F07BFF7AA9
:1033410007797E900178EFF0121994E4FFFE900165
:10335100B2E0FDC3EF9D7480F86E9850209001AFEC
:10336100E0FBA3E0FAA3E0F98F828E8312159BFDA7
:103371009001B4E02DF00FBF00010E80D19001B497
:10338100E0FF9001B3E02F7BFF60127A07798FEFA6
:10339100F404900178F0121994E4FEFF227A07797F
:0833A100A31219947E007F01C4
:0133A9002201
:0B22290090019DEBF0A3EAF0A3E9F0A8
:10223400E49001A3F0A3F09001A7F0A3F0A3F0A30E
:10224400F09001A0E0FBA3E0FAA3E0F99000811272
:10225400159BFF9001A5E4F0A3EFF0900082121506
:102264009BFF9001A9E4F0A3EFF07DFF123313EF7D
:102274004E7003FEFF22C39001A6E094039001A5D3
:10228400E064809480500302245FC39001AAE09428
:10229400059001A9E064809480500302245F9001BA
:1022A400A0E0FBA3E0FAA3E0F99001A8E02484FFF6
:1022B4009001A7E034008F820223479001ABE070C5
:1022C40004A3E06403700302235E9001A0E0FBA377
:1022D400E0FAA3E0F99001A8E02484FF9001A7E0CC
:1022E40034008F82F58312159B541FFD7003FEFF8B
:1022F40022EDFF9001A8E02FF09001A7E03400F058
:10230400A3E004F070069001A7E004F09001AAE0B5
:1023140024FCFF9001A9E034FFFE9001A7E0FCA398
:10232400E0FDD39FEE6480F8EC64809840030224BF
:102334005F9001A0E0FBA3E0FAA3E0F974842DF51B
:1023440082E43CF58312159B54E0C4135407FF90B8
:1023540001ABE4F0A3EFF00222BF9001A0E0FBA3E5
:10236400E0FAA3E0F99001A7E0FEA3E0FF2484F5DE
:1023740082E43EF58312159B900178F074852FF565
:1023840082E43EF58312159B900179F09001A8E058
:102394002486FF9001A7E034008F82F58312159BF9
:1023A40090017AF07BFF7A0779AD1219949001A01D
:1023B400E0FBA3E0FAA3E0F99001A7E0FEA3E0FFAD
:1023C4002485F582E43EF58312159B6403600302C1
:1023D400245F74862FF582E43EF58312159B640C0A
:1023E40070799001A7A3E02487F582E43EF5831277
:1023F400159B706774882FF582E43EF58312159B54
:10240400FD9001ADE4F0A3EDF074892FF582E43E74
:10241400F58312159BFD7C009001AEE0FEE42DFFD8
:10242400EC3E9001ADF0A3EFF09001ADE0FEA3E02F
:10243400FF90019DE0FBA3E0FAA3E0F9900024EEF5
:102444008FF01216E77BFF7A0779C6900178EEF0D9
:0E245400A3EFF01219947E007F0122E4FEFF38
:012462002257
:0B375100900174EBF0A3EAF0A3E9F094
:10375C007D867FFF1243527D017FF51243527FD34A
:10376C00124273900177EFF0900174E0FBA3E0FA42
:10377C00A3E0F9900001EF12160D9001787401F09E
:10378C00900177E0FFA3E0FED39F502EEE24D3FFF1
:10379C00124273900174E0FBA3E0FAA3E02401F958
:1037AC00E43AFA900178E07C0029F9EC3AFAEF124D
:1037BC0015FB900178E004F080C6E4FD7FF5024330
:0137CC0052AA
:0B33AA00900174EBF0A3EAF0A3E9F03F
:1033B50090001112159B900177F0900027E41216EA
:1033C5000D7D867FFF1243527D017FF5124352909A
:1033D5000177E0FD7FF4124352E4900178F090010B
:1033E50077E0FFA3E0FED39F5029EE24E4FFEE240F
:1033F50012FDE433FC900174E0FBA3E0FAA3E0F9CD
:103405008D828C8312159BFD124352900178E00446
:10341500F080CB7D037FF9124352900178E075F07F
:1034250019A4FFAEF0E4FCFD123CE2E4FD7FF502D9
:02343500435200
:1043DF009001257405F0A37440F0A37484F0A374C6
:0A43EF0010F0E4A3F0A37405F0221F
:1043F9009001257405F0A37440F0A37484F0A374AC
:0A44090010F0E4A3F0A37405F02204
:1043700090002312159BFF900011740112160DEF8F
:0D438000C454F04F90001212160D0233AA23
:0B3DE90090016BE0FBA3E0FAA3E0F9FF
:103DF400900011740512160D90002312159BFFC438
:103E040054F0440F90001212160D90001374841293
:103E1400160D9000241216AFE5F090001412160D42
:103E24009000241216AF90001512160D900016740F
:073E34000412160D0233AA6F
:1041B700900011740412160D90002312159BC4541D
:1041C700F0FF90002612159B4F90001212160D90CB
:1041D7000013748E12160D900014E412160D02339C
:0141E700AA2D
:1041E800900011740312160D90002312159BC454ED
:1041F800F0FF90002612159B4F90001212160D909A
:104208000013E412160D900014ED12160D0233AAD5
:10400F00900171EBF0A3EAF0A3E9F0900171E0FBEE
:10401F00A3E0FAA3E0F990002712159BC394055073
:10402F00157D867FFF1243527D027FF91243527D29
:10403F00037FF9124352900171E0FBA3E0FAA3E072
:09404F00F990002774010215C864
:0B39FF009001DBEBF0A3EAF0A3E9F07D
:103A0A0090002812159B704F9001DBE0FBA3E0FAAF
:103A1A00A3E0F9900011740112160D900004E090D1
:103A2A00001212160D1233AA900004E0FFD3940D6F
:103A3A0040139001DBE0FBA3E0FAA3E0F990002831
:103A4A00740112160DEFD3940D4006E4900004F0B1
:073A5A0022900004E004F0DB
:013A61002242
:0B29620090016BEBF0A3EAF0A3E9F09A
:10296D0012158290016EF030E40C7BFF7A0779EA44
:10297D0012199402448290016EE030E3097BFF7AD4
:10298D00087900022AF390016EE054257003022AA3
:10299D00F67BFF7A08790F121994E4900170F0908C
:1029AD00016BE0FBA3E0FAA3E0F990001112159B77
:1029BD00FF900170E0FEC39F5028EE2412FFE43318
:1029CD00FE90016BA3A38F828E8312159B900178CD
:1029DD00F07BFF7A08791A121994900170E004F0D7
:1029ED0080BD90016EE030E0097BFF7A08792412FA
:1029FD00199490016EE030E2097BFF7A0879351267
:102A0D00199490016BE0FBA3E0FAA3E0F99000129A
:102A1D0012159BFF6444600AEF64886005EF64BB88
:102A2D00706D90016EE030E226EF540F900023128E
:102A3D00160D7BFF7A08793D12199490016BE0FB1E
:102A4D00A3E0FAA3E0F9122FCC90016B123DEC90AC
:102A5D00016EE020E003022AF690016BE0FBA3E09B
:102A6D00FAA3E0F990002312159BFFB40407900020
:102A7D002374088014EFB40807900023740B8009A9
:102A8D00EFB40B08900023740412160D02437090DE
:102A9D00016EE05424600E90016BE0FBA3E0FAA3FD
:102AAD00E0F912400F90016BE0FBA3E0FAA3E0F90F
:102ABD0090001112159BC39402402E900013121515
:102ACD009BFF90016FF0BF841190002974011216C5
:102ADD000D7BFF7A08795112199490016FE07009FE
:092AED007BFF7A08796A12199442
:012AF60022BD
:0B1F690090016BEBF0A3EAF0A3E9F09D
:101F740012158290016EF030E5097BFF7A087978BA
:101F840002220990016EE020E1030222287B017AFB
:101F940001793712375190016BE0FBA3E0FAA3E01B
:101FA400F990000112159BC3940150030222287B6F
:101FB400FF7A08798D121994E4900173F090016B03
:101FC400E0FBA3E0FAA3E0F990000112159BFF9057
:101FD4000173E0FEC39F5028EE2402FFE433FE9019
:101FE400016BA3A38F828E8312159B900178F07BE3
:101FF400FF7A08791A121994900173E004F080BDF5
:102004007BFF7A08799812199490016BE0FBA3E0A6
:10201400FAA3E0F990000212159B90016FF0FDE025
:10202400FE540F900172F0EE54F0FFC4540F90016F
:1020340071F0BD4F097BFF7A0879A11219949001C0
:102044006BE0FBA3E0FAA3E0F990000112159BC337
:102054009402500302222890000312159B900170F1
:10206400F090016FE0540F640F7020A3E0FF601242
:102074006483600EEF648E6009EF64906004EFF493
:1020840070247BFF7A0879B7022209900170E0FF7F
:1020940064846009EF64846004EFB484097BFF7A8C
:1020A4000879B7022209900170E0B4FF307BFF7A0F
:1020B4000879DE121994900172E0640F7003022211
:1020C40028900171E0FF90016BE0FBA3E0FAA3E02C
:1020D400F9900026EF12160DE4FD1241E89001700C
:1020E400E0B4830C7BFF7A0879E5121994123DE978
:1020F400900170E0B490287BFF7A0879FC1219945F
:1021040090016BE0FBA3E0FAA3E0F9900001121543
:102114009BC3940350097BFF7A0979110222099029
:102124000170E0B48E287BFF7A09792B1219949000
:10213400016BE0FBA3E0FAA3E0F990000112159B08
:10214400C3940350097BFF7A097911022209900193
:1021540070E070287BFF7A09793812199490016B2A
:10216400E0FBA3E0FAA3E0F990000112159BC394ED
:102174000350097BFF7A097911022209900170E06A
:10218400B49E277BFF7A09794712199490016BE07A
:10219400FBA3E0FAA3E0F990000112159BC394039A
:1021A40050087BFF7A097911805B900170E0B48458
:1021B400277BFF7A09795412199490016BE0FBA3F1
:1021C400E0FAA3E0F990000112159BC394055008AE
:1021D4007BFF7A097911802D900170E06486704448
:1021E4007BFF7A09796D12199490016BE0FBA3E0EF
:1021F400FAA3E0F990000112159BC3940450097BE3
:10220400FF7A097911021994123DE97F787E007DE5
:10221400007C00123CE290016BE0FBA3E0FAA3E037
:04222400F91241B7B3
:012228002293
:10409B00900165EBF0A3EAF0A3E9F07F01120003B6
:1040AB00900165E0FBA3E0FAA3E0F99000247420F3
:1040BB0075F0001216E7900023740412160D900091
:0F40CB0029E412160D900028E412160D022FCCD6
:1027CB0090016612187E000000007D827FFF12438D
:1027DB00527D037FC71243527F327E007D007C0007
:1027EB00123CE27FCD124273900165EFF0546064AE
:1027FB00606003022892E0540FFFE4FCFDFEFBFA3D
:10280B007901F81217149001661218727FCE1242DA
:10281B0073900165EFF0A3E0F8A3E0F9A3E0FAA34E
:10282B00E0FB900165E07F00FEE4FCFDEF2BFFEA8F
:10283B003EFEED39FDEC38FCA31218727FCF12422D
:10284B0073900165EFF0A3E0F8A3E0F9A3E0FAA31E
:10285B00E0FB900165E0FFE4FCFDFEEB2FFFEE3AA1
:10286B00FEED39FDEC38FCA31218727BFF7A097967
:10287B007E900166E0FCA3E0FDA3E0FEA3E0FF90E9
:10288B00017812187280067BFF7A097996121994D7
:10289B007D827FFF1243527D047FC71243527F32EA
:1028AB007E007D007C00123CE27FCD1242739001D2
:1028BB0065EFF0546064606003022958E0540FFF29
:1028CB00E4FCFDFEFBFA7901F81217149001661275
:1028DB0018727FCE124273900165EFF0A3E0F8A35C
:1028EB00E0F9A3E0FAA3E0FB900165E07F00FEE4D2
:1028FB00FCFDEF2BFFEA3EFEED39FDEC38FCA3129D
:10290B0018727FCF124273900165EFF0A3E0F8A32A
:10291B00E0F9A3E0FAA3E0FB900165E0FFE4FCFD26
:10292B00FEEB2FFFEE3AFEED39FDEC38FCA312184F
:10293B00727BFF7A0979B1900166E0FCA3E0FDA3FD
:10294B00E0FEA3E0FF90017812187280067BFF7AFD
:06295B000979C91219946C
:012961002253
:103E3B00E4900167F07D827FFF1243527F8612422E
:103E4B0073900165E4F0A3EFF07F87124273EFFDEF
:103E5B007C00900166E0FEE42DFFEC3EFE900165D8
:103E6B00F0A3EFF07BFF7A0979E4900178EEF0A3F1
:103E7B00EFF0121994900167E004F0E0C3940A404C
:013E8B00B482
:013E8C002213
:10365200E4900168F07D837FFF1243527F9712420C
:1036620073900178EFF07BFF7A0979F91219947F50
:10367200B4124273900178EFF07BFF7A0A79031259
:1036820019947FB5124273900178EFF07BFF7A0AAA
:1036920079031219947FB6124273900178EFF07B8E
:1036A200FF7A0A79031219947FB712427390017854
:1036B200EFF07BFF7A0A79031219947FE87E037D8B
:1036C200007C00123CE2900168E004F0E0C3940A3E
:0236D200408333
:0136D40022D3
:102EC5007D837FFF1243527FBC124273900165EFF1
:102ED500F07BFFBF55067A0A790A800C7A0A7924B5
:102EE500900165E0900178F01219947F9912427370
:102EF500900165EFF07BFFBFB8067A0A794A800C2E
:102F05007A0A7965900165E0900178F01219947F4D
:102F15009B124273900165EFF07BFFBFB8067A0AFA
:102F25007987800C7A0A79A2900165E0900178F0A2
:102F35001219947F9D124273900165EFF07BFFBFDC
:102F4500B8067A0A79C4800C7A0A79DF900165E0BF
:102F5500900178F01219947F9F124273900165EFEA
:102F6500F07BFFBFB8067A0B7901800C7A0B791CD0
:102F7500900165E0900178F01219947F98124273E0
:102F8500900178EFF07BFF7A0B793E1219947F9AC6
:102F9500124273900178EFF07BFF7A0B795D12197D
:102FA500947F9C124273900178EFF07BFF7A0B7946
:102FB5007C1219947F9E124273900178EFF07BFF8B
:072FC5007A0B799B021994BD
:1043A9007D827FFF1243527D0A7F58124352E4FDFA
:0C43B9007F591243527DF77F9E02435251
:10441300EF7D817FFF60071243527D1080051243B9
:09442300527D307F5112435222F8
:102DB500900169EDF0900168EFF064017042A3E0C5
:102DC5007D827FFF60201243527DFF7F07124352B1
:102DD5007D3F7F071243527D3F7F031243527BFFA6
:102DE5007A0B79BA80171243527DFF7F071243523F
:102DF5007DFF7F031243527BFF7A0B79E51219940D
:102E0500900168E064027050A3E07D827FFF602E30
:102E15001243527DFF7F9E1243527DF77F9E1243E0
:102E2500527DFF7F041243527DFE7F041243527D83
:102E3500FEE4FF1243527BFF7A0C7911801712438F
:102E4500527DFF7F041243527DFFE4FF1243527B04
:102E5500FF7A0C7940121994900168E06403705F61
:102E6500A3E07D867FFF6031124352E4FD7FFA12B5
:102E750043527D7F7FFC124352E4FD7FFC12435297
:102E85007D827FFF1243527D7F7F011243527DFF7A
:102E95007F051243527D7F80211243527DFF7FFAC9
:102EA5001243527D7F7FFC1243527D827FFF124386
:102EB500527DFF7F011243527DFF7F05124352224F
:1035CE007D827FFF1243527DFF7F071243527D3F64
:1035DE007F071243527BFF7A0C79701219941242B4
:1035EE009C124246EF60477BFF7A0C799A1219942F
:1035FE00E4FF1239357D017F02122DB57F647E0006
:10360E007D007C00123CE212003A120F9090010AEB
:10361E00E0600F121C8E122C84122AF71238C00290
:10362E00365212429C7BFF7A0C79C90219947BFFA9
:10363E007A0D790B121994E4FD7F02122DB57F01DC
:04364E0012393522D6
:10399A007BFF7A0D793C1219947D827FFF12435284
:1039AA007DFF7F9E1243527DF77F9E1243527DFF19
:1039BA007F041243527DFE7F04124352120F9090ED
:1039CA00010AE0602C7D807FFF1243527D5A7F11ED
:1039DA001243527F0A7E007D007C00123CE27DFA8F
:1039EA007F11124352121C8E122C84122AF70238AB
:0539FA00C012429C22F6
:0B384700900168EBF0A3EAF0A3E9F0A9
:103852007D867FFF1243527FD2124273900168E04D
:10386200FBA3E0FAA3E0F9EF1215FB7BFF7A0D79D7
:1038720060900178F01219947D867FFF1243527D89
:103882007F7FFC124352E4FD7FFC1243527D827F14
:10389200FF1243527DFF7F051243527D7F7F051247
:1038A2004352900168E0FBA3E0FAA3E0F912296217
:0E38B200900168E0FBA3E0FAA3E0F9021F69B1
:0B2463009001BFEBF0A3EAF0A3E9F04A
:10246E009001BFE0FBA3E0FAA3E0F990001512156E
:10247E009BC43354E0FF90001412159BC454F02FEC
:10248E009001C2F0F4F05430F07D827FFF1243527F
:10249E009001BFE0FBA3E0FAA3E0F990000412164E
:1024AE00AFFFAEF09000021216AF2FE5F03EFD7FAB
:1024BE00A31243529001BFE0FBA3E0FAA3E0F99010
:1024CE0000041216AFFFAEF09000021216AF2FFFEF
:1024DE00E5F03EAD077FA41243529001BFE0FBA38F
:1024EE00E0FAA3E0F990000E1216AFFFAEF09000E6
:1024FE000C1216AF2FFFE5F03EAD077FA51243522B
:10250E009001BFE0FBA3E0FAA3E0F99000061216DB
:10251E00AFE5F0FD7FA61243529001BFE0FBA3E0B2
:10252E00FAA3E0F99000061216AFFD7FA7124352F0
:10253E009001BFE0FBA3E0FAA3E0F99000101216A1
:10254E00AFE5F0FD7FA81243529001BFE0FBA3E080
:10255E00FAA3E0F99000101216AFFD7FA9124352B4
:10256E009001BFE0FBA3E0FAA3E0F9900008121679
:10257E00AFE5F0FD7FAA1243529001BFE0FBA3E04E
:10258E00FAA3E0F99000081216AFFD7FAB1243528A
:10259E009001BFE0FBA3E0FAA3E0F990001212163F
:1025AE00AFE5F0FD7FAC1243529001BFE0FBA3E01C
:1025BE00FAA3E0F99000121216AFFD7FAD1243524E
:1025CE009001BFE0FBA3E0FAA3E0F990000212161F
:1025DE00AFE5F0FD7FAE1243529001BFE0FBA3E0EA
:1025EE00FAA3E0F99000021216AFFD7FAF1243522C
:1025FE009001BFE0FBA3E0FAA3E0F990000C1216E5
:10260E00AFFD7FB01243529001C2E04407FD7F47F9
:03261E0002435222
:103257009000191218429001C31218727BFF7A0D61
:1032670079799001C3E0FCA3E0FDA3E0FEA3E0FFB2
:103277009001781218721219947D837FFF124352BE
:103287007D507F2D1243527F287E887D047C0090DD
:1032970001C3E0F8A3E0F9A3E0FAA3E0FBC3121827
:1032A70031700E7DB67F261243527DF07F27124381
:1032B700527F147E447D027C009001C3E0F8A3E0B6
:1032C700F9A3E0FAA3E0FBC312183170077DB77FBB
:1032D700261243527F0A7E227D017C009001C3E0C3
:1032E700F8A3E0F9A3E0FAA3E0FBC31218317007D3
:1032F7007D9C7F261243527D807FFF1243527D5A69
:0C3307007F111243527DFA7F11024352E5
:104497007D827FFF1243527D807F4F1243527D20E2
:0544A7007F50024352AA
:10414D0090010774FFF0A3740EF0A3748BF012406E
:10415D0058123B1D124497121C8E900107E0FBA3D1
:10416D00E0FAA3E0F9122463122AF71234C31236CF
:06417D00D51238C080FEDF
:1031960090016112187E00000000124058123B1D7B
:1031A600123B781230C57FE87E037D007C00123C1E
:1031B600E2120F90121C8E122C841236D512433353
:1031C6001242181237CD122AF71234C31243A97FBE
:1031D600011200037B017A01793712409B7D017F42
:1031E60001122DB5E4FD7F02122DB57D017F03127C
:1031F6002DB51227CB122EC5123E3B7FC87E007D11
:10320600007C00123CE21235CE7BFF7A0D798F12DC
:1032160019949001E0E0600B123FC4E49001E0F0E5
:10322600439B02900111E0B401E8124246EF60E2CE
:103236007D857FFF1243527F44124273EF30E2D204
:103246007F44124273EF20E1C912442C1240DA8007
:01325600C1B6
:03003B000242EC92
:1042EC00C0E0C083C082C0D0E5ECB4080575EC001A
:1042FC00C2899001E07401F0539BFDD0D0D082D0E4
:04430C0083D0E03248
:103FC4007D827FFF1243527F0C124273900166EF91
:103FD400F07F0D124273900167EFF07F0F1242736E
:103FE400900165EFF0900167E030E7097B017A0109
:103FF4007937123847900165E054C060031235CE1A
:0A400400900166E030E00312399AE3
:01400E00228F
:0300000002343790
:0C343700787FE4F6D8FD75812102347E18
:103C89009001C7121872538EF7438901D28CE4FF51
:103C9900FEFDFC9001C7E0F8A3E0F9A3E0FAA3E078
:103CA900FBC3121831602F758A7E758CFF308DFD2C
:103CB900C28D9001C7E0FCA3E0FDA3E0FEA3E024D0
:103CC900FFFFEE34FFFEED34FFFDEC34FFFC900105
:093CD900C712187280B8C28C22D7
:103CE200900179121872538EF7438901D28CE4FF46
:103CF200FEFDFC900179E0F8A3E0F9A3E0FAA3E06D
:103D0200FBC3121831602F758ACA758CFA308DFD8B
:103D1200C28D900179E0FCA3E0FDA3E0FEA3E024C4
:103D2200FFFFEE34FFFEED34FFFDEC34FFFC9001AB
:093D32007912187280B8C28C22CB
:103D3B009001CB121872538EEF438910D28EE4FF91
:103D4B00FEFDFC9001CBE0F8A3E0F9A3E0FAA3E0C1
:103D5B00FBC3121831602F758BEA758DCB308FFD3D
:103D6B00C28F9001CBE0FCA3E0FDA3E0FEA3E02417
:103D7B00FFFFEE34FFFEED34FFFDEC34FFFC900152
:093D8B00CB12187280B8C28E221E
:103AC1009001CF12187253C9BF53C9DF43C910D235
:103AD100CAE4FFFEFDFC9001CFE0F8A3E0F9A3E00A
:103AE100FAA3E0FBC3121831602F75CC3075CDF805
:103AF10030CFFDC2CF9001CFE0FCA3E0FDA3E0FEFB
:103B0100A3E024FFFFEE34FFFEED34FFFDEC34FFB4
:0C3B1100FC9001CF12187280B8C2CA22CA
:103BD3009001D312187275C40743C408E4FFFEFDB5
:103BE300FC9001D3E0F8A3E0F9A3E0FAA3E0FBC360
:103BF300121831603275C52C75C6CFE5C430E4FBAD
:103C030053C4EF9001D3E0FCA3E0FDA3E0FEA3E0E7
:103C130024FFFFEE34FFFEED34FFFDEC34FFFC9098
:0B3C230001D312187280B553C4F722C1
:103C2E009001D712187275C40743C408E4FFFEFD55
:103C3E00FC9001D7E0F8A3E0F9A3E0FAA3E0FBC300
:103C4E00121831603275C5D875C6FFE5C430E4FB75
:103C5E0053C4EF9001D7E0FCA3E0FDA3E0FEA3E088
:103C6E0024FFFFEE34FFFEED34FFFDEC34FFFC903D
:0B3C7E0001D712187280B553C4F72262
:103443000244ACE493A3F8E493A34003F68001F2AF
:1034530008DFF48029E493A3F85407240CC8C3338A
:10346300C4540F4420C8834004F456800146F6DF59
:10347300E4800B0102040810204080903D94E47E18
:10348300019360BCA3FF543F30E509541FFEE4934E
:10349300A360010ECF54C025E060A840B8E493A315
:1034A300FAE493A3F8E493A3C8C582C8CAC583CA40
:1034B300F0A3C8C582C8CAC583CADFE9DEE780BEF8
:013DE80000DA
:10158200BB010689828A83E0225002E722BBFE0267
:09159200E32289828A83E493229A
:10159B00BB010CE58229F582E5833AF583E0225005
:1015AB0006E92582F8E622BBFE06E92582F8E2224F
:0D15BB00E58229F582E5833AF583E4932269
:1015C800BB010FF8E58229F582E5833AF583E02827
:1015D800F0225009C58229F8E58226F622BBFE09C9
:1015E800C58229F8E22582F222F8EA2583F583E903
:0315F80093282213
:1015FB00BB010689828A83F0225002F722BBFE01CF
:02160B00F322C8
:10160D00F8BB010DE58229F582E5833AF583E8F013
:10161D00225006E92582C8F622BBFE05E92582C8BF
:02162D00F222A7
:10162F00BC000BBE0029EF8DF084FFADF022E4CC9F
:10163F00F875F008EF2FFFEE33FEEC33FCEE9DEC68
:10164F00984005FCEE9DFE0FD5F0E9E4CEFD22EDAE
:10165F00F8F5F0EE8420D21CFEADF075F008EF2FF8
:10166F00FFED33FD4007985006D5F0F222C398FDE9
:05167F000FD5F0EA2286
:10168400BB010A89828A83E0F5F0A3E02250068731
:10169400F009E71922BBFE07E3F5F009E3192289F3
:0B16A400828A83E493F5F07401932226
:1016AF00BB0110E58229F582E5833AF583E0F5F079
:1016BF00A3E0225009E92582F886F008E622BBFE56
:1016CF000AE92582F8E2F5F008E222E5832AF5839C
:0816DF00E993F5F0A3E9932261
:1016E700F8BB0111E58229F582E5833AF583E8F035
:1016F700E5F0A3F0225009E92582C8F608A6F022F2
:0D170700BBFE09E92582C8F2E5F008F222D8
:10171400E88FF0A4CC8BF0A42CFCE98EF0A42CFC74
:101724008AF0EDA42CFCEA8EF0A4CDA8F08BF0A4F2
:101734002DCC3825F0FDE98FF0A42CCD35F0FCEB51
:101744008EF0A4FEA9F0EB8FF0A4CFC5F02ECD3916
:0F175400FEE43CFCEAA42DCE35F0FDE43CFC2283
:1017630075F008758200EF2FFFEE33FECD33CDCC3D
:1017730033CCC58233C5829BED9AEC99E5829840C0
:101783000CF582EE9BFEED9AFDEC99FC0FD5F0D69D
:10179300E4CEFBE4CDFAE4CCF9A88222B800C1B9C7
:1017A3000059BA002DEC8BF084CFCECDFCE5F0CB05
:1017B300F97818EF2FFFEE33FEED33FDEC33FCEB3E
:1017C30033FB10D703994004EB99FB0FD8E5E4F9F9
:1017D300FA227818EF2FFFEE33FEED33FDEC33FCE6
:1017E300C933C910D7059BE99A4007EC9BFCE99ADA
:1017F300F90FD8E0E4C9FAE4CCFB2275F010EF2F1F
:10180300FFEE33FEED33FDCC33CCC833C810D7071E
:101813009BEC9AE899400AED9BFDEC9AFCE899F859
:0E1823000FD5F0DAE4CDFBE4CCFAE4C8F922EC
:10183100EB9FF5F0EA9E42F0E99D42F0E89C45F00D
:011841002284
:10184200BB010DE58229F582E5833AF5830218BBD7
:101852005007E92582F80218AFBBFE07E92582F896
:101862000218C7E58229F582E5833AF5830218D387
:0C187200ECF0A3EDF0A3EEF0A3EFF022E9
:10187E00A8828583F0D083D0821218951218951203
:10188E001895121895E473E493A3C583C5F0C58328
:10189E00C8C582C8F0A3C583C5F0C583C8C582C8B4
:0118AE002217
:10192900E5082478F582E43401F583E0050822907E
:101939000175300703900178E475F0011218E3028C
:1019490015822000E97F2ED2008018EF540F2490D1
:10195900D43440D4FF30040BEF24BFB41A00500331
:101969002461FFE50960021509050CE50C70020503
:101979000B30070E900175E475F0011218E3EF02C0
:1019890015FB0242C57403D2078003E4C207F508B8
:101999009001751218FAE4F509F50BF50CE50960E3
:1019A900077F2012196C80F5750AFFC201C200C2B7
:1019B90002C203C205C206C208121938FF700D30EF
:1019C90007057F0012197DAF0CAE0B22B4255FC24B
:1019D900D5C204121938FF24D0B40A00501A75F080
:1019E9000A780930D50508B6FF0106C6A426F620EF
:1019F900D5047002D20380D924CFB41A00EF500461
:101A0900C2E5D204021B7ED20180C6D20080C0D2B8
:101A19000280BCD2D580BAD20580B47F2012196C5D
:101A29002002077401B5090040F1121929FF1219A2
:101A39006C0219A6D208D2068095121929FB12192F
:101A490029FA121929F94A4B7006794F7A1C7BFF3A
:101A590020022EE509602A7E008E82758300121508
:101A69009B60060EEE650A70F0C2D5EBC0E0EAC0D5
:101A7900E0E9C0E0EE121BC5D0E0F9D0E0FAD0E011
:101A8900FB121582FF60AAEBC0E0EAC0E0E9C0E002
:101A990012196CD0E02401F9D0E03400FAD0E0FB4F
:101AA900E50A0460DCD50AD980877BFF7A1B79C1F6
:101AB900D202809C791080027908C206C208800887
:101AC900D2D5790A8004790AC2D5E50A047002F5EB
:101AD9000AE4FAFDFEFF121929FC7B082001131202
:101AE9001929FD7B1030000A121929FE121929FF44
:101AF9007B20EC3382D592D55013C3E43000069F86
:101B0900FFE49EFEE42001039DFDE49CFCE4CBF888
:101B1900C201EC700CCFCECDCCE824F8F870F3807C
:101B290017C3EF33FFEE33FEED33FDEC33FCEB333C
:101B3900FB994002FB0FD8E9EB300105F8D0E0C46E
:101B490048B201C0E00AEC4D4E4F78207B0070C2CC
:101B5900EAB50A0040BCC0E0121BC7D0F0D0E020B3
:101B69000104C4C0E0C4B201C0F0121955D0F0D5C7
:101B7900F0EB0219A61219031A43531ABD581A1485
:101B89004C1A10421AC14F1AC9441AC9491A294391
:081B99001ACF551AB3461AB326
:101BA100451AB3471C6F501A182D1A1C2E1A3F2BB9
:101BB1001A20231A3D201C582A19D84800001A3728
:101BC1003F3F3F00790AA2D5200314300509B9101F
:101BD100020404B9080104A2D52006025001042020
:101BE10002689202B509005034C0E07F2030031929
:101BF1007F30A20272067205500F121C1EC202C271
:101C010006C205C2087F30800F300503E9C0E0122B
:101C1100196C300503D0E0F9D0E0B509CC300517D7
:101C21007F30B9100C12196C7F583004077F78800F
:101C310003B9080312196C3002057F2D02196C7F5C
:101C4100202008F87F2B2006F322920280CF286EF5
:101C5100756C6C2900D2011219293001F8C2017882
:101C61000930D50108F60219D82D504349581219E7
:101C7100292403B405004001E4901C6A9312195D04
:0D1C8100743A12195DD203750904021ABDF0
:0C18AF00E6FC08E6FD08E6FE08E6FF2265
:0C18BB00E0FCA3E0FDA3E0FEA3E0FF22A0
:0C18C700E2FC08E2FD08E2FE08E2FF225D
:1018D300E493FC740193FD740293FE740393FF225B
:1018E300F8E0FBA3A3E0F925F0F0E582158270028E
:0718F3001583E0FA38F02232
:0918FA00EBF0A3EAF0A3E9F022EF
:10190300D083D082F8E4937012740193700DA3A373
:1019130093F8740193F5828883E473740293686087
:06192300EFA3A3A380DF87
:1042C500EFB40A07740D1242D0740A309811A899F8
:1042D500B8130CC2983098FDA899C298B811F63059
:0742E50099FDC299F5992231
:00000001FF
