:10412B0053B1BF53B2BF53B17F53B27F7598504356
:10413B008920438780438E1053C4DFAB07AA06A99F
:10414B0005A8047F407E427D0F7C001217B5EF045B
:09415B00F404F58DD28ED29922F4
:0844F500C2998F993099FD2254
:0344FD000244F581
:103F90000D0A3D3D3D3D3D3D3D3D3D3D3D3D3D3DB4
:103FA0003D3D3D3D4D6F646966696564206F6E20DF
:103FB000284A756E2030372032303233202D2030A1
:103FC000393A31363A3435293D3D3D3D3D3D3D3D63
:0B3FD0003D3D3D3D3D3D3D3D3D3D0084
:043DAB004101E000F2
:103F430043B30153B4FE43B30253B4FD43B3045329
:103F5300B4FB43B10853B2F743B11053B2EF53ACC0
:103F6300FE43AD0143B30843B40843B31043B41055
:103F73007F007EC27D017C0012412B53E9FB43E9A4
:0D3F83002043EA0853EBF7439B02D2AF2224
:1043DC00C2B07FC87E007D007C00123CF9D2B07F59
:0A43EC00C87E007D007C00023CF951
:1044C300123F437BFF7A3F79901219AA1243DC1201
:0444D300319180FEA5
:043DAF004101DE767A
:0744D7001244DED2937F0ABC
:0A44DE00E4FEEEC39F50030E80F8C9
:0144E80022B1
:10445A00D2947F011244D7C2947F071244DEC293DA
:05446A007F010244DEA9
:0C44E900C2947F021244D7D2940244DE39
:023EA400AD0768
:103EA600E4FCEDA804088002C333D8FC30E704D252
:103EB600948002C2947F031244DED2930F1244DE32
:103EC600C2930CECB408DB7F011244DED2947F036C
:103ED6001244DED2931244DE309407E49001DFF000
:0F3EE60080069001DF7401F0C2937F030244DE77
:10419A00E4FDD294FC7F011244DEC2937F041244F0
:1041AA00DED2937F021244DEED25E0FD3094010D4C
:1041BA007F021244DE0CECB408DBC2937F05124482
:0341CA00DEAF0560
:0141CD0022CF
:1043A400EF7004C2948002D2947F081244DED29348
:0C43B4007F0F1244DEC2937F080244DE3B
:073A790090017BEDF0AC07AA
:103A800012445AAF04123EA49001DFE07002802D70
:103A900090017BE0FF123EA49001DFE07002801DE8
:103AA000E4900180F090017FE0FFA3E0C39F5022EB
:103AB000121598FF123EA49001DFE070061244E94F
:103AC0007F0022740129F9E43AFA900180E004F0C1
:073AD00080D31244E97F01DD
:013AD70022CC
:0835DD0090017AEFF0A3EDF07C
:1035E50012445A90017AE0FF123EA49001DFE07088
:1035F50002802290017BE0FF123EA49001DFE07083
:1036050002801212445A90017AE004FF123EA490FF
:1036150001DFE070091244E9E4121611FF22E4907B
:103625000180F090017FE014FFA3E0C39F501B12BF
:10363500419AEF121611E4FF1243A4740129F9E42B
:103645003AFA900180E004F080D912419AEF1216FF
:0B365500117F011243A41244E97F0121
:013660002247
:02428A00AE077D
:10428C00E4900179F09001DEE0FFAD067B017A014C
:10429C00797990017F7401F01235DDEF60069001A1
:0642AC0079E0FF227F0013
:0142B20022E9
:02446F00AE0796
:104471009001DEE0FFAD069001B9E090017FF012FE
:0244810035DD27
:014483002216
:07436900900179EDF0AE07B1
:104370009001DEE0FFAD067B017A01797990017F43
:064380007401F0123A790D
:014386002214
:02448400AE0781
:104486009001DEE0FFAD069001BEE090017FF012E4
:024496003A7971
:014498002201
:10003E000A4C54393631312072696E672043686933
:10004E0070204944203D2030782562782C2030786D
:10005E00256278000D0A204C54393631315F4C6FD1
:10006E0077506F7765725F6D6F64653A20656E7459
:10007E006572206C6F7720706F776572206D6F647C
:10008E006520000D0A204C54393631315F4C6F77A4
:10009E00506F7765725F6D6F64653A20657869742D
:1000AE00206C6F7720706F776572206D6F6465209E
:1000BE00000A4C54393631315F4D4950495F496E13
:1000CE007075745F44696774616C3A206C7439366C
:1000DE00313120736574206D697069206C616E65B5
:1000EE0073203D20256264000A4C54393631315F4D
:1000FE004D4950495F496E7075745F44696774610C
:10010E006C3A20706F72744120696E707574000ABB
:10011E004C54393631315F4D4950495F496E7075D7
:10012E00745F44696774616C3A206C74393631318E
:10013E0020736574206D69706920706F7274203D34
:10014E002032000A4C54393631315F4D4950495FE7
:10015E00496E7075745F44696774616C3A206C7493
:10016E003936313120736574206D69706920706F76
:10017E00727473203D2031000A4C54393631315F90
:10018E004D4950495F496E7075745F44696774617B
:10019E006C3A204C54393631312E6D6970695F6D71
:1001AE006F6465203D20637369000A4C5439363103
:1001BE00315F4D4950495F496E7075745F44696790
:1001CE0074616C3A204C54393631312E6D69706938
:1001DE005F6D6F6465203D20647369001B5B333275
:1001EE006D000A2D2D2D2D2D2D2D2D2D2D2D2D2D41
:1001FE002D2D2D2D2D2D2D2D2D2D2D2D2D2D2D2D21
:10020E002D2D2D2D2D2D2D2D2D2D2D2D2D2D2D2D10
:10021E002D2D2D2D2D2D2D2D2D2D2D2D2D2D2D2D00
:10022E002D2D2D2D2D2D2D2D2D2D2D2D2D2D2D2DF0
:10023E00000A4C54393631315F566964656F5F433D
:10024E006865636B3A20685F746F74616C5F737975
:10025E0073636C6B203D202564000A4C5439363193
:10026E00315F566964656F5F436865636B3A206CF6
:10027E0074393631312E696E7075745F636F6C6FC1
:10028E00725F7370616365203D205955563432326A
:10029E00000A4C54393631315F566964656F5F43DD
:1002AE006865636B3A206C74393631312E696E7025
:1002BE0075745F636F6C6F725F7370616365203D01
:1002CE0020524742383838000A4C54393631315FA3
:1002DE00566964656F5F436865636B3A20685F615A
:1002EE0063745F612C20685F6163745F622C20769B
:1002FE005F6163742C20765F74616C3A2025642CE8
:10030E002025642C2025642C2025642C20000A4CEA
:10031E0054393631315F566964656F5F4368656382
:10032E006B3A206D6970695F766964656F5F666FA1
:10033E00726D61743A203078256278000D0A4C5443
:10034E00393631315F566964656F5F436865636B3B
:10035E003A205043525F466F726D6174203D00200B
:10036E00766964656F5F363430783438305F363096
:10037E00487A200020766964656F5F3732307834B2
:10038E0038305F3630487A200020766964656F5FBA
:10039E00373230783537365F3530487A2000207660
:1003AE006964656F5F31323830783732305F36309E
:1003BE00487A200020766964656F5F313238307874
:1003CE003732305F3530487A200020766964656FA9
:1003DE005F31323830783732305F3330487A200030
:1003EE0020766964656F5F3139323078313038305C
:1003FE005F3630487A200020766964656F5F313948
:10040E00323078313038305F3530487A20002076FF
:10041E006964656F5F3139323078313038305F332F
:10042E0030487A200020766964656F5F313932304A
:10043E0078313038305F3235487A20002076696462
:10044E00656F5F3139323078313038305F32344851
:10045E007A200020766964656F5F333834307832E5
:10046E003136305F3330487A200020766964656F0C
:10047E005F3338343078323136305F3235487A2057
:10048E000020766964656F5F3338343078323136E8
:10049E00305F3234487A200020766964656F5F31B0
:1004AE00303234783736385F3630487A200020754F
:1004BE006E6B6E6F776E20766964656F20666F72F5
:1004CE006D617420001B5B33376D1B5B33376D0022
:1004DE000D0A4C54393631315F504C4C3A2073650D
:1004EE007420727820706C6C203D20256C64000D99
:1004FE000A4C54393631315F504C4C3A207063728D
:10050E005F6D203D2030782562782C2068646D69FF
:10051E005F706F73745F646976203D20256264009E
:10052E000D0A4C54393631315F504C4C3A20484408
:10053E004D4920706C6C206C6F636B6564A3AC626C
:10054E00616E64206F75743A203078256278000DE4
:10055E000A4C54393631315F504C4C3A2048444D98
:10056E004920706C6C20756E6C6F636B65642C200B
:10057E00726573657420706C6C000D0A4C543936BC
:10058E0031315F48444D495F54585F5068793A2085
:10059E00414320636F75706C65000D0A4C543936FB
:1005AE0031315F48444D495F54585F5068793A2065
:1005BE00444320636F75706C65000D0A4C543936D8
:1005CE0031315F6C6F61645F686463705F6B657916
:1005DE003A2065787465726E616C206B6579207651
:1005EE00616C6964000D0A4C54393631315F6C6FA1
:1005FE0061645F686463705F6B65793A20657874D7
:10060E0065726E616C206B657920756E76616C69B2
:10061E00642C207573696E6720696E7465726E61E5
:10062E006C2074657374206B657921000D0A204C63
:10063E0054393631315F484443505F456E61626CC8
:10064E006521000D0A204C54393631315F48444340
:10065E00505F44697361626C6521000D0A204C5431
:10066E00393631315F48444D495F4F75745F456E81
:10067E0061626C65000D0A204C54393631315F4889
:10068E00444D495F4F75745F44697361626C6500D8
:10069E000D0A4C54393631315F48444D495F545838
:1006AE005F4469676974616C3A20696E666F467261
:1006BE00616D655F656E203D203078253032627841
:1006CE00000D0A4C54393631315F48444D495F5460
:1006DE00585F4469676974616C3A20484D444920FB
:1006EE006D6F6465203D2048444D49000D0A4C5401
:1006FE00393631315F48444D495F54585F4469671C
:10070E006974616C3A20484D4449206D6F646520D0
:10071E003D20445649000D0A4C54393631315F4361
:10072E0053433A2059706270722034323220746F03
:10073E0020524742383838000D0A417564696F20DF
:10074E00696E7574203D2049325320326368000D66
:10075E000A417564696F20696E7574203D2053508F
:10076E00444946000A204C41206572726F72210086
:10077E000A436865636B73756D3A2030782562782D
:10078E0000202873686F756C6420626520307825B0
:10079E006278290A00202876616C6964290A000AA9
:1007AE00767364623A2030782562782C3078256230
:1007BE00782C3078256278000A707261736520702B
:1007CE006879736963616C20616464726573732008
:1007DE007375636365737321202578000A4345435F
:1007EE005F4552524F525F494E49544941544F5200
:1007FE002E000A4345435F4152425F4C4F53542EE5
:10080E00000A74785F646174653A20003078253090
:10081E003262782C20004345435F53454E445F447B
:10082E004F4E45203E3E004E41434B203E3E006C17
:10083E00615F616C6C6F636174696F6E5F646F6E24
:10084E00652E007265706F72745F7068797369637C
:10085E00616C5F616464726573732E0066656174AA
:10086E007572652061626F7274000A4345435F457D
:10087E0052524F525F464F4C4C4F5745522E000A24
:10088E0072785F646174653A2000706172736520DE
:10089E003C3C006C74393631312062726F61646396
:1008AE00617374206D73672E00496E76616C696496
:1008BE00206D73672C2064657374696E6174696F43
:1008CE006E2061646472657373206572726F72005C
:1008DE0061626F72742E0067697665207068797335
:1008EE006963616C20616464726573732E00726556
:1008FE00706F727420706F77657220737461747587
:10090E00732E003C6572726F723A706172616D6522
:10091E0074657273206D697373696E67006D656EB1
:10092E0075207374617475732E00666561747572CB
:10093E00652061626F72742E006365632076657246
:10094E0073696F6E2E007265706F727420706879A5
:10095E00736963616C20616464726573732E0073D6
:10096E0065742073747265616D20706174682E00F9
:10097E000D0A706F72742041206279746520636C69
:10098E006B203D20256C64000D0A706F727420413F
:10099E00206279746520636C6B20756E737461626E
:1009AE006C65000D0A706F72742042206279746556
:1009BE0020636C6B203D20256C64000D0A706F72F5
:1009CE00742042206279746520636C6B20756E739F
:1009DE007461626C65000D0A48746F74616C5F53CC
:1009EE007973636C6B203D202564000D0A504352D1
:1009FE00737461626C655F626974343A3078256233
:100A0E0078000D0A20307825627800203078256233
:100A1E0078000D0A706F72742041206C616E652033
:100A2E00504E206973207269676874000D0A706FEA
:100A3E0072742041206C616E6520504E206572727A
:100A4E006F7220307838336263203D203078256213
:100A5E0078000D0A706F72742041206C616E6520F3
:100A6E003020736F7420726967687420000D0A70ED
:100A7E006F72742041206C616E65203020736F742C
:100A8E00206572726F72203D203078256278000DDD
:100A9E000A706F72742041206C616E652031207374
:100AAE006F7420726967687420000D0A706F72741B
:100ABE002041206C616E65203120736F7420657249
:100ACE00726F72203D203078256278000D0A706FAB
:100ADE0072742041206C616E65203220736F742019
:100AEE00726967687420000D0A706F72742041205D
:100AFE006C616E65203220736F74206572726F7236
:100B0E00203D203078256278000D0A706F727420B7
:100B1E0041206C616E65203320736F74207269679B
:100B2E00687420000D0A706F72742041206C616E23
:100B3E0065203320736F74206572726F72203D20B2
:100B4E003078256278000D0A706F72742041206C27
:100B5E00616E65203020736574746C65203D2030A5
:100B6E0078256278000D0A706F72742041206C61D6
:100B7E006E65203120736574746C65203D2030786D
:100B8E00256278000D0A706F72742041206C616EC0
:100B9E0065203220736574746C65203D2030782595
:100BAE006278000D0A706F72742041206C616E6560
:100BBE00203320736574746C65203D203078256277
:100BCE0078000D0A4C54393631315F456E61626CD6
:100BDE00655F496E74657272757074733A206870D1
:100BEE00645F6972715F656E61626C65000D0A4CBF
:100BFE0054393631315F456E61626C655F496E7492
:100C0E00657272757074733A206870645F69727180
:100C1E005F64697361626C65000D0A4C543936313C
:100C2E00315F456E61626C655F496E746572727597
:100C3E007074733A207669645F6368675F69727176
:100C4E005F656E61626C65000D0A4C543936313148
:100C5E005F456E61626C655F496E74657272757028
:100C6E0074733A207669645F6368675F6972715F57
:100C7E0064697361626C65000D0A4C54393631310A
:100C8E005F4844505F496E746572727570745F4848
:100C9E00616E646C653A20485044206163746564EB
:100CAE0021000D0A4C54393631315F4844505F49AA
:100CBE006E746572727570745F48616E646C653ABD
:100CCE002048444D4920636F6E6E65637465642ED3
:100CDE00000D0A4C54393631315F4844505F496E2D
:100CEE00746572727570745F48616E646C653A20DB
:100CFE006E6F206D69706920766964656F2C206453
:100D0E00697361626C652068646D69206F757470BB
:100D1E007574000D0A4C54393631315F4844505FBA
:100D2E00496E746572727570745F48616E646C653D
:100D3E003A2048444D4920646973636F6E6E656353
:100D4E00746564000D0A4C54393631315F5669644E
:100D5E005F4368675F496E746572727570745F4841
:100D6E00616E646C653A20000A49525120636563D6
:100D7E005F7374617475733A2030782530326278FF
:100D8E00000D0A73657420706978656C20636C6B56
:100D9E00203D20256C64000D0A3D3D3D3D3D3D3D11
:100DAE003D3D3D3D3D3D3D3D3D3D3D3D3D3D3D3D65
:100DBE003D3D3D4C543936313120496E697469617F
:100DCE006C20456E643D3D3D3D3D3D3D3D3D3D3DD3
:100DDE003D3D3D3D3D3D3D3D3D3D3D3D3D3D3D3D35
:100DEE003D3D3D3D000010006000300280032000BC
:100DFE000A0002002101E0020D00000001010000C6
:100E0E0061A80010003E003C02D0035A0009000603
:100E1E00001E01E0020D00000002010000697800D2
:100E2E000C0040004402D0036000050005002702BC
:100E3E00400271000000110100006978006E002868
:100E4E0000DC0500067200050005001402D002EE5B
:100E5E0001010004020001220A01B8002800DC058D
:100E6E000007BC00050005001402D002EE010100CF
:100E7E0013020001220A06E0002800DC05000CE443
:100E8E0000050005001402D002EE01010000020070
:100E9E0001220A0058002C009407800898000400D4
:100EAE0005002404380465010100100200024414F8
:100EBE000210002C009407800A5000040005002444
:100ECE00043804650101001F02000244140058009A
:100EDE002C009407800898000400050024043804B0
:100EEE006501010022020001220A0210002C00946A
:100EFE0007800A500004000500240438046501012F
:100F0E000021020001220A027E002C009407800AB2
:100F1E00BE0004000500240438046501010020020F
:100F2E000001220A00B0005801280F0011300008FD
:100F3E00000A0048087008CA0101005F0200048818
:100F4E00280420005801280F0014A00008000A00F1
:100F5E0048087008CA0101005E020004882804FCDB
:100F6E00005801280F00157C0008000A0048087080
:100F7E0008CA0101005D02000488280018008800DC
:100F8E00A00400054000030006001D030003260018
:080F9E00000000020000FDE864
:103DB30049010B010000020001000100602A0137E4
:103DC30000000000000000000000000000000000F0
:103DD30000000000000000000000000000000000E0
:103DE3000000000000000000000041011400410039
:0C3DF30005004200000000420002000039
:103EF500900001E004F07006900000E004F0D3901B
:103F05000001E094FA900000E094004012E4F0A370
:103F1500F0900003E004F07006900002E004F0D396
:103F2500900003E09F900002E09400400EE49000B2
:0D3F350000F0A3F0A3F0A3F07F01227F00B5
:013F4200225C
:10406F007D807FFF1243697D017FEE124369E4FF7C
:10407F0012428AC0077F0112428A900179EFF090B5
:10408F000178D0E0F07BFF7A00793E1219AA7D818A
:10409F007FFF1243697D187F011243697D807FFF87
:0340AF0002436960
:104327007D817FFF1243697D487F021243697D804B
:104337007F23124369E4FD7F30124369E4FD7F0167
:03434700024369C5
:10394C00EF7D817FFF602E1243697D497F02124318
:10395C00697D807F23124369E4FD7F301243697DCA
:10396C00807FFF1243697D0A7F111243697BFF7AC6
:10397C00007962802C1243697D127F021243697DAB
:10398C00407F231243697DEA7F301243697D807F3B
:10399C00FF1243697DFA7F111243697BFF7A00792C
:0539AC00911219AA228E
:103B34007D827FFF1243697D117F511243697D6944
:103B44007F1B1243697D787F1C1243697D697FCB9B
:103B54001243697D787FCC1243697D807FFF1243D5
:103B6400697DF07F041243697DF07F061243697D0D
:103B7400807F0A1243697D467F0B1243697DEF7F84
:0B3B84000D1243697DFA7F11024369B6
:103B8F007D817FFF1243697D607F061243697D3F10
:103B9F007F071243697D3F7F081243697DFE7F0ACD
:103BAF001243697DBF7F0B1243697D607F11124302
:103BBF00697D3F7F121243697D3F7F131243697DF9
:103BCF00FE7F151243697DBF7F161243697D037F08
:0B3BDF001C1243697D037F2002436934
:1030C00090010CE0900165F07BFF7A0079BF9001E0
:1030D00078F01219AA7D827FFF1243697D107F501C
:1030E0001243697D837FFF124369E4FD7F0312432E
:1030F000697BFF7A0079F61219AA7D827FFF12435D
:10310000697D807F4F1243697D837FFF1243699001
:103110000165E0FDE4FF1243697D107F02124369FF
:103120007D107F0612436990010BE0B4020F7D030E
:103130007F0A1243697BFF7A01791D800DE4FD7FD0
:103140000A1243697BFF7A0179511219AA90010D85
:10315000E0640170327BFF7A0179861219AA7D83BF
:103160007FFF1243697D107F081243697D407F2CE9
:10317000124369900113E070177D837FFF1243694A
:103180007D017F1C0243697BFF7A0179B81219AA7D
:01319000221C
:100FA600E4900168F07D827FFF1243697F861242DA
:100FB6008A900173E4F0A3EFF07F8712428AEFFD77
:100FC6007C00900174E0FEE42DFFEC3E900173F08E
:100FD600A3EFF07BFF7A0179EA1219AA7BFF7A0167
:100FE60079F01219AA7BFF7A02793F900173E0FF2C
:100FF600A3E0900178CFF0A3EFF01219AA7F821236
:10100600428A90016FE4F0A3EFF07F8312428AEFE9
:10101600FD7C00900170E0FEE42DFFEC3E90016F38
:10102600F0A3EFF07F6C12428A900171E4F0A3EF17
:10103600F07F6D12428AEFFD7C00900172E0FEE4C3
:101046002DFFEC3E900171F0A3EFF07D837FFF1240
:1010560043697F8212428A90016BE4F0A3EFF07F2E
:101066008312428AEFFD7C0090016CE0FEE42DFFC6
:10107600EC3E90016BF0A3EFF07F8612428A90015E
:101086006DE4F0A3EFF07F8712428AEFFD7C0090BB
:10109600016EE0FEE42DFFEC3E90016DF0A3EFF053
:1010A600900113E0B4011F7BFF7A0279681219AA36
:1010B60090016BE0C313F0A3E013F0A3E0C313F0B9
:1010C600A3E013F0803B900113E070357BFF7A02BA
:1010D600799F1219AA90016BE0FEA3E0FF7C007DC8
:1010E6000312164590016BEEF0A3EFF0A3E0FEA30A
:1010F600E0FF7C007D0312164590016DEEF0A3EF34
:10110600F07F8812428A900168EFF07BFF7A0279BD
:10111600D690016BE0FFA3E0900178CFF0A3EFF04B
:1011260090016DE0FFA3E090017ACFF0A3EFF0907D
:10113600016FE0FFA3E090017CCFF0A3EFF09001F8
:1011460071E0FFA3E090017ECFF0A3EFF01219AAA1
:101156007BFF7A03791C900168E0900178F0121900
:10116600AA90010BE0B4021890016DE0FEA3E0FF27
:1011760090016CE02FFF90016BE03E900169800BBF
:1011860090016BE0FFA3E0900169CFF0A3EFF07B45
:10119600FF7A03794A1219AA900DF9E493FE7401B5
:1011A60093FF900169E0B5063BA3E0B50736900EC4
:1011B60003E493FE740193FF90016FE0B50625A347
:1011C600E0B507207BFF7A03796D1219AA90010A10
:1011D6007402F090010774FFF0A3740DF0A374F38A
:1011E600F0021586900E16E493FE740193FF9001AB
:1011F60069E0B5063BA3E0B50736900E20E493FE02
:10120600740193FF90016FE0B50625A3E0B50720B2
:101216007BFF7A0379821219AA90010A7401F09071
:10122600010774FFF0A3740EF0A37410F002158684
:10123600900E33E493FE740193FF900169E0B506C6
:101246003BA3E0B50736900E3DE493FE740193FF91
:1012560090016FE0B50625A3E0B507207BFF7A0372
:1012660079971219AA90010A7401F090010774FF88
:10127600F0A3740EF0A3742DF0021586900E50E4C0
:1012860093FE740193FF900169E06E7003A3E06F13
:101296006003021343900E5A93FE740193FF90016C
:1012A6006FE06E7003A3E06F6003021343C3900107
:1012B60074E09476900173E0940250207BFF7A03E9
:1012C60079AC1219AA90010A7401F090010774FF13
:1012D600F0A3740EF0A3744AF0021586C39001744D
:1012E600E094EE900173E0940250207BFF7A03793C
:1012F600C21219AA90010A7401F090010774FFF056
:10130600A3740EF0A37467F0021586C3900174E00F
:1013160094CE900173E0940440030215867BFF7A15
:101326000379D81219AA90010A7401F09001077482
:10133600FFF0A3740EF0A37484F0021586900EA736
:10134600E493FE740193FF900169E06E7003A3E0DD
:101356006F6003021462900EB193FE740193FF90C6
:10136600016FE06E7003A3E06F6003021462C39026
:101376000174E094AE900173E0940150207BFF7AF3
:101386000379EE1219AA90010A7401F0900107740C
:10139600FFF0A3740EF0A374A1F0021586C39001AA
:1013A60074E094FE900173E0940150207BFF7A0470
:1013B60079051219AA90010A7401F090010774FFC9
:1013C600F0A3740EF0A374BEF0021586C3900174E8
:1013D600E0943E900173E0940350207BFF7A0479F9
:1013E6001C1219AA90010A7401F090010774FFF00B
:1013F600A3740EF0A374DBF0021586C3900174E0AB
:1014060094D4900173E0940350207BFF7A047933DF
:101416001219AA90010A7401F090010774FFF0A353
:10142600740EF0A374F8F0021586C3900174E0946C
:1014360006900173E0940440030215867BFF7A044C
:10144600794A1219AA90010A7401F090010774FFF3
:10145600F0A3740FF0A37415F0021586900F38E40C
:1014660093FE740193FF900169E06E7003A3E06F31
:10147600600302152D900F4293FE740193FF9001B5
:101486006FE06E7003A3E06F600302152D7D107F81
:10149600021243697D107F06124369C3900174E00E
:1014A60094AE900173E0940150207BFF7A04796139
:1014B6001219AA90010A7401F090010774FFF0A3B3
:1014C600740FF0A37432F0021586C3900174E09491
:1014D600EA900173E0940150207BFF7A0479781238
:1014E60019AA90010A7401F090010774FFF0A37421
:1014F6000FF0A3744FF0021586C3900174E09408B0
:10150600900173E0940250787BFF7A04798F121968
:10151600AA90010A7401F090010774FFF0A3740FFA
:10152600F0A3746CF08059900F8FE493FE740193CE
:10153600FF900169E0B5063AA3E0B50735900F992B
:10154600E493FE740193FF90016FE0B50624A3E0D7
:10155600B5071F7BFF7A0479A61219AA90010A74AF
:1015660001F090010774FFF0A3740FF0A37489F0E3
:10157600800EE490010AF07BFF7A0479BC1219AA66
:101586007BFF7A0179F01219AA7BFF7A0479D302DC
:0215960019AA90
:1026370090016BEBF0A3EAF0A3E9F07D837FFF1233
:10264700436990016BE0FBA3E0FAA3E0F990001265
:102657001216C5E5F0FD7F0D12436990016BE0FB93
:10266700A3E0FAA3E0F99000121216C5FD7F0E123F
:10267700436990016BE0FBA3E0FAA3E0F990001037
:102687001216C5E5F0FD7F0F12436990016BE0FB61
:10269700A3E0FAA3E0F99000101216C5FD7F10120F
:1026A700436990016BE0FBA3E0FAA3E0F99000080F
:1026B7001216C5E5F0FD7F1112436990016BE0FB2F
:1026C700A3E0FAA3E0F99000081216C5FD7F1212E5
:1026D700436990016BE0FBA3E0FAA3E0F9900006E1
:1026E7001216C5E5F0FD7F1312436990016BE0FBFD
:1026F700A3E0FAA3E0F99000061216C5FD7F1412B5
:10270700436990016BE0FBA3E0FAA3E0F990000CAA
:102717001216C5FD7F1512436990016BE0FBA3E01C
:10272700FAA3E0F99000021216C5FD7F161243695D
:1027370090016BE0FBA3E0FAA3E0F990000A121600
:10274700C5FD7F1712436990016BE0FBA3E0FAA375
:10275700E0F990000E1216C5FFAEF090000C1216AD
:10276700C52FFFE5F03EAD077F1812436990016B57
:10277700E0FBA3E0FAA3E0F912169AFD7F191243D2
:102787006990016BE0FBA3E0FAA3E0F99000041263
:1027970016C5FFAEF09000021216C52FE5F03EFDFC
:1027A70012169AE5F0C4F8540FC868FFEF2DFD7FA5
:1027B7001A12436990016BE0FBA3E0FAA3E0F990DA
:1027C70000041216C5FFAEF09000021216C52FFFC7
:0A27D700E5F03EAD077F1B024369E9
:0B2C7F00900107E0FBA3E0FAA3E0F9DE
:102C8A009000061216C5FF900169E5F0F0A3EFF077
:102C9A009000141215B125E0FF9000151215B12FFE
:102CAA00900168F0F4F05403F07D837FFF124369CA
:102CBA0090010BE064027064900169E0FEA3E07881
:102CCA0002CEC313CE13D8F9F0EE900169F0A3E057
:102CDA002450F0900169E03400F0E0FEA3E0FFC365
:102CEA0094E0EE9403500280047E037FE090016931
:102CFA00EEF0A3EFF0900169E0FD7F0B12436990BB
:102D0A000169A3E0FD7F0C124369900169E0FD7F30
:102D1A0048124369900169A3E0FD80177D017F0B8A
:102D2A001243697D107F0C124369E4FD7F48124308
:102D3A00697D817F491243697D4A7F211243697DFA
:102D4A00717F241243697D307F251243697D017F9B
:102D5A002A1243697D407F4A124369900168E04420
:102D6A0010FD7F1D124369900107E0FBA3E0FAA35F
:102D7A00E0F91226377D837FFF124369900106E04E
:102D8A00FD7F261243697D807FFF1243697D5A7F4A
:102D9A00111243697F0A7E007D007C00123CF97D96
:062DAA00FA7F11024369EB
:0B1CA400900107E0FBA3E0FAA3E0F9C9
:101CAF009000191218589001681218887BFF7A0457
:101CBF0079DE900168E0FCA3E0FDA3E0FEA3E0FF66
:101CCF009001781218881219AA7D817FFF1243693B
:101CDF007D407F231243697D627F241243697D809B
:101CEF007F251243697D557F261243697D377F2CEF
:101CFF001243697D017F2F1243697D667F2712434F
:101D0F00697D887F281243697D207F2A1243697F6E
:101D1F00F07E497D027C00900168E0F8A3E0F9A312
:101D2F00E0FAA3E0FBD3121847400F7D887F2D12F6
:101D3F00436990016E7401F080387F807E387D0199
:101D4F007C00900168E0F8A3E0F9A3E0FAA3E0FBC0
:101D5F00D3121847400F7D997F2D12436990016E62
:101D6F007402F0800D7DAA7F2D12436990016E746D
:101D7F0004F0E47F05FEFDFC900168E0F8A3E0F9B4
:101D8F00A3E0FAA3E0FB12172AA804A905AA06AB41
:101D9F000790016EE0FFE4FCFDFE12172AE47B784A
:101DAF007A69F9F81217B5900106EFF0E014F07B9D
:101DBF00FF7A0479FDE0900178F090016EE09001D8
:101DCF0079F01219AA7D837FFF1243697D407F2D21
:101DDF001243697D087F31124369900106E0448008
:101DEF00FD7F26124369900168E0FCA3E0FDA3E0AC
:101DFF00FEA3E0FFE47B02FAF9F81217B590016831
:101E0F001218887D827FFF124369E4FBFA7901F88B
:101E1F00900168E0FCA3E0FDA3E0FEA3E0FF121732
:101E2F00B5AD077FE3124369900168A3A3E0FEA35A
:101E3F00E0FFE4FDFC900168121888E4FB7A01F9D9
:101E4F00F8900168E0FCA3E0FDA3E0FEA3E0FF1221
:101E5F0017B5AD077FE4124369900168E0FCA3A3B7
:101E6F00E0FEA3E0FFE4AD077FE51243697D207F2D
:101E7F00DE1243697DE07FDE1243697D807FFF12B2
:101E8F0043697D5A7F111243697DFA7F11124369AD
:101E9F007DF27F161243697DDC7F181243697DFC4A
:101EAF007F181243697DF37F16124369E490016F27
:101EBF00F07D807FFF1243697DE37F161243697DBA
:101ECF00F37F161243697D827FFF1243697FE7120A
:101EDF00428A90016CEFF07FE612428A90016DEF1B
:101EEF00F07F1512428AEF30E71B90016CE030E76C
:101EFF0014A3E0FFF4600E7BFF7A05792E90017832
:101F0F00EFF00219AA7D807FFF1243697D5A7F117E
:101F1F001243697F0A7E007D007C00123CF97DFA36
:101F2F007F111243697DF27F161243697DDC7F18A2
:101F3F001243697F0A7E007D007C00123CF97DFC14
:101F4F007F181243697DF37F161243697BFF7A0571
:101F5F00795D1219AA7F0A7E007D007C00123CF980
:0F1F6F0090016FE004F0E0C394055003021EC020
:011F7E002240
:103556007D817FFF1243697D6A7F30124369900146
:1035660010E0700F7D737F311243697BFF7A057916
:1035760088800D7D447F311243697BFF7A0579A8E7
:103586001219AA7D4A7F321243697D0B7F3312439B
:1035960069E4FD7F34124369E4FD7F35124369E433
:1035A600FD7F361243697D447F371243697D0F7F65
:1035B6003F1243697D987F401243697D987F41128F
:1035C60043697D987F421243697D987F4312436920
:0735D6007D0A7F44024369F6
:10422F007D857FFF1243697D1F7F071243699001D0
:10423F0012E0B401047DFC80027DF47F1312436908
:0E424F007D0F7F171243697D057F15024369BD
:1037E4007D857FFF1243697D85E4FF1243697DC0B7
:1037F4007F031243697DC37F031243697DA07F0465
:10380400124369E4FD7F051243697D207F0612435C
:10381400697DFF7F141243697D117F071243697D1F
:10382400177F071243697F327E007D007C00123CC3
:10383400F97F4012428AEF5481FF7BFFBF81067AF1
:103844000579C880047A0579F31219AA7DC27F0329
:0A3854001243697D1F7F07024369DC
:1040F1007D807FFF1243697D807F141243697DFFBC
:104101007F141243697D857FFF1243697D017F150D
:104111001243697D717F151243697D657F151243D5
:0A412100697BFF7A06793A0219AAB9
:104443007D857FFF1243697D457F151243697BFF9D
:074453007A0679510219AA53
:1038D7007D817FFF1243697D407F231243697D828B
:1038E7007FFF1243697D207FDE1243697DE07FDE23
:1038F7001243697D807FFF1243697DDC7F18124385
:10390700697DFC7F181243697DF17F161243697D3B
:10391700F37F161243697D5A7F111243697DFA7F3F
:10392700111243697D817FFF1243697DEA7F30125F
:103937004369900111E0B401031240F17BFF7A065D
:0539470079690219AAD4
:1042B3007D817FFF124369E4FD7F301243697D8076
:1042C3007F231243697BFF7A0679831219AA90012F
:0942D30011E0B40103124443227E
:0B2B0D00900107E0FBA3E0FAA3E0F951
:102B18009000161216C5900168F09000181215B1B1
:102B2800900169F090016D740AF07BFF7A06799E36
:102B3800900178F01219AA900169E0C454F02408B1
:102B480090016BF0900168E0FFB45F07E490016CBE
:102B5800F0800590016CEFF090016CE0FFFD9001B2
:102B68006BE0FB7A002DFDEA33FCD3ED945FEC6457
:102B7800809480500FC3745F9BFDE49AFCC3ED9F63
:102B8800FFEC801790016BE0FFC3745F9FFF740137
:102B98009400FEA3E0FDC3EF9DFFEE9400FE9001BC
:102BA8006AEFF07D827FFF124369900112E0B40161
:102BB8000F7D8E7FD61243697BFF7A0679CF80130B
:102BC800900112E070107D0E7FD61243697BFF7A68
:102BD8000679FA1219AA7D847FFF12436990016A67
:102BE800E0FD7F4312436990016BE0FD7F4512438E
:102BF8006990016CE0FD7F471243697D847FFF1275
:102C080043697D027F101243697D647F1212436914
:102C1800900168E0645F7D847FFF704D1243699086
:102C2800016DE04420FD7F3D1243697D817F741270
:102C380043697D017F751243697D057F761243697B
:102C48007D497F771243697D037F781243697D0C44
:102C58007F79124369E4FD7F7A1243697D207F7B87
:102C68001243697D017F7C800A12436990016DE0FF
:062C7800FD7F3D124369DF
:012C7E002233
:10434A00900113E0B401177D827FFF1243697D1843
:0F435A007FB91243697BFF7A0779241219AA22CF
:10330E0090010FE0704F7BFF7A0779461219AA7D64
:10331E00827FFF1243697D047FD71243697D847FCC
:10332E00FF1243697D087F061243697D107F0712E5
:10333E0043697D2B7F0F1243697DD47F341243691D
:10334E00E4FD7F351243697D187F36124369E4FD33
:10335E007F3712436990010FE06401703A7BFF7A68
:10336E0007795D1219AA7D827FFF1243697D807FE6
:10337E00D71243697D847FFF1243697D0C7F06124D
:10338E0043697D107F071243697DD47F34124369F0
:08339E007D207F3612436922F5
:01003A0022A3
:10425D007D827FFF1243697F5E12428AEF30E21A40
:10426D007F0A7E007D007C00123CF97F5E12428A3F
:0D427D00EF30E2037F01227F00227F00224C
:10000300EF7D807FFF60251243697DFF7F0D1243E3
:10001300697DF17F151243697DF97F151243697D6F
:10002300867FFF1243697DA57FFE80071243697DAA
:07003300F17F151243692261
:104499007D807FFF1243697DF17F151243697DF9A4
:0544A9007F15024369CC
:102FC7009000281215B17008900171740FF0800AF3
:102FD7009000231215B1900171F0900171E0D39424
:102FE7000F40097BFF7A0779720219AA7D867FFF56
:102FF700124369900171E0B4100040030230BF90A2
:10300700300DF828287302303D0230410230450266
:10301700304902304D0230510230550230590230EA
:103027006402306F02307A02308502309002309BA2
:103037000230A60230B17D01801A7D0280167D0321
:1030470080127D04800E7D10800A7D2080067D30F1
:1030570080027D407FF7124369E4FD8056E4FD7FDF
:10306700F71243697D01804BE4FD7FF71243697DC9
:10307700028040E4FD7FF71243697D038035E4FD5C
:103087007FF71243697D04802AE4FD7FF7124369C5
:103097007D10801FE4FD7FF71243697D208014E4D3
:1030A700FD7FF71243697D308009E4FD7FF7124306
:0830B700697D407FF8124369B6
:0130BF0022EE
:0E33A6009001AFEBF0A3EAF0A3E9F0A3EDF085
:1033B4009001AFE0FBA3E0FAA3E0F9A3E0F5827586
:1033C40083001215B1FF9001B3F0E4A3F07BFF7A00
:1033D40007797E900178EFF01219AAE4FFFE9001BC
:1033E400B2E0FDC3EF9D7480F86E9850209001AF59
:1033F400E0FBA3E0FAA3E0F98F828E831215B1FDFE
:103404009001B4E02DF00FBF00010E80D19001B403
:10341400E0FF9001B3E02F7BFF60127A07798FEF12
:10342400F404900178F01219AAE4FEFF227A0779D5
:08343400A31219AA7E007F011A
:01343C00226D
:0B223F0090019DEBF0A3EAF0A3E9F092
:10224A00E49001A3F0A3F09001A7F0A3F0A3F0A3F8
:10225A00F09001A0E0FBA3E0FAA3E0F9900081125C
:10226A0015B1FF9001A5E4F0A3EFF09000821215DA
:10227A00B1FF9001A9E4F0A3EFF07DFF1233A6EFBE
:10228A004E7003FEFF22C39001A6E094039001A5BD
:10229A00E0648094805003022475C39001AAE094FC
:1022AA00059001A9E064809480500302247590018E
:1022BA00A0E0FBA3E0FAA3E0F99001A8E02484FFE0
:1022CA009001A7E034008F8202235D9001ABE07099
:1022DA0004A3E0640370030223749001A0E0FBA34B
:1022EA00E0FAA3E0F99001A8E02484FF9001A7E0B6
:1022FA0034008F82F5831215B1541FFD7003FEFF5F
:10230A0022EDFF9001A8E02FF09001A7E03400F041
:10231A00A3E004F070069001A7E004F09001AAE09F
:10232A0024FCFF9001A9E034FFFE9001A7E0FCA382
:10233A00E0FDD39FEE6480F8EC64809840030224A9
:10234A00759001A0E0FBA3E0FAA3E0F974842DF5EF
:10235A0082E43CF5831215B154E0C4135407FF908C
:10236A0001ABE4F0A3EFF00222D59001A0E0FBA3B9
:10237A00E0FAA3E0F99001A7E0FEA3E0FF2484F5C8
:10238A0082E43EF5831215B1900178F074852FF539
:10239A0082E43EF5831215B1900179F09001A8E02C
:1023AA002486FF9001A7E034008F82F5831215B1CD
:1023BA0090017AF07BFF7A0779AD1219AA9001A0F1
:1023CA00E0FBA3E0FAA3E0F99001A7E0FEA3E0FF97
:1023DA002485F582E43EF5831215B1640360030295
:1023EA00247574862FF582E43EF5831215B1640CC8
:1023FA0070799001A7A3E02487F582E43EF5831261
:10240A0015B1706774882FF582E43EF5831215B111
:10241A00FD9001ADE4F0A3EDF074892FF582E43E5E
:10242A00F5831215B1FD7C009001AEE0FEE42DFFAC
:10243A00EC3E9001ADF0A3EFF09001ADE0FEA3E019
:10244A00FF90019DE0FBA3E0FAA3E0F9900024EEDF
:10245A008FF01216FD7BFF7A0779C6900178EEF0AD
:0E246A00A3EFF01219AA7E007F0122E4FEFF0C
:012478002241
:0B376800900174EBF0A3EAF0A3E9F07D
:103773007D867FFF1243697D017FF51243697FD305
:1037830012428A900177EFF0900174E0FBA3E0FA14
:10379300A3E0F9900001EF1216239001787401F071
:1037A300900177E0FFA3E0FED39F502EEE24D3FFDA
:1037B30012428A900174E0FBA3E0FAA3E02401F92A
:1037C300E43AFA900178E07C0029F9EC3AFAEF1236
:1037D3001611900178E004F080C6E4FD7FF5024302
:0137E300697C
:0B343D00900174EBF0A3EAF0A3E9F0AB
:103448009000111215B1900177F0900027E4121640
:10345800237D867FFF1243697D017FF512436990C2
:103468000177E0FD7FF4124369E4900178F0900160
:1034780077E0FFA3E0FED39F5029EE24E4FFEE247B
:1034880012FDE433FC900174E0FBA3E0FAA3E0F939
:103498008D828C831215B1FD124369900178E00486
:1034A800F080CB7D037FF9124369900178E075F0D5
:1034B80019A4FFAEF0E4FCFD123CF9E4FD7FF5022F
:0234C800436956
:1043F6009001257405F0A37440F0A37484F0A374AF
:0A44060010F0E4A3F0A37405F02207
:104410009001257405F0A37440F0A37484F0A37494
:0A44200010F0E4A3F0A37405F022ED
:104387009000231215B1FF9000117401121623EF4C
:0D439700C454F04F90001212162302343D62
:0B3E000090016BE0FBA3E0FAA3E0F9E7
:103E0B0090001174051216239000231215B1FFC4F4
:103E1B0054F0440F90001212162390001374841266
:103E2B0016239000241216C5E5F0900014121623E9
:103E3B009000241216C590001512162390001674CC
:073E4B000412162302343DAE
:1041CE0090001174041216239000231215B1C454DA
:1041DE00F0FF9000261215B14F9000121216239088
:1041EE000013748E121623900014E4121623023458
:0141FE003D83
:1041FF0090001174031216239000231215B1C454AA
:10420F00F0FF9000261215B14F9000121216239056
:10421F000013E4121623900014ED12162302343DFE
:10402600900171EBF0A3EAF0A3E9F0900171E0FBD7
:10403600A3E0FAA3E0F99000271215B1C394055046
:10404600157D867FFF1243697D027FF91243697DE4
:10405600037FF9124369900171E0FBA3E0FAA3E044
:09406600F990002774010215DE37
:0B3A16009001DBEBF0A3EAF0A3E9F065
:103A21009000281215B1704F9001DBE0FBA3E0FA82
:103A3100A3E0F99000117401121623900004E090A4
:103A4100001212162312343D900004E0FFD3940DAE
:103A510040139001DBE0FBA3E0FAA3E0F99000281A
:103A61007401121623EFD3940D4006E4900004F084
:073A710022900004E004F0C4
:013A7800222B
:0B29780090016BEBF0A3EAF0A3E9F084
:1029830012159890016EF030E40C7BFF7A0779EA18
:102993001219AA02449990016EE030E3097BFF7A91
:1029A300087900022B0990016EE054257003022B75
:1029B3000C7BFF7A08790F1219AAE4900170F0904A
:1029C300016BE0FBA3E0FAA3E0F99000111215B14B
:1029D300FF900170E0FEC39F5028EE2412FFE43302
:1029E300FE90016BA3A38F828E831215B1900178A1
:1029F300F07BFF7A08791A1219AA900170E004F0AB
:102A030080BD90016EE030E0097BFF7A08792412E3
:102A130019AA90016EE030E2097BFF7A087935123A
:102A230019AA90016BE0FBA3E0FAA3E0F99000126E
:102A33001215B1FF6444600AEF64886005EF64BB5C
:102A4300706D90016EE030E226EF540F9000231278
:102A530016237BFF7A08793D1219AA90016BE0FBDC
:102A6300A3E0FAA3E0F9122FC790016B123E039083
:102A7300016EE020E003022B0C90016BE0FBA3E06E
:102A8300FAA3E0F99000231215B1FFB404079000F4
:102A93002374088014EFB40807900023740B800993
:102AA300EFB40B089000237404121623024387909B
:102AB300016EE05424600E90016BE0FBA3E0FAA3E7
:102AC300E0F912402690016BE0FBA3E0FAA3E0F9E2
:102AD3009000111215B1C39402402E9000131215E9
:102AE300B1FF90016FF0BF84119000297401121699
:102AF300237BFF7A0879511219AA90016FE07009BC
:092B03007BFF7A08796A1219AA15
:012B0C0022A6
:0B1F7F0090016BEBF0A3EAF0A3E9F087
:101F8A0012159890016EF030E5097BFF7A0879788E
:101F9A0002221F90016EE020E10302223E7B017AB9
:101FAA0001793712376890016BE0FBA3E0FAA3E0EE
:101FBA00F99000011215B1C39401500302223E7B2D
:101FCA00FF7A08798D1219AAE4900173F090016BD7
:101FDA00E0FBA3E0FAA3E0F99000011215B1FF902B
:101FEA000173E0FEC39F5028EE2402FFE433FE9003
:101FFA00016BA3A38F828E831215B1900178F07BB7
:10200A00FF7A08791A1219AA900173E004F080BDC8
:10201A007BFF7A0879981219AA90016BE0FBA3E07A
:10202A00FAA3E0F99000021215B190016FF0FDE0F9
:10203A00FE540F900172F0EE54F0FFC4540F900159
:10204A0071F0BD4F097BFF7A0879A11219AA900194
:10205A006BE0FBA3E0FAA3E0F99000011215B1C30B
:10206A009402500302223E9000031215B1900170AF
:10207A00F090016FE0540F640F7020A3E0FF60122C
:10208A006483600EEF648E6009EF64906004EFF47D
:10209A0070247BFF7A0879B702221F900170E0FF53
:1020AA0064846009EF64846004EFB484097BFF7A76
:1020BA000879B702221F900170E0B4FF307BFF7AE3
:1020CA000879DE1219AA900172E0640F70030222E5
:1020DA003E900171E0FF90016BE0FBA3E0FAA3E000
:1020EA00F9900026EF121623E4FD1241FF900170C9
:1020FA00E0B4830C7BFF7A0879E51219AA123E0034
:10210A00900170E0B490287BFF7A0879FC1219AA32
:10211A0090016BE0FBA3E0FAA3E0F990000112152D
:10212A00B1C3940350097BFF7A09791102221F90E7
:10213A000170E0B48E287BFF7A09792B1219AA90D4
:10214A00016BE0FBA3E0FAA3E0F99000011215B1DC
:10215A00C3940350097BFF7A09791102221F900167
:10216A0070E070287BFF7A0979381219AA90016BFE
:10217A00E0FBA3E0FAA3E0F99000011215B1C394C1
:10218A000350097BFF7A09791102221F900170E03E
:10219A00B49E277BFF7A0979471219AA90016BE04E
:1021AA00FBA3E0FAA3E0F99000011215B1C394036E
:1021BA0050087BFF7A097911805B900170E0B48442
:1021CA00277BFF7A0979541219AA90016BE0FBA3C5
:1021DA00E0FAA3E0F99000011215B1C39405500882
:1021EA007BFF7A097911802D900170E06486704432
:1021FA007BFF7A09796D1219AA90016BE0FBA3E0C3
:10220A00FAA3E0F99000011215B1C3940450097BB6
:10221A00FF7A0979110219AA123E007F787E007DA1
:10222A00007C00123CF990016BE0FBA3E0FAA3E00A
:04223A00F91241CE86
:01223E00227D
:1040B200900165EBF0A3EAF0A3E9F07F011200039F
:1040C200900165E0FBA3E0FAA3E0F99000247420DC
:1040D20075F0001216FD900023740412162390004E
:0F40E20029E4121623900028E4121623022FC798
:1027E100900166121894000000007D827FFF124361
:1027F100697D037FC71243697F327E007D007C00C3
:10280100123CF97FCD12428A900165EFF054606469
:102811006060030228A8E0540FFFE4FCFDFEFBFA10
:102821007901F812172A9001661218887FCE124298
:102831008A900165EFF0A3E0F8A3E0F9A3E0FAA321
:10284100E0FB900165E07F00FEE4FCFDEF2BFFEA79
:102851003EFEED39FDEC38FCA31218887FCF124201
:102861008A900165EFF0A3E0F8A3E0F9A3E0FAA3F1
:10287100E0FB900165E0FFE4FCFDFEEB2FFFEE3A8B
:10288100FEED39FDEC38FCA31218887BFF7A09793B
:102891007E900166E0FCA3E0FDA3E0FEA3E0FF90D3
:1028A100017812188880067BFF7A0979961219AA95
:1028B1007D827FFF1243697D047FC71243697F32A6
:1028C1007E007D007C00123CF97FCD12428A90018E
:1028D10065EFF054606460600302296EE0540FFFFD
:1028E100E4FCFDFEFBFA7901F812172A9001661249
:1028F10018887FCE12428A900165EFF0A3E0F8A319
:10290100E0F9A3E0FAA3E0FB900165E07F00FEE4BB
:10291100FCFDEF2BFFEA3EFEED39FDEC38FCA31286
:1029210018887FCF12428A900165EFF0A3E0F8A3E7
:10293100E0F9A3E0FAA3E0FB900165E0FFE4FCFD10
:10294100FEEB2FFFEE3AFEED39FDEC38FCA3121839
:10295100887BFF7A0979B1900166E0FCA3E0FDA3D1
:10296100E0FEA3E0FF90017812188880067BFF7AD1
:062971000979C91219AA40
:01297700223D
:103E5200E4900167F07D827FFF1243697F86124200
:103E62008A900165E4F0A3EFF07F8712428AEFFDAA
:103E72007C00900166E0FEE42DFFEC3EFE900165C1
:103E8200F0A3EFF07BFF7A0979E4900178EEF0A3DA
:103E9200EFF01219AA900167E004F0E0C3940A401F
:013EA200B46B
:013EA30022FC
:1036E500E4900168F07D837FFF1243697F97124262
:1036F5008A900178EFF07BFF7A0979F91219AA7F90
:10370500B412428A900178EFF07BFF7A0A791012A1
:1037150019AA7FB512428A900178EFF07BFF7A0AE9
:1037250079191219AA7FB612428A900178EFF07BB7
:10373500FF7A0A79191219AA7FB712428A9001787D
:10374500EFF07BFF7A0A79191219AA7FE87E037DCB
:10375500007C00123CF9900168E004F0E0C3940A93
:0237650040839F
:01376700223F
:102EC0007D837FFF1243697FBC12428A900165EFC8
:102ED000F07BFFBF55067A0A7920800C7A0A793A8E
:102EE000900165E0900178F01219AA7F9912428A48
:102EF000900165EFF07BFFBFB8067A0A7960800C1D
:102F00007A0A797B900165E0900178F01219AA7F26
:102F10009B12428A900165EFF07BFFBFB8067A0AE8
:102F2000799D800C7A0A79B8900165E0900178F07B
:102F30001219AA7F9D12428A900165EFF07BFFBFB4
:102F4000B8067A0A79DA800C7A0A79F5900165E098
:102F5000900178F01219AA7F9F12428A900165EFC2
:102F6000F07BFFBFB8067A0B7917800C7A0B7932A9
:102F7000900165E0900178F01219AA7F9812428AB8
:102F8000900178EFF07BFF7A0B79541219AA7F9A9F
:102F900012428A900178EFF07BFF7A0B7973121955
:102FA000AA7F9C12428A900178EFF07BFF7A0B791E
:102FB000921219AA7F9E12428A900178EFF07BFF4D
:072FC0007A0B79B10219AA96
:1043C0007D827FFF1243697D0A7F58124369E4FDB5
:0C43D0007F591243697DF77F9E0243690C
:10442A00EF7D817FFF60071243697D10800512438B
:09443A00697D307F5112436922B3
:102DB000900169EDF0900168EFF064017042A3E0CA
:102DC0007D827FFF60201243697DFF7F0712436988
:102DD0007D3F7F071243697D3F7F031243697BFF7D
:102DE0007A0B79D080171243697DFF7F0712436900
:102DF0007DFF7F031243697BFF7A0B79FB1219AACF
:102E0000900168E064027050A3E07D827FFF602E35
:102E10001243697DFF7F9E1243697DF77F9E1243B7
:102E2000697DFF7F041243697DFE7F041243697D43
:102E3000FEE4FF1243697BFF7A0C79278017124367
:102E4000697DFF7F041243697DFFE4FF1243697BC4
:102E5000FF7A0C79561219AA900168E06403705F3A
:102E6000A3E07D867FFF6031124369E4FD7FFA12A3
:102E700043697D7F7FFC124369E4FD7FFC12436957
:102E80007D827FFF1243697D7F7F011243697DFF51
:102E90007F051243697D7F80211243697DFF7FFAA0
:102EA0001243697D7F7FFC1243697D827FFF12435D
:102EB000697DFF7F011243697DFF7F05124369220F
:103661007D827FFF1243697DFF7F071243697D3FA2
:103671007F071243697BFF7A0C79861219AA1242DD
:10368100B312425DEF60477BFF7A0C79B01219AA41
:10369100E4FF12394C7D017F02122DB07F647E0060
:1036A1007D007C00123CF912003A120FA690010A2B
:1036B100E0600F121CA4122C7F122B0D1238D702BE
:1036C10036E51242B37BFF7A0C79DF0219AA7BFF40
:1036D1007A0D79211219AAE4FD7F02122DB07F0122
:0436E10012394C222C
:1039B1007BFF7A0D79521219AA7D827FFF1243692A
:1039C1007DFF7F9E1243697DF77F9E1243697DFFD4
:1039D1007F041243697DFE7F04124369120FA69092
:1039E100010AE0602C7D807FFF1243697D5A7F11BF
:1039F1001243697F0A7E007D007C00123CF97DFA4A
:103A01007F11124369121CA4122C7F122B0D023854
:053A1100D71242B322B0
:0B385E00900168EBF0A3EAF0A3E9F092
:103869007D867FFF1243697FD212428A900168E008
:10387900FBA3E0FAA3E0F9EF1216117BFF7A0D79A9
:1038890076900178F01219AA7D867FFF1243697D2F
:103899007F7FFC124369E4FD7FFC1243697D827FCF
:1038A900FF1243697DFF7F051243697D7F7F051202
:1038B9004369900168E0FBA3E0FAA3E0F9122978D3
:0E38C900900168E0FBA3E0FAA3E0F9021F7F84
:0B2479009001BFEBF0A3EAF0A3E9F034
:102484009001BFE0FBA3E0FAA3E0F9900015121558
:10249400B1C43354E0FF9000141215B1C454F02FAA
:1024A4009001C2F0F4F05430F07D827FFF12436952
:1024B4009001BFE0FBA3E0FAA3E0F9900004121638
:1024C400C5FFAEF09000021216C52FE5F03EFD7F69
:1024D400A31243699001BFE0FBA3E0FAA3E0F990E3
:1024E40000041216C5FFAEF09000021216C52FFFAD
:1024F400E5F03EAD077FA41243699001BFE0FBA362
:10250400E0FAA3E0F990000E1216C5FFAEF09000B9
:102514000C1216C52FFFE5F03EAD077FA5124369E7
:102524009001BFE0FBA3E0FAA3E0F99000061216C5
:10253400C5E5F0FD7FA61243699001BFE0FBA3E06F
:10254400FAA3E0F99000061216C5FD7FA7124369AD
:102554009001BFE0FBA3E0FAA3E0F990001012168B
:10256400C5E5F0FD7FA81243699001BFE0FBA3E03D
:10257400FAA3E0F99000101216C5FD7FA912436971
:102584009001BFE0FBA3E0FAA3E0F9900008121663
:10259400C5E5F0FD7FAA1243699001BFE0FBA3E00B
:1025A400FAA3E0F99000081216C5FD7FAB12436947
:1025B4009001BFE0FBA3E0FAA3E0F9900012121629
:1025C400C5E5F0FD7FAC1243699001BFE0FBA3E0D9
:1025D400FAA3E0F99000121216C5FD7FAD1243690B
:1025E4009001BFE0FBA3E0FAA3E0F9900002121609
:1025F400C5E5F0FD7FAE1243699001BFE0FBA3E0A7
:10260400FAA3E0F99000021216C5FD7FAF124369E8
:102614009001BFE0FBA3E0FAA3E0F990000C1216CE
:10262400C5FD7FB01243699001C2E04407FD7F47B6
:03263400024369F5
:103252009000191218589001C31218887BFF7A0D3A
:10326200798F9001C3E0FCA3E0FDA3E0FEA3E0FFA1
:103272009001781218881219AA7D837FFF12436980
:103282007D507F2D1243697F287E887D047C0090CB
:1032920001C3E0F8A3E0F9A3E0FAA3E0FBC312182C
:1032A20047700E7DB67F261243697DF07F27124359
:1032B200697F147E447D027C009001C3E0F8A3E0A4
:1032C200F9A3E0FAA3E0FBC312184770077DB77FAA
:1032D200261243697F0A7E227D017C009001C3E0B1
:1032E200F8A3E0F9A3E0FAA3E0FBC31218477007C2
:1032F2007D9C7F261243697D807FFF1243697D5A40
:0C3302007F111243697DFA7F11024369BC
:1044AE007D827FFF1243697D807F4F1243697D209D
:0544BE007F500243697C
:1041640090010774FFF0A3740EF0A374A1F0124041
:104174006F123B341244AE121CA4900107E0FBA35F
:10418400E0FAA3E0F9122479122B0D1235561233FA
:064194000E1238D780FE78
:103191009001611218940000000012406F123B343C
:1031A100123B8F1230C07FE87E037D007C00123C11
:1031B100F9120FA6121CA4122C7F12330E12434ACD
:1031C10012422F1237E4122B0D1235561243C07FD3
:1031D100011200037B017A0179371240B27D017F30
:1031E10001122DB0E4FD7F02122DB07D017F03128B
:1031F1002DB01227E1122EC0123E527FC87E007DF3
:10320100007C00123CF91236617BFF7A0D79A51220
:1032110019AA9001E0E0600B123FDBE49001E0F0BD
:10322100439B02900111E0B401E812425DEF60E2BC
:103231007D857FFF1243697F4412428AEF30E2D2DB
:103241007F4412428AEF20E1C91244431240F180C7
:01325100C1BB
:03003B000243037A
:10430300C0E0C083C082C0D0E5ECB4080575EC0002
:10431300C2899001E07401F0539BFDD0D0D082D0CC
:0443230083D0E03231
:103FDB007D827FFF1243697F0C12428A900166EF4C
:103FEB00F07F0D12428A900167EFF07F0F12428A29
:103FFB00900165EFF0900167E030E7097B017A01F2
:10400B00793712385E900165E054C0600312366157
:0A401B00900166E030E0031239B1B5
:014025002278
:030000000234CAFD
:0C34CA00787FE4F6D8FD758121023511F1
:103CA0009001C7121888538EF7438901D28CE4FF24
:103CB000FEFDFC9001C7E0F8A3E0F9A3E0FAA3E061
:103CC000FBC3121847602F758A7E758CFF308DFDFF
:103CD000C28D9001C7E0FCA3E0FDA3E0FEA3E024B9
:103CE000FFFFEE34FFFEED34FFFDEC34FFFC9001EE
:093CF000C712188880B8C28C22AA
:103CF900900179121888538EF7438901D28CE4FF19
:103D0900FEFDFC900179E0F8A3E0F9A3E0FAA3E055
:103D1900FBC3121847602F758ACA758CFA308DFD5E
:103D2900C28D900179E0FCA3E0FDA3E0FEA3E024AD
:103D3900FFFFEE34FFFEED34FFFDEC34FFFC900194
:093D49007912188880B8C28C229E
:103D52009001CB121888538EEF438910D28EE4FF64
:103D6200FEFDFC9001CBE0F8A3E0F9A3E0FAA3E0AA
:103D7200FBC3121847602F758BEA758DCB308FFD10
:103D8200C28F9001CBE0FCA3E0FDA3E0FEA3E02400
:103D9200FFFFEE34FFFEED34FFFDEC34FFFC90013B
:093DA200CB12188880B8C28E22F1
:103AD8009001CF12188853C9BF53C9DF43C910D208
:103AE800CAE4FFFEFDFC9001CFE0F8A3E0F9A3E0F3
:103AF800FAA3E0FBC3121847602F75CC3075CDF8D8
:103B080030CFFDC2CF9001CFE0FCA3E0FDA3E0FEE3
:103B1800A3E024FFFFEE34FFFEED34FFFDEC34FF9D
:0C3B2800FC9001CF12188880B8C2CA229D
:103BEA009001D312188875C40743C408E4FFFEFD88
:103BFA00FC9001D3E0F8A3E0F9A3E0FAA3E0FBC349
:103C0A00121847603275C52C75C6CFE5C430E4FB7F
:103C1A0053C4EF9001D3E0FCA3E0FDA3E0FEA3E0D0
:103C2A0024FFFFEE34FFFEED34FFFDEC34FFFC9081
:0B3C3A0001D312188880B553C4F72294
:103C45009001D712188875C40743C408E4FFFEFD28
:103C5500FC9001D7E0F8A3E0F9A3E0FAA3E0FBC3E9
:103C6500121847603275C5D875C6FFE5C430E4FB48
:103C750053C4EF9001D7E0FCA3E0FDA3E0FEA3E071
:103C850024FFFFEE34FFFEED34FFFDEC34FFFC9026
:0B3C950001D712188880B553C4F72235
:1034D6000244C3E493A3F8E493A34003F68001F205
:1034E60008DFF48029E493A3F85407240CC8C333F7
:1034F600C4540F4420C8834004F456800146F6DFC6
:10350600E4800B0102040810204080903DABE47E6D
:10351600019360BCA3FF543F30E509541FFEE493BA
:10352600A360010ECF54C025E060A840B8E493A381
:10353600FAE493A3F8E493A3C8C582C8CAC583CAAC
:10354600F0A3C8C582C8CAC583CADFE9DEE780BE64
:013DFF0000C3
:10159800BB010689828A83E0225002E722BBFE0251
:0915A800E32289828A83E4932284
:1015B100BB010CE58229F582E5833AF583E02250EF
:1015C10006E92582F8E622BBFE06E92582F8E22239
:0D15D100E58229F582E5833AF583E4932253
:1015DE00BB010FF8E58229F582E5833AF583E02811
:1015EE00F0225009C58229F8E58226F622BBFE09B3
:1015FE00C58229F8E22582F222F8EA2583F583E9ED
:03160E00932822FC
:10161100BB010689828A83F0225002F722BBFE01B8
:02162100F322B2
:10162300F8BB010DE58229F582E5833AF583E8F0FD
:10163300225006E92582C8F622BBFE05E92582C8A9
:02164300F22291
:10164500BC000BBE0029EF8DF084FFADF022E4CC89
:10165500F875F008EF2FFFEE33FEEC33FCEE9DEC52
:10166500984005FCEE9DFE0FD5F0E9E4CEFD22ED98
:10167500F8F5F0EE8420D21CFEADF075F008EF2FE2
:10168500FFED33FD4007985006D5F0F222C398FDD3
:051695000FD5F0EA2270
:10169A00BB010A89828A83E0F5F0A3E0225006871B
:1016AA00F009E71922BBFE07E3F5F009E3192289DD
:0B16BA00828A83E493F5F07401932210
:1016C500BB0110E58229F582E5833AF583E0F5F063
:1016D500A3E0225009E92582F886F008E622BBFE40
:1016E5000AE92582F8E2F5F008E222E5832AF58386
:0816F500E993F5F0A3E993224B
:1016FD00F8BB0111E58229F582E5833AF583E8F01F
:10170D00E5F0A3F0225009E92582C8F608A6F022DB
:0D171D00BBFE09E92582C8F2E5F008F222C2
:10172A00E88FF0A4CC8BF0A42CFCE98EF0A42CFC5E
:10173A008AF0EDA42CFCEA8EF0A4CDA8F08BF0A4DC
:10174A002DCC3825F0FDE98FF0A42CCD35F0FCEB3B
:10175A008EF0A4FEA9F0EB8FF0A4CFC5F02ECD3900
:0F176A00FEE43CFCEAA42DCE35F0FDE43CFC226D
:1017790075F008758200EF2FFFEE33FECD33CDCC27
:1017890033CCC58233C5829BED9AEC99E5829840AA
:101799000CF582EE9BFEED9AFDEC99FC0FD5F0D687
:1017A900E4CEFBE4CDFAE4CCF9A88222B800C1B9B1
:1017B9000059BA002DEC8BF084CFCECDFCE5F0CBEF
:1017C900F97818EF2FFFEE33FEED33FDEC33FCEB28
:1017D90033FB10D703994004EB99FB0FD8E5E4F9E3
:1017E900FA227818EF2FFFEE33FEED33FDEC33FCD0
:1017F900C933C910D7059BE99A4007EC9BFCE99AC4
:10180900F90FD8E0E4C9FAE4CCFB2275F010EF2F08
:10181900FFEE33FEED33FDCC33CCC833C810D70708
:101829009BEC9AE899400AED9BFDEC9AFCE899F843
:0E1839000FD5F0DAE4CDFBE4CCFAE4C8F922D6
:10184700EB9FF5F0EA9E42F0E99D42F0E89C45F0F7
:01185700226E
:10185800BB010DE58229F582E5833AF5830218D1AB
:101868005007E92582F80218C5BBFE07E92582F86A
:101878000218DDE58229F582E5833AF5830218E945
:0C188800ECF0A3EDF0A3EEF0A3EFF022D3
:10189400A8828583F0D083D0821218AB1218AB12C1
:1018A40018AB1218ABE473E493A3C583C5F0C583E6
:1018B400C8C582C8F0A3C583C5F0C583C8C582C89E
:0118C4002201
:10193F00E5082478F582E43401F583E00508229068
:10194F000175300703900178E475F0011218F90260
:10195F0015982000E97F2ED2008018EF540F2490A5
:10196F00D43440D4FF30040BEF24BFB41A0050031B
:10197F002461FFE50960021509050CE50C700205ED
:10198F000B30070E900175E475F0011218F9EF0294
:10199F0016110242DC7403D2078003E4C207F50874
:1019AF00900175121910E4F509F50BF50CE50960B6
:1019BF00077F2012198280F5750AFFC201C200C28B
:1019CF0002C203C205C206C20812194EFF700D30C3
:1019DF0007057F00121993AF0CAE0B22B4255FC21F
:1019EF00D5C20412194EFF24D0B40A00501A75F054
:1019FF000A780930D50508B6FF0106C6A426F620D9
:101A0F00D5047002D20380D924CFB41A00EF50044A
:101A1F00C2E5D204021B94D20180C6D20080C0D28C
:101A2F000280BCD2D580BAD20580B47F2012198231
:101A3F002002077401B5090040F112193FFF121976
:101A4F00820219BCD208D206809512193FFB1219D7
:101A5F003FFA12193FF94A4B700679657A1C7BFFE2
:101A6F0020022EE509602A7E008E827583001215F2
:101A7F00B160060EEE650A70F0C2D5EBC0E0EAC0A9
:101A8F00E0E9C0E0EE121BDBD0E0F9D0E0FAD0E0E5
:101A9F00FB121598FF60AAEBC0E0EAC0E0E9C0E0D6
:101AAF00121982D0E02401F9D0E03400FAD0E0FB23
:101ABF00E50A0460DCD50AD980877BFF7A1B79D7CA
:101ACF00D202809C791080027908C206C208800871
:101ADF00D2D5790A8004790AC2D5E50A047002F5D5
:101AEF000AE4FAFDFEFF12193FFC7B0820011312D6
:101AFF00193FFD7B1030000A12193FFE12193FFFEC
:101B0F007B20EC3382D592D55013C3E43000069F6F
:101B1F00FFE49EFEE42001039DFDE49CFCE4CBF872
:101B2F00C201EC700CCFCECDCCE824F8F870F38066
:101B3F0017C3EF33FFEE33FEED33FDEC33FCEB3326
:101B4F00FB994002FB0FD8E9EB300105F8D0E0C458
:101B5F0048B201C0E00AEC4D4E4F78207B0070C2B6
:101B6F00EAB50A0040BCC0E0121BDDD0F0D0E02087
:101B7F000104C4C0E0C4B201C0F012196BD0F0D59B
:101B8F00F0EB0219BC1219191A59531AD3581A2A01
:101B9F004C1A26421AD74F1ADF441ADF491A3F430D
:081BAF001AE5551AC9461AC9CE
:101BB700451AC9471C85501A2E2D1A322E1A552B35
:101BC7001A36231A53201C6E2A19EE4800001A4DA4
:101BD7003F3F3F00790AA2D5200314300509B91009
:101BE700020404B9080104A2D5200602500104200A
:101BF70002689202B509005034C0E07F2030031913
:101C07007F30A20272067205500F121C34C202C244
:101C170006C205C2087F30800F300503E9C0E01215
:101C27001982300503D0E0F9D0E0B509CC300517AB
:101C37007F30B9100C1219827F583004077F7880E3
:101C470003B908031219823002057F2D0219827F1A
:101C5700202008F87F2B2006F322920280CF286EDF
:101C6700756C6C2900D20112193F3001F8C2017856
:101C77000930D50108F60219EE2D504349581219BB
:101C87003F2403B405004001E4901C8093121973AC
:0D1C9700743A121973D203750904021AD3AE
:0C18C500E6FC08E6FD08E6FE08E6FF224F
:0C18D100E0FCA3E0FDA3E0FEA3E0FF228A
:0C18DD00E2FC08E2FD08E2FE08E2FF2247
:1018E900E493FC740193FD740293FE740393FF2245
:1018F900F8E0FBA3A3E0F925F0F0E5821582700278
:071909001583E0FA38F0221B
:09191000EBF0A3EAF0A3E9F022D8
:10191900D083D082F8E4937012740193700DA3A35D
:1019290093F8740193F5828883E473740293686071
:06193900EFA3A3A380DF71
:1042DC00EFB40A07740D1242E7740A309811A899CA
:1042EC00B8130CC2983098FDA899C298B811F63042
:0742FC0099FDC299F599221A
:00000001FF
