:1038900053B1BF53B2BF53B17F53B27F75985043FA
:1038A0008920438780438E1053C4DFAB07AA06A943
:1038B00005A8047F407E427D0F7C00122023EF0488
:0938C000F404F58DD28ED2992298
:083B2E00C2998F993099FD2224
:03003700023B2E5B
:103812000D0A2323232323232323232323232323A5
:103822002323232323232323232323236D6375208D
:1038320073746172742323232323232323232323D7
:103842002323232323232323232323232323232346
:043852002323230009
:043A000041009100F0
:1037390043B30153B4FE43B30253B4FD43B304533B
:10374900B4FB43B10853B2F743B11053B2EF53ACD2
:10375900FE43AD0143B30843B40843B31043B41067
:103769007F007EC27D017C0012389053E9FB43E95A
:0D3779002043EA0853EBF7439B02D2AF2236
:103A5500C2B07FC87E007D007C001235E6D2B07F03
:0A3A6500C87E007D007C000235E6FB
:103AEE001237397BFF7A387912121B6C123A551243
:043AFE002E8180FE97
:043A040041008F7678
:073B0200123B09D2937F0A78
:0A3B0900E4FEEEC39F50030E80F8A7
:013B1300228F
:103A8500D2947F01123B02C2947F07123B09C29375
:053A95007F01023B0966
:0C3B2200C2947F02123B02D294023B09C5
:02369800AD077C
:10369A00E4FCEDA804088002C333D8FC30E704D266
:1036AA00948002C2947F03123B09D2930F123B0902
:1036BA00C2930CECB408DB7F01123B09D2947F035E
:1036CA00123B09D293123B09309407E4900090F020
:0F36DA0080069000907401F0C2937F03023B09B9
:10000300E4FDD294FC7F01123B09C2937F04123BAF
:1000130009D2937F02123B09ED25E0FD3094010DD7
:100023007F02123B090CECB408DBC2937F05123B41
:0300330009AF050D
:0100360022A7
:103A1D00EF7004C2948002D2947F08123B09D293B6
:0C3A2D007F0F123B09C2937F08023B0987
:0733C100900012EDF0AC07D3
:1033C800123A85AF04123698900090E07002802D72
:1033D800900012E0FF123698900090E07002801D75
:1033E800E4900017F0900016E0FFA3E0C39F50227E
:1033F800121E66FF123698900090E07006123B226B
:103408007F0022740129F9E43AFA900017E004F0E9
:0734180080D3123B227F016B
:01341F00228A
:082F0900900011EFF0A3EDF0C0
:102F1100123A85900011E0FF123698900090E0700F
:102F2100028022900012E0FF123698900090E0702B
:102F3100028012123A85900011E004FF1236989037
:102F41000090E07009123B22E4121EACFF22E490D3
:102F51000017F0900016E014FFA3E0C39F501B126E
:102F61000003EF121EACE4FF123A1D740129F9E4CB
:102F71003AFA900017E004F080D9120003EF121E14
:0B2F8100AC7F01123A1D123B227F01C1
:012F8C002222
:0238C900AE0748
:1038CB00E4900010F090008FE0FFAD067B017A00D2
:1038DB0079109000167401F0122F09EF600690001A
:0638EB0010E0FF227F0047
:0138F10022B4
:023A9A00AE0775
:103A9C0090008FE0FFAD0690006EE0900016F012E3
:023AAC002F09E0
:013AAE0022F5
:0739C400900010EDF0AE07CA
:1039CB0090008FE0FFAD067B017A00791090001616
:0639DB007401F01233C17B
:0139E10022C3
:023AAF00AE0760
:103AB10090008FE0FFAD06900073E0900016F012C9
:023AC10033C10F
:013AC30022E0
:10003E000A4C54393631312072696E672043686933
:10004E0070204944203D2030782562782C2030786D
:10005E002562782C2030782562782020000D0A1B2E
:10006E005B33356D4C54393631315F4C6F77506F91
:10007E007765725F6D6F64653A20656E7465722088
:10008E006C6F7720706F776572206D6F64651B5B88
:10009E0033376D000D0A1B5B33356D4C54393631D9
:1000AE00315F4C6F77506F7765725F6D6F64653A35
:1000BE002065786974206C6F7720706F7765722079
:1000CE006D6F64651B5B33376D000A4C54393631E6
:1000DE00315F4D4950495F496E7075745F44696771
:1000EE0074616C3A206C743936313120736574202A
:1000FE006D697069206C616E6573203D20256264A8
:10010E00000A4C54393631315F4D4950495F496EC2
:10011E007075745F44696774616C3A206C7439361B
:10012E00313120736574206D69706920706F72743F
:10013E0073203D2031000A4C54393631315F4D4920
:10014E0050495F496E7075745F44696774616C3AAB
:10015E00206C743936313120736574206D69706985
:10016E0020706F7274203D2032000A4C54393631A3
:10017E00315F4D4950495F496E7075745F446967D0
:10018E0074616C3A204C54393631312E6D69706978
:10019E005F6D6F6465203D20637369000A4C5439AE
:1001AE003631315F4D4950495F496E7075745F4409
:1001BE00696774616C3A204C54393631312E6D6951
:1001CE0070695F6D6F6465203D20647369001B5B11
:1001DE0033326D000A4C54393631315F56696465DD
:1001EE006F5F436865636B3A20685F746F74616C10
:1001FE005F737973636C6B203D202564000A4C5449
:10020E00393631315F566964656F5F436865636B7C
:10021E003A206C74393631312E696E7075745F63A5
:10022E006F6C6F725F7370616365203D2059555618
:10023E00343232000A4C54393631315F56696465B6
:10024E006F5F436865636B3A206C74393631312EBB
:10025E00696E7075745F636F6C6F725F73706163DC
:10026E0065203D20524742383838000A4C54393602
:10027E0031315F566964656F5F436865636B3A2021
:10028E00685F6163745F612C20685F6163745F6295
:10029E002C20765F6163742C20765F74616C3A203B
:1002AE0025642C2025642C2025642C2025642C20EC
:1002BE00000A4C54393631315F566964656F5F43BD
:1002CE006865636B3A206D6970695F766964656F06
:1002DE005F666F726D61743A203078256278000D1A
:1002EE000A4C54393631315F566964656F5F436825
:1002FE0065636B3A20566964656F5F466F726D6118
:10030E0074203D0020766964656F5F363430783432
:10031E0038305F3630487A200020766964656F5F2A
:10032E00373230783438305F3630487A20002076D5
:10033E006964656F5F373230783537365F353048F0
:10034E007A200020766964656F5F313238307837F5
:10035E0032305F3630487A200020766964656F5FF0
:10036E0031323830783732305F3530487A200020DD
:10037E00766964656F5F31323830783732305F338B
:10038E0030487A200020766964656F5F31393230EB
:10039E0078313038305F3630487A20002076696404
:1003AE00656F5F3139323078313038305F353048F3
:1003BE007A200020766964656F5F3139323078318A
:1003CE003038305F3330487A200020766964656FAC
:1003DE005F3139323078313038305F3235487A20FB
:1003EE000020766964656F5F31393230783130388C
:1003FE00305F3234487A200020766964656F5F334F
:10040E0038343078323136305F3330487A2000203D
:10041E00766964656F5F3338343078323136305FE9
:10042E003235487A200020766964656F5F33383440
:10043E003078323136305F3234487A200020766997
:10044E0064656F5F383030783630305F3630487ADA
:10045E00200020766964656F5F313032347837362C
:10046E00385F3630487A200020766964656F5F31D8
:10047E00323830783736385F3630487A200020767A
:10048E006964656F5F31323830783830305F3630BE
:10049E00487A200020766964656F5F313238307893
:1004AE003830305F3330487A200020766964656FCB
:1004BE005F31323830783936305F3630487A200046
:1004CE0020766964656F5F31323830783936305F47
:1004DE003330487A200020766964656F5F31323898
:1004EE003078313032345F3630487A2000207669E9
:1004FE0064656F5F3136303078313230305F363090
:10050E00487A200020766964656F5F31363830781E
:10051E00313035305F3630487A2000207669646598
:10052E006F5F31333636783736385F3630487A205B
:10053E000020766964656F5F323536307831343439
:10054E00305F3630487A200020766964656F5F32FE
:10055E0035363078313434305F3530487A200020EB
:10056E00766964656F5F37323078313038305F3698
:10057E0030487A200020766964656F5F31303830FC
:10058E0078313932305F3630487A2000207669640F
:10059E00656F5F3338343078313038305F363048FD
:1005AE007A200020766964656F5F31303234783698
:1005BE0030305F3630487A200020766964656F5F90
:1005CE00353430783936305F3630487A2000207630
:1005DE006964656F5F3235363078313630305F366C
:1005EE0030487A200020766964656F5F3235363088
:1005FE0078313038305F3630487A200020766964A2
:10060E00656F5F32353630783732305F3630487A44
:10061E00200020766964656F5F3732307835303769
:10062E005F3630487A200020756E6B6E6F776E20C5
:10063E00766964656F20666F726D617420001B5B56
:10064E0033376D1B5B33376D000D0A4C5439363121
:10065E00315F4D4950495F5063723A2036343078DD
:10066E003438305F3630487A000D0A4C5439363102
:10067E00315F504C4C3A2073657420727820706C48
:10068E006C203D20256C64000D0A4C5439363131F6
:10069E005F504C4C3A207063725F6D203D20307875
:1006AE002562782C2068646D695F706F73745F6467
:1006BE006976203D20256264000D0A4C543936318E
:1006CE00315F504C4C3A2048444D4920706C6C20A0
:1006DE006C6F636B6564000D0A4C54393631315FB3
:1006EE00504C4C3A2048444D4920706C6C20756E2D
:1006FE006C6F636B65642C20726573657420706C0F
:10070E006C000D0A4C54393631315F48444D495F07
:10071E0054585F5068793A204143000D0A1B5B33F1
:10072E00356D4C54393631315F48444D495F4F7504
:10073E00745F456E61626C651B5B33376D000D0A2D
:10074E001B5B33356D4C54393631315F48444D495E
:10075E005F4F75745F44697361626C651B5B333701
:10076E006D000D0A4C54393631315F48444D495FA6
:10077E0054585F4469676974616C3A20484D444926
:10078E00206D6F6465203D2048444D49000D0A4C94
:10079E0054393631315F48444D495F54585F44698E
:1007AE00676974616C3A20484D4449206D6F6465E9
:1007BE00203D20445649000D0A4C54393631315FE4
:1007CE004353433A2059706270722034323220748F
:1007DE006F20524742383838000D0A417564696FF0
:1007EE0020696E7574203D204932532032636800B3
:1007FE000D0A417564696F20696E7574203D205332
:10080E0050444946000D0A4C54393631315F484444
:10081E0043505F456E61626C653A204F6E0020302A
:10082E0078256278000D0A706F727420412062790B
:10083E00746520636C6B203D20256C64000D0A707E
:10084E006F72742041206279746520636C6B207521
:10085E006E737461626C65000D0A706F7274204263
:10086E00206279746520636C6B203D20256C6400DA
:10087E000D0A706F72742042206279746520636C69
:10088E006B20756E737461626C65000D0A4C543981
:10089E003631315F456E61626C655F496E746572AB
:1008AE0072757074733A206870645F6972715F65F7
:1008BE006E61626C65000D0A4C54393631315F45FC
:1008CE006E61626C655F496E746572727570747379
:1008DE003A206870645F6972715F64697361626CFB
:1008EE0065000D0A4C54393631315F456E61626CCC
:1008FE00655F496E74657272757074733A207669AD
:10090E00645F6368675F6972715F656E61626C6573
:10091E00000D0A4C54393631315F456E61626C659B
:10092E005F496E74657272757074733A207669647D
:10093E005F6368675F6972715F64697361626C653A
:10094E00000D0A4C54393631315F4844505F496EC0
:10095E00746572727570745F48616E646C653A206E
:10096E0048444D4920636F6E6E6563746564000D77
:10097E000A4C54393631315F4844505F496E7465C4
:10098E0072727570745F48616E646C653A206E6F3A
:10099E00206D69706920766964656F2C20646973B7
:1009AE0061626C652068646D69206F757470757412
:1009BE00000D0A4C54393631315F4844505F496E50
:1009CE00746572727570745F48616E646C653A20FE
:1009DE0048444D4920646973636F6E6E6563746538
:1009EE0064000D0A4C54393631315F5669645F43E9
:1009FE0068675F496E746572727570745F48616E78
:100A0E00646C653A20000D0A6365635F73746174EC
:100A1E00757328307838366432293D203078256257
:100A2E0078000D0A636563207265633A20000D0A33
:100A3E0073656E64206461746120646F6E652E2030
:100A4E00000D0A73657420706978656C20636C6B99
:100A5E00203D20256C64000D0A232323232323230A
:100A6E0023232323234C543936313120496E6974A4
:100A7E0069616C20456E64232323232323232323C0
:100A8E00232323232323232323000010006000307D
:100A9E0002800320000A0002002101E0020D000086
:100AAE000001000061A80010003E003C02D0035A75
:100ABE0000090006001E01E0020D00000003000008
:100ACE006978000C0040005802D003600005000554
:100ADE000027024002710000001100006978006ECC
:100AEE00002800DC0500067200050005001402D087
:100AFE0002EE010100040001220A01B8002800DC08
:100B0E00050007BC00050005001402D002EE01012D
:100B1E0000130001220A0058002C00940780089848
:100B2E0000040005002404380465010100100002D1
:100B3E0044140210002C009407800A500004000593
:100B4E000024043804650101001F000244140058FB
:100B5E00002C009407800898000400050024043837
:100B6E000465010100220001220A0210002C0094EB
:100B7E0007800A50000400050024043804650101B2
:100B8E0000210001220A027E002C009407800ABE7A
:100B9E000004000500240438046501010020000152
:100BAE00220A00B0005801280F0011300008000A78
:100BBE000048087008CA0101005F0004882804205C
:100BCE00005801280F0014A00008000A0048087001
:100BDE0008CA0101005E0004882804FC00580128A0
:100BEE000F00157C0008000A0048087008CA0101B1
:100BFE00005D0004882800F8002C00940A000AA06A
:100C0E0000040005000B0438044C01010000000331
:100C1E0005700030008000580320042000010004FD
:100C2E000017025802740101000000009C400018D9
:100C3E00008800A00400054000030006001D03000C
:100C4E000326000000000000FDE80040008000C008
:100C5E00050006800003000700140300031E0001B8
:100C6E0000000001368C0048008000C80500069088
:100C7E000003000600160320033F000100000001E0
:100C8E00462C0060007001380500070800010003C3
:100C9E00002403C003E8010100000001A5E00048A4
:100CAE00008000C805000690000300060016032011
:100CBE00033F000100000000A31600600070013821
:100CCE000500070800010003002403C003E801012A
:100CDE0000000000D2F00030007000F80500069809
:100CEE000001000300260400042A01010000000197
:100CFE00A5E0004000C0013006400870000100036E
:100D0E00002E04B004E201010000000278D0006859
:100D1E0000B00118069008C000030006001E041A59
:100D2E0004410001000000023B4A06E0002800DCFE
:100D3E0005000CE400050005001402D002EE0101CE
:100D4E0000000001220A003C003C00640400048202
:100D5E0000020005000A02580269010100000000AD
:100D6E0084D0000E00380040055605DC000100035B
:100D7E00001C03000320010100000001211000B03F
:100D8E00011001C00A000D8000030005002405A01B
:100D9E0005CC010100000003E8FA003000200050ED
:100DAE000A000AA000030005002105A005C90101E3
:100DBE0000000003AF5C0030002000500A000AA0C3
:100DCE000003000600250640066E01010000000427
:100DDE0018D400B0005801280F001130000400058F
:100DEE00002404380465010100000004882800DC9A
:100DFE00005001B80A000CE400050005001402D0F2
:100E0E0002EE01010000000244140004000500245B
:100E1E00043804650058002C0094078008980101DE
:100E2E0000000002441400050005001402D002EE7A
:100E3E00006E002800DC05000672010100000001B2
:100E4E00220A001E000A001E021C0262000A000A8C
:100E5E00000A03C003DE01010000000082DC001066
:100E6E00003E003C02D0035A00090006000301FBBD
:0A0E7E00020D000000030000697877
:103A080049003D010000000000010100410047009D
:043A18004100380031
:1036E9007D807FFF1239C47D017FEE1239C4E4FF6A
:1036F9001238C9C0077F011238C9C0077F021238C2
:10370900C9900015EFF0900014D0E0F0900013D0AC
:10371900E0F07BFF7A00793E121B6C7D817FFF12FE
:1037290039C47D187F011239C47D807FFF0239C4F5
:10393D007D817FFF1239C47D487F021239C47D809D
:10394D007F231239C4E4FD7F301239C4E4FD7F01B9
:03395D000239C468
:1031D500EF7D817FFF602E1239C47D497F02123950
:1031E500C47D807F231239C4E4FD7F301239C47D4C
:1031F500807FFF1239C47D0A7F111239C47BFF7AA3
:1032050000796B802C1239C47D127F021239C47D7E
:10321500407F231239C47DEA7F301239C47D807F17
:10322500FF1239C47DFA7F111239C47BFF7A007908
:05323500A2121B6C2237
:10329E007D827FFF1239C47D117F511239C47D8228
:1032AE007FFF1239C47D697F1B1239C47D787F1C64
:1032BE001239C47D697FCB1239C47D787FCC123927
:1032CE00C47D807FFF1239C47DF07F041239C47D26
:1032DE00F07F061239C47D807F0A1239C47D467F85
:1032EE000B1239C47DEF7F0D1239C47DFA7F1102A6
:0232FE0039C4D1
:10347C007D817FFF1239C47D607F061239C47D3F88
:10348C007F071239C47D3F7F081239C47DFE7F0A45
:10349C001239C47DBF7F0B1239C47D607F11123984
:1034AC00C47D3F7F121239C47D3F7F131239C47D16
:1034BC00FE7F151239C47DBF7F161239C47D037F80
:0B34CC001C1239C47D037F200239C4AC
:102CCA0090003EE0900000F07BFF7A0079D89000F7
:102CDA0013F0121B6C7D827FFF1239C47D807F4FF7
:102CEA001239C47D107F501239C47D837FFF123997
:102CFA00C4900000E0FDE4FF1239C47D087F02128F
:102D0A0039C47D087F061239C430900FE4FD7F0A6A
:102D1A001239C47BFF7A01790F800D7D037F0A1275
:102D2A0039C47BFF7A017944121B6C90003FE07B27
:102D3A00FFB4011C7A017978121B6C7D837FFF1224
:102D4A0039C47D107F081239C47D407F2C0239C4F2
:072D5A007A0179AA121B6C3B
:012D6100224F
:100E8800E4900003F07D827FFF1239C47F86123818
:100E9800C990000EE4F0A3EFF07F871238C9EFFD88
:100EA8007C0090000FE0FEE42DFFEC3E90000EF079
:100EB800A3EFF07BFF7A0179DC121B6C7BFF7A01D0
:100EC80079E290000EE0FFA3E0900013CFF0A3EFCB
:100ED800F0121B6C7F821238C990000AE4F0A3EF6D
:100EE800F07F831238C9EFFD7C0090000BE0FEE430
:100EF8002DFFEC3E90000AF0A3EFF07F6C1238C98A
:100F080090000CE4F0A3EFF07F6D1238C9EFFD7C80
:100F18000090000DE0FEE42DFFEC3E90000CF0A3E5
:100F2800EFF07D837FFF1239C47F821238C99000A9
:100F380006E4F0A3EFF07F831238C9EFFD7C009040
:100F48000007E0FEE42DFFEC3E900006F0A3EFF072
:100F58007F861238C9900008E4F0A3EFF07F87126B
:100F680038C9EFFD7C00900009E0FEE42DFFEC3E5F
:100F7800900008F0A3EFF0900045E0B4011F7BFF5C
:100F88007A02790B121B6C900006E0C313F0A3E001
:100F980013F0A3E0C313F0A3E013F0803B900045E7
:100FA800E070357BFF7A027942121B6C900006E0F4
:100FB800FEA3E0FF7C007D03121EE0900006EEF029
:100FC800A3EFF0A3E0FEA3E0FF7C007D03121EE088
:100FD800900008EEF0A3EFF07F881238C990000364
:100FE800EFF07BFF7A027979900006E0FFA3E090AA
:100FF8000013CFF0A3EFF0900008E0FFA3E090000B
:1010080015CFF0A3EFF090000AE0FFA3E0900017DF
:10101800CFF0A3EFF090000CE0FFA3E0900019CF11
:10102800F0A3EFF0121B6C7BFF7A0279BF900003EC
:10103800E0900013F0121B6C209018900008E0FE5E
:10104800A3E0FF900007E02FFF900006E03E90002D
:1010580004800B900006E0FFA3E0900004CFF0A30B
:10106800EFF07BFF7A0279ED121B6C900A9EE493F5
:10107800FE740193FF900004E0B5063BA3E0B507BA
:1010880036900AA8E493FE740193FF90000AE0B535
:101098000625A3E0B507207BFF7A037912121B6CA3
:1010A8009000467401F090003A74FFF0A3740AF0BF
:1010B800A37498F0021AF8900ABAE493FE740193A4
:1010C800FF900004E0B5063BA3E0B50736900AC4DC
:1010D800E493FE740193FF90000AE0B50625A3E0AF
:1010E800B507207BFF7A037927121B6C90004674A2
:1010F80002F090003A74FFF0A3740AF0A374B4F0FD
:10110800021AF8900AD6E493FE740193FF90000443
:10111800E0B5063BA3E0B50736900AE0E493FE7419
:101128000193FF90000AE0B50625A3E0B507207BF0
:10113800FF7A03793C121B6C9000467403F0900010
:101148003A74FFF0A3740AF0A374D0F0021AF8906E
:101158000AF2E493FE740193FF900004E06E7003BA
:10116800A3E06F6003021218900AFC93FE740193C7
:10117800FF90000AE06E7003A3E06F60030212188C
:10118800C390000FE0947690000EE0940250207B0C
:10119800FF7A037951121B6C9000467404F090009A
:1011A8003A74FFF0A3740AF0A374ECF0021AF8C3BF
:1011B80090000FE094EE90000EE0940250207BFF28
:1011C8007A037967121B6C900046740BF090003A12
:1011D80074FFF0A3740BF0A37408F0021AF8C3901C
:1011E800000FE094CE90000EE094044003021AF839
:1011F8007BFF7A03797D121B6C900046740CF0908B
:10120800003A74FFF0A3740DF0A37438F0021AF8D2
:10121800900B2AE493FE740193FF900004E06E7033
:1012280003A3E06F6003021337900B3493FE74013D
:1012380093FF90000AE06E7003A3E06F600302134F
:1012480037C390000FE094AE90000EE09401502058
:101258007BFF7A037993121B6C9000467405F0901B
:10126800003A74FFF0A3740BF0A37424F0021AF888
:10127800C390000FE094FE90000EE0940150207B94
:10128800FF7A0379AA121B6C900046741AF090003A
:101298003A74FFF0A3740BF0A37440F0021AF8C379
:1012A80090000FE0943E90000EE0940350207BFFE6
:1012B8007A0379C1121B6C900046741BF090003AB7
:1012C80074FFF0A3740BF0A3745CF0021AF8C390D7
:1012D800000FE094D490000EE0940350207BFF7A36
:1012E8000379D8121B6C900046741CF090003A7475
:1012F800FFF0A3740BF0A37478F0021AF8C39000FF
:101308000FE0940690000EE094044003021AF87B64
:10131800FF7A0379EF121B6C900046741DF0900061
:101328003A74FFF0A3740BF0A37494F0021AF890C7
:101338000BB6E493FE740193FF900004E06E700313
:10134800A3E06F60030213F8900BC093FE7401933F
:10135800FF90000AE06E7003A3E06F60030213F8C9
:10136800C390000FE094AE90000EE0940150207BF3
:10137800FF7A047906121B6C900046740DF09000F9
:101388003A74FFF0A3740BF0A374B0F0021AF8C318
:1013980090000FE094EA90000EE0940150207BFF4B
:1013A8007A04791D121B6C900046740EF090003A76
:1013B80074FFF0A3740BF0A374CCF0021AF8C39076
:1013C800000FE0940890000EE094024003021AF81F
:1013D8007BFF7A047934121B6C900046740FF090EE
:1013E800003A74FFF0A3740BF0A374E8F0021AF843
:1013F800900C26E493FE740193FF900004E0B50678
:101408002CA3E0B50727900C30E493FE740193FFFA
:1014180090000AE0B50616A3E0B507117BFF7A0431
:10142800794B121B6C90004674200214F8900C4201
:10143800E493FE740193FF900004E0B5062CA3E04A
:10144800B50727900C4CE493FE740193FF90000AB3
:10145800E0B50616A3E0B507117BFF7A04796012A0
:101468001B6C9000467420021544900C5EE493FEB9
:10147800740193FF900004E0B5063BA3E0B507367E
:10148800900C68E493FE740193FF90000AE0B5069F
:1014980025A3E0B507207BFF7A047976121B6C90B0
:1014A8000046741FF090003A74FFF0A3740CF0A388
:1014B8007458F0021AF8900C26E493FE740193FF16
:1014C800900004E0B5063BA3E0B50736900C30E485
:1014D80093FE740193FF90000AE0B50625A3E0B5DA
:1014E80007207BFF7A04794B121B6C900046741F0F
:1014F800F090003A74FFF0A3740CF0A37420F0028B
:101508001AF8900C42E493FE740193FF900004E0F3
:10151800B5063BA3E0B50736900C4CE493FE740186
:1015280093FF90000AE0B50625A3E0B507207BFFEE
:101538007A047960121B6C900046741FF090003A90
:1015480074FFF0A3740CF0A3743CF0021AF8900C2A
:101558007AE493FE740193FF900004E06E7003A395
:10156800E06F7053900C8493FE740193FF90000A0F
:10157800E06E7003A3E06F703EC390000FE09430FC
:1015880090000EE094027BFF500F7A04798C121BB6
:101598006C900046741F02195D7A0479A2121B6CC4
:1015A800900046741FF090003A74FFF0A3740CF09A
:1015B800A374ACF0021AF8900C96E493FE740193AD
:1015C800FF900004E06E7003A3E06F7062900CA0BF
:1015D80093FE740193FF90000AE06E7003A3E06F1E
:1015E800704DC390000FE094CC90000EE094017B06
:1015F800FF501E7A0479B8121B6C900046741FF0D5
:1016080090003A74FFF0A3740CF0A37490F0021ADF
:10161800F87A0479CE121B6C900046741FF0900083
:101628003A74FFF0A3740CF0A374C8F0021AF8908F
:101638000CEAE493FE740193FF900004E0B5063BC6
:10164800A3E0B50736900CF4E493FE740193FF9081
:10165800000AE0B50625A3E0B507207BFF7A0479E8
:10166800E4121B6C900046741FF090003A74FFF06F
:10167800A3740CF0A374E4F0021AF8900D06E49336
:10168800FE740193FF900004E0B5063BA3E0B507A4
:1016980036900D10E493FE740193FF90000AE0B5B4
:1016A8000625A3E0B507207BFF7A0479FB121B6CA3
:1016B800900046741FF090003A74FFF0A3740DF088
:1016C800A37400F0021AF8900D22E493FE740193BB
:1016D800FF900004E0B5063BA3E0B50736900D2C5B
:1016E800E493FE740193FF90000AE0B50625A3E099
:1016F800B507207BFF7A057912121B6C900046749F
:101708001FF090003A74FFF0A3740DF0A3741CF05E
:10171800021AF8900D76E493FE740193FF9000048A
:10172800E0B5063BA3E0B50736900D80E493FE7460
:101738000193FF90000AE0B50625A3E0B507207BDA
:10174800FF7A057929121B6C9000467416F09000F8
:101758003A74FFF0A3740DF0A37470F0021AF890B5
:101768000DAEE493FE740193FF900004E06E7003E5
:10177800A3E06F7076900DB893FE740193FF90000C
:101788000AE06E7003A3E06F7061C390000FE094ED
:101798003690000EE0940150207BFF7A05793F12C5
:1017A8001B6C9000467418F090003A74FFF0A37414
:1017B8000DF0A374A8F0021AF8C390000FE0947219
:1017C80090000EE094014003021AF87BFF7A057935
:1017D80056121B6C900046741FF090003A74FFF08C
:1017E800A3740DF0A3748CF0021AF8900E3AE493E7
:1017F800FE740193FF900004E0B5063BA3E0B50733
:1018080036900E44E493FE740193FF90000AE0B50D
:101818000625A3E0B507207BFF7A05796D121B6CBE
:101828009000467413F090003A74FFF0A3740EF021
:10183800A37434F0021AF8900E1EE493FE74019318
:10184800FF900004E0B5063BA3E0B50736900E28EC
:10185800E493FE740193FF90000AE0B50625A3E027
:10186800B507207BFF7A057983121B6C90004674BC
:1018780012F090003A74FFF0A3740EF0A37418F0FD
:10188800021AF8900DE6E493FE740193FF900004A9
:10189800E0B5063BA3E0B50736900DF0E493FE747F
:1018A8000193FF90000AE0B50625A3E0B507207B69
:1018B800FF7A05799A121B6C9000467410F090001C
:1018C8003A74FFF0A3740DF0A374E0F0021AF890D4
:1018D8000D5AE493FE740193FF900004E0B5063BB3
:1018E800A3E0B50736900D64E493FE740193FF906E
:1018F800000AE0B50625A3E0B507207BFF7A057945
:10190800B1121B6C9000467411F090003A74FFF00D
:10191800A3740DF0A37454F0021AF8900C7AE493AF
:10192800FE740193FF900004E0B5063BA3E0B50701
:1019380036900C84E493FE740193FF90000AE0B59E
:101948000625A3E0B507207BFF7A04798C121B6C6F
:101958009000467414F090003A74FFF0A3740CF0F1
:10196800A37474F0021AF8900E56E493FE7401936F
:10197800FF900004E0B5063BA3E0B50736900E6083
:10198800E493FE740193FF90000AE0B50625A3E0F6
:10199800B507207BFF7A0579C7121B6C9000467447
:1019A80015F090003A74FFF0A3740EF0A37450F091
:1019B800021AF8900DCAE493FE740193FF90000494
:1019C800E0B5063BA3E0B50736900DD4E493FE746A
:1019D8000193FF90000AE0B50625A3E0B507207B38
:1019E800FF7A0579DC121B6C9000467417F09000A2
:1019F8003A74FFF0A3740DF0A374C4F0021AF890BF
:101A08000C0AE493FE740193FF900004E0B5063BD2
:101A1800A3E0B50736900C14E493FE740193FF908D
:101A2800000AE0B50625A3E0B507207BFF7A057913
:101A3800F3121B6C9000467419F090003A74FFF092
:101A4800A3740CF0A37404F0021AF8900E02E49345
:101A5800FE740193FF900004E0B5063AA3E0B507D1
:101A680035900E0CE493FE740193FF90000AE0B5E4
:101A78000624A3E0B5071F7BFF7A06790A121B6CC0
:101A8800900046741EF090003A74FFF0A3740DF0B5
:101A9800A374FCF0805A900E72E493FE740193FFD5
:101AA800900004E0B5063AA3E0B50735900E7CE453
:101AB80093FE740193FF90000AE0B50624A3E0B5F5
:101AC800071F7BFF7A067920121B6C900046741F53
:101AD800F090003A74FFF0A3740EF0A3746CF080D9
:101AE8000F9000467420F07BFF7A067935121B6C44
:091AF8007BFF7A06794C021B6C9D
:1025DC00900006EBF0A3EAF0A3E9F07D837FFF12F5
:1025EC0039C4900006E0FBA3E0FAA3E0F9900012D6
:1025FC00121F60E5F0FD7F0D1239C4900006E0FB60
:10260C00A3E0FAA3E0F9900012121F60FD7F0E12F6
:10261C0039C4900006E0FBA3E0FAA3E0F9900010A7
:10262C00121F60E5F0FD7F0F1239C4900006E0FB2D
:10263C00A3E0FAA3E0F9900010121F60FD7F1012C6
:10264C0039C4900006E0FBA3E0FAA3E0F99000087F
:10265C00121F60E5F0FD7F111239C4900006E0FBFB
:10266C00A3E0FAA3E0F9900008121F60FD7F12129C
:10267C0039C4900006E0FBA3E0FAA3E0F990000651
:10268C00121F60E5F0FD7F131239C4900006E0FBC9
:10269C00A3E0FAA3E0F9900006121F60FD7F14126C
:1026AC0039C4900006E0FBA3E0FAA3E0F990000C1B
:1026BC00121F60FD7F151239C4900006E0FBA3E0E9
:1026CC00FAA3E0F9900002121F60FD7F161239C4C4
:1026DC00900006E0FBA3E0FAA3E0F990000A121FB9
:1026EC0060FD7F171239C4900006E0FBA3E0FAA34B
:1026FC00E0F990000E121F60FFAEF090000C121F5C
:10270C00602FFFE5F03EAD077F181239C49000062C
:10271C00E0FBA3E0FAA3E0F9121F35FD7F19123993
:10272C00C4900006E0FBA3E0FAA3E0F990000412C9
:10273C001F60FFAEF0900002121F602FE5F03EFD0F
:10274C00121F35E5F0C4F8540FC868FFEF2DFD7F5C
:10275C001A1239C4900006E0FBA3E0FAA3E0F9904A
:10276C000004121F60FFAEF0900002121F602FFFDA
:0A277C00E5F03EAD077F1B0239C4F3
:0B241F0090003AE0FBA3E0FAA3E0F914
:10242A00900006121F60FF900004E5F0F0A3EFF0A1
:10243A00900014121E7F25E0FF900015121E7F2FB8
:10244A00900003F0F4F05403F07D837FFF1239C447
:10245A00209064900004E0FEA3E07802CEC313CE7D
:10246A0013D8F9F0EE900004F0A3E02450F09000A5
:10247A0004E03400F0E0FEA3E0FFC394E0EE94032E
:10248A00500280047E037FE0900004EEF0A3EFF098
:10249A00900004E0FD7F0B1239C4900004A3E0FD14
:1024AA007F0C1239C4900004E0FD7F481239C490B1
:1024BA000004A3E0FD80177D017F0B1239C47D1053
:1024CA007F0C1239C4E4FD7F481239C47D817F49EB
:1024DA001239C47D4A7F211239C47D717F24123991
:1024EA00C47D307F251239C47D017F2A1239C47D0B
:1024FA00407F4A1239C4900003E04410FD7F1D1248
:10250A0039C4900046E024FD70030225A824022461
:10251A00FB501024F5606B24FC606724FA600424E5
:10252A000F707B7D837FFF1239C47D027F0B1239C6
:10253A00C47D407F0C1239C47D017F481239C47DA5
:10254A00107F491239C47D707F241239C47D807F7F
:10255A00251239C47D107F2A1239C47D807F2B123F
:10256A0039C47D287F231239C47D107F4A1239C4A9
:10257A007DF07F1D1239C47BFF7A067957121B6CD6
:10258A00801C7D707F241239C47D807F251239C456
:10259A007D107F2A1239C47DF07F1D1239C4900044
:1025AA003AE0FBA3E0FAA3E0F91225DC7D837FFF82
:1025BA001239C4900039E0FD7F261239C47D807F2C
:1025CA00FF1239C47D5A7F111239C47DFA7F110274
:0225DA0039C402
:0B21AD0090003AE0FBA3E0FAA3E0F989
:1021B8009000181220C69000031220F67BFF7A06C2
:1021C8007977900003E0FCA3E0FDA3E0FEA3E0FF25
:1021D8009000131220F6121B6C7D817FFF1239C408
:1021E8007D407F231239C47D627F241239C47D80EB
:1021F8007F251239C47D557F261239C47D377F2C3F
:102208001239C47D017F2F1239C47D557F261239BA
:10221800C47D667F271239C47D887F281239C47F20
:10222800F07E497D027C00900003E0F8A3E0F9A36A
:10223800E0FAA3E0FBD31220B5400F7D887F2D1272
:1022480039C49000077401F080387F807E387D01A2
:102258007C00900003E0F8A3E0F9A3E0FAA3E0FB18
:10226800D31220B5400F7D997F2D1239C4900007F5
:102278007402F0800D7DAA7F2D1239C49000077476
:1022880004F0E47F05FEFDFC900003E0F8A3E0F90C
:10229800A3E0FAA3E0FB121F98A804A905AA06ABBD
:1022A80007900007E0FFE4FCFDFE121F98E47B782E
:1022B8007A69F9F8122023900039EFF07BFF7A064B
:1022C8007996E0900013F0900007E0900014F01267
:1022D8001B6C7D837FFF1239C47D407F2D1239C46A
:1022E8007D087F311239C4900039E04480FD7F2693
:1022F8001239C4900003E0FCA3E0FDA3E0FEA3E0D4
:10230800FFE47B02FAF9F81220239000031220F66A
:102318007D827FFF1239C4E4FBFA7901F89000034B
:10232800E0FCA3E0FDA3E0FEA3E0FF122023AD073D
:102338007FE31239C4900003A3A3E0FEA3E0FFE407
:10234800FDFC9000031220F6E4FB7A01F9F89000F6
:1023580003E0FCA3E0FDA3E0FEA3E0FF122023AD11
:10236800077FE41239C4900003E0FCA3A3E0FEA3B6
:10237800E0FFE4AD077FE51239C47D207FDE123926
:10238800C47DE07FDE1239C47D807FFF1239C47DB1
:10239800F17F161239C47DF37F161239C4E4900018
:1023A80008F07D807FFF1239C47DE37F161239C49F
:1023B8007DF37F161239C47D827FFF1239C47F15E1
:1023C8001238C9EF30E7097BFF7A0679C7021B6C20
:1023D8007D807FFF1239C47D5A7F111239C47DFA7E
:1023E8007F111239C47DDC7F181239C47DFC7F1837
:1023F8001239C47DF17F161239C47DF37F16123964
:10240800C47BFF7A0679E5121B6C900008E004F0A3
:06241800E0C39406408CB5
:01241E00229B
:102F8D007D817FFF1239C47D6A7F301239C4900074
:102F9D0042E070127D737F311239C47BFF7A07795D
:102FAD0010121B6C80077D447F311239C47D4A7F1E
:102FBD00321239C47D0B7F331239C4E4FD7F3412D4
:102FCD0039C4E4FD7F351239C4E4FD7F361239C4AE
:102FDD007D447F371239C47D0F7F3F1239C47D98F0
:102FED007F401239C47D987F411239C47D987F424C
:102FFD001239C47D987F431239C47D0A7F4402394A
:01300D00C4FE
:10316A007D817FFF1239C47D407F231239C47D825D
:10317A007FFF1239C47D207FDE1239C47DE07FDEF5
:10318A001239C47D807FFF1239C47DDC7F18123961
:10319A00C47DFC7F181239C47DF17F161239C47DB3
:1031AA00F37F161239C47D5A7F111239C47DFA7F12
:1031BA00111239C47D817FFF1239C47DEA7F301232
:0B31CA0039C47BFF7A077929021B6CD7
:1039E2007D817FFF1239C4E4FD7F301239C47D80AE
:0E39F2007F231239C47BFF7A07794C021B6CCD
:0B2B730090003AE0FBA3E0FAA3E0F9B9
:102B7E00900016121F60900004F0C394375002802C
:102B8E0003900004E0FFC374379F900003F07D8232
:102B9E007FFF1239C4900044E0B4010F7D8E7FD6C2
:102BAE001239C47BFF7A0779708013900044E0706D
:102BBE00107D0E7FD61239C47BFF7A07799B121BCC
:102BCE006C900041E070077D047FD71239C49000ED
:102BDE0041E0B401077D807FD71239C47D847FFF29
:102BEE001239C4900003E0FD7F431239C47D287F63
:102BFE00451239C4900004E0FD7F471239C47D842C
:102C0E007FFF1239C47D027F101239C47D647F129A
:032C1E000239C4B4
:1039A500900045E0B401177D827FFF1239C47D1870
:0F39B5007FB91239C47BFF7A0779C5121B6C22C8
:10336100900041E0702C7BFF7A0779E7121B6C7D9E
:10337100847FFF1239C47D087F061239C47D107F16
:10338100071239C47D2B7F0F1239C47DD47F3412CB
:1033910039C4900041E0640170257BFF7A0779FE12
:1033A100121B6C7D847FFF1239C47D0C7F0612399C
:1033B100C47D107F071239C47DD47F341239C422F1
:01003A0022A3
:103A6F007D827FFF1239C47F5E1238C9EF30E203C7
:063A7F007F01227F0022FE
:103960007D857FFF1239C47D1F7F071239C47DFE1C
:103970007F131239C47D0F7F171239C47D057F155F
:033980000239C445
:103856007D807FFF1239C47D7F7F141239C47DFFBE
:103866007F141239C47D857FFF1239C47D017F150F
:103876001239C47D717F151239C47D657F151239E1
:0A388600C47BFF7A087913021B6C63
:0E3B14007D857FFF1239C47D457F150239C4BF
:10330000EF7D807FFF604F1239C47DFF7F0D123942
:10331000C47DF97F151239C47D867FFF1239C4E45C
:10332000FD7FFA1239C47DA57FFE1239C47D7F7FEF
:10333000FC1239C4E4FD7FFC1239C47D827FFF1288
:1033400039C47D7F7F011239C47DFF7F051239C4E6
:103350007D7F7F0580071239C47DF17F151239C446
:01336000224A
:103AC4007D867FFF1239C47D207FF71239C4E4FD5F
:053AD4007FF80239C477
:0B2D6200900004EBF0A3EAF0A3E9F0FE
:102D6D007D867FFF1239C47FD31238C9900007EFDB
:102D7D00F0900004E0FBA3E0FAA3E0F9EF121EAC23
:102D8D009000087401F0900007E0FFA3E0FED39FD0
:102D9D005048EE24D3FF1238C9900004E0FBA3E0A5
:102DAD00FAA3E0F9900008E0FEF582758300EF12BA
:102DBD001EBE900004E0FBA3E0FAA3E0F98E82753D
:102DCD008300121E7F900013F07BFF7A08792C127E
:102DDD001B6C900008E004F080ACE4FD7FF5123927
:072DED00C49000477401F0DF
:012DF40022BC
:0B323A00900000EBF0A3EAF0A3E9F025
:10324500121E66900003F07D867FFF1239C4900040
:1032550003E0FD7FF41239C4E4900004F09000030C
:10326500E0FFA3E0FED39F5029EE24E4FFEE240106
:10327500FDE433FC900000E0FBA3E0FAA3E0F98D48
:10328500828C83121E7FFD1239C4900004E004F085
:0932950080CB7D037FF90239C4EE
:103983009000587405F0A37450F0A37484F0A374EA
:1039930010F0E4A3F0A37405F07B017A00795802D8
:0239A300323AB6
:10278600900001122102000000007BFF7A0179DC33
:10279600121B6C7D827FFF1239C47D037FC71239FD
:1027A600C47F327E007D007C001235E67FCD123874
:1027B600C9900000EFF0546064606003022856E0A0
:1027C600540FFFE4FCFDFEFBFA7901F8121F989006
:1027D60000011220F67FCE1238C9900000EFF0A358
:1027E600E0F8A3E0F9A3E0FAA3E0FB900000E07FA5
:1027F60000FEE4FCFDEF2BFFEA3EFEED39FDEC3872
:10280600FCA31220F67FCF1238C9900000EFF0A388
:10281600E0F8A3E0F9A3E0FAA3E0FB900000E0FFF4
:10282600E4FCFDFEEB2FFFEE3AFEED39FDEC38FC45
:10283600A31220F67BFF7A087933900001E0FCA30F
:10284600E0FDA3E0FEA3E0FF9000131220F6800651
:102856007BFF7A08794B121B6C7D827FFF1239C48D
:102866007D047FC71239C47F327E007D007C001252
:1028760035E67FCD1238C9900000EFF054606460F1
:10288600600302291CE0540FFFE4FCFDFEFBFA790D
:1028960001F8121F989000011220F67FCE1238C957
:1028A600900000EFF0A3E0F8A3E0F9A3E0FAA3E0BC
:1028B600FB900000E07F00FEE4FCFDEF2BFFEA3E0C
:1028C600FEED39FDEC38FCA31220F67FCF1238C995
:1028D600900000EFF0A3E0F8A3E0F9A3E0FAA3E08C
:1028E600FB900000E0FFE4FCFDFEEB2FFFEE3AFE5E
:1028F600ED39FDEC38FCA31220F67BFF7A087966E9
:10290600900001E0FCA3E0FDA3E0FEA3E0FF900041
:10291600131220F680067BFF7A08797E121B6C7BE9
:08292600FF7A06794C021B6CDC
:013B3600226C
:013B3700226B
:013B3800226A
:103A39007D827FFF1239C47D0A7F581239C47D8087
:0C3A49007F591239C47DF77F9E0239C4FA
:102C2100900004EDF0900003EFF064017042A3E026
:102C31007D827FFF60201239C47DFF7F071239C476
:102C41007D3F7F071239C47D3F7F031239C47BFF6B
:102C51007A08799980171239C47DFF7F071239C428
:102C61007DFF7F031239C47BFF7A0879C4121B6C84
:102C7100900003E064027050A3E07D827FFF602E2C
:102C81001239C47DFF7F9E1239C47DF77F9E1239B0
:102C9100C47DFF7F041239C47DFE7F041239C47DD7
:102CA100FEE4FF1239C47BFF7A0879F080171239EC
:102CB100C47DFF7F041239C47DFFE4FF1239C47B58
:092CC100FF7A09791F121B6C2235
:10300E00123A6F900038EFF07D827FFF1239C47D47
:10301E00FF7F071239C47D3F7F071239C4900038F5
:10302E00E060467BFF7A09794F121B6CE4FF123188
:10303E00D57D017F02122C217F647E007D007C00F5
:10304E001235E612003A120E88900046E0642060B7
:10305E000C1221AD12241F122B7302316A1239E2A7
:10306E007BFF7A09797D021B6C7BFF7A0979BF128F
:0F307E001B6CE4FD7F02122C217F011231D52241
:103786007BFF7A0979F0121B6C7D827FFF1239C4A8
:103796007DFF7F9E1239C47DF77F9E1239C47DFF5F
:1037A6007F041239C47DFE7F041239C4120E88903C
:1037B6000046E06420600C1221AD12241F122B7308
:0737C60002316A1239E22210
:10308D007D867FFF1239C47FD21238C9900003EFBD
:10309D00F07BFF7A0A7914900013F0121B6C9000EC
:1030AD0003E030E1127BFF7A0A7930121B6C7B0151
:1030BD007A007948122D62900003E030E0097BFF21
:1030CD007A0A793C121B6C7D867FFF1239C47D7F95
:1030DD007FFC1239C4E4FD7FFC1239C47D827FFF71
:1030ED001239C47DFF7F051239C47D7F7F050239FA
:0130FD00C40E
:10292E0090008CEBF0A3EAF0A3E9F07D827FFF121A
:10293E0039C490008CE0FBA3E0FAA3E0F990000408
:10294E00121F60FFAEF0900002121F602FE5F03EE6
:10295E00FD7FA31239C490008CE0FBA3E0FAA3E044
:10296E00F9900004121F60FFAEF0900002121F607B
:10297E002FFFE5F03EAD077FA41239C490008CE026
:10298E00FBA3E0FAA3E0F990000E121F60FFAEF079
:10299E0090000C121F602FFFE5F03EAD077FA512D1
:1029AE0039C490008CE0FBA3E0FAA3E0F990000696
:1029BE00121F60E5F0FD7FA61239C490008CE0FB7B
:1029CE00A3E0FAA3E0F9900006121F60FD7FA712A4
:1029DE0039C490008CE0FBA3E0FAA3E0F99000105C
:1029EE00121F60E5F0FD7FA81239C490008CE0FB49
:1029FE00A3E0FAA3E0F9900010121F60FD7FA91268
:102A0E0039C490008CE0FBA3E0FAA3E0F990000833
:102A1E00121F60E5F0FD7FAA1239C490008CE0FB16
:102A2E00A3E0FAA3E0F9900008121F60FD7FAB123D
:102A3E0039C490008CE0FBA3E0FAA3E0F9900012F9
:102A4E00121F60E5F0FD7FAC1239C490008CE0FBE4
:102A5E00A3E0FAA3E0F9900012121F60FD7FAD1201
:102A6E0039C490008CE0FBA3E0FAA3E0F9900002D9
:102A7E00121F60E5F0FD7FAE1239C490008CE0FBB2
:102A8E00A3E0FAA3E0F9900002121F60FD7FAF12DF
:102A9E0039C490008CE0FBA3E0FAA3E0F990000C9F
:092AAE00121F60FD7FB00239C463
:102AB7009000181220C69000741220F67BFF7A0A45
:102AC700794F900074E0FCA3E0FDA3E0FEA3E0FFD4
:102AD7009000131220F6121B6C7D837FFF1239C4FE
:102AE7007D507F2D1239C47F287E887D047C00901D
:102AF7000074E0F8A3E0F9A3E0FAA3E0FBC3122017
:102B0700B5700E7DB67F261239C47DF07F27123946
:102B1700C47F147E447D027C00900074E0F8A3E03B
:102B2700F9A3E0FAA3E0FBC31220B570077DB77FD6
:102B3700261239C47F0A7E227D017C00900074E052
:102B4700F8A3E0F9A3E0FAA3E0FBC31220B57007EE
:102B57007D9C7F261239C47D807FFF1239C47D5A40
:0C2B67007F111239C47DFA7F110239C4BD
:103AD9007D827FFF1239C47D807F4F1239C47D20DA
:053AE9007F500239C40A
:1030FE0090003A74FFF0A3740BF0A374B0F0123684
:10310E00E912329E123AD91221AD90003AE0FBA399
:10311E00E0FAA3E0F912292E122B73122F8D123121
:10312E006A123B377D827FFF1239C47D8C7FD612A7
:10313E0039C47D067FD71239C47D847FFF1239C40E
:10314E007D0C7F061239C47D107F071239C47D01B4
:0C315E007F161239C47DD47F340239C4BE
:102E81001236E912329E12003A12347C122CCA7F99
:102E9100E87E037D007C001235E6120E881221AD1A
:102EA10012241F1233611239A5122B73122F8D12A6
:102EB1003A39E4FF123300123AC47D017F01122C2A
:102EC10021E4FD7F02122C21122786123B38123B8E
:102ED10036123B377BFF7A0A7965121B6C12300E72
:102EE100900091E0600B1237CDE4900091F0439B8C
:102EF10002900047E060E990004AE0B4850312398E
:082F010083E4900047F080D842
:03003B000239196E
:10391900C0E0C083C082C0D0E5ECB4080575EC00F6
:10392900C2899000917401F0539BFDD0D0D082D010
:0439390083D0E03225
:1037CD007D827FFF1239C47F0C1238C9900001EF42
:1037DD00F07F0D1238C9900002EFF07F0F1238C93B
:1037ED00900000EFF0900002E030E70312308D9072
:1037FD000000E054C0600312300E900001E030E094
:04380D0003123786E5
:013811002294
:03000000022DF5D9
:0C2DF500787FE4F6D8FD758121022E3CA9
:10358D009000781220F6538EF7438901D28CE4FF18
:10359D00FEFDFC900078E0F8A3E0F9A3E0FAA3E0CB
:1035AD00FBC31220B5602F758A7E758CFF308DFDA3
:1035BD00C28D900078E0FCA3E0FDA3E0FEA3E02423
:1035CD00FFFFEE34FFFEED34FFFDEC34FFFC900009
:0935DD00781220F680B8C28C229D
:1035E6009000051220F6538EF7438901D28CE4FF32
:1035F600FEFDFC900005E0F8A3E0F9A3E0FAA3E0E5
:10360600FBC31220B5602F758ACA758CFA308DFD02
:10361600C28D900005E0FCA3E0FDA3E0FEA3E0243C
:10362600FFFFEE34FFFEED34FFFDEC34FFFC9000AF
:09363600051220F680B8C28C22B6
:10363F0090007C1220F6538EEF438910D28EE4FF58
:10364F00FEFDFC90007CE0F8A3E0F9A3E0FAA3E014
:10365F00FBC31220B5602F758BEA758DCB308FFDB4
:10366F00C28F90007CE0FCA3E0FDA3E0FEA3E0246A
:10367F00FFFFEE34FFFEED34FFFDEC34FFFC900056
:09368F007C1220F680B8C28E22E4
:103420009000801220F653C9BF53C9DF43C910D2A0
:10343000CAE4FFFEFDFC900080E0F8A3E0F9A3E001
:10344000FAA3E0FBC31220B5602F75CC3075CDF820
:1034500030CFFDC2CF900080E0FCA3E0FDA3E0FEF2
:10346000A3E024FFFFEE34FFFEED34FFFDEC34FF5C
:0C347000FC9000801220F680B8C2CA2236
:1034D7009000841220F675C40743C408E4FFFEFD7C
:1034E700FC900084E0F8A3E0F9A3E0FAA3E0FBC3B3
:1034F7001220B5603275C52C75C6CFE5C430E4FB24
:1035070053C4EF900084E0FCA3E0FDA3E0FEA3E03A
:1035170024FFFFEE34FFFEED34FFFDEC34FFFC909B
:0B35270000841220F680B553C4F72288
:103532009000881220F675C40743C408E4FFFEFD1C
:10354200FC900088E0F8A3E0F9A3E0FAA3E0FBC353
:103552001220B5603275C5D875C6FFE5C430E4FBEC
:1035620053C4EF900088E0FCA3E0FDA3E0FEA3E0DB
:1035720024FFFFEE34FFFEED34FFFDEC34FFFC9040
:0B35820000881220F680B553C4F72229
:102E0100023AEEE493A3F8E493A34003F68001F2BF
:102E110008DFF48029E493A3F85407240CC8C333D2
:102E2100C4540F4420C8834004F456800146F6DFA1
:102E3100E4800B0102040810204080903A00E47EF7
:102E4100019360BCA3FF543F30E509541FFEE49396
:102E5100A360010ECF54C025E060A840B8E493A35D
:102E6100FAE493A3F8E493A3C8C582C8CAC583CA88
:102E7100F0A3C8C582C8CAC583CADFE9DEE780BE40
:013A1C0000A9
:101E6600BB010689828A83E0225002E722BBFE027A
:091E7600E32289828A83E49322AD
:101E7F00BB010CE58229F582E5833AF583E0225018
:101E8F0006E92582F8E622BBFE06E92582F8E22262
:0D1E9F00E58229F582E5833AF583E493227C
:101EAC00BB010689828A83F0225002F722BBFE0115
:021EBC00F3220F
:101EBE00F8BB010DE58229F582E5833AF583E8F05A
:101ECE00225006E92582C8F622BBFE05E92582C806
:021EDE00F222EE
:101EE000BC000BBE0029EF8DF084FFADF022E4CCE6
:101EF000F875F008EF2FFFEE33FEEC33FCEE9DECAF
:101F0000984005FCEE9DFE0FD5F0E9E4CEFD22EDF4
:101F1000F8F5F0EE8420D21CFEADF075F008EF2F3E
:101F2000FFED33FD4007985006D5F0F222C398FD2F
:051F30000FD5F0EA22CC
:101F3500BB010A89828A83E0F5F0A3E02250068777
:101F4500F009E71922BBFE07E3F5F009E319228939
:0B1F5500828A83E493F5F0740193226C
:101F6000BB0110E58229F582E5833AF583E0F5F0BF
:101F7000A3E0225009E92582F886F008E622BBFE9C
:101F80000AE92582F8E2F5F008E222E5832AF583E2
:081F9000E993F5F0A3E99322A7
:101F9800E88FF0A4CC8BF0A42CFCE98EF0A42CFCE8
:101FA8008AF0EDA42CFCEA8EF0A4CDA8F08BF0A466
:101FB8002DCC3825F0FDE98FF0A42CCD35F0FCEBC5
:101FC8008EF0A4FEA9F0EB8FF0A4CFC5F02ECD398A
:0F1FD800FEE43CFCEAA42DCE35F0FDE43CFC22F7
:101FE70075F008758200EF2FFFEE33FECD33CDCCB1
:101FF70033CCC58233C5829BED9AEC99E582984034
:102007000CF582EE9BFEED9AFDEC99FC0FD5F0D610
:10201700E4CEFBE4CDFAE4CCF9A88222B800C1B93A
:102027000059BA002DEC8BF084CFCECDFCE5F0CB78
:10203700F97818EF2FFFEE33FEED33FDEC33FCEBB1
:1020470033FB10D703994004EB99FB0FD8E5E4F96C
:10205700FA227818EF2FFFEE33FEED33FDEC33FC59
:10206700C933C910D7059BE99A4007EC9BFCE99A4D
:10207700F90FD8E0E4C9FAE4CCFB2275F010EF2F92
:10208700FFEE33FEED33FDCC33CCC833C810D70792
:102097009BEC9AE899400AED9BFDEC9AFCE899F8CD
:0E20A7000FD5F0DAE4CDFBE4CCFAE4C8F92260
:1020B500EB9FF5F0EA9E42F0E99D42F0E89C45F081
:0120C50022F8
:1020C600BB010DE58229F582E5833AF58302213FBE
:1020D6005007E92582F8022133BBFE07E92582F87D
:1020E60002214BE58229F582E5833AF583022157E1
:0C20F600ECF0A3EDF0A3EEF0A3EFF0225D
:10210200A8828583F0D083D082122119122119125C
:102112002119122119E473E493A3C583C5F0C58381
:10212200C8C582C8F0A3C583C5F0C583C8C582C827
:01213200228A
:101B0100E5082413F582E43400F583E0050822900A
:101B11000010300703900013E475F00112216702F1
:101B21001E662000E97F2ED2008018EF540F24900A
:101B3100D43440D4FF30040BEF24BFB41A00500357
:101B41002461FFE50960021509050CE50C70020529
:101B51000B30070E900010E475F001122167EF02BF
:101B61001EAC0238F27403D2078003E4C207F50801
:101B710090001012217EE4F509F50BF50CE50960E2
:101B8100077F20121B4480F5750AFFC201C200C203
:101B910002C203C205C206C208121B10FF700D303B
:101BA10007057F00121B55AF0CAE0B22B4255FC297
:101BB100D5C204121B10FF24D0B40A00501A75F0CC
:101BC1000A780930D50508B6FF0106C6A426F62015
:101BD100D5047002D20380D924CFB41A00EF500487
:101BE100C2E5D204021D56D20180C6D20080C0D205
:101BF1000280BCD2D580BAD20580B47F20121B44AA
:101C01002002077401B5090040F1121B01FF121BEC
:101C110044021B7ED208D2068095121B01FB121BC7
:101C210001FA121B01F94A4B700679277A1E7BFFD4
:101C310020022EE509602A7E008E82758300121E25
:101C41007F60060EEE650A70F0C2D5EBC0E0EAC017
:101C5100E0E9C0E0EE121D9DD0E0F9D0E0FAD0E05D
:101C6100FB121E66FF60AAEBC0E0EAC0E0E9C0E03B
:101C7100121B44D0E02401F9D0E03400FAD0E0FB9B
:101C8100E50A0460DCD50AD980877BFF7A1D799942
:101C9100D202809C791080027908C206C2088008AD
:101CA100D2D5790A8004790AC2D5E50A047002F511
:101CB1000AE4FAFDFEFF121B01FC7B08200113124E
:101CC1001B01FD7B1030000A121B01FE121B01FFDC
:101CD1007B20EC3382D592D55013C3E43000069FAC
:101CE100FFE49EFEE42001039DFDE49CFCE4CBF8AF
:101CF100C201EC700CCFCECDCCE824F8F870F380A3
:101D010017C3EF33FFEE33FEED33FDEC33FCEB3362
:101D1100FB994002FB0FD8E9EB300105F8D0E0C494
:101D210048B201C0E00AEC4D4E4F78207B0070C2F2
:101D3100EAB50A0040BCC0E0121D9FD0F0D0E020FF
:101D41000104C4C0E0C4B201C0F0121B2DD0F0D513
:101D5100F0EB021B7E1221871C1B531C95581BECB8
:101D61004C1BE8421C994F1CA1441CA1491C014376
:081D71001CA7551C8B461C8BBE
:101D7900451C8B471E47501BF02D1BF42E1C172B9F
:101D89001BF8231C15201E302A1BB04800001C0F0D
:101D99003F3F3F00790AA2D5200314300509B91045
:101DA900020404B9080104A2D52006025001042046
:101DB90002689202B509005034C0E07F203003194F
:101DC9007F30A20272067205500F121DF6C202C2BE
:101DD90006C205C2087F30800F300503E9C0E01252
:101DE9001B44300503D0E0F9D0E0B509CC30051724
:101DF9007F30B9100C121B447F583004077F78805C
:101E090003B90803121B443002057F2D021B447FCE
:101E1900202008F87F2B2006F322920280CF286E1B
:101E2900756C6C2900D201121B013001F8C20178CE
:101E39000930D50108F6021BB02D50434958121B31
:101E4900012403B405004001E4901E4293121B359E
:0D1E5900743A121B35D203750904021C9562
:0C213300E6FC08E6FD08E6FE08E6FF22D8
:0C213F00E0FCA3E0FDA3E0FEA3E0FF2213
:0C214B00E2FC08E2FD08E2FE08E2FF22D0
:10215700E493FC740193FD740293FE740393FF22CE
:10216700F8E0FBA3A3E0F925F0F0E5821582700201
:072177001583E0FA38F022A5
:09217E00EBF0A3EAF0A3E9F02262
:10218700D083D082F8E4937012740193700DA3A3E7
:1021970093F8740193F5828883E4737402936860FB
:0621A700EFA3A3A380DFFB
:1038F200EFB40A07740D1238FD740A309811A899B2
:10390200B8130CC2983098FDA899C298B811F63035
:0739120099FDC299F599220D
:00000001FF
