:103CFA0053B1BF53B2BF53B17F53B27F759850438C
:103D0A008920438780438E1053C4DFAB07AA06A9D4
:103D1A0005A8047F407E427D0F7C001221A1EF049A
:093D2A00F404F58DD28ED2992229
:083FCB00C2998F993099FD2283
:03003700023FCBBA
:103BA1000D0A203D3D3D3D3D3D3D3D3D3D3D3D3DC4
:103BB1003D3D3D3D3D4D6F646966696564206F6EB5
:103BC10020284A756C2030382032303230202D20A8
:103BD10031343A35313A3431293D3D3D3D3D3D3D6C
:0C3BE1003D3D3D3D3D3D3D3D3D3D3D0039
:043E9D00410092004E
:103B540043B30153B4FE43B30253B4FD43B304531C
:103B6400B4FB43B10853B2F743B11053B2EF53ACB3
:103B7400FE43AD0143B30843B40843B31043B41048
:103B84007F007EC27D017C00123CFA53E9FB43E9CD
:0D3B94002043EA0853EBF7439B02D2AF2217
:103EF200C2B07FC87E007D007C00123A01D2B07F42
:0A3F0200C87E007D007C00023A0139
:103F8B00123B547BFF7A3B79A1121CEA123EF212D0
:043F9B0032CA80FEA8
:043EA10041009076D6
:073F9F00123FA6D2937F0A36
:0A3FA600E4FEEEC39F50030E80F806
:013FB00022EE
:103F2200D2947F01123F9FC2947F07123FA6C29391
:053F32007F01023FA623
:0C3FBF00C2947F02123F9FD294023FA6E2
:023AB300AD075D
:103AB500E4FCEDA804088002C333D8FC30E704D247
:103AC500948002C2947F03123FA6D2930F123FA6A1
:103AD500C2930CECB408DB7F01123FA6D2947F039E
:103AE500123FA6D293123FA6309407E4900091F0BE
:0F3AF50080069000917401F0C2937F03023FA6F8
:10000300E4FDD294FC7F01123FA6C2937F04123F0A
:10001300A6D2937F02123FA6ED25E0FD3094010D99
:100023007F02123FA60CECB408DBC2937F05123F9C
:03003300A6AF0570
:0100360022A7
:103EBA00EF7004C2948002D2947F08123FA6D29374
:0C3ECA007F0F123FA6C2937F08023FA6A4
:0737DC00900012EDF0AC07B4
:1037E300123F22AF04123AB3900091E07002802D91
:1037F300900012E0FF123AB3900091E07002801D36
:10380300E4900017F0900016E0FFA3E0C39F50225E
:10381300121FE4FF123AB3900091E07006123FBF0B
:103823007F0022740129F9E43AFA900017E004F0CA
:0738330080D3123FBF7F01AB
:01383A00226B
:0833E500900011EFF0A3EDF0E0
:1033ED00123F22900011E0FF123AB3900091E0706D
:1033FD00028022900012E0FF123AB3900091E0702B
:10340D00028012123F22900011E004FF123AB39095
:10341D000091E07009123FBFE412202AFF22E490D0
:10342D000017F0900016E014FFA3E0C39F501B128D
:10343D000003EF12202AE4FF123EBA740129F9E4C9
:10344D003AFA900017E004F080D9120003EF122031
:0B345D002A7F01123EBA123FBF7F0120
:013468002241
:023D6300AE07A9
:103D6500E4900010F0900090E0FFAD067B017A0032
:103D750079109000167401F01233E5EF600690009B
:063D850010E0FF227F00A8
:013D8B002215
:023F3700AE07D3
:103F3900900090E0FFAD0690006EE0900016F01240
:023F490033E55E
:013F4B002253
:073E7F00900010EDF0AE070A
:103E8600900090E0FFAD067B017A00791090001655
:063E96007401F01237DC9C
:013E9C002203
:023F4C00AE07BE
:103F4E00900090E0FFAD06900073E0900016F01226
:023F5E0037DC4E
:013F6000223E
:10003E000A4C54393631312072696E672043686933
:10004E0070204944203D2030782562782C2030786D
:10005E002562782C2030782562782020000D0A1B2E
:10006E005B33356D4C54393631315F4C6F77506F91
:10007E007765725F6D6F64653A20656E7465722088
:10008E006C6F7720706F776572206D6F64651B5B88
:10009E0033376D000D0A1B5B33356D4C54393631D9
:1000AE00315F4C6F77506F7765725F6D6F64653A35
:1000BE002065786974206C6F7720706F7765722079
:1000CE006D6F64651B5B33376D000A4C54393631E6
:1000DE00315F4D4950495F496E7075745F44696771
:1000EE0074616C3A206C743936313120736574202A
:1000FE006D697069206C616E6573203D20256264A8
:10010E00000A4C54393631315F4D4950495F496EC2
:10011E007075745F44696774616C3A206C7439361B
:10012E00313120736574206D69706920706F72743F
:10013E0073203D2031000A4C54393631315F4D4920
:10014E0050495F496E7075745F44696774616C3AAB
:10015E00206C743936313120736574206D69706985
:10016E0020706F7274203D2032000A4C54393631A3
:10017E00315F4D4950495F496E7075745F446967D0
:10018E0074616C3A204C54393631312E6D69706978
:10019E005F6D6F6465203D20637369000A4C5439AE
:1001AE003631315F4D4950495F496E7075745F4409
:1001BE00696774616C3A204C54393631312E6D6951
:1001CE0070695F6D6F6465203D20647369001B5B11
:1001DE0033326D000A2D2D2D2D2D2D2D2D2D2D2D46
:1001EE002D2D2D2D2D2D2D2D2D2D2D2D2D2D2D2D31
:1001FE002D2D2D2D2D2D2D2D2D2D2D2D2D2D2D2D21
:10020E002D2D2D2D2D2D2D2D2D2D2D2D2D2D2D2D10
:10021E002D2D2D2D2D2D2D2D2D2D2D2D2D2D2D2D00
:10022E002D2D000A4C54393631315F566964656F95
:10023E005F436865636B3A20685F746F74616C5FCF
:10024E00737973636C6B203D202564000A4C54391E
:10025E003631315F566964656F5F436865636B3A2B
:10026E00206C74393631312E696E7075745F636F20
:10027E006C6F725F7370616365203D205955563403
:10028E003232000A4C54393631315F566964656F2B
:10029E005F436865636B3A206C74393631312E6971
:1002AE006E7075745F636F6C6F725F737061636590
:1002BE00203D20524742383838000A4C54393631E6
:1002CE00315F566964656F5F436865636B3A20689A
:1002DE005F6163745F612C20685F6163745F622C81
:1002EE0020765F6163742C20765F74616C3A2025F2
:1002FE00642C2025642C2025642C2025642C2000C1
:10030E000A4C54393631315F566964656F5F436804
:10031E0065636B3A206D6970695F766964656F5FBE
:10032E00666F726D61743A203078256278000D0A1E
:10033E004C54393631315F566964656F5F43686579
:10034E00636B3A20566964656F5F466F726D6174B8
:10035E00203D0020766964656F5F3634307834381E
:10036E00305F3630487A200020766964656F5F37DB
:10037E003230783438305F3630487A200020766953
:10038E0064656F5F373230783537365F3530487A8F
:10039E00200020766964656F5F31323830783732ED
:1003AE00305F3630487A200020766964656F5F31A1
:1003BE00323830783732305F3530487A2000207648
:1003CE006964656F5F31323830783732305F333081
:1003DE00487A200020766964656F5F313932307853
:1003EE00313038305F3630487A20002076696465C7
:1003FE006F5F3139323078313038305F3530487A8E
:10040E00200020766964656F5F3139323078313083
:10041E0038305F3330487A200020766964656F5F2C
:10042E003139323078313038305F3235487A200009
:10043E0020766964656F5F3139323078313038300B
:10044E005F3234487A200020766964656F5F3338F6
:10045E00343078323136305F3330487A20002076AF
:10046E006964656F5F3338343078323136305F32DD
:10047E0035487A200020766964656F5F33383430F2
:10048E0078323136305F3234487A20002076696413
:10049E00656F5F383030783630305F3630487A20CE
:1004AE000020766964656F5F3130323478373638C4
:1004BE005F3630487A200020766964656F5F31328E
:1004CE003830783736385F3630487A2000207669F3
:1004DE0064656F5F31323830783830305F3630488F
:1004EE007A200020766964656F5F31323830783853
:1004FE0030305F3330487A200020766964656F5F54
:10050E0031323830783936305F3630487A20002034
:10051E00766964656F5F31323830783936305F33E3
:10052E0030487A200020766964656F5F313238304A
:10053E0078313032345F3630487A20002076696464
:10054E00656F5F3136303078313230305F3630485B
:10055E007A200020766964656F5F313638307831E5
:10056E003035305F3630487A200020766964656F0A
:10057E005F31333636783736385F3630487A20007A
:10058E0020766964656F5F323536307831343430B9
:10059E005F3630487A200020766964656F5F3235A9
:1005AE00363078313434305F3530487A200020765A
:1005BE006964656F5F37323078313038305F36308E
:1005CE00487A200020766964656F5F313038307864
:1005DE00313932305F3630487A20002076696465D2
:1005EE006F5F3338343078313038305F3630487A98
:1005FE00200020766964656F5F3130323478363092
:10060E00305F3630487A200020766964656F5F353A
:10061E003430783936305F3630487A2000207669AB
:10062E0064656F5F3235363078313630305F363054
:10063E00487A200020766964656F5F3235363078EF
:10064E00313038305F3630487A2000207669646564
:10065E006F5F32353630783732305F3630487A2039
:10066E000020766964656F5F373230783530375FDA
:10067E003630487A200020766964656F5F313932F2
:10068E0030783732305F3630487A200020756E6B06
:10069E006E6F776E20766964656F20666F726D611E
:1006AE007420001B5B33376D1B5B33376D000D0AF7
:1006BE004C54393631315F4D4950495F5063723A6F
:1006CE0020363430783438305F3630487A000D0AB0
:1006DE004C54393631315F504C4C3A20736574208E
:1006EE00727820706C6C203D20256C64000D0A4CD5
:1006FE0054393631315F504C4C3A207063725F6D15
:10070E00203D2030782562782C2068646D695F70FA
:10071E006F73745F646976203D20256264000D0A54
:10072E004C54393631315F504C4C3A2048444D4987
:10073E0020706C6C206C6F636B6564000D0A4C54FA
:10074E00393631315F504C4C3A2048444D49207077
:10075E006C6C20756E6C6F636B65642C20726573A8
:10076E00657420706C6C000D0A4C54393631315F53
:10077E00484443505F456E61626C653A204F6E008F
:10078E000D0A1B5B33356D4C54393631315F48449D
:10079E004D495F4F75745F456E61626C651B5B33CF
:1007AE00376D000D0A1B5B33356D4C5439363131C4
:1007BE005F48444D495F4F75745F44697361626C65
:1007CE00651B5B33376D000D0A4C54393631315F82
:1007DE0048444D495F54585F4469676974616C3A87
:1007EE0020696E666F4672616D655F656E203D2095
:1007FE0030782530326278000D0A4C54393631315A
:10080E005F48444D495F54585F4469676974616C31
:10081E003A20484D4449206D6F6465203D20484480
:10082E004D49000D0A4C54393631315F48444D491B
:10083E005F54585F4469676974616C3A20484D444F
:10084E0049206D6F6465203D20445649000D0A4CC9
:10085E0054393631315F4353433A205970627072C6
:10086E002034323220746F20524742383838000D0F
:10087E000A417564696F20696E7574203D20493296
:10088E005320326368000D0A417564696F20696EEA
:10089E007574203D205350444946000D0A7265611F
:1008AE00642065646964206661696C65643A206ED3
:1008BE006F2061636B000D0A0025303262782C00C8
:1008CE000D0A726561642065646964206661696CF5
:1008DE0065643A2061636373206E6F7420646F6E7B
:1008EE006500203078256278000D0A706F727420D2
:1008FE0041206279746520636C6B203D20256C6409
:10090E00000D0A706F727420412062797465206345
:10091E006C6B20756E737461626C65000D0A706F7E
:10092E0072742042206279746520636C6B203D20C6
:10093E00256C64000D0A706F727420422062797407
:10094E006520636C6B20756E737461626C65000D4F
:10095E000A4C54393631315F456E61626C655F49C0
:10096E006E74657272757074733A206870645F6924
:10097E0072715F656E61626C65000D0A4C5439369A
:10098E0031315F456E61626C655F496E746572727E
:10099E00757074733A206870645F6972715F646910
:1009AE007361626C65000D0A4C54393631315F4506
:1009BE006E61626C655F496E746572727570747388
:1009CE003A207669645F6368675F6972715F656E0E
:1009DE0061626C65000D0A4C54393631315F456EDB
:1009EE0061626C655F496E74657272757074733A8C
:1009FE00207669645F6368675F6972715F646973AB
:100A0E0061626C65000D0A4C54393631315F4844D1
:100A1E00505F496E746572727570745F48616E6472
:100A2E006C653A2048444D4920636F6E6E65637461
:100A3E006564000D0A4C54393631315F4844505FBD
:100A4E00496E746572727570745F48616E646C6520
:100A5E003A206E6F206D69706920766964656F2C1F
:100A6E002064697361626C652068646D69206F75BE
:100A7E0074707574000D0A4C54393631315F484428
:100A8E00505F496E746572727570745F48616E6402
:100A9E006C653A2048444D4920646973636F6E6EED
:100AAE006563746564000D0A4C54393631315F56F6
:100ABE0069645F4368675F496E74657272757074BE
:100ACE005F48616E646C653A20000D0A6365635F72
:100ADE0073746174757328307838366432293D200A
:100AEE003078256278000D0A636563207265633A7B
:100AFE0020000D0A73656E64206461746120646F5A
:100B0E006E652E20000D0A73657420706978656C11
:100B1E0020636C6B203D20256C64000D0A3D3D3D2D
:100B2E003D3D3D3D3D3D3D3D3D3D3D3D3D3D3D3DE7
:100B3E003D3D3D3D3D3D3D4C543936313120496EB4
:100B4E00697469616C20456E643D3D3D3D3D3D3DA2
:100B5E003D3D3D3D3D3D3D3D3D3D3D3D3D3D3D3DB7
:100B6E003D3D3D3D3D3D3D3D0000100060003002ED
:100B7E00800320000A0002002101E0020D000000A7
:100B8E000101000061A80010003E003C02D0035A93
:100B9E0000090006001E01E0020D00000002010027
:100BAE00006978000C0040005802D0036000050078
:100BBE000500270240027100000011010000697853
:100BCE00006E002800DC050006720005000500140A
:100BDE0002D002EE01010004020001220A01B80057
:100BEE002800DC050007BC00050005001402D00239
:100BFE00EE01010013020001220A0058002C00949D
:100C0E0007800898000400050024043804650101DB
:100C1E00001002000244140210002C009407800AF7
:100C2E0050000400050024043804650101001F0271
:100C3E00000244140058002C009407800898000409
:100C4E00000500240438046501010022020001227F
:100C5E000A0210002C009407800A500004000500C0
:100C6E00240438046501010021020001220A027EDB
:100C7E00002C009407800ABE0004000500240438EE
:100C8E00046501010020020001220A00B000580193
:100C9E00280F0011300008000A0048087008CA0129
:100CAE0001005F02000488280420005801280F006C
:100CBE0014A00008000A0048087008CA0101005E6E
:100CCE00020004882804FC005801280F00157C003F
:100CDE0008000A0048087008CA0101005D020004FD
:100CEE00882800F8002C00940A000AA000040005D1
:100CFE00000B0438044C01010000020003057000D3
:100D0E003000800058032004200001000400170268
:100D1E00580274010100000200009C400018008877
:100D2E0000A00400054000030006001D030003267A
:100D3E0000000000020000FDE80040008000C00539
:100D4E000006800003000700140300031E000100CC
:100D5E0000020001368C001C00200064050005A076
:100D6E0000020006000F03200337000000000200FF
:100D7E0001155800600070013805000708000100D9
:100D8E0003002403C003E801010000020001A5E0F6
:100D9E000048008000C805000690000300060016FB
:100DAE000320033F00010000020000A316006000B4
:100DBE007001380500070800010003002403C0037A
:100DCE00E801010000020000D2F00030007000F8CF
:100DDE00050006980001000300260400042A010104
:100DEE000000020001A5E0004000C00130064008EE
:100DFE007000010003002E04B004E20101000002A5
:100E0E00000278D0006800B00118069008C00003F8
:100E1E000006001E041A0441000100000200023BFD
:100E2E004A06E0002800DC05000CE4000500050081
:100E3E001402D002EE01010000020001220A003C61
:100E4E00003C00640400048200020005000A0258FF
:100E5E0002690101000002000084D0000E0038007B
:100E6E0040055605DC00010003001C0300032001B1
:100E7E00010000020001211000B0011001C00A00A3
:100E8E000D8000030005002405A005CC0101000023
:100E9E00020003E8FA0030002000500A000AA00009
:100EAE00030005002105A005C90101000002000391
:100EBE00AF5C0030002000500A000AA000030006BC
:100ECE0000250640066E0101000002000418D40041
:100EDE00B0005801280F0011300004000500240452
:100EEE0038046501010000020004882800DC00506F
:100EFE0001B80A000CE400050005001402D002EE51
:100F0E000101000002000244140004000500240444
:100F1E003804650058002C009407800898010100E1
:100F2E0000020002441400050005001402D002EE77
:100F3E00006E002800DC05000672010100000200B0
:100F4E0001220A001E000A001E021C0262000A0094
:100F5E000A000A03C003DE0101000002000082DC69
:100F6E000010003E003C02D0035A000900060003A8
:100F7E0001FB020D0000000302000069780058001A
:100F8E002C00940780089800050005001402D0027A
:0A0F9E00EE0101000002000186A030
:103EA50049003D01000100000100010141004700FA
:043EB5004100380090
:103B04007D807FFF123E7F7D017FEE123E7FE4FFCA
:103B1400123D63C0077F01123D63C0077F02123D5F
:103B240063900015EFF0900014D0E0F0900013D0F3
:103B3400E0F07BFF7A00793E121CEA7D817FFF1260
:103B44003E7F7D187F01123E7F7D807FFF023E7F96
:103DD7007D817FFF123E7F7D487F02123E7F7D807F
:103DE7007F23123E7FE4FD7F30123E7FE4FD7F019B
:033DF700023E7F0A
:1036B100EF7D817FFF602E123E7F7D497F02123EAA
:1036C1007F7D807F23123E7FE4FD7F30123E7F7D30
:1036D100807FFF123E7F7D0A7F11123E7F7BFF7A42
:1036E10000796B802C123E7F7D127F02123E7F7D1E
:1036F100407F23123E7F7DEA7F30123E7F7D807FB7
:10370100FF123E7F7DFA7F11123E7F7BFF7A0079A7
:05371100A2121CEA22D7
:10377A007D827FFF123E7F7D117F51123E7F7D82C7
:10378A007FFF123E7F7D697F1B123E7F7D787F1C03
:10379A00123E7F7D697FCB123E7F7D787FCC123EC1
:1037AA007F7D807FFF123E7F7DF07F04123E7F7D0A
:1037BA00F07F06123E7F7D807F0A123E7F7D467F24
:1037CA000B123E7F7DEF7F0D123E7F7DFA7F110245
:0237DA003E7F30
:103897007D817FFF123E7F7D607F06123E7F7D3FE9
:1038A7007F07123E7F7D3F7F08123E7F7DFE7F0AA6
:1038B700123E7F7DBF7F0B123E7F7D607F11123EE0
:1038C7007F7D3F7F12123E7F7D3F7F13123E7F7DBC
:1038D700FE7F15123E7F7DBF7F16123E7F7D037FE1
:0B38E7001C123E7F7D037F20023E7F0D
:10319F0090003EE0900000F07BFF7A0079D890001D
:1031AF0013F0121CEA7D827FFF123E7F7D807F4FDE
:1031BF00123E7F7D107F50123E7F7D837FFF123E38
:1031CF007F900000E0FDE4FF123E7F7D087F02123A
:1031DF003E7F7D087F06123E7F30900FE4FD7F0A11
:1031EF00123E7F7BFF7A01790F800D7D037F0A12DC
:1031FF003E7F7BFF7A017944121CEA90003FE07B0F
:10320F00FFB4011C7A017978121CEA7D837FFF12CB
:10321F003E7F7D107F08123E7F7D407F2C023E7FD8
:07322F007A0179AA121CEAE2
:013236002275
:100FA800E4900003F07D827FFF123E7F7F86123D32
:100FB8006390000EE4F0A3EFF07F87123D63EFFD2E
:100FC8007C0090000FE0FEE42DFFEC3E90000EF058
:100FD800A3EFF07BFF7A0179DC121CEA7BFF7A0130
:100FE80079E2121CEA7BFF7A02793190000EE0FF69
:100FF800A3E0900013CFF0A3EFF0121CEA7F821257
:101008003D6390000AE4F0A3EFF07F83123D63EFA5
:10101800FD7C0090000BE0FEE42DFFEC3E90000A02
:10102800F0A3EFF07F6C123D6390000CE4F0A3EFA7
:10103800F07F6D123D63EFFD7C0090000DE0FEE453
:101048002DFFEC3E90000CF0A3EFF07D837FFF12A4
:101058003E7F7F82123D63900006E4F0A3EFF07FAD
:1010680083123D63EFFD7C00900007E0FEE42DFF56
:10107800EC3E900006F0A3EFF07F86123D639000EF
:1010880008E4F0A3EFF07F87123D63EFFD7C00904A
:101098000009E0FEE42DFFEC3E900008F0A3EFF01D
:1010A800900045E0B4011F7BFF7A02795A121CEACE
:1010B800900006E0C313F0A3E013F0A3E0C313F01D
:1010C800A3E013F0803B900045E070357BFF7A0287
:1010D8007991121CEA900006E0FEA3E0FF7C007DF7
:1010E8000312205E900006EEF0A3EFF0A3E0FEA34B
:1010F800E0FF7C007D0312205E900008EEF0A3EF75
:10110800F07F88123D63900003EFF07BFF7A02794D
:10111800C8900006E0FFA3E0900013CFF0A3EFF023
:10112800900008E0FFA3E0900015CFF0A3EFF09047
:10113800000AE0FFA3E0900017CFF0A3EFF09000C3
:101148000CE0FFA3E0900019CFF0A3EFF0121CEA27
:101158007BFF7A03790E900003E0900013F0121CD5
:10116800EA209018900008E0FEA3E0FF900007E056
:101178002FFF900006E03E900004800B900006E0F0
:10118800FFA3E0900004CFF0A3EFF07BFF7A037990
:101198003C121CEA900B7DE493FE740193FF9000CF
:1011A80004E0B5063BA3E0B50736900B87E493FE51
:1011B800740193FF90000AE0B50625A3E0B5072067
:1011C8007BFF7A037961121CEA9000467401F09063
:1011D800003A74FFF0A3740BF0A37477F0021C6D4F
:1011E800900B9AE493FE740193FF900004E0B50617
:1011F8003BA3E0B50736900BA4E493FE740193FF7C
:1012080090000AE0B50625A3E0B507207BFF7A0326
:101218007976121CEA9000467402F090003A74FF46
:10122800F0A3740BF0A37494F0021C6D900BB7E458
:1012380093FE740193FF900004E0B5063BA3E0B56C
:101248000736900BC1E493FE740193FF90000AE007
:10125800B50625A3E0B507207BFF7A03798B121C1E
:10126800EA9000467403F090003A74FFF0A3740B00
:10127800F0A374B1F0021C6D900BD4E493FE7401DA
:1012880093FF900004E06E7003A3E06F6003021305
:1012980041900BDE93FE740193FF90000AE06E709C
:1012A80003A3E06F6003021341C390000FE094763C
:1012B80090000EE0940250207BFF7A0379A0121C64
:1012C800EA9000467404F090003A74FFF0A3740B9F
:1012D800F0A374CEF0021C6DC390000FE094EE9062
:1012E800000EE0940250207BFF7A0379B6121CEAC4
:1012F800900046740BF090003A74FFF0A3740BF062
:10130800A374EBF0021C6DC390000FE094CE900024
:101318000EE094044003021C6D7BFF7A0379CC1223
:101328001CEA900046740CF090003A74FFF0A37425
:101338000EF0A3742FF0021C6D900C0EE493FE7453
:101348000193FF900004E06E7003A3E06F60030256
:101358001460900C1893FE740193FF90000AE06EDD
:101368007003A3E06F6003021460C390000FE09461
:10137800AE90000EE0940150207BFF7A0379E212D0
:101388001CEA9000467405F090003A74FFF0A374CC
:101398000CF0A37408F0021C6DC390000FE094FEDB
:1013A80090000EE0940150207BFF7A0379F9121C1B
:1013B800EA900046741AF090003A74FFF0A3740C97
:1013C800F0A37425F0021C6DC390000FE0943E90CA
:1013D800000EE0940350207BFF7A047910121CEA77
:1013E800900046741BF090003A74FFF0A3740CF060
:1013F800A37442F0021C6DC390000FE094D49000D7
:101408000EE0940350207BFF7A047927121CEA909F
:101418000046741CF090003A74FFF0A3740CF0A31B
:10142800745FF0021C6DC390000FE0940690000EEC
:10143800E094044003021C6D7BFF7A04793E121C81
:10144800EA900046741DF090003A74FFF0A3740C03
:10145800F0A3747CF0021C6D900C9FE493FE740161
:1014680093FF900004E06E7003A3E06F6003021521
:1014780021900CA993FE740193FF90000AE06E700E
:1014880003A3E06F6003021521C390000FE094AE40
:1014980090000EE0940150207BFF7A047955121CCD
:1014A800EA900046740DF090003A74FFF0A3740CB3
:1014B800F0A37499F0021C6DC390000FE094EA90B9
:1014C800000EE0940150207BFF7A04796C121CEA2C
:1014D800900046740EF090003A74FFF0A3740CF07C
:1014E800A374B6F0021C6DC390000FE0940890003E
:1014F8000EE094024003021C6D7BFF7A047983128C
:101508001CEA900046740FF090003A74FFF0A37440
:101518000CF0A374D3F0021C6D900D13E493FE74C9
:101528000193FF900004E0B5062CA3E0B5072790CF
:101538000D1DE493FE740193FF90000AE0B50616B2
:10154800A3E0B507117BFF7A04799A121CEA900090
:10155800467420021621900D30E493FE740193FF27
:10156800900004E0B5062CA3E0B50727900D3AE4F7
:1015780093FE740193FF90000AE0B50616A3E0B548
:1015880007117BFF7A0479AF121CEA900046742099
:1015980002166D900D4DE493FE740193FF900004C4
:1015A800E0B5063BA3E0B50736900D57E493FE740B
:1015B8000193FF90000AE0B50625A3E0B507207B5C
:1015C800FF7A0479C5121CEA900046741FF0900057
:1015D8003A74FFF0A3740DF0A37447F0021C6D90E9
:1015E8000D13E493FE740193FF900004E0B5063BED
:1015F800A3E0B50736900D1DE493FE740193FF90A8
:10160800000AE0B50625A3E0B507207BFF7A047938
:101618009A121CEA900046741FF090003A74FFF08A
:10162800A3740DF0A3740DF0021C6D900D30E493BB
:10163800FE740193FF900004E0B5063BA3E0B507F4
:1016480036900D3AE493FE740193FF90000AE0B5DA
:101658000625A3E0B507207BFF7A0479AF121CEAC0
:10166800900046741FF090003A74FFF0A3740DF0D8
:10167800A3742AF0021C6D900D6AE493FE74019322
:10168800FF900004E06E7003A3E06F7053900D7438
:1016980093FE740193FF90000AE06E7003A3E06F5D
:1016A800703EC390000FE0943090000EE094027BEF
:1016B800FF500F7A0479DB121CEA900046741F026F
:1016C8001A867A0479F1121CEA900046741FF09089
:1016D800003A74FFF0A3740DF0A3749EF0021C6D21
:1016E800900D87E493FE740193FF900004E06E7000
:1016F80003A3E06F7062900D9193FE740193FF90C5
:10170800000AE06E7003A3E06F704DC390000FE015
:1017180094CC90000EE094017BFF501E7A05790767
:10172800121CEA900046741FF090003A74FFF0A370
:10173800740DF0A37481F0021C6D7A05791D121CDA
:10174800EA900046741FF090003A74FFF0A3740DFD
:10175800F0A374BBF0021C6D900DDEE493FE7401DF
:1017680093FF900004E0B5063BA3E0B50736900D63
:10177800E8E493FE740193FF90000AE0B50625A300
:10178800E0B507207BFF7A057933121CEA90004602
:10179800741FF090003A74FFF0A3740DF0A374D88E
:1017A800F0021C6D900DFBE493FE740193FF900012
:1017B80004E0B5063BA3E0B50736900E05E493FEBA
:1017C800740193FF90000AE0B50625A3E0B5072051
:1017D8007BFF7A05794A121CEA900046741FF09044
:1017E800003A74FFF0A3740DF0A374F5F0021C6DB9
:1017F800900E18E493FE740193FF900004E0B50680
:101808003BA3E0B50736900E22E493FE740193FFE4
:1018180090000AE0B50625A3E0B507207BFF7A050E
:101828007961121CEA900046741FF090003A74FF28
:10183800F0A3740EF0A37412F0021C6D900E6FE406
:1018480093FE740193FF900004E0B5063BA3E0B556
:101858000736900E79E493FE740193FF90000AE036
:10186800B50625A3E0B507207BFF7A057978121C19
:10187800EA9000467416F090003A74FFF0A3740ED4
:10188800F0A37469F0021C6D900EA9E493FE740134
:1018980093FF900004E06E7003A3E06F7076900EE3
:1018A800B393FE740193FF90000AE06E7003A3E007
:1018B8006F7061C390000FE0943690000EE09401C1
:1018C80050207BFF7A05798E121CEA900046741826
:1018D800F090003A74FFF0A3740EF0A374A3F00222
:1018E8001C6DC390000FE0947290000EE0940140CC
:1018F80003021C6D7BFF7A0579A5121CEA9000464D
:10190800741FF090003A74FFF0A3740EF0A374866D
:10191800F0021C6D900F3AE493FE740193FF90005F
:1019280004E0B5063BA3E0B50736900F44E493FE08
:10193800740193FF90000AE0B50625A3E0B50720DF
:101948007BFF7A0579BC121CEA9000467413F0906C
:10195800003A74FFF0A3740FF0A37434F0021C6D06
:10196800900F1DE493FE740193FF900004E0B50608
:101978003BA3E0B50736900F27E493FE740193FF6D
:1019880090000AE0B50625A3E0B507207BFF7A059D
:1019980079D2121CEA9000467412F090003A74FF53
:1019A800F0A3740FF0A37417F0021C6D900EE3E41B
:1019B80093FE740193FF900004E0B5063BA3E0B5E5
:1019C8000736900EEDE493FE740193FF90000AE051
:1019D800B50625A3E0B507207BFF7A0579E9121C37
:1019E800EA9000467410F090003A74FFF0A3740E69
:1019F800F0A374DDF0021C6D900E52E493FE7401A6
:101A080093FF900004E0B5063BA3E0B50736900EBF
:101A18005CE493FE740193FF90000AE0B50625A3E9
:101A2800E0B507207BFF7A067900121CEA90004691
:101A38007411F090003A74FFF0A3740EF0A3744C84
:101A4800F0021C6D900D6AE493FE740193FF900000
:101A580004E0B5063BA3E0B50736900D74E493FEA9
:101A6800740193FF90000AE0B50625A3E0B50720AE
:101A78007BFF7A0479DB121CEA9000467414F0901C
:101A8800003A74FFF0A3740DF0A37464F0021C6DA7
:101A9800900F57E493FE740193FF900004E0B5069D
:101AA8003BA3E0B50736900F61E493FE740193FF02
:101AB80090000AE0B50625A3E0B507207BFF7A066B
:101AC8007916121CEA9000467415F090003A74FFDB
:101AD800F0A3740FF0A37451F0021C6D900EC6E4CD
:101AE80093FE740193FF900004E0B5063BA3E0B5B4
:101AF8000736900ED0E493FE740193FF90000AE03D
:101B0800B50625A3E0B507207BFF7A06792B121CC2
:101B1800EA9000467417F090003A74FFF0A3740E30
:101B2800F0A374C0F0021C6D900CF6E493FE7401EF
:101B380093FF900004E0B5063BA3E0B50736900D8F
:101B480000E493FE740193FF90000AE0B50625A314
:101B5800E0B507207BFF7A067942121CEA9000461E
:101B68007419F090003A74FFF0A3740CF0A374F0A9
:101B7800F0021C6D900F00E493FE740193FF900037
:101B880004E0B5063BA3E0B50736900F0AE493FEE0
:101B9800740193FF90000AE0B50625A3E0B507207D
:101BA8007BFF7A067959121CEA900046741EF09061
:101BB800003A74FFF0A3740EF0A374FAF0021C6DDF
:101BC800900F74E493FE740193FF900004E0B5064F
:101BD8003AA3E0B50735900F7EE493FE740193FFB6
:101BE80090000AE0B50624A3E0B5071F7BFF7A063C
:101BF800796F121CEA900046741FF090003A74FF47
:101C0800F0A3740FF0A3746EF0805A900F91E493D0
:101C1800FE740193FF900004E0B5063AA3E0B5070F
:101C280035900F9BE493FE740193FF90000AE0B592
:101C38000624A3E0B5071F7BFF7A067984121CEA05
:101C4800900046741FF090003A74FFF0A3740FF0F0
:101C5800A3748BF0800F9000467420F07BFF7A0607
:101C6800799A121CEA7BFF7A0179E2121CEA7BFF5F
:071C78007A0679B1021CEAB3
:102C8100900006EBF0A3EAF0A3E9F07D837FFF1249
:102C91003E7F900006E0FBA3E0FAA3E0F99000126A
:102CA1001220DEE5F0FD7F0D123E7F900006E0FB75
:102CB100A3E0FAA3E0F99000121220DEFD7F0E12CC
:102CC1003E7F900006E0FBA3E0FAA3E0F99000103C
:102CD1001220DEE5F0FD7F0F123E7F900006E0FB43
:102CE100A3E0FAA3E0F99000101220DEFD7F10129C
:102CF1003E7F900006E0FBA3E0FAA3E0F990000814
:102D01001220DEE5F0FD7F11123E7F900006E0FB10
:102D1100A3E0FAA3E0F99000081220DEFD7F121271
:102D21003E7F900006E0FBA3E0FAA3E0F9900006E5
:102D31001220DEE5F0FD7F13123E7F900006E0FBDE
:102D4100A3E0FAA3E0F99000061220DEFD7F141241
:102D51003E7F900006E0FBA3E0FAA3E0F990000CAF
:102D61001220DEFD7F15123E7F900006E0FBA3E0FE
:102D7100FAA3E0F99000021220DEFD7F16123E7FD9
:102D8100900006E0FBA3E0FAA3E0F990000A12200C
:102D9100DEFD7F17123E7F900006E0FBA3E0FAA361
:102DA100E0F990000E1220DEFFAEF090000C122030
:102DB100DE2FFFE5F03EAD077F18123E7F90000643
:102DC100E0FBA3E0FAA3E0F91220B3FD7F19123E64
:102DD1007F900006E0FBA3E0FAA3E0F99000041263
:102DE10020DEFFAEF09000021220DE2FE5F03EFD66
:102DF1001220B3E5F0C4F8540FC868FFEF2DFD7F32
:102E01001A123E7F900006E0FBA3E0FAA3E0F990DE
:102E110000041220DEFFAEF09000021220DE2FFF30
:0A2E2100E5F03EAD077F1B023E7F87
:0B2AD10090003AE0FBA3E0FAA3E0F95C
:102ADC009000061220DEFF900004E5F0F0A3EFF06A
:102AEC00900014121FFD25E0FF900015121FFD2F02
:102AFC00900003F0F4F05403F07D837FFF123E7FCF
:102B0C00209064900004E0FEA3E07802CEC313CEC4
:102B1C0013D8F9F0EE900004F0A3E02450F09000EC
:102B2C0004E03400F0E0FEA3E0FFC394E0EE940375
:102B3C00500280047E037FE0900004EEF0A3EFF0DF
:102B4C00900004E0FD7F0B123E7F900004A3E0FD9B
:102B5C007F0C123E7F900004E0FD7F48123E7F9078
:102B6C000004A3E0FD80177D017F0B123E7F7D10DA
:102B7C007F0C123E7FE4FD7F48123E7F7D817F49B2
:102B8C00123E7F7D4A7F21123E7F7D717F24123E53
:102B9C007F7D307F25123E7F7D017F2A123E7F7D17
:102BAC00407F4A123E7F900003E04410FD7F1D12CF
:102BBC003E7F900046E014600D14600A24F16065BD
:102BCC0024FC6061807B7D837FFF123E7F7D027FD2
:102BDC000B123E7F7D407F0C123E7F7D017F4812A1
:102BEC003E7F7D107F49123E7F7D707F24123E7F99
:102BFC007D807F25123E7F7D107F2A123E7F7D8057
:102C0C007F2B123E7F7D287F23123E7F7D107F4AD3
:102C1C00123E7F7DF37F1D123E7F7BFF7A0679BCCF
:102C2C00121CEA801C7D707F24123E7F7D807F25E4
:102C3C00123E7F7D107F2A123E7F7DF07F1D123E5B
:102C4C007F90003AE0FBA3E0FAA3E0F9122C817D1F
:102C5C00837FFF123E7F900039E0FD7F26123E7F7E
:102C6C007D807FFF123E7F7D5A7F11123E7F7DFA61
:052C7C007F11023E7F04
:0B232B0090003AE0FBA3E0FAA3E0F909
:102336009000191222449000031222747BFF7A0641
:1023460079DC900003E0FCA3E0FDA3E0FEA3E0FF40
:10235600900013122274121CEA7D817FFF123E7FC9
:102366007D407F23123E7F7D627F24123E7F7D80EB
:102376007F25123E7F7D557F26123E7F7D377F2C3F
:10238600123E7F7D017F2F123E7F7D557F26123EB6
:102396007F7D667F27123E7F7D887F28123E7F7F66
:1023A600F07E497D027C00900003E0F8A3E0F9A3EB
:1023B600E0FAA3E0FBD3122233400F7D887F2D1273
:1023C6003E7F9000077401F080387F807E387D0163
:1023D6007C00900003E0F8A3E0F9A3E0FAA3E0FB99
:1023E600D3122233400F7D997F2D123E7F90000736
:1023F6007402F0800D7DAA7F2D123E7F9000077437
:1024060004F0E47F05FEFDFC900003E0F8A3E0F98C
:10241600A3E0FAA3E0FB122116A804A905AA06ABBD
:1024260007900007E0FFE4FCFDFE122116E47B782E
:102436007A69F9F81221A1900039EFF07BFF7A064C
:1024460079FBE0900013F0900007E0900014F01282
:102456001CEA7D837FFF123E7F7D407F2D123E7FEB
:102466007D087F31123E7F900039E04480FD7F2653
:10247600123E7F900003E0FCA3E0FDA3E0FEA3E094
:10248600FFE47B02FAF9F81221A1900003122274EC
:102496007D827FFF123E7FE4FBFA7901F89000030C
:1024A600E0FCA3E0FDA3E0FEA3E0FF1221A1AD073F
:1024B6007FE3123E7F900003A3A3E0FEA3E0FFE4C8
:1024C600FDFC900003122274E4FB7A01F9F89000F7
:1024D60003E0FCA3E0FDA3E0FEA3E0FF1221A1AD13
:1024E600077FE4123E7F900003E0FCA3A3E0FEA377
:1024F600E0FFE4AD077FE5123E7F7D207FDE123EE2
:102506007F7DE07FDE123E7F7D807FFF123E7F7DF6
:10251600F17F16123E7F7DF37F16123E7FE4900018
:1025260008F07D807FFF123E7F7DE37F16123E7F9F
:102536007DF37F16123E7F7D827FFF123E7F7F15E1
:10254600123D63EF30E7097BFF7A07792C021CEA1C
:102556007D807FFF123E7F7D5A7F11123E7F7DFA7E
:102566007F11123E7F7DDC7F18123E7F7DFC7F1837
:10257600123E7F7DF17F16123E7F7DF37F16123E5F
:102586007F7BFF7A07794A121CEA900008E004F084
:06259600E0C39406408C36
:01259C00221C
:103648007D817FFF123E7F7DFF7F30123E7F7D733D
:103658007F31123E7F7DFE7F32123E7F7D737F3346
:10366800123E7F7D037F34123E7F7D037F35123EFD
:103678007F7D037F36123E7F7D447F37123E7F7DFC
:103688000F7F3F123E7F7DA07F40123E7F7DA07F4F
:1036980041123E7F7DA07F42123E7F7DA07F431274
:0936A8003E7F7D0A7F44023E7F53
:103DFA007D857FFF123E7F7D1F7F07123E7F7DFEFE
:103E0A007F13123E7F7D0F7F17123E7F7D057F1540
:033E1A00023E7FE6
:103CC0007D807FFF123E7F7D7F7F14123E7F7DFFD0
:103CD0007F14123E7F7D857FFF123E7F7D017F1521
:103CE000123E7F7D717F15123E7F7D657F15123EEE
:0A3CF0007F7BFF7A077975021CEA5A
:0E3FB1007D857FFF123E7F7D457F15023E7F9E
:1034E8007D817FFF123E7F7D407F23123E7F7D825C
:1034F8007FFF123E7F7D207FDE123E7F7DE07FDEF4
:10350800123E7F7D807FFF123E7F7DDC7F18123E5A
:103518007F7DFC7F18123E7F7DF17F16123E7F7DF6
:10352800F37F16123E7F7D5A7F11123E7F7DFA7F10
:1035380011123E7F7D817FFF123E7F7DEA7F301230
:103548003E7F900043E0B40105123CC08003123F67
:0A355800B17BFF7A07798E021CEAAE
:103E3F007D817FFF123E7FE4FD7F30123E7F7D80CC
:103E4F007F23123E7F7BFF7A0779B1121CEA023F74
:013E5F00B1B1
:0B259D0090003AE0FBA3E0FAA3E0F995
:1025A8009000161220DE900003F0900018121FFD14
:1025B800900004F0900008740EF07BFF7A0779D53C
:1025C800900013F0121CEA900004E0C454F02408B0
:1025D800FF900006F0900003E0900007F0FD7C00FB
:1025E8007E002FFBEE33FAD3EB945FEA648094808D
:1025F8005013C3745F9FCBE49ECBC39DFDEB9CFC43
:10260800FEAF058016C3745F9FFF74019EFE9000A5
:1026180007E0FDC3EF9DFFEE9400FE900005EFF08C
:102628007D827FFF123E7F900044E0B4010F7D8ED3
:102638007FD6123E7F7BFF7A08790680139000448C
:10264800E070107D0E7FD6123E7F7BFF7A087931CD
:10265800121CEA900041E070077D047FD7123E7F8C
:10266800900041E0B401077D807FD7123E7F7D84D2
:102678007FFF123E7F900005E0FD7F43123E7F9072
:102688000006E0FD7F45123E7F900007E0FD7F4792
:10269800123E7F7D847FFF123E7F7D027F10123EB7
:1026A8007F7D647F12123E7F900003E0645F704C70
:1026B8007D847FFF123E7F7D017F3D123E7F7D81BD
:1026C8007F74123E7F7D017F75123E7F7D057F7688
:1026D800123E7F7D497F77123E7F7D037F78123ED1
:1026E8007F7D0C7F79123E7FE4FD7F7A123E7F7DED
:1026F800207F7B123E7F7D017F7C800E7D847FFF63
:10270800123E7F900008E0FD7F3D123E7F9000085A
:10271800E060467D847FFF123E7F7D837FC0123E4E
:102728007F7D017FC1123E7F7D197FC2123E7FE40B
:10273800FD7FC3123E7F7D017FC4123E7F7D027FF5
:10274800C5123E7F7D037FC6123E7F7D047FC71280
:092758003E7FE4FD7FC8123E7FC4
:012761002255
:103E6000900045E0B401177D827FFF123E7F7D18F0
:0F3E70007FB9123E7F7BFF7A08795B121CEA2232
:10356200900041E070417BFF7A08797D121CEA7D70
:10357200847FFF123E7F7D087F06123E7F7D107F93
:1035820007123E7F7D2B7F0F123E7F7DD47F341248
:103592003E7FE4FD7F35123E7F7D187F36123E7FEF
:1035A200E4FD7F37123E7F900041E0640170257B8D
:1035B200FF7A087994121CEA7D847FFF123E7F7D98
:1035C2000C7F06123E7F7D107F07123E7F7DD47FE7
:0535D20034123E7F22CF
:10292000E4900006F07D857FFF123E7F7DC97F0326
:10293000123E7F7DA07F04123E7FE4FD7F05123EA4
:102940007F7D207F06123E7F7D7F7F14123E7FE4D5
:10295000900003F0900003E0FFC394084003022AB4
:1029600008EFC43354E0FD7F05123E7F7D367F07BC
:10297000123E7F7D347F07123E7F7D377F07123EF8
:102980007F7F057E007D007C00123A017F40123D72
:1029900063EF20E103022AAF7F40123D63EF545002
:1029A0006003022A647BFF7A0879C4121CEAE4906F
:1029B0000004F07F83123D63900005EFF090000368
:1029C000E0B4030BA3E0B41E06A3E05403A3F07B22
:1029D000FF7A0879C7900005E0900013F0121CEA16
:1029E000900004E004F0E0C3942040C7900003E0AE
:1029F000B4030C900006E0C394015003022AC39074
:102A00000003E004F0022954900006E0C394025051
:102A100003022AC3E4900003F0900003E0FFC39494
:102A2000084003022AC3EFC43354E0FD7F05123E81
:102A30007F7D767F07123E7F7D747F07123E7F7D0C
:102A4000777F07123E7F7F057E007D007C00123A73
:102A5000017F40123D63EF30E1557F40123D63EF4F
:102A6000545060087BFF7A0879A980497BFF7A0877
:102A700079C4121CEAE4900004F07F83123D639055
:102A80000005EFF07BFF7A0879C7900013F0121C65
:102A9000EA900004E004F0E0C3942040DD900003DD
:102AA000E0B40316900006E0C39403500D80147B3D
:102AB000FF7A0879CE121CEA8009900003E004F046
:102AC000022A197DC27F03123E7F7D1F7F07023ECF
:012AD0007F86
:103F0C007D827FFF123E7F7F5E123D63EF30E203C6
:063F1C007F01227F00225C
:103D3300EF7D807FFF601E123E7F7DFF7F0D123E71
:103D43007F7DF97F15123E7F7D867FFF123E7F7D4B
:103D5300A57FFE8007123E7F7DF17F15123E7F22F5
:103F61007D867FFF123E7F7D207FF7123E7FE4FD3D
:053F71007FF8023E7F15
:0B323700900004EBF0A3EAF0A3E9F024
:103242007D867FFF123E7F7FD3123D63900007EFA2
:10325200F0900004E0FBA3E0FAA3E0F9EF12202AC9
:103262009000087401F0900007E0FFA3E0FED39FF6
:103272005048EE24D3FF123D63900004E0FBA3E02C
:10328200FAA3E0F9900008E0FEF582758300EF12E0
:10329200203C900004E0FBA3E0FAA3E0F98E8275E3
:1032A2008300121FFD900013F07BFF7A0879F01261
:1032B2001CEA900008E004F080ACE4FD7FF5123EC9
:0732C2007F9000477401F04A
:0132C90022E2
:0B371600900000EBF0A3EAF0A3E9F044
:10372100121FE4900003F07D867FFF123E7F900020
:1037310003E0FD7FF4123E7FE4900004F09000036B
:10374100E0FFA3E0FED39F5029EE24E4FFEE240125
:10375100FDE433FC900000E0FBA3E0FAA3E0F98D67
:10376100828C83121FFDFD123E7F900004E004F065
:0937710080CB7D037FF9023E7F4D
:103E1D009000587405F0A37440F0A37484F0A3745B
:103E2D0010F0E4A3F0A37405F07B017A0079580239
:023E3D00371636
:102E2B00900001122280000000007BFF7A0179DC08
:102E3B00121CEA7D827FFF123E7F7D037FC7123E0D
:102E4B007F7F327E007D007C00123A017FCD123DE8
:102E5B0063900000EFF0546064606003022EFBE0AF
:102E6B00540FFFE4FCFDFEFBFA7901F812211690DA
:102E7B0000011222747FCE123D63900000EFF0A38D
:102E8B00E0F8A3E0F9A3E0FAA3E0FB900000E07FF9
:102E9B0000FEE4FCFDEF2BFFEA3EFEED39FDEC38C6
:102EAB00FCA31222747FCF123D63900000EFF0A3BE
:102EBB00E0F8A3E0F9A3E0FAA3E0FB900000E0FF49
:102ECB00E4FCFDFEEB2FFFEE3AFEED39FDEC38FC9A
:102EDB00A31222747BFF7A0879F7900001E0FCA320
:102EEB00E0FDA3E0FEA3E0FF900013122274800626
:102EFB007BFF7A09790F121CEA7D827FFF123E7FDE
:102F0B007D047FC7123E7F7F327E007D007C0012E6
:102F1B003A017FCD123D63900000EFF05460646086
:102F2B006003022FC1E0540FFFE4FCFDFEFBFA79B6
:102F3B0001F81221169000011222747FCE123D630C
:102F4B00900000EFF0A3E0F8A3E0F9A3E0FAA3E010
:102F5B00FB900000E07F00FEE4FCFDEF2BFFEA3E60
:102F6B00FEED39FDEC38FCA31222747FCF123D63CA
:102F7B00900000EFF0A3E0F8A3E0F9A3E0FAA3E0E0
:102F8B00FB900000E0FFE4FCFDFEEB2FFFEE3AFEB2
:102F9B00ED39FDEC38FCA31222747BFF7A09792AF8
:102FAB00900001E0FCA3E0FDA3E0FEA3E0FF900096
:102FBB001312227480067BFF7A097942121CEA7B7A
:082FCB00FF7A0679B1021CEA4D
:01003A0022A3
:013FD30022CB
:013FD40022CA
:103ED6007D827FFF123E7F7D0A7F58123E7F7D8066
:0C3EE6007F59123E7F7DF77F9E023E7FD9
:102FD300900004EDF0900003EFF064017042A3E071
:102FE3007D827FFF6020123E7F7DFF7F07123E7F41
:102FF3007D3F7F07123E7F7D3F7F03123E7F7BFF36
:103003007A09795D8017123E7F7DFF7F07123E7F2D
:103013007DFF7F03123E7F7BFF7A097988121CEACA
:10302300900003E064027050A3E07D827FFF602E76
:10303300123E7F7DFF7F9E123E7F7DF77F9E123E75
:103043007F7DFF7F04123E7F7DFE7F04123E7F7DE6
:10305300FEE4FF123E7F7BFF7A0979B48017123EAC
:103063007F7DFF7F04123E7F7DFFE4FF123E7F7B67
:10307300FF7A0979E3121CEA900003E06403705FAE
:10308300A3E07D867FFF6031123E7FE4FD7FFA126D
:103093003E7F7D7F7FFC123E7FE4FD7FFC123E7FFF
:1030A3007D827FFF123E7F7D7F7F01123E7F7DFF0A
:1030B3007F05123E7F7D7F8021123E7F7DFF7FFA59
:1030C300123E7F7D7F7FFC123E7F7D827FFF123E1B
:1030D3007F7DFF7F01123E7F7DFF7F05123E7F22B2
:10346900123F0C900038EFF07D827FFF123E7F7D86
:10347900FF7F07123E7F7D3F7F07123E7F90003816
:10348900E060467BFF7A0A7913121CEAE4FF1236E0
:10349900B17D017F02122FD37F647E007D007C0005
:1034A900123A01122920120FA8900046E064206008
:1034B9000C12232B122AD112259D0234E8123E3F09
:1034C9007BFF7A0A7941021CEA7BFF7A0A79831227
:0F34D9001CEAE4FD7F02122FD37F011236B122CD
:103BED007BFF7A0A79B4121CEA7D827FFF123E7F39
:103BFD007DFF7F9E123E7F7DF77F9E123E7F7DFF74
:103C0D007F04123E7F7DFE7F04123E7F120FA8902F
:103C1D000046E06420600C12232B122AD112259D40
:073C2D000234E8123E3F22C1
:1035D7007D867FFF123E7F7FD2123D63900003EF0F
:1035E700F07BFF7A0A79D8900013F0121CEA90005A
:1035F70003E030E1127BFF7A0A79F4121CEA7B01BF
:103607007A007948123237900003E030E0097BFFF7
:103617007A0B7900121CEA7D867FFF123E7F7D7F41
:103627007FFC123E7FE4FD7FFC123E7F7D827FFFA1
:10363700123E7F7DFF7F05123E7F7D7F7F05023E25
:013647007F03
:0B276200900074EBF0A3EAF0A3E9F094
:10276D00900074E0FBA3E0FAA3E0F9900015121FAE
:10277D00FDC43354E0FF900014121FFDC454F02F1C
:10278D00900077F0F4F05430F07D827FFF123E7FA1
:10279D00900074E0FBA3E0FAA3E0F990000412208E
:1027AD00DEFFAEF09000021220DE2FE5F03EFD7F41
:1027BD00A3123E7F900074E0FBA3E0FAA3E0F99032
:1027CD0000041220DEFFAEF09000021220DE2FFF7B
:1027DD00E5F03EAD077FA4123E7F900074E0FBA3B1
:1027ED00E0FAA3E0F990000E1220DEFFAEF09000AB
:1027FD000C1220DE2FFFE5F03EAD077FA5123E7FC8
:10280D00900074E0FBA3E0FAA3E0F990000612201B
:10281D00DEE5F0FD7FA6123E7F900074E0FBA3E0A5
:10282D00FAA3E0F99000061220DEFD7FA7123E7F8D
:10283D00900074E0FBA3E0FAA3E0F99000101220E1
:10284D00DEE5F0FD7FA8123E7F900074E0FBA3E073
:10285D00FAA3E0F99000101220DEFD7FA9123E7F51
:10286D00900074E0FBA3E0FAA3E0F99000081220B9
:10287D00DEE5F0FD7FAA123E7F900074E0FBA3E041
:10288D00FAA3E0F99000081220DEFD7FAB123E7F27
:10289D00900074E0FBA3E0FAA3E0F990001212207F
:1028AD00DEE5F0FD7FAC123E7F900074E0FBA3E00F
:1028BD00FAA3E0F99000121220DEFD7FAD123E7FEB
:1028CD00900074E0FBA3E0FAA3E0F990000212205F
:1028DD00DEE5F0FD7FAE123E7F900074E0FBA3E0DD
:1028ED00FAA3E0F99000021220DEFD7FAF123E7FC9
:1028FD00900074E0FBA3E0FAA3E0F990000C122025
:10290D00DEFD7FB0123E7F900077E04407FD7F47EC
:03291D00023E7FF8
:1030E3009000191222449000781222747BFF7A0B0D
:1030F3007913900078E0FCA3E0FDA3E0FEA3E0FFDA
:10310300900013122274121CEA7D837FFF123E7F0C
:103113007D507F2D123E7F7F287E887D047C00902A
:103123000078E0F8A3E0F9A3E0FAA3E0FBC31222DE
:1031330033700E7DB67F26123E7F7DF07F27123ED1
:103143007F7F147E447D027C00900078E0F8A3E04A
:10315300F9A3E0FAA3E0FBC312223370077DB77F24
:1031630026123E7F7F0A7E227D017C00900078E05C
:10317300F8A3E0F9A3E0FAA3E0FBC312223370073C
:103183007D9C7F26123E7F7D807FFF123E7F7D5A8E
:0C3193007F11123E7F7DFA7F11023E7F0B
:103F76007D827FFF123E7F7D807F4F123E7F7D20B8
:053F86007F50023E7FA8
:103C340090003A74FFF0A3740BF0A37477F0123B76
:103C44000412377A122920123F7612232B90003A5D
:103C5400E0FBA3E0FAA3E0F912276212259D1236D5
:103C640048123FD3123562123DFA1234E87F011232
:073C74003D33123F6180FEA9
:1032CA00123B0412377A12389712319F7FE87E0335
:1032DA007D007C00123A01120FA812232B122AD168
:1032EA00123562123E60123DFA12259D12364812BC
:1032FA003ED67F01123D33123F617D017F01122FBD
:10330A00D3E4FD7F02122FD3E4FD7F03122FD312E1
:10331A002E2B123FD412003A123FD37BFF7A0B793D
:10332A0029121CEA123469900092E0600B123C7B6D
:10333A00E4900092F0439B02900047E060E990001D
:0F334A004AE0B48503123E1DE4900047F080D89E
:03003B00023DB3D0
:103DB300C0E0C083C082C0D0E5ECB4080575EC0058
:103DC300C2899000927401F0539BFDD0D0D082D071
:043DD30083D0E03287
:103C7B007D827FFF123E7F7F0C123D63900001EF30
:103C8B00F07F0D123D63900002EFF07F0F123D634A
:103C9B00900000EFF0900002E030E7031235D79070
:103CAB000000E054C06003123469900001E030E082
:043CBB0003123BEDC8
:013CBF0022E2
:030000000233596F
:0C335900787FE4F6D8FD7581210233A0D6
:1039A80090007C122274538EF7438901D28CE4FF75
:1039B800FEFDFC90007CE0F8A3E0F9A3E0FAA3E0A8
:1039C800FBC3122233602F758A7E758CFF308DFD04
:1039D800C28D90007CE0FCA3E0FDA3E0FEA3E02400
:1039E800FFFFEE34FFFEED34FFFDEC34FFFC9000EA
:0939F8007C12227480B8C28C22FA
:103A0100900007122274538EF7438901D28CE4FF90
:103A1100FEFDFC900007E0F8A3E0F9A3E0FAA3E0C3
:103A2100FBC3122233602F758ACA758CFA308DFD63
:103A3100C28D900007E0FCA3E0FDA3E0FEA3E0241B
:103A4100FFFFEE34FFFEED34FFFDEC34FFFC900090
:093A51000712227480B8C28C2215
:103A5A00900080122274538EEF438910D28EE4FFB5
:103A6A00FEFDFC900080E0F8A3E0F9A3E0FAA3E0F1
:103A7A00FBC3122233602F758BEA758DCB308FFD15
:103A8A00C28F900080E0FCA3E0FDA3E0FEA3E02447
:103A9A00FFFFEE34FFFEED34FFFDEC34FFFC900037
:093AAA008012227480B8C28E2241
:10383B0090008412227453C9BF53C9DF43C910D2FD
:10384B00CAE4FFFEFDFC900084E0F8A3E0F9A3E0DE
:10385B00FAA3E0FBC3122233602F75CC3075CDF881
:10386B0030CFFDC2CF900084E0FCA3E0FDA3E0FECF
:10387B00A3E024FFFFEE34FFFEED34FFFDEC34FF3D
:0C388B00FC90008412227480B8C2CA2293
:1038F20090008812227475C40743C408E4FFFEFDD9
:10390200FC900088E0F8A3E0F9A3E0FAA3E0FBC38F
:10391200122233603275C52C75C6CFE5C430E4FB84
:1039220053C4EF900088E0FCA3E0FDA3E0FEA3E017
:1039320024FFFFEE34FFFEED34FFFDEC34FFFC907C
:0B394200008812227480B553C4F722E5
:10394D0090008C12227475C40743C408E4FFFEFD79
:10395D00FC90008CE0F8A3E0F9A3E0FAA3E0FBC330
:10396D00122233603275C5D875C6FFE5C430E4FB4D
:10397D0053C4EF90008CE0FCA3E0FDA3E0FEA3E0B8
:10398D0024FFFFEE34FFFEED34FFFDEC34FFFC9021
:0B399D00008C12227480B553C4F72286
:10336500023F8BE493A3F8E493A34003F68001F2B4
:1033750008DFF48029E493A3F85407240CC8C33369
:10338500C4540F4420C8834004F456800146F6DF38
:10339500E4800B0102040810204080903E9DE47EED
:1033A500019360BCA3FF543F30E509541FFEE4932D
:1033B500A360010ECF54C025E060A840B8E493A3F4
:1033C500FAE493A3F8E493A3C8C582C8CAC583CA1F
:1033D500F0A3C8C582C8CAC583CADFE9DEE780BED7
:013EB9000008
:101FE400BB010689828A83E0225002E722BBFE02FB
:091FF400E32289828A83E493222E
:101FFD00BB010CE58229F582E5833AF583E0225099
:10200D0006E92582F8E622BBFE06E92582F8E222E2
:0D201D00E58229F582E5833AF583E49322FC
:10202A00BB010689828A83F0225002F722BBFE0195
:02203A00F3228F
:10203C00F8BB010DE58229F582E5833AF583E8F0DA
:10204C00225006E92582C8F622BBFE05E92582C886
:02205C00F2226E
:10205E00BC000BBE0029EF8DF084FFADF022E4CC66
:10206E00F875F008EF2FFFEE33FEEC33FCEE9DEC2F
:10207E00984005FCEE9DFE0FD5F0E9E4CEFD22ED75
:10208E00F8F5F0EE8420D21CFEADF075F008EF2FBF
:10209E00FFED33FD4007985006D5F0F222C398FDB0
:0520AE000FD5F0EA224D
:1020B300BB010A89828A83E0F5F0A3E022500687F8
:1020C300F009E71922BBFE07E3F5F009E3192289BA
:0B20D300828A83E493F5F074019322ED
:1020DE00BB0110E58229F582E5833AF583E0F5F040
:1020EE00A3E0225009E92582F886F008E622BBFE1D
:1020FE000AE92582F8E2F5F008E222E5832AF58363
:08210E00E993F5F0A3E9932227
:10211600E88FF0A4CC8BF0A42CFCE98EF0A42CFC68
:102126008AF0EDA42CFCEA8EF0A4CDA8F08BF0A4E6
:102136002DCC3825F0FDE98FF0A42CCD35F0FCEB45
:102146008EF0A4FEA9F0EB8FF0A4CFC5F02ECD390A
:0F215600FEE43CFCEAA42DCE35F0FDE43CFC2277
:1021650075F008758200EF2FFFEE33FECD33CDCC31
:1021750033CCC58233C5829BED9AEC99E5829840B4
:102185000CF582EE9BFEED9AFDEC99FC0FD5F0D691
:10219500E4CEFBE4CDFAE4CCF9A88222B800C1B9BB
:1021A5000059BA002DEC8BF084CFCECDFCE5F0CBF9
:1021B500F97818EF2FFFEE33FEED33FDEC33FCEB32
:1021C50033FB10D703994004EB99FB0FD8E5E4F9ED
:1021D500FA227818EF2FFFEE33FEED33FDEC33FCDA
:1021E500C933C910D7059BE99A4007EC9BFCE99ACE
:1021F500F90FD8E0E4C9FAE4CCFB2275F010EF2F13
:10220500FFEE33FEED33FDCC33CCC833C810D70712
:102215009BEC9AE899400AED9BFDEC9AFCE899F84D
:0E2225000FD5F0DAE4CDFBE4CCFAE4C8F922E0
:10223300EB9FF5F0EA9E42F0E99D42F0E89C45F001
:012243002278
:10224400BB010DE58229F582E5833AF5830222BDBF
:102254005007E92582F80222B1BBFE07E92582F87E
:102264000222C9E58229F582E5833AF5830222D563
:0C227400ECF0A3EDF0A3EEF0A3EFF022DD
:10228000A8828583F0D083D08212229712229712DF
:102290002297122297E473E493A3C583C5F0C58304
:1022A000C8C582C8F0A3C583C5F0C583C8C582C8A8
:0122B000220B
:101C7F00E5082413F582E43400F583E0050822908B
:101C8F000010300703900013E475F0011222E502F3
:101C9F001FE42000E97F2ED2008018EF540F24900C
:101CAF00D43440D4FF30040BEF24BFB41A005003D8
:101CBF002461FFE50960021509050CE50C700205AA
:101CCF000B30070E900010E475F0011222E5EF02C1
:101CDF00202A023D8C7403D2078003E4C207F50863
:101CEF009000101222FCE4F509F50BF50CE50960E4
:101CFF00077F20121CC280F5750AFFC201C200C205
:101D0F0002C203C205C206C208121C8EFF700D303C
:101D1F0007057F00121CD3AF0CAE0B22B4255FC298
:101D2F00D5C204121C8EFF24D0B40A00501A75F0CD
:101D3F000A780930D50508B6FF0106C6A426F62095
:101D4F00D5047002D20380D924CFB41A00EF500407
:101D5F00C2E5D204021ED4D20180C6D20080C0D206
:101D6F000280BCD2D580BAD20580B47F20121CC2AB
:101D7F002002077401B5090040F1121C7FFF121CED
:101D8F00C2021CFCD208D2068095121C7FFB121CCB
:101D9F007FFA121C7FF94A4B700679A57A1F7BFFD9
:101DAF0020022EE509602A7E008E82758300121FA5
:101DBF00FD60060EEE650A70F0C2D5EBC0E0EAC01A
:101DCF00E0E9C0E0EE121F1BD0E0F9D0E0FAD0E05E
:101DDF00FB121FE4FF60AAEBC0E0EAC0E0E9C0E03D
:101DEF00121CC2D0E02401F9D0E03400FAD0E0FB9D
:101DFF00E50A0460DCD50AD980877BFF7A1F791743
:101E0F00D202809C791080027908C206C20880082D
:101E1F00D2D5790A8004790AC2D5E50A047002F591
:101E2F000AE4FAFDFEFF121C7FFC7B08200113124F
:101E3F001C7FFD7B1030000A121C7FFE121C7FFFDF
:101E4F007B20EC3382D592D55013C3E43000069F2C
:101E5F00FFE49EFEE42001039DFDE49CFCE4CBF82F
:101E6F00C201EC700CCFCECDCCE824F8F870F38023
:101E7F0017C3EF33FFEE33FEED33FDEC33FCEB33E3
:101E8F00FB994002FB0FD8E9EB300105F8D0E0C415
:101E9F0048B201C0E00AEC4D4E4F78207B0070C273
:101EAF00EAB50A0040BCC0E0121F1DD0F0D0E02000
:101EBF000104C4C0E0C4B201C0F0121CABD0F0D515
:101ECF00F0EB021CFC1223051D99531E13581D6ABB
:101EDF004C1D66421E174F1E1F441E1F491D7F4378
:081EEF001E25551E09461E09BF
:101EF700451E09471FC5501D6E2D1D722E1D952BA2
:101F07001D76231D93201FAE2A1D2E4800001D8D10
:101F17003F3F3F00790AA2D5200314300509B910C5
:101F2700020404B9080104A2D520060250010420C6
:101F370002689202B509005034C0E07F20300319CF
:101F47007F30A20272067205500F121F74C202C2BE
:101F570006C205C2087F30800F300503E9C0E012D2
:101F67001CC2300503D0E0F9D0E0B509CC30051725
:101F77007F30B9100C121CC27F583004077F78805D
:101F870003B90803121CC23002057F2D021CC27F51
:101F9700202008F87F2B2006F322920280CF286E9C
:101FA700756C6C2900D201121C7F3001F8C20178D0
:101FB7000930D50108F6021D2E2D50434958121C31
:101FC7007F2403B405004001E4901FC093121CB3A3
:0D1FD700743A121CB3D203750904021E13E4
:0C22B100E6FC08E6FD08E6FE08E6FF2259
:0C22BD00E0FCA3E0FDA3E0FEA3E0FF2294
:0C22C900E2FC08E2FD08E2FE08E2FF2251
:1022D500E493FC740193FD740293FE740393FF224F
:1022E500F8E0FBA3A3E0F925F0F0E5821582700282
:0722F5001583E0FA38F02226
:0922FC00EBF0A3EAF0A3E9F022E3
:10230500D083D082F8E4937012740193700DA3A367
:1023150093F8740193F5828883E47374029368607B
:06232500EFA3A3A380DF7B
:103D8C00EFB40A07740D123D97740A309811A89974
:103D9C00B8130CC2983098FDA899C298B811F63097
:073DAC0099FDC299F599226F
:00000001FF
