:0341C30030780051
:103F420053B1BF53B2BF53B17F53B27F7598504341
:103F52008920438780438E1053C4DFAB07AA06A98A
:103F620005A8047F407E427D0F7C00121DD2EF0423
:093F7200F404F58DD28ED29922DF
:0841BB00C2998F993099FD2291
:030037000241BBC8
:103E6000AB07AA067C007D0A121C82C3EF940AEEFF
:103E7000648094805005EF2430800E7C007D0AAF72
:103E800003AE02121C82EF2457FF1200377C007D24
:103E90000AAF03AE02121C82C3ED940AEC64809454
:0F3EA00080ED5004243080022457FF1200372297
:1037340090004AEEF0A3EFF07BFF7A4179C31224A4
:10374400AB7F027E007D007C00123CB490004AE016
:10375400FEA3E0FF7C007D10121C82C3EF940AEEEE
:10376400648094805005EF2430801290004AE0FE7B
:10377400A3E0FF7C007D10121C82EF2457FF12008F
:103784003790004AE0FEA3E0FF7C007D10121C820B
:10379400C3ED940AEC64809480ED500424308002DC
:0737A4002457FF1200372239
:061F5C0090000F121EA50B
:101F6200E4900013F0A3121EB10000000090000FD5
:101F7200E0FCA3E0FDA3E0FEA3E0FF900014121E2C
:101F8200A57F201200377F7F7E967D987C0090008F
:101F920014E0F8A3E0F9A3E0FAA3E0FBD3121E6475
:101FA200407A7B807A9679987800900014E0FCA3BE
:101FB200E0FDA3E0FEA3E0FF121DD2E47B0AFAF9E2
:101FC200F8D3121E647B807A967998780090001478
:101FD200E0FCA3E0FDA3E0FEA3E0FF4008121DD257
:101FE200EF24308006121DD2EF2457FF12003790E3
:101FF2000014E0FCA3E0FDA3E0FEA3E0FF7B807AF7
:102002009679987800121DD2AC00AD01AE02AF03F2
:10201200900014121EA59000137401F07F3F7E42BF
:102022007D0F7C00900014E0F8A3E0F9A3E0FAA38E
:10203200E0FBD3121E64407C7B407A42790F780029
:10204200900014E0FCA3E0FDA3E0FEA3E0FF121D5C
:10205200D2E47B0AFAF9F8D3121E647B407A427901
:102062000F7800900014E0FCA3E0FDA3E0FEA3E0E3
:10207200FF4008121DD2EF24308006121DD2EF2439
:1020820057FF120037900014E0FCA3E0FDA3E0FE2E
:10209200A3E0FF7B407A42790F7800121DD2AC0098
:1020A200AD01AE02AF03900014121EA5900013748E
:1020B20001F0800B900013E060057F301200377F43
:1020C2009F7E867D017C00900014E0F8A3E0F9A3D6
:1020D200E0FAA3E0FBD3121E64500302216D7BA041
:1020E2007A8679017800900014E0FCA3E0FDA3E079
:1020F200FEA3E0FF121DD2E47B0AFAF9F8D3121E06
:10210200647BA07A864019097800900014E0FCA351
:10211200E0FDA3E0FEA3E0FF121DD2EF2430801801
:1021220079017800900014E0FCA3E0FDA3E0FEA397
:10213200E0FF121DD2EF2457FF120037900014E087
:10214200FCA3E0FDA3E0FEA3E0FF7BA07A86790179
:102152007800121DD2AC00AD01AE02AF03900014A4
:10216200121EA59000137401F0800B900013E06022
:10217200057F30120037E47F0F7E27FDFC900014AC
:10218200E0F8A3E0F9A3E0FAA3E0FBD3121E645047
:102192000302221EE47B107A27F9F8900014E0FC77
:1021A200A3E0FDA3E0FEA3E0FF121DD2E47B0AFA46
:1021B200F9F8D3121E64E47B107A274017F89000D6
:1021C20014E0FCA3E0FDA3E0FEA3E0FF121DD2EFAA
:1021D20024308016F9F8900014E0FCA3E0FDA3E09F
:1021E200FEA3E0FF121DD2EF2457FF12003790002A
:1021F20014E0FCA3E0FDA3E0FEA3E0FFE47B107A81
:1022020027F9F8121DD2AC00AD01AE02AF03900067
:1022120014121EA59000137401F0800B900013E0BD
:1022220060057F30120037E47FE77E03FDFC9000FB
:1022320014E0F8A3E0F9A3E0FAA3E0FBD3121E64D2
:1022420050030222CFE47BE87A03F9F8900014E00D
:10225200FCA3E0FDA3E0FEA3E0FF121DD2E47B0A93
:10226200FAF9F8D3121E64E47BE87A034017F89077
:102272000014E0FCA3E0FDA3E0FEA3E0FF121DD2E8
:10228200EF24308016F9F8900014E0FCA3E0FDA3DF
:10229200E0FEA3E0FF121DD2EF2457FF1200379099
:1022A2000014E0FCA3E0FDA3E0FEA3E0FFE47BE872
:1022B2007A03F9F8121DD2AC00AD01AE02AF039061
:1022C2000014121EA59000137401F0800B900013ED
:1022D200E060057F30120037E47F63FEFDFC900072
:1022E20014E0F8A3E0F9A3E0FAA3E0FBD3121E6422
:1022F200500302237CE47B64FAF9F8900014E0FCBA
:10230200A3E0FDA3E0FEA3E0FF121DD2E47B0AFAE4
:10231200F9F8D3121E64E47B644017F8900014E0CD
:10232200FCA3E0FDA3E0FEA3E0FF121DD2EF2430E8
:102332008017FAF9F8900014E0FCA3E0FDA3E0FE98
:10234200A3E0FF121DD2EF2457FF120037900014B2
:10235200E0FCA3E0FDA3E0FEA3E0FFE47B64FAF966
:10236200F8121DD2AC00AD01AE02AF039000141200
:102372001EA59000137401F0800B900013E060051D
:102382007F30120037E47B0AFAF9F8900014E0FC7F
:10239200A3E0FDA3E0FEA3E0FF121DD2E47B0AFA54
:1023A200F9F8D3121E64E44017F8900014E0FCA37D
:1023B200E0FDA3E0FEA3E0FF121DD2EF243080195E
:1023C2007B0AFAF9F8900014E0FCA3E0FDA3E0FE1A
:1023D200A3E0FF121DD2EF2457FF120037E47B0A5D
:1023E200FAF9F8900014E0FCA3E0FDA3E0FEA3E0FC
:1023F200FF121DD2AC00AD01AE02AF03E47B0AFABC
:10240200F9F8D3121E64E44017F8900014E0FCA31C
:10241200E0FDA3E0FEA3E0FF121DD2EB2430801901
:102422007B0AFAF9F8900014E0FCA3E0FDA3E0FEB9
:0D243200A3E0FF121DD2EB2457FF1200376C
:01243F00227A
:0B2FFA0090000FEBF0A3EAF0A3E9F059
:1030050090003A121EB100000000E490003EF0A3CB
:10301500F0F9A3C9F0A3F0A3E9F0E4A3F0F9A3C97B
:10302500F0A3F0A3E9F0A37401F0A37400F0A37476
:1030350012F090000FE0F9A3E0FAA3E0900044C974
:10304500F0A3EAF0A3E9F0900044E0FBA3E0FAA3C3
:10305500E0F9121BD5700302312B642560030231A0
:1030650011900044A3E475F001121CB8A9F0FA12FE
:103075001BD524DB70030230FF24E1602B24EC60B8
:103085005024F4602324EC604824157072900047A6
:10309500E0FBA3E475F002121CCEA9F0FA121CE4C1
:1030A500900043F0E0FF8054900047E0FBA3E475F7
:1030B500F001121CCEA9F0FA121BD5FF90003EE4D8
:1030C500F0A3EFF090003EA3E0FF7E00123E60808B
:1030D5002E900047E0FBA3E475F001121CCEA9F089
:1030E500FA121BD5FF90003EE4F0A3EFF090003EEE
:1030F500E0FEA3E0FF12373480057F2512003790EC
:103105000045E475F001121CB802304C900044E013
:10311500FBA3E475F001121CCEA9F0FA121BD5FF32
:0631250012003702304CDD
:01312B002281
:103DBD000D0A2323232323232323232323232323F5
:103DCD002323232323232323232323236D637520DD
:103DDD007374617274232323232323232323232327
:103DED002323232323232323232323232323232396
:103DFD00232323000D0A697271207461736B2E2EBB
:023E0D002E0085
:044124004100B000A6
:103EAF0043B30153B4FE43B30253B4FD43B30453BE
:103EBF00B4FB43B10853B2F743B11053B2EF53AC55
:103ECF00FE43AD0143B30843B40843B31043B410EA
:103EDF007F007EC27D017C00123F4253E9FB43E924
:0D3EEF002043EA0853EBF7439B02D2AF22B9
:10410A00C2B07FC87E007D007C00123CB4D2B07F72
:0A411A00C87E007D007C00023CB46A
:103FAC00123EAF7BFF7A3D79BD122FFA12410A12F5
:103FBC0038929000B0E060FA7BFF7A3E7901122FC4
:0E3FCC00FA12335FE49000B0F0439B0280E4F1
:044128004100AE762E
:07418F00124196D2937F0A52
:0A419600E4FEEEC39F50030E80F814
:0141A00022FC
:10413B00D2947F0112418FC2947F07124196C29392
:05414B007F0102419616
:0C41AF00C2947F0212418FD2940241960C
:023E0F00AD07FD
:103E1100E4FCEDA804088002C333D8FC30E704D2E7
:103E2100948002C2947F03124196D2930F1241965D
:103E3100C2930CECB408DB7F01124196D2947F034C
:103E4100124196D293124196309407E49000AFF05C
:0F3E510080069000AF7401F0C2937F0302419688
:10000300E4FDD294FC7F01124196C2937F04124116
:1000130096D2937F02124196ED25E0FD3094010DB7
:100023007F021241960CECB408DBC2937F051241A8
:0300330096AF0580
:0100360022A7
:1040EE00EF7004C2948002D2947F08124196D2934C
:0C40FE007F0F124196C2937F080241968A
:073A3300900011EDF0AC075B
:103A3A0012413BAF04123E0F9000AFE07002802D9E
:103A4A00900011E0FF123E0F9000AFE07002801D5F
:103A5A00E4900016F0900015E0FFA3E0C39F502207
:103A6A00121BD5FF123E0F9000AFE070061241AF55
:103A7A007F0022740129F9E43AFA900016E004F072
:073A8A0080D31241AF7F0160
:013A91002212
:0836B000900010EFF0A3EDF013
:1036B80012413B900010E0FF123E0F9000AFE07007
:1036C800028022900011E0FF123E0F9000AFE070E0
:1036D80002801212413B900010E004FF123E0F904E
:1036E80000AFE070091241AFE4121C1BFF22E49006
:1036F8000016F0900015E014FFA3E0C39F501B12C2
:103708000003EF121C1BE4FF1240EE740129F9E4D8
:103718003AFA900016E004F080D9120003EF121C68
:0B3728001B7F011240EE1241AF7F0139
:013733002273
:023FDA00AE0730
:103FDC00E490000FF09000AEE0FFAD067B017A009C
:103FEC00790F9000157401F01236B0EF6006900056
:063FFC000FE0FF227F0030
:01400200229B
:02415000AE07B8
:104152009000AEE0FFAD0690008DE0900015F012E9
:0241620036B075
:014164002238
:0740B30090000FEDF0AE07D5
:1040BA009000AEE0FFAD067B017A00790F90001503
:0640CA007401F0123A330C
:0140D00022CD
:02416500AE07A3
:104167009000AEE0FFAD06900092E0900015F012CF
:024177003A33D9
:014179002223
:10003E000D0A4C54393631312072696E672043688F
:10004E006970204944203D20257820002025780025
:10005E000D0A4C54393631315F4D4950495F496E66
:10006E007075745F44696774613A206C7439363107
:10007E003120736574206D697069206C616E6573D3
:10008E00203D202564000D0A4C54393631315F4D28
:10009E004950495F496E7075745F44696774613A7F
:1000AE00206C743936313120736574206D69706936
:1000BE0020706F727473203D2031000D0A4C54393C
:1000CE003631315F4D4950495F496E7075745F44EA
:1000DE00696774613A206C743936313120736574F6
:1000EE00206D69706920706F7274203D2032000D92
:1000FE000A4C54393631312E6D6970695F6D6F64FB
:10010E0065203D20637369000D0A4C543936313138
:10011E002E6D6970695F6D6F6465203D2064736933
:10012E00000D0A766964656F20636865636B3A201B
:10013E004C54393631312E6D6970695F6D6F64655F
:10014E00203D20637369000D0A766964656F206334
:10015E006865636B3A204C54393631312E6D6970B7
:10016E00695F6D6F6465203D20647369000D0A4CF4
:10017E0054393631315F566964656F5F4368656324
:10018E006B3A20685F6163745F612C20685F616306
:10019E00745F622C20765F6163742C20765F7461CD
:1001AE006C3A20000D0A4C54393631315F56696471
:1001BE00656F5F436865636B3A206D6970695F7642
:1001CE006964656F5F666F726D61743A20257800A1
:1001DE000D0A566964656F5F436865636B203D2049
:1001EE00766964656F5F363430783438305F363018
:1001FE00487A20000D0A566964656F5F436865632F
:10020E006B203D20766964656F5F37323078343805
:10021E00305F3630487A20000D0A566964656F5F8C
:10022E00436865636B203D20766964656F5F373286
:10023E0030783537365F3530487A20000D0A5669EA
:10024E0064656F5F436865636B203D207669646506
:10025E006F5F31323830783732305F3630487A203F
:10026E00000D0A566964656F5F436865636B203DD8
:10027E0020766964656F5F31323830783732305F9F
:10028E003530487A20000D0A566964656F5F436801
:10029E0065636B203D20766964656F5F313238305F
:1002AE00783732305F3330487A20000D0A56696451
:1002BE00656F5F436865636B203D20766964656F8B
:1002CE005F3139323078313038305F3630487A200D
:1002DE00000D0A566964656F5F436865636B203D68
:1002EE0020766964656F5F3139323078313038305D
:1002FE005F3530487A20000D0A566964656F5F439A
:10030E006865636B203D20766964656F5F313932B5
:10031E003078313038305F3330487A20000D0A564D
:10032E006964656F5F436865636B203D2076696421
:10033E00656F5F3139323078313038305F32354861
:10034E007A20000D0A566964656F5F436865636BBA
:10035E00203D20766964656F5F31393230783130F7
:10036E0038305F3234487A20000D0A566964656F62
:10037E005F436865636B203D20766964656F5F330C
:10038E0038343078323136305F3330487A20000DD1
:10039E000A566964656F5F436865636B203D20761E
:1003AE006964656F5F3338343078323136305F329E
:1003BE0035487A20000D0A566964656F5F4368659B
:1003CE00636B203D20766964656F5F333834307817
:1003DE00323136305F3234487A20000D0A56696465
:1003EE00656F5F436865636B203D20766964656F5A
:1003FE005F383030783630305F3630487A20000D36
:10040E000A566964656F5F436865636B203D2076AD
:10041E006964656F5F31303234783736385F363025
:10042E00487A20000D0A566964656F5F43686563FC
:10043E006B203D20766964656F5F313238307837D6
:10044E0036385F3630487A20000D0A566964656F7B
:10045E005F436865636B203D20766964656F5F312D
:10046E0032383078313032345F3630487A20000DF1
:10047E000A566964656F5F436865636B203D20763D
:10048E006964656F5F3136303078313230305F36C7
:10049E0030487A20000D0A566964656F5F436865BF
:1004AE00636B203D20766964656F5F313638307836
:1004BE00313035305F3630487A20000D0A56696487
:1004CE00656F5F436865636B203D20766964656F79
:1004DE005F31333636783736385F3630487A20001B
:1004EE000D0A566964656F5F436865636B203D2036
:1004FE00766964656F5F37323078313038305F3609
:10050E0030487A20000D0A566964656F5F4368654E
:10051E00636B203D20766964656F5F3130383078CB
:10052E00313932305F3630487A20000D0A56696410
:10053E00656F5F436865636B203D20766964656F08
:10054E005F3338343078313038305F3630487A2087
:10055E00000D0A566964656F5F436865636B203DE5
:10056E0020766964656F5F31303234783630305FB3
:10057E003630487A20000D0A566964656F5F43680D
:10058E0065636B203D20766964656F5F313238306C
:10059E00783830305F3630487A20000D0A5669645C
:1005AE00656F5F436865636B203D20766964656F98
:1005BE005F353430783936305F3630487A20000D6A
:1005CE000A566964656F5F436865636B203D2076EC
:1005DE006964656F5F3235363078313630305F366C
:1005EE0030487A20000D0A566964656F5F4368656E
:1005FE00636B203D20766964656F5F3235363078E7
:10060E00313434305F3630487A20000D0A56696432
:10061E00656F5F436865636B203D20766964656F27
:10062E005F3235363078313038305F3630487A20A8
:10063E00000D0A566964656F5F436865636B203D04
:10064E0020756E6B6E6F776E20766964656F2066AF
:10065E006F726D617420000D0A20504F4C203D20AA
:10066E0025782C202578000D0A4C54393631315F0F
:10067E00504C4C3A2073657420727820706C6C204C
:10068E003D20000D0A4C54393631315F504C4C3AF6
:10069E00207063725F6D203D2025782C2068646D7C
:1006AE00695F706F73745F646976203D2025640006
:1006BE000D0A4C54393631315F504C4C3A20484477
:1006CE004D4920706C6C206C6F636B6564000D0A75
:1006DE004C54393631315F504C4C3A2048444D49D8
:1006EE0020706C6C20756E6C6F636B65642C207261
:1006FE006573657420706C6C000D0A4C543936317C
:10070E00315F4353433A2059706270722034323253
:10071E0020746F20524742383838000D0A417564F4
:10072E00696F20696E7574203D2049325320326303
:10073E0068000D0A417564696F20696E7574203DFD
:10074E00205350444946000D0A706F7274204120A8
:10075E006279746520636C6B203D20000D0A706F0A
:10076E0072742041206279746520636C6B20756E03
:10077E00737461626C65000D0A706F727420422092
:10078E006279746520636C6B203D20000D0A706FDA
:10079E0072742042206279746520636C6B20756ED2
:1007AE00737461626C65000D0A48746F74616C5FDE
:1007BE00537973636C6B203D20000D0A706F727459
:1007CE002041206C616E6520504E20697320726945
:1007DE00676874000D0A706F72742041206C616E30
:1007EE006520504E206572726F72203078383362F9
:1007FE0063203D202578000D0A706F727420412011
:10080E006C616E65203020736F7420726967687436
:10081E0020000D0A706F72742041206C616E65208D
:10082E003020736F74206572726F72203D202578B0
:10083E00000D0A706F72742041206C616E6520315C
:10084E0020736F7420726967687420000D0A706FD0
:10085E0072742041206C616E65203120736F74209C
:10086E006572726F72203D202578000D0A706F72CE
:10087E00742041206C616E65203220736F7420727B
:10088E006967687420000D0A706F72742041206CC5
:10089E00616E65203220736F74206572726F7220E4
:1008AE003D202578000D0A706F72742041206C6116
:1008BE006E65203320736F74207269676874200030
:1008CE000D0A706F72742041206C616E65203320AA
:1008DE00736F74206572726F72203D202578000D43
:1008EE000A706F72742041206C616E652030207327
:1008FE006574746C65203D202578000D0A706F724A
:10090E00742041206C616E65203120736574746CA7
:10091E0065203D202578000D0A706F7274204120ED
:10092E006C616E65203220736574746C65203D2099
:10093E002578000D0A706F72742041206C616E650F
:10094E00203320736574746C65203D202578000D6E
:10095E000A456E74657220495251205461736B3A88
:10096E000048444D4920646973636F6E6E6563740D
:10097E0065640048444D4920636F6E6E656374650F
:10098E0064006D69706920766964656F20636861C3
:10099E006E6765643A20000D0A736574207069787D
:1009AE00656C20636C6B203D20000D0A23232323EE
:1009BE0023232323232323234C5439363131204937
:1009CE006E697469616C20456E642323232323238F
:1009DE00232323232323232323232323000D0A440A
:1009EE006574656374206870642048696768000DDB
:1009FE000A44657465637420687064204C6F7700D8
:100A0E000008006000280280032000210002000A76
:100A1E0001E0020D0000000101000061A8001000BD
:100A2E003E003C02D0035A00090006001E01E002FF
:100A3E000D000000020100006978000C0040005813
:100A4E0002D003600005000500270240027100007D
:100A5E0000110100006978006E002800DC05000618
:100A6E007200050005001402D002EE01010004021E
:100A7E000001220A01B8002800DC050007BC0005B1
:100A8E000005001402D002EE010100130200012243
:100A9E000A0058002C0094078008980004000500F6
:100AAE0024043804650101001002000244140210EF
:100ABE00002C009407800A5000040005002404381E
:100ACE0004650101001F02000244140058002C00AE
:100ADE00940780089800040005002404380465017A
:100AEE00010022020001220A0210002C009407804D
:100AFE000A50000400050024043804650101002199
:100B0E00020001220A027E002C009407800ABE0019
:100B1E0004000500240438046501010020020001D0
:100B2E00220A00B0005801280F0011300008000AF8
:100B3E000048087008CA0101005F020004882804FA
:100B4E0020005801280F0014A00008000A004808D1
:100B5E007008CA0101005E020004882804FC0058D7
:100B6E0001280F00157C0008000A0048087008CA0A
:100B7E000101005D02000488280030008000580347
:100B8E002004200001000400170258027401010025
:100B9E00000000009C400018008800A004000540E2
:100BAE0000030006001D03000326000000000000E5
:100BBE0000FDE80040008000C00500068000030034
:100BCE000700140300031E00010000000001368C14
:100BDE000030007000F805000698000100030026A2
:100BEE000400042A01010000000001A5E0004000FD
:100BFE00C001300640087000010003002E04B0044E
:100C0E00E20101000000000278D0006800B0011877
:100C1E00069008C000030006001E041A04410001DD
:100C2E0000000000023B4A06E0002800DC05000C34
:100C3E00E400050005001402D002EE0101000000E0
:100C4E000001220A003C003C006404000482000201
:100C5E000005000A0258026901010000000000842C
:100C6E00D00028002C00280320039C000A0004005A
:100C7E000C0500051A010100000000010C8E000E8B
:100C8E0000380040055605DC00010003001C03007F
:100C9E00032001010000000001211000300020009F
:100CAE00500A000AA00003000600250640066E0149
:100CBE0001000000000418D40030002000500A008B
:100CCE000AA000030005002105A005C901010000CE
:100CDE00000003AF5C00F8002C00940A000AA0008C
:100CEE00040005000B0438044C0101000000000351
:100CFE00057000B0005801280F00113000040005E7
:100D0E000024043804650101000000000488280056
:100D1E000400050024043804650058002C009407D4
:100D2E00800898010100000000024414000500052F
:100D3E00001402D002EE006E002800DC05000672E0
:100D4E0001010000000001220A001E000A001E021E
:100D5E001C0262000A000A000A03C003DE01010041
:060D6E000000000082DC21
:0E412C004700810100010000000141007C00FD
:103A92007D807FFF1240B37D017FEE1240B3E4FFD1
:103AA200123FDA900012EFF07BFF7A00793E122F7C
:103AB200FA7F01123FDA900012EFF07BFF7A007971
:103AC2005A122FFA7F02123FDA900012EFF07BFFB8
:103AD2007A00795A122FFA7D817FFF1240B37D1846
:0C3AE2007F011240B37D807FFF0240B3E3
:10404E007D817FFF1240B37D487F021240B37D8099
:10405E007F231240B3E4FD7F301240B3E4FD7F01B5
:03406E000240B35A
:10396F007D827FFF1240B37D117F511240B37D8264
:10397F007FFF1240B37D697F1B1240B37D787F1CA0
:10398F001240B37D697FCB1240B37D787FCC12405C
:10399F00B37D807FFF1240B37DF07F041240B37D73
:1039AF00F07F061240B37D807F0A1240B37D467FC1
:1039BF000B1240B37DEF7F0D1240B37DFA7F1102E2
:0239CF0040B303
:103B4A007D817FFF1240B37D207F061240B37D3F07
:103B5A007F071240B37D3F7F081240B37DFE7F0A84
:103B6A001240B37DBF7F0B1240B37D207F111240FC
:103B7A00B37D3F7F121240B37D3F7F131240B37D66
:103B8A00FE7F151240B37DBF7F161240B37D037FBF
:0B3B9A001C1240B37D037F200240B3EB
:10350200900082E0900000F07BFF7A00795E9000EC
:1035120012F0122FFA7D827FFF1240B37D807F4F1F
:103522001240B37D107F501240B37D837FFF124063
:10353200B3900000E0FDE4FF1240B37D047F02126D
:1035420040B37D047F061240B330900FE4FD7F0A42
:103552001240B37BFF7A007994800D7D037F0A12BB
:1035620040B37BFF7A0079C9122FFA900083E07B87
:10357200FFB4011C7A0079FD122FFA7D837FFF12BE
:1035820040B37D107F081240B37D407F2C0240B3D0
:073592007A017916122FFAED
:01359900220F
:100D7400E4900002F07D827FFF1240B37F86123F31
:100D8400DA90000DE4F0A3EFF07F87123FDAEFFD75
:100D94007C0090000EE0FEE42DFFEC3E90000DF090
:100DA400A3EFF07F82123FDA900009E4F0A3EFF0A2
:100DB4007F83123FDAEFFD7C0090000AE0FEE42D11
:100DC400FFEC3E900009F0A3EFF07F6C123FDA9045
:100DD400000BE4F0A3EFF07F6D123FDAEFFD7C002F
:100DE40090000CE0FEE42DFFEC3E90000BF0A3EF2E
:100DF400F07D837FFF1240B37F82123FDA900005BB
:100E0400E4F0A3EFF07F83123FDAEFFD7C00900063
:100E140006E0FEE42DFFEC3E900005F0A3EFF07F2A
:100E240086123FDA900007E4F0A3EFF07F87123FC9
:100E3400DAEFFD7C00900008E0FEE42DFFEC3E902C
:100E44000007F0A3EFF0900083E07BFFB4011D7A6C
:100E540001792F122FFA900005E0C313F0A3E013D9
:100E6400F0A3E0C313F0A3E013F080337A017955C3
:100E7400122FFA900005E0FEA3E0FF7C007D031230
:100E84001C2D900005EEF0A3EFF0A3E0FEA3E0FF1D
:100E94007C007D03121C2D900007EEF0A3EFF07F81
:100EA40088123FDA900002EFF07BFF7A01797B121F
:100EB4002FFA900005E0FEA3E0FFE4FCFD121F5CA6
:100EC400900007E0FEA3E0FFE4FCFD121F5C90002D
:100ED40009E0FEA3E0FFE4FCFD121F5C90000BE0C0
:100EE400FEA3E0FFE4FCFD121F5C7BFF7A0179B2F4
:100EF400900002E0900012F0122FFA209018900057
:100F040007E0FEA3E0FF900006E02FFF900005E05D
:100F14003E900003800B900005E0FFA3E0900003E7
:100F2400CFF0A3EFF0900A14E493FE740193FF90C2
:100F34000003E0B50638A3E0B50733900A1EE49336
:100F4400FE740193FF900009E0B50622A3E0B50703
:100F54001D7BFF7A0179DE122FFAE4900088F0906D
:100F6400007E74FFF0A3740AF0A3740EF022900ABA
:100F740031E493FE740193FF900003E0B50639A3B6
:100F8400E0B50734900A3BE493FE740193FF9000AC
:100F940009E0B50623A3E0B5071E7BFF7A027902B8
:100FA400122FFA9000887401F090007E74FFF0A371
:100FB400740AF0A3742BF022900A4EE493FE740199
:100FC40093FF900003E0B50633A3E0B5072E900A23
:100FD40058E493FE740193FF900009E0B5061DA345
:100FE400E0B507187BFF7A027926122FFA90007E6B
:100FF40074FFF0A3740AF0A37448F022900A6BE41F
:1010040093FE740193FF900003E06E7003A3E06FFE
:1010140060030210BB900A7593FE740193FF900065
:1010240009E06E7003A3E06F60030210BBC390007D
:101034000EE0947690000DE09402501E7BFF7A023D
:10104400794A122FFA9000887402F090007E74FF9F
:10105400F0A3740AF0A37465F022C390000EE09428
:10106400EE90000DE09402501E7BFF7A02796F121D
:101074002FFA900088740AF090007E74FFF0A37435
:101084000AF0A37482F022C390000EE094CE900084
:101094000DE09404400302173A7BFF7A027994121C
:1010A4002FFA900088740BF090007E74FFF0A37404
:1010B4000CF0A37435F022900AA5E493FE74019316
:1010C400FF900003E06E7003A3E06F60030211D091
:1010D400900AAF93FE740193FF900009E06E7003D1
:1010E400A3E06F60030211D0C390000EE094AE90B1
:1010F400000DE09401501E7BFF7A0279B9122FFA99
:101104009000887403F090007E74FFF0A3740AF0DA
:10111400A3749FF022C390000EE094FE90000DE0B3
:101124009401501E7BFF7A0279DF122FFA90008817
:101134007419F090007E74FFF0A3740AF0A374BCD9
:10114400F022C390000EE0943E90000DE094035012
:101154001E7BFF7A037905122FFA900088741AF027
:1011640090007E74FFF0A3740AF0A374D9F022C334
:1011740090000EE094D490000DE09403501E7BFF89
:101184007A03792B122FFA900088741BF090007E5A
:1011940074FFF0A3740AF0A374F6F022C390000E57
:1011A400E0940690000DE09404400302173A7BFF9C
:1011B4007A037951122FFA900088741CF090007E03
:1011C40074FFF0A3740BF0A37413F022900B36E4B5
:1011D40093FE740193FF900003E06E7003A3E06F2D
:1011E400600302128B900B4093FE740193FF9000F6
:1011F40009E06E7003A3E06F600302128BC39000DA
:101204000EE094AE90000DE09401501E7BFF7A0333
:101214007977122FFA900088740CF090007E74FF96
:10122400F0A3740BF0A37430F022C390000EE0948A
:10123400EA90000DE09401501E7BFF7A03799D1221
:101244002FFA900088740DF090007E74FFF0A37460
:101254000BF0A3744DF022C390000EE094089000AC
:101264000DE09402400302173A7BFF7A0379C3121C
:101274002FFA900088740EF090007E74FFF0A3742F
:101284000BF0A3746AF022900B8DE493FE74019327
:10129400FF900003E0B50639A3E0B50734900B973F
:1012A400E493FE740193FF900009E0B50623A3E0E4
:1012B400B5071E7BFF7A0379E9122FFA9000887430
:1012C4001DF090007E74FFF0A3740BF0A37487F0FC
:1012D40022900BAAE493FE740193FF900003E0B5FF
:1012E4000639A3E0B50734900BB4E493FE7401937C
:1012F400FF900009E0B50623A3E0B5071E7BFF7A43
:1013040004790D122FFA900088741DF090007E74F9
:10131400FFF0A3740BF0A374A4F022900BC7E49322
:10132400FE740193FF900003E0B50639A3E0B5070E
:1013340034900BD1E493FE740193FF900009E0B55F
:101344000623A3E0B5071E7BFF7A047932122FFA35
:10135400900088741DF090007E74FFF0A3740BF06D
:10136400A374C1F022900BE4E493FE740193FF9004
:101374000003E0B50639A3E0B50734900BEEE4931F
:10138400FE740193FF900009E0B50623A3E0B507BE
:101394001E7BFF7A047957122FFA900088741DF08F
:1013A40090007E74FFF0A3740BF0A374DEF022901F
:1013B4000C01E493FE740193FF900003E0B5063939
:1013C400A3E0B50734900C0BE493FE740193FF90F3
:1013D4000009E0B50623A3E0B5071E7BFF7A047974
:1013E4007D122FFA900088741DF090007E74FFF037
:1013F400A3740BF0A374FBF022900C1EE493FE7410
:101404000193FF900003E0B50639A3E0B5073490DB
:101414000C28E493FE740193FF900009E0B50623C1
:10142400A3E0B5071E7BFF7A0479A3122FFA90007C
:1014340088741DF090007E74FFF0A3740CF0A37404
:1014440018F022900C92E493FE740193FF90000331
:10145400E0B50639A3E0B50734900C9CE493FE7420
:101464000193FF900009E0B50623A3E0B5071E7BB6
:10147400FF7A0479C9122FFA9000887415F090004D
:101484007E74FFF0A3740CF0A3748CF022900D40D2
:10149400E493FE740193FF900003E0B50639A3E0E2
:1014A400B50734900D4AE493FE740193FF9000094C
:1014B400E0B50623A3E0B5071E7BFF7A0479EE129C
:1014C4002FFA9000887412F090007E74FFF0A374D9
:1014D4000DF0A3743AF022900D23E493FE7401936B
:1014E400FF900003E0B50639A3E0B50734900D2D55
:1014F400E493FE740193FF900009E0B50623A3E092
:10150400B5071E7BFF7A057913122FFA90008874B1
:1015140011F090007E74FFF0A3740DF0A3741DF01D
:1015240022900D06E493FE740193FF900003E0B54E
:101534000639A3E0B50734900D10E493FE740193CB
:10154400FF900009E0B50623A3E0B5071E7BFF7AF0
:10155400057939122FFA900088740FF090007E7488
:10156400FFF0A3740DF0A37400F022900C58E493E0
:10157400FE740193FF900003E0B50639A3E0B507BC
:1015840034900C62E493FE740193FF900009E0B57B
:101594000623A3E0B5071E7BFF7A05795F122FFAB5
:1015A4009000887410F090007E74FFF0A3740CF027
:1015B400A37452F022900C75E493FE740193FF908F
:1015C4000003E0B50639A3E0B50734900C7FE4933B
:1015D400FE740193FF900009E0B50623A3E0B5076C
:1015E4001E7BFF7A057984122FFA9000887413F019
:1015F40090007E74FFF0A3740CF0A3746FF022903B
:101604000D5DE493FE740193FF900003E0B5063989
:10161400A3E0B50734900D67E493FE740193FF9043
:101624000009E0B50623A3E0B5071E7BFF7A057920
:10163400A9122FFA9000887414F090007E74FFF0C1
:10164400A3740DF0A37457F022900CAFE493FE74CE
:101654000193FF900003E0B50639A3E0B507349089
:101664000CB9E493FE740193FF900009E0B50623DE
:10167400A3E0B5071E7BFF7A0579CD122FFA9000FF
:10168400887416F090007E74FFF0A3740CF0A374B9
:10169400A9F022900CCCE493FE740193FF90000314
:1016A400E0B50639A3E0B50734900CD6E493FE7494
:1016B4000193FF900009E0B50623A3E0B5071E7B64
:1016C400FF7A0579F3122FFA9000887417F09000CE
:1016D4007E74FFF0A3740CF0A374C6F022900CE99E
:1016E400E493FE740193FF900003E0B50639A3E090
:1016F400B50734900CF3E493FE740193FF90000952
:10170400E0B50623A3E0B5071E7BFF7A067919121C
:101714002FFA9000887418F090007E74FFF0A37480
:101724000CF0A374E3F022900088741DF07BFF7A20
:0617340006793F122FFAB6
:01173A00228C
:102B3200900003EBF0A3EAF0A3E9F07D837FFF129C
:102B420040B3900003E0FBA3E0FAA3E0F990001287
:102B5200121D0FE5F0FD7F0D1240B3900003E0FB64
:102B6200A3E0FAA3E0F9900012121D0FFD7F0E12EE
:102B720040B3900003E0FBA3E0FAA3E0F990001059
:102B8200121D0FE5F0FD7F0F1240B3900003E0FB32
:102B9200A3E0FAA3E0F9900010121D0FFD7F1012BE
:102BA20040B3900003E0FBA3E0FAA3E0F990000831
:102BB200121D0FE5F0FD7F111240B3900003E0FB00
:102BC200A3E0FAA3E0F9900008121D0FFD7F121294
:102BD20040B3900003E0FBA3E0FAA3E0F990000603
:102BE200121D0FE5F0FD7F131240B3900003E0FBCE
:102BF200A3E0FAA3E0F9900006121D0FFD7F141264
:102C020040B3900003E0FBA3E0FAA3E0F990000CCC
:102C1200121D0FFD7F151240B3900003E0FBA3E0ED
:102C2200FAA3E0F9900002121D0FFD7F161240B3C5
:102C3200900003E0FBA3E0FAA3E0F990000A121D62
:102C42000FFD7F171240B3900003E0FBA3E0FAA34D
:102C5200E0F990000E121D0FFFAEF090000C121D55
:102C62000F2FFFE5F03EAD077F181240B39000032F
:102C7200E0FBA3E0FAA3E0F9121CE4FD7F19124085
:102C8200B3900003E0FBA3E0FAA3E0F99000041282
:102C92001D0FFFAEF0900002121D0F2FE5F03EFD5A
:102CA200121CE4E5F0C4F8540FC868FFEF2DFD7F55
:102CB2001A1240B3900003E0FBA3E0FAA3E0F990FC
:102CC2000004121D0FFFAEF0900002121D0F2FFF25
:0A2CD200E5F03EAD077F1B0240B3A2
:0B312C0090007EE0FBA3E0FAA3E0F9B6
:10313700900014121BEE25E0FF900015121BEE2FD6
:10314700900002F0F4F05403F07BFF7A0679659063
:103157000012F0A3F0122FFA7D837FFF1240B37D98
:10316700017F0B1240B37D107F0C1240B3E4FD7F4B
:10317700481240B37D817F491240B37D4A7F2112B7
:1031870040B37D717F241240B37D307F251240B359
:103197007D017F2A1240B37D407F4A1240B39000E1
:1031A70002E04410FD7F1D1240B3900088E024F434
:1031B70024FC500E604B24FC604724FE24FD500283
:1031C700805B2090587D037F0B1240B37DD07F0C2E
:1031D7001240B37D037F481240B37DE07F49124020
:1031E700B37D727F241240B3E4FD7F251240B37D87
:1031F700017F2A1240B37D107F4A1240B37D1080B1
:10320700177D707F241240B37D807F251240B37DE8
:10321700107F2A1240B37DF07F1D1240B390007ECD
:10322700E0FBA3E0FAA3E0F9122B327D837FFF12C4
:1032370040B390007DE0FD7F261240B37D807FFF85
:103247001240B37D5A7F111240B37DFA7F110240BD
:01325700B3C3
:0B28C30090007EE0FBA3E0FAA3E0F928
:1028CE00900019121E75900002121EA57BFF7A064B
:1028DE007975122FFA900002E0FCA3E0FDA3E0FE52
:1028EE00A3E0FF121F5C7D817FFF1240B37D407F0E
:1028FE00231240B37D627F241240B37D807F251268
:10290E0040B37D557F261240B37D377F2C1240B3E6
:10291E007D017F2F1240B37D557F261240B37D6619
:10292E007F271240B37D887F281240B37FF07E4907
:10293E007D027C00900002E0F8A3E0F9A3E0FAA388
:10294E00E0FBD3121E64400F7D887F2D1240B390A2
:10295E0000067401F080387F707E117D017C00903E
:10296E000002E0F8A3E0F9A3E0FAA3E0FBD3121E05
:10297E0064400F7D997F2D1240B39000067402F0D3
:10298E00800D7DAA7F2D1240B39000067404F0E4F2
:10299E007F05FEFDFC900002E0F8A3E0F9A3E0FA4B
:1029AE00A3E0FB121D47A804A905AA06AB079000D9
:1029BE0006E0FFE4FCFDFE121D47E47B787A69F920
:1029CE00F8121DD290007DEFF07BFF7A067991E030
:1029DE00900012F0900006E0900013F0122FFA7D96
:1029EE00837FFF1240B37D407F2D1240B37D087F61
:1029FE00311240B390007DE04480FD7F261240B33B
:102A0E00900002E0FCA3E0FDA3E0FEA3E0FFE47B68
:102A1E0002FAF9F8121DD2900002121EA57D827FD5
:102A2E00FF1240B3E4FBFA7901F8900002E0FCA338
:102A3E00E0FDA3E0FEA3E0FF121DD2AD077FE3127F
:102A4E0040B3900002A3A3E0FEA3E0FFE4FDFC90E0
:102A5E000002121EA5E4FB7A01F9F8900002E0FCD8
:102A6E00A3E0FDA3E0FEA3E0FF121DD2AD077FE4BD
:102A7E001240B3900002E0FCA3A3E0FEA3E0FFE44B
:102A8E00AD077FE51240B37D207FDE1240B37DE0BF
:102A9E007FDE1240B37D807FFF1240B37DF17F1643
:102AAE001240B37DF37F161240B3E4900007F07D21
:102ABE00807FFF1240B37DE37F161240B37DF37F1C
:102ACE00161240B37D827FFF1240B37F15123FDA9C
:102ADE00EF30E7097BFF7A0679BE022FFA7D807F01
:102AEE00FF1240B37D5A7F111240B37DFA7F11124F
:102AFE0040B37DDC7F181240B37DFC7F181240B3CB
:102B0E007DF17F161240B37DF37F161240B37BFF2B
:102B1E007A0679DC122FFA900007E004F0E0C394F5
:032B2E0006408CD2
:012B31002281
:10381F007D817FFF1240B37D6A7F301240B39000ED
:10382F0086E070047D7380027D447F311240B37D4A
:10383F004A7F321240B37D0B7F331240B3E4FD7FDA
:10384F00341240B3E4FD7F351240B3E4FD7F3612EE
:10385F0040B37D447F371240B37D0F7F3F1240B39B
:10386F007DA07F401240B37DA07F411240B37DA069
:10387F007F421240B37DA07F431240B37D0A7F4445
:03388F000240B341
:1039D1007D817FFF1240B37D407F231240B37D8202
:1039E1007FFF1240B37D207FDE1240B37DE07FDE9A
:1039F1001240B37D807FFF1240B37DDC7F181240FF
:103A0100B37DFC7F181240B37DF17F161240B37D68
:103A1100F37F161240B37D5A7F111240B37DFA7FB6
:103A2100111240B37D817FFF1240B37DEA7F3002E6
:023A310040B3A0
:01003A0022A3
:0B37AB0090007EE0FBA3E0FAA3E0F931
:1037B600900016121D0F900002F0900018121BEEDA
:1037C600900003F07D847FFF1240B3900003E0C4B5
:1037D60054F0FF900002E0FEC374569EC39FFD7F27
:1037E600431240B37D107F441240B3900003E0C4FF
:1037F60054F02408FD7F451240B3900002E0FD7F9F
:10380600471240B37D847FFF1240B37D027F1012C2
:0938160040B37D647F120240B34F
:10409400900083E0B401177D827FFF1240B37D1846
:0F40A4007FB91240B37BFF7A077907122FFA22F8
:10362600900085E070417BFF7A077929122FFA7D99
:10363600827FFF1240B37D8C7FD61240B37D047F1C
:10364600D71240B37D847FFF1240B37D087F0612F8
:1036560040B37D107F071240B37D297F0F1240B320
:103666007DD47F341240B3900085E06401703A7BCC
:10367600FF7A077940122FFA7D827FFF1240B37DD1
:103686008C7FD61240B37D047FD71240B37D847FF2
:10369600FF1240B37D0C7F061240B37D107F0712E8
:0A36A60040B37DD47F341240B322FC
:103EFC007D827FFF1240B37D0A7F581240B37D80D4
:103F0C007F591240B37DF77F9E1240B37DFEE4FFD4
:103F1C001240B37D3F7F031240B37DFF7F041240FC
:103F2C00B37DFE7F041240B37DFF7F071240B37D4B
:063F3C003F7F070240B3C5
:0141C60022D6
:1040D1007D827FFF1240B37F5E123FDAEF30E2074D
:0D40E10090007C7401F022E490007CF0223D
:104071007D857FFF1240B37D1F7F071240B37DFE18
:104081007F131240B37D0F7F171240B37D057F155B
:034091000240B337
:103F7B007D807FFF1240B37D7F7F141240B37DFFA6
:103F8B007F141240B37D857FFF1240B37D017F15F7
:103F9B001240B37D717F151240B37D657F150240D2
:013FAB00B362
:0E41A1007D857FFF1240B37D457F150240B340
:102CDC00900001121EB1000000007D827FFF1240A7
:102CEC00B37D037FC71240B37F327E007D007C0032
:102CFC00123CB47FCD123FDA900000EFF0546064C8
:102D0C00606003022DA3E0540FFFE4FCFDFEFBFA10
:102D1C007901F8121D47900001121EA57FCE123FBB
:102D2C00DA900000EFF0A3E0F8A3E0F9A3E0FAA337
:102D3C00E0FB900000E07F00FEE4FCFDEF2BFFEADF
:102D4C003EFEED39FDEC38FCA3121EA57FCF123FE1
:102D5C00DA900000EFF0A3E0F8A3E0F9A3E0FAA307
:102D6C00E0FB900000E0FFE4FCFDFEEB2FFFEE3AF1
:102D7C00FEED39FDEC38FCA3121EA57BFF7A07791A
:102D8C0055122FFA900001E0FCA3E0FDA3E0FEA396
:102D9C00E0FF121F5C80097BFF7A07796A122FFA19
:102DAC007D827FFF1240B37D047FC71240B37F3218
:102DBC007E007D007C00123CB47FCD123FDA900087
:102DCC0000EFF0546064606003022E67E0540FFF64
:102DDC00E4FCFDFEFBFA7901F8121D47900001128C
:102DEC001EA57FCE123FDA900000EFF0A3E0F8A30F
:102DFC00E0F9A3E0FAA3E0FB900000E07F00FEE422
:102E0C00FCFDEF2BFFEA3EFEED39FDEC38FCA31286
:102E1C001EA57FCF123FDA900000EFF0A3E0F8A3DD
:102E2C00E0F9A3E0FAA3E0FB900000E0FFE4FCFD76
:102E3C00FEEB2FFFEE3AFEED39FDEC38FCA3121E33
:102E4C00A57BFF7A077985122FFA900001E0FCA38D
:102E5C00E0FDA3E0FEA3E0FF021F5C7BFF7A077995
:042E6C009A122FFA8D
:012E7000223F
:103D6600E4900002F07D827FFF1240B37F86123F0F
:103D7600DA900000E4F0A3EFF07F87123FDAEFFD60
:103D86007C00900001E0FEE42DFFEC3E900000F088
:103D9600A3EFF07BFF7A0779B5122FFA900000E0C7
:103DA600FEA3E0FFE4FCFD121F5C900002E004F0BD
:063DB600E0C3940A40AFD7
:013DBC0022E4
:0141C70022D5
:103258007D837FFF1240B37FBC123FDA900000EFFE
:10326800F07BFFBF55067A0779C8800C7A0779E2A8
:10327800900000E0900012F0122FFA7F99123FDAC6
:10328800900000EFF07BFFBFB8067A087905800C44
:103298007A087920900000E0900012F0122FFA7F4F
:1032A8009B123FDA900000EFF07BFFBFB8067A0868
:1032B800793F800C7A08795A900000E0900012F06B
:1032C800122FFA7F9D123FDA900000EFF07BFFBFCC
:1032D800B8067A087979800C7A087994900000E029
:1032E800900012F0122FFA7F9F123FDA900000EF41
:1032F800F07BFFBFB8067A0879B3800C7A0879CEDC
:10330800900000E0900012F0122FFA7F9A123FDA34
:10331800900012EFF07BFF7A0879ED122FFA7F9C6C
:10332800123FDA900012EFF07BFF7A097909122F29
:10333800FA7F9E123FDA900012EFF07BFF7A09794C
:1033480025122FFA7FA0123FDA900012EFF07BFFD0
:073358007A097941022FFA06
:10335F007BFF7A09795D122FFA7D827FFF1240B3CE
:10336F007F0F123FDA900000EFF07F0C123FDA90E0
:10337F000001EFF0900000E054C0FFBFC0181240F2
:10338F00D17D827FFF1240B37DFF7F071240B37D57
:10339F003F7F071240B3900000E030E7247BFF7AB5
:1033AF0009796F122FFA1241A112003A7D827FFF25
:1033BF001240B37DBF7F071240B37D3F7F0712409E
:1033CF00B3900000E030E6247BFF7A097981122F59
:1033DF00FA123F7B1239D17D827FFF1240B37D7F7E
:1033EF007F071240B37D3F7F071240B3900001E08B
:1033FF0030E0467BFF7A097990122FFA7D827FFFAA
:10340F001240B37DFF7F9E1240B37DF77F9E124027
:10341F00B37DFF7F041240B37DFE7F041240B37F64
:10342F00647E007D007C00123CB4120D741228C320
:09343F0012312C1237AB1239D105
:013448002261
:102E71009000ABEBF0A3EAF0A3E9F07D827FFF12B3
:102E810040B39000ABE0FBA3E0FAA3E0F9900004AB
:102E9100121D0FFFAEF0900002121D0F2FE5F03E44
:102EA100FD7FA31240B39000ABE0FBA3E0FAA3E0E7
:102EB100F9900004121D0FFFAEF0900002121D0FD9
:102EC1002FFFE5F03EAD077FA41240B39000ABE0C9
:102ED100FBA3E0FAA3E0F990000E121D0FFFAEF084
:102EE10090000C121D0F2FFFE5F03EAD077FA512DC
:102EF10040B39000ABE0FBA3E0FAA3E0F990000639
:102F0100121D0FE5F0FD7FA61240B39000ABE0FB70
:102F1100A3E0FAA3E0F9900006121D0FFD7FA712AE
:102F210040B39000ABE0FBA3E0FAA3E0F9900010FE
:102F3100121D0FE5F0FD7FA81240B39000ABE0FB3E
:102F4100A3E0FAA3E0F9900010121D0FFD7FA91272
:102F510040B39000ABE0FBA3E0FAA3E0F9900008D6
:102F6100121D0FE5F0FD7FAA1240B39000ABE0FB0C
:102F7100A3E0FAA3E0F9900008121D0FFD7FAB1248
:102F810040B39000ABE0FBA3E0FAA3E0F99000129C
:102F9100121D0FE5F0FD7FAC1240B39000ABE0FBDA
:102FA100A3E0FAA3E0F9900012121D0FFD7FAD120C
:102FB10040B39000ABE0FBA3E0FAA3E0F99000027C
:102FC100121D0FE5F0FD7FAE1240B39000ABE0FBA8
:102FD100A3E0FAA3E0F9900002121D0FFD7FAF12EA
:102FE10040B39000ABE0FBA3E0FAA3E0F990000C42
:092FF100121D0FFD7FB00240B378
:10344900900019121E75900093121EA57BFF7A0930
:1034590079A5122FFA900093E0FCA3E0FDA3E0FE0A
:10346900A3E0FF121F5C7D837FFF1240B37D507F75
:103479002D1240B37F287E887D047C00900093E064
:10348900F8A3E0F9A3E0FAA3E0FBC3121E64700EEF
:103499007DB67F261240B37DF07F271240B37F149B
:1034A9007E447D027C00900093E0F8A3E0F9A3E05C
:1034B900FAA3E0FBC3121E6470077DB77F26124092
:1034C900B37F0A7E227D017C00900093E0F8A3E09F
:1034D900F9A3E0FAA3E0FBC3121E6470077D9C7F89
:1034E900261240B37D807FFF1240B37D5A7F1112AF
:0934F90040B37DFA7F110240B3DB
:10417A007D827FFF1240B37D807F4F1240B37D2046
:05418A007F500240B36C
:1039030090007E74FFF0A3740AF0A3749FF0123A40
:103913009212396F12417A1228C390007EE0FBA302
:10392300E0FAA3E0F9122E711237AB12381F1239E5
:10393300D11241C77D827FFF1240B37D8C7FD612A7
:1039430040B37D067FD71240B37D847FFF1240B31F
:103953007D0C7F061240B37D107F071240B37D01BB
:0C3963007F161240B37DD47F340240B3C5
:10389200123A9212396F123B4A1235027FE87E03C6
:1038A2007D007C00123CB4120D741228C312312C1C
:1038B2001236261240941240711237AB12381F1280
:1038C2003EFC7BFF7A0979B8122FFA1240D19000A0
:1038D2007CE07BFF60127A0979EB122FFA1241C663
:1038E2001239D1123F7B800D7A0979FD122FFA121B
:1038F20041A112003A122CDC123258123D660241EA
:01390200C7FD
:03003B0002402A56
:10402A00C0E0C083C082C0D0E5ECB4080575EC00DE
:10403A00C2899000B07401F0539BFDD0D0D082D0D9
:04404A0083D0E0320D
:0300000002359A2C
:0C359A00787FE4F6D8FD7581210235E150
:103C5B00900097121EA5538EF7438901D28CE4FF77
:103C6B00FEFDFC900097E0F8A3E0F9A3E0FAA3E0D7
:103C7B00FBC3121E64602F758A7E758CFF308DFD21
:103C8B00C28D900097E0FCA3E0FDA3E0FEA3E0242F
:103C9B00FFFFEE34FFFEED34FFFDEC34FFFC900034
:093CAB0097121EA580B8C28C22FC
:103CB40090004C121EA5538EF7438901D28CE4FF69
:103CC400FEFDFC90004CE0F8A3E0F9A3E0FAA3E0C9
:103CD400FBC3121E64602F758ACA758CFA308DFD81
:103CE400C28D90004CE0FCA3E0FDA3E0FEA3E02421
:103CF400FFFFEE34FFFEED34FFFDEC34FFFC9000DB
:093D04004C121EA580B8C28C22ED
:103D0D0090009B121EA5538EEF438910D28EE4FFB7
:103D1D00FEFDFC90009BE0F8A3E0F9A3E0FAA3E020
:103D2D00FBC3121E64602F758BEA758DCB308FFD32
:103D3D00C28F90009BE0FCA3E0FDA3E0FEA3E02476
:103D4D00FFFFEE34FFFEED34FFFDEC34FFFC900081
:093D5D009B121EA580B8C28E2243
:103AEE0090009F121EA553C9BF53C9DF43C910D200
:103AFE00CAE4FFFEFDFC90009FE0F8A3E0F9A3E00E
:103B0E00FAA3E0FBC3121E64602F75CC3075CDF89E
:103B1E0030CFFDC2CF90009FE0FCA3E0FDA3E0FEFE
:103B2E00A3E024FFFFEE34FFFEED34FFFDEC34FF87
:0C3B3E00FC90009F121EA580B8C2CA2295
:103BA5009000A3121EA575C40743C408E4FFFEFDDB
:103BB500FC9000A3E0F8A3E0F9A3E0FAA3E0FBC3BF
:103BC500121E64603275C52C75C6CFE5C430E4FBA2
:103BD50053C4EF9000A3E0FCA3E0FDA3E0FEA3E047
:103BE50024FFFFEE34FFFEED34FFFDEC34FFFC90C7
:0B3BF50000A3121EA580B553C4F722E8
:103C00009000A7121EA575C40743C408E4FFFEFD7B
:103C1000FC9000A7E0F8A3E0F9A3E0FAA3E0FBC35F
:103C2000121E64603275C5D875C6FFE5C430E4FB6A
:103C300053C4EF9000A7E0FCA3E0FDA3E0FEA3E0E7
:103C400024FFFFEE34FFFEED34FFFDEC34FFFC906B
:0B3C500000A7121EA580B553C4F72288
:10244000E508244FF582E43400F583E00508229086
:10245000004C30070390004FE475F001121EE202B9
:102460001BD52000E97F2ED2008018EF540F249056
:10247000D43440D4FF30040BEF24BFB41A0050030F
:102480002461FFE50960021509050CE50C700205E1
:102490000B30070E90004CE475F001121EE2EF02C3
:1024A0001C1B0240037403D2078003E4C207F50833
:1024B00090004C121EF9E4F509F50BF50CE50960E6
:1024C000077F2012248380F5750AFFC201C200C273
:1024D00002C203C205C206C20812244FFF700D30AB
:1024E00007057F00122494AF0CAE0B22B4255FC207
:1024F000D5C20412244FFF24D0B40A00501A75F03C
:102500000A780930D50508B6FF0106C6A426F620CC
:10251000D5047002D20380D924CFB41A00EF50043E
:10252000C2E5D204022786D20180C6D20080C0D282
:102530000280BCD2D580BAD20580B47F2012248319
:102540002002077401B5090040F1122440FF122453
:10255000830224BDD208D2068095122440FB1224A7
:1025600040FA122440F94A4B700679847A287BFF9E
:1025700020022EE509602A7E008E82758300121BE0
:10258000EE60060EEE650A70F0C2D5EBC0E0EAC060
:10259000E0E9C0E0EE1227E7D0E0F9D0E0FAD0E0C1
:1025A000FB121BD5FF60AAEBC0E0EAC0E0E9C0E087
:1025B000122483D0E02401F9D0E03400FAD0E0FB0B
:1025C000E50A0460DCD50AD98087D20280A21227EE
:1025D000C960F7E50A70010412173BA90A600DE50E
:1025E0000A600914F50A122871EF60F3EA30E70275
:1025F000F404C3995079EAF4250A0430E701E404AD
:10260000F50A800D1227C960C1EA050A250A1217CA
:102610003BEA90007BF030E701E4250A04D50A0488
:10262000200501141227E7E4C0E012287190007B16
:10263000E0601320E70714F012246B802204F0D02E
:10264000E014C0E07F0012246BE50A6007122462E8
:10265000150A800B300503122462D0E00224BDD09D
:10266000E00480C41227C9609EE50A0412173B905B
:10267000007BEAF0E50A2005026001042404122729
:01268000E772
:1026810074FF04C0E012287112246BE50A200502D0
:102691006003122462D0E0B50AE87F4512247590E8
:1026A100007BE07F2B30E7047F2DF404C0E012248F
:1026B10083D0E075F00A84C0F012246CD0E01224BB
:1026C1006C0224BD791080027908C206C208800814
:1026D100D2D5790A8004790AC2D5E50A047002F5D7
:1026E1000AE4FAFDFEFF122440FC7B0820011312CC
:1026F1002440FD7B1030000A122440FE122440FFCA
:102701007B20EC3382D592D55013C3E43000069F71
:10271100FFE49EFEE42001039DFDE49CFCE4CBF874
:10272100C201EC700CCFCECDCCE824F8F870F38068
:1027310017C3EF33FFEE33FEED33FDEC33FCEB3328
:10274100FB994002FB0FD8E9EB300105F8D0E0C45A
:1027510048B201C0E00AEC4D4E4F78207B0070C2B8
:10276100EAB50A0040BCC0E01227E9D0F0D0E02071
:102771000104C4C0E0C4B201C0F012246CD0F0D591
:10278100F0EB0224BD121F02255A5326C558252BF2
:102791004C25274226C94F26D14426D149254043FD
:1027A10026D75526044626644525CE4728A450251C
:1027B1002F2D25332E25562B253723255420288DC3
:1027C1002A24EF480000254EE50AB4FF03750A06E6
:1027D100122440FC122440FD122440FE122440FF2A
:1027E100900074021778790AA2D5200314300509E4
:1027F100B910020404B9080104A2D520060250014F
:10280100042002689202B509005034C0E07F2030F4
:1028110003197F30A20272067205500F122840C2BE
:1028210002C206C205C2087F30800F300503E9C02D
:10283100E0122483300503D0E0F9D0E0B509CC30B3
:1028410005177F30B9100C1224837F583004077F9D
:10285100788003B908031224833002057F2D0224F6
:10286100837F202008F87F2B2006F322920280CF5D
:102871007F00B40700500B2474F582E43400F58323
:10288100E0FF22286E756C6C2900D20112244030C1
:1028910001F8C201780930D50108F60224EF2D5064
:1028A1004349581224402403B405004001E4902810
:1028B1009F93122474743A122474D203750904028A
:0228C10026C52A
:10173B00F920E73624F950037907E4F42402FBE59A
:10174B0082158270021583DBF6E024FB501BE960E7
:10175B0014E4F0E582158270021583E004F0B40AFC
:0D176B0008E4F0D9EE7401F00A22C2D52284
:10177800ED33EC3392D5FA602AB4FF33EDC2E77B40
:10178800FF60067A17799DE4227A1779A620D50496
:101798007A1779A1224E614E002B494E46002D49F9
:1017A8004E4600E47A08F0A3DAFC7B00740722C0F6
:1017B80083C082ECC0E0EDC0E0EEC0E0EFC0E0EA3C
:1017C80075F010A4CAABF075F04DA42BFBE435F00E
:1017D800FCEA2410FAEB34C5FBEC34D9FCEDC2E783
:1017E800FF75F056A4F42411C5F0F434C58FF0A4A5
:1017F8002AE5F03BE43CF020E714121B4BD0E0FF55
:10180800D0E0FED0E0FDD0E0FC121A7E8014F40493
:10181800121B4BD0E0FFD0E0FED0E0FDD0E0FC1280
:101828001975D082D083E0FAEDD2E7CD33EC3324BA
:1018380082FBE4C3CF33CFCE33CECD33CD33DBF30E
:101848007B0775F00A846004F0A31B0AE5F0F0A397
:101858008FF0740AA4FFACF08EF0740AA42CFEACCE
:10186800F050010C8DF0740AA42CFDE435F0F0A3BF
:05187800DBDE74072215
:10187D00021BC0E86480F8E933E83360110460F0BE
:10188D00ED33EC337009E8FCE9FDEAFEEBFF2204D1
:10189D0060DED3EB9FEA9EE99DE8C2E78CF0C2F7CC
:1018AD0095F0400CE8CCF8E9CDF9EACEFAEBCFFB98
:1018BD00121B8B85D0F05804700320D5B3E804704B
:1018CD00075002B2D5021BCA92D5EC0460F7E4CCE6
:1018DD00C0E0C398F8603B94186008400DD0E0FB61
:1018ED00021BA2E4FBFAC9FC8028E830E406E4C937
:1018FD00FBE4CAFCE830E305E4C9CACBFCE85407B5
:10190D006010F8C3E913F9EA13FAEB13FBEC13FCBF
:10191D00D8F130F52FC3E49CFCEF9BFFEE9AFEED62
:10192D0099FDD0E0FBEF4E4D4C701222DB03021BF4
:10193D00C7EC2CFCEF33FFEE33FEED33FDED30E75E
:10194D00EB021BA2EF2BFFEE3AFEED39FDD0E0FBD3
:10195D0050130BBB0003021BCAED13FDEE13FEEF7C
:08196D0013FFEC13FC021BA2A6
:10197500EC4D6011E8497017ED33EC3304600DE46C
:10198500FCFFFEFD22E933E8330470F8021BC012A8
:101995001B8B58046009E4CC2481500628500902A9
:1019A5001BCA284003021BC7C0E0EB4A7044B9803C
:1019B50006D0E0FB021BB6EF4E701CBD8008EBFFA6
:1019C500EAFEE9FD80EBE98DF0A4FEE5F0021A5E82
:1019D500E9CDF9EAFEEBFFEF89F0A4FCE5F0CE894D
:1019E500F0A42EFFE435F0CD89F0A42DFEE435F00A
:1019F5008067EF4E7005BD80D780C3EF8BF0A4AC38
:101A0500F0EE8BF0A42CFCE435F0F8EF8AF0A42C72
:101A1500E5F038FCE433CB8DF0A42CFCE5F03BF885
:101A2500EE8AF0A42CFCE5F038F8E433CF89F0A475
:101A35002CFCE5F038CF3400CE89F0A42FFFE5F07B
:101A45003EFEE433C98DF0A42EFEE5F039CD8AF0D3
:101A5500A42FFFE5F03EFEE43DFD33D0E0FB50074B
:101A65000BBB000F021BCAEC2CFCEF33FFEE33FE61
:061A7500ED33FD021BA28F
:101A7B00021BCAEC5D046005E859047003021BC02D
:101A8B00121B8B580460F6EC4860F2EC7004FDFE00
:101A9B00FF22C860DB2481C85009C398600250063E
:101AAB00021BC79850CAF582E9294B4A7005AB82D5
:101ABB00021BB675F0007C1A7880C3EF9BEE9AED93
:101ACB0099400DC3EF9BFFEE9AFEED99FDE842F0B6
:101ADB00DC23ACF0D0E0FFD0E0FED0E0FDAB822009
:101AEB00E7101BEB60BAEC2CFCEF33FFEE33FEED93
:101AFB0033FD021BA2E803F830E705C0F075F000D8
:101B0B00EF2FFFEE33FEED33FD40B830E7C280AA76
:101B1B003F8000004120000042C80000447A0000D2
:101B2B00461C400047C35000497424004B18968054
:101B3B004CBEBC205A0E1BCA6753C21C749DC5AE4B
:101B4B00FB60065407601C2323121B79EB5438608F
:101B5B0009121B65121B74121975ECF8EDF9EEFAEC
:101B6B00EFCB22EB121B7480F1543803241C901B17
:101B7B001BFE93FC0EEE93FD0EEE930ECE93FF2207
:101B8B00E9D2E7C933E833F892D5EDD2E7CD33ECA0
:071B9B0033FC5002B2D52219
:101BA200EC30E7100FBF000C0EBE00080DBD0004A4
:101BB2000BEB6014A2D5EB13FCED92E7FD2274FF50
:101BC200FCFDFEFF22E480F8A2D574FF13FC7D80A9
:031BD200E480EFBD
:1035A600023FACE493A3F8E493A34003F68001F250
:1035B60008DFF48029E493A3F85407240CC8C33326
:1035C600C4540F4420C8834004F456800146F6DFF5
:1035D600E4800B0102040810204080904124E47E20
:1035E600019360BCA3FF543F30E509541FFEE493EA
:1035F600A360010ECF54C025E060A840B8E493A3B1
:10360600FAE493A3F8E493A3C8C582C8CAC583CADB
:10361600F0A3C8C582C8CAC583CADFE9DEE780BE93
:01413A000084
:101BD500BB010689828A83E0225002E722BBFE020E
:091BE500E32289828A83E4932241
:101BEE00BB010CE58229F582E5833AF583E02250AC
:101BFE0006E92582F8E622BBFE06E92582F8E222F6
:0D1C0E00E58229F582E5833AF583E493220F
:101C1B00BB010689828A83F0225002F722BBFE01A8
:021C2B00F322A2
:101C2D00BC000BBE0029EF8DF084FFADF022E4CC9B
:101C3D00F875F008EF2FFFEE33FEEC33FCEE9DEC64
:101C4D00984005FCEE9DFE0FD5F0E9E4CEFD22EDAA
:101C5D00F8F5F0EE8420D21CFEADF075F008EF2FF4
:101C6D00FFED33FD4007985006D5F0F222C398FDE5
:051C7D000FD5F0EA2282
:101C8200C2D5EC30E709B2D5E4C39DFDE49CFCEE7D
:101C920030E715B2D5E4C39FFFE49EFE121C2DC3AC
:101CA200E49DFDE49CFC8003121C2D30D507C3E4A7
:061CB2009FFFE49EFE22EC
:101CB800C5F0F8A3E028F0C5F0F8E58215827002B7
:061CC8001583E038F02254
:101CCE00A3F8E0C5F025F0F0E582158270021583C9
:061CDE00E0C838F0E82226
:101CE400BB010A89828A83E0F5F0A3E022500687CB
:101CF400F009E71922BBFE07E3F5F009E31922898D
:0B1D0400828A83E493F5F074019322BF
:101D0F00BB0110E58229F582E5833AF583E0F5F012
:101D1F00A3E0225009E92582F886F008E622BBFEEF
:101D2F000AE92582F8E2F5F008E222E5832AF58335
:081D3F00E993F5F0A3E99322FA
:101D4700E88FF0A4CC8BF0A42CFCE98EF0A42CFC3B
:101D57008AF0EDA42CFCEA8EF0A4CDA8F08BF0A4B9
:101D67002DCC3825F0FDE98FF0A42CCD35F0FCEB18
:101D77008EF0A4FEA9F0EB8FF0A4CFC5F02ECD39DD
:0F1D8700FEE43CFCEAA42DCE35F0FDE43CFC224A
:101D960075F008758200EF2FFFEE33FECD33CDCC04
:101DA60033CCC58233C5829BED9AEC99E582984087
:101DB6000CF582EE9BFEED9AFDEC99FC0FD5F0D664
:101DC600E4CEFBE4CDFAE4CCF9A88222B800C1B98E
:101DD6000059BA002DEC8BF084CFCECDFCE5F0CBCC
:101DE600F97818EF2FFFEE33FEED33FDEC33FCEB05
:101DF60033FB10D703994004EB99FB0FD8E5E4F9C0
:101E0600FA227818EF2FFFEE33FEED33FDEC33FCAC
:101E1600C933C910D7059BE99A4007EC9BFCE99AA0
:101E2600F90FD8E0E4C9FAE4CCFB2275F010EF2FE5
:101E3600FFEE33FEED33FDCC33CCC833C810D707E5
:101E46009BEC9AE899400AED9BFDEC9AFCE899F820
:0E1E56000FD5F0DAE4CDFBE4CCFAE4C8F922B3
:101E6400EB9FF5F0EA9E42F0E99D42F0E89C45F0D4
:011E7400224B
:101E7500BB010DE58229F582E5833AF583021F341E
:101E85005007E92582F8021F28BBFE07E92582F8DD
:101E9500021F40E58229F582E5833AF583021F4C4E
:0C1EA500ECF0A3EDF0A3EEF0A3EFF022B0
:101EB100A8828583F0D083D082121EC8121EC81258
:101EC1001EC8121EC8E473E493A3C583C5F0C5837D
:101ED100C8C582C8F0A3C583C5F0C583C8C582C87B
:011EE10022DE
:101EE200F8E0FBA3A3E0F925F0F0E5821582700289
:071EF2001583E0FA38F0222D
:091EF900EBF0A3EAF0A3E9F022EA
:101F0200D083D082F8E4937012740193700DA3A36E
:101F120093F8740193F5828883E473740293686082
:061F2200EFA3A3A380DF82
:10400300EFB40A07740D12400E740A309811A89980
:10401300B8130CC2983098FDA899C298B811F6301D
:0740230099FDC299F59922F5
:0C1F2800E6FC08E6FD08E6FE08E6FF22E5
:0C1F3400E0FCA3E0FDA3E0FEA3E0FF2220
:0C1F4000E2FC08E2FD08E2FE08E2FF22DD
:101F4C00E493FC740193FD740293FE740393FF22DB
:00000001FF
