:033A7900307800A2
:1038040053B1BF53B2BF53B17F53B27F7598504386
:103814008920438780438E1053C4DFAB07AA06A9CF
:1038240005A8047F407E427D0F7C001206D5EF047C
:09383400F404F58DD28ED2992224
:083A7100C2998F993099FD22E2
:03003700023A7119
:10372200AB07AA067C007D0A120585C3EF940AEE58
:10373200648094805005EF2430800E7C007D0AAFB7
:1037420003AE02120585EF2457FF1200377C007D7D
:103752000AAF03AE02120585C3ED940AEC648094AD
:0F37620080ED5004243080022457FF12003722DC
:103018009001F3EEF0A3EFF07BFF7A3A7979121B77
:10302800F07F027E007D007C001235249001F3E0E1
:10303800FEA3E0FF7C007D10120585C3EF940AEE25
:10304800648094805005EF243080129001F3E0FEF4
:10305800A3E0FF7C007D10120585EF2457FF1200C6
:10306800379001F3E0FEA3E0FF7C007D1012058598
:10307800C3ED940AEC64809480ED500424308002FF
:073088002457FF120037225C
:0616A1009001B81207A839
:1016A700E49001BCF0A31207B4000000009001B859
:1016B700E0FCA3E0FDA3E0FEA3E0FF9001BD12075D
:1016C700A87F201200377F7F7E967D987C0090014F
:1016D700BDE0F8A3E0F9A3E0FAA3E0FBD3120767A4
:1016E700407A7B807A96799878009001BDE0FCA3D8
:1016F700E0FDA3E0FEA3E0FF1206D5E47B0AFAF9BA
:10170700F8D31207677B807A96799878009001BDA5
:10171700E0FCA3E0FDA3E0FEA3E0FF40081206D52E
:10172700EF243080061206D5EF2457FF12003790BA
:1017370001BDE0FCA3E0FDA3E0FEA3E0FF7B807A10
:1017470096799878001206D5AC00AD01AE02AF03CA
:101757009001BD1207A89001BC7401F07F3F7E4243
:101767007D0F7C009001BDE0F8A3E0F9A3E0FAA3A8
:10177700E0FBD3120767407C7B407A42790F780001
:101787009001BDE0FCA3E0FDA3E0FEA3E0FF12068D
:10179700D5E47B0AFAF9F8D31207677B407A4279D6
:1017A7000F78009001BDE0FCA3E0FDA3E0FEA3E0FD
:1017B700FF40081206D5EF243080061206D5EF2425
:1017C70057FF1200379001BDE0FCA3E0FDA3E0FE48
:1017D700A3E0FF7B407A42790F78001206D5AC0070
:1017E700AD01AE02AF039001BD1207A89001BC7412
:1017F70001F0800B9001BCE060057F301200377F5D
:101807009F7E867D017C009001BDE0F8A3E0F9A3EF
:10181700E0FAA3E0FBD312076750030218B27BA0DC
:101827007A86790178009001BDE0FCA3E0FDA3E092
:10183700FEA3E0FF1206D5E47B0AFAF9F8D31207F4
:10184700677BA07A8640190978009001BDE0FCA368
:10185700E0FDA3E0FEA3E0FF1206D5EF24308018D9
:10186700790178009001BDE0FCA3E0FDA3E0FEA3B1
:10187700E0FF1206D5EF2457FF1200379001BDE0B5
:10188700FCA3E0FDA3E0FEA3E0FF7BA07A8679013D
:1018970078001206D5AC00AD01AE02AF039001BDD2
:1018A7001207A89001BC7401F0800B9001BCE060A6
:1018B700057F30120037E47F0F7E27FDFC9001BDC6
:1018C700E0F8A3E0F9A3E0FAA3E0FBD3120767501F
:1018D70003021963E47B107A27F9F89001BDE0FC55
:1018E700A3E0FDA3E0FEA3E0FF1206D5E47B0AFA1E
:1018F700F9F8D3120767E47B107A274017F89001AD
:10190700BDE0FCA3E0FDA3E0FEA3E0FF1206D5EFD8
:1019170024308016F9F89001BDE0FCA3E0FDA3E0B8
:10192700FEA3E0FF1206D5EF2457FF120037900100
:10193700BDE0FCA3E0FDA3E0FEA3E0FFE47B107A9B
:1019470027F9F81206D5AC00AD01AE02AF0390013E
:10195700BD1207A89001BC7401F0800B9001BCE098
:1019670060057F30120037E47FE77E03FDFC9001BE
:10197700BDE0F8A3E0F9A3E0FAA3E0FBD312076701
:101987005003021A14E47BE87A03F9F89001BDE0EA
:10199700FCA3E0FDA3E0FEA3E0FF1206D5E47B0A6B
:1019A700FAF9F8D3120767E47BE87A034017F8904F
:1019B70001BDE0FCA3E0FDA3E0FEA3E0FF1206D516
:1019C700EF24308016F9F89001BDE0FCA3E0FDA3F9
:1019D700E0FEA3E0FF1206D5EF2457FF1200379071
:1019E70001BDE0FCA3E0FDA3E0FEA3E0FFE47BE88C
:1019F7007A03F9F81206D5AC00AD01AE02AF039039
:101A070001BD1207A89001BC7401F0800B9001BCC6
:101A1700E060057F30120037E47F63FEFDFC900134
:101A2700BDE0F8A3E0F9A3E0FAA3E0FBD312076750
:101A37005003021AC1E47B64FAF9F89001BDE0FC97
:101A4700A3E0FDA3E0FEA3E0FF1206D5E47B0AFABC
:101A5700F9F8D3120767E47B644017F89001BDE0FB
:101A6700FCA3E0FDA3E0FEA3E0FF1206D5EF2430C0
:101A77008017FAF9F89001BDE0FCA3E0FDA3E0FEB2
:101A8700A3E0FF1206D5EF2457FF1200379001BDE0
:101A9700E0FCA3E0FDA3E0FEA3E0FFE47B64FAF92A
:101AA700F81206D5AC00AD01AE02AF039001BD122E
:101AB70007A89001BC7401F0800B9001BCE06005A1
:101AC7007F30120037E47B0AFAF9F89001BDE0FC99
:101AD700A3E0FDA3E0FEA3E0FF1206D5E47B0AFA2C
:101AE700F9F8D3120767E44017F89001BDE0FCA3AB
:101AF700E0FDA3E0FEA3E0FF1206D5EF2430801936
:101B07007B0AFAF9F89001BDE0FCA3E0FDA3E0FE33
:101B1700A3E0FF1206D5EF2457FF120037E47B0A34
:101B2700FAF9F89001BDE0FCA3E0FDA3E0FEA3E015
:101B3700FF1206D5AC00AD01AE02AF03E47B0AFA93
:101B4700F9F8D3120767E44017F89001BDE0FCA34A
:101B5700E0FDA3E0FEA3E0FF1206D5EB24308019D9
:101B67007B0AFAF9F89001BDE0FCA3E0FDA3E0FED3
:0D1B7700A3E0FF1206D5EB2457FF12003744
:011B8400223E
:0B291A009001B8EBF0A3EAF0A3E9F095
:102925009001E31207B400000000E49001E7F0A372
:10293500F0F9A3C9F0A3F0A3E9F0E4A3F0F9A3C962
:10294500F0A3F0A3E9F0A37401F0A37401F0A3745C
:10295500BBF09001B8E0F9A3E0FAA3E09001EDC95E
:10296500F0A3EAF0A3E9F09001EDE0FBA3E0FAA300
:10297500E0F91204D87003022A4B64256003022A89
:10298500319001EDA3E475F0011205BBA9F0FA122F
:1029950004D824DB7003022A1F24E1602B24EC6099
:1029A5005024F4602324EC6048241570729001F0E3
:1029B500E0FBA3E475F0021205D1A9F0FA1205E7D0
:1029C5009001ECF0E0FF80549001F0E0FBA3E4758A
:1029D500F0011205D1A9F0FA1204D8FF9001E7E43D
:1029E500F0A3EFF09001E7A3E0FF7E00123722800D
:1029F5002E9001F0E0FBA3E475F0011205D1A9F0DA
:102A0500FA1204D8FF9001E7E4F0A3EFF09001E794
:102A1500E0FEA3E0FF12301880057F2512003790F5
:102A250001EEE475F0011205BB02296C9001EDE0A1
:102A3500FBA3E475F0011205D1A9F0FA1204D8FF41
:062A450012003702296CAB
:012A4B002268
:10362D000D0A23232323232323232323232323238C
:10363D002323232323232323232323236D63752074
:10364D0073746172742323232323232323232323BE
:10365D00232323232323232323232323232323232D
:10366D00232323000D0A697271207461736B2E2E52
:02367D002E001D
:0422770041024C00D4
:1037710043B30153B4FE43B30253B4FD43B3045303
:10378100B4FB43B10853B2F743B11053B2EF53AC9A
:10379100FE43AD0143B30843B40843B31043B4102F
:1037A1007F007EC27D017C0012380453E9FB43E9AE
:0D37B1002043EA0853EBF7439B02D2AF22FE
:1039D700C2B07FC87E007D007C00123524D2B07F44
:0A39E700C87E007D007C000235243C
:10383D001237717FB87E0B7D007C001235247BFF23
:10384D007A36792D12291A1239D712310290024C7B
:10385D00E060FA7BFF7A36797112291A122B53E444
:09386D0090024CF0439B0280E440
:04227B0041024A765C
:073A4500123A4CD2937F0AF4
:0A3A4C00E4FEEEC39F50030E80F865
:013A5600224D
:1039F100D2947F01123A45C2947F07123A4CC29386
:053A01007F01023A4CB8
:0C3A6500C2947F02123A45D294023A4CFF
:0236D100AD0743
:1036D300E4FCEDA804088002C333D8FC30E704D22D
:1036E300948002C2947F03123A4CD2930F123A4C45
:1036F300C2930CECB408DB7F01123A4CD2947F03E3
:10370300123A4CD293123A4C309407E490024BF0A5
:0F371300800690024B7401F0C2937F03023A4C80
:10000300E4FDD294FC7F01123A4CC2937F04123A6E
:100013004CD2937F02123A4CED25E0FD3094010D52
:100023007F02123A4C0CECB408DBC2937F05123A00
:030033004CAF05CA
:0100360022A7
:1039BB00EF7004C2948002D2947F08123A4CD293D7
:0C39CB007F0F123A4CC2937F08023A4C66
:0732A3009001BAEDF0AC0749
:1032AA001239F1AF041236D190024BE07002802D30
:1032BA009001BAE0FF1236D190024BE07002801DF5
:1032CA00E49001BFF09001BEE0FFA3E0C39F50224B
:1032DA001204D8FF1236D190024BE07006123A65FA
:1032EA007F0022740129F9E43AFA9001BFE004F060
:0732FA0080D3123A657F0149
:0133010022A9
:082F94009001B9EFF0A3EDF08C
:102F9C001239F19001B9E0FF1236D190024BE0707A
:102FAC000280229001BAE0FF1236D190024BE07001
:102FBC000280121239F19001B9E004FF1236D1905F
:102FCC00024BE07009123A65E412051EFF22E490F0
:102FDC0001BFF09001BEE014FFA3E0C39F501B1291
:102FEC000003EF12051EE4FF1239BB740129F9E44A
:102FFC003AFA9001BFE004F080D9120003EF1205F9
:0B300C001E7F011239BB123A657F01E4
:013017002296
:0238A700AE076A
:1038A900E49001B8F090024AE0FFAD067B017A018D
:1038B90079B89001BE7401F0122F94EF600690015F
:0638C900B8E0FF227F00C1
:0138CF0022D6
:023A0600AE0709
:103A080090024AE0FFAD06900229E09001BEF01254
:023A18002F94E9
:013A1A002289
:073980009001B8EDF0AE0765
:1039870090024AE0FFAD067B017A0179B89001BE4B
:063997007401F01232A3DE
:01399D002207
:023A1B00AE07F4
:103A1D0090024AE0FFAD0690022EE09001BEF0123A
:023A2D0032A3C2
:013A2F002274
:10085F000D0A4C54393631312072696E6720436866
:10086F006970204944203D202578200020257800FC
:10087F000D0A4C54393631315F4D4950495F496E3D
:10088F007075745F44696774613A206C74393631DE
:10089F003120736574206D697069206C616E6573AA
:1008AF00203D202564000D0A4C54393631315F4DFF
:1008BF004950495F496E7075745F44696774613A56
:1008CF00206C743936313120736574206D6970690D
:1008DF0020706F727473203D2031000D0A4C543913
:1008EF003631315F4D4950495F496E7075745F44C1
:1008FF00696774613A206C743936313120736574CD
:10090F00206D69706920706F7274203D2032000D68
:10091F000A4C54393631312E6D6970695F6D6F64D1
:10092F0065203D20637369000D0A4C54393631310F
:10093F002E6D6970695F6D6F6465203D206473690A
:10094F00000D0A766964656F20636865636B3A20F2
:10095F004C54393631312E6D6970695F6D6F646536
:10096F00203D20637369000D0A766964656F20630B
:10097F006865636B3A204C54393631312E6D69708E
:10098F00695F6D6F6465203D20647369000D0A4CCB
:10099F0054393631315F566964656F5F43686563FB
:1009AF006B3A20685F6163745F612C20685F6163DD
:1009BF00745F622C20765F6163742C20765F7461A4
:1009CF006C3A20000D0A4C54393631315F56696448
:1009DF00656F5F436865636B3A206D6970695F7619
:1009EF006964656F5F666F726D61743A2025780078
:1009FF000D0A566964656F5F436865636B203D2020
:100A0F00766964656F5F363430783438305F3630EE
:100A1F00487A20000D0A566964656F5F4368656305
:100A2F006B203D20766964656F5F373230783438DC
:100A3F00305F3630487A20000D0A566964656F5F63
:100A4F00436865636B203D20766964656F5F313263
:100A5F003830783732305F3630487A20000D0A56FA
:100A6F006964656F5F436865636B203D20766964D9
:100A7F00656F5F31323830783732305F3330487AD4
:100A8F0020000D0A566964656F5F436865636B20CC
:100A9F003D20766964656F5F313336367837363887
:100AAF005F3630487A20000D0A566964656F5F43E0
:100ABF006865636B203D20766964656F5F37323000
:100ACF0078313038305F3630487A20000D0A566959
:100ADF0064656F5F436865636B203D20766964656D
:100AEF006F5F3139323078313038305F3630487A95
:100AFF0020000D0A566964656F5F436865636B205C
:100B0F003D20766964656F5F313932307831303826
:100B1F00305F3330487A20000D0A566964656F5F85
:100B2F00436865636B203D20766964656F5F313084
:100B3F00383078313932305F3630487A20000D0A3C
:100B4F00566964656F5F436865636B203D20766906
:100B5F0064656F5F3338343078323136305F33301D
:100B6F00487A20000D0A566964656F5F43686563B4
:100B7F006B203D20766964656F5F33383430783190
:100B8F003038305F3630487A20000D0A5669646578
:100B9F006F5F436865636B203D20766964656F5FA7
:100BAF0031303234783630305F3630487A20000DAD
:100BBF000A566964656F5F436865636B203D2076F5
:100BCF006964656F5F31323830783830305F363076
:100BDF00487A20000D0A566964656F5F4368656344
:100BEF006B203D20766964656F5F35343078393618
:100BFF00305F3630487A20000D0A566964656F5FA2
:100C0F00436865636B203D20766964656F5F32359D
:100C1F00363078313630305F3630487A20000D0A62
:100C2F00566964656F5F436865636B203D20766925
:100C3F0064656F5F3235363078313434305F36303B
:100C4F00487A20000D0A566964656F5F43686563D3
:100C5F006B203D20766964656F5F323536307831B1
:100C6F003038305F3630487A20000D0A5669646597
:100C7F006F5F436865636B203D20756E6B6E6F779A
:100C8F006E20766964656F20666F726D61742000E7
:100C9F000D0A4C54393631315F504C4C3A20736544
:100CAF007420727820706C6C203D20000D0A4C541B
:100CBF00393631315F504C4C3A207063725F6D2082
:100CCF003D2025782C2068646D695F706F73745FA9
:100CDF00646976203D202564000D0A4C5439363165
:100CEF00315F504C4C3A2048444D4920706C6C2079
:100CFF006C6F636B6564000D0A4C54393631315F8C
:100D0F00504C4C3A2048444D4920706C6C20756E05
:100D1F006C6F636B65642C20726573657420706CE7
:100D2F006C000D0A4C54393631315F4353433A202E
:100D3F0059706270722034323220746F20524742E1
:100D4F00383838000D0A417564696F20696E757403
:100D5F00203D2049325320326368000D0A417564EB
:100D6F00696F20696E7574203D20535044494600C9
:100D7F000D0A706F72742041206279746520636C64
:100D8F006B203D20000D0A706F7274204120627934
:100D9F00746520636C6B20756E737461626C650093
:100DAF000D0A706F72742042206279746520636C33
:100DBF006B203D20000D0A706F7274204220627903
:100DCF00746520636C6B20756E737461626C650063
:100DDF000D0A48746F74616C5F537973636C6B2089
:100DEF003D20000D0A706F72742041206C616E659A
:100DFF0020504E206973207269676874000D0A7065
:100E0F006F72742041206C616E6520504E206572A8
:100E1F00726F7220307838336263203D202578005E
:100E2F000D0A706F72742041206C616E6520302046
:100E3F00736F7420726967687420000D0A706F7287
:100E4F00742041206C616E65203020736F742065B3
:100E5F0072726F72203D202578000D0A706F7274C8
:100E6F002041206C616E65203120736F7420726990
:100E7F0067687420000D0A706F72742041206C61D6
:100E8F006E65203120736F74206572726F72203D12
:100E9F00202578000D0A706F72742041206C616EEE
:100EAF0065203220736F7420726967687420000D9B
:100EBF000A706F72742041206C616E65203220734E
:100ECF006F74206572726F72203D202578000D0AB5
:100EDF00706F72742041206C616E65203320736FC8
:100EEF007420726967687420000D0A706F72742025
:100EFF0041206C616E65203320736F7420657272B0
:100F0F006F72203D202578000D0A706F727420419A
:100F1F00206C616E65203020736574746C65203DA4
:100F2F00202578000D0A706F72742041206C616E5D
:100F3F0065203120736574746C65203D2025780021
:100F4F000D0A706F72742041206C616E6520322023
:100F5F00736574746C65203D202578000D0A706FE1
:100F6F0072742041206C616E652033207365747438
:100F7F006C65203D202578000D0A456E7465722042
:100F8F00495251205461736B3A0048444D492064D3
:100F9F006973636F6E6E65637465640048444D4991
:100FAF0020636F6E6E6563746564006D6970692090
:100FBF00766964656F206368616E6765643A2000C7
:100FCF000D0A73657420706978656C20636C6B20F3
:100FDF003D20000D0A23232323232323232323230D
:100FEF00234C543936313120496E697469616C2054
:100FFF00456E642323232323232323232323232304
:10100F002323232323000D0A44657465637420682A
:10101F0070642048696768000D0A446574656374DD
:09102F0020687064204C6F77000A
:10227F004700C7010001000000015800E6000800F8
:10228F006000280280032000210002000A01E00202
:10229F000D000061A85800CE0010003E003C02D097
:1022AF00035A00090006001E01E0020D00006978C4
:1022BF00580178006E002800DC050006720005004A
:1022CF0005001402D002EE0001220A58013006E088
:1022DF00002800DC05000CE400050005001402D006
:1022EF0002EE0001220A580191000E00380040054D
:1022FF005605DC00010003001C0300032000012130
:10230F00105800020058002C009407800898000411
:10231F0000050024043804650001220A58006300F8
:10232F0058002C009407800898000400050024042E
:10233F00380465000244145800AC00B0005801285E
:10234F000F00113000040005002404380465000458
:10235F00882858004B00B0005801280F001130009A
:10236F0008000A0048087008CA000488285800337B
:10237F00000400050024043804650058002C009464
:10238F0007800898000244145801600005000500FA
:10239F001402D002EE006E002800DC050006720069
:1023AF0001220A580118003C003C0064040004821A
:1023BF0000020005000A02580269000084D058018B
:1023CF00480028002C00280320039C000A0004006A
:1023DF000C0500051A00010C8E5800FE001E000AA5
:1023EF00001E021C0262000A000A000A03C003DE7C
:1023FF00000082DC58001B0030002000500A000A49
:10240F00A00003000600250640066E000418D458ED
:10241F0000930030002000500A000AA000030005BE
:10242F00002105A005C90003AF5C58007B00F80030
:10243F002C00940A000AA000040005000B043804C5
:10244F004C0003057041000100410190004101174C
:01245F00007C
:103302007D807FFF1239807D017FEE123980E4FFDC
:103312001238A79001BBEFF07BFF7A08795F122980
:103322001A7F011238A79001BBEFF07BFF7A087970
:103332007B12291A7F021238A79001BBEFF07BFFA4
:103342007A08797B12291A7D817FFF1239807D18D4
:0C3352007F011239807D807FFF023980EE
:10391B007D817FFF1239807D487F021239807D8047
:10392B007F23123980E4FD7F30123980E4FD7F0163
:03393B00023980CE
:1031DF007D827FFF1239807D117F511239807D8270
:1031EF007FFF1239807D697F1B1239807D787F1CAC
:1031FF001239807D697FCB1239807D787FCC12396F
:10320F00807D807FFF1239807DF07F041239807DB1
:10321F00F07F061239807D807F0A1239807D467FCC
:10322F000B1239807DEF7F0D1239807DFA7F1102ED
:02323F003980D4
:1033BA007D817FFF1239807D207F061239807D3F13
:1033CA007F071239807D3F7F081239807DFE7F0A90
:1033DA001239807DBF7F0B1239807D207F1112390F
:1033EA00807D3F7F121239807D3F7F131239807DA5
:1033FA00FE7F151239807DBF7F161239807D037FCB
:0B340A001C1239807D037F20023980F6
:102DE6009000C8E09001A9F07BFF7A08797F9001F6
:102DF600BBF012291A7D827FFF1239807D807F4FBA
:102E06001239807D107F501239807D837FFF123901
:102E1600809001A9E0FDE4FF1239807D047F021253
:102E260039807D047F0612398030900FE4FD7F0AD9
:102E36001239807BFF7A0879B5800D7D037F0A12EF
:102E460039807BFF7A0879EA12291A9000C9E07B5B
:102E5600FFB4011C7A09791E12291A7D837FFF129D
:102E660039807D107F081239807D407F2C023980A1
:072E76007A09793712291ACD
:012E7D002232
:10103800E49001ABF07D827FFF1239807F86123801
:10104800A79001B6E4F0A3EFF07F871238A7EFFD71
:101058007C009001B7E0FEE42DFFEC3E9001B6F075
:10106800A3EFF07F821238A79001B2E4F0A3EFF06B
:101078007F831238A7EFFD7C009001B3E0FEE42DDA
:10108800FFEC3E9001B2F0A3EFF07F6C1238A7900E
:1010980001B4E4F0A3EFF07F6D1238A7EFFD7C00F8
:1010A8009001B5E0FEE42DFFEC3E9001B4F0A3EF13
:1010B800F07D837FFF1239807F821238A79001AEBE
:1010C800E4F0A3EFF07F831238A7EFFD7C009001D6
:1010D800AFE0FEE42DFFEC3E9001AEF0A3EFF07F11
:1010E800861238A79001B0E4F0A3EFF07F8712389A
:1010F800A7EFFD7C009001B1E0FEE42DFFEC3E90EF
:1011080001B0F0A3EFF09000C9E07BFFB4011D7AB5
:1011180009795012291A9001AEE0C313F0A3E01325
:10112800F0A3E0C313F0A3E013F080337A097976D3
:1011380012291A9001AEE0FEA3E0FF7C007D0312A5
:1011480005309001AEEEF0A3EFF0A3E0FEA3E0FFC0
:101158007C007D031205309001B0EEF0A3EFF07F24
:10116800881238A79001ABEFF07BFF7A09799C12BF
:10117800291A9001AEE0FEA3E0FFE4FCFD1216A1DF
:101188009001B0E0FEA3E0FFE4FCFD1216A190017F
:10119800B2E0FEA3E0FFE4FCFD1216A19001B4E06A
:1011A800FEA3E0FFE4FCFD1216A17BFF7A0979D3C8
:1011B8009001ABE09001BBF012291A209018900121
:1011C800B0E0FEA3E0FF9001AFE02FFF9001AEE09A
:1011D8003E9001AC800B9001AEE0FFA3E09001AC23
:1011E800CFF0A3EFF09000ECE0FEA3E0FF9001AC9D
:1011F800E0B50639A3E0B507349000F6E0FEA3E0B9
:10120800FF9001B2E0B50625A3E0B507207BFF7A81
:101218000979FF12291AE4900116F090019004F060
:101228009000C4F0A37400F0A374E6F0229000D4F8
:10123800E0FEA3E0FF9001ACE0B5063BA3E0B507F4
:10124800369000DEE0FEA3E0FF9001B2E0B506278D
:10125800A3E0B507227BFF7A0A792312291A9001A5
:10126800167401F09000C4F0A37400F0A374CEF0DB
:101278009001907403F02290017EE0FEA3E0FF90BD
:1012880001ACE06E7003A3E06F7068900188E0FE27
:10129800A3E0FF9001B2E06E7003A3E06F7054C347
:1012A8009001B7E094BC9001B6E094027BFF502116
:1012B8007A0A794712291A9001167402F09000C42C
:1012C80014F0A37401F0A37478F09001907404F002
:1012D800227A0A796C12291A900116740BF0900080
:1012E800C47401F0A37401F0A37430F090019074F9
:1012F8003EF022900197E0FEA3E0FF9001ACE0B53C
:101308000638A3E0B507339001A1E0FEA3E0FF9003
:1013180001B2E0B50624A3E0B5071F7BFF7A0A797E
:101328009112291A9001167413F09000C47401F0F8
:10133800A37401F0A3749102163E900166E0FEA327
:10134800E0FF9001ACE0B50638A3E0B507339001A3
:1013580070E0FEA3E0FF9001B2E0B50624A3E0B57B
:10136800071F7BFF7A0A79B612291A9001167410A2
:10137800F09000C47401F0A37401F0A37460021625
:101388003E900069E0FEA3E0FF9001ACE06E7003C0
:10139800A3E06F7063900073E0FEA3E0FF9001B2DA
:1013A800E06E7003A3E06F704FC39001B7E094C282
:1013B8009001B6E094017BFF501C7A0A79DB122970
:1013C8001A9001167403F09000C47401F0A374001D
:1013D800F0A3746380667A0B790112291A900116BA
:1013E800740AF09000C47401F0A37400F0A37402AE
:1013F800F09001907422F022900039E0FEA3E0FF03
:101408009001ACE0B5063DA3E0B50738900043E095
:10141800FEA3E0FF9001B2E0B50629A3E0B50724DA
:101428007BFF7A0B792712291A900116740FF09016
:1014380000C47401F0A37400F0A37433F090019019
:101448007410F022900051E0FEA3E0FF9001ACE0A0
:10145800B5063DA3E0B5073890005BE0FEA3E0FFCA
:101468009001B2E0B50629A3E0B507247BFF7A0B0B
:10147800794D12291A900116740CF09000C4740169
:10148800F0A37400F0A3744BF0900190745FF02205
:101498009000B2E0FEA3E0FF9001ACE0B50638A3EF
:1014A800E0B507339000BCE0FEA3E0FF9001B2E096
:1014B800B50624A3E0B5071F7BFF7A0B79731229C1
:1014C8001A900116740DF09000C47401F0A3740012
:1014D800F0A374AC02163E90011EE0FEA3E0FF905C
:1014E80001ACE0B50638A3E0B50733900128E0FE6B
:1014F800A3E0FF9001B2E0B50624A3E0B5071F7B87
:10150800FF7A0B799912291A900116740EF090003F
:10151800C47401F0A37401F0A3741802163E90017C
:101528004EE0FEA3E0FF9001ACE0B50638A3E0B5BD
:101538000733900158E0FEA3E0FF9001B2E0B50642
:1015480024A3E0B5071F7BFF7A0B79BE12291A90F6
:1015580001167411F09000C47401F0A37401F0A393
:10156800744802163E900104E0FEA3E0FF9001AC2F
:10157800E0B50638A3E0B5073390010EE0FEA3E01E
:10158800FF9001B2E0B50624A3E0B5071F7BFF7A00
:101598000B79E312291A9001167412F09000C474A2
:1015A80001F0A37400F0A374FE02163E900021E03F
:1015B800FEA3E0FF9001ACE0B50637A3E0B5073223
:1015C80090002BE0FEA3E0FF9001B2E0B50623A354
:1015D800E0B5071E7BFF7A0C790712291A900116CD
:1015E8007414F09000C47401F0A37400F0A3741B89
:1015F8008044900099E0FEA3E0FF9001ACE0B506BE
:101608003CA3E0B507379000A3E0FEA3E0FF9001FC
:10161800B2E0B50628A3E0B507237BFF7A0C792D45
:1016280012291A9001167415F09000C47401F0A3E1
:101638007400F0A37493F0E4900190F0229000817C
:10164800E0FEA3E0FF9001ACE0B5063DA3E0B507DE
:101658003890008BE0FEA3E0FF9001B2E0B50629C8
:10166800A3E0B507247BFF7A0C795312291A90015D
:10167800167416F09000C47401F0A37400F0A374FB
:101688007BF0900190745AF0229001167417F07B49
:08169800FF7A0C797912291A7E
:0116A0002227
:102461009001ABEBF0A3EAF0A3E9F07D837FFF12CB
:1024710039809001ABE0FBA3E0FAA3E0F9900012F0
:10248100120612E5F0FD7F0D1239809001ABE0FBE1
:10249100A3E0FAA3E0F9900012120612FD7F0E12DA
:1024A10039809001ABE0FBA3E0FAA3E0F9900010C2
:1024B100120612E5F0FD7F0F1239809001ABE0FBAF
:1024C100A3E0FAA3E0F9900010120612FD7F1012AA
:1024D10039809001ABE0FBA3E0FAA3E0F99000089A
:1024E100120612E5F0FD7F111239809001ABE0FB7D
:1024F100A3E0FAA3E0F9900008120612FD7F121280
:1025010039809001ABE0FBA3E0FAA3E0F99000066B
:10251100120612E5F0FD7F131239809001ABE0FB4A
:10252100A3E0FAA3E0F9900006120612FD7F14124F
:1025310039809001ABE0FBA3E0FAA3E0F990000C35
:10254100120612FD7F151239809001ABE0FBA3E06A
:10255100FAA3E0F9900002120612FD7F16123980EB
:102561009001ABE0FBA3E0FAA3E0F990000A1206A8
:1025710012FD7F171239809001ABE0FBA3E0FAA3B3
:10258100E0F990000E120612FFAEF090000C120658
:10259100122FFFE5F03EAD077F181239809001AB95
:1025A100E0FBA3E0FAA3E0F91205E7FD7F19123978
:1025B100809001ABE0FBA3E0FAA3E0F990000412E4
:1025C1000612FFAEF09000021206122FE5F03EFD5A
:1025D1007F1A1239809001ABE0FBA3E0FAA3E0F986
:1025E100900004120612FFAEF09000021206122FA4
:0B25F100FFE5F03EAD077F1B023980C4
:102C44007D837FFF1239807D017F0B1239807D10D7
:102C54007F0C123980E4FD7F481239807D817F49E1
:102C64001239807D4A7F211239807D717F24123987
:102C7400807D307F251239807D017F2A1239807D45
:102C8400407F4A1239807D107F1D123980900116D1
:102C9400E024F3601114604124FC603D24FE24FD13
:102CA4005004240B704F20904C7D037F0B1239800D
:102CB4007DD07F0C1239807D037F481239807D805E
:102CC4007F491239807D407F2A1239807D307F1DF3
:102CD4001239807D307F2380197D707F24123980E2
:102CE4007D807F251239807D107F2A1239807DF006
:102CF4007F1D1239809000C4E0FBA3E0FAA3E0F941
:102D04001224617D837FFF12398090001AE0FD7FD9
:102D1400261239807D807FFF1239807D5A7F1112FF
:092D240039807DFA7F110239802B
:0B2008009000C4E0FBA3E0FAA3E0F9A5
:102013009000141207789001AB1207A87BFF7A0C8B
:10202300799F12291A9001ABE0FCA3E0FDA3E0FE27
:10203300A3E0FF1216A17D817FFF1239807D407FCF
:10204300231239807D627F241239807D807F25129F
:1020530039807D557F261239807D377F2C12398058
:102063007D017F2F1239807D557F261239807D6651
:102073007F271239807D887F281239807FF07E493F
:102083007D027C009001ABE0F8A3E0F9A3E0FAA3A2
:10209300E0FBD3120767400F7D887F2D12398090B4
:1020A30001AF7401F080387F707E117D017C009058
:1020B30001ABE0F8A3E0F9A3E0FAA3E0FBD3120736
:1020C30067400F7D997F2D1239809001AF7402F024
:1020D300800D7DAA7F2D1239809001AF7404F0E446
:1020E3007F05FEFDFC9001ABE0F8A3E0F9A3E0FA65
:1020F300A3E0FB12064AA804A905AA06AB079001B0
:10210300AFE0FFE4FCFDFE12064AE47B787A69F94E
:10211300F81206D590001AEFF07BFF7A0C79BBE03A
:102123009001BBF09001AFE09001BCF012291A7D41
:10213300837FFF1239807D407F2D1239807D087F98
:102143003112398090001AE04480FD7F26123980D5
:102153009001ABE0FCA3E0FDA3E0FEA3E0FFE47B82
:1021630002FAF9F81206D59001AB1207A87D827F17
:10217300FF123980E4FBFA7901F89001ABE0FCA38C
:10218300E0FDA3E0FEA3E0FF1206D5AD077FE31257
:1021930039809001ABA3A3E0FEA3E0FFE4FDFC9034
:1021A30001AB1207A8E4FB7A01F9F89001ABE0FC5C
:1021B300A3E0FDA3E0FEA3E0FF1206D5AD077FE495
:1021C3001239809001ABE0FCA3A3E0FEA3E0FFE49F
:1021D300AD077FE51239807D207FDE1239807DE0F7
:1021E3007FDE1239807D807FFF1239807DF17F167B
:1021F3001239807DF37F16123980E49001B0F07DAF
:10220300807FFF1239807DE37F161239807DF37F53
:10221300161239807D827FFF1239807F151238A70D
:10222300EF30E7097BFF7A0C79E802291A7D807F7A
:10223300FF1239807D5A7F111239807DFA7F111286
:1022430039807DDC7F181239807DFC7F181239803C
:102253007DF17F161239807DF37F161239807BFF63
:102263007A0D790612291A9001B0E004F0E0C394C4
:0322730006408C96
:012276002245
:10308F007D817FFF1239807D6A7F301239809000F9
:10309F00CCE070047D7380027D447F311239807DD6
:1030AF004A7F321239807D0B7F33123980E4FD7FE6
:1030BF0034123980E4FD7F35123980E4FD7F3612FA
:1030CF0039807D447F371239807D0F7F3F123980E1
:1030DF007DA07F401239807DA07F411239807DA075
:1030EF007F421239807DA07F431239807D0A7F4451
:0330FF0002398013
:103241007D817FFF1239807D407F231239807D820D
:103251007FFF1239807D207FDE1239807DE07FDEA5
:103261001239807D807FFF1239807DDC7F18123911
:10327100807DFC7F181239807DF17F161239807DA7
:10328100F37F161239807D5A7F111239807DFA7FC2
:10329100111239807D817FFF1239807DEA7F3002F2
:0232A100398072
:01003A0022A3
:10367F007D847FFF123980900117E0C43354E0241A
:10368F0010FF900190E0FEC374569EC39FFD7F43D1
:10369F00123980900117E0C43354E02410FD7F44A9
:1036AF00123980900190E0FD7F471239807D847F31
:1036BF00FF1239807D027F101239807D647F1202E4
:0236CF00398040
:103961009000C9E0B401177D827FFF1239807D1874
:0F3971007FB91239807BFF7A0D793112291A2222
:102F0A009000CBE070417BFF7A0D795312291A7D2C
:102F1A00827FFF1239807D8C7FD61239807D047FB3
:102F2A00D71239807D847FFF1239807D087F06128F
:102F3A0039807D107F071239807D297F0F123980F1
:102F4A007DD47F341239809000CBE06401703A7BE3
:102F5A00FF7A0D796A12291A7D827FFF1239807DE4
:102F6A008C7FD61239807D047FD71239807D847F89
:102F7A00FF1239807D0C7F061239807D107F07127F
:0A2F8A0039807DD47F341239802293
:1037BE007D827FFF1239807D0A7F581239807D808D
:1037CE007F591239807DF77F9E1239807DFEE4FF8E
:1037DE001239807D3F7F031239807DFF7F041239BD
:1037EE00807DFE7F041239807DFF7F071239807D38
:0637FE003F7F0702398045
:013A7C002227
:10399E007D827FFF1239807F5E1238A7EF30E207FB
:0D39AE009000017401F022E4900001F0226D
:10393E007D857FFF1239807D1F7F071239807DFEC6
:10394E007F131239807D0F7F171239807D057F1509
:03395E00023980AB
:103876007D807FFF1239807D7F7F141239807DFF26
:103886007F141239807D857FFF1239807D017F1577
:103896001239807D717F151239807D657F15023959
:0138A60080A1
:0E3A57007D857FFF1239807D457F1502398005
:1025FC009001AA1207B4000000007D827FFF1239FF
:10260C00807D037FC71239807F327E007D007C0085
:10261C001235247FCD1238A79001A9EFF0546064D5
:10262C006060030226C3E0540FFFE4FCFDFEFBFADE
:10263C007901F812064A9001AA1207A87FCE123827
:10264C00A79001A9EFF0A3E0F8A3E0F9A3E0FAA3A7
:10265C00E0FB9001A9E07F00FEE4FCFDEF2BFFEA1C
:10266C003EFEED39FDEC38FCA31207A87FCF1238E3
:10267C00A79001A9EFF0A3E0F8A3E0F9A3E0FAA377
:10268C00E0FB9001A9E0FFE4FCFDFEEB2FFFEE3A2E
:10269C00FEED39FDEC38FCA31207A87BFF7A0D790F
:1026AC007F12291A9001AAE0FCA3E0FDA3E0FEA38F
:1026BC00E0FF1216A180097BFF7A0D799412291A7A
:1026CC007D827FFF1239807D047FC71239807F3273
:1026DC007E007D007C001235247FCD1238A790013E
:1026EC00A9EFF0546064606003022787E0540FFF89
:1026FC00E4FCFDFEFBFA7901F812064A9001AA12DD
:10270C0007A87FCE1238A79001A9EFF0A3E0F8A399
:10271C00E0F9A3E0FAA3E0FB9001A9E07F00FEE45E
:10272C00FCFDEF2BFFEA3EFEED39FDEC38FCA3126D
:10273C0007A87FCF1238A79001A9EFF0A3E0F8A368
:10274C00E0F9A3E0FAA3E0FB9001A9E0FFE4FCFDB3
:10275C00FEEB2FFFEE3AFEED39FDEC38FCA3120731
:10276C00A87BFF7A0D79AF12291A9001AAE0FCA37D
:10277C00E0FDA3E0FEA3E0FF0216A17BFF7A0D793A
:04278C00C412291A30
:012790002226
:1035D600E49001ABF07D827FFF1239807F8612383E
:1035E600A79001A9E4F0A3EFF07F871238A7EFFDBB
:1035F6007C009001AAE0FEE42DFFEC3E9001A9F0CC
:10360600A3EFF07BFF7A0D79DF12291A9001A9E06A
:10361600FEA3E0FFE4FCFD1216A19001ABE004F06E
:06362600E0C3940A40AF6E
:01362C00227B
:013A7D002226
:102A4C007D837FFF1239807FBC1238A79001A9EFDC
:102A5C00F07BFFBF55067A0D79F2800C7A0E790C5B
:102A6C009001A9E09001BBF012291A7F991238A7A6
:102A7C009001A9EFF07BFFBFB8067A0E792F800C7E
:102A8C007A0E794A9001A9E09001BBF012291A7FC5
:102A9C009B1238A79001A9EFF07BFFBFB8067A0E06
:102AAC007969800C7A0E79849001A9E09001BBF0D1
:102ABC0012291A7F9D1238A79001A9EFF07BFFBF56
:102ACC00B8067A0E79A3800C7A0E79BE9001A9E033
:102ADC009001BBF012291A7F9F1238A79001A9EF21
:102AEC00F07BFFBFB8067A0E79DD800C7A0E79F890
:102AFC009001A9E09001BBF012291A7F9A1238A715
:102B0C009001BBEFF07BFF7A0F791712291A7F9C8B
:102B1C001238A79001BBEFF07BFF7A0F79331229A3
:102B2C001A7F9E1238A79001BBEFF07BFF7A0F79CA
:102B3C004F12291A7FA01238A79001BBEFF07BFF30
:072B4C007A0F796B02291AD0
:102B53007BFF7A0F798712291A7D827FFF123980D2
:102B63007F0F1238A79001A9EFF07F0C1238A790BE
:102B730001AAEFF09001A9E054C0FFBFC0181239B9
:102B83009E7D827FFF1239807DFF7F071239807D12
:102B93003F7F071239809001A9E030E7247BFF7A59
:102BA3000F799912291A123A5712003A7D827FFF40
:102BB3001239807DBF7F071239807D3F7F0712392D
:102BC300809001A9E030E6247BFF7A0F79AB1229CC
:102BD3001A1238761232417D827FFF1239807D7F4F
:102BE3007F071239807D3F7F071239809001AAE069
:102BF30030E04D7BFF7A0F79BA12291A7D827FFF6D
:102C03001239807DFF7F9E1239807DF77F9E1239B6
:102C1300807DFF7F041239807DFE7F041239807F1F
:102C2300647E007D007C001235241210389001165A
:102C3300E0B4170302003A122008122C4412324166
:012C4300226E
:10279100900247EBF0A3EAF0A3E9F07D827FFF12FC
:1027A1003980900247E0FBA3E0FAA3E0F99000042E
:1027B100120612FFAEF09000021206122FE5F03E53
:1027C100FD7FA3123980900247E0FBA3E0FAA3E06A
:1027D100F9900004120612FFAEF0900002120612E8
:1027E1002FFFE5F03EAD077FA4123980900247E04C
:1027F100FBA3E0FAA3E0F990000E120612FFAEF07F
:1028010090000C1206122FFFE5F03EAD077FA512D6
:102811003980900247E0FBA3E0FAA3E0F9900006BB
:10282100120612E5F0FD7FA6123980900247E0FB07
:10283100A3E0FAA3E0F9900006120612FD7FA712A9
:102841003980900247E0FBA3E0FAA3E0F990001081
:10285100120612E5F0FD7FA8123980900247E0FBD5
:10286100A3E0FAA3E0F9900010120612FD7FA9126D
:102871003980900247E0FBA3E0FAA3E0F990000859
:10288100120612E5F0FD7FAA123980900247E0FBA3
:10289100A3E0FAA3E0F9900008120612FD7FAB1243
:1028A1003980900247E0FBA3E0FAA3E0F99000121F
:1028B100120612E5F0FD7FAC123980900247E0FB71
:1028C100A3E0FAA3E0F9900012120612FD7FAD1207
:1028D1003980900247E0FBA3E0FAA3E0F9900002FF
:1028E100120612E5F0FD7FAE123980900247E0FB3F
:1028F100A3E0FAA3E0F9900002120612FD7FAF12E5
:102901003980900247E0FBA3E0FAA3E0F990000CC4
:09291100120612FD7FB0023980AC
:102D2D0090001412077890022F1207A87BFF7A0FDC
:102D3D0079CF12291A90022FE0FCA3E0FDA3E0FE4B
:102D4D00A3E0FF1216A17D837FFF1239807D507F96
:102D5D002D1239807F287E887D047C0090022FE023
:102D6D00F8A3E0F9A3E0FAA3E0FBC3120767700E26
:102D7D007DB67F261239807DF07F271239807F1432
:102D8D007E447D027C0090022FE0F8A3E0F9A3E0E1
:102D9D00FAA3E0FBC312076770077DB77F261239D0
:102DAD00807F0A7E227D017C0090022FE0F8A3E057
:102DBD00F9A3E0FAA3E0FBC312076770077D9C7FC0
:102DCD00261239807D807FFF1239807D5A7F111246
:092DDD0039807DFA7F1102398072
:103A30007D827FFF1239807D807F4F1239807D200B
:053A40007F50023980F7
:103173009000C47401F0A37400F0A37463F01233DD
:10318300021231DF123A301220089000C4E0FBA390
:10319300E0FAA3E0F912279112367F12308F123230
:1031A30041123A7D7D827FFF1239807D8C7FD6125A
:1031B30039807D067FD71239807D847FFF12398065
:1031C3007D0C7F061239807D107F071239807D01C7
:0C31D3007F161239807DD47F34023980D1
:103102001233021231DF1233BA122DE67FE87E0348
:103112007D007C00123524121038122008122C4433
:10312200122F0A12396112393E12367F12308F1273
:1031320037BE7BFF7A0F79E212291A12399E90006C
:1031420001E07BFF60127A10791512291A123A7C7B
:10315200123241123876800D7A10792712291A120A
:103162003A5712003A1225FC122A4C1235D6023A6C
:013172007DDF
:03003B000238F791
:1038F700C0E0C083C082C0D0E5ECB4080575EC0019
:10390700C28990024C7401F0539BFDD0D0D082D075
:0439170083D0E03247
:03000000022E7E4F
:0C2E7E00787FE4F6D8FD758121022EC596
:1034CB009002331207A8538EF7438901D28CE4FF85
:1034DB00FEFDFC900233E0F8A3E0F9A3E0FAA3E0D1
:1034EB00FBC3120767602F758A7E758CFF308DFDCD
:1034FB00C28D900233E0FCA3E0FDA3E0FEA3E02429
:10350B00FFFFEE34FFFEED34FFFDEC34FFFC9002C9
:09351B00331207A880B8C28C220B
:103524009001F51207A8538EF7438901D28CE4FF6A
:10353400FEFDFC9001F5E0F8A3E0F9A3E0FAA3E0B6
:10354400FBC3120767602F758ACA758CFA308DFD2C
:10355400C28D9001F5E0FCA3E0FDA3E0FEA3E0240E
:10356400FFFFEE34FFFEED34FFFDEC34FFFC900171
:09357400F51207A880B8C28C22F0
:10357D009002371207A8538EEF438910D28EE4FFC5
:10358D00FEFDFC900237E0F8A3E0F9A3E0FAA3E01A
:10359D00FBC3120767602F758BEA758DCB308FFDDE
:1035AD00C28F900237E0FCA3E0FDA3E0FEA3E02470
:1035BD00FFFFEE34FFFEED34FFFDEC34FFFC900217
:0935CD00371207A880B8C28E2253
:10335E0090023B1207A853C9BF53C9DF43C910D20D
:10336E00CAE4FFFEFDFC90023BE0F8A3E0F9A3E007
:10337E00FAA3E0FBC3120767602F75CC3075CDF84A
:10338E0030CFFDC2CF90023BE0FCA3E0FDA3E0FEF8
:10339E00A3E024FFFFEE34FFFEED34FFFDEC34FF1F
:0C33AE00FC90023B1207A880B8C2CA22A3
:1034150090023F1207A875C40743C408E4FFFEFDE8
:10342500FC90023FE0F8A3E0F9A3E0FAA3E0FBC3B8
:10343500120767603275C52C75C6CFE5C430E4FB4D
:1034450053C4EF90023FE0FCA3E0FDA3E0FEA3E040
:1034550024FFFFEE34FFFEED34FFFDEC34FFFC905E
:0B346500023F1207A880B553C4F722F5
:103470009002431207A875C40743C408E4FFFEFD89
:10348000FC900243E0F8A3E0F9A3E0FAA3E0FBC359
:10349000120767603275C5D875C6FFE5C430E4FB16
:1034A00053C4EF900243E0FCA3E0FDA3E0FEA3E0E1
:1034B00024FFFFEE34FFFEED34FFFDEC34FFFC9003
:0B34C00002431207A880B553C4F72296
:101B8500E50824F8F582E43401F583E005082290A0
:101B950001F53007039001F8E475F0011207E5023D
:101BA50004D82000E97F2ED2008018EF540F24902E
:101BB500D43440D4FF30040BEF24BFB41A005003D3
:101BC5002461FFE50960021509050CE50C700205A5
:101BD5000B30070E9001F5E475F0011207E5EF02F1
:101BE500051E0238D07403D2078003E4C207F50846
:101BF5009001F51207FCE4F509F50BF50CE5096014
:101C0500077F20121BC880F5750AFFC201C200C2FA
:101C150002C203C205C206C208121B94FF700D3032
:101C250007057F00121BD9AF0CAE0B22B4255FC28E
:101C3500D5C204121B94FF24D0B40A00501A75F0C3
:101C45000A780930D50508B6FF0106C6A426F62090
:101C5500D5047002D20380D924CFB41A00EF500402
:101C6500C2E5D204021ECBD20180C6D20080C0D20A
:101C75000280BCD2D580BAD20580B47F20121BC8A1
:101C85002002077401B5090040F1121B85FF121BE4
:101C9500C8021C02D208D2068095121B85FB121BB6
:101CA50085FA121B85F94A4B700679C97A1F7BFFA5
:101CB50020022EE509602A7E008E827583001204BB
:101CC500F160060EEE650A70F0C2D5EBC0E0EAC021
:101CD500E0E9C0E0EE121F2CD0E0F9D0E0FAD0E048
:101CE500FB1204D8FF60AAEBC0E0EAC0E0E9C0E05F
:101CF500121BC8D0E02401F9D0E03400FAD0E0FB93
:101D0500E50A0460DCD50AD98087D20280A2121FB9
:101D15000E60F7E50A70010412003EA90A600DE5A0
:101D25000A600914F50A121FB6EF60F3EA30E702FC
:101D3500F404C3995079EAF4250A0430E701E40470
:101D4500F50A800D121F0E60C1EA050A250A120068
:101D55003EEA900224F030E701E4250A04D50A049E
:101D650020050114121F2CE4C0E0121FB6900224B6
:101D7500E0601320E70714F0121BB0802204F0D0B6
:101D8500E014C0E07F00121BB0E50A6007121BA734
:101D9500150A800B300503121BA7D0E0021C02D0E8
:101DA500E00480C4121F0E609EE50A0412003E90F6
:101DB5000224EAF0E50A2005026001042404121F4A
:011DC5002CF1
:101DC60074FF04C0E0121FB6121BB0E50A2005021C
:101DD6006003121BA7D0E0B50AE87F45121BBA9034
:101DE6000224E07F2B30E7047F2DF404C0E0121BB1
:101DF600C8D0E075F00A84C0F0121BB1D0E0121B07
:101E0600B1021C02791080027908C206C208800855
:101E1600D2D5790A8004790AC2D5E50A047002F59A
:101E26000AE4FAFDFEFF121B85FC7B082001131253
:101E36001B85FD7B1030000A121B85FE121B85FFD9
:101E46007B20EC3382D592D55013C3E43000069F35
:101E5600FFE49EFEE42001039DFDE49CFCE4CBF838
:101E6600C201EC700CCFCECDCCE824F8F870F3802C
:101E760017C3EF33FFEE33FEED33FDEC33FCEB33EC
:101E8600FB994002FB0FD8E9EB300105F8D0E0C41E
:101E960048B201C0E00AEC4D4E4F78207B0070C27C
:101EA600EAB50A0040BCC0E0121F2ED0F0D0E020F8
:101EB6000104C4C0E0C4B201C0F0121BB1D0F0D519
:101EC600F0EB021C021208051C9F531E0A581C70D8
:101ED6004C1C6C421E0E4F1E16441E16491C854392
:101EE6001E1C551D49461DA9451D13471FE9501CBB
:101EF600742D1C782E1C9B2B1C7C231C99201FD216
:101F06002A1C344800001C93E50AB4FF03750A0630
:101F1600121B85FC121B85FD121B85FE121B85FFFD
:101F260090021D02007B790AA2D520031430050910
:101F3600B910020404B9080104A2D5200602500112
:101F4600042002689202B509005034C0E07F2030B8
:101F560003197F30A20272067205500F121F85C246
:101F660002C206C205C2087F30800F300503E9C0F1
:101F7600E0121BC8300503D0E0F9D0E0B509CC303B
:101F860005177F30B9100C121BC87F583004077F25
:101F9600788003B90803121BC83002057F2D021B87
:101FA600C87F202008F87F2B2006F322920280CFDC
:101FB6007F00B40700500B241DF582E43402F5833C
:101FC600E0FF22286E756C6C2900D201121B853049
:101FD60001F8C201780930D50108F6021C342D50EB
:101FE600434958121B852403B405004001E4901FA1
:101FF600E493121BB9743A121BB9D2037509040291
:022006001E0AB0
:10003E00F920E73624F950037907E4F42402FBE5AE
:10004E0082158270021583DBF6E024FB501BE960FB
:10005E0014E4F0E582158270021583E004F0B40A10
:0D006E0008E4F0D9EE7401F00A22C2D52298
:10007B00ED33EC3392D5FA602AB4FF33EDC2E77B54
:10008B00FF60067A0079A0E4227A0079A920D504D2
:10009B007A0079A4224E614E002B494E46002D4921
:1000AB004E4600E47A08F0A3DAFC7B00740722C00A
:1000BB0083C082ECC0E0EDC0E0EEC0E0EFC0E0EA50
:1000CB0075F010A4CAABF075F04DA42BFBE435F022
:1000DB00FCEA2410FAEB34C5FBEC34D9FCEDC2E797
:1000EB00FF75F056A4F42411C5F0F434C58FF0A4B9
:1000FB002AE5F03BE43CF020E71412044ED0E0FF7D
:10010B00D0E0FED0E0FDD0E0FC1203818014F404BB
:10011B0012044ED0E0FFD0E0FED0E0FDD0E0FC12A8
:10012B000278D082D083E0FAEDD2E7CD33EC3324E2
:10013B0082FBE4C3CF33CFCE33CECD33CD33DBF322
:10014B007B0775F00A846004F0A31B0AE5F0F0A3AB
:10015B008FF0740AA4FFACF08EF0740AA42CFEACE2
:10016B00F050010C8DF0740AA42CFDE435F0F0A3D3
:05017B00DBDE74072229
:100180000204C3E86480F8E933E83360110460F0E6
:10019000ED33EC337009E8FCE9FDEAFEEBFF2204E5
:1001A00060DED3EB9FEA9EE99DE8C2E78CF0C2F7E0
:1001B00095F0400CE8CCF8E9CDF9EACEFAEBCFFBAC
:1001C00012048E85D0F05804700320D5B3E8047073
:1001D000075002B2D50204CD92D5EC0460F7E4CC0E
:1001E000C0E0C398F8603B94186008400DD0E0FB75
:1001F0000204A5E4FBFAC9FC8028E830E406E4C95F
:10020000FBE4CAFCE830E305E4C9CACBFCE85407C8
:100210006010F8C3E913F9EA13FAEB13FBEC13FCD3
:10022000D8F130F52FC3E49CFCEF9BFFEE9AFEED76
:1002300099FDD0E0FBEF4E4D4C701222DB0302041F
:10024000CAEC2CFCEF33FFEE33FEED33FDED30E76F
:10025000EB0204A5EF2BFFEE3AFEED39FDD0E0FBFB
:1002600050130BBB00030204CDED13FDEE13FEEFA4
:0802700013FFEC13FC0204A5CE
:10027800EC4D6011E8497017ED33EC3304600DE480
:10028800FCFFFEFD22E933E8330470F80204C312D0
:10029800048E58046009E4CC2481500628500902D1
:1002A80004CD2840030204CAC0E0EB4A7044B98078
:1002B80006D0E0FB0204B9EF4E701CBD8008EBFFCE
:1002C800EAFEE9FD80EBE98DF0A4FEE5F0020361AA
:1002D800E9CDF9EAFEEBFFEF89F0A4FCE5F0CE8961
:1002E800F0A42EFFE435F0CD89F0A42DFEE435F01E
:1002F8008067EF4E7005BD80D780C3EF8BF0A4AC4C
:10030800F0EE8BF0A42CFCE435F0F8EF8AF0A42C86
:10031800E5F038FCE433CB8DF0A42CFCE5F03BF899
:10032800EE8AF0A42CFCE5F038F8E433CF89F0A489
:100338002CFCE5F038CF3400CE89F0A42FFFE5F08F
:100348003EFEE433C98DF0A42EFEE5F039CD8AF0E7
:10035800A42FFFE5F03EFEE43DFD33D0E0FB50075F
:100368000BBB000F0204CDEC2CFCEF33FFEE33FE89
:06037800ED33FD0204A5B7
:10037E000204CDEC5D046005E8590470030204C369
:10038E0012048E580460F6EC4860F2EC7004FDFE28
:10039E00FF22C860DB2481C85009C3986002500652
:1003AE000204CA9850CAF582E9294B4A7005AB82FD
:1003BE000204B975F0007C1A7880C3EF9BEE9AEDBB
:1003CE0099400DC3EF9BFFEE9AFEED99FDE842F0CA
:1003DE00DC23ACF0D0E0FFD0E0FED0E0FDAB82201D
:1003EE00E7101BEB60BAEC2CFCEF33FFEE33FEEDA7
:1003FE0033FD0204A5E803F830E705C0F075F00000
:10040E00EF2FFFEE33FEED33FD40B830E7C280AA8A
:10041E003F8000004120000042C80000447A0000E6
:10042E00461C400047C35000497424004B18968068
:10043E004CBEBC205A0E1BCA6753C21C749DC5AE5F
:10044E00FB60065407601C232312047CEB543860B7
:10045E0009120468120477120278ECF8EDF9EEFA3C
:10046E00EFCB22EB12047780F1543803241C900456
:10047E001EFE93FC0EEE93FD0EEE930ECE93FF2218
:10048E00E9D2E7C933E833F892D5EDD2E7CD33ECB4
:07049E0033FC5002B2D5222D
:1004A500EC30E7100FBF000C0EBE00080DBD0004B8
:1004B5000BEB6014A2D5EB13FCED92E7FD2274FF64
:1004C500FCFDFEFF22E480F8A2D574FF13FC7D80BD
:0304D500E480EFD1
:102E8A0002383DE493A3F8E493A34003F68001F2E9
:102E9A0008DFF48029E493A3F85407240CC8C33349
:102EAA00C4540F4420C8834004F456800146F6DF18
:102EBA00E4800B0102040810204080902277E47E0F
:102ECA00019360BCA3FF543F30E509541FFEE4930D
:102EDA00A360010ECF54C025E060A840B8E493A3D4
:102EEA00FAE493A3F8E493A3C8C582C8CAC583CAFF
:102EFA00F0A3C8C582C8CAC583CADFE9DEE780BEB7
:01246000007B
:1004D800BB010689828A83E0225002E722BBFE0222
:0904E800E32289828A83E4932255
:1004F100BB010CE58229F582E5833AF583E02250C0
:1005010006E92582F8E622BBFE06E92582F8E22209
:0D051100E58229F582E5833AF583E4932223
:10051E00BB010689828A83F0225002F722BBFE01BC
:02052E00F322B6
:10053000BC000BBE0029EF8DF084FFADF022E4CCAF
:10054000F875F008EF2FFFEE33FEEC33FCEE9DEC78
:10055000984005FCEE9DFE0FD5F0E9E4CEFD22EDBE
:10056000F8F5F0EE8420D21CFEADF075F008EF2F08
:10057000FFED33FD4007985006D5F0F222C398FDF9
:050580000FD5F0EA2296
:10058500C2D5EC30E709B2D5E4C39DFDE49CFCEE91
:1005950030E715B2D5E4C39FFFE49EFE120530C3D4
:1005A500E49DFDE49CFC800312053030D507C3E4CF
:0605B5009FFFE49EFE2200
:1005BB00C5F0F8A3E028F0C5F0F8E58215827002CB
:0605CB001583E038F02268
:1005D100A3F8E0C5F025F0F0E582158270021583DD
:0605E100E0C838F0E8223A
:1005E700BB010A89828A83E0F5F0A3E022500687DF
:1005F700F009E71922BBFE07E3F5F009E3192289A1
:0B060700828A83E493F5F074019322D3
:10061200BB0110E58229F582E5833AF583E0F5F026
:10062200A3E0225009E92582F886F008E622BBFE03
:100632000AE92582F8E2F5F008E222E5832AF58349
:08064200E993F5F0A3E993220E
:10064A00E88FF0A4CC8BF0A42CFCE98EF0A42CFC4F
:10065A008AF0EDA42CFCEA8EF0A4CDA8F08BF0A4CD
:10066A002DCC3825F0FDE98FF0A42CCD35F0FCEB2C
:10067A008EF0A4FEA9F0EB8FF0A4CFC5F02ECD39F1
:0F068A00FEE43CFCEAA42DCE35F0FDE43CFC225E
:1006990075F008758200EF2FFFEE33FECD33CDCC18
:1006A90033CCC58233C5829BED9AEC99E58298409B
:1006B9000CF582EE9BFEED9AFDEC99FC0FD5F0D678
:1006C900E4CEFBE4CDFAE4CCF9A88222B800C1B9A2
:1006D9000059BA002DEC8BF084CFCECDFCE5F0CBE0
:1006E900F97818EF2FFFEE33FEED33FDEC33FCEB19
:1006F90033FB10D703994004EB99FB0FD8E5E4F9D4
:10070900FA227818EF2FFFEE33FEED33FDEC33FCC0
:10071900C933C910D7059BE99A4007EC9BFCE99AB4
:10072900F90FD8E0E4C9FAE4CCFB2275F010EF2FF9
:10073900FFEE33FEED33FDCC33CCC833C810D707F9
:100749009BEC9AE899400AED9BFDEC9AFCE899F834
:0E0759000FD5F0DAE4CDFBE4CCFAE4C8F922C7
:10076700EB9FF5F0EA9E42F0E99D42F0E89C45F0E8
:01077700225F
:10077800BB010DE58229F582E5833AF58302083746
:100788005007E92582F802082BBBFE07E92582F805
:10079800020843E58229F582E5833AF58302084F8A
:0C07A800ECF0A3EDF0A3EEF0A3EFF022C4
:1007B400A8828583F0D083D0821207CB1207CB1294
:1007C40007CB1207CBE473E493A3C583C5F0C583B9
:1007D400C8C582C8F0A3C583C5F0C583C8C582C88F
:0107E40022F2
:1007E500F8E0FBA3A3E0F925F0F0E582158270029D
:0707F5001583E0FA38F02241
:0907FC00EBF0A3EAF0A3E9F022FE
:10080500D083D082F8E4937012740193700DA3A382
:1008150093F8740193F5828883E473740293686096
:06082500EFA3A3A380DF96
:1038D000EFB40A07740D1238DB740A309811A899F6
:1038E000B8130CC2983098FDA899C298B811F63058
:0738F00099FDC299F5992230
:0C082B00E6FC08E6FD08E6FE08E6FF22F9
:0C083700E0FCA3E0FDA3E0FEA3E0FF2234
:0C084300E2FC08E2FD08E2FE08E2FF22F1
:10084F00E493FC740193FD740293FE740393FF22EF
:00000001FF
