:10393B0053B1BF53B2BF53B17F53B27F759850434E
:10394B008920438780438E1053C4DFAB07AA06A997
:10395B0005A8047F407E427D0F7C001220C8EF0437
:09396B00F404F58DD28ED29922EC
:083BD900C2998F993099FD2279
:03003700023BD9B0
:1038BD000D0A2323232323232323232323232323FA
:1038CD002323232323232323232323236D637520E2
:1038DD00737461727423232323232323232323232C
:1038ED00232323232323232323232323232323239B
:0438FD00232323005E
:043AAB004100AB002B
:1037E40043B30153B4FE43B30253B4FD43B3045390
:1037F400B4FB43B10853B2F743B11053B2EF53AC27
:10380400FE43AD0143B30843B40843B31043B410BB
:103814007F007EC27D017C0012393B53E9FB43E902
:0D3824002043EA0853EBF7439B02D2AF228A
:103B0000C2B07FC87E007D007C00123691D2B07FAB
:0A3B1000C87E007D007C00023691A3
:103B99001237E47BFF7A3879BD121C11123B0012EF
:043BA90031A980FEC0
:043AAF004100A776B5
:073BAD00123BB4D2937F0A22
:0A3BB400E4FEEEC39F50030E80F8FC
:013BBE0022E4
:103B3000D2947F01123BADC2947F07123BB4C29373
:053B40007F01023BB40F
:0C3BCD00C2947F02123BADD294023BB4C4
:02374300AD07D0
:10374500E4FCEDA804088002C333D8FC30E704D2BA
:10375500948002C2947F03123BB4D2930F123BB400
:10376500C2930CECB408DB7F01123BB4D2947F0307
:10377500123BB4D293123BB4309407E49000A8F006
:0F37850080069000A87401F0C2937F03023BB44A
:10000300E4FDD294FC7F01123BB4C2937F04123B04
:10001300B4D2937F02123BB4ED25E0FD3094010D81
:100023007F02123BB40CECB408DBC2937F05123B96
:03003300B4AF0562
:0100360022A7
:103AC800EF7004C2948002D2947F08123BB4D29360
:0C3AD8007F0F123BB4C2937F08023BB486
:07346C0090003AEDF0AC07FF
:10347300123B30AF041237439000A8E07002802D56
:1034830090003AE0FF1237439000A8E07002801DDD
:10349300E490003FF090003EE0FFA3E0C39F502282
:1034A300121F0BFF1237439000A8E07006123BCDAA
:1034B3007F0022740129F9E43AFA90003FE004F016
:0734C30080D3123BCD7F0115
:0134CA0022DF
:08303500900039EFF0A3EDF06B
:10303D00123B30900039E0FF1237439000A8E0704A
:10304D0002802290003AE0FF1237439000A8E07012
:10305D00028012123B30900039E004FF123743908A
:10306D0000A8E07009123BCDE4121F51FF22E4903D
:10307D00003FF090003EE014FFA3E0C39F501B12F1
:10308D000003EF121F51E4FF123AC8740129F9E44D
:10309D003AFA90003FE004F080D9120003EF121FBE
:0B30AD00517F01123AC8123BCD7F0199
:0130B80022F5
:02397400AE079C
:10397600E4900038F09000A7E0FFAD067B017A00E6
:10398600793890003E7401F0123035EF60069000F1
:0639960038E0FF227F0073
:01399C002208
:023B4500AE07C9
:103B47009000A7E0FFAD06900071E090003EF012F4
:023B5700303507
:013B59002249
:073A6F00900038EDF0AE07F6
:103A76009000A7E0FFAD067B017A00793890003E02
:063A86007401F012346C23
:013A8C002217
:023B5A00AE07B4
:103B5C009000A7E0FFAD06900076E090003EF012DA
:023B6C00346CB7
:013B6E002234
:10003E000A4C54393631312072696E672043686933
:10004E0070204944203D2030782562782C2030786D
:10005E002562782C2030782562782020000D0A1B2E
:10006E005B33356D4C54393631315F4C6F77506F91
:10007E007765725F6D6F64653A20656E7465722088
:10008E006C6F7720706F776572206D6F64651B5B88
:10009E0033376D000D0A1B5B33356D4C54393631D9
:1000AE00315F4C6F77506F7765725F6D6F64653A35
:1000BE002065786974206C6F7720706F7765722079
:1000CE006D6F64651B5B33376D000A4C54393631E6
:1000DE00315F4D4950495F496E7075745F44696771
:1000EE0074616C3A206C743936313120736574202A
:1000FE006D697069206C616E6573203D20256264A8
:10010E00000A4C54393631315F4D4950495F496EC2
:10011E007075745F44696774616C3A206C7439361B
:10012E00313120736574206D69706920706F72743F
:10013E0073203D2031000A4C54393631315F4D4920
:10014E0050495F496E7075745F44696774616C3AAB
:10015E00206C743936313120736574206D69706985
:10016E0020706F7274203D2032000A4C54393631A3
:10017E00315F4D4950495F496E7075745F446967D0
:10018E0074616C3A204C54393631312E6D69706978
:10019E005F6D6F6465203D20637369000A4C5439AE
:1001AE003631315F4D4950495F496E7075745F4409
:1001BE00696774616C3A204C54393631312E6D6951
:1001CE0070695F6D6F6465203D20647369001B5B11
:1001DE0033326D000A4C54393631315F56696465DD
:1001EE006F5F436865636B3A20685F746F74616C10
:1001FE005F737973636C6B203D202564000A4C5449
:10020E00393631315F566964656F5F436865636B7C
:10021E003A206C74393631312E696E7075745F63A5
:10022E006F6C6F725F7370616365203D2059555618
:10023E00343232000A4C54393631315F56696465B6
:10024E006F5F436865636B3A206C74393631312EBB
:10025E00696E7075745F636F6C6F725F73706163DC
:10026E0065203D20524742383838000A4C54393602
:10027E0031315F566964656F5F436865636B3A2021
:10028E00685F6163745F612C20685F6163745F6295
:10029E002C20765F6163742C20765F74616C3A203B
:1002AE0025642C2025642C2025642C2025642C20EC
:1002BE00000A4C54393631315F566964656F5F43BD
:1002CE006865636B3A206D6970695F766964656F06
:1002DE005F666F726D61743A203078256278000D1A
:1002EE000A4C54393631315F566964656F5F436825
:1002FE0065636B3A20566964656F5F466F726D6118
:10030E0074203D0020766964656F5F363430783432
:10031E0038305F3630487A200020766964656F5F2A
:10032E00373230783438305F3630487A20002076D5
:10033E006964656F5F373230783537365F353048F0
:10034E007A200020766964656F5F313238307837F5
:10035E0032305F3630487A200020766964656F5FF0
:10036E0031323830783732305F3530487A200020DD
:10037E00766964656F5F31323830783732305F338B
:10038E0030487A200020766964656F5F31393230EB
:10039E0078313038305F3630487A20002076696404
:1003AE00656F5F3139323078313038305F353048F3
:1003BE007A200020766964656F5F3139323078318A
:1003CE003038305F3330487A200020766964656FAC
:1003DE005F3139323078313038305F3235487A20FB
:1003EE000020766964656F5F31393230783130388C
:1003FE00305F3234487A200020766964656F5F334F
:10040E0038343078323136305F3330487A2000203D
:10041E00766964656F5F3338343078323136305FE9
:10042E003235487A200020766964656F5F33383440
:10043E003078323136305F3234487A200020766997
:10044E0064656F5F383030783630305F3630487ADA
:10045E00200020766964656F5F313032347837362C
:10046E00385F3630487A200020766964656F5F31D8
:10047E00323830783736385F3630487A200020767A
:10048E006964656F5F31323830783830305F3630BE
:10049E00487A200020766964656F5F313238307893
:1004AE003830305F3330487A200020766964656FCB
:1004BE005F31323830783936305F3630487A200046
:1004CE0020766964656F5F31323830783936305F47
:1004DE003330487A200020766964656F5F31323898
:1004EE003078313032345F3630487A2000207669E9
:1004FE0064656F5F3136303078313230305F363090
:10050E00487A200020766964656F5F31363830781E
:10051E00313035305F3630487A2000207669646598
:10052E006F5F31333636783736385F3630487A205B
:10053E000020766964656F5F323536307831343439
:10054E00305F3630487A200020766964656F5F32FE
:10055E0035363078313434305F3530487A200020EB
:10056E00766964656F5F37323078313038305F3698
:10057E0030487A200020766964656F5F31303830FC
:10058E0078313932305F3630487A2000207669640F
:10059E00656F5F3338343078313038305F363048FD
:1005AE007A200020766964656F5F31303234783698
:1005BE0030305F3630487A200020766964656F5F90
:1005CE00353430783936305F3630487A2000207630
:1005DE006964656F5F3235363078313630305F366C
:1005EE0030487A200020766964656F5F3235363088
:1005FE0078313038305F3630487A200020766964A2
:10060E00656F5F32353630783732305F3630487A44
:10061E00200020766964656F5F3732307835303769
:10062E005F3630487A200020766964656F5F313915
:10063E003230783732305F3630487A200020756E8F
:10064E006B6E6F776E20766964656F20666F726D64
:10065E00617420001B5B33376D1B5B33376D000DF0
:10066E000A4C54393631315F4D4950495F506372EF
:10067E003A20363430783438305F3630487A000DD0
:10068E000A4C54393631315F504C4C3A20736574F4
:10069E0020727820706C6C203D20256C64000D0A51
:1006AE004C54393631315F504C4C3A207063725F86
:1006BE006D203D2030782562782C2068646D695F4E
:1006CE00706F73745F646976203D20256264000D3F
:1006DE000A4C54393631315F504C4C3A2048444D17
:1006EE004920706C6C206C6F636B6564000D0A4C56
:1006FE0054393631315F504C4C3A2048444D4920E4
:10070E00706C6C20756E6C6F636B65642C207265FB
:10071E0073657420706C6C000D0A4C54393631318F
:10072E005F48444D495F54585F5068793A204143C1
:10073E0020636F75706C65000D0A4C54393631317B
:10074E005F48444D495F54585F5068793A2044439E
:10075E0020636F75706C65000D0A1B5B33356D4C35
:10076E0054393631315F48444D495F4F75745F459A
:10077E006E61626C651B5B33376D000D0A1B5B335C
:10078E00356D4C54393631315F48444D495F4F75A4
:10079E00745F44697361626C651B5B33376D000D6A
:1007AE000A4C54393631315F48444D495F54585FD5
:1007BE004469676974616C3A20484D4449206D6FF5
:1007CE006465203D2048444D49000D0A4C5439368D
:1007DE0031315F48444D495F54585F4469676974CD
:1007EE00616C3A20484D4449206D6F6465203D2070
:1007FE00445649000D0A4C54393631315F43534348
:10080E003A2059706270722034323220746F205246
:10081E004742383838000D0A417564696F20696E99
:10082E007574203D2049325320326368000D0A4111
:10083E007564696F20696E7574203D20535044496C
:10084E0046000D0A4C54393631315F484443505FEF
:10085E00456E61626C653A204F6E002030782562DD
:10086E0078000D0A706F72742041206279746520D1
:10087E00636C6B203D20256C64000D0A706F7274E2
:10088E002041206279746520636C6B20756E7374E1
:10089E0061626C65000D0A706F727420422062797D
:1008AE00746520636C6B203D20256C64000D0A700E
:1008BE006F72742042206279746520636C6B2075B0
:1008CE006E737461626C65000D0A4C5439363131A9
:1008DE005F456E61626C655F496E746572727570AC
:1008EE0074733A206870645F6972715F656E6162DD
:1008FE006C65000D0A4C54393631315F456E6162BC
:10090E006C655F496E74657272757074733A2068A7
:10091E0070645F6972715F64697361626C65000D0A
:10092E000A4C54393631315F456E61626C655F49F0
:10093E006E74657272757074733A207669645F6353
:10094E0068675F6972715F656E61626C65000D0A42
:10095E004C54393631315F456E61626C655F496E5C
:10096E0074657272757074733A207669645F636829
:10097E00675F6972715F64697361626C65000D0A0D
:10098E004C54393631315F4844505F496E7465724C
:10099E00727570745F48616E646C653A2048444DA0
:1009AE004920636F6E6E6563746564000D0A4C5466
:1009BE00393631315F4844505F496E7465727275D5
:1009CE0070745F48616E646C653A206E6F206D695D
:1009DE00706920766964656F2C2064697361626C3E
:1009EE00652068646D69206F7574707574000D0AEA
:1009FE004C54393631315F4844505F496E746572DC
:100A0E00727570745F48616E646C653A2048444D2F
:100A1E004920646973636F6E6E6563746564000D5F
:100A2E000A4C54393631315F5669645F4368675FEB
:100A3E00496E746572727570745F48616E646C6530
:100A4E003A20000D0A6365635F73746174757328D1
:100A5E00307838366432293D203078256278000DA2
:100A6E000A636563207265633A20000D0A73656E32
:100A7E0064206461746120646F6E652E20000D0A1F
:100A8E0073657420706978656C20636C6B203D20F3
:100A9E00256C64000D0A23232323232323232323DE
:100AAE0023234C543936313120496E697469616C97
:100ABE0020456E642323232323232323232323234D
:100ACE002323232323230000100060003002800321
:100ADE0020000A0002002101E0020D0000000100CA
:100AEE000061A80010003E003C02D0035A0009002D
:100AFE0006001E01E0020D000000030000697800F0
:100B0E000C0040005802D0036000050005002702CB
:100B1E004002710000001100006978006E0028008C
:100B2E00DC0500067200050005001402D002EE017D
:100B3E000100040001220A01B8002800DC050007AC
:100B4E00BC00050005001402D002EE0101001300E6
:100B5E0001220A0058002C00940780089800040017
:100B6E00050024043804650101001000024414023B
:100B7E0010002C009407800A500004000500240485
:100B8E003804650101001F000244140058002C00B7
:100B9E0094078008980004000500240438046501B9
:100BAE000100220001220A0210002C009407800A84
:100BBE0050000400050024043804650101002100E2
:100BCE0001220A027E002C009407800ABE00040057
:100BDE0005002404380465010100200001220A00EA
:100BEE00B0005801280F0011300008000A00480814
:100BFE007008CA0101005F00048828042000580113
:100C0E00280F0014A00008000A0048087008CA0146
:100C1E0001005E0004882804FC005801280F00150E
:100C2E007C0008000A0048087008CA0101005D0037
:100C3E0004882800F8002C00940A000AA000040082
:100C4E0005000B0438044C01010000000305700080
:100C5E003000800058032004200001000400170219
:100C6E005802740101000000009C4000180088002A
:100C7E00A00400054000030006001D03000326002B
:100C8E000000000000FDE80040008000C0050006E6
:100C9E00800003000700140300031E000100000083
:100CAE0001368C0048008000C80500069000030045
:100CBE000600160320033F000100000001462C0031
:100CCE0060007001380500070800010003002403CE
:100CDE00C003E8010100000001A5E000480080000B
:100CEE00C8050006900003000600160320033F000F
:100CFE000100000000A31600600070013805000717
:100D0E000800010003002403C003E80101000000F5
:100D1E0000D2F00030007000F805000698000100C7
:100D2E000300260400042A010100000001A5E000D2
:100D3E004000C001300640087000010003002E0480
:100D4E00B004E201010000000278D0006800B0019A
:100D5E0018069008C000030006001E041A04410085
:100D6E0001000000023B4A06E0002800DC05000CF2
:100D7E00E400050005001402D002EE01010000009F
:100D8E0001220A003C003C006404000482000200C0
:100D9E0005000A0258026901010000000084D0001B
:100DAE000E00380040055605DC00010003001C0350
:100DBE00000320010100000001211000B00110010C
:100DCE00C00A000D8000030005002405A005CC011B
:100DDE000100000003E8FA0030002000500A000A6B
:100DEE00A000030005002105A005C90101000000B7
:100DFE0003AF5C0030002000500A000AA000030080
:100E0E000600250640066E01010000000418D400FD
:100E1E00B0005801280F0011300004000500240412
:100E2E00380465010100000004882800DC00500130
:100E3E00B80A000CE400050005001402D002EE0111
:100E4E0001000000024414000400050024043804CC
:100E5E00650058002C0094078008980101000000DE
:100E6E0002441400050005001402D002EE006E00CC
:100E7E002800DC05000672010100000001220A00B4
:100E8E001E000A001E021C0262000A000A000A036B
:100E9E00C003DE01010000000082DC0010003E00F5
:100EAE003C02D0035A00090006000301FB020D00AC
:100EBE00000003000069780058002C009407800899
:100ECE009800050005001402D002EE01010000009A
:030EDE000186A0EA
:103AB30049000501000000000101010041000F0061
:043AC30041000000BE
:103794007D807FFF123A6F7D017FEE123A6FE4FF66
:1037A400123974C0077F01123974C0077F021239BD
:1037B4007490003DEFF090003CD0E0F090003BD0DE
:1037C400E0F07BFF7A00793E121C117D817FFF12AD
:1037D4003A6F7D187F01123A6F7D807FFF023A6F46
:1039E8007D817FFF123A6F7D487F02123A6F7D809A
:1039F8007F23123A6FE4FD7F30123A6FE4FD7F01B6
:033A0800023A6F10
:10328000EF7D817FFF602E123A6F7D497F02123AF7
:103290006F7D807F23123A6FE4FD7F30123A6F7D9D
:1032A000807FFF123A6F7D0A7F11123A6F7BFF7A9F
:1032B00000796B802C123A6F7D127F02123A6F7D7B
:1032C000407F23123A6F7DEA7F30123A6F7D807F14
:1032D000FF123A6F7DFA7F11123A6F7BFF7A007905
:0532E000A2121C1122E6
:103349007D827FFF123A6F7D117F51123A6F7D8224
:103359007FFF123A6F7D697F1B123A6F7D787F1C60
:10336900123A6F7D697FCB123A6F7D787FCC123A22
:103379006F7D807FFF123A6F7DF07F04123A6F7D77
:10338900F07F06123A6F7D807F0A123A6F7D467F81
:103399000B123A6F7DEF7F0D123A6F7DFA7F1102A2
:0233A9003A6F79
:103527007D817FFF123A6F7D607F06123A6F7D3F84
:103537007F07123A6F7D3F7F08123A6F7DFE7F0A41
:10354700123A6F7DBF7F0B123A6F7D607F11123A7F
:103557006F7D3F7F12123A6F7D3F7F13123A6F7D67
:10356700FE7F15123A6F7DBF7F16123A6F7D037F7C
:0B3577001C123A6F7D037F20023A6FA8
:102D6F00900006E09000ACF07BFF7A0079D89000DD
:102D7F003BF0121C117D827FFF123A6F7D807F4FD7
:102D8F00123A6F7D107F50123A6F7D837FFF123A98
:102D9F006F9000ACE0FDE4FF123A6F7D087F0212E6
:102DAF003A6F7D087F06123A6F30900FE4FD7F0A6D
:102DBF00123A6F7BFF7A01790F800D7D037F0A1224
:102DCF003A6F7BFF7A017944121C11900007E07B68
:102DDF00FFB4011C7A017978121C117D837FFF12D9
:102DEF003A6F7D107F08123A6F7D407F2C023A6F49
:072DFF007A0179AA121C11F0
:012E060022A9
:100EE100E4900060F07D827FFF123A6F7F861239B5
:100EF1007490006BE4F0A3EFF07F87123974EFFD7B
:100F01007C0090006CE0FEE42DFFEC3E90006BF065
:100F1100A3EFF07BFF7A0179DC121C117BFF7A01D0
:100F210079E290006BE0FFA3E090003BCFF0A3EFEC
:100F3100F0121C117F82123974900067E4F0A3EF64
:100F4100F07F83123974EFFD7C00900068E0FEE4CD
:100F51002DFFEC3E900067F0A3EFF07F6C12397427
:100F6100900069E4F0A3EFF07F6D123974EFFD7C1E
:100F71000090006AE0FEE42DFFEC3E900069F0A3D2
:100F8100EFF07D837FFF123A6F7F821239749000F8
:100F910063E4F0A3EFF07F83123974EFFD7C0090DE
:100FA1000064E0FEE42DFFEC3E900063F0A3EFF05F
:100FB1007F86123974900065E4F0A3EFF07F871209
:100FC1003974EFFD7C00900066E0FEE42DFFEC3EFD
:100FD100900065F0A3EFF090000DE0B4011F7BFFDE
:100FE1007A02790B121C11900063E0C313F0A3E0A5
:100FF10013F0A3E0C313F0A3E013F0803B90000DC6
:10100100E070357BFF7A027942121C11900063E097
:10101100FEA3E0FF7C007D03121F85900063EEF0CC
:10102100A3EFF0A3E0FEA3E0FF7C007D03121F8588
:10103100900065EEF0A3EFF07F88123974900060A4
:10104100EFF07BFF7A027979900063E0FFA3E090F3
:10105100003BCFF0A3EFF0900065E0FFA3E090002C
:101061003DCFF0A3EFF0900067E0FFA3E090003FD9
:10107100CFF0A3EFF0900069E0FFA3E0900041CF33
:10108100F0A3EFF0121C117BFF7A0279BF90006090
:10109100E090003BF0121C11209018900065E0FEDA
:1010A100A3E0FF900064E02FFF900063E03E90001A
:1010B10061800B900063E0FFA3E0900061CFF0A39B
:1010C100EFF07BFF7A0279ED121C11900ADBE493B9
:1010D100FE740193FF900061E0B5063BA3E0B50704
:1010E10036900AE5E493FE740193FF900067E0B542
:1010F1000625A3E0B507207BFF7A037912121C11A4
:1011010090000E7401F090000274FFF0A3740AF0D5
:10111100A374D5F0021B9D900AF7E493FE7401932A
:10112100FF900061E0B5063BA3E0B50736900B01E7
:10113100E493FE740193FF900067E0B50625A3E0F8
:10114100B507207BFF7A037927121C1190000E74DA
:1011510002F090000274FFF0A3740AF0A374F1F09E
:10116100021B9D900B13E493FE740193FF900061A9
:10117100E0B5063BA3E0B50736900B1DE493FE7482
:101181000193FF900067E0B50625A3E0B507207B3A
:10119100FF7A03793C121C1190000E7403F0900049
:1011A1000274FFF0A3740BF0A3740DF0021B9D9069
:1011B1000B2FE493FE740193FF900061E06E7003C6
:1011C100A3E06F6003021271900B3993FE740193D7
:1011D100FF900067E06E7003A3E06F60030212717D
:1011E100C390006CE0947690006BE0940250207BF9
:1011F100FF7A037951121C1190000E7404F09000D3
:101201000274FFF0A3740BF0A37429F0021B9DC3B9
:1012110090006CE094EE90006BE0940250207BFF14
:101221007A037967121C1190000E740BF090000282
:1012310074FFF0A3740BF0A37445F0021B9DC390DF
:10124100006CE094CE90006BE094044003021B9D7F
:101251007BFF7A03797D121C1190000E740CF090C3
:10126100000274FFF0A3740DF0A37475F0021B9DCE
:10127100900B67E493FE740193FF900061E06E7040
:1012810003A3E06F6003021390900B7193FE74014E
:1012910093FF900067E06E7003A3E06F6003021399
:1012A10090C390006CE094AE90006BE094015020EC
:1012B1007BFF7A037993121C1190000E7405F09054
:1012C100000274FFF0A3740BF0A37461F0021B9D84
:1012D100C390006CE094FE90006BE0940150207B81
:1012E100FF7A0379AA121C1190000E741AF0900073
:1012F1000274FFF0A3740BF0A3747DF0021B9DC375
:1013010090006CE0943E90006BE0940350207BFFD2
:101311007A0379C1121C1190000E741BF090000227
:1013210074FFF0A3740BF0A37499F0021B9DC3909A
:10133100006CE094D490006BE0940350207BFF7A22
:101341000379D8121C1190000E741CF090000274E5
:10135100FFF0A3740BF0A374B5F0021B9DC39000C2
:101361006CE0940690006BE094044003021B9D7BAB
:10137100FF7A0379EF121C1190000E741DF090009A
:101381000274FFF0A3740BF0A374D1F0021B9D90C3
:101391000BF3E493FE740193FF900061E06E700320
:1013A100A3E06F6003021451900BFD93FE7401934F
:1013B100FF900067E06E7003A3E06F6003021451B9
:1013C100C390006CE094AE90006BE0940150207BE0
:1013D100FF7A047906121C1190000E740DF0900032
:1013E1000274FFF0A3740BF0A374EDF0021B9DC314
:1013F10090006CE094EA90006BE0940150207BFF38
:101401007A04791D121C1190000E740EF0900002E6
:1014110074FFF0A3740CF0A37409F0021B9DC39038
:10142100006CE0940890006BE094024003021B9D65
:101431007BFF7A047934121C1190000E740FF09026
:10144100000274FFF0A3740CF0A37425F0021B9D3D
:10145100900C63E493FE740193FF900061E0B50684
:101461002CA3E0B50727900C6DE493FE740193FF64
:10147100900067E0B50616A3E0B507117BFF7A047B
:10148100794B121C1190000E7420021551900C7FA3
:10149100E493FE740193FF900061E0B5062CA3E094
:1014A100B50727900C89E493FE740193FF900067C0
:1014B100E0B50616A3E0B507117BFF7A0479601247
:1014C1001C1190000E742002159D900C9BE493FE5C
:1014D100740193FF900061E0B5063BA3E0B50736C8
:1014E100900CA5E493FE740193FF900067E0B506AC
:1014F10025A3E0B507207BFF7A047976121C1190B1
:10150100000E741FF090000274FFF0A3740CF0A39E
:101511007495F0021B9D900C63E493FE740193FF9C
:10152100900061E0B5063BA3E0B50736900C6DE491
:1015310093FE740193FF900067E0B50625A3E0B523
:1015410007207BFF7A04794B121C1190000E741F47
:10155100F090000274FFF0A3740CF0A3745DF0022C
:101561001B9D900C7FE493FE740193FF900061E05A
:10157100B5063BA3E0B50736900C89E493FE7401F0
:1015810093FF900067E0B50625A3E0B507207BFF38
:101591007A047960121C1190000E741FF090000201
:1015A10074FFF0A3740CF0A37479F0021B9D900CEE
:1015B100B7E493FE740193FF900061E06E7003A3A2
:1015C100E06F7053900CC193FE740193FF9000671C
:1015D100E06E7003A3E06F703EC390006CE0943046
:1015E10090006BE094027BFF500F7A04798C121CFF
:1015F1001190000E741F0219B67A0479A2121C11FF
:1016010090000E741FF090000274FFF0A3740CF0B0
:10161100A374E9F0021B9D900CD3E493FE74019333
:10162100FF900061E06E7003A3E06F7062900CDDCB
:1016310093FE740193FF900067E06E7003A3E06F67
:10164100704DC390006CE094CC90006BE094017BF2
:10165100FF501E7A0479B8121C1190000E741FF00D
:1016610090000274FFF0A3740CF0A374CDF0021B80
:101671009D7A0479CE121C1190000E741FF0900017
:101681000274FFF0A3740DF0A37405F0021B9D908A
:101691000D27E493FE740193FF900061E0B5063BD2
:1016A100A3E0B50736900D31E493FE740193FF90EA
:1016B1000067E0B50625A3E0B507207BFF7A047932
:1016C100E4121C1190000E741FF090000274FFF0E0
:1016D100A3740DF0A37421F0021B9D900D43E493BC
:1016E100FE740193FF900061E0B5063BA3E0B507EE
:1016F10036900D4DE493FE740193FF900067E0B5C1
:101701000625A3E0B507207BFF7A0479FB121C11A3
:1017110090000E741FF090000274FFF0A3740DF09E
:10172100A3743DF0021B9D900D5FE493FE74019341
:10173100FF900061E0B5063BA3E0B50736900D6967
:10174100E493FE740193FF900067E0B50625A3E0E2
:10175100B507207BFF7A057912121C1190000E74D7
:101761001FF090000274FFF0A3740DF0A37459F000
:10177100021B9D900DB3E493FE740193FF900061F1
:10178100E0B5063BA3E0B50736900DBDE493FE74CA
:101791000193FF900067E0B50625A3E0B507207B24
:1017A100FF7A057929121C1190000E7416F0900031
:1017B1000274FFF0A3740DF0A374ADF0021B9D90B1
:1017C1000DEBE493FE740193FF900061E06E7003F2
:1017D100A3E06F7076900DF593FE740193FF900076
:1017E10067E06E7003A3E06F7061C390006CE094DA
:1017F1003690006BE0940150207BFF7A05793F120F
:101801001C1190000E7418F090000274FFF0A37484
:101811000DF0A374E5F0021B9DC390006CE094727F
:1018210090006BE094014003021B9D7BFF7A0579D8
:1018310056121C1190000E741FF090000274FFF0FC
:10184100A3740DF0A374C9F0021B9D900E77E4936D
:10185100FE740193FF900061E0B5063BA3E0B5077C
:1018610036900E81E493FE740193FF900067E0B51A
:101871000625A3E0B507207BFF7A05796D121C11BF
:1018810090000E7413F090000274FFF0A3740EF038
:10189100A37471F0021B9D900E5BE493FE7401939F
:1018A100FF900061E0B5063BA3E0B50736900E65F9
:1018B100E493FE740193FF900067E0B50625A3E071
:1018C100B507207BFF7A057983121C1190000E74F5
:1018D10012F090000274FFF0A3740EF0A37455F09F
:1018E100021B9D900E23E493FE740193FF9000610F
:1018F100E0B5063BA3E0B50736900E2DE493FE74E8
:101901000193FF900067E0B50625A3E0B507207BB2
:10191100FF7A05799A121C1190000E7410F0900054
:101921000274FFF0A3740EF0A3741DF0021B9D90CE
:101931000D97E493FE740193FF900061E0B5063BBF
:10194100A3E0B50736900DA1E493FE740193FF90D7
:101951000067E0B50625A3E0B507207BFF7A05798E
:10196100B1121C1190000E7411F090000274FFF07E
:10197100A3740DF0A37491F0021B9D900CB7E49336
:10198100FE740193FF900061E0B5063BA3E0B5074B
:1019910036900CC1E493FE740193FF900067E0B5AB
:1019A1000625A3E0B507207BFF7A04798C121C1170
:1019B10090000E7414F090000274FFF0A3740CF008
:1019C100A374B1F0021B9D900E93E493FE740193F6
:1019D100FF900061E0B5063BA3E0B50736900E9D90
:1019E100E493FE740193FF900067E0B50625A3E040
:1019F100B507207BFF7A0579C7121C1190000E7480
:101A010015F090000274FFF0A3740EF0A3748DF032
:101A1100021B9D900E07E493FE740193FF900061F9
:101A2100E0B5063BA3E0B50736900E11E493FE74D2
:101A31000193FF900067E0B50625A3E0B507207B81
:101A4100FF7A0579DC121C1190000E7417F09000DA
:101A51000274FFF0A3740EF0A37401F0021B9D90B9
:101A61000C47E493FE740193FF900061E0B5063BDF
:101A7100A3E0B50736900C51E493FE740193FF90F7
:101A81000067E0B50625A3E0B507207BFF7A05795D
:101A9100F3121C1190000E7419F090000274FFF003
:101AA100A3740CF0A37441F0021B9D900E3FE493CC
:101AB100FE740193FF900061E0B5063BA3E0B5071A
:101AC10036900E49E493FE740193FF900067E0B5F0
:101AD1000625A3E0B507207BFF7A06790A121C11BF
:101AE10090000E741EF090000274FFF0A3740EF0CB
:101AF100A37439F0021B9D900EAFE493FE74019321
:101B0100FF900061E0B5063AA3E0B50735900EB944
:101B1100E493FE740193FF900067E0B50624A3E00F
:101B2100B5071F7BFF7A067920121C1190000E74F5
:101B31001FF090000274FFF0A3740EF0A374A9F0DB
:101B4100805A900ECBE493FE740193FF900061E004
:101B5100B5063AA3E0B50735900ED5E493FE7401BE
:101B610093FF900067E0B50624A3E0B5071F7BFF54
:101B71007A067935121C1190000E741FF090000244
:101B810074FFF0A3740EF0A374C5F0800F90000EE3
:101B91007420F07BFF7A06794B121C117BFF7A06C9
:051BA1007962021C1135
:1026810090009EEBF0A3EAF0A3E9F07D837FFF12B7
:102691003A6F90009EE0FBA3E0FAA3E0F9900012EC
:1026A100122005E5F0FD7F0D123A6F90009EE0FBD0
:1026B100A3E0FAA3E0F9900012122005FD7F0E12AB
:1026C1003A6F90009EE0FBA3E0FAA3E0F9900010BE
:1026D100122005E5F0FD7F0F123A6F90009EE0FB9E
:1026E100A3E0FAA3E0F9900010122005FD7F10127B
:1026F1003A6F90009EE0FBA3E0FAA3E0F990000896
:10270100122005E5F0FD7F11123A6F90009EE0FB6B
:10271100A3E0FAA3E0F9900008122005FD7F121250
:102721003A6F90009EE0FBA3E0FAA3E0F990000667
:10273100122005E5F0FD7F13123A6F90009EE0FB39
:10274100A3E0FAA3E0F9900006122005FD7F141220
:102751003A6F90009EE0FBA3E0FAA3E0F990000C31
:10276100122005FD7F15123A6F90009EE0FBA3E059
:10277100FAA3E0F9900002122005FD7F16123A6FCC
:1027810090009EE0FBA3E0FAA3E0F990000A12207A
:1027910005FD7F17123A6F90009EE0FBA3E0FAA3BC
:1027A100E0F990000E122005FFAEF090000C12200F
:1027B100052FFFE5F03EAD077F18123A6F90009E9E
:1027C100E0FBA3E0FAA3E0F9121FDAFD7F19123A48
:1027D1006F90009EE0FBA3E0FAA3E0F990000412E1
:1027E1002005FFAEF09000021220052FE5F03EFD1E
:1027F100121FDAE5F0C4F8540FC868FFEF2DFD7F12
:102801001A123A6F90009EE0FBA3E0FAA3E0F99060
:102811000004122005FFAEF09000021220052FFFE8
:0A282100E5F03EAD077F1B023A6FA1
:0B24C400900002E0FBA3E0FAA3E0F9A7
:1024CF00900006122005FF9000A2E5F0F0A3EFF0B8
:1024DF00900014121F2425E0FF900015121F242FC7
:1024EF009000A1F0F4F05403F07D837FFF123A6F58
:1024FF002090649000A2E0FEA3E07802CEC313CE3A
:10250F0013D8F9F0EE9000A2F0A3E02450F0900061
:10251F00A2E03400F0E0FEA3E0FFC394E0EE9403EA
:10252F00500280047E037FE09000A2EEF0A3EFF054
:10253F009000A2E0FD7F0B123A6F9000A2A3E0FD86
:10254F007F0C123A6F9000A2E0FD7F48123A6F9015
:10255F0000A2A3E0FD80177D017F0B123A6F7D1063
:10256F007F0C123A6FE4FD7F48123A6F7D817F49ED
:10257F00123A6F7D4A7F21123A6F7D717F24123A92
:10258F006F7D307F25123A6F7D017F2A123A6F7D62
:10259F00407F4A123A6F9000A1E04410FD7F1D1258
:1025AF003A6F90000EE024FD700302264D240224A2
:1025BF00FB501024F5606B24FC606724FA60042440
:1025CF000F707B7D837FFF123A6F7D027F0B123A74
:1025DF006F7D407F0C123A6F7D017F48123A6F7DFD
:1025EF00107F49123A6F7D707F24123A6F7D807F82
:1025FF0025123A6F7D107F2A123A6F7D807F2B1242
:10260F003A6F7D287F23123A6F7D107F4A123A6FFF
:10261F007DF07F1D123A6F7BFF7A06796D121C11C8
:10262F00801C7D707F24123A6F7D807F25123A6F58
:10263F007D107F2A123A6F7DF07F1D123A6F900046
:10264F0002E0FBA3E0FAA3E0F91226817D837FFF6E
:10265F00123A6F900001E0FD7F26123A6F7D807F66
:10266F00FF123A6F7D5A7F11123A6F7DFA7F110276
:02267F003A6FB0
:0B225200900002E0FBA3E0FAA3E0F91B
:10225D0090001812216B90003212219B7BFF7A06A1
:10226D00798D900032E0FCA3E0FDA3E0FEA3E0FF3A
:10227D0090003B12219B121C117D817FFF123A6F42
:10228D007D407F23123A6F7D627F24123A6F7D80ED
:10229D007F25123A6F7D557F26123A6F7D377F2C41
:1022AD00123A6F7D017F2F123A6F7D557F26123ABC
:1022BD006F7D667F27123A6F7D887F28123A6F7F78
:1022CD00F07E497D027C00900032E0F8A3E0F9A396
:1022DD00E0FAA3E0FBD312215A400F7D887F2D1227
:1022ED003A6F9000367401F080387F807E387D0122
:1022FD007C00900032E0F8A3E0F9A3E0FAA3E0FB44
:10230D00D312215A400F7D997F2D123A6F900036CE
:10231D007402F0800D7DAA7F2D123A6F90003674F5
:10232D0004F0E47F05FEFDFC900032E0F8A3E0F937
:10233D00A3E0FAA3E0FB12203DA804A905AA06AB71
:10234D0007900036E0FFE4FCFDFE12203DE47B78B3
:10235D007A69F9F81220C8900001EFF07BFF7A0638
:10236D0079ACE090003BF0900036E090003CF0122C
:10237D001C117D837FFF123A6F7D407F2D123A6FC6
:10238D007D087F31123A6F900001E04480FD7F2679
:10239D00123A6F900032E0FCA3E0FDA3E0FEA3E053
:1023AD00FFE47B02FAF9F81220C890003212219B4B
:1023BD007D827FFF123A6FE4FBFA7901F8900032CB
:1023CD00E0FCA3E0FDA3E0FEA3E0FF1220C8AD07F3
:1023DD007FE3123A6F900032A3A3E0FEA3E0FFE487
:1023ED00FDFC90003212219BE4FB7A01F9F890007C
:1023FD0032E0FCA3E0FDA3E0FEA3E0FF1220C8AD98
:10240D00077FE4123A6F900032E0FCA3A3E0FEA335
:10241D00E0FFE4AD077FE5123A6F7D207FDE123AD3
:10242D006F7DE07FDE123A6F7D807FFF123A6F7D08
:10243D00F17F16123A6F7DF37F16123A6FE490001A
:10244D0037F07D807FFF123A6F7DE37F16123A6F72
:10245D007DF37F16123A6F7D827FFF123A6F7F15E3
:10246D00123974EF30E7097BFF7A0679DD021C1112
:10247D007D807FFF123A6F7D5A7F11123A6F7DFA80
:10248D007F11123A6F7DDC7F18123A6F7DFC7F1839
:10249D00123A6F7DF17F16123A6F7DF37F16123A65
:1024AD006F7BFF7A0679FB121C11900037E004F068
:0624BD00E0C39406408C10
:0124C30022F6
:102FAE007D817FFF123A6F7D6A7F30123A6F9000FB
:102FBE000AE0700F7D737F31123A6F7BFF7A0779CB
:102FCE0026800D7D447F31123A6F7BFF7A0779465A
:102FDE00121C117D4A7F32123A6F7D0B7F33123AEB
:102FEE006FE4FD7F34123A6FE4FD7F35123A6FE4E1
:102FFE00FD7F36123A6F7D447F37123A6F7D0F7F19
:10300E003F123A6F7D987F40123A6F7D987F411242
:10301E003A6F7D987F42123A6F7D987F43123A6FD6
:07302E007D0A7F44023A6FA6
:103215007D817FFF123A6F7D407F23123A6F7D8259
:103225007FFF123A6F7D207FDE123A6F7DE07FDEF1
:10323500123A6F7D807FFF123A6F7DDC7F18123A5C
:103245006F7DFC7F18123A6F7DF17F16123A6F7D04
:10325500F37F16123A6F7D5A7F11123A6F7DFA7F0E
:1032650011123A6F7D817FFF123A6F7DEA7F30122E
:0B3275003A6F7BFF7A077966021C119C
:103A8D007D817FFF123A6FE4FD7F30123A6F7D80AA
:0E3A9D007F23123A6F7BFF7A077989021C1192
:0B2C1800900002E0FBA3E0FAA3E0F94B
:102C2300900016122005900033F0C39437500280B1
:102C330003900033E0FFC374379F900032F07D822E
:102C43007FFF123A6F90000CE0B4010F7D8E7FD6A8
:102C5300123A6F7BFF7A0779AD801390000CE07016
:102C6300107D0E7FD6123A6F7BFF7A0779D8121C3C
:102C730011900009E070077D047FD7123A6F90002E
:102C830009E0B401077D807FD7123A6F7D847FFF0F
:102C9300123A6F900032E0FD7F43123A6F7D287F36
:102CA30045123A6F900033E0FD7F47123A6F7D84FF
:102CB3007FFF123A6F7D027F10123A6F7D647F129D
:032CC300023A6F63
:103A500090000DE0B401177D827FFF123A6F7D1850
:0F3A60007FB9123A6F7BFF7A087902121C11228C
:10340C00900009E0702C7BFF7A087924121C117D46
:10341C00847FFF123A6F7D087F06123A6F7D107F12
:10342C0007123A6F7D2B7F0F123A6F7DD47F3412C7
:10343C003A6F900009E0640170257BFF7A08793BB4
:10344C00121C117D847FFF123A6F7D0C7F06123A9D
:10345C006F7D107F07123A6F7DD47F34123A6F2242
:01003A0022A3
:103B1A007D827FFF123A6F7F5E123974EF30E203C3
:063B2A007F01227F002252
:103A0B007D857FFF123A6F7D1F7F07123A6F7DFE18
:103A1B007F13123A6F7D0F7F17123A6F7D057F155B
:033A2B00023A6FED
:103901007D807FFF123A6F7D7F7F14123A6F7DFFBA
:103911007F14123A6F7D857FFF123A6F7D017F150B
:10392100123A6F7D717F15123A6F7D657F15123ADC
:0A3931006F7BFF7A087950021C1129
:0E3BBF007D857FFF123A6F7D457F15023A6FBC
:1033AB00EF7D807FFF604F123A6F7DFF7F0D123AEA
:1033BB006F7DF97F15123A6F7D867FFF123A6FE4AE
:1033CB00FD7FFA123A6F7DA57FFE123A6F7D7F7FEC
:1033DB00FC123A6FE4FD7FFC123A6F7D827FFF1285
:1033EB003A6F7D7F7F01123A6F7DFF7F05123A6F37
:1033FB007D7F7F058007123A6F7DF17F15123A6F43
:01340B00229E
:103B6F007D867FFF123A6F7D207FF7123A6FE4FD5B
:053B7F007FF8023A6F1F
:0B2E0700900077EBF0A3EAF0A3E9F0E5
:102E12007D867FFF123A6F7FD312397490007AEF6A
:102E2200F0900077E0FBA3E0FAA3E0F9EF121F5164
:102E320090007B7401F090007AE0FFA3E0FED39F44
:102E42005048EE24D3FF123974900077E0FBA3E0E0
:102E5200FAA3E0F990007BE0FEF582758300EF12A1
:102E62001F63900077E0FBA3E0FAA3E0F98E82757E
:102E72008300121F2490003BF07BFF7A08796912CD
:102E82001C1190007BE004F080ACE4FD7FF5123A67
:072E92006F90000F7401F0C6
:012E99002216
:0B32E50090007CEBF0A3EAF0A3E9F0FE
:1032F000121F0B90007FF07D867FFF123A6F9000C7
:103300007FE0FD7FF4123A6FE4900080F090007F40
:10331000E0FFA3E0FED39F5029EE24E4FFEE24015A
:10332000FDE433FC90007CE0FBA3E0FAA3E0F98D20
:10333000828C83121F24FD123A6F900080E004F00B
:0933400080CB7D037FF9023A6F96
:103A2E009000207405F0A37450F0A37484F0A37476
:103A3E0010F0E4A3F0A37405F07B017A0079200264
:023A4E0032E55F
:10282B009000821221A7000000007BFF7A0179DC67
:10283B00121C117D827FFF123A6F7D037FC7123A04
:10284B006F7F327E007D007C001236917FCD123976
:10285B0074900081EFF05460646060030228FBE029
:10286B00540FFFE4FCFDFEFBFA7901F812203D90BA
:10287B00008212219B7FCE123974900081EFF0A35E
:10288B00E0F8A3E0F9A3E0FAA3E0FB900081E07F7E
:10289B0000FEE4FCFDEF2BFFEA3EFEED39FDEC38CC
:1028AB00FCA312219B7FCF123974900081EFF0A310
:1028BB00E0F8A3E0F9A3E0FAA3E0FB900081E0FFCE
:1028CB00E4FCFDFEEB2FFFEE3AFEED39FDEC38FCA0
:1028DB00A312219B7BFF7A087970900082E0FCA306
:1028EB00E0FDA3E0FEA3E0FF90003B12219B8006DE
:1028FB007BFF7A087988121C117D827FFF123A6F59
:10290B007D047FC7123A6F7F327E007D007C001200
:10291B0036917FCD123974900081EFF05460646072
:10292B0060030229C1E0540FFFE4FCFDFEFBFA79C2
:10293B0001F812203D90008212219B7FCE12397438
:10294B00900081EFF0A3E0F8A3E0F9A3E0FAA3E095
:10295B00FB900081E07F00FEE4FCFDEF2BFFEA3EE5
:10296B00FEED39FDEC38FCA312219B7FCF1239749D
:10297B00900081EFF0A3E0F8A3E0F9A3E0FAA3E065
:10298B00FB900081E0FFE4FCFDFEEB2FFFEE3AFE37
:10299B00ED39FDEC38FCA312219B7BFF7A0879A360
:1029AB00900082E0FCA3E0FDA3E0FEA3E0FF90001B
:1029BB003B12219B80067BFF7A0879BB121C117B93
:0829CB00FF7A067962021C117B
:013BE10022C1
:013BE20022C0
:013BE30022BF
:103AE4007D827FFF123A6F7D0A7F58123A6F7D8084
:0C3AF4007F59123A6F7DF77F9E023A6FF7
:102CC6009000AAEDF09000A9EFF064017042A3E035
:102CD6007D827FFF6020123A6F7DFF7F07123A6F79
:102CE6007D3F7F07123A6F7D3F7F03123A6F7BFF6E
:102CF6007A0879D68017123A6F7DFF7F07123A6FEE
:102D06007DFF7F03123A6F7BFF7A097901121C114E
:102D16009000A9E064027050A3E07D827FFF602EE0
:102D2600123A6F7DFF7F9E123A6F7DF77F9E123AB1
:102D36006F7DFF7F04123A6F7DFE7F04123A6F7D2E
:102D4600FEE4FF123A6F7BFF7A09792D8017123A5B
:102D56006F7DFF7F04123A6F7DFFE4FF123A6F7BAF
:092D6600FF7A09795C121C1122AC
:1030B900123B1A900000EFF07D827FFF123A6F7D7C
:1030C900FF7F07123A6F7D3F7F07123A6F9000002A
:1030D900E060467BFF7A09798C121C11E4FF1232F9
:1030E900807D017F02122CC67F647E007D007C00FA
:1030F90012369112003A120EE190000EE06420603F
:103109000C1222521224C4122C18023215123A8DB2
:103119007BFF7A0979BA021C117BFF7A0979FC12C3
:0F3129001C11E4FD7F02122CC67F01123280229E
:103831007BFF7A0A792D121C117D827FFF123A6F6C
:103841007DFF7F9E123A6F7DF77F9E123A6F7DFF5B
:103851007F04123A6F7DFE7F04123A6F120EE190DF
:10386100000EE06420600C1222521224C4122C18A3
:07387100023215123A8D220C
:103138007D867FFF123A6F7FD21239749000ADEF0F
:10314800F07BFF7A0A795190003BF0121C11900035
:10315800ADE030E1127BFF7A0A796D121C117B0118
:103168007A007910122E079000ADE030E0097BFF5D
:103178007A0A7979121C117D867FFF123A6F7D7F5A
:103188007FFC123A6FE4FD7FFC123A6F7D827FFF6D
:10319800123A6F7DFF7F05123A6F7D7F7F05023AF5
:0131A8006FB7
:1029D300900032EBF0A3EAF0A3E9F07D827FFF12CF
:1029E3003A6F900032E0FBA3E0FAA3E0F990000411
:1029F300122005FFAEF09000021220052FE5F03EF5
:102A0300FD7FA3123A6F900032E0FBA3E0FAA3E04C
:102A1300F9900004122005FFAEF090000212200589
:102A23002FFFE5F03EAD077FA4123A6F900032E02E
:102A3300FBA3E0FAA3E0F990000E122005FFAEF02D
:102A430090000C1220052FFFE5F03EAD077FA51285
:102A53003A6F900032E0FBA3E0FAA3E0F99000069E
:102A6300122005E5F0FD7FA6123A6F900032E0FBDD
:102A7300A3E0FAA3E0F9900006122005FD7FA71258
:102A83003A6F900032E0FBA3E0FAA3E0F990001064
:102A9300122005E5F0FD7FA8123A6F900032E0FBAB
:102AA300A3E0FAA3E0F9900010122005FD7FA9121C
:102AB3003A6F900032E0FBA3E0FAA3E0F99000083C
:102AC300122005E5F0FD7FAA123A6F900032E0FB79
:102AD300A3E0FAA3E0F9900008122005FD7FAB12F2
:102AE3003A6F900032E0FBA3E0FAA3E0F990001202
:102AF300122005E5F0FD7FAC123A6F900032E0FB47
:102B0300A3E0FAA3E0F9900012122005FD7FAD12B5
:102B13003A6F900032E0FBA3E0FAA3E0F9900002E1
:102B2300122005E5F0FD7FAE123A6F900032E0FB14
:102B3300A3E0FAA3E0F9900002122005FD7FAF1293
:102B43003A6F900032E0FBA3E0FAA3E0F990000CA7
:092B5300122005FD7FB0023A6F6B
:102B5C0090001812216B90008612219B7BFF7A0A41
:102B6C00798C900086E0FCA3E0FDA3E0FEA3E0FFDF
:102B7C0090003B12219B121C117D837FFF123A6F38
:102B8C007D507F2D123A6F7F287E887D047C0090CB
:102B9C000086E0F8A3E0F9A3E0FAA3E0FBC312215E
:102BAC005A700E7DB67F26123A6F7DF07F27123A4F
:102BBC006F7F147E447D027C00900086E0F8A3E0D9
:102BCC00F9A3E0FAA3E0FBC312215A70077DB77F8B
:102BDC0026123A6F7F0A7E227D017C00900086E0EF
:102BEC00F8A3E0F9A3E0FAA3E0FBC312215A7007A3
:102BFC007D9C7F26123A6F7D807FFF123A6F7D5A43
:0C2C0C007F11123A6F7DFA7F11023A6FBF
:103B84007D827FFF123A6F7D807F4F123A6F7D20D6
:053B94007F50023A6FB2
:1031A90090000274FFF0A3740BF0A37461F012375E
:1031B90094123349123B84122252900002E0FBA37D
:1031C900E0FAA3E0F91229D3122C18122FAE123209
:1031D90015123BE27D827FFF123A6F7D8C7FD612FA
:1031E9003A6F7D067FD7123A6F7D847FFF123A6F5F
:1031F9007D0C7F06123A6F7D107F07123A6F7D01B1
:0C3209007F16123A6F7DD47F34023A6FBA
:102F260012379412334912003A123527122D6F7F49
:102F3600E87E037D007C00123691120EE1122252C9
:102F46001224C412340C123A50122C18122FAE123C
:102F56003AE4E4FF1233AB123B6F7D017F01122C82
:102F6600C6E4FD7F02122CC612282B123BE3123B4D
:102F7600E1123BE27BFF7A0A79A2121C111230B9E8
:102F86009000ABE0600B123878E49000ABF0439B06
:102F96000290000FE060E9900012E0B48503123A57
:082FA6002EE490000FF080D82A
:03003B000239C4C3
:1039C400C0E0C083C082C0D0E5ECB4080575EC004B
:1039D400C2899000AB7401F0539BFDD0D0D082D04B
:0439E40083D0E0327A
:103878007D827FFF123A6F7F0C1239749000A5EF9A
:10388800F07F0D1239749000A6EFF07F0F12397493
:103898009000A4EFF09000A6E030E70312313890D2
:1038A80000A4E054C060031230B99000A5E030E0F5
:0438B800031238318E
:0138BC0022E9
:03000000022E9A33
:0C2E9A00787FE4F6D8FD758121022EE15E
:1036380090008A12219B538EF7438901D28CE4FFB4
:10364800FEFDFC90008AE0F8A3E0F9A3E0FAA3E00D
:10365800FBC312215A602F758A7E758CFF308DFD51
:10366800C28D90008AE0FCA3E0FDA3E0FEA3E02465
:10367800FFFFEE34FFFEED34FFFDEC34FFFC90005D
:093688008A12219B80B8C28C2239
:1036910090003212219B538EF7438901D28CE4FFB3
:1036A100FEFDFC900032E0F8A3E0F9A3E0FAA3E00C
:1036B100FBC312215A602F758ACA758CFA308DFDB1
:1036C100C28D900032E0FCA3E0FDA3E0FEA3E02464
:1036D100FFFFEE34FFFEED34FFFDEC34FFFC900004
:0936E1003212219B80B8C28C2238
:1036EA0090008E12219B538EEF438910D28EE4FFF5
:1036FA00FEFDFC90008EE0F8A3E0F9A3E0FAA3E057
:10370A00FBC312215A602F758BEA758DCB308FFD62
:10371A00C28F90008EE0FCA3E0FDA3E0FEA3E024AC
:10372A00FFFFEE34FFFEED34FFFDEC34FFFC9000AA
:09373A008E12219B80B8C28E2280
:1034CB0090009212219B53C9BF53C9DF43C910D23D
:1034DB00CAE4FFFEFDFC900092E0F8A3E0F9A3E044
:1034EB00FAA3E0FBC312215A602F75CC3075CDF8CF
:1034FB0030CFFDC2CF900092E0FCA3E0FDA3E0FE35
:10350B00A3E024FFFFEE34FFFEED34FFFDEC34FFB0
:0C351B00FC90009212219B80B8C2CA22D2
:1035820090009612219B75C40743C408E4FFFEFD18
:10359200FC900096E0F8A3E0F9A3E0FAA3E0FBC3F5
:1035A20012215A603275C52C75C6CFE5C430E4FBD2
:1035B20053C4EF900096E0FCA3E0FDA3E0FEA3E07D
:1035C20024FFFFEE34FFFEED34FFFDEC34FFFC90F0
:0B35D200009612219B80B553C4F72225
:1035DD0090009A12219B75C40743C408E4FFFEFDB9
:1035ED00FC90009AE0F8A3E0F9A3E0FAA3E0FBC396
:1035FD0012215A603275C5D875C6FFE5C430E4FB9B
:10360D0053C4EF90009AE0FCA3E0FDA3E0FEA3E01D
:10361D0024FFFFEE34FFFEED34FFFDEC34FFFC9094
:0B362D00009A12219B80B553C4F722C5
:102EA600023B99E493A3F8E493A34003F68001F26E
:102EB60008DFF48029E493A3F85407240CC8C3332D
:102EC600C4540F4420C8834004F456800146F6DFFC
:102ED600E4800B0102040810204080903AABE47EA7
:102EE600019360BCA3FF543F30E509541FFEE493F1
:102EF600A360010ECF54C025E060A840B8E493A3B8
:102F0600FAE493A3F8E493A3C8C582C8CAC583CAE2
:102F1600F0A3C8C582C8CAC583CADFE9DEE780BE9A
:013AC70000FE
:101F0B00BB010689828A83E0225002E722BBFE02D4
:091F1B00E32289828A83E4932207
:101F2400BB010CE58229F582E5833AF583E0225072
:101F340006E92582F8E622BBFE06E92582F8E222BC
:0D1F4400E58229F582E5833AF583E49322D6
:101F5100BB010689828A83F0225002F722BBFE016F
:021F6100F32269
:101F6300F8BB010DE58229F582E5833AF583E8F0B4
:101F7300225006E92582C8F622BBFE05E92582C860
:021F8300F22248
:101F8500BC000BBE0029EF8DF084FFADF022E4CC40
:101F9500F875F008EF2FFFEE33FEEC33FCEE9DEC09
:101FA500984005FCEE9DFE0FD5F0E9E4CEFD22ED4F
:101FB500F8F5F0EE8420D21CFEADF075F008EF2F99
:101FC500FFED33FD4007985006D5F0F222C398FD8A
:051FD5000FD5F0EA2227
:101FDA00BB010A89828A83E0F5F0A3E022500687D2
:101FEA00F009E71922BBFE07E3F5F009E319228994
:0B1FFA00828A83E493F5F074019322C7
:10200500BB0110E58229F582E5833AF583E0F5F019
:10201500A3E0225009E92582F886F008E622BBFEF6
:102025000AE92582F8E2F5F008E222E5832AF5833C
:08203500E993F5F0A3E9932201
:10203D00E88FF0A4CC8BF0A42CFCE98EF0A42CFC42
:10204D008AF0EDA42CFCEA8EF0A4CDA8F08BF0A4C0
:10205D002DCC3825F0FDE98FF0A42CCD35F0FCEB1F
:10206D008EF0A4FEA9F0EB8FF0A4CFC5F02ECD39E4
:0F207D00FEE43CFCEAA42DCE35F0FDE43CFC2251
:10208C0075F008758200EF2FFFEE33FECD33CDCC0B
:10209C0033CCC58233C5829BED9AEC99E58298408E
:1020AC000CF582EE9BFEED9AFDEC99FC0FD5F0D66B
:1020BC00E4CEFBE4CDFAE4CCF9A88222B800C1B995
:1020CC000059BA002DEC8BF084CFCECDFCE5F0CBD3
:1020DC00F97818EF2FFFEE33FEED33FDEC33FCEB0C
:1020EC0033FB10D703994004EB99FB0FD8E5E4F9C7
:1020FC00FA227818EF2FFFEE33FEED33FDEC33FCB4
:10210C00C933C910D7059BE99A4007EC9BFCE99AA7
:10211C00F90FD8E0E4C9FAE4CCFB2275F010EF2FEC
:10212C00FFEE33FEED33FDCC33CCC833C810D707EC
:10213C009BEC9AE899400AED9BFDEC9AFCE899F827
:0E214C000FD5F0DAE4CDFBE4CCFAE4C8F922BA
:10215A00EB9FF5F0EA9E42F0E99D42F0E89C45F0DB
:01216A002252
:10216B00BB010DE58229F582E5833AF5830221E473
:10217B005007E92582F80221D8BBFE07E92582F832
:10218B000221F0E58229F582E5833AF5830221FCF1
:0C219B00ECF0A3EDF0A3EEF0A3EFF022B7
:1021A700A8828583F0D083D0821221BE1221BE126D
:1021B70021BE1221BEE473E493A3C583C5F0C58392
:1021C700C8C582C8F0A3C583C5F0C583C8C582C882
:0121D70022E5
:101BA600E508243BF582E43400F583E0050822903D
:101BB600003830070390003BE475F00112220C0256
:101BC6001F0B2000E97F2ED2008018EF540F2490BF
:101BD600D43440D4FF30040BEF24BFB41A005003B2
:101BE6002461FFE50960021509050CE50C70020584
:101BF6000B30070E900038E475F00112220CEF024C
:101C06001F5102399D7403D2078003E4C207F50809
:101C1600900038122223E4F509F50BF50CE509606E
:101C2600077F20121BE980F5750AFFC201C200C2B8
:101C360002C203C205C206C208121BB5FF700D30F0
:101C460007057F00121BFAAF0CAE0B22B4255FC24C
:101C5600D5C204121BB5FF24D0B40A00501A75F081
:101C66000A780930D50508B6FF0106C6A426F6206F
:101C7600D5047002D20380D924CFB41A00EF5004E1
:101C8600C2E5D204021DFBD20180C6D20080C0D2BA
:101C96000280BCD2D580BAD20580B47F20121BE95F
:101CA6002002077401B5090040F1121BA6FF121BA2
:101CB600E9021C23D208D2068095121BA6FB121B32
:101CC600A6FA121BA6F94A4B700679CC7A1E7BFF40
:101CD60020022EE509602A7E008E82758300121F7F
:101CE6002460060EEE650A70F0C2D5EBC0E0EAC0CD
:101CF600E0E9C0E0EE121E42D0E0F9D0E0FAD0E012
:101D0600FB121F0BFF60AAEBC0E0EAC0E0E9C0E0EF
:101D1600121BE9D0E02401F9D0E03400FAD0E0FB50
:101D2600E50A0460DCD50AD980877BFF7A1E793EF6
:101D3600D202809C791080027908C206C208800807
:101D4600D2D5790A8004790AC2D5E50A047002F56B
:101D56000AE4FAFDFEFF121BA6FC7B082001131203
:101D66001BA6FD7B1030000A121BA6FE121BA6FF47
:101D76007B20EC3382D592D55013C3E43000069F06
:101D8600FFE49EFEE42001039DFDE49CFCE4CBF809
:101D9600C201EC700CCFCECDCCE824F8F870F380FD
:101DA60017C3EF33FFEE33FEED33FDEC33FCEB33BD
:101DB600FB994002FB0FD8E9EB300105F8D0E0C4EF
:101DC60048B201C0E00AEC4D4E4F78207B0070C24D
:101DD600EAB50A0040BCC0E0121E44D0F0D0E020B4
:101DE6000104C4C0E0C4B201C0F0121BD2D0F0D5C9
:101DF600F0EB021C2312222C1CC0531D3A581C91D6
:101E06004C1C8D421D3E4F1D46441D46491CA64393
:081E16001D4C551D30461D3026
:101E1E00451D30471EEC501C952D1C992E1CBC2BBD
:101E2E001C9D231CBA201ED52A1C554800001CB42C
:101E3E003F3F3F00790AA2D5200314300509B9109F
:101E4E00020404B9080104A2D520060250010420A0
:101E5E0002689202B509005034C0E07F20300319A9
:101E6E007F30A20272067205500F121E9BC202C272
:101E7E0006C205C2087F30800F300503E9C0E012AC
:101E8E001BE9300503D0E0F9D0E0B509CC300517D9
:101E9E007F30B9100C121BE97F583004077F788011
:101EAE0003B90803121BE93002057F2D021BE97FDF
:101EBE00202008F87F2B2006F322920280CF286E76
:101ECE00756C6C2900D201121BA63001F8C2017884
:101EDE000930D50108F6021C552D50434958121BE6
:101EEE00A62403B405004001E4901EE793121BDA0A
:0D1EFE00743A121BDAD203750904021D3A72
:0C21D800E6FC08E6FD08E6FE08E6FF2233
:0C21E400E0FCA3E0FDA3E0FEA3E0FF226E
:0C21F000E2FC08E2FD08E2FE08E2FF222B
:1021FC00E493FC740193FD740293FE740393FF2229
:10220C00F8E0FBA3A3E0F925F0F0E582158270025B
:07221C001583E0FA38F022FF
:09222300EBF0A3EAF0A3E9F022BC
:10222C00D083D082F8E4937012740193700DA3A341
:10223C0093F8740193F5828883E473740293686055
:06224C00EFA3A3A380DF55
:10399D00EFB40A07740D1239A8740A309811A8995A
:1039AD00B8130CC2983098FDA899C298B811F6308A
:0739BD0099FDC299F5992262
:00000001FF
