:103ADD0053B1BF53B2BF53B17F53B27F75985043AB
:103AED008920438780438E1053C4DFAB07AA06A9F4
:103AFD0005A8047F407E427D0F7C0012213FEF041C
:093B0D00F404F58DD28ED2992248
:083D7E00C2998F993099FD22D2
:03003700023D7E09
:103984000D0A203D3D3D3D3D3D3D3D3D3D3D3D3DE3
:103994003D3D3D3D3D4D6F646966696564206F6ED4
:1039A40020284D61792032352032303230202D20CC
:1039B40031353A30353A3537293D3D3D3D3D3D3D84
:0C39C4003D3D3D3D3D3D3D3D3D3D3D0058
:043C5000410092009D
:1039370043B30153B4FE43B30253B4FD43B304533B
:10394700B4FB43B10853B2F743B11053B2EF53ACD2
:10395700FE43AD0143B30843B40843B31043B41067
:103967007F007EC27D017C00123ADD53E9FB43E90B
:0D3977002043EA0853EBF7439B02D2AF2236
:103CA500C2B07FC87E007D007C001237E4D2B07FB1
:0A3CB500C87E007D007C000237E4A9
:103D3E001239377BFF7A397984121C88123CA5120E
:043D4E0030DC80FEE7
:043C54004100907625
:073D5200123D59D2937F0AD4
:0A3D5900E4FEEEC39F50030E80F855
:013D6300223D
:103CD500D2947F01123D52C2947F07123D59C2937F
:053CE5007F01023D59C2
:0C3D7200C2947F02123D52D294023D59CF
:02389600AD077C
:10389800E4FCEDA804088002C333D8FC30E704D266
:1038A800948002C2947F03123D59D2930F123D595E
:1038B800C2930CECB408DB7F01123D59D2947F030C
:1038C800123D59D293123D59309407E4900091F07B
:0F38D80080069000917401F0C2937F03023D5966
:10000300E4FDD294FC7F01123D59C2937F04123D5B
:1000130059D2937F02123D59ED25E0FD3094010D35
:100023007F02123D590CECB408DBC2937F05123DED
:0300330059AF05BD
:0100360022A7
:103C6D00EF7004C2948002D2947F08123D59D29312
:0C3C7D007F0F123D59C2937F08023D5991
:0735BF00900012EDF0AC07D3
:1035C600123CD5AF04123896900091E07002802D1F
:1035D600900012E0FF123896900091E07002801D74
:1035E600E4900017F0900016E0FFA3E0C39F50227E
:1035F600121F82FF123896900091E07006123D72FB
:103606007F0022740129F9E43AFA900017E004F0E9
:0736160080D3123D727F0119
:01361D00228A
:08316700900011EFF0A3EDF060
:10316F00123CD5900011E0FF123896900091E0705C
:10317F00028022900012E0FF123896900091E070CA
:10318F00028012123CD5900011E004FF1238969085
:10319F000091E07009123D72E4121FC8FF22E49003
:1031AF000017F0900016E014FFA3E0C39F501B120E
:1031BF000003EF121FC8E4FF123C6D740129F9E4FC
:1031CF003AFA900017E004F080D9120003EF121FB3
:0B31DF00C87F01123C6D123D727F01A1
:0131EA0022C2
:023B1600AE07F8
:103B1800E4900010F0900090E0FFAD067B017A0081
:103B280079109000167401F0123167EF600690006A
:063B380010E0FF227F00F7
:013B3E002264
:023CEA00AE0723
:103CEC00900090E0FFAD0690006EE0900016F01290
:023CFC0031672E
:013CFE0022A3
:073C3200900010EDF0AE0759
:103C3900900090E0FFAD067B017A007910900016A4
:063C49007401F01235BF0A
:013C4F002252
:023CFF00AE070E
:103D0100900090E0FFAD06900073E0900016F01275
:023D110035BFBC
:013D1300228D
:10003E000A4C54393631312072696E672043686933
:10004E0070204944203D2030782562782C2030786D
:10005E002562782C2030782562782020000D0A1B2E
:10006E005B33356D4C54393631315F4C6F77506F91
:10007E007765725F6D6F64653A20656E7465722088
:10008E006C6F7720706F776572206D6F64651B5B88
:10009E0033376D000D0A1B5B33356D4C54393631D9
:1000AE00315F4C6F77506F7765725F6D6F64653A35
:1000BE002065786974206C6F7720706F7765722079
:1000CE006D6F64651B5B33376D000A4C54393631E6
:1000DE00315F4D4950495F496E7075745F44696771
:1000EE0074616C3A206C743936313120736574202A
:1000FE006D697069206C616E6573203D20256264A8
:10010E00000A4C54393631315F4D4950495F496EC2
:10011E007075745F44696774616C3A206C7439361B
:10012E00313120736574206D69706920706F72743F
:10013E0073203D2031000A4C54393631315F4D4920
:10014E0050495F496E7075745F44696774616C3AAB
:10015E00206C743936313120736574206D69706985
:10016E0020706F7274203D2032000A4C54393631A3
:10017E00315F4D4950495F496E7075745F446967D0
:10018E0074616C3A204C54393631312E6D69706978
:10019E005F6D6F6465203D20637369000A4C5439AE
:1001AE003631315F4D4950495F496E7075745F4409
:1001BE00696774616C3A204C54393631312E6D6951
:1001CE0070695F6D6F6465203D20647369001B5B11
:1001DE0033326D000A2D2D2D2D2D2D2D2D2D2D2D46
:1001EE002D2D2D2D2D2D2D2D2D2D2D2D2D2D2D2D31
:1001FE002D2D2D2D2D2D2D2D2D2D2D2D2D2D2D2D21
:10020E002D2D2D2D2D2D2D2D2D2D2D2D2D2D2D2D10
:10021E002D2D2D2D2D2D2D2D2D2D2D2D2D2D2D2D00
:10022E002D2D000A4C54393631315F566964656F95
:10023E005F436865636B3A20685F746F74616C5FCF
:10024E00737973636C6B203D202564000A4C54391E
:10025E003631315F566964656F5F436865636B3A2B
:10026E00206C74393631312E696E7075745F636F20
:10027E006C6F725F7370616365203D205955563403
:10028E003232000A4C54393631315F566964656F2B
:10029E005F436865636B3A206C74393631312E6971
:1002AE006E7075745F636F6C6F725F737061636590
:1002BE00203D20524742383838000A4C54393631E6
:1002CE00315F566964656F5F436865636B3A20689A
:1002DE005F6163745F612C20685F6163745F622C81
:1002EE0020765F6163742C20765F74616C3A2025F2
:1002FE00642C2025642C2025642C2025642C2000C1
:10030E000A4C54393631315F566964656F5F436804
:10031E0065636B3A206D6970695F766964656F5FBE
:10032E00666F726D61743A203078256278000D0A1E
:10033E004C54393631315F566964656F5F43686579
:10034E00636B3A20566964656F5F466F726D6174B8
:10035E00203D0020766964656F5F3634307834381E
:10036E00305F3630487A200020766964656F5F37DB
:10037E003230783438305F3630487A200020766953
:10038E0064656F5F373230783537365F3530487A8F
:10039E00200020766964656F5F31323830783732ED
:1003AE00305F3630487A200020766964656F5F31A1
:1003BE00323830783732305F3530487A2000207648
:1003CE006964656F5F31323830783732305F333081
:1003DE00487A200020766964656F5F313932307853
:1003EE00313038305F3630487A20002076696465C7
:1003FE006F5F3139323078313038305F3530487A8E
:10040E00200020766964656F5F3139323078313083
:10041E0038305F3330487A200020766964656F5F2C
:10042E003139323078313038305F3235487A200009
:10043E0020766964656F5F3139323078313038300B
:10044E005F3234487A200020766964656F5F3338F6
:10045E00343078323136305F3330487A20002076AF
:10046E006964656F5F3338343078323136305F32DD
:10047E0035487A200020766964656F5F33383430F2
:10048E0078323136305F3234487A20002076696413
:10049E00656F5F383030783630305F3630487A20CE
:1004AE000020766964656F5F3130323478373638C4
:1004BE005F3630487A200020766964656F5F31328E
:1004CE003830783736385F3630487A2000207669F3
:1004DE0064656F5F31323830783830305F3630488F
:1004EE007A200020766964656F5F31323830783853
:1004FE0030305F3330487A200020766964656F5F54
:10050E0031323830783936305F3630487A20002034
:10051E00766964656F5F31323830783936305F33E3
:10052E0030487A200020766964656F5F313238304A
:10053E0078313032345F3630487A20002076696464
:10054E00656F5F3136303078313230305F3630485B
:10055E007A200020766964656F5F313638307831E5
:10056E003035305F3630487A200020766964656F0A
:10057E005F31333636783736385F3630487A20007A
:10058E0020766964656F5F323536307831343430B9
:10059E005F3630487A200020766964656F5F3235A9
:1005AE00363078313434305F3530487A200020765A
:1005BE006964656F5F37323078313038305F36308E
:1005CE00487A200020766964656F5F313038307864
:1005DE00313932305F3630487A20002076696465D2
:1005EE006F5F3338343078313038305F3630487A98
:1005FE00200020766964656F5F3130323478363092
:10060E00305F3630487A200020766964656F5F353A
:10061E003430783936305F3630487A2000207669AB
:10062E0064656F5F3235363078313630305F363054
:10063E00487A200020766964656F5F3235363078EF
:10064E00313038305F3630487A2000207669646564
:10065E006F5F32353630783732305F3630487A2039
:10066E000020766964656F5F373230783530375FDA
:10067E003630487A200020766964656F5F313932F2
:10068E0030783732305F3630487A200020756E6B06
:10069E006E6F776E20766964656F20666F726D611E
:1006AE007420001B5B33376D1B5B33376D000D0AF7
:1006BE004C54393631315F4D4950495F5063723A6F
:1006CE0020363430783438305F3630487A000D0AB0
:1006DE004C54393631315F504C4C3A20736574208E
:1006EE00727820706C6C203D20256C64000D0A4CD5
:1006FE0054393631315F504C4C3A207063725F6D15
:10070E00203D2030782562782C2068646D695F70FA
:10071E006F73745F646976203D20256264000D0A54
:10072E004C54393631315F504C4C3A2048444D4987
:10073E0020706C6C206C6F636B6564000D0A4C54FA
:10074E00393631315F504C4C3A2048444D49207077
:10075E006C6C20756E6C6F636B65642C20726573A8
:10076E00657420706C6C000D0A4C54393631315F53
:10077E00484443505F456E61626C653A204F6E008F
:10078E000D0A1B5B33356D4C54393631315F48449D
:10079E004D495F4F75745F456E61626C651B5B33CF
:1007AE00376D000D0A1B5B33356D4C5439363131C4
:1007BE005F48444D495F4F75745F44697361626C65
:1007CE00651B5B33376D000D0A4C54393631315F82
:1007DE0048444D495F54585F4469676974616C3A87
:1007EE0020696E666F4672616D655F656E203D2095
:1007FE0030782530326278000D0A4C54393631315A
:10080E005F48444D495F54585F4469676974616C31
:10081E003A20484D4449206D6F6465203D20484480
:10082E004D49000D0A4C54393631315F48444D491B
:10083E005F54585F4469676974616C3A20484D444F
:10084E0049206D6F6465203D20445649000D0A4CC9
:10085E0054393631315F4353433A205970627072C6
:10086E002034323220746F20524742383838000D0F
:10087E000A417564696F20696E7574203D20493296
:10088E005320326368000D0A417564696F20696EEA
:10089E007574203D2053504449460020307825621F
:1008AE0078000D0A706F7274204120627974652091
:1008BE00636C6B203D20256C64000D0A706F7274A2
:1008CE002041206279746520636C6B20756E7374A1
:1008DE0061626C65000D0A706F727420422062793D
:1008EE00746520636C6B203D20256C64000D0A70CE
:1008FE006F72742042206279746520636C6B207570
:10090E006E737461626C65000D0A4C543936313168
:10091E005F456E61626C655F496E7465727275706B
:10092E0074733A206870645F6972715F656E61629C
:10093E006C65000D0A4C54393631315F456E61627B
:10094E006C655F496E74657272757074733A206867
:10095E0070645F6972715F64697361626C65000DCA
:10096E000A4C54393631315F456E61626C655F49B0
:10097E006E74657272757074733A207669645F6313
:10098E0068675F6972715F656E61626C65000D0A02
:10099E004C54393631315F456E61626C655F496E1C
:1009AE0074657272757074733A207669645F6368E9
:1009BE00675F6972715F64697361626C65000D0ACD
:1009CE004C54393631315F4844505F496E7465720C
:1009DE00727570745F48616E646C653A2048444D60
:1009EE004920636F6E6E6563746564000D0A4C5426
:1009FE00393631315F4844505F496E746572727595
:100A0E0070745F48616E646C653A206E6F206D691C
:100A1E00706920766964656F2C2064697361626CFD
:100A2E00652068646D69206F7574707574000D0AA9
:100A3E004C54393631315F4844505F496E7465729B
:100A4E00727570745F48616E646C653A2048444DEF
:100A5E004920646973636F6E6E6563746564000D1F
:100A6E000A4C54393631315F5669645F4368675FAB
:100A7E00496E746572727570745F48616E646C65F0
:100A8E003A20000D0A6365635F7374617475732891
:100A9E00307838366432293D203078256278000D62
:100AAE000A636563207265633A20000D0A73656EF2
:100ABE0064206461746120646F6E652E20000D0ADF
:100ACE0073657420706978656C20636C6B203D20B3
:100ADE00256C64000D0A232323232323232323239E
:100AEE0023234C543936313120496E697469616C57
:100AFE0020456E642323232323232323232323230D
:100B0E0023232323232300001000600030028003E0
:100B1E0020000A0002002101E0020D000000010188
:100B2E00000061A80010003E003C02D0035A0009EC
:100B3E000006001E01E0020D000000020100006927
:100B4E0078000C0040005802D0036000050005003C
:100B5E002702400271000000110100006978006E4A
:100B6E00002800DC0500067200050005001402D006
:100B7E0002EE01010004020001220A01B800280061
:100B8E00DC050007BC00050005001402D002EE01D2
:100B9E00010013020001220A0058002C0094078065
:100BAE0008980004000500240438046501010010B3
:100BBE0002000244140210002C009407800A500018
:100BCE000400050024043804650101001F02000220
:100BDE0044140058002C0094078008980004000567
:100BEE0000240438046501010022020001220A02D9
:100BFE0010002C009407800A500004000500240405
:100C0E0038046501010021020001220A027E002C37
:100C1E00009407800ABE0004000500240438046511
:100C2E0001010020020001220A00B0005801280F25
:100C3E000011300008000A0048087008CA010100BF
:100C4E005F02000488280420005801280F0014A019
:100C5E000008000A0048087008CA0101005E020080
:100C6E0004882804FC005801280F00157C00080099
:100C7E000A0048087008CA0101005D0200048828B5
:100C8E0000F8002C00940A000AA000040005000BD6
:100C9E000438044C0101000002000305700030000E
:100CAE00800058032004200001000400170258029F
:100CBE0074010100000200009C400018008800A092
:100CCE000400054000030006001D0300032600007B
:100CDE000000020000FDE80040008000C005000694
:100CEE00800003000700140300031E000100000231
:100CFE000001368C001C00200064050005A00002D7
:100D0E000006000F0320033700000000020001154B
:100D1E00580060007001380500070800010003004C
:100D2E002403C003E801010000020001A5E0004811
:100D3E00008000C805000690000300060016032080
:100D4E00033F00010000020000A3160060007001C6
:100D5E00380500070800010003002403C003E80162
:100D6E00010000020000D2F00030007000F8050013
:100D7E0006980001000300260400042A0101000069
:100D8E00020001A5E0004000C001300640087000DE
:100D9E00010003002E04B004E20101000002000273
:100DAE0078D0006800B00118069008C00003000655
:100DBE00001E041A0441000100000200023B4A0614
:100DCE00E0002800DC05000CE4000500050014021C
:100DDE00D002EE01010000020001220A003C003C9C
:100DEE0000640400048200020005000A0258026931
:100DFE000101000002000084D0000E003800400502
:100E0E005605DC00010003001C0300032001010055
:100E1E0000020001211000B0011001C00A000D8077
:100E2E0000030005002405A005CC0101000002000E
:100E3E0003E8FA0030002000500A000AA000030068
:100E4E0005002105A005C901010000020003AF5CE9
:100E5E000030002000500A000AA000030006002502
:100E6E000640066E0101000002000418D400B00016
:100E7E005801280F00113000040005002404380426
:100E8E006501010000020004882800DC005001B852
:100E9E000A000CE400050005001402D002EE010168
:100EAE00000002000244140004000500240438046B
:100EBE00650058002C00940780089801010000027C
:100ECE000002441400050005001402D002EE006E6C
:100EDE00002800DC0500067201010000020001225C
:100EEE000A001E000A001E021C0262000A000A000E
:100EFE000A03C003DE0101000002000082DC0010C4
:100F0E00003E003C02D0035A00090006000301FB1C
:100F1E00020D0000000302000069780058002C004A
:100F2E00940780089800050005001402D002EE0117
:080F3E0001000002000186A081
:103C580049003D010000000001010100410047004A
:043C680041003800DF
:1038E7007D807FFF123C327D017FEE123C32E4FF88
:1038F700123B16C0077F01123B16C0077F02123B1F
:1039070016900015EFF0900014D0E0F0900013D05F
:10391700E0F07BFF7A00793E121C887D817FFF12E1
:103927003C327D187F01123C327D807FFF023C32A2
:103B8A007D817FFF123C327D487F02123C327D806C
:103B9A007F23123C32E4FD7F30123C32E4FD7F0188
:033BAA00023C32A8
:10343300EF7D817FFF602E123C327D497F02123C7B
:10344300327D807F23123C32E4FD7F30123C327D9B
:10345300807FFF123C327D0A7F11123C327BFF7A60
:1034630000796B802C123C327D127F02123C327D3C
:10347300407F23123C327DEA7F30123C327D807FD5
:10348300FF123C327DFA7F11123C327BFF7A0079C6
:05349300A2121C8822BA
:1034FC007D827FFF123C327D117F51123C327D82E6
:10350C007FFF123C327D697F1B123C327D787F1C21
:10351C00123C327D697FCB123C327D787FCC123CE1
:10352C00327D807FFF123C327DF07F04123C327D75
:10353C00F07F06123C327D807F0A123C327D467F42
:10354C000B123C327DEF7F0D123C327DFA7F110263
:02355C003C32FF
:10367A007D817FFF123C327D607F06123C327D3FA6
:10368A007F07123C327D3F7F08123C327DFE7F0A63
:10369A00123C327DBF7F0B123C327D607F11123C9F
:1036AA00327D3F7F12123C327D3F7F13123C327DC6
:1036BA00FE7F15123C327DBF7F16123C327D037F9E
:0B36CA001C123C327D037F20023C32CA
:102F250090003EE0900000F07BFF7A0079D8900099
:102F350013F0121C887D827FFF123C327D807F4F0B
:102F4500123C327D107F50123C327D837FFF123C54
:102F550032900000E0FDE4FF123C327D087F021252
:102F65003C327D087F06123C3230900FE4FD7F0A2B
:102F7500123C327BFF7A01790F800D7D037F0A12A7
:102F85003C327BFF7A017944121C8890003FE07B3C
:102F9500FFB4011C7A017978121C887D837FFF12AA
:102FA5003C327D107F08123C327D407F2C023C3242
:072FB5007A0179AA121C88C1
:012FBC0022F2
:100F4600E4900003F07D827FFF123C327F86123BE5
:100F56001690000EE4F0A3EFF07F87123B16EFFD2C
:100F66007C0090000FE0FEE42DFFEC3E90000EF0BA
:100F7600A3EFF07BFF7A0179DC121C887BFF7A01F4
:100F860079E2121C887BFF7A02793190000EE0FF2D
:100F9600A3E0900013CFF0A3EFF0121C887F82121B
:100FA6003B1690000AE4F0A3EFF07F83123B16EFA6
:100FB600FD7C0090000BE0FEE42DFFEC3E90000A65
:100FC600F0A3EFF07F6C123B1690000CE4F0A3EF59
:100FD600F07F6D123B16EFFD7C0090000DE0FEE405
:100FE6002DFFEC3E90000CF0A3EFF07D837FFF1207
:100FF6003C327F82123B16900006E4F0A3EFF07FAE
:1010060083123B16EFFD7C00900007E0FEE42DFF07
:10101600EC3E900006F0A3EFF07F86123B169000A0
:1010260008E4F0A3EFF07F87123B16EFFD7C0090FB
:101036000009E0FEE42DFFEC3E900008F0A3EFF07F
:10104600900045E0B4011F7BFF7A02795A121C8892
:10105600900006E0C313F0A3E013F0A3E0C313F07F
:10106600A3E013F0803B900045E070357BFF7A02E9
:101076007991121C88900006E0FEA3E0FF7C007DBB
:1010860003121FFC900006EEF0A3EFF0A3E0FEA310
:10109600E0FF7C007D03121FFC900008EEF0A3EF3A
:1010A600F07F88123B16900003EFF07BFF7A0279FF
:1010B600C8900006E0FFA3E0900013CFF0A3EFF086
:1010C600900008E0FFA3E0900015CFF0A3EFF090AA
:1010D600000AE0FFA3E0900017CFF0A3EFF0900026
:1010E6000CE0FFA3E0900019CFF0A3EFF0121C88EC
:1010F6007BFF7A03790E900003E0900013F0121C38
:1011060088209018900008E0FEA3E0FF900007E01A
:101116002FFF900006E03E900004800B900006E052
:10112600FFA3E0900004CFF0A3EFF07BFF7A0379F2
:101136003C121C88900B1BE493FE740193FF9000F5
:1011460004E0B5063BA3E0B50736900B25E493FE15
:10115600740193FF90000AE0B50625A3E0B50720C9
:101166007BFF7A037961121C889000467401F09027
:10117600003A74FFF0A3740BF0A37415F0021C0B75
:10118600900B38E493FE740193FF900004E0B506DB
:101196003BA3E0B50736900B42E493FE740193FF40
:1011A60090000AE0B50625A3E0B507207BFF7A0389
:1011B6007976121C889000467402F090003A74FF0B
:1011C600F0A3740BF0A37432F0021C0B900B55E4E1
:1011D60093FE740193FF900004E0B5063BA3E0B5CF
:1011E6000736900B5FE493FE740193FF90000AE0CC
:1011F600B50625A3E0B507207BFF7A03798B121C81
:10120600889000467403F090003A74FFF0A3740BC4
:10121600F0A3744FF0021C0B900B72E493FE740162
:1012260093FF900004E06E7003A3E06F6003021268
:10123600DF900B7C93FE740193FF90000AE06E70C2
:1012460003A3E06F60030212DFC390000FE0947601
:1012560090000EE0940250207BFF7A0379A0121CC6
:10126600889000467404F090003A74FFF0A3740B63
:10127600F0A3746CF0021C0BC390000FE094EE9088
:10128600000EE0940250207BFF7A0379B6121C8888
:10129600900046740BF090003A74FFF0A3740BF0C4
:1012A600A37489F0021C0BC390000FE094CE90004B
:1012B6000EE094044003021C0B7BFF7A0379CC12E8
:1012C6001C88900046740CF090003A74FFF0A374EA
:1012D6000DF0A374CDF0021C0B900BACE493FE74DE
:1012E6000193FF900004E06E7003A3E06F600302B9
:1012F60013FE900BB693FE740193FF90000AE06E06
:101306007003A3E06F60030213FEC390000FE09426
:10131600AE90000EE0940150207BFF7A0379E21232
:101326001C889000467405F090003A74FFF0A37490
:101336000BF0A374A6F0021C0BC390000FE094FE02
:1013460090000EE0940150207BFF7A0379F9121C7D
:1013560088900046741AF090003A74FFF0A3740B5C
:10136600F0A374C3F0021C0BC390000FE0943E90F0
:10137600000EE0940350207BFF7A047910121C883B
:10138600900046741BF090003A74FFF0A3740BF0C3
:10139600A374E0F0021C0BC390000FE094D49000FD
:1013A6000EE0940350207BFF7A047927121C889064
:1013B6000046741CF090003A74FFF0A3740BF0A37F
:1013C60074FDF0021C0BC390000FE0940690000E13
:1013D600E094044003021C0B7BFF7A04793E121C46
:1013E60088900046741DF090003A74FFF0A3740CC8
:1013F600F0A3741AF0021C0B900C3DE493FE7401EA
:1014060093FF900004E06E7003A3E06F6003021484
:10141600BF900C4793FE740193FF90000AE06E7034
:1014260003A3E06F60030214BFC390000FE094AE05
:1014360090000EE0940150207BFF7A047955121C2F
:1014460088900046740DF090003A74FFF0A3740C77
:10145600F0A37437F0021C0BC390000FE094EA90DF
:10146600000EE0940150207BFF7A04796C121C88F0
:10147600900046740EF090003A74FFF0A3740CF0DE
:10148600A37454F0021C0BC390000FE09408900064
:101496000EE094024003021C0B7BFF7A0479831250
:1014A6001C88900046740FF090003A74FFF0A37405
:1014B6000CF0A37471F0021C0B900CB1E493FE7453
:1014C6000193FF900004E0B5062CA3E0B507279032
:1014D6000CBBE493FE740193FF90000AE0B5061678
:1014E600A3E0B507117BFF7A04799A121C88900055
:1014F6004674200215BF900CCEE493FE740193FF50
:10150600900004E0B5062CA3E0B50727900CD8E4BC
:1015160093FE740193FF90000AE0B50616A3E0B5AA
:1015260007117BFF7A0479AF121C8890004674205D
:1015360002160B900CEBE493FE740193FF900004EB
:10154600E0B5063BA3E0B50736900CF5E493FE74D0
:101556000193FF90000AE0B50625A3E0B507207BBE
:10156600FF7A0479C5121C88900046741FF090001B
:101576003A74FFF0A3740CF0A374E5F0021C0B9010
:101586000CB1E493FE740193FF900004E0B5063BB2
:10159600A3E0B50736900CBBE493FE740193FF906D
:1015A600000AE0B50625A3E0B507207BFF7A04799B
:1015B6009A121C88900046741FF090003A74FFF04F
:1015C600A3740CF0A374ABF0021C0B900CCEE49346
:1015D600FE740193FF900004E0B5063BA3E0B50757
:1015E60036900CD8E493FE740193FF90000AE0B5A0
:1015F6000625A3E0B507207BFF7A0479AF121C8885
:10160600900046741FF090003A74FFF0A3740CF03B
:10161600A374C8F0021C0B900D08E493FE740193AA
:10162600FF900004E06E7003A3E06F7053900D12FC
:1016360093FE740193FF90000AE06E7003A3E06FBF
:10164600703EC390000FE0943090000EE094027B51
:10165600FF500F7A0479DB121C88900046741F0233
:101666001A247A0479F1121C88900046741FF090AF
:10167600003A74FFF0A3740DF0A3743CF0021C0B47
:10168600900D25E493FE740193FF900004E06E70C4
:1016960003A3E06F7062900D2F93FE740193FF9089
:1016A600000AE06E7003A3E06F704DC390000FE078
:1016B60094CC90000EE094017BFF501E7A057907CA
:1016C600121C88900046741FF090003A74FFF0A335
:1016D600740DF0A3741FF0021C0B7A05791D121C01
:1016E60088900046741FF090003A74FFF0A3740DC2
:1016F600F0A37459F0021C0B900D7CE493FE740168
:1017060093FF900004E0B5063BA3E0B50736900DC5
:1017160086E493FE740193FF90000AE0B50625A3C4
:10172600E0B507207BFF7A057933121C88900046C6
:10173600741FF090003A74FFF0A3740DF0A3747652
:10174600F0021C0B900D99E493FE740193FF900038
:1017560004E0B5063BA3E0B50736900DA3E493FE7F
:10176600740193FF90000AE0B50625A3E0B50720B3
:101776007BFF7A05794A121C88900046741FF09008
:10178600003A74FFF0A3740DF0A37493F0021C0BDF
:10179600900DB6E493FE740193FF900004E0B50645
:1017A6003BA3E0B50736900DC0E493FE740193FFAA
:1017B60090000AE0B50625A3E0B507207BFF7A0571
:1017C6007961121C88900046741FF090003A74FFED
:1017D600F0A3740DF0A374B0F0021C0B900E0DE490
:1017E60093FE740193FF900004E0B5063BA3E0B5B9
:1017F6000736900E17E493FE740193FF90000AE0FB
:10180600B50625A3E0B507207BFF7A057978121C7B
:10181600889000467416F090003A74FFF0A3740E98
:10182600F0A37407F0021C0B900E47E493FE7401BC
:1018360093FF900004E06E7003A3E06F7076900E45
:101846005193FE740193FF90000AE06E7003A3E0CB
:101856006F7061C390000FE0943690000EE0940123
:1018660050207BFF7A05798E121C889000467418EA
:10187600F090003A74FFF0A3740EF0A37441F002E6
:101886001C0BC390000FE0947290000EE094014090
:1018960003021C0B7BFF7A0579A5121C8890004673
:1018A600741FF090003A74FFF0A3740EF0A3742432
:1018B600F0021C0B900ED8E493FE740193FF900087
:1018C60004E0B5063BA3E0B50736900EE2E493FECE
:1018D600740193FF90000AE0B50625A3E0B5072042
:1018E6007BFF7A0579BC121C889000467413F09031
:1018F600003A74FFF0A3740EF0A374D2F0021C0B2E
:10190600900EBBE493FE740193FF900004E0B506CD
:101916003BA3E0B50736900EC5E493FE740193FF32
:1019260090000AE0B50625A3E0B507207BFF7A05FF
:1019360079D2121C889000467412F090003A74FF17
:10194600F0A3740EF0A374B5F0021C0B900E81E4A4
:1019560093FE740193FF900004E0B5063BA3E0B547
:101966000736900E8BE493FE740193FF90000AE015
:10197600B50625A3E0B507207BFF7A0579E9121C99
:10198600889000467410F090003A74FFF0A3740E2D
:10199600F0A3747BF0021C0B900DF0E493FE74012F
:1019A60093FF900004E0B5063BA3E0B50736900D23
:1019B600FAE493FE740193FF90000AE0B50625A3AE
:1019C600E0B507207BFF7A067900121C8890004656
:1019D6007411F090003A74FFF0A3740DF0A374EA4A
:1019E600F0021C0B900D08E493FE740193FF900027
:1019F60004E0B5063BA3E0B50736900D12E493FE6E
:101A0600740193FF90000AE0B50625A3E0B5072010
:101A16007BFF7A0479DB121C889000467414F090E0
:101A2600003A74FFF0A3740DF0A37402F0021C0BCD
:101A3600900EF5E493FE740193FF900004E0B50662
:101A46003BA3E0B50736900EFFE493FE740193FFC7
:101A560090000AE0B50625A3E0B507207BFF7A06CD
:101A66007916121C889000467415F090003A74FF9F
:101A7600F0A3740EF0A374EFF0021C0B900E64E456
:101A860093FE740193FF900004E0B5063BA3E0B516
:101A96000736900E6EE493FE740193FF90000AE001
:101AA600B50625A3E0B507207BFF7A06792B121C25
:101AB600889000467417F090003A74FFF0A3740EF5
:101AC600F0A3745EF0021C0B900C94E493FE740178
:101AD60093FF900004E0B5063BA3E0B50736900CF3
:101AE6009EE493FE740193FF90000AE0B50625A3D9
:101AF600E0B507207BFF7A067942121C88900046E3
:101B06007419F090003A74FFF0A3740CF0A3748E6D
:101B1600F0021C0B900E9EE493FE740193FF90005E
:101B260004E0B5063BA3E0B50736900EA8E493FEA5
:101B3600740193FF90000AE0B50625A3E0B50720DF
:101B46007BFF7A067959121C88900046741EF09025
:101B5600003A74FFF0A3740EF0A37498F0021C0B05
:101B6600900F12E493FE740193FF900004E0B50613
:101B76003AA3E0B50735900F1CE493FE740193FF7A
:101B860090000AE0B50624A3E0B5071F7BFF7A069E
:101B9600796F121C88900046741FF090003A74FF0B
:101BA600F0A3740FF0A3740CF0805A900F2FE493F7
:101BB600FE740193FF900004E0B5063AA3E0B50772
:101BC60035900F39E493FE740193FF90000AE0B557
:101BD6000624A3E0B5071F7BFF7A067984121C88CA
:101BE600900046741FF090003A74FFF0A3740FF053
:101BF600A37429F0800F9000467420F07BFF7A06CC
:101C0600799A121C887BFF7A0179E2121C887BFF85
:071C16007A0679B1021C8877
:102A6E00900006EBF0A3EAF0A3E9F07D837FFF125E
:102A7E003C32900006E0FBA3E0FAA3E0F9900012CE
:102A8E0012207CE5F0FD7F0D123C32900006E0FB3B
:102A9E00A3E0FAA3E0F990001212207CFD7F0E1243
:102AAE003C32900006E0FBA3E0FAA3E0F9900010A0
:102ABE0012207CE5F0FD7F0F123C32900006E0FB09
:102ACE00A3E0FAA3E0F990001012207CFD7F101213
:102ADE003C32900006E0FBA3E0FAA3E0F990000878
:102AEE0012207CE5F0FD7F11123C32900006E0FBD7
:102AFE00A3E0FAA3E0F990000812207CFD7F1212E9
:102B0E003C32900006E0FBA3E0FAA3E0F990000649
:102B1E0012207CE5F0FD7F13123C32900006E0FBA4
:102B2E00A3E0FAA3E0F990000612207CFD7F1412B8
:102B3E003C32900006E0FBA3E0FAA3E0F990000C13
:102B4E0012207CFD7F15123C32900006E0FBA3E0C4
:102B5E00FAA3E0F990000212207CFD7F16123C329F
:102B6E00900006E0FBA3E0FAA3E0F990000A122021
:102B7E007CFD7F17123C32900006E0FBA3E0FAA327
:102B8E00E0F990000E12207CFFAEF090000C1220A7
:102B9E007C2FFFE5F03EAD077F18123C3290000609
:102BAE00E0FBA3E0FAA3E0F9122051FD7F19123CDD
:102BBE0032900006E0FBA3E0FAA3E0F990000412C5
:102BCE00207CFFAEF090000212207C2FE5F03EFD3F
:102BDE00122051E5F0C4F8540FC868FFEF2DFD7FA9
:102BEE001A123C32900006E0FBA3E0FAA3E0F99043
:102BFE00000412207CFFAEF090000212207C2FFF0A
:0A2C0E00E5F03EAD077F1B023C32EB
:0B28BE0090003AE0FBA3E0FAA3E0F971
:1028C90090000612207CFF900004E5F0F0A3EFF0E1
:1028D900900014121F9B25E0FF900015121F9B2FDB
:1028E900900003F0F4F05403F07D837FFF123C3233
:1028F900209064900004E0FEA3E07802CEC313CEDA
:1029090013D8F9F0EE900004F0A3E02450F0900001
:1029190004E03400F0E0FEA3E0FFC394E0EE94038A
:10292900500280047E037FE0900004EEF0A3EFF0F4
:10293900900004E0FD7F0B123C32900004A3E0FDFF
:102949007F0C123C32900004E0FD7F48123C32902B
:102959000004A3E0FD80177D017F0B123C327D103E
:102969007F0C123C32E4FD7F48123C327D817F4965
:10297900123C327D4A7F21123C327D717F24123C08
:10298900327D307F25123C327D017F2A123C327D17
:10299900407F4A123C32900003E04410FD7F1D1233
:1029A9003C32900046E014600D14600A24F1606521
:1029B90024FC6061807B7D837FFF123C327D027F36
:1029C9000B123C327D407F0C123C327D017F481254
:1029D9003C327D107F49123C327D707F24123C329B
:1029E9007D807F25123C327D107F2A123C327D800A
:1029F9007F2B123C327D287F23123C327D107F4A87
:102A0900123C327DF37F1D123C327BFF7A0679BC82
:102A1900121C88801C7D707F24123C327D807F25AA
:102A2900123C327D107F2A123C327DF07F1D123C10
:102A39003290003AE0FBA3E0FAA3E0F9122A6E7D96
:102A4900837FFF123C32900039E0FD7F26123C3231
:102A59007D807FFF123C327D5A7F11123C327DFA14
:052A69007F11023C3268
:0B22C90090003AE0FBA3E0FAA3E0F96C
:1022D4009000191221E29000031222127BFF7A0669
:1022E40079DC900003E0FCA3E0FDA3E0FEA3E0FFA3
:1022F400900013122212121C887D817FFF123C323F
:102304007D407F23123C327D627F24123C327D80EB
:102314007F25123C327D557F26123C327D377F2C3F
:10232400123C327D017F2F123C327D557F26123CB8
:10233400327D667F27123C327D887F28123C327FB3
:10234400F07E497D027C00900003E0F8A3E0F9A34D
:10235400E0FAA3E0FBD31221D1400F7D887F2D1238
:102364003C329000077401F080387F807E387D0114
:102374007C00900003E0F8A3E0F9A3E0FAA3E0FBFB
:10238400D31221D1400F7D997F2D123C329000074A
:102394007402F0800D7DAA7F2D123C3290000774E8
:1023A40004F0E47F05FEFDFC900003E0F8A3E0F9EF
:1023B400A3E0FAA3E0FB1220B4A804A905AA06AB83
:1023C40007900007E0FFE4FCFDFE1220B4E47B78F4
:1023D4007A69F9F812213F900039EFF07BFF7A0611
:1023E40079FBE0900013F0900007E0900014F012E5
:1023F4001C887D837FFF123C327D407F2D123C324E
:102404007D087F31123C32900039E04480FD7F2604
:10241400123C32900003E0FCA3E0FDA3E0FEA3E045
:10242400FFE47B02FAF9F812213F90000312221212
:102434007D827FFF123C32E4FBFA7901F8900003BD
:10244400E0FCA3E0FDA3E0FEA3E0FF12213FAD0703
:102454007FE3123C32900003A3A3E0FEA3E0FFE479
:10246400FDFC900003122212E4FB7A01F9F89000BB
:1024740003E0FCA3E0FDA3E0FEA3E0FF12213FADD7
:10248400077FE4123C32900003E0FCA3A3E0FEA328
:10249400E0FFE4AD077FE5123C327D207FDE123C95
:1024A400327DE07FDE123C327D807FFF123C327D44
:1024B400F17F16123C327DF37F16123C32E4900019
:1024C40008F07D807FFF123C327DE37F16123C32A0
:1024D4007DF37F16123C327D827FFF123C327F15E2
:1024E400123B16EF30E7097BFF7A07792C021C8830
:1024F4007D807FFF123C327D5A7F11123C327DFA7F
:102504007F11123C327DDC7F18123C327DFC7F1837
:10251400123C327DF17F16123C327DF37F16123C61
:10252400327BFF7A07794A121C88900008E004F095
:06253400E0C39406408C98
:01253A00227E
:1033CA007D817FFF123C327DFF7F30123C327D735C
:1033DA007F31123C327DFE7F32123C327D737F3365
:1033EA00123C327D037F34123C327D037F35123C1E
:1033FA00327D037F36123C327D447F37123C327D68
:10340A000F7F3F123C327DA07F40123C327DA07F6D
:10341A0041123C327DA07F42123C327DA07F431292
:09342A003C327D0A7F44023C3271
:103BAD007D857FFF123C327D1F7F07123C327DFEEB
:103BBD007F13123C327D0F7F17123C327D057F152E
:033BCD00023C3285
:103AA3007D807FFF123C327D7F7F14123C327DFF8D
:103AB3007F14123C327D857FFF123C327D017F15DE
:103AC300123C327D717F15123C327D657F15123CAD
:0A3AD300327BFF7A077975021C8828
:0E3D64007D857FFF123C327D457F15023C328B
:10326A007D817FFF123C327D407F23123C327D827A
:10327A007FFF123C327D207FDE123C327DE07FDE12
:10328A00123C327D807FFF123C327DDC7F18123C7B
:10329A00327DFC7F18123C327DF17F16123C327D62
:1032AA00F37F16123C327D5A7F11123C327DFA7F2F
:1032BA0011123C327D817FFF123C327DEA7F30124F
:1032CA003C32900043E0B40105123AA38003123D58
:0A32DA00647BFF7A07798E021C88DE
:103BF2007D817FFF123C32E4FD7F30123C327D80BA
:103C02007F23123C327BFF7A0779B1121C88023D76
:013C1200644D
:0B253B0090003AE0FBA3E0FAA3E0F9F7
:1025460090001612207C900003F0900018121F9B3A
:10255600900004F0900008740AF07BFF7A0779D5A2
:10256600900013F0121C88900004E0C454F0240874
:10257600FF900006F0900003E0900007F0FD7C005D
:102586007E002FFBEE33FAD3EB945FEA64809480EF
:102596005013C3745F9FCBE49ECBC39DFDEB9CFCA5
:1025A600FEAF058016C3745F9FFF74019EFE900008
:1025B60007E0FDC3EF9DFFEE9400FE900005EFF0EF
:1025C6007D827FFF123C32900044E0B4010F7D8E85
:1025D6007FD6123C327BFF7A08790680139000443E
:1025E600E070107D0E7FD6123C327BFF7A0879317F
:1025F600121C88900041E070077D047FD7123C32A0
:10260600900041E0B401077D807FD7123C327D8483
:102616007FFF123C32900005E0FD7F43123C329072
:102626000006E0FD7F45123C32900007E0FD7F4743
:10263600123C327D847FFF123C327D027F10123CB9
:10264600327D647F12123C32900003E0645F704C6E
:102656007D847FFF123C327D017F3D123C327D81BD
:102666007F74123C327D017F75123C327D057F7688
:10267600123C327D497F77123C327D037F78123CD3
:10268600327D0C7F79123C32E4FD7F7A123C327D3A
:10269600207F7B123C327D017F7C800E7D847FFF14
:1026A600123C32900008E0FD7F3D123C329000085B
:1026B600E060467D847FFF123C32E4FD7FC0123C21
:1026C60032E4FD7FC1123C32E4FD7FC2123C32E4AB
:1026D600FD7FC3123C32E4FD7FC4123C32E4FD7F31
:1026E600C5123C32E4FD7FC6123C32E4FD7FC712C0
:0926F6003C32E4FD7FC8123C32C5
:0126FF0022B8
:103C1300900045E0B401177D827FFF123C327D188E
:0F3C23007FB9123C327BFF7A08795B121C882232
:1032E400900041E070417BFF7A08797D121C887D53
:1032F400847FFF123C327D087F06123C327D107FB2
:1033040007123C327D2B7F0F123C327DD47F341266
:103314003C32E4FD7F35123C327D187F36123C325C
:10332400E4FD7F37123C32900041E0640170257B5C
:10333400FF7A087994121C887D847FFF123C327DC9
:103344000C7F06123C327D107F07123C327DD47F05
:0533540034123C32229E
:01003A0022A3
:103CBF007D827FFF123C327F5E123B16EF30E203B4
:063CCF007F01227F0022AC
:10355E00EF7D807FFF604F123C327DFF7F0D123C6E
:10356E00327DF97F15123C327D867FFF123C32E4AC
:10357E00FD7FFA123C327DA57FFE123C327D7F7FAD
:10358E00FC123C32E4FD7FFC123C327D827FFF1246
:10359E003C327D7F7F01123C327DFF7F05123C3233
:1035AE007D7F7F058007123C327DF17F15123C3204
:0135BE0022EA
:103D14007D867FFF123C327D207FF7123C32E4FD2A
:053D24007FF8023C32B3
:0B2FBD00900004EBF0A3EAF0A3E9F0A1
:102FC8007D867FFF123C327FD3123B16900007EFBD
:102FD800F0900004E0FBA3E0FAA3E0F9EF121FC8A9
:102FE8009000087401F0900007E0FFA3E0FED39F73
:102FF8005048EE24D3FF123B16900004E0FBA3E0F8
:10300800FAA3E0F9900008E0FEF582758300EF125C
:103018001FDA900004E0FBA3E0FAA3E0F98E8275C2
:103028008300121F9B900013F07BFF7A0879A91286
:103038001C88900008E004F080ACE4FD7FF5123CA9
:07304800329000477401F013
:01304F00225E
:0B349800900000EBF0A3EAF0A3E9F0C5
:1034A300121F82900003F07D867FFF123C32900052
:1034B30003E0FD7FF4123C32E4900004F09000033B
:1034C300E0FFA3E0FED39F5029EE24E4FFEE2401A6
:1034D300FDE433FC900000E0FBA3E0FAA3E0F98DE8
:1034E300828C83121F9BFD123C32900004E004F097
:0934F30080CB7D037FF9023C321D
:103BD0009000587405F0A37440F0A37484F0A374AB
:103BE00010F0E4A3F0A37405F07B017A0079580289
:023BF000349807
:102C180090000112221E000000007BFF7A0179DC7F
:102C2800121C887D827FFF123C327D037FC7123CD5
:102C3800327F327E007D007C001237E47FCD123B6C
:102C480016900000EFF0546064606003022CE8E026
:102C5800540FFFE4FCFDFEFBFA7901F81220B49052
:102C680000011222127FCE123B16900000EFF0A353
:102C7800E0F8A3E0F9A3E0FAA3E0FB900000E07F0E
:102C880000FEE4FCFDEF2BFFEA3EFEED39FDEC38DB
:102C9800FCA31222127FCF123B16900000EFF0A384
:102CA800E0F8A3E0F9A3E0FAA3E0FB900000E0FF5E
:102CB800E4FCFDFEEB2FFFEE3AFEED39FDEC38FCAF
:102CC800A31222127BFF7A0879B0900001E0FCA3DE
:102CD800E0FDA3E0FEA3E0FF90001312221280069D
:102CE8007BFF7A0879C8121C887D827FFF123C32EC
:102CF8007D047FC7123C327F327E007D007C00124B
:102D080037E47FCD123B16900000EFF0546064600A
:102D18006003022DAEE0540FFFE4FCFDFEFBFA79E0
:102D280001F81220B49000011222127FCE123B1635
:102D3800900000EFF0A3E0F8A3E0F9A3E0FAA3E025
:102D4800FB900000E07F00FEE4FCFDEF2BFFEA3E75
:102D5800FEED39FDEC38FCA31222127FCF123B1690
:102D6800900000EFF0A3E0F8A3E0F9A3E0FAA3E0F5
:102D7800FB900000E0FFE4FCFDFEEB2FFFEE3AFEC7
:102D8800ED39FDEC38FCA31222127BFF7A0879E3B7
:102D9800900001E0FCA3E0FDA3E0FEA3E0FF9000AB
:102DA8001312221280067BFF7A0879FB121C887B9B
:082DB800FF7A0679B1021C88C4
:013D8600221A
:013D87002219
:013D88002218
:103C89007D827FFF123C327D0A7F58123C327D8053
:0C3C99007F59123C327DF77F9E023C32C6
:102E7C00900004EDF0900003EFF064017042A3E0C9
:102E8C007D827FFF6020123C327DFF7F07123C3237
:102E9C007D3F7F07123C327D3F7F03123C327BFF2C
:102EAC007A0979168017123C327DFF7F07123C326B
:102EBC007DFF7F03123C327BFF7A097941121C881B
:102ECC00900003E064027050A3E07D827FFF602ECF
:102EDC00123C327DFF7F9E123C327DF77F9E123C6E
:102EEC00327DFF7F04123C327DFE7F04123C327D2A
:102EFC00FEE4FF123C327BFF7A09796D8017123C9D
:102F0C00327DFF7F04123C327DFFE4FF123C327BAA
:092F1C00FF7A09799C121C88223D
:1031EB00123CBF900038EFF07D827FFF123C327DA6
:1031FB00FF7F07123C327D3F7F07123C3290003835
:10320B00E060467BFF7A0979CC121C88E4FF12340C
:10321B00337D017F02122E7C7F647E007D007C005B
:10322B001237E412003A120F46900046E064206019
:10323B000C1222C91228BE12253B02326A123BF233
:10324B007BFF7A0979FA021C887BFF7A0A793C1298
:0F325B001C88E4FD7F02122E7C7F011234332287
:1039D0007BFF7A0A796D121C887D827FFF123C3250
:1039E0007DFF7F9E123C327DF77F9E123C327DFF31
:1039F0007F04123C327DFE7F04123C32120F46904F
:103A00000046E06420600C1222C91228BE12253B39
:073A100002326A123BF222B0
:103359007D867FFF123C327FD2123B16900003EF2D
:10336900F07BFF7A0A7991900013F0121C88900083
:1033790003E030E1127BFF7A0A79AD121C887B01E8
:103389007A007948122FBD900003E030E0097BFFF5
:103399007A0A79B9121C887D867FFF123C327D7FBB
:1033A9007FFC123C32E4FD7FFC123C327D827FFFC0
:1033B900123C327DFF7F05123C327D7F7F05023C46
:0133C90032D1
:0B270000900074EBF0A3EAF0A3E9F0F6
:10270B00900074E0FBA3E0FAA3E0F9900015121F10
:10271B009BC43354E0FF900014121F9BC454F02F42
:10272B00900077F0F4F05430F07D827FFF123C3252
:10273B00900074E0FBA3E0FAA3E0F99000041220F0
:10274B007CFFAEF090000212207C2FE5F03EFD7F67
:10275B00A3123C32900074E0FBA3E0FAA3E0F990E3
:10276B00000412207CFFAEF090000212207C2FFFA1
:10277B00E5F03EAD077FA4123C32900074E0FBA362
:10278B00E0FAA3E0F990000E12207CFFAEF090006F
:10279B000C12207C2FFFE5F03EAD077FA5123C32DB
:1027AB00900074E0FBA3E0FAA3E0F990000612207E
:1027BB007CE5F0FD7FA6123C32900074E0FBA3E0B9
:1027CB00FAA3E0F990000612207CFD7FA7123C32A1
:1027DB00900074E0FBA3E0FAA3E0F9900010122044
:1027EB007CE5F0FD7FA8123C32900074E0FBA3E087
:1027FB00FAA3E0F990001012207CFD7FA9123C3265
:10280B00900074E0FBA3E0FAA3E0F990000812201B
:10281B007CE5F0FD7FAA123C32900074E0FBA3E054
:10282B00FAA3E0F990000812207CFD7FAB123C323A
:10283B00900074E0FBA3E0FAA3E0F99000121220E1
:10284B007CE5F0FD7FAC123C32900074E0FBA3E022
:10285B00FAA3E0F990001212207CFD7FAD123C32FE
:10286B00900074E0FBA3E0FAA3E0F99000021220C1
:10287B007CE5F0FD7FAE123C32900074E0FBA3E0F0
:10288B00FAA3E0F990000212207CFD7FAF123C32DC
:10289B00900074E0FBA3E0FAA3E0F990000C122087
:1028AB007CFD7FB0123C32900077E04407FD7F4700
:0328BB00023C32AA
:102DC0009000191221E29000781222127BFF7A0AF9
:102DD00079CC900078E0FCA3E0FDA3E0FEA3E0FF47
:102DE000900013122212121C887D837FFF123C3246
:102DF0007D507F2D123C327F287E887D047C0090A0
:102E00000078E0F8A3E0F9A3E0FAA3E0FBC3122105
:102E1000D1700E7DB67F26123C327DF07F27123CAA
:102E2000327F147E447D027C00900078E0F8A3E0BD
:102E3000F9A3E0FAA3E0FBC31221D170077DB77FAD
:102E400026123C327F0A7E227D017C00900078E0D1
:102E5000F8A3E0F9A3E0FAA3E0FBC31221D17007C5
:102E60007D9C7F26123C327D807FFF123C327D5A52
:0C2E70007F11123C327DFA7F11023C32CF
:103D29007D827FFF123C327D807F4F123C327D20A5
:053D39007F50023C3246
:103A170090003A74FFF0A3740BF0A374A6F0123869
:103A2700E71234FC12003A123D291222C990003ADB
:103A3700E0FBA3E0FAA3E0F912270012253B1233BB
:103A4700CA123D871232E4123BAD12326A7F01126D
:073A5700355E123D1480FEF4
:1030DC001238E71234FC12003A12367A122F257F7E
:1030EC00E87E037D007C001237E4120F461222C9E1
:1030FC001228BE1232E4123C13123BAD12253B12C5
:10310C0033CA123C897F0112355E123D147D017F5A
:10311C0001122E7CE4FD7F02122E7C122C18123D23
:10312C0088123D86123D877BFF7A0A79E2121C8851
:10313C001231EB900092E0600B123A5EE490009238
:10314C00F0439B02900047E060E990004AE0B485B0
:0B315C0003123BD0E4900047F080D845
:03003B00023B661F
:103B6600C0E0C083C082C0D0E5ECB4080575EC00A7
:103B7600C2899000927401F0539BFDD0D0D082D0C0
:043B860083D0E032D6
:103A5E007D827FFF123C327F0C123B16900001EFED
:103A6E00F07F0D123B16900002EFF07F0F123B1607
:103A7E00900000EFF0900002E030E703123359900F
:103A8E000000E054C060031231EB900001E030E022
:043A9E00031239D006
:013AA2002201
:030000000230507B
:0C305000787FE4F6D8FD758121023097EE
:10378B0090007C122212538EF7438901D28CE4FFF6
:10379B00FEFDFC90007CE0F8A3E0F9A3E0FAA3E0C7
:1037AB00FBC31221D1602F758A7E758CFF308DFD86
:1037BB00C28D90007CE0FCA3E0FDA3E0FEA3E0241F
:1037CB00FFFFEE34FFFEED34FFFDEC34FFFC900009
:0937DB007C12221280B8C28C227B
:1037E400900005122212538EF7438901D28CE4FF14
:1037F400FEFDFC900005E0F8A3E0F9A3E0FAA3E0E5
:10380400FBC31221D1602F758ACA758CFA308DFDE5
:10381400C28D900005E0FCA3E0FDA3E0FEA3E0243C
:10382400FFFFEE34FFFEED34FFFDEC34FFFC9000AF
:093834000512221280B8C28C2298
:10383D00900080122212538EEF438910D28EE4FF36
:10384D00FEFDFC900080E0F8A3E0F9A3E0FAA3E010
:10385D00FBC31221D1602F758BEA758DCB308FFD97
:10386D00C28F900080E0FCA3E0FDA3E0FEA3E02466
:10387D00FFFFEE34FFFEED34FFFDEC34FFFC900056
:09388D008012221280B8C28E22C2
:10361E0090008412221253C9BF53C9DF43C910D27E
:10362E00CAE4FFFEFDFC900084E0F8A3E0F9A3E0FD
:10363E00FAA3E0FBC31221D1602F75CC3075CDF803
:10364E0030CFFDC2CF900084E0FCA3E0FDA3E0FEEE
:10365E00A3E024FFFFEE34FFFEED34FFFDEC34FF5C
:0C366E00FC90008412221280B8C2CA2214
:1036D50090008812221275C40743C408E4FFFEFD5A
:1036E500FC900088E0F8A3E0F9A3E0FAA3E0FBC3AF
:1036F5001221D1603275C52C75C6CFE5C430E4FB07
:1037050053C4EF900088E0FCA3E0FDA3E0FEA3E036
:1037150024FFFFEE34FFFEED34FFFDEC34FFFC909B
:0B372500008812221280B553C4F72266
:1037300090008C12221275C40743C408E4FFFEFDFA
:10374000FC90008CE0F8A3E0F9A3E0FAA3E0FBC34F
:103750001221D1603275C5D875C6FFE5C430E4FBCF
:1037600053C4EF90008CE0FCA3E0FDA3E0FEA3E0D7
:1037700024FFFFEE34FFFEED34FFFDEC34FFFC9040
:0B378000008C12221280B553C4F72207
:10305C00023D3EE493A3F8E493A34003F68001F20F
:10306C0008DFF48029E493A3F85407240CC8C33375
:10307C00C4540F4420C8834004F456800146F6DF44
:10308C00E4800B0102040810204080903C50E47E48
:10309C00019360BCA3FF543F30E509541FFEE49339
:1030AC00A360010ECF54C025E060A840B8E493A300
:1030BC00FAE493A3F8E493A3C8C582C8CAC583CA2B
:1030CC00F0A3C8C582C8CAC583CADFE9DEE780BEE3
:013C6C000057
:101F8200BB010689828A83E0225002E722BBFE025D
:091F9200E32289828A83E4932290
:101F9B00BB010CE58229F582E5833AF583E02250FB
:101FAB0006E92582F8E622BBFE06E92582F8E22245
:0D1FBB00E58229F582E5833AF583E493225F
:101FC800BB010689828A83F0225002F722BBFE01F8
:021FD800F322F2
:101FDA00F8BB010DE58229F582E5833AF583E8F03D
:101FEA00225006E92582C8F622BBFE05E92582C8E9
:021FFA00F222D1
:101FFC00BC000BBE0029EF8DF084FFADF022E4CCC9
:10200C00F875F008EF2FFFEE33FEEC33FCEE9DEC91
:10201C00984005FCEE9DFE0FD5F0E9E4CEFD22EDD7
:10202C00F8F5F0EE8420D21CFEADF075F008EF2F21
:10203C00FFED33FD4007985006D5F0F222C398FD12
:05204C000FD5F0EA22AF
:10205100BB010A89828A83E0F5F0A3E0225006875A
:10206100F009E71922BBFE07E3F5F009E31922891C
:0B207100828A83E493F5F0740193224F
:10207C00BB0110E58229F582E5833AF583E0F5F0A2
:10208C00A3E0225009E92582F886F008E622BBFE7F
:10209C000AE92582F8E2F5F008E222E5832AF583C5
:0820AC00E993F5F0A3E993228A
:1020B400E88FF0A4CC8BF0A42CFCE98EF0A42CFCCB
:1020C4008AF0EDA42CFCEA8EF0A4CDA8F08BF0A449
:1020D4002DCC3825F0FDE98FF0A42CCD35F0FCEBA8
:1020E4008EF0A4FEA9F0EB8FF0A4CFC5F02ECD396D
:0F20F400FEE43CFCEAA42DCE35F0FDE43CFC22DA
:1021030075F008758200EF2FFFEE33FECD33CDCC93
:1021130033CCC58233C5829BED9AEC99E582984016
:102123000CF582EE9BFEED9AFDEC99FC0FD5F0D6F3
:10213300E4CEFBE4CDFAE4CCF9A88222B800C1B91D
:102143000059BA002DEC8BF084CFCECDFCE5F0CB5B
:10215300F97818EF2FFFEE33FEED33FDEC33FCEB94
:1021630033FB10D703994004EB99FB0FD8E5E4F94F
:10217300FA227818EF2FFFEE33FEED33FDEC33FC3C
:10218300C933C910D7059BE99A4007EC9BFCE99A30
:10219300F90FD8E0E4C9FAE4CCFB2275F010EF2F75
:1021A300FFEE33FEED33FDCC33CCC833C810D70775
:1021B3009BEC9AE899400AED9BFDEC9AFCE899F8B0
:0E21C3000FD5F0DAE4CDFBE4CCFAE4C8F92243
:1021D100EB9FF5F0EA9E42F0E99D42F0E89C45F064
:0121E10022DB
:1021E200BB010DE58229F582E5833AF58302225B84
:1021F2005007E92582F802224FBBFE07E92582F843
:10220200022267E58229F582E5833AF58302227389
:0C221200ECF0A3EDF0A3EEF0A3EFF0223F
:10221E00A8828583F0D083D0821222351222351205
:10222E002235122235E473E493A3C583C5F0C5832A
:10223E00C8C582C8F0A3C583C5F0C583C8C582C80A
:01224E00226D
:101C1D00E5082413F582E43400F583E005082290ED
:101C2D000010300703900013E475F00112228302B7
:101C3D001F822000E97F2ED2008018EF540F2490D0
:101C4D00D43440D4FF30040BEF24BFB41A0050033A
:101C5D002461FFE50960021509050CE50C7002050C
:101C6D000B30070E900010E475F001122283EF0285
:101C7D001FC8023B3F7403D2078003E4C207F50877
:101C8D0090001012229AE4F509F50BF50CE50960A8
:101C9D00077F20121C6080F5750AFFC201C200C2C9
:101CAD0002C203C205C206C208121C2CFF700D3001
:101CBD0007057F00121C71AF0CAE0B22B4255FC25D
:101CCD00D5C204121C2CFF24D0B40A00501A75F092
:101CDD000A780930D50508B6FF0106C6A426F620F8
:101CED00D5047002D20380D924CFB41A00EF50046A
:101CFD00C2E5D204021E72D20180C6D20080C0D2CB
:101D0D000280BCD2D580BAD20580B47F20121C606F
:101D1D002002077401B5090040F1121C1DFF121CB1
:101D2D0060021C9AD208D2068095121C1DFB121C53
:101D3D001DFA121C1DF94A4B700679437A1F7BFF61
:101D4D0020022EE509602A7E008E82758300121F07
:101D5D009B60060EEE650A70F0C2D5EBC0E0EAC0DE
:101D6D00E0E9C0E0EE121EB9D0E0F9D0E0FAD0E023
:101D7D00FB121F82FF60AAEBC0E0EAC0E0E9C0E001
:101D8D00121C60D0E02401F9D0E03400FAD0E0FB61
:101D9D00E50A0460DCD50AD980877BFF7A1E79B508
:101DAD00D202809C791080027908C206C208800890
:101DBD00D2D5790A8004790AC2D5E50A047002F5F4
:101DCD000AE4FAFDFEFF121C1DFC7B082001131214
:101DDD001C1DFD7B1030000A121C1DFE121C1DFF68
:101DED007B20EC3382D592D55013C3E43000069F8F
:101DFD00FFE49EFEE42001039DFDE49CFCE4CBF892
:101E0D00C201EC700CCFCECDCCE824F8F870F38085
:101E1D0017C3EF33FFEE33FEED33FDEC33FCEB3345
:101E2D00FB994002FB0FD8E9EB300105F8D0E0C477
:101E3D0048B201C0E00AEC4D4E4F78207B0070C2D5
:101E4D00EAB50A0040BCC0E0121EBBD0F0D0E020C5
:101E5D000104C4C0E0C4B201C0F0121C49D0F0D5D9
:101E6D00F0EB021C9A1222A31D37531DB1581D0809
:101E7D004C1D04421DB54F1DBD441DBD491D1D43C7
:081E8D001DC3551DA7461DA74A
:101E9500451DA7471F63501D0C2D1D102E1D332BEF
:101EA5001D14231D31201F4C2A1CCC4800001D2B5E
:101EB5003F3F3F00790AA2D5200314300509B91028
:101EC500020404B9080104A2D52006025001042029
:101ED50002689202B509005034C0E07F2030031932
:101EE5007F30A20272067205500F121F12C202C283
:101EF50006C205C2087F30800F300503E9C0E01235
:101F05001C60300503D0E0F9D0E0B509CC300517E9
:101F15007F30B9100C121C607F583004077F788021
:101F250003B90803121C603002057F2D021C607F77
:101F3500202008F87F2B2006F322920280CF286EFE
:101F4500756C6C2900D201121C1D3001F8C2017894
:101F55000930D50108F6021CCC2D50434958121CF6
:101F65001D2403B405004001E4901F5E93121C512B
:0D1F7500743A121C51D203750904021DB10B
:0C224F00E6FC08E6FD08E6FE08E6FF22BB
:0C225B00E0FCA3E0FDA3E0FEA3E0FF22F6
:0C226700E2FC08E2FD08E2FE08E2FF22B3
:10227300E493FC740193FD740293FE740393FF22B1
:10228300F8E0FBA3A3E0F925F0F0E58215827002E4
:072293001583E0FA38F02288
:09229A00EBF0A3EAF0A3E9F02245
:1022A300D083D082F8E4937012740193700DA3A3CA
:1022B30093F8740193F5828883E4737402936860DE
:0622C300EFA3A3A380DFDE
:103B3F00EFB40A07740D123B4A740A309811A89912
:103B4F00B8130CC2983098FDA899C298B811F630E6
:073B5F0099FDC299F59922BE
:00000001FF
