:0342A5003078006E
:103FDD0053B1BF53B2BF53B17F53B27F75985043A6
:103FED008920438780438E1053C4DFAB07AA06A9EF
:103FFD0005A8047F407E427D0F7C00121D15EF0445
:09400D00F404F58DD28ED2992243
:08429D00C2998F993099FD22AE
:0300370002429DE5
:103EB700AB07AA067C007D0A121BC5C3EF940AEE66
:103EC700648094805005EF2430800E7C007D0AAF1B
:103ED70003AE02121BC5EF2457FF1200377C007D8B
:103EE7000AAF03AE02121BC5C3ED940AEC648094BB
:0F3EF70080ED5004243080022457FF1200372240
:1037F40090004CEEF0A3EFF07BFF7A4279A5122300
:10380400EE7F027E007D007C00123DB490004CE00F
:10381400FEA3E0FF7C007D10121BC5C3EF940AEEEB
:10382400648094805005EF2430801290004CE0FEB8
:10383400A3E0FF7C007D10121BC5EF2457FF12008C
:103844003790004CE0FEA3E0FF7C007D10121BC506
:10385400C3ED940AEC64809480ED5004243080021B
:073864002457FF1200372278
:061E9F00900011121DE885
:101EA500E4900015F0A3121DF4000000009000114D
:101EB500E0FCA3E0FDA3E0FEA3E0FF900016121DE9
:101EC500E87F201200377F7F7E967D987C0090000A
:101ED50016E0F8A3E0F9A3E0FAA3E0FBD3121DA7EF
:101EE500407A7B807A9679987800900016E0FCA37A
:101EF500E0FDA3E0FEA3E0FF121D15E47B0AFAF95D
:101F0500F8D3121DA77B807A9679987800900016F1
:101F1500E0FCA3E0FDA3E0FEA3E0FF4008121D15D1
:101F2500EF24308006121D15EF2457FF120037905D
:101F35000016E0FCA3E0FDA3E0FEA3E0FF7B807AB2
:101F45009679987800121D15AC00AD01AE02AF036D
:101F5500900016121DE89000157401F07F3F7E4237
:101F65007D0F7C00900016E0F8A3E0F9A3E0FAA34A
:101F7500E0FBD3121DA7407C7B407A42790F7800A5
:101F8500900016E0FCA3E0FDA3E0FEA3E0FF121D18
:101F950015E47B0AFAF9F8D3121DA77B407A42793A
:101FA5000F7800900016E0FCA3E0FDA3E0FEA3E09F
:101FB500FF4008121D15EF24308006121D15EF2471
:101FC50057FF120037900016E0FCA3E0FDA3E0FEEA
:101FD500A3E0FF7B407A42790F7800121D15AC0013
:101FE500AD01AE02AF03900016121DE89000157406
:101FF50001F0800B900015E060057F301200377FFF
:102005009F7E867D017C00900016E0F8A3E0F9A391
:10201500E0FAA3E0FBD3121DA750030220B07BA07A
:102025007A8679017800900016E0FCA3E0FDA3E034
:10203500FEA3E0FF121D15E47B0AFAF9F8D3121D81
:10204500A77BA07A864019097800900016E0FCA3CA
:10205500E0FDA3E0FEA3E0FF121D15EF243080187C
:1020650079017800900016E0FCA3E0FDA3E0FEA353
:10207500E0FF121D15EF2457FF120037900016E000
:10208500FCA3E0FDA3E0FEA3E0FF7BA07A86790137
:102095007800121D15AC00AD01AE02AF039000161D
:1020A500121DE89000157401F0800B900015E0609A
:1020B500057F30120037E47F0F7E27FDFC90001668
:1020C500E0F8A3E0F9A3E0FAA3E0FBD3121DA750C3
:1020D50003022161E47B107A27F9F8900016E0FCF1
:1020E500A3E0FDA3E0FEA3E0FF121D15E47B0AFAC1
:1020F500F9F8D3121DA7E47B107A274017F8900052
:1021050016E0FCA3E0FDA3E0FEA3E0FF121D15EF22
:1021150024308016F9F8900016E0FCA3E0FDA3E05A
:10212500FEA3E0FF121D15EF2457FF1200379000A4
:1021350016E0FCA3E0FDA3E0FEA3E0FFE47B107A3C
:1021450027F9F8121D15AC00AD01AE02AF039000E2
:1021550016121DE89000157401F0800B900015E033
:1021650060057F30120037E47FE77E03FDFC9000B9
:1021750016E0F8A3E0F9A3E0FAA3E0FBD3121DA74C
:102185005003022212E47BE87A03F9F8900016E086
:10219500FCA3E0FDA3E0FEA3E0FF121D15E47B0A0E
:1021A500FAF9F8D3121DA7E47BE87A034017F890F3
:1021B5000016E0FCA3E0FDA3E0FEA3E0FF121D1561
:1021C500EF24308016F9F8900016E0FCA3E0FDA39B
:1021D500E0FEA3E0FF121D15EF2457FF1200379014
:1021E5000016E0FCA3E0FDA3E0FEA3E0FFE47BE82E
:1021F5007A03F9F8121D15AC00AD01AE02AF0390DC
:102205000016121DE89000157401F0800B90001562
:10221500E060057F30120037E47F63FEFDFC90002F
:1022250016E0F8A3E0F9A3E0FAA3E0FBD3121DA79B
:1022350050030222BFE47B64FAF9F8900016E0FC33
:10224500A3E0FDA3E0FEA3E0FF121D15E47B0AFA5F
:10225500F9F8D3121DA7E47B644017F8900016E047
:10226500FCA3E0FDA3E0FEA3E0FF121D15EF243063
:102275008017FAF9F8900016E0FCA3E0FDA3E0FE54
:10228500A3E0FF121D15EF2457FF1200379000162B
:10229500E0FCA3E0FDA3E0FEA3E0FFE47B64FAF924
:1022A500F8121D15AC00AD01AE02AF039000161279
:1022B5001DE89000157401F0800B900015E0600595
:1022C5007F30120037E47B0AFAF9F8900016E0FC3B
:1022D500A3E0FDA3E0FEA3E0FF121D15E47B0AFACF
:1022E500F9F8D3121DA7E44017F8900016E0FCA3F7
:1022F500E0FDA3E0FEA3E0FF121D15EF24308019D9
:102305007B0AFAF9F8900016E0FCA3E0FDA3E0FED5
:10231500A3E0FF121D15EF2457FF120037E47B0AD7
:10232500FAF9F8900016E0FCA3E0FDA3E0FEA3E0B7
:10233500FF121D15AC00AD01AE02AF03E47B0AFA36
:10234500F9F8D3121DA7E44017F8900016E0FCA396
:10235500E0FDA3E0FEA3E0FF121D15EB243080197C
:102365007B0AFAF9F8900016E0FCA3E0FDA3E0FE75
:0D237500A3E0FF121D15EB2457FF120037E7
:012382002238
:0B30A300900011EBF0A3EAF0A3E9F0AD
:1030AE0090003C121DF400000000E4900040F0A3DC
:1030BE00F0F9A3C9F0A3F0A3E9F0E4A3F0F9A3C9D2
:1030CE00F0A3F0A3E9F0A37401F0A37400F0A374CD
:1030DE0014F0900011E0F9A3E0FAA3E0900046C9C5
:1030EE00F0A3EAF0A3E9F0900046E0FBA3E0FAA318
:1030FE00E0F9121AF670030231D46425600302312E
:10310E00BA900046A3E475F001121BFBA9F0FA1267
:10311E001AF624DB70030231A824E1602B24EC6044
:10312E005024F4602324EC604824157072900049FA
:10313E00E0FBA3E475F002121C11A9F0FA121C2791
:10314E00900045F0E0FF8054900049E0FBA3E47549
:10315E00F001121C11A9F0FA121AF6FF900040E4C9
:10316E00F0A3EFF0900040A3E0FF7E00123EB78088
:10317E002E900049E0FBA3E475F001121C11A9F09A
:10318E00FA121AF6FF900040E4F0A3EFF090004020
:10319E00E0FEA3E0FF1237F480057F251200379082
:1031AE000047E475F001121BFB0230F5900046E07B
:1031BE00FBA3E475F001121C11A9F0FA121AF6FF26
:0631CE001200370230F58B
:0131D40022D8
:103F99000D0A232323232323232323232323232317
:103FA9002323232323232323232323236D637520FF
:103FB9007374617274232323232323232323232349
:103FC90023232323232323232323232323232323B8
:043FD900232323007B
:0441BE004100D500E7
:103F060043B30153B4FE43B30253B4FD43B3045366
:103F1600B4FB43B10853B2F743B11053B2EF53ACFD
:103F2600FE43AD0143B30843B40843B31043B41092
:103F36007F007EC27D017C00123FDD53E9FB43E931
:0D3F46002043EA0853EBF7439B02D2AF2261
:1041D900C2B07FC87E007D007C00123DB4D2B07FA2
:0A41E900C87E007D007C00023DB49A
:10409700123F067BFF7A3F79991230A31241D9125A
:1040A70034829000D5E060FA122F3DE49000D5F0FD
:0540B700439B0280EDB7
:0441C2004100D3766F
:07427100124278D2937F0A8C
:0A427800E4FEEEC39F50030E80F831
:014282002219
:1041F300D2947F01124271C2947F07124278C29314
:054203007F010242787A
:0C429100C2947F02124271D29402427863
:023E6600AD07A6
:103E6800E4FCEDA804088002C333D8FC30E704D290
:103E7800948002C2947F03124278D2930F12427840
:103E8800C2930CECB408DB7F01124278D2947F0312
:103E9800124278D293124278309407E49000D4F01A
:0F3EA80080069000D47401F0C2937F0302427829
:10000300E4FDD294FC7F01124278C2937F04124232
:1000130078D2937F02124278ED25E0FD3094010DF2
:100023007F021242780CECB408DBC2937F051242C4
:0300330078AF059E
:0100360022A7
:1041A200EF7004C2948002D2947F08124278D293B4
:0C41B2007F0F124278C2937F080242780F
:073B3300900013EDF0AC0758
:103B3A001241F3AF04123E669000D4E07002802D69
:103B4A00900013E0FF123E669000D4E07002801DE0
:103B5A00E4900018F0900017E0FFA3E0C39F502202
:103B6A00121AF6FF123E669000D4E07006124291D5
:103B7A007F0022740129F9E43AFA900018E004F06F
:073B8A0080D31242917F017C
:013B91002211
:08377000900012EFF0A3EDF050
:103778001241F3900012E0FF123E669000D4E07010
:10378800028022900013E0FF123E669000D4E070A1
:103798000280121241F3900012E004FF123E66907C
:1037A80000D4E07009124291E4121B3CFF22E4901D
:1037B8000018F0900017E014FFA3E0C39F501B12FD
:1037C8000003EF121B3CE4FF1241A2740129F9E443
:1037D8003AFA900018E004F080D9120003EF121BA7
:0B37E8003C7F011241A21242917F01C0
:0137F30022B3
:02404700AE07C2
:10404900E4900011F09000D3E0FFAD067B017A0007
:1040590079119000177401F0123770EF6006900023
:0640690011E0FF227F00C0
:01406F00222E
:02420800AE07FF
:10420A009000D3E0FFAD069000B2E0900017F012E4
:02421A003770FB
:01421C00227F
:07416700900011EDF0AE071E
:10416E009000D3E0FFAD067B017A00791190001725
:06417E007401F0123B3356
:014184002218
:02421D00AE07EA
:10421F009000D3E0FFAD069000B7E0900017F012CA
:02422F003B331F
:01423100226A
:10003E000D0A4C54393631312072696E672043688F
:10004E006970204944203D20257820002025780025
:10005E000D0A4C54393631315F4D4950495F496E66
:10006E007075745F44696774613A206C7439363107
:10007E003120736574206D697069206C616E6573D3
:10008E00203D202564000D0A4C54393631315F4D28
:10009E004950495F496E7075745F44696774613A7F
:1000AE00206C743936313120736574206D69706936
:1000BE0020706F727473203D2031000D0A4C54393C
:1000CE003631315F4D4950495F496E7075745F44EA
:1000DE00696774613A206C743936313120736574F6
:1000EE00206D69706920706F7274203D2032000D92
:1000FE000A4C54393631312E6D6970695F6D6F64FB
:10010E0065203D20637369000D0A4C543936313138
:10011E002E6D6970695F6D6F6465203D2064736933
:10012E00000D0A766964656F20636865636B3A201B
:10013E004C54393631312E6D6970695F6D6F64655F
:10014E00203D20637369000D0A766964656F206334
:10015E006865636B3A204C54393631312E6D6970B7
:10016E00695F6D6F6465203D20647369000D0A4CF4
:10017E0054393631315F566964656F5F4368656324
:10018E006B3A20685F6163745F612C20685F616306
:10019E00745F622C20765F6163742C20765F7461CD
:1001AE006C3A20000D0A4C54393631315F56696471
:1001BE00656F5F436865636B3A206D6970695F7642
:1001CE006964656F5F666F726D61743A20257800A1
:1001DE000D0A566964656F5F436865636B203D2049
:1001EE00766964656F5F363430783438305F363018
:1001FE00487A20000D0A566964656F5F436865632F
:10020E006B203D20766964656F5F37323078343805
:10021E00305F3630487A20000D0A566964656F5F8C
:10022E00436865636B203D20766964656F5F373286
:10023E0030783537365F3530487A20000D0A5669EA
:10024E0064656F5F436865636B203D207669646506
:10025E006F5F31323830783732305F3630487A203F
:10026E00000D0A566964656F5F436865636B203DD8
:10027E0020766964656F5F31323830783732305F9F
:10028E003530487A20000D0A566964656F5F436801
:10029E0065636B203D20766964656F5F313238305F
:1002AE00783732305F3330487A20000D0A56696451
:1002BE00656F5F436865636B203D20766964656F8B
:1002CE005F3139323078313038305F3630487A200D
:1002DE00000D0A566964656F5F436865636B203D68
:1002EE0020766964656F5F3139323078313038305D
:1002FE005F3530487A20000D0A566964656F5F439A
:10030E006865636B203D20766964656F5F313932B5
:10031E003078313038305F3330487A20000D0A564D
:10032E006964656F5F436865636B203D2076696421
:10033E00656F5F3139323078313038305F32354861
:10034E007A20000D0A566964656F5F436865636BBA
:10035E00203D20766964656F5F31393230783130F7
:10036E0038305F3234487A20000D0A566964656F62
:10037E005F436865636B203D20766964656F5F330C
:10038E0038343078323136305F3330487A20000DD1
:10039E000A566964656F5F436865636B203D20761E
:1003AE006964656F5F3338343078323136305F329E
:1003BE0035487A20000D0A566964656F5F4368659B
:1003CE00636B203D20766964656F5F333834307817
:1003DE00323136305F3234487A20000D0A56696465
:1003EE00656F5F436865636B203D20766964656F5A
:1003FE005F383030783630305F3630487A20000D36
:10040E000A566964656F5F436865636B203D2076AD
:10041E006964656F5F31303234783736385F363025
:10042E00487A20000D0A566964656F5F43686563FC
:10043E006B203D20766964656F5F313238307837D6
:10044E0036385F3630487A20000D0A566964656F7B
:10045E005F436865636B203D20766964656F5F312D
:10046E0032383078313032345F3630487A20000DF1
:10047E000A566964656F5F436865636B203D20763D
:10048E006964656F5F3136303078313230305F36C7
:10049E0030487A20000D0A566964656F5F436865BF
:1004AE00636B203D20766964656F5F313638307836
:1004BE00313035305F3630487A20000D0A56696487
:1004CE00656F5F436865636B203D20766964656F79
:1004DE005F31333636783736385F3630487A20001B
:1004EE000D0A566964656F5F436865636B203D2036
:1004FE00766964656F5F3235363078313434305F0B
:10050E003630487A20000D0A566964656F5F43687D
:10051E0065636B203D20766964656F5F32353630DA
:10052E0078313434305F3530487A20000D0A566900
:10053E0064656F5F436865636B203D207669646513
:10054E006F5F37323078313038305F3630487A204E
:10055E00000D0A566964656F5F436865636B203DE5
:10056E0020766964656F5F313038307831393230DA
:10057E005F3630487A20000D0A566964656F5F4316
:10058E006865636B203D20766964656F5F33383430
:10059E003078313038305F3630487A20000D0A56C8
:1005AE006964656F5F436865636B203D207669649F
:1005BE00656F5F31303234783630305F3630487A9E
:1005CE0020000D0A566964656F5F436865636B2092
:1005DE003D20766964656F5F31323830783830305F
:1005EE005F3630487A20000D0A566964656F5F43A6
:1005FE006865636B203D20766964656F5F353430C6
:10060E00783936305F3630487A20000D0A566964E4
:10061E00656F5F436865636B203D20766964656F27
:10062E005F3235363078313630305F3630487A20AA
:10063E00000D0A566964656F5F436865636B203D04
:10064E0020766964656F5F323536307831303830F8
:10065E005F3630487A20000D0A566964656F5F4335
:10066E006865636B203D20756E6B6E6F776E2076BE
:10067E006964656F20666F726D617420000D0A4C9F
:10068E0054393631315F504C4C3A207365742072B8
:10069E007820706C6C203D20000D0A4C5439363198
:1006AE00315F504C4C3A207063725F6D203D2025B7
:1006BE00782C2068646D695F706F73745F646976FF
:1006CE00203D202564000D0A4C54393631315F50DF
:1006DE004C4C3A2048444D4920706C6C206C6F6332
:1006EE006B6564000D0A4C54393631315F504C4CF9
:1006FE003A2048444D4920706C6C20756E6C6F63C7
:10070E006B65642C20726573657420706C6C000DC3
:10071E000A4C54393631315F4353433A2059706293
:10072E0070722034323220746F205247423838387B
:10073E00000D0A417564696F20696E7574203D2045
:10074E0049325320326368000D0A417564696F2087
:10075E00696E7574203D205350444946000D0A724F
:10076E006561642065646964206661696C65643ADC
:10077E00206E6F2061636B000D0A200025782C001F
:10078E000D0A726561642065646964206661696C36
:10079E0065643A2061636373206E6F7420646F6EBC
:1007AE0065000D0A706F72742041206279746520A5
:1007BE00636C6B203D20000D0A706F727420412017
:1007CE006279746520636C6B20756E737461626CF4
:1007DE0065000D0A706F7274204220627974652074
:1007EE00636C6B203D20000D0A706F7274204220E6
:1007FE006279746520636C6B20756E737461626CC4
:10080E0065000D0A495251205461736B3A000D0A6E
:10081E006365635F737461747573283078383664FA
:10082E0032293D202578000D0A63656320726563C9
:10083E003A20000D0A73656E642064617461206451
:10084E006F6E652E200048444D4920646973636FB6
:10085E006E6E65637465640048444D4920636F6E27
:10086E006E6563746564006D697069207669646590
:10087E006F206368616E6765643A20000D0A7365C8
:10088E007420706978656C20636C6B203D20000DC0
:10089E000A2323232323232323232323234C5439C3
:1008AE0036313120496E697469616C20456E64235E
:1008BE0023232323232323232323232323232323FA
:1008CE0023000D0A446574656374206870642048C3
:1008DE00696768000D0A4465746563742068706406
:1008EE00204C6F7700001000600030028003200063
:1008FE000A0002002101E0020D000000010000616B
:10090E00A80010003E003C02D0035A000900060069
:10091E001E01E0020D0000000300006978000C00CB
:10092E0040005802D0036000050005002702400277
:10093E00710000001100006978006E002800DC05CF
:10094E0000067200050005001402D002EE0101003F
:10095E00040001220A01B8002800DC050007BC00D3
:10096E00050005001402D002EE0101001300012261
:10097E000A0058002C009407800898000400050017
:10098E002404380465010100100002441402100012
:10099E002C009407800A500004000500240438043B
:1009AE00650101001F000244140058002C0094073A
:1009BE008008980004000500240438046501010035
:1009CE00220001220A0210002C009407800A500017
:1009DE0004000500240438046501010021000122F1
:1009EE000A027E002C009407800ABE000400050057
:1009FE002404380465010100200001220A00B00021
:100A0E005801280F0011300008000A00480870082D
:100A1E00CA0101005F000488280420005801280F35
:100A2E000014A00008000A0048087008CA0101005E
:100A3E005E0004882804FC005801280F00157C0075
:100A4E0008000A0048087008CA0101005D00048809
:100A5E002800F8002C00940A000AA00004000500EB
:100A6E000B0438044C010100000003057000300037
:100A7E0080005803200420000100040017025802D1
:100A8E00740101000000009C400018008800A004C2
:100A9E0000054000030006001D03000326000000B1
:100AAE00000000FDE80040008000C0050006800048
:100ABE0003000700140300031E00010000000136AE
:100ACE008C0030007000F80500069800010003004D
:100ADE00260400042A010100000001A5E0004000E8
:100AEE00C001300640087000010003002E04B0045F
:100AFE00E201010000000278D0006800B001180683
:100B0E009008C000030006001E041A0441000100F4
:100B1E000000023B4A06E0002800DC05000CE40061
:100B2E00050005001402D002EE01010000000122B2
:100B3E000A003C003C006404000482000200050030
:100B4E000A0258026901010000000084D00028004A
:100B5E002C00280320039C000A0004000C0500054D
:100B6E001A0101000000010C8E000E003800400535
:100B7E005605DC00010003001C03000320010100E8
:100B8E00000001211000B0011001C00A000D80000C
:100B9E00030005002405A005CC010100000003E8B8
:100BAE00FA0030002000500A000AA00003000500E1
:100BBE002105A005C9010100000003AF5C00300053
:100BCE002000500A000AA000030006002506400679
:100BDE006E01010000000418D400B0005801280F67
:100BEE0000113000040005002404380465010100E2
:100BFE000000048828000400050024043804650061
:100C0E0058002C009407800898010100000002444F
:100C1E001400050005001402D002EE006E0028003C
:100C2E00DC05000672010100000001220A001E0010
:100C3E000A001E021C0262000A000A000A03C00318
:090C4E00DE01010000000082DC5F
:1041C6004700830100010000000141008B0041000F
:0241D6007E0069
:103B92007D807FFF1241677D017FEE124167E4FF66
:103BA200124047900014EFF07BFF7A00793E12300A
:103BB200A37F01124047900014EFF07BFF7A007957
:103BC2005A1230A37F02124047900014EFF07BFF9D
:103BD2007A00795A1230A37D817FFF1241677D18E6
:0C3BE2007F011241677D807FFF02416778
:1040E0007D817FFF1241677D487F021241677D809D
:1040F0007F23124167E4FD7F30124167E4FD7F01B9
:0341000002416712
:1039AE007D827FFF1241677D117F511241677D82BB
:1039BE007FFF1241677D697F1B1241677D787F1CF7
:1039CE001241677D697FCB1241677D787FCC1241B2
:1039DE00677D807FFF1241677DF07F041241677D16
:1039EE00F07F061241677D807F0A1241677D467F18
:1039FE000B1241677DEF7F0D1241677DFA7F110239
:023A0E0041670E
:103C4A007D817FFF1241677D207F061241677D3F9C
:103C5A007F071241677D3F7F081241677DFE7F0A19
:103C6A001241677DBF7F0B1241677D207F11124190
:103C7A00677D3F7F121241677D3F7F131241677D47
:103C8A00FE7F151241677DBF7F161241677D037F54
:0B3C9A001C1241677D037F2002416780
:10352F00900084E0900000F07BFF7A00795E9000BD
:10353F0014F01230A37D827FFF1241677D807F4F91
:10354F001241677D107F501241677D837FFF1241CB
:10355F0067900000E0FDE4FF1241677D047F0212D7
:10356F0041677D047F0612416730900FE4FD7F0AAB
:10357F001241677BFF7A007994800D7D037F0A12D9
:10358F0041677BFF7A0079C91230A3900085E07BF9
:10359F00FFB4011C7A0079FD1230A37D837FFF12E7
:1035AF0041677D107F081241677D407F2C02416784
:0735BF007A0179161230A316
:0135C60022E2
:100C5700E4900004F07D827FFF1241677F86124097
:100C67004790000FE4F0A3EFF07F87124047EFFDB6
:100C77007C00900010E0FEE42DFFEC3E90000FF0AA
:100C8700A3EFF07F8212404790000BE4F0A3EFF050
:100C97007F83124047EFFD7C0090000CE0FEE42DBF
:100CA700FFEC3E90000BF0A3EFF07F6C12404790F3
:100CB700000DE4F0A3EFF07F6D124047EFFD7C00DD
:100CC70090000EE0FEE42DFFEC3E90000DF0A3EF48
:100CD700F07D837FFF1241677F82124047900007B4
:100CE700E4F0A3EFF07F83124047EFFD7C00900014
:100CF70008E0FEE42DFFEC3E900007F0A3EFF07F45
:100D070086124047900009E4F0A3EFF07F87124076
:100D170047EFFD7C0090000AE0FEE42DFFEC3E90DB
:100D27000009F0A3EFF0900085E07BFFB4011D7A86
:100D370001792F1230A3900007E0C313F0A3E0134B
:100D4700F0A3E0C313F0A3E013F080337A017955E1
:100D57001230A3900007E0FEA3E0FF7C007D0312A2
:100D67001B70900007EEF0A3EFF0A3E0FEA3E0FFF7
:100D77007C007D03121B70900009EEF0A3EFF07F5B
:100D870088124047900004EFF07BFF7A01797B12CD
:100D970030A3900007E0FEA3E0FFE4FCFD121E9FD6
:100DA700900009E0FEA3E0FFE4FCFD121E9F900007
:100DB7000BE0FEA3E0FFE4FCFD121E9F90000DE098
:100DC700FEA3E0FFE4FCFD121E9F7BFF7A0179B2D0
:100DD700900004E0900014F01230A32090189000C7
:100DE70009E0FEA3E0FF900008E02FFF900007E076
:100DF7003E900005800B900007E0FFA3E090000500
:100E0700CFF0A3EFF09008F9E493FE740193FF90FD
:100E17000005E0B50638A3E0B50733900903E4936E
:100E2700FE740193FF90000BE0B50622A3E0B5071F
:100E37001D7BFF7A0179DE1230A3E490008AF090DF
:100E4700008074FFF0A37408F0A374F3F0229009F4
:100E570015E493FE740193FF900005E0B50639A3EE
:100E6700E0B5073490091FE493FE740193FF9000E7
:100E77000BE0B50623A3E0B5071E7BFF7A027902D4
:100E87001230A390008A7401F090008074FFF0A3E1
:100E97007409F0A3740FF022900931E493FE7401F2
:100EA70093FF900005E0B50633A3E0B5072E900940
:100EB7003BE493FE740193FF90000BE0B5061DA37E
:100EC700E0B507187BFF7A0279261230A3900080DD
:100ED70074FFF0A37409F0A3742BF02290094DE47A
:100EE70093FE740193FF900005E06E7003A3E06F1B
:100EF7006003020F9E90095793FE740193FF9000C1
:100F07000BE06E7003A3E06F6003020F9EC39000B7
:100F170010E0947690000FE09402501E7BFF7A0257
:100F2700794A1230A390008A7402F090008074FF0F
:100F3700F0A37409F0A37447F022C3900010E09463
:100F4700EE90000FE09402501E7BFF7A02796F1239
:100F570030A390008A740AF090008074FFF0A374A5
:100F670009F0A37463F022C3900010E094CE9000C0
:100F77000FE09404400302165B7BFF7A0279941218
:100F870030A390008A740BF090008074FFF0A37474
:100F97000BF0A37423F022900985E493FE74019368
:100FA700FF900005E06E7003A3E06F60030210B3CB
:100FB70090098F93FE740193FF90000BE06E70030E
:100FC700A3E06F60030210B3C3900010E094AE90EB
:100FD700000FE09401501E7BFF7A0279B91230A30B
:100FE70090008A7403F090008074FFF0A37409F0F6
:100FF700A3747FF022C3900010E094FE90000FE0EE
:101007009401501E7BFF7A0279DF1230A390008A89
:101017007419F090008074FFF0A37409F0A3749B17
:10102700F022C3900010E0943E90000FE09403502C
:101037001E7BFF7A0379051230A390008A741AF099
:1010470090008074FFF0A37409F0A374B7F022C373
:10105700900010E094D490000FE09403501E7BFFA3
:101067007A03792B1230A390008A741BF0900080CA
:1010770074FFF0A37409F0A374D3F022C390001097
:10108700E0940690000FE09404400302165B7BFF98
:101097007A0379511230A390008A741CF090008073
:1010A70074FFF0A37409F0A374EFF022900A11E41F
:1010B70093FE740193FF900005E06E7003A3E06F49
:1010C700600302116E900A1B93FE740193FF900058
:1010D7000BE06E7003A3E06F600302116EC3900014
:1010E70010E094AE90000FE09401501E7BFF7A034E
:1010F70079771230A390008A740CF090008074FF07
:10110700F0A3740AF0A3740BF022C3900010E094CC
:10111700EA90000FE09401501E7BFF7A03799D123D
:1011270030A390008A740DF090008074FFF0A374D0
:101137000AF0A37427F022C3900010E094089000EF
:101147000FE09402400302165B7BFF7A0379C31218
:1011570030A390008A740EF090008074FFF0A3749F
:101167000AF0A37443F022900A81E493FE7401937A
:10117700FF900005E0B50639A3E0B50734900A8B68
:10118700E493FE740193FF90000BE0B50623A3E000
:10119700B5071E7BFF7A0379E91230A390008A74A2
:1011A7001EF090008074FFF0A3740AF0A3747BF024
:1011B70022900A9DE493FE740193FF900005E0B529
:1011C7000639A3E0B50734900AA7E493FE740193A8
:1011D700FF90000BE0B50623A3E0B5071E7BFF7A5F
:1011E70004790D1230A390008A741EF09000807469
:1011F700FFF0A3740AF0A37497F022900AB9E4935E
:10120700FE740193FF900005E0B50639A3E0B5072A
:1012170034900AC3E493FE740193FF90000BE0B58A
:101227000623A3E0B5071E7BFF7A0479321230A3A9
:1012370090008A741EF090008074FFF0A3740AF087
:10124700A374B3F022900AD5E493FE740193FF9040
:101257000005E0B50639A3E0B50734900ADFE4934B
:10126700FE740193FF90000BE0B50623A3E0B507DA
:101277001E7BFF7A0479571230A390008A741EF000
:1012870090008074FFF0A3740AF0A374CFF022904B
:101297000AF1E493FE740193FF900005E0B5063967
:1012A700A3E0B50734900AFBE493FE740193FF9023
:1012B700000BE0B50623A3E0B5071E7BFF7A047990
:1012C7007D1230A390008A741EF090008074FFF0A6
:1012D700A3740AF0A374EBF022900B0DE493FE7451
:1012E7000193FF900005E0B50639A3E0B5073490F8
:1012F7000B17E493FE740193FF90000BE0B50623F0
:10130700A3E0B5071E7BFF7A0479A31230A39000F0
:101317008A741EF090008074FFF0A3740BF0A3741E
:1013270007F022900B7DE493FE740193FF90000574
:10133700E0B50639A3E0B50734900B87E493FE7454
:101347000193FF90000BE0B50623A3E0B5071E7BD2
:10135700FF7A0479C91230A390008A7415F09000BF
:101367008074FFF0A3740BF0A37477F022900BB591
:10137700E493FE740193FF900005E06E7003A3E011
:101387006F7072900BBF93FE740193FF90000BE098
:101397006E7003A3E06F705DC3900010E094369009
:1013A700000FE09401501E7BFF7A0479EE1230A300
:1013B70090008A7417F090008074FFF0A3740BF00C
:1013C700A374AFF022C3900010E0947290000FE076
:1013D7009401400302165B7BFF7A0579141230A350
:1013E70090008A741DF090008074FFF0A3740BF0D6
:1013F700A37493F022900C25E493FE740193FF905D
:101407000005E0B50639A3E0B50734900C2FE49347
:10141700FE740193FF90000BE0B50623A3E0B50728
:101427001E7BFF7A05793A1230A390008A7412F076
:1014370090008074FFF0A3740CF0A3741FF0229047
:101447000C09E493FE740193FF900005E0B506399B
:10145700A3E0B50734900C13E493FE740193FF9057
:10146700000BE0B50623A3E0B5071E7BFF7A0579DD
:101477005F1230A390008A7411F090008074FFF01F
:10148700A3740CF0A37403F022900BEDE493FE74A5
:101497000193FF900005E0B50639A3E0B507349046
:1014A7000BF7E493FE740193FF90000BE0B506235E
:1014B700A3E0B5071E7BFF7A0579851230A390005C
:1014C7008A740FF090008074FFF0A3740BF0A3747C
:1014D700E7F022900B45E493FE740193FF9000051B
:1014E700E0B50639A3E0B50734900B4FE493FE74DB
:1014F7000193FF90000BE0B50623A3E0B5071E7B21
:10150700FF7A0579AB1230A390008A7410F090002F
:101517008074FFF0A3740BF0A3743FF022900B616B
:10152700E493FE740193FF900005E0B50639A3E04C
:10153700B50734900B6BE493FE740193FF90000B97
:10154700E0B50623A3E0B5071E7BFF7A0579D01225
:1015570030A390008A7413F090008074FFF0A37496
:101567000BF0A3745BF022900C41E493FE7401939B
:10157700FF900005E0B50639A3E0B50734900C4BA2
:10158700E493FE740193FF90000BE0B50623A3E0FC
:10159700B5071E7BFF7A0579F51230A390008A7490
:1015A70014F090008074FFF0A3740CF0A3743BF068
:1015B70022900BD1E493FE740193FF900005E0B5F0
:1015C7000639A3E0B50734900BDBE493FE7401936F
:1015D700FF90000BE0B50623A3E0B5071E7BFF7A5B
:1015E7000679191230A390008A7416F0900080745F
:1015F700FFF0A3740BF0A374CBF022900A65E49379
:10160700FE740193FF900005E0B50639A3E0B50726
:1016170034900A6FE493FE740193FF90000BE0B5DA
:101627000623A3E0B5071E7BFF7A06793F1230A396
:1016370090008A7418F090008074FFF0A3740AF089
:10164700A3745FF02290008A741EF07BFF7A0679FC
:04165700651230A345
:01165B00226C
:102A7500900007EBF0A3EAF0A3E9F07D837FFF1256
:102A85004167900007E0FBA3E0FAA3E0F99000128C
:102A9500121C52E5F0FD7F0D124167900007E0FB27
:102AA500A3E0FAA3E0F9900012121C52FD7F0E126A
:102AB5004167900007E0FBA3E0FAA3E0F99000105E
:102AC500121C52E5F0FD7F0F124167900007E0FBF5
:102AD500A3E0FAA3E0F9900010121C52FD7F10123A
:102AE5004167900007E0FBA3E0FAA3E0F990000836
:102AF500121C52E5F0FD7F11124167900007E0FBC3
:102B0500A3E0FAA3E0F9900008121C52FD7F12120F
:102B15004167900007E0FBA3E0FAA3E0F990000607
:102B2500121C52E5F0FD7F13124167900007E0FB90
:102B3500A3E0FAA3E0F9900006121C52FD7F1412DF
:102B45004167900007E0FBA3E0FAA3E0F990000CD1
:102B5500121C52FD7F15124167900007E0FBA3E0B0
:102B6500FAA3E0F9900002121C52FD7F161241678C
:102B7500900007E0FBA3E0FAA3E0F990000A121C1D
:102B850052FD7F17124167900007E0FBA3E0FAA30F
:102B9500E0F990000E121C52FFAEF090000C121CD2
:102BA500522FFFE5F03EAD077F18124167900007F1
:102BB500E0FBA3E0FAA3E0F9121C27FD7F191241FF
:102BC50067900007E0FBA3E0FAA3E0F99000041288
:102BD5001C52FFAEF0900002121C522FE5F03EFD94
:102BE500121C27E5F0C4F8540FC868FFEF2DFD7FD0
:102BF5001A124167900007E0FBA3E0FAA3E0F99001
:102C05000004121C52FFAEF0900002121C522FFF5E
:0A2C1500E5F03EAD077F1B024167AA
:0B31D500900080E0FBA3E0FAA3E0F90B
:1031E000900006121C52FF900005E5F0F0A3EFF0EE
:1031F000900014121B0F25E0FF900015121B0F2FDB
:10320000900004F0F4F05403F07D837FFF124167D7
:1032100020903A900005E0FEA3E07802CEC313CEE2
:1032200013D8F9F0EE900005F0E0FD7F0B12416736
:10323000900005A3E0FD7F0C124167900005E0FDC2
:103240007F48124167900005A3E0FD80177D017F54
:103250000B1241677D107F0C124167E4FD7F48121D
:1032600041677D817F491241677D4A7F2112416715
:103270007D717F241241677D307F251241677D017A
:103280007F2A1241677D407F4A124167900004E027
:103290004410FD7F1D12416790008AE024F0600613
:1032A00024FC6002801C7D707F241241677D807F3A
:1032B000251241677D107F2A1241677DF07F1D1224
:1032C0004167900080E0FBA3E0FAA3E0F9122A75C1
:1032D0007D837FFF12416790007FE0FD7F261241D2
:1032E000677D807FFF1241677D5A7F111241677DA4
:0632F000FA7F11024167A4
:0B280600900080E0FBA3E0FAA3E0F9E3
:10281100900018121DB8900004121DE87BFF7A0683
:10282100798B1230A3900004E0FCA3E0FDA3E0FE4D
:10283100A3E0FF121E9F7D817FFF1241677D407FD4
:10284100231241677D627F241241677D807F2512BB
:1028510041677D557F261241677D377F2C12416785
:102861007D017F2F1241677D557F261241677D666D
:102871007F271241677D887F281241677FF07E495B
:102881007D027C00900004E0F8A3E0F9A3E0FAA344
:10289100E0FBD3121DA7400F7D887F2D1241679069
:1028A10000087401F080387F707E117D017C0090FA
:1028B1000004E0F8A3E0F9A3E0FAA3E0FBD3121DC2
:1028C100A7400F7D997F2D1241679000087402F097
:1028D100800D7DAA7F2D1241679000087404F0E4F9
:1028E1007F05FEFDFC900004E0F8A3E0F9A3E0FA07
:1028F100A3E0FB121C8AA804A905AA06AB07900055
:1029010008E0FFE4FCFDFE121C8AE47B787A69F999
:10291100F8121D1590007FEFF07BFF7A0679A7E092
:10292100900014F0900008E0900015F01230A37DA3
:10293100837FFF1241677D407F2D1241677D087FB4
:102941003112416790007FE04480FD7F261241678C
:10295100900004E0FCA3E0FDA3E0FEA3E0FFE47B24
:1029610002FAF9F8121D15900004121DE87D827F0C
:10297100FF124167E4FBFA7901F8900004E0FCA33F
:10298100E0FDA3E0FEA3E0FF121D15AD077FE312FA
:102991004167900004A3A3E0FEA3E0FFE4FDFC90E7
:1029A1000004121DE8E4FB7A01F9F8900004E0FC50
:1029B100A3E0FDA3E0FEA3E0FF121D15AD077FE438
:1029C100124167900004E0FCA3A3E0FEA3E0FFE452
:1029D100AD077FE51241677D207FDE1241677DE013
:1029E1007FDE1241677D807FFF1241677DF17F1697
:1029F1001241677DF37F16124167E4900009F07D73
:102A0100807FFF1241677DE37F161241677DF37F6F
:102A1100161241677D827FFF1241677F1512404781
:102A2100EF30E7097BFF7A0679D40230A37D807FFE
:102A3100FF1241677D5A7F111241677DFA7F1112A2
:102A410041677DDC7F181241677DFC7F1812416769
:102A51007DF17F161241677DF37F161241677BFF7F
:102A61007A0679F21230A3900009E004F0E0C394F1
:032A710006408C90
:012A7400223F
:10386B007D817FFF1241677D6A7F30124167900037
:10387B0088E070047D7380027D447F311241677D47
:10388B004A7F321241677D0B7F33124167E4FD7F24
:10389B0034124167E4FD7F35124167E4FD7F361238
:1038AB0041677D447F371241677D0F7F3F12416730
:1038BB007DA07F401241677DA07F411241677DA0B3
:1038CB007F421241677DA07F431241677D0A7F448F
:0338DB0002416740
:103A10007D817FFF1241677D407F231241677D8258
:103A20007FFF1241677D207FDE1241677DE07FDEF0
:103A30001241677D807FFF1241677DDC7F18124154
:103A4000677DFC7F181241677DF17F161241677D0B
:103A5000F37F161241677D5A7F111241677DFA7F0D
:103A6000111241677D817FFF1241677DEA7F30023D
:023A70004167AC
:104232007D817FFF124167E4FD7F301241677D80FF
:054242007F230241672B
:0B3AD300900080E0FBA3E0FAA3E0F904
:103ADE00900016121C52900005F0C39437500280CD
:103AEE0003900005E0FFC374379F900004F07D84BF
:103AFE007FFF124167900004E0FD7F431241677D16
:103B0E00287F45124167900005E0FD7F471241670F
:103B1E007D847FFF1241677D027F101241677D64B5
:053B2E007F1202416757
:10414800900085E0B401177D827FFF1241677D18DA
:0F4158007FB91241677BFF7A07791D1230A322CE
:1036E600900087E070417BFF7A07793F1230A37D17
:1036F600827FFF1241677D8E7FD61241677D047FF0
:10370600D71241677D847FFF1241677D087F0612CD
:1037160041677D107F071241677D297F0F12416740
:103726007DD47F34124167900087E06401703A7B54
:10373600FF7A0779561230A37D827FFF1241677D9B
:103746008E7FD61241677D047FD71241677D847FC5
:10375600FF1241677D0C7F061241677D107F0712BD
:0A37660041677DD47F3412416722D1
:103F53007D827FFF1241677D0A7F581241677D8012
:103F63007F591241677DF77F9E1241677DFEE4FF13
:103F73001241677D3F7F031241677DFF7F0412413A
:103F8300677DFE7F041241677DFF7F071241677DD6
:063F93003F7F07024167B9
:1032F6007D857FFF1241677DC97F031241677DA0EF
:103306007F04124167E4FD7F051241677D207F0639
:103316001241677D7F7F14124167E4900000F090B0
:103326000000E0FFC3940840030233BBEFC43354EC
:10333600E0FD7F051241677D367F071241677D31CB
:103346007F071241677D377F071241677F057E0041
:103356007D007C00123DB47F40124047EF30E141D2
:103366007F40124047EF545060087BFF7A07796B25
:1033760080357BFF7A0779861230A3E4900001F04E
:103386007F83124047900014EFF07BFF7A07798A1B
:103396001230A3900001E004F0E0C3942040E180E5
:1033A6000B7BFF7A07798E1230A38009900000E02C
:1033B60004F00233257DC27F031241677D1F7F071C
:0333C6000241675A
:104185007D827FFF1241677F5E124047EF30E20775
:0D41950090007E7401F022E490007EF02284
:104103007D857FFF1241677D1F7F071241677DFE1B
:104113007F131241677D0F7F171241677D057F155E
:03412300024167EF
:104016007D807FFF1241677D7F7F141241677DFFA0
:104026007F141241677D857FFF1241677D017F15F1
:104036001241677D717F151241677D657F150241CB
:014046006712
:0E4283007D857FFF1241677D457F15024167F3
:103A7200EF7D807FFF604F1241677DFF7F0D124116
:103A8200677DF97F151241677D867FFF124167E4EA
:103A9200FD7FFA1241677DA57FFE1241677D7F7F20
:103AA200FC124167E4FD7FFC1241677D827FFF12B9
:103AB20041677D7F7F011241677DFF7F051241676C
:103AC2007D7F7F0580071241677DF17F1512416777
:013AD20022D1
:104247007D867FFF1241677D207FF7124167E4FD7E
:054257007FF802416741
:0B35C700900004EBF0A3EAF0A3E9F091
:1035D2007D867FFF1241677FD3124047900007EF3D
:1035E200F0900004E0FBA3E0FAA3E0F9EF121B3C29
:1035F2009000087401F0900007E0FFA3E0FED39F63
:103602005048EE24D3FF124047900004E0FBA3E0B1
:10361200FAA3E0F9900008E0FEF582758300EF124C
:103622001B4E900004E0FBA3E0FAA3E0F98E827542
:103632008300121B0F900014F07BFF7A00795A125C
:1036420030A3900008E004F080ACE4FD7FF5124165
:073652006790008B7401F08A
:01365900224E
:0B394A00900000EBF0A3EAF0A3E9F00E
:10395500121AF6900003F07D867FFF1241679000F2
:1039650003E0FD7FF4124167E4900004F09000034A
:10397500E0FFA3E0FED39F5029EE24E4FFEE2401EF
:10398500FDE433FC900000E0FBA3E0FAA3E0F98D31
:10399500828C83121B0FFD124167900004E004F036
:0939A50080CB7D037FF90241672C
:1041260090009C7405F0A37450F0A37484F0A374FB
:1041360010F0E4A3F0A37405F07B017A00799C02E9
:02414600394AF4
:102C1F00900001121DF4000000007D827FFF124121
:102C2F00677D037FC71241677F327E007D007C0086
:102C3F00123DB47FCD124047900000EFF054606416
:102C4F00606003022CE6E0540FFFE4FCFDFEFBFA8C
:102C5F007901F8121C8A900001121DE87FCE1240F4
:102C6F0047900000EFF0A3E0F8A3E0F9A3E0FAA388
:102C7F00E0FB900000E07F00FEE4FCFDEF2BFFEA9D
:102C8F003EFEED39FDEC38FCA3121DE87FCF12405C
:102C9F0047900000EFF0A3E0F8A3E0F9A3E0FAA358
:102CAF00E0FB900000E0FFE4FCFDFEEB2FFFEE3AAF
:102CBF00FEED39FDEC38FCA3121DE87BFF7A077996
:102CCF00B01230A3900001E0FCA3E0FDA3E0FEA34F
:102CDF00E0FF121E9F80097BFF7A0779C51230A390
:102CEF007D827FFF1241677D047FC71241677F326C
:102CFF007E007D007C00123DB47FCD1240479000D6
:102D0F0000EFF0546064606003022DAAE0540FFFDF
:102D1F00E4FCFDFEFBFA7901F8121C8A9000011207
:102D2F001DE87FCE124047900000EFF0A3E0F8A31C
:102D3F00E0F9A3E0FAA3E0FB900000E07F00FEE4DF
:102D4F00FCFDEF2BFFEA3EFEED39FDEC38FCA31244
:102D5F001DE87FCF124047900000EFF0A3E0F8A3EB
:102D6F00E0F9A3E0FAA3E0FB900000E0FFE4FCFD34
:102D7F00FEEB2FFFEE3AFEED39FDEC38FCA3121DF2
:102D8F00E87BFF7A0779E01230A3900001E0FCA303
:102D9F00E0FDA3E0FEA3E0FF021E9F7BFF7A077911
:042DAF00F51230A346
:012DB30022FD
:01003A0022A3
:0142A80022F3
:0142A90022F2
:102F3D007BFF7A0879101230A37D827FFF124167E3
:102F4D007F0C124047900001EFF07F0D124047902B
:102F5D000002EFF07F0F124047900000EFF090005D
:102F6D0002E030E7717D867FFF1241677FD212400C
:102F7D0047900003EFF07BFF7A08791C900014F066
:102F8D001230A3900003E030E1127BFF7A0879350F
:102F9D001230A37B017A00798C1235C7900003E0C3
:102FAD0030E0097BFF7A0879411230A37D867FFFDF
:102FBD001241677D7F7FFC124167E4FD7FFC12416A
:102FCD00677D827FFF1241677DFF7F051241677D1F
:102FDD007F7F05124167900000E054C0FFBFC0180D
:102FED001241857D827FFF1241677DFF7F07124170
:102FFD00677D3F7F07124167900000E030E7217B3E
:10300D00FF7A0879541230A31242327D827FFF126B
:10301D0041677DBF7F071241677D3F7F0712416783
:10302D00900000E030E6217BFF7A0879661230A32C
:10303D00123A107D827FFF1241677D7F7F0712411B
:10304D00677D3F7F07124167900001E030E0467BCE
:10305D00FF7A0879751230A37D827FFF1241677D5B
:10306D00FF7F9E1241677DF77F9E1241677DFF7F37
:10307D00041241677DFE7F041241677F647E007DEF
:10308D00007C00123DB4120C571228061231D512D5
:05309D003AD3123A10C5
:0130A200220B
:102DB4009000D0EBF0A3EAF0A3E9F07D827FFF124C
:102DC40041679000D0E0FBA3E0FAA3E0F99000048F
:102DD400121C52FFAEF0900002121C522FE5F03E7E
:102DE400FD7FA31241679000D0E0FBA3E0FAA3E0CB
:102DF400F9900004121C52FFAEF0900002121C5213
:102E04002FFFE5F03EAD077FA41241679000D0E0AC
:102E1400FBA3E0FAA3E0F990000E121C52FFAEF0FF
:102E240090000C121C522FFFE5F03EAD077FA51257
:102E340041679000D0E0FBA3E0FAA3E0F99000061C
:102E4400121C52E5F0FD7FA61241679000D0E0FB12
:102E5400A3E0FAA3E0F9900006121C52FD7FA7122A
:102E640041679000D0E0FBA3E0FAA3E0F9900010E2
:102E7400121C52E5F0FD7FA81241679000D0E0FBE0
:102E8400A3E0FAA3E0F9900010121C52FD7FA912EE
:102E940041679000D0E0FBA3E0FAA3E0F9900008BA
:102EA400121C52E5F0FD7FAA1241679000D0E0FBAE
:102EB400A3E0FAA3E0F9900008121C52FD7FAB12C4
:102EC40041679000D0E0FBA3E0FAA3E0F990001280
:102ED400121C52E5F0FD7FAC1241679000D0E0FB7C
:102EE400A3E0FAA3E0F9900012121C52FD7FAD1288
:102EF40041679000D0E0FBA3E0FAA3E0F990000260
:102F0400121C52E5F0FD7FAE1241679000D0E0FB49
:102F1400A3E0FAA3E0F9900002121C52FD7FAF1265
:102F240041679000D0E0FBA3E0FAA3E0F990000C25
:092F3400121C52FD7FB00241673E
:1033C900900018121DB89000B8121DE87BFF7A080A
:1033D900798A1230A39000B8E0FCA3E0FDA3E0FED7
:1033E900A3E0FF121E9F7D837FFF1241677D507FFF
:1033F9002D1241677F287E887D047C009000B8E00B
:10340900F8A3E0F9A3E0FAA3E0FBC3121DA7700E2D
:103419007DB67F261241677DF07F271241677F14B1
:103429007E447D027C009000B8E0F8A3E0F9A3E0B7
:10343900FAA3E0FBC3121DA770077DB77F261241CF
:10344900677F0A7E227D017C009000B8E0F8A3E046
:10345900F9A3E0FAA3E0FBC3121DA770077D9C7FC7
:10346900261241677D807FFF1241677D5A7F1112C5
:0934790041677DFA7F11024167F1
:10425C007D827FFF1241677D807F4F1241677D20F9
:05426C007F50024167D4
:1038DE0090008074FFF0A37409F0A3747FF0123B84
:1038EE00921239AE12425C122806900080E0FBA3C1
:1038FE00E0FAA3E0F9122DB4123AD312386B123A51
:10390E00101242A87D827FFF1241677D8C7FD612F6
:10391E0041677D067FD71241677D847FFF12416725
:10392E007D0C7F061241677D107F071241677D0176
:0C393E007F161241677DD47F3402416780
:10348200123B921239AE1232F6123C4A12352F7F9B
:10349200E87E037D007C00123DB4120C5712280610
:1034A2001231D51236E6124148124103123AD312B2
:1034B200386B123F531240161232F67F01123A72E3
:1034C2001242477BFF7A08799D1230A31241859000
:1034D200007EE07BFF60127A0879D01230A31232AC
:1034E200F6123A10124016800D7A0879E21230A3D1
:1034F200124283124232122C1F1242A912003A12B5
:1035020042A81232F69000D5E0600B122F3DE490F3
:1035120000D5F0439B0290008BE060E990008EE0C2
:0D352200B48503124126E490008BF080D8A0
:03003B000240BCC4
:1040BC00C0E0C083C082C0D0E5ECB4080575EC004C
:1040CC00C2899000D57401F0539BFDD0D0D082D022
:0440DC0083D0E0327B
:0300000002365A6B
:0C365A00787FE4F6D8FD7581210236A1CE
:103D5B009000BC121DE8538EF7438901D28CE4FF0F
:103D6B00FEFDFC9000BCE0F8A3E0F9A3E0FAA3E0B1
:103D7B00FBC3121DA7602F758A7E758CFF308DFDDE
:103D8B00C28D9000BCE0FCA3E0FDA3E0FEA3E02409
:103D9B00FFFFEE34FFFEED34FFFDEC34FFFC900033
:093DAB00BC121DE880B8C28C2294
:103DB40090004E121DE8538EF7438901D28CE4FF24
:103DC400FEFDFC90004EE0F8A3E0F9A3E0FAA3E0C6
:103DD400FBC3121DA7602F758ACA758CFA308DFD3E
:103DE400C28D90004EE0FCA3E0FDA3E0FEA3E0241E
:103DF400FFFFEE34FFFEED34FFFDEC34FFFC9000DA
:093E04004E121DE880B8C28C22A8
:103E0D009000C0121DE8538EEF438910D28EE4FF4F
:103E1D00FEFDFC9000C0E0F8A3E0F9A3E0FAA3E0FA
:103E2D00FBC3121DA7602F758BEA758DCB308FFDEF
:103E3D00C28F9000C0E0FCA3E0FDA3E0FEA3E02450
:103E4D00FFFFEE34FFFEED34FFFDEC34FFFC900080
:093E5D00C0121DE880B8C28E22DB
:103BEE009000C4121DE853C9BF53C9DF43C910D298
:103BFE00CAE4FFFEFDFC9000C4E0F8A3E0F9A3E0E8
:103C0E00FAA3E0FBC3121DA7602F75CC3075CDF85B
:103C1E0030CFFDC2CF9000C4E0FCA3E0FDA3E0FED8
:103C2E00A3E024FFFFEE34FFFEED34FFFDEC34FF86
:0C3C3E00FC9000C4121DE880B8C2CA222D
:103CA5009000C8121DE875C40743C408E4FFFEFD73
:103CB500FC9000C8E0F8A3E0F9A3E0FAA3E0FBC399
:103CC500121DA7603275C52C75C6CFE5C430E4FB5F
:103CD50053C4EF9000C8E0FCA3E0FDA3E0FEA3E021
:103CE50024FFFFEE34FFFEED34FFFDEC34FFFC90C6
:0B3CF50000C8121DE880B553C4F72280
:103D00009000CC121DE875C40743C408E4FFFEFD13
:103D1000FC9000CCE0F8A3E0F9A3E0FAA3E0FBC339
:103D2000121DA7603275C5D875C6FFE5C430E4FB27
:103D300053C4EF9000CCE0FCA3E0FDA3E0FEA3E0C1
:103D400024FFFFEE34FFFEED34FFFDEC34FFFC906A
:0B3D500000CC121DE880B553C4F72220
:10238300E5082451F582E43400F583E00508229042
:10239300004E300703900051E475F001121E250230
:1023A3001AF62000E97F2ED2008018EF540F2490F4
:1023B300D43440D4FF30040BEF24BFB41A005003CD
:1023C3002461FFE50960021509050CE50C7002059F
:1023D3000B30070E90004EE475F001121E25EF023C
:1023E3001B3C0240707403D2078003E4C207F50864
:1023F30090004E121E3CE4F509F50BF50CE509605F
:10240300077F201223C680F5750AFFC201C200C2EE
:1024130002C203C205C206C208122392FF700D3026
:1024230007057F001223D7AF0CAE0B22B4255FC282
:10243300D5C204122392FF24D0B40A00501A75F0B7
:102443000A780930D50508B6FF0106C6A426F6208A
:10245300D5047002D20380D924CFB41A00EF5004FC
:10246300C2E5D2040226C9D20180C6D20080C0D2FE
:102473000280BCD2D580BAD20580B47F201223C695
:102483002002077401B5090040F1122383FF1223D0
:10249300C6022400D208D2068095122383FB12239E
:1024A30083FA122383F94A4B700679C77A277BFF95
:1024B30020022EE509602A7E008E82758300121B9E
:1024C3000F60060EEE650A70F0C2D5EBC0E0EAC0FD
:1024D300E0E9C0E0EE12272AD0E0F9D0E0FAD0E03C
:1024E300FB121AF6FF60AAEBC0E0EAC0E0E9C0E025
:1024F3001223C6D0E02401F9D0E03400FAD0E0FB87
:10250300E50A0460DCD50AD98087D20280A21227AB
:102513000C60F7E50A70010412165CA90A600DE568
:102523000A600914F50A1227B4EF60F3EA30E702F0
:10253300F404C3995079EAF4250A0430E701E4046A
:10254300F50A800D12270C60C1EA050A250A121646
:102553005CEA90007DF030E701E4250A04D50A0423
:102563002005011412272AE4C0E01227B490007D4D
:10257300E0601320E70714F01223AE802204F0D0AA
:10258300E014C0E07F001223AEE50A60071223A522
:10259300150A800B3005031223A5D0E0022400D0D6
:1025A300E00480C412270C609EE50A0412165C90B6
:1025B300007DEAF0E50A20050260010424041227E5
:0125C3002AED
:1025C40074FF04C0E01227B41223AEE50A2005020A
:1025D40060031223A5D0E0B50AE87F451223B89022
:1025E400007DE07F2B30E7047F2DF404C0E012234C
:1025F400C6D0E075F00A84C0F01223AFD0E01223F5
:10260400AF022400791080027908C206C20880084B
:10261400D2D5790A8004790AC2D5E50A047002F594
:102624000AE4FAFDFEFF122383FC7B082001131247
:102634002383FD7B1030000A122383FE122383FFC1
:102644007B20EC3382D592D55013C3E43000069F2F
:10265400FFE49EFEE42001039DFDE49CFCE4CBF832
:10266400C201EC700CCFCECDCCE824F8F870F38026
:1026740017C3EF33FFEE33FEED33FDEC33FCEB33E6
:10268400FB994002FB0FD8E9EB300105F8D0E0C418
:1026940048B201C0E00AEC4D4E4F78207B0070C276
:1026A400EAB50A0040BCC0E012272CD0F0D0E020EC
:1026B4000104C4C0E0C4B201C0F01223AFD0F0D50D
:1026C400F0EB022400121E45249D53260858246E64
:1026D4004C246A42260C4F2614442614492483436E
:1026E400261A5525474625A74525114727E750248F
:1026F400722D24762E24992B247A2324972027D0F4
:102704002A24324800002491E50AB4FF03750A061E
:10271400122383FC122383FD122383FE122383FFDF
:10272400900076021699790AA2D52003143005097F
:10273400B910020404B9080104A2D520060250010C
:10274400042002689202B509005034C0E07F2030B2
:1027540003197F30A20272067205500F122783C23A
:1027640002C206C205C2087F30800F300503E9C0EB
:10277400E01223C6300503D0E0F9D0E0B509CC302F
:1027840005177F30B9100C1223C67F583004077F19
:10279400788003B908031223C63002057F2D022373
:1027A400C67F202008F87F2B2006F322920280CFD8
:1027B4007F00B40700500B2476F582E43400F583DF
:1027C400E0FF22286E756C6C2900D201122383303D
:1027D40001F8C201780930D50108F60224322D50DF
:1027E4004349581223832403B405004001E490278D
:1027F400E2931223B7743A1223B7D2037509040281
:022804002608A4
:10165C00F920E73624F950037907E4F42402FBE57A
:10166C0082158270021583DBF6E024FB501BE960C7
:10167C0014E4F0E582158270021583E004F0B40ADC
:0D168C0008E4F0D9EE7401F00A22C2D52264
:10169900ED33EC3392D5FA602AB4FF33EDC2E77B20
:1016A900FF60067A1679BEE4227A1679C720D50436
:1016B9007A1679C2224E614E002B494E46002D49B9
:1016C9004E4600E47A08F0A3DAFC7B00740722C0D6
:1016D90083C082ECC0E0EDC0E0EEC0E0EFC0E0EA1C
:1016E90075F010A4CAABF075F04DA42BFBE435F0EE
:1016F900FCEA2410FAEB34C5FBEC34D9FCEDC2E763
:10170900FF75F056A4F42411C5F0F434C58FF0A484
:101719002AE5F03BE43CF020E714121A6CD0E0FF14
:10172900D0E0FED0E0FDD0E0FC12199F8014F40453
:10173900121A6CD0E0FFD0E0FED0E0FDD0E0FC1240
:101749001896D082D083E0FAEDD2E7CD33EC33247A
:1017590082FBE4C3CF33CFCE33CECD33CD33DBF3EE
:101769007B0775F00A846004F0A31B0AE5F0F0A377
:101779008FF0740AA4FFACF08EF0740AA42CFEACAE
:10178900F050010C8DF0740AA42CFDE435F0F0A39F
:05179900DBDE740722F5
:10179E00021AE1E86480F8E933E83360110460F07E
:1017AE00ED33EC337009E8FCE9FDEAFEEBFF2204B1
:1017BE0060DED3EB9FEA9EE99DE8C2E78CF0C2F7AC
:1017CE0095F0400CE8CCF8E9CDF9EACEFAEBCFFB78
:1017DE00121AAC85D0F05804700320D5B3E804700B
:1017EE00075002B2D5021AEB92D5EC0460F7E4CCA6
:1017FE00C0E0C398F8603B94186008400DD0E0FB41
:10180E00021AC3E4FBFAC9FC8028E830E406E4C9F6
:10181E00FBE4CAFCE830E305E4C9CACBFCE8540794
:10182E006010F8C3E913F9EA13FAEB13FBEC13FC9F
:10183E00D8F130F52FC3E49CFCEF9BFFEE9AFEED42
:10184E0099FDD0E0FBEF4E4D4C701222DB03021AD5
:10185E00E8EC2CFCEF33FFEE33FEED33FDED30E71D
:10186E00EB021AC3EF2BFFEE3AFEED39FDD0E0FB93
:10187E0050130BBB0003021AEBED13FDEE13FEEF3C
:08188E0013FFEC13FC021AC366
:10189600EC4D6011E8497017ED33EC3304600DE44C
:1018A600FCFFFEFD22E933E8330470F8021AE11268
:1018B6001AAC58046009E4CC248150062850090269
:1018C6001AEB284003021AE8C0E0EB4A7044B980DC
:1018D60006D0E0FB021AD7EF4E701CBD8008EBFF66
:1018E600EAFEE9FD80EBE98DF0A4FEE5F002197F42
:1018F600E9CDF9EAFEEBFFEF89F0A4FCE5F0CE892D
:10190600F0A42EFFE435F0CD89F0A42DFEE435F0E9
:101916008067EF4E7005BD80D780C3EF8BF0A4AC17
:10192600F0EE8BF0A42CFCE435F0F8EF8AF0A42C52
:10193600E5F038FCE433CB8DF0A42CFCE5F03BF865
:10194600EE8AF0A42CFCE5F038F8E433CF89F0A455
:101956002CFCE5F038CF3400CE89F0A42FFFE5F05B
:101966003EFEE433C98DF0A42EFEE5F039CD8AF0B3
:10197600A42FFFE5F03EFEE43DFD33D0E0FB50072B
:101986000BBB000F021AEBEC2CFCEF33FFEE33FE21
:06199600ED33FD021AC34F
:10199C00021AEBEC5D046005E859047003021AE1CD
:1019AC00121AAC580460F6EC4860F2EC7004FDFEC0
:1019BC00FF22C860DB2481C85009C398600250061E
:1019CC00021AE89850CAF582E9294B4A7005AB8295
:1019DC00021AD775F0007C1A7880C3EF9BEE9AED53
:1019EC0099400DC3EF9BFFEE9AFEED99FDE842F096
:1019FC00DC23ACF0D0E0FFD0E0FED0E0FDAB8220E9
:101A0C00E7101BEB60BAEC2CFCEF33FFEE33FEED72
:101A1C0033FD021AC3E803F830E705C0F075F00097
:101A2C00EF2FFFEE33FEED33FD40B830E7C280AA56
:101A3C003F8000004120000042C80000447A0000B2
:101A4C00461C400047C35000497424004B18968034
:101A5C004CBEBC205A0E1BCA6753C21C749DC5AE2B
:101A6C00FB60065407601C2323121A9AEB5438604F
:101A7C0009121A86121A95121896ECF8EDF9EEFA6C
:101A8C00EFCB22EB121A9580F1543803241C901AD8
:101A9C003CFE93FC0EEE93FD0EEE930ECE93FF22C6
:101AAC00E9D2E7C933E833F892D5EDD2E7CD33EC80
:071ABC0033FC5002B2D522F9
:101AC300EC30E7100FBF000C0EBE00080DBD000484
:101AD3000BEB6014A2D5EB13FCED92E7FD2274FF30
:101AE300FCFDFEFF22E480F8A2D574FF13FC7D8089
:031AF300E480EF9D
:10366600024097E493A3F8E493A34003F68001F2A3
:1036760008DFF48029E493A3F85407240CC8C33365
:10368600C4540F4420C8834004F456800146F6DF34
:10369600E4800B01020408102040809041BEE47EC5
:1036A600019360BCA3FF543F30E509541FFEE49329
:1036B600A360010ECF54C025E060A840B8E493A3F0
:1036C600FAE493A3F8E493A3C8C582C8CAC583CA1B
:1036D600F0A3C8C582C8CAC583CADFE9DEE780BED3
:0141D80000E6
:101AF600BB010689828A83E0225002E722BBFE02EE
:091B0600E32289828A83E4932220
:101B0F00BB010CE58229F582E5833AF583E022508B
:101B1F0006E92582F8E622BBFE06E92582F8E222D5
:0D1B2F00E58229F582E5833AF583E49322EF
:101B3C00BB010689828A83F0225002F722BBFE0188
:021B4C00F32282
:101B4E00F8BB010DE58229F582E5833AF583E8F0CD
:101B5E00225006E92582C8F622BBFE05E92582C879
:021B6E00F22261
:101B7000BC000BBE0029EF8DF084FFADF022E4CC59
:101B8000F875F008EF2FFFEE33FEEC33FCEE9DEC22
:101B9000984005FCEE9DFE0FD5F0E9E4CEFD22ED68
:101BA000F8F5F0EE8420D21CFEADF075F008EF2FB2
:101BB000FFED33FD4007985006D5F0F222C398FDA3
:051BC0000FD5F0EA2240
:101BC500C2D5EC30E709B2D5E4C39DFDE49CFCEE3B
:101BD50030E715B2D5E4C39FFFE49EFE121B70C328
:101BE500E49DFDE49CFC8003121B7030D507C3E423
:061BF5009FFFE49EFE22AA
:101BFB00C5F0F8A3E028F0C5F0F8E5821582700275
:061C0B001583E038F02211
:101C1100A3F8E0C5F025F0F0E58215827002158386
:061C2100E0C838F0E822E3
:101C2700BB010A89828A83E0F5F0A3E02250068788
:101C3700F009E71922BBFE07E3F5F009E31922894A
:0B1C4700828A83E493F5F0740193227D
:101C5200BB0110E58229F582E5833AF583E0F5F0D0
:101C6200A3E0225009E92582F886F008E622BBFEAD
:101C72000AE92582F8E2F5F008E222E5832AF583F3
:081C8200E993F5F0A3E99322B8
:101C8A00E88FF0A4CC8BF0A42CFCE98EF0A42CFCF9
:101C9A008AF0EDA42CFCEA8EF0A4CDA8F08BF0A477
:101CAA002DCC3825F0FDE98FF0A42CCD35F0FCEBD6
:101CBA008EF0A4FEA9F0EB8FF0A4CFC5F02ECD399B
:0F1CCA00FEE43CFCEAA42DCE35F0FDE43CFC2208
:101CD90075F008758200EF2FFFEE33FECD33CDCCC2
:101CE90033CCC58233C5829BED9AEC99E582984045
:101CF9000CF582EE9BFEED9AFDEC99FC0FD5F0D622
:101D0900E4CEFBE4CDFAE4CCF9A88222B800C1B94B
:101D19000059BA002DEC8BF084CFCECDFCE5F0CB89
:101D2900F97818EF2FFFEE33FEED33FDEC33FCEBC2
:101D390033FB10D703994004EB99FB0FD8E5E4F97D
:101D4900FA227818EF2FFFEE33FEED33FDEC33FC6A
:101D5900C933C910D7059BE99A4007EC9BFCE99A5E
:101D6900F90FD8E0E4C9FAE4CCFB2275F010EF2FA3
:101D7900FFEE33FEED33FDCC33CCC833C810D707A3
:101D89009BEC9AE899400AED9BFDEC9AFCE899F8DE
:0E1D99000FD5F0DAE4CDFBE4CCFAE4C8F92271
:101DA700EB9FF5F0EA9E42F0E99D42F0E89C45F092
:011DB7002209
:101DB800BB010DE58229F582E5833AF583021E779A
:101DC8005007E92582F8021E6BBBFE07E92582F859
:101DD800021E83E58229F582E5833AF583021E8F88
:0C1DE800ECF0A3EDF0A3EEF0A3EFF0226E
:101DF400A8828583F0D083D082121E0B121E0B1290
:101E04001E0B121E0BE473E493A3C583C5F0C583B4
:101E1400C8C582C8F0A3C583C5F0C583C8C582C838
:011E2400229B
:101E2500F8E0FBA3A3E0F925F0F0E5821582700246
:071E35001583E0FA38F022EA
:091E3C00EBF0A3EAF0A3E9F022A7
:101E4500D083D082F8E4937012740193700DA3A32C
:101E550093F8740193F5828883E473740293686040
:061E6500EFA3A3A380DF40
:10407000EFB40A07740D12407B740A309811A899A6
:10408000B8130CC2983098FDA899C298B811F630B0
:0740900099FDC299F5992288
:0C1E6B00E6FC08E6FD08E6FE08E6FF22A3
:0C1E7700E0FCA3E0FDA3E0FEA3E0FF22DE
:0C1E8300E2FC08E2FD08E2FE08E2FF229B
:101E8F00E493FC740193FD740293FE740393FF2299
:00000001FF
