:03375900307800C5
:1034EF0053B1BF53B2BF53B17F53B27F759850439F
:1034FF008920438780438E1053C4DFAB07AA06A9E8
:10350F0005A8047F407E427D0F7C001206E7EF0482
:09351F00F404F58DD28ED299223C
:08375100C2998F993099FD2205
:030037000237513C
:1033D000AB07AA067C007D0A120597C3EF940AEE9C
:1033E000648094805005EF2430800E7C007D0AAF0D
:1033F00003AE02120597EF2457FF1200377C007DC1
:103400000AAF03AE02120597C3ED940AEC648094F0
:0F34100080ED5004243080022457FF1200372231
:102D8400900179EEF0A3EFF07BFF7A3779591214B2
:102D94009A7F027E007D007C00123224900179E04B
:102DA400FEA3E0FF7C007D10120597C3EF940AEEAA
:102DB400648094805005EF24308012900179E0FE05
:102DC400A3E0FF7C007D10120597EF2457FF12004B
:102DD40037900179E0FEA3E0FF7C007D1012059797
:102DE400C3ED940AEC64809480ED50042430800296
:072DF4002457FF12003722F3
:060F4B0090013E1207BAFE
:100F5100E4900142F0A31207C60000000090013E98
:100F6100E0FCA3E0FDA3E0FEA3E0FF900143120734
:100F7100BA7F201200377F7F7E967D987C0090019A
:100F810043E0F8A3E0F9A3E0FAA3E0FBD312077969
:100F9100407A7B807A9679987800900143E0FCA3AF
:100FA100E0FDA3E0FEA3E0FF1206E7E47B0AFAF905
:100FB100F8D31207797B807A96799878009001436B
:100FC100E0FCA3E0FDA3E0FEA3E0FF40081206E77A
:100FD100EF243080061206E7EF2457FF1200379006
:100FE1000143E0FCA3E0FDA3E0FEA3E0FF7B807AE8
:100FF10096799878001206E7AC00AD01AE02AF0316
:101001009001431207BA9001427401F07F3F7E4282
:101011007D0F7C00900143E0F8A3E0F9A3E0FAA37F
:10102100E0FBD3120779407C7B407A42790F78004C
:10103100900143E0FCA3E0FDA3E0FEA3E0FF120664
:10104100E7E47B0AFAF9F8D31207797B407A42790F
:101051000F7800900143E0FCA3E0FDA3E0FEA3E0D4
:10106100FF40081206E7EF243080061206E7EF245E
:1010710057FF120037900143E0FCA3E0FDA3E0FE1F
:10108100A3E0FF7B407A42790F78001206E7AC00BB
:10109100AD01AE02AF039001431207BA9001427451
:1010A10001F0800B900142E060057F301200377F34
:1010B1009F7E867D017C00900143E0F8A3E0F9A3C7
:1010C100E0FAA3E0FBD3120779500302115C7BA085
:1010D1007A8679017800900143E0FCA3E0FDA3E06A
:1010E100FEA3E0FF1206E7E47B0AFAF9F8D3120740
:1010F100797BA07A864019097800900143E0FCA32E
:10110100E0FDA3E0FEA3E0FF1206E7EF2430801824
:1011110079017800900143E0FCA3E0FDA3E0FEA388
:10112100E0FF1206E7EF2457FF120037900143E07A
:10113100FCA3E0FDA3E0FEA3E0FF7BA07A8679019A
:1011410078001206E7AC00AD01AE02AF0390014397
:101151001207BA9001427401F0800B900142E060E5
:10116100057F30120037E47F0F7E27FDFC9001439D
:10117100E0F8A3E0F9A3E0FAA3E0FBD3120779506A
:101181000302120DE47B107A27F9F8900143E0FC89
:10119100A3E0FDA3E0FEA3E0FF1206E7E47B0AFA69
:1011A100F9F8D3120779E47B107A274017F89001F8
:1011B10043E0FCA3E0FDA3E0FEA3E0FF1206E7EF9E
:1011C10024308016F9F8900143E0FCA3E0FDA3E090
:1011D100FEA3E0FF1206E7EF2457FF12003790014C
:1011E10043E0FCA3E0FDA3E0FEA3E0FFE47B107A73
:1011F10027F9F81206E7AC00AD01AE02AF0390018A
:10120100431207BA9001427401F0800B900142E051
:1012110060057F30120037E47FE77E03FDFC90011B
:1012210043E0F8A3E0F9A3E0FAA3E0FBD3120779C6
:1012310050030212BEE47BE87A03F9F8900143E01F
:10124100FCA3E0FDA3E0FEA3E0FF1206E7E47B0AB6
:10125100FAF9F8D3120779E47BE87A034017F8909A
:101261000143E0FCA3E0FDA3E0FEA3E0FF1206E7DB
:10127100EF24308016F9F8900143E0FCA3E0FDA3D0
:10128100E0FEA3E0FF1206E7EF2457FF12003790BC
:101291000143E0FCA3E0FDA3E0FEA3E0FFE47BE863
:1012A1007A03F9F81206E7AC00AD01AE02AF039084
:1012B10001431207BA9001427401F0800B90014280
:1012C100E060057F30120037E47F63FEFDFC900192
:1012D10043E0F8A3E0F9A3E0FAA3E0FBD312077916
:1012E100500302136BE47B64FAF9F8900143E0FCCC
:1012F100A3E0FDA3E0FEA3E0FF1206E7E47B0AFA08
:10130100F9F8D3120779E47B644017F8900143E0C0
:10131100FCA3E0FDA3E0FEA3E0FF1206E7EF24300B
:101321008017FAF9F8900143E0FCA3E0FDA3E0FE89
:10133100A3E0FF1206E7EF2457FF120037900143A5
:10134100E0FCA3E0FDA3E0FEA3E0FFE47B64FAF987
:10135100F81206E7AC00AD01AE02AF0390014312F3
:1013610007BA9001427401F0800B900142E06005E0
:101371007F30120037E47B0AFAF9F8900143E0FC70
:10138100A3E0FDA3E0FEA3E0FF1206E7E47B0AFA77
:10139100F9F8D3120779E44017F8900143E0FCA370
:1013A100E0FDA3E0FEA3E0FF1206E7EF2430801981
:1013B1007B0AFAF9F8900143E0FCA3E0FDA3E0FE0B
:1013C100A3E0FF1206E7EF2457FF120037E47B0A80
:1013D100FAF9F8900143E0FCA3E0FDA3E0FEA3E0ED
:1013E100FF1206E7AC00AD01AE02AF03E47B0AFADF
:1013F100F9F8D3120779E44017F8900143E0FCA310
:10140100E0FDA3E0FEA3E0FF1206E7EB2430801924
:101411007B0AFAF9F8900143E0FCA3E0FDA3E0FEAA
:0D142100A3E0FF1206E7EB2457FF1200378F
:01142E00229B
:0B25A30090013EEBF0A3EAF0A3E9F08A
:1025AE009001691207C600000000E490016DF0A3CF
:1025BE00F0F9A3C9F0A3F0A3E9F0E4A3F0F9A3C9DD
:1025CE00F0A3F0A3E9F0A37401F0A37401F0A374D7
:1025DE0041F090013EE0F9A3E0FAA3E0900173C947
:1025EE00F0A3EAF0A3E9F0900173E0FBA3E0FAA3F5
:1025FE00E0F91204D870030226D464256003022683
:10260E00BA900173A3E475F0011205CDA9F0FA1288
:10261E0004D824DB70030226A824E1602B24EC608E
:10262E005024F4602324EC604824157072900176D7
:10263E00E0FBA3E475F0021205E3A9F0FA1205F926
:10264E00900172F0E0FF8054900176E0FBA3E475F8
:10265E00F0011205E3A9F0FA1204D8FF90016DE41F
:10266E00F0A3EFF090016DA3E0FF7E001233D08057
:10267E002E900176E0FBA3E475F0011205E3A9F0BC
:10268E00FA1204D8FF90016DE4F0A3EFF090016D03
:10269E00E0FEA3E0FF122D8480057F251200379007
:1026AE000174E475F0011205CD0225F5900173E079
:1026BE00FBA3E475F0011205E3A9F0FA1204D8FFAA
:0626CE001200370225F5A1
:0126D40022E3
:10332D000D0A23232323232323232323232323238F
:10333D002323232323232323232323236D63752077
:10334D0073746172742323232323232323232323C1
:10335D002323232323232323232323232323232330
:10336D00232323000D0A697271207461736B2E2E55
:02337D002E0020
:042440004101D20084
:10341F0043B30153B4FE43B30253B4FD43B3045358
:10342F00B4FB43B10853B2F743B11053B2EF53ACEF
:10343F00FE43AD0143B30843B40843B31043B41084
:10344F007F007EC27D017C001234EF53E9FB43E91C
:0D345F002043EA0853EBF7439B02D2AF2253
:1036B700C2B07FC87E007D007C00123224D2B07F6A
:0A36C700C87E007D007C0002322462
:1035590012341F7BFF7A33792D1225A31236B71245
:103569002E6E9001D2E060FA7BFF7A3379711225D1
:0E357900A31227DCE49001D2F0439B0280E411
:042444004101D0760C
:0737250012372CD2937F0A3A
:0A372C00E4FEEEC39F50030E80F888
:013736002270
:1036D100D2947F01123725C2947F0712372CC293EF
:0536E1007F0102372CFF
:0C374500C2947F02123725D29402372C68
:02337F00AD0798
:10338100E4FCEDA804088002C333D8FC30E704D282
:10339100948002C2947F0312372CD2930F12372CE0
:1033A100C2930CECB408DB7F0112372CD2947F035B
:1033B10012372CD29312372C309407E49001D1F0BC
:0F33C10080069001D17401F0C2937F0302372C74
:10000300E4FDD294FC7F0112372CC2937F04123794
:100013002CD2937F0212372CED25E0FD3094010D95
:100023007F0212372C0CECB408DBC2937F05123726
:030033002CAF05EA
:0100360022A7
:10369B00EF7004C2948002D2947F0812372CD2931D
:0C36AB007F0F12372CC2937F0802372CCF
:072FA300900140EDF0AC07C6
:102FAA001236D1AF0412337F9001D1E07002802D26
:102FBA00900140E0FF12337F9001D1E07002801D42
:102FCA00E4900145F0900144E0FFA3E0C39F502242
:102FDA001204D8FF12337F9001D1E07006123745F0
:102FEA007F0022740129F9E43AFA900145E004F0DD
:072FFA0080D31237457F016F
:0130010022AC
:082B800090013FEFF0A3EDF01E
:102B88001236D190013FE0FF12337F9001D1E070FF
:102B9800028022900140E0FF12337F9001D1E07063
:102BA8000280121236D190013FE004FF12337F9069
:102BB80001D1E07009123745E412051EFF22E490A6
:102BC8000145F0900144E014FFA3E0C39F501B129D
:102BD8000003EF12051EE4FF12369B740129F9E485
:102BE8003AFA900145E004F080D9120003EF12058B
:0B2BF8001E7F0112369B1237457F0143
:012C030022AE
:02358700AE078D
:10358900E490013EF09001D0E0FFAD067B017A01A5
:10359900793E9001447401F0122B80EF600690018E
:0635A9003EE0FF227F005E
:0135AF0022F9
:0236E600AE072D
:1036E8009001D0E0FFAD069001AFE0900144F012E8
:0236F8002B8025
:0136FA0022AD
:0736600090013EEDF0AE0702
:103667009001D0E0FFAD067B017A01793E900144DD
:063677007401F0122FA304
:01367D00222A
:0236FB00AE0718
:1036FD009001D0E0FFAD069001B4E0900144F012CE
:02370D002FA3E8
:01370F002297
:100871000D0A4C54393631312072696E6720436854
:100881006970204944203D202578200020257800EA
:100891000D0A4C54393631315F4D4950495F496E2B
:1008A1007075745F44696774613A206C74393631CC
:1008B1003120736574206D697069206C616E657398
:1008C100203D202564000D0A4C54393631315F4DED
:1008D1004950495F496E7075745F44696774613A44
:1008E100206C743936313120736574206D697069FB
:1008F10020706F727473203D2031000D0A4C543901
:100901003631315F4D4950495F496E7075745F44AE
:10091100696774613A206C743936313120736574BA
:10092100206D69706920706F7274203D2032000D56
:100931000A4C54393631312E6D6970695F6D6F64BF
:1009410065203D20637369000D0A4C5439363131FD
:100951002E6D6970695F6D6F6465203D20647369F8
:10096100000D0A4C54393631315F566964656F5F49
:10097100436865636B3A20685F6163745F612C2033
:10098100685F6163745F622C20765F6163742C2001
:10099100765F74616C3A20000D0A4C54393631315E
:1009A1005F566964656F5F436865636B3A206D6983
:1009B10070695F766964656F5F666F726D61743AC5
:1009C100202578000D0A766964656F206368656388
:1009D1006B3A204C54393631312E6D6970695F6D37
:1009E1006F6465203D20637369000D0A7669646553
:1009F1006F20636865636B3A204C54393631312E70
:100A01006D6970695F6D6F6465203D206473690075
:100A11000D0A566964656F5F436865636B203D200D
:100A2100766964656F5F363430783438305F3630DC
:100A3100487A20000D0A566964656F5F43686563F3
:100A41006B203D20766964656F5F373230783438CA
:100A5100305F3630487A20000D0A566964656F5F51
:100A6100436865636B203D20766964656F5F313251
:100A71003830783732305F3630487A20000D0A56E8
:100A81006964656F5F436865636B203D20766964C7
:100A9100656F5F37323078313038305F3630487AC1
:100AA10020000D0A566964656F5F436865636B20BA
:100AB1003D20766964656F5F313932307831303885
:100AC100305F3630487A20000D0A566964656F5FE1
:100AD100436865636B203D20766964656F5F3130E3
:100AE100383078313932305F3630487A20000D0A9B
:100AF100566964656F5F436865636B203D20766965
:100B010064656F5F3338343078323136305F33307B
:100B1100487A20000D0A566964656F5F4368656312
:100B21006B203D20766964656F5F333834307831EE
:100B31003038305F3630487A20000D0A56696465D6
:100B41006F5F436865636B203D20766964656F5F05
:100B510031303234783630305F3630487A20000D0B
:100B61000A566964656F5F436865636B203D207653
:100B71006964656F5F31323830783830305F3630D4
:100B8100487A20000D0A566964656F5F43686563A2
:100B91006B203D20756E6B6E6F776E207669646594
:100BA1006F20666F726D617420000D0A4C543936E6
:100BB10031315F504C4C3A2073657420727820704B
:100BC1006C6C203D20000D0A4C54393631315F5098
:100BD1004C4C3A207063725F6D203D2025782C20AB
:100BE10068646D695F706F73745F646976203D201E
:100BF1002564000D0A4C54393631315F504C4C3A62
:100C01002048444D4920706C6C206C6F636B6564A7
:100C1100000D0A4C54393631315F504C4C3A204862
:100C2100444D4920706C6C20756E6C6F636B65640C
:100C31002C20726573657420706C6C000D0A4C5425
:100C4100393631315F4353433A2059706270722013
:100C510034323220746F20524742383838000D0A3E
:100C6100417564696F20696E7574203D2049325366
:100C710020326368000D0A417564696F20696E75E1
:100C810074203D205350444946000D0A706F727420
:100C91002041206279746520636C6B203D20000D3A
:100CA1000A706F72742041206279746520636C6BE5
:100CB10020756E737461626C65000D0A706F7274D9
:100CC1002042206279746520636C6B203D20000D09
:100CD1000A706F72742042206279746520636C6BB4
:100CE10020756E737461626C65000D0A48746F74CF
:100CF100616C5F537973636C6B203D20000D0A4D6D
:100D01003A2578000D0A706F72742041206C616E73
:100D11006520504E206973207269676874000D0A5E
:100D2100706F72742041206C616E6520504E206599
:100D310072726F7220307838336263203D202578DB
:100D4100000D0A706F72742041206C616E65203055
:100D510020736F7420726967687420000D0A706FC8
:100D610072742041206C616E65203020736F742095
:100D71006572726F72203D202578000D0A706F72C6
:100D8100742041206C616E65203120736F74207274
:100D91006967687420000D0A706F72742041206CBD
:100DA100616E65203120736F74206572726F7220DD
:100DB1003D202578000D0A706F72742041206C610E
:100DC1006E65203220736F74207269676874200029
:100DD1000D0A706F72742041206C616E65203220A3
:100DE100736F74206572726F72203D202578000D3B
:100DF1000A706F72742041206C616E65203320731C
:100E01006F7420726967687420000D0A706F7274C4
:100E11002041206C616E65203320736F74206572F0
:100E2100726F72203D202578000D0A706F72742058
:100E310041206C616E65203020736574746C65208F
:100E41003D202578000D0A706F72742041206C617D
:100E51006E65203120736574746C65203D202578A2
:100E6100000D0A706F72742041206C616E65203232
:100E710020736574746C65203D202578000D0A701F
:100E81006F72742041206C616E652033207365742C
:100E9100746C65203D202578000D0A456E746572DD
:100EA10020495251205461736B3A0048444D492006
:100EB100646973636F6E6E65637465640048444D65
:100EC1004920636F6E6E6563746564006D69706956
:100ED10020766964656F206368616E6765643A2096
:100EE100000D0A73657420706978656C20636C6B02
:100EF100203D20000D0A23232323232323232323FF
:100F010023234C543936313120496E697469616C3F
:100F110020456E64232323232323232323232323F5
:100F2100232323232323000D0A446574656374205E
:100F31006870642048696768000D0A4465746563D8
:0A0F41007420687064204C6F770084
:1024480047007F0100000000000158009E000800BE
:102458006000280280032000210002000A01E00237
:102468000D000061A85800860010003E003C02D014
:10247800035A00090006001E01E0020D00006978F9
:10248800580118006E002800DC05000672000500DF
:1024980005001402D002EE0001220A5800D0006E96
:1024A800002800DC0500067200050005001402D0B3
:1024B80002EE0001220A5800020058002C0094077E
:1024C80080089800040005002404380465000122EF
:1024D8000A58004B0058002C009407800898000404
:1024E8000005002404380465000244145800640000
:1024F800B0005801280F0011300004000500240422
:102508003804650004882858003300B000580128B2
:102518000F0011300008000A0048087008CA0004BB
:10252800882858001B0004000500240438046500AE
:1025380058002C00940780089800024414580100A1
:1025480000050005001402D002EE006E002800DC31
:10255800050006720001220A5800B8003C003C0041
:10256800640400048200020005000A02580269009F
:102578000084D05800E80028002C00280320039C81
:10258800000A0004000C0500051A00010C8E410029
:0A2598000100410130004100B700CE
:103002007D807FFF1236607D017FEE123660E4FF25
:10301200123587900141EFF07BFF7A087971122512
:10302200A37F01123587900141EFF07BFF7A087987
:103032008D1225A37F02123587900141EFF07BFFAD
:103042007A08798D1225A37D817FFF1236607D1863
:0C3052007F011236607D807FFF02366037
:1035FB007D817FFF1236607D487F021236607D80B1
:10360B007F23123660E4FD7F30123660E4FD7F01CC
:03361B0002366014
:102EDF007D827FFF1236607D117F511236607D82B9
:102EEF007FFF1236607D697F1B1236607D787F1CF5
:102EFF001236607D697FCB1236607D787FCC1236BB
:102F0F00607D807FFF1236607DF07F041236607D1A
:102F1F00F07F061236607D807F0A1236607D467F15
:102F2F000B1236607DEF7F0D1236607DFA7F110236
:022F3F003660FA
:1030BA007D817FFF1236607D207F061236607D3F5C
:1030CA007F071236607D3F7F081236607DFE7F0AD9
:1030DA001236607DBF7F0B1236607D207F1112365B
:1030EA00607D3F7F121236607D3F7F131236607D0E
:1030FA00FE7F151236607DBF7F161236607D037F14
:0B310A001C1236607D037F200236603F
:102AFA00900080E0900131F07BFF7A087991900193
:102B0A0041F01225A37D827FFF1236607D807F4FC0
:102B1A001236607D107F501236607D837FFF123639
:102B2A0060900131E0FDE4FF1236607D047F0212FD
:102B3A0036607D047F061236607D037F0A12366096
:102B4A007BFF7A0879FC1225A3900081E07BFFB411
:102B5A00011C7A0979301225A37D837FFF12366022
:102B6A007D107F081236607D407F2C0236607A091C
:052B7A0079491225A3BA
:012B7F002233
:1018B200E4900133F07D827FFF1236607F82123521
:1018C2008790013AE4F0A3EFF07F83123587EFFDB2
:1018D2007C0090013BE0FEE42DFFEC3E90013AF0EB
:1018E200A3EFF07F6C12358790013CE4F0A3EFF098
:1018F2007F6D123587EFFD7C0090013DE0FEE42D07
:10190200FFEC3E90013CF0A3EFF07D837FFF1236A7
:10191200607F82123587900136E4F0A3EFF07F8377
:10192200123587EFFD7C00900137E0FEE42DFFECDD
:101932003EFE900136F0A3EFF07D031205429001C6
:1019420036EEF0A3EFF07F86123587900138E4F08F
:10195200A3EFF07F87123587EFFD7C00900139E01D
:10196200FEE42DFFEC3EFE900138F0A3EFF07D0384
:10197200120542900138EEF0A3EFF07F881235870E
:10198200900133EFF07BFF7A0979621225A390016F
:1019920036E0FEA3E0FFE4FCFD120F4B900138E0BD
:1019A200FEA3E0FFE4FCFD120F4B90013AE0FEA320
:1019B200E0FFE4FCFD120F4B90013CE0FEA3E0FFD0
:1019C200E4FCFD120F4B7BFF7A097999900133E019
:1019D200900141F01225A3900138E0FEA3E0FF90B0
:1019E2000137E02FFF900136E03E900134F0A3EF83
:1019F200F0900081E07BFFB4012B7A0979C51225B2
:101A0200A3900134E0C313FEA3E013FF900134EE70
:101A1200F0A3EFF07C007D03120530900134EEF06C
:101A2200A3EFF080077A0979EB1225A39000A4E0D6
:101A3200FEA3E0FF900134E0B50639A3E0B5073418
:101A42009000AEE0FEA3E0FF90013AE0B50625A3C8
:101A5200E0B507207BFF7A0A79111225A3E49000F2
:101A6200B6F090013004F090007CF0A37400F0A373
:101A7200749EF02290008CE0FEA3E0FF900134E01F
:101A8200B5063BA3E0B50736900096E0FEA3E0FF63
:101A920090013AE0B50627A3E0B507227BFF7A0A58
:101AA20079351225A39000B67401F090007CF0A362
:101AB2007400F0A37486F09001307403F022900158
:101AC2001EE0FEA3E0FF900134E0B5063CA3E0B5C2
:101AD2000737900128E0FEA3E0FF90013AE0B50647
:101AE20028A3E0B507237BFF7A0A79591225A39030
:101AF20000B67402F090007C14F0A37401F0A37499
:101B020018F09001307404F022900106E0FEA3E088
:101B1200FF900134E0B50638A3E0B5073390011019
:101B2200E0FEA3E0FF90013AE0B50624A3E0B5078A
:101B32001F7BFF7A0A797E1225A39000B67410F0FB
:101B420090007C7401F0A37401F0A37400021D01E3
:101B5200900051E0FEA3E0FF900134E0B50637A308
:101B6200E0B5073290005BE0FEA3E0FF90013AE0AF
:101B7200B50623A3E0B5071E7BFF7A0A79A31225D7
:101B8200A39000B67403F090007C7401F0A374007B
:101B9200F0A3744B8044900021E0FEA3E0FF90018B
:101BA20034E0B5063DA3E0B5073890002BE0FEA374
:101BB200E0FF90013AE0B50629A3E0B507247BFFD8
:101BC2007A0A79C91225A39000B6740FF090007CAE
:101BD2007401F0A37400F0A3741BF0900130741030
:101BE200F022900039E0FEA3E0FF900134E0B50658
:101BF2003DA3E0B50738900043E0FEA3E0FF90016B
:101C02003AE0B50629A3E0B507247BFF7A0A79EF0B
:101C12001225A39000B6740CF090007C7401F0A31E
:101C22007400F0A37433F0900130745FF0229000DE
:101C32006AE0FEA3E0FF900134E0B50638A3E0B508
:101C42000733900074E0FEA3E0FF90013AE0B5068E
:101C520024A3E0B5071F7BFF7A0B79151225A39009
:101C620000B6740DF090007C7401F0A37400F0A330
:101C72007464021D019000BEE0FEA3E0FF900134F7
:101C8200E0B50637A3E0B507329000C8E0FEA3E056
:101C9200FF90013AE0B50623A3E0B5071E7BFF7A69
:101CA2000B793B1225A39000B6740EF090007C7461
:101CB20001F0A37400F0A374B880449000EEE0FE3B
:101CC200A3E0FF900134E0B5063CA3E0B5073790EE
:101CD20000F8E0FEA3E0FF90013AE0B50628A3E099
:101CE200B507237BFF7A0B79601225A39000B674A7
:101CF20011F090007C7401F0A37400F0A374E8F07A
:101D0200E4900130F0229000B67412F07BFF7A0B5F
:051D120079851225A3F4
:011D170022A9
:101F8700900133EBF0A3EAF0A3E9F07D837FFF1222
:101F97003660900133E0FBA3E0FAA3E0F99000126A
:101FA700120624E5F0FD7F0D123660900133E0FB49
:101FB700A3E0FAA3E0F9900012120624FD7F0E12A7
:101FC7003660900133E0FBA3E0FAA3E0F99000103C
:101FD700120624E5F0FD7F0F123660900133E0FB17
:101FE700A3E0FAA3E0F9900010120624FD7F101277
:101FF7003660900133E0FBA3E0FAA3E0F990000814
:10200700120624E5F0FD7F11123660900133E0FBE4
:10201700A3E0FAA3E0F9900008120624FD7F12124C
:102027003660900133E0FBA3E0FAA3E0F9900006E5
:10203700120624E5F0FD7F13123660900133E0FBB2
:10204700A3E0FAA3E0F9900006120624FD7F14121C
:102057003660900133E0FBA3E0FAA3E0F990000CAF
:10206700120624FD7F15123660900133E0FBA3E0D2
:10207700FAA3E0F9900002120624FD7F16123660DB
:10208700900133E0FBA3E0FAA3E0F990000A1206FF
:1020970024FD7F17123660900133E0FBA3E0FAA31B
:1020A700E0F990000E120624FFAEF090000C120625
:1020B700242FFFE5F03EAD077F18123660900133FD
:1020C700E0FBA3E0FAA3E0F91205F9FD7F19123648
:1020D70060900133E0FBA3E0FAA3E0F9900004125B
:1020E7000624FFAEF09000021206242FE5F03EFD15
:1020F7007F1A123660900133E0FBA3E0FAA3E0F900
:10210700900004120624FFAEF09000021206242F5E
:0B211700FFE5F03EAD077F1B023660C5
:1028CD007D837FFF1236607D017F0B1236607D1098
:1028DD007F0C123660E4FD7F481236607D817F49A2
:1028ED001236607D4A7F211236607D717F2412364B
:1028FD00607D507F251236607D027F2A1236607D05
:10290D00407F4A1236607D807F1D1236609000B682
:10291D00E024F36007146040240270587D037F0BA0
:10292D001236607DD07F0C1236607D037F481236E3
:10293D00607DE07F491236607D727F24123660E43F
:10294D00FD7F251236607D017F2A1236607D107F56
:10295D004A1236607D1080177D707F241236607D9F
:10296D00807F251236607D107F2A1236607DF07FC4
:10297D001D12366090007CE0FBA3E0FAA3E0F91293
:10298D001F877D837FFF12366090001AE0FD7F2642
:10299D001236607D807FFF1236607D5A7F111236B0
:0829AD00607DFA7F1102366023
:0B1D180090007CE0FBA3E0FAA3E0F9E0
:101D230090001412078A9001331207BA7BFF7A0BD3
:101D330079AB1225A3900133E0FCA3E0FDA3E0FE01
:101D4300A3E0FF120F4B7D817FFF1236607D407F42
:101D5300231236607D647F241236607D807F2512D6
:101D630036607D557F261236607D377F2C123660B4
:101D73007D017F2F1236607D557F261236607D668A
:101D83007F271236607D887F281236607FF07E4978
:101D93007D027C00900133E0F8A3E0F9A3E0FAA30D
:101DA300E0FBD3120779400F7D887F2D12366090B8
:101DB30001377401F080387F707E117D017C0090C3
:101DC3000133E0F8A3E0F9A3E0FAA3E0FBD31207A1
:101DD30079400F7D997F2D1236609001377402F0A0
:101DE300800D7DAA7F2D1236609001377404F0E4D4
:101DF3007F05FEFDFC900133E0F8A3E0F9A3E0FAD0
:101E0300A3E0FB12065CA804A905AA06AB07900190
:101E130037E0FFE4FCFDFE12065CE47B787A69F9A7
:101E2300F81206E790001AEFF07BFF7A0B79C7E010
:101E3300900141F0900137E0900142F01225A37D1B
:101E4300837FFF1236607D407F2D1236607D087FD1
:101E53003112366090001AE04480FD7F261236600E
:101E6300900133E0FCA3E0FDA3E0FEA3E0FFE47BED
:101E730002FAF9F81206E79001331207BA7D827F5E
:101E8300FF123660E4FBFA7901F8900133E0FCA31A
:101E9300E0FDA3E0FEA3E0FF1206E7AD077FE31238
:101EA3003660900133A3A3E0FEA3E0FFE4FDFC90C2
:101EB30001331207BAE4FB7A01F9F8900133E0FC2D
:101EC300A3E0FDA3E0FEA3E0FF1206E7AD077FE476
:101ED300123660900133E0FCA3A3E0FEA3E0FFE42D
:101EE300AD077FE51236607D207FDE1236607DE030
:101EF3007FDE1236607D807FFF1236607DF17F16B4
:101F03001236607DF37F16123660E4900138F07D5F
:101F1300807FFF1236607DE37F161236607DF37F8C
:101F2300161236607D827FFF1236607F1512358769
:101F3300EF30E7097BFF7A0B79F40225A37D807FDD
:101F4300FF1236607D5A7F111236607DFA7F1112BF
:101F530036607DDC7F181236607DFC7F1812366098
:101F63007DF17F161236607DF37F161236607BFF9C
:101F73007A0C79121225A3900138E004F0E0C3949F
:031F830006408C89
:011F86002238
:102DFB007D817FFF1236607D6A7F301236609000D6
:102E0B0084E070047D7380027D447F311236607DD7
:102E1B004A7F321236607D0B7F33123660E4FD7FC2
:102E2B0034123660E4FD7F35123660E4FD7F3612D6
:102E3B0036607D447F371236607D0F7F3F123660E0
:102E4B007DA07F401236607DA07F411236607DA051
:102E5B007F421236607DA07F431236607D0A7F442D
:032E6B00023660CC
:102F41007D817FFF1236607D407F231236607D8256
:102F51007FFF1236607D207FDE1236607DE07FDEEE
:102F61001236607D807FFF1236607DDC7F1812365D
:102F7100607DFC7F181236607DF17F161236607D10
:102F8100F37F161236607D5A7F111236607DFA7F0B
:102F9100111236607D817FFF1236607DEA7F30023B
:022FA100366098
:01003A0022A3
:1034B2007D847FFF1236609000B7E0C43354E0246D
:1034C20010FF900130E0FEC374569EC39FFD7F4300
:1034D2001236609000B7E0C43354E02410FD7F44FC
:0D34E200123660900130E0FD7F4702366039
:10364100900081E0B401177D827FFF1236607D1802
:0F3651007FB91236607BFF7A0C793D1225A322D8
:102C0400900083E0703A7BFF7A0C795F1225A37DF4
:102C1400827FFF1236607D8C7FD61236607D047F02
:102C2400D71236607D847FFF1236607D087F0612DE
:102C340036607D107F071236607DD47F3412366093
:102C4400900083E06401703A7BFF7A0C7976122558
:102C5400A37D827FFF1236607D8C7FD61236607D25
:102C6400047FD71236607D847FFF1236607D0C7F2F
:102C7400061236607D107F071236607DD47F3412D1
:032C840036602295
:10346C007D827FFF1236607D0A7F581236607D8028
:10347C007F591236607DF77F9E1236607DFEE4FF29
:10348C001236607D3F7F031236607DFF7F0412365B
:10349C00607DFE7F041236607DFF7F071236607DF3
:0634AC003F7F07023660BD
:01375C00224A
:10367E007D827FFF1236607F5E123587EF30E20764
:0D368E009000017401F022E4900001F02290
:10361E007D857FFF1236607D1F7F071236607DFE2F
:10362E007F131236607D0F7F171236607D057F1572
:03363E00023660F1
:103528007D807FFF1236607D7F7F141236607DFFBD
:103538007F141236607D857FFF1236607D017F150E
:103548001236607D717F151236607D657F150236F3
:013558006012
:0E3737007D857FFF1236607D457F150236606E
:102122009001321207C6000000007D827FFF123646
:10213200607D037FC71236607F327E007D007C00A7
:102142001232247FCD123587900131EFF054606452
:102152006060030221E9E0540FFFE4FCFDFEFBFA9C
:102162007901F812065C9001321207BA7FCE12355D
:1021720087900131EFF0A3E0F8A3E0F9A3E0FAA31E
:10218200E0FB900131E07F00FEE4FCFDEF2BFFEA73
:102192003EFEED39FDEC38FCA31207BA7FCF1235B3
:1021A20087900131EFF0A3E0F8A3E0F9A3E0FAA3EE
:1021B200E0FB900131E0FFE4FCFDFEEB2FFFEE3A85
:1021C200FEED39FDEC38FCA31207BA7BFF7A0C79DD
:1021D2008B1225A3900132E0FCA3E0FDA3E0FEA355
:1021E200E0FF120F4B80097BFF7A0C79A01225A326
:1021F2007D827FFF1236607D047FC71236607F3298
:102202007E007D007C001232247FCD123587900142
:1022120031EFF05460646060030222ADE0540FFFBE
:10222200E4FCFDFEFBFA7901F812065C9001321221
:1022320007BA7FCE123587900131EFF0A3E0F8A301
:10224200E0F9A3E0FAA3E0FB900131E07F00FEE4B5
:10225200FCFDEF2BFFEA3EFEED39FDEC38FCA3124C
:1022620007BA7FCF123587900131EFF0A3E0F8A3D0
:10227200E0F9A3E0FAA3E0FB900131E0FFE4FCFD0A
:10228200FEEB2FFFEE3AFEED39FDEC38FCA3120710
:10229200BA7BFF7A0C79BB1225A3900132E0FCA332
:1022A200E0FDA3E0FEA3E0FF020F4B7BFF7A0C7977
:0422B200D01225A37E
:0122B6002205
:1032D600E4900133F07D827FFF1236607F861235DF
:1032E60087900131E4F0A3EFF07F87123587EFFD79
:1032F6007C00900132E0FEE42DFFEC3E900131F0BF
:10330600A3EFF07BFF7A0C79EB1225A3900131E055
:10331600FEA3E0FFE4FCFD120F4B900133E004F046
:06332600E0C3940A40AF71
:01332C00227E
:102C8700E4900131F07D837FFF1236607F97123524
:102C970087900141EFF07BFF7A0C79FE1225A37F25
:102CA700B4123587900141EFF07BFF7A08798D12D6
:102CB70025A37FB5123587900141EFF07BFF7A0896
:102CC700798D1225A37FB6123587900141EFF07BEE
:102CD700FF7A08798D1225A37FB7123587900141B6
:102CE700EFF07BFF7A08798D1225A37FE87E037DBD
:102CF700007C00123224900131E004F0E0C3940814
:022D0700408307
:012D090022A7
:1026D5007D837FFF1236607FBC123587900131EF15
:1026E500F07BFFBF55067A0D7905800C7A0D791FB1
:1026F500900131E0900141F01225A37F99123587B1
:10270500900131EFF07BFFBFB8067A0D7942800C5E
:102715007A0D795D900131E0900141F01225A37F9A
:102725009B123587900131EFF07BFFBFB8067A0D1C
:10273500797C800C7A0D7997900131E0900141F018
:102745001225A37F9D123587900131EFF07BFFBFE6
:10275500B8067A0D79B6800C7A0D79D1900131E001
:10276500900141F01225A37F9F123587900131EF2B
:10277500F07BFFBFB8067A0D79F0800C7A0E790BE5
:10278500900131E0900141F01225A37F9A1235871F
:10279500900141EFF07BFF7A0E792A1225A37F9CE9
:1027A500123587900141EFF07BFF7A0E79461225AD
:1027B500A37F9E123587900141EFF07BFF7A0E795A
:1027C500621225A37FA0123587900141EFF07BFFB0
:0727D5007A0E797E0225A3B4
:1027DC007BFF7A0E799A1225A37D827FFF123660D9
:1027EC007F0F123587900131EFF07F0C12358790F7
:1027FC000132EFF0900131E054C0FFBFC018123627
:10280C007E7D827FFF1236607DFF7F071236607DF2
:10281C003F7F07123660900131E030E7247BFF7A6E
:10282C000E79AC1225A312373712003A7D827FFF46
:10283C001236607DBF7F071236607D3F7F071236F0
:10284C0060900131E030E6247BFF7A0E79BE1225D0
:10285C00A3123528122F417D827FFF1236607D7FB7
:10286C007F071236607D3F7F07123660900132E0A1
:10287C0030E04D7BFF7A0E79CD1225A37D827FFF50
:10288C001236607DFF7F9E1236607DF77F9E12367A
:10289C00607DFF7F041236607DFE7F041236607F00
:1028AC00647E007D007C001232241218B29000B6B7
:1028BC00E0B4120302003A121D181228CD122F4157
:0128CC0022E9
:1022B7009001CDEBF0A3EAF0A3E9F07D827FFF1256
:1022C70036609001CDE0FBA3E0FAA3E0F9900004AB
:1022D700120624FFAEF09000021206242FE5F03E0E
:1022E700FD7FA31236609001CDE0FBA3E0FAA3E0E7
:1022F700F9900004120624FFAEF0900002120624A3
:102307002FFFE5F03EAD077FA41236609001CDE0C8
:10231700FBA3E0FAA3E0F990000E120624FFAEF04B
:1023270090000C1206242FFFE5F03EAD077FA512A3
:1023370036609001CDE0FBA3E0FAA3E0F990000638
:10234700120624E5F0FD7FA61236609001CDE0FB72
:10235700A3E0FAA3E0F9900006120624FD7FA71276
:1023670036609001CDE0FBA3E0FAA3E0F9900010FE
:10237700120624E5F0FD7FA81236609001CDE0FB40
:10238700A3E0FAA3E0F9900010120624FD7FA9123A
:1023970036609001CDE0FBA3E0FAA3E0F9900008D6
:1023A700120624E5F0FD7FAA1236609001CDE0FB0E
:1023B700A3E0FAA3E0F9900008120624FD7FAB1210
:1023C70036609001CDE0FBA3E0FAA3E0F99000129C
:1023D700120624E5F0FD7FAC1236609001CDE0FBDC
:1023E700A3E0FAA3E0F9900012120624FD7FAD12D4
:1023F70036609001CDE0FBA3E0FAA3E0F99000027C
:10240700120624E5F0FD7FAE1236609001CDE0FBA9
:10241700A3E0FAA3E0F9900002120624FD7FAF12B1
:1024270036609001CDE0FBA3E0FAA3E0F990000C41
:09243700120624FD7FB00236609C
:1029B50090001412078A9001B51207BA7BFF7A0EB0
:1029C50079E21225A39001B5E0FCA3E0FDA3E0FEAA
:1029D500A3E0FF120F4B7D837FFF1236607D507F92
:1029E5002D1236607F287E887D047C009001B5E03D
:1029F500F8A3E0F9A3E0FAA3E0FBC3120779700E90
:102A05007DB67F261236607DF07F271236607F14F3
:102A15007E447D027C009001B5E0F8A3E0F9A3E0D7
:102A2500FAA3E0FBC312077970077DB77F2612363C
:102A3500607F0A7E227D017C009001B5E0F8A3E06D
:102A4500F9A3E0FAA3E0FBC312077970077D9C7F29
:102A5500261236607D807FFF1236607D5A7F111207
:092A650036607DFA7F1102366033
:103710007D827FFF1236607D807F4F1236607D2074
:053720007F500236603D
:102D0A0090007C7401F0A37400F0A3744BF01230AD
:102D1A0002122EDF123710121D1890007CE0FBA35E
:102D2A00E0FAA3E0F91229B590007CE0FBA3E0FAEF
:102D3A00A3E0F91222B71234B2122DFB122F41125C
:102D4A002C877D827FFF1236607D8C7FD61236609B
:102D5A007D067FD71236607D847FFF1236607D0C38
:102D6A007F061236607D107F071236607D017F165E
:0A2D7A001236607DD47F340236600B
:102E6E00123002122EDF1230BA122AFA7FE87E03D7
:102E7E007D007C001232241218B2121D181228CDB9
:102E8E00122C0412364112361E1234B2122DFB12BF
:102E9E00346C7BFF7A0E79F51225A312367E9000E4
:102EAE0001E07BFF60127A0F79281225A312375C9E
:102EBE00122F41123528800D7A0F793A1225A3125E
:102ECE00373712003A1221221226D51232D6022C90
:012EDE00876C
:03003B000235D7B4
:1035D700C0E0C083C082C0D0E5ECB4080575EC003C
:1035E700C2899001D27401F0539BFDD0D0D082D014
:0435F70083D0E0326B
:03000000022A6E63
:0C2A6E00787FE4F6D8FD758121022AB5BE
:1031CB009001B91207BA538EF7438901D28CE4FFF1
:1031DB00FEFDFC9001B9E0F8A3E0F9A3E0FAA3E04F
:1031EB00FBC3120779602F758A7E758CFF308DFDBE
:1031FB00C28D9001B9E0FCA3E0FDA3E0FEA3E024A7
:10320B00FFFFEE34FFFEED34FFFDEC34FFFC9001CD
:09321B00B91207BA80B8C28C2276
:1032240090017B1207BA538EF7438901D28CE4FFD5
:10323400FEFDFC90017BE0F8A3E0F9A3E0FAA3E033
:10324400FBC3120779602F758ACA758CFA308DFD1D
:10325400C28D90017BE0FCA3E0FDA3E0FEA3E0248B
:10326400FFFFEE34FFFEED34FFFDEC34FFFC900174
:093274007B1207BA80B8C28C225B
:10327D009001BD1207BA538EEF438910D28EE4FF31
:10328D00FEFDFC9001BDE0F8A3E0F9A3E0FAA3E098
:10329D00FBC3120779602F758BEA758DCB308FFDCF
:1032AD00C28F9001BDE0FCA3E0FDA3E0FEA3E024EE
:1032BD00FFFFEE34FFFEED34FFFDEC34FFFC90011B
:0932CD00BD1207BA80B8C28E22BE
:10305E009001C11207BA53C9BF53C9DF43C910D279
:10306E00CAE4FFFEFDFC9001C1E0F8A3E0F9A3E085
:10307E00FAA3E0FBC3120779602F75CC3075CDF83B
:10308E0030CFFDC2CF9001C1E0FCA3E0FDA3E0FE76
:10309E00A3E024FFFFEE34FFFEED34FFFDEC34FF22
:0C30AE00FC9001C11207BA80B8C2CA220F
:103115009001C51207BA75C40743C408E4FFFEFD54
:10312500FC9001C5E0F8A3E0F9A3E0FAA3E0FBC336
:10313500120779603275C52C75C6CFE5C430E4FB3E
:1031450053C4EF9001C5E0FCA3E0FDA3E0FEA3E0BE
:1031550024FFFFEE34FFFEED34FFFDEC34FFFC9061
:0B31650001C51207BA80B553C4F72261
:103170009001C91207BA75C40743C408E4FFFEFDF5
:10318000FC9001C9E0F8A3E0F9A3E0FAA3E0FBC3D7
:10319000120779603275C5D875C6FFE5C430E4FB07
:1031A00053C4EF9001C9E0FCA3E0FDA3E0FEA3E05F
:1031B00024FFFFEE34FFFEED34FFFDEC34FFFC9006
:0B31C00001C91207BA80B553C4F72202
:10142F00E508247EF582E43401F583E00508229077
:10143F00017B30070390017EE475F0011207F7027C
:10144F0004D82000E97F2ED2008018EF540F24908B
:10145F00D43440D4FF30040BEF24BFB41A00500330
:10146F002461FFE50960021509050CE50C70020502
:10147F000B30070E90017BE475F0011207F7EF02B6
:10148F00051E0235B07403D2078003E4C207F508C6
:10149F0090017B12080EE4F509F50BF50CE50960D8
:1014AF00077F2012147280F5750AFFC201C200C2B5
:1014BF0002C203C205C206C20812143EFF700D30ED
:1014CF0007057F00121483AF0CAE0B22B4255FC249
:1014DF00D5C20412143EFF24D0B40A00501A75F07E
:1014EF000A780930D50508B6FF0106C6A426F620EE
:1014FF00D5047002D20380D924CFB41A00EF500460
:10150F00C2E5D204021775D20180C6D20080C0D2C4
:10151F000280BCD2D580BAD20580B47F201214725B
:10152F002002077401B5090040F112142FFF1214A5
:10153F00720214ACD208D206809512142FFB12142B
:10154F002FFA12142FF94A4B700679737A187BFF12
:10155F0020022EE509602A7E008E82758300120418
:10156F00F160060EEE650A70F0C2D5EBC0E0EAC07E
:10157F00E0E9C0E0EE1217D6D0E0F9D0E0FAD0E003
:10158F00FB1204D8FF60AAEBC0E0EAC0E0E9C0E0BC
:10159F00121472D0E02401F9D0E03400FAD0E0FB4D
:1015AF00E50A0460DCD50AD98087D20280A212171F
:1015BF00B860F7E50A70010412003EA90A600DE554
:1015CF000A600914F50A121860EF60F3EA30E702B7
:1015DF00F404C3995079EAF4250A0430E701E404CE
:1015EF00F50A800D1217B860C1EA050A250A120024
:1015FF003EEA9001AAF030E701E4250A04D50A0477
:10160F00200501141217D6E4C0E01218609001AA49
:10161F00E0601320E70714F012145A802204F0D070
:10162F00E014C0E07F0012145AE50A60071214514B
:10163F00150A800B300503121451D0E00214ACD000
:10164F00E00480C41217B8609EE50A0412003E90B1
:10165F0001AAEAF0E50A200502600104240412172A
:01166F00D6A4
:1016700074FF04C0E012186012145AE50A20050233
:101680006003121451D0E0B50AE87F45121464904B
:1016900001AAE07F2B30E7047F2DF404C0E0121490
:1016A00072D0E075F00A84C0F012145BD0E012141E
:1016B0005B0214AC791080027908C206C208800867
:1016C000D2D5790A8004790AC2D5E50A047002F5F8
:1016D0000AE4FAFDFEFF12142FFC7B08200113120E
:1016E000142FFD7B1030000A12142FFE12142FFF4E
:1016F0007B20EC3382D592D55013C3E43000069F93
:10170000FFE49EFEE42001039DFDE49CFCE4CBF895
:10171000C201EC700CCFCECDCCE824F8F870F38089
:1017200017C3EF33FFEE33FEED33FDEC33FCEB3349
:10173000FB994002FB0FD8E9EB300105F8D0E0C47B
:1017400048B201C0E00AEC4D4E4F78207B0070C2D9
:10175000EAB50A0040BCC0E01217D8D0F0D0E020B3
:101760000104C4C0E0C4B201C0F012145BD0F0D5D3
:10177000F0EB0214AC12081715495316B458151A99
:101780004C15164216B84F16C04416C049152F43C3
:1017900016C65515F34616534515BD4718935015F3
:1017A0001E2D15222E15452B152623154320187C9A
:1017B0002A14DE480000153DE50AB4FF03750A0649
:1017C00012142FFC12142FFD12142FFE12142FFFCF
:1017D0009001A302007B790AA2D5200314300509E9
:1017E000B910020404B9080104A2D5200602500170
:1017F000042002689202B509005034C0E07F203016
:1018000003197F30A20272067205500F12182FC200
:1018100002C206C205C2087F30800F300503E9C04E
:10182000E0121472300503D0E0F9D0E0B509CC30F5
:1018300005177F30B9100C1214727F583004077FDF
:10184000788003B908031214723002057F2D021448
:10185000727F202008F87F2B2006F322920280CF8F
:101860007F00B40700500B24A3F582E43401F58314
:10187000E0FF22286E756C6C2900D20112142F3003
:1018800001F8C201780930D50108F60214DE2D50A6
:1018900043495812142F2403B405004001E4901862
:1018A0008E93121463743A121463D20375090402FE
:0218B00016B46C
:10003E00F920E73624F950037907E4F42402FBE5AE
:10004E0082158270021583DBF6E024FB501BE960FB
:10005E0014E4F0E582158270021583E004F0B40A10
:0D006E0008E4F0D9EE7401F00A22C2D52298
:10007B00ED33EC3392D5FA602AB4FF33EDC2E77B54
:10008B00FF60067A0079A0E4227A0079A920D504D2
:10009B007A0079A4224E614E002B494E46002D4921
:1000AB004E4600E47A08F0A3DAFC7B00740722C00A
:1000BB0083C082ECC0E0EDC0E0EEC0E0EFC0E0EA50
:1000CB0075F010A4CAABF075F04DA42BFBE435F022
:1000DB00FCEA2410FAEB34C5FBEC34D9FCEDC2E797
:1000EB00FF75F056A4F42411C5F0F434C58FF0A4B9
:1000FB002AE5F03BE43CF020E71412044ED0E0FF7D
:10010B00D0E0FED0E0FDD0E0FC1203818014F404BB
:10011B0012044ED0E0FFD0E0FED0E0FDD0E0FC12A8
:10012B000278D082D083E0FAEDD2E7CD33EC3324E2
:10013B0082FBE4C3CF33CFCE33CECD33CD33DBF322
:10014B007B0775F00A846004F0A31B0AE5F0F0A3AB
:10015B008FF0740AA4FFACF08EF0740AA42CFEACE2
:10016B00F050010C8DF0740AA42CFDE435F0F0A3D3
:05017B00DBDE74072229
:100180000204C3E86480F8E933E83360110460F0E6
:10019000ED33EC337009E8FCE9FDEAFEEBFF2204E5
:1001A00060DED3EB9FEA9EE99DE8C2E78CF0C2F7E0
:1001B00095F0400CE8CCF8E9CDF9EACEFAEBCFFBAC
:1001C00012048E85D0F05804700320D5B3E8047073
:1001D000075002B2D50204CD92D5EC0460F7E4CC0E
:1001E000C0E0C398F8603B94186008400DD0E0FB75
:1001F0000204A5E4FBFAC9FC8028E830E406E4C95F
:10020000FBE4CAFCE830E305E4C9CACBFCE85407C8
:100210006010F8C3E913F9EA13FAEB13FBEC13FCD3
:10022000D8F130F52FC3E49CFCEF9BFFEE9AFEED76
:1002300099FDD0E0FBEF4E4D4C701222DB0302041F
:10024000CAEC2CFCEF33FFEE33FEED33FDED30E76F
:10025000EB0204A5EF2BFFEE3AFEED39FDD0E0FBFB
:1002600050130BBB00030204CDED13FDEE13FEEFA4
:0802700013FFEC13FC0204A5CE
:10027800EC4D6011E8497017ED33EC3304600DE480
:10028800FCFFFEFD22E933E8330470F80204C312D0
:10029800048E58046009E4CC2481500628500902D1
:1002A80004CD2840030204CAC0E0EB4A7044B98078
:1002B80006D0E0FB0204B9EF4E701CBD8008EBFFCE
:1002C800EAFEE9FD80EBE98DF0A4FEE5F0020361AA
:1002D800E9CDF9EAFEEBFFEF89F0A4FCE5F0CE8961
:1002E800F0A42EFFE435F0CD89F0A42DFEE435F01E
:1002F8008067EF4E7005BD80D780C3EF8BF0A4AC4C
:10030800F0EE8BF0A42CFCE435F0F8EF8AF0A42C86
:10031800E5F038FCE433CB8DF0A42CFCE5F03BF899
:10032800EE8AF0A42CFCE5F038F8E433CF89F0A489
:100338002CFCE5F038CF3400CE89F0A42FFFE5F08F
:100348003EFEE433C98DF0A42EFEE5F039CD8AF0E7
:10035800A42FFFE5F03EFEE43DFD33D0E0FB50075F
:100368000BBB000F0204CDEC2CFCEF33FFEE33FE89
:06037800ED33FD0204A5B7
:10037E000204CDEC5D046005E8590470030204C369
:10038E0012048E580460F6EC4860F2EC7004FDFE28
:10039E00FF22C860DB2481C85009C3986002500652
:1003AE000204CA9850CAF582E9294B4A7005AB82FD
:1003BE000204B975F0007C1A7880C3EF9BEE9AEDBB
:1003CE0099400DC3EF9BFFEE9AFEED99FDE842F0CA
:1003DE00DC23ACF0D0E0FFD0E0FED0E0FDAB82201D
:1003EE00E7101BEB60BAEC2CFCEF33FFEE33FEEDA7
:1003FE0033FD0204A5E803F830E705C0F075F00000
:10040E00EF2FFFEE33FEED33FD40B830E7C280AA8A
:10041E003F8000004120000042C80000447A0000E6
:10042E00461C400047C35000497424004B18968068
:10043E004CBEBC205A0E1BCA6753C21C749DC5AE5F
:10044E00FB60065407601C232312047CEB543860B7
:10045E0009120468120477120278ECF8EDF9EEFA3C
:10046E00EFCB22EB12047780F1543803241C900456
:10047E001EFE93FC0EEE93FD0EEE930ECE93FF2218
:10048E00E9D2E7C933E833F892D5EDD2E7CD33ECB4
:07049E0033FC5002B2D5222D
:1004A500EC30E7100FBF000C0EBE00080DBD0004B8
:1004B5000BEB6014A2D5EB13FCED92E7FD2274FF64
:1004C500FCFDFEFF22E480F8A2D574FF13FC7D80BD
:0304D500E480EFD1
:102A7A00023559E493A3F8E493A34003F68001F2E4
:102A8A0008DFF48029E493A3F85407240CC8C3335D
:102A9A00C4540F4420C8834004F456800146F6DF2C
:102AAA00E4800B0102040810204080902440E47E58
:102ABA00019360BCA3FF543F30E509541FFEE49321
:102ACA00A360010ECF54C025E060A840B8E493A3E8
:102ADA00FAE493A3F8E493A3C8C582C8CAC583CA13
:102AEA00F0A3C8C582C8CAC583CADFE9DEE780BECB
:0125A2000038
:1004D800BB010689828A83E0225002E722BBFE0222
:0904E800E32289828A83E4932255
:1004F100BB010CE58229F582E5833AF583E02250C0
:1005010006E92582F8E622BBFE06E92582F8E22209
:0D051100E58229F582E5833AF583E4932223
:10051E00BB010689828A83F0225002F722BBFE01BC
:02052E00F322B6
:10053000EF8DF0A4A8F0CF8CF0A428CE8DF0A42EDF
:02054000FE2299
:10054200BC000BBE0029EF8DF084FFADF022E4CC9D
:10055200F875F008EF2FFFEE33FEEC33FCEE9DEC66
:10056200984005FCEE9DFE0FD5F0E9E4CEFD22EDAC
:10057200F8F5F0EE8420D21CFEADF075F008EF2FF6
:10058200FFED33FD4007985006D5F0F222C398FDE7
:050592000FD5F0EA2284
:10059700C2D5EC30E709B2D5E4C39DFDE49CFCEE7F
:1005A70030E715B2D5E4C39FFFE49EFE120542C3B0
:1005B700E49DFDE49CFC800312054230D507C3E4AB
:0605C7009FFFE49EFE22EE
:1005CD00C5F0F8A3E028F0C5F0F8E58215827002B9
:0605DD001583E038F02256
:1005E300A3F8E0C5F025F0F0E582158270021583CB
:0605F300E0C838F0E82228
:1005F900BB010A89828A83E0F5F0A3E022500687CD
:10060900F009E71922BBFE07E3F5F009E31922898E
:0B061900828A83E493F5F074019322C1
:10062400BB0110E58229F582E5833AF583E0F5F014
:10063400A3E0225009E92582F886F008E622BBFEF1
:100644000AE92582F8E2F5F008E222E5832AF58337
:08065400E993F5F0A3E99322FC
:10065C00E88FF0A4CC8BF0A42CFCE98EF0A42CFC3D
:10066C008AF0EDA42CFCEA8EF0A4CDA8F08BF0A4BB
:10067C002DCC3825F0FDE98FF0A42CCD35F0FCEB1A
:10068C008EF0A4FEA9F0EB8FF0A4CFC5F02ECD39DF
:0F069C00FEE43CFCEAA42DCE35F0FDE43CFC224C
:1006AB0075F008758200EF2FFFEE33FECD33CDCC06
:1006BB0033CCC58233C5829BED9AEC99E582984089
:1006CB000CF582EE9BFEED9AFDEC99FC0FD5F0D666
:1006DB00E4CEFBE4CDFAE4CCF9A88222B800C1B990
:1006EB000059BA002DEC8BF084CFCECDFCE5F0CBCE
:1006FB00F97818EF2FFFEE33FEED33FDEC33FCEB07
:10070B0033FB10D703994004EB99FB0FD8E5E4F9C1
:10071B00FA227818EF2FFFEE33FEED33FDEC33FCAE
:10072B00C933C910D7059BE99A4007EC9BFCE99AA2
:10073B00F90FD8E0E4C9FAE4CCFB2275F010EF2FE7
:10074B00FFEE33FEED33FDCC33CCC833C810D707E7
:10075B009BEC9AE899400AED9BFDEC9AFCE899F822
:0E076B000FD5F0DAE4CDFBE4CCFAE4C8F922B5
:10077900EB9FF5F0EA9E42F0E99D42F0E89C45F0D6
:01078900224D
:10078A00BB010DE58229F582E5833AF58302084922
:10079A005007E92582F802083DBBFE07E92582F8E1
:1007AA00020855E58229F582E5833AF58302086154
:0C07BA00ECF0A3EDF0A3EEF0A3EFF022B2
:1007C600A8828583F0D083D0821207DD1207DD125E
:1007D60007DD1207DDE473E493A3C583C5F0C58383
:1007E600C8C582C8F0A3C583C5F0C583C8C582C87D
:0107F60022E0
:1007F700F8E0FBA3A3E0F925F0F0E582158270028B
:070807001583E0FA38F0222E
:09080E00EBF0A3EAF0A3E9F022EB
:10081700D083D082F8E4937012740193700DA3A370
:1008270093F8740193F5828883E473740293686084
:06083700EFA3A3A380DF84
:1035B000EFB40A07740D1235BB740A309811A8993C
:1035C000B8130CC2983098FDA899C298B811F6307B
:0735D00099FDC299F5992253
:0C083D00E6FC08E6FD08E6FE08E6FF22E7
:0C084900E0FCA3E0FDA3E0FEA3E0FF2222
:0C085500E2FC08E2FD08E2FE08E2FF22DF
:10086100E493FC740193FD740293FE740393FF22DD
:00000001FF
