:0342C4003078004F
:10402E0053B1BF53B2BF53B17F53B27F7598504354
:10403E008920438780438E1053C4DFAB07AA06A99D
:10404E0005A8047F407E427D0F7C00121DE8EF0420
:09405E00F404F58DD28ED29922F2
:0842BC00C2998F993099FD228F
:030037000242BCC6
:103F4C00AB07AA067C007D0A121C98C3EF940AEEFC
:103F5C00648094805005EF2430800E7C007D0AAF85
:103F6C0003AE02121C98EF2457FF1200377C007D21
:103F7C000AAF03AE02121C98C3ED940AEC64809451
:0F3F8C0080ED5004243080022457FF12003722AA
:10383C0090004DEEF0A3EFF07BFF7A4279C4122496
:10384C00C17F027E007D007C00123D4D90004DE05A
:10385C00FEA3E0FF7C007D10121C98C3EF940AEECF
:10386C00648094805005EF2430801290004DE0FE6F
:10387C00A3E0FF7C007D10121C98EF2457FF120070
:10388C003790004DE0FEA3E0FF7C007D10121C98E9
:10389C00C3ED940AEC64809480ED500424308002D3
:0738AC002457FF1200372230
:061F7200900012121EBBDC
:101F7800E4900016F0A3121EC700000000900012A3
:101F8800E0FCA3E0FDA3E0FEA3E0FF900017121E13
:101F9800BB7F201200377F7F7E967D987C00900063
:101FA80017E0F8A3E0F9A3E0FAA3E0FBD3121E7A46
:101FB800407A7B807A9679987800900017E0FCA3A5
:101FC800E0FDA3E0FEA3E0FF121DE8E47B0AFAF9B6
:101FD800F8D3121E7A7B807A967998780090001749
:101FE800E0FCA3E0FDA3E0FEA3E0FF4008121DE82B
:101FF800EF24308006121DE8EF2457FF12003790B7
:102008000017E0FCA3E0FDA3E0FEA3E0FF7B807ADD
:102018009679987800121DE8AC00AD01AE02AF03C6
:10202800900017121EBB9000167401F07F3F7E428D
:102038007D0F7C00900017E0F8A3E0F9A3E0FAA375
:10204800E0FBD3121E7A407C7B407A42790F7800FD
:10205800900017E0FCA3E0FDA3E0FEA3E0FF121D43
:10206800E8E47B0AFAF9F8D3121E7A7B407A4279BF
:102078000F7800900017E0FCA3E0FDA3E0FEA3E0CA
:10208800FF4008121DE8EF24308006121DE8EF24F7
:1020980057FF120037900017E0FCA3E0FDA3E0FE15
:1020A800A3E0FF7B407A42790F7800121DE8AC006C
:1020B800AD01AE02AF03900017121EBB900016745C
:1020C80001F0800B900016E060057F301200377F2A
:1020D8009F7E867D017C00900017E0F8A3E0F9A3BD
:1020E800E0FAA3E0FBD3121E7A50030221837BA0FF
:1020F8007A8679017800900017E0FCA3E0FDA3E060
:10210800FEA3E0FF121DE8E47B0AFAF9F8D3121ED9
:102118007A7BA07A864019097800900017E0FCA322
:10212800E0FDA3E0FEA3E0FF121DE8EF24308018D5
:1021380079017800900017E0FCA3E0FDA3E0FEA37E
:10214800E0FF121DE8EF2457FF120037900017E058
:10215800FCA3E0FDA3E0FEA3E0FF7BA07A86790163
:102168007800121DE8AC00AD01AE02AF0390001775
:10217800121EBB9000167401F0800B900016E060F0
:10218800057F30120037E47F0F7E27FDFC90001793
:10219800E0F8A3E0F9A3E0FAA3E0FBD3121E7A501B
:1021A80003022234E47B107A27F9F8900017E0FC48
:1021B800A3E0FDA3E0FEA3E0FF121DE8E47B0AFA1A
:1021C800F9F8D3121E7AE47B107A274017F89000AA
:1021D80017E0FCA3E0FDA3E0FEA3E0FF121DE8EF7B
:1021E80024308016F9F8900017E0FCA3E0FDA3E086
:1021F800FEA3E0FF121DE8EF2457FF1200379000FE
:1022080017E0FCA3E0FDA3E0FEA3E0FFE47B107A67
:1022180027F9F8121DE8AC00AD01AE02AF0390003B
:1022280017121EBB9000167401F0800B900016E088
:1022380060057F30120037E47FE77E03FDFC9000E5
:1022480017E0F8A3E0F9A3E0FAA3E0FBD3121E7AA3
:1022580050030222E5E47BE87A03F9F8900017E0DE
:10226800FCA3E0FDA3E0FEA3E0FF121DE8E47B0A67
:10227800FAF9F8D3121E7AE47BE87A034017F8904B
:102288000017E0FCA3E0FDA3E0FEA3E0FF121DE8B9
:10229800EF24308016F9F8900017E0FCA3E0FDA3C6
:1022A800E0FEA3E0FF121DE8EF2457FF120037906D
:1022B8000017E0FCA3E0FDA3E0FEA3E0FFE47BE859
:1022C8007A03F9F8121DE8AC00AD01AE02AF039035
:1022D8000017121EBB9000167401F0800B900016B8
:1022E800E060057F30120037E47F63FEFDFC90005C
:1022F80017E0F8A3E0F9A3E0FAA3E0FBD3121E7AF3
:102308005003022392E47B64FAF9F8900017E0FC8A
:10231800A3E0FDA3E0FEA3E0FF121DE8E47B0AFAB8
:10232800F9F8D3121E7AE47B644017F8900017E09E
:10233800FCA3E0FDA3E0FEA3E0FF121DE8EF2430BC
:102348008017FAF9F8900017E0FCA3E0FDA3E0FE7F
:10235800A3E0FF121DE8EF2457FF12003790001783
:10236800E0FCA3E0FDA3E0FEA3E0FFE47B64FAF950
:10237800F8121DE8AC00AD01AE02AF0390001712D1
:102388001EBB9000167401F0800B900016E06005EB
:102398007F30120037E47B0AFAF9F8900017E0FC66
:1023A800A3E0FDA3E0FEA3E0FF121DE8E47B0AFA28
:1023B800F9F8D3121E7AE44017F8900017E0FCA34E
:1023C800E0FDA3E0FEA3E0FF121DE8EF2430801932
:1023D8007B0AFAF9F8900017E0FCA3E0FDA3E0FE01
:1023E800A3E0FF121DE8EF2457FF120037E47B0A31
:1023F800FAF9F8900017E0FCA3E0FDA3E0FEA3E0E3
:10240800FF121DE8AC00AD01AE02AF03E47B0AFA8F
:10241800F9F8D3121E7AE44017F8900017E0FCA3ED
:10242800E0FDA3E0FEA3E0FF121DE8EB24308019D5
:102438007B0AFAF9F8900017E0FCA3E0FDA3E0FEA0
:0D244800A3E0FF121DE8EB2457FF12003740
:012455002264
:0B316900900012EBF0A3EAF0A3E9F0E5
:1031740090003D121EC700000000E4900041F0A33F
:10318400F0F9A3C9F0A3F0A3E9F0E4A3F0F9A3C90B
:10319400F0A3F0A3E9F0A37401F0A37400F0A37406
:1031A40015F0900012E0F9A3E0FAA3E0900047C9FB
:1031B400F0A3EAF0A3E9F0900047E0FBA3E0FAA350
:1031C400E0F9121BEB700302329A642560030232A9
:1031D40080900047A3E475F001121CCEA9F0FA1206
:1031E4001BEB24DB700302326E24E1602B24EC60C1
:1031F4005024F4602324EC60482415707290004A33
:10320400E0FBA3E475F002121CE4A9F0FA121CFA24
:10321400900046F0E0FF805490004AE0FBA3E47580
:10322400F001121CE4A9F0FA121BEBFF900041E438
:10323400F0A3EFF0900041A3E0FF7E00123F4C802A
:103244002E90004AE0FBA3E475F001121CE4A9F0FF
:10325400FA121BEBFF900041E4F0A3EFF090004161
:10326400E0FEA3E0FF12383C80057F251200379072
:103274000048E475F001121CCE0231BB900047E017
:10328400FBA3E475F001121CE4A9F0FA121BEBFF96
:063294001200370231BBFD
:01329A002211
:103EA9000D0A232323232323232323232323232308
:103EB9002323232323232323232323236D637520F0
:103EC900737461727423232323232323232323233A
:103ED90023232323232323232323232323232323A9
:103EE900232323000D0A697271207461736B2E2ECE
:023EF9002E0099
:044210004100B300B6
:103F9B0043B30153B4FE43B30253B4FD43B30453D1
:103FAB00B4FB43B10853B2F743B11053B2EF53AC68
:103FBB00FE43AD0143B30843B40843B31043B410FD
:103FCB007F007EC27D017C0012402E53E9FB43E94A
:0D3FDB002043EA0853EBF7439B02D2AF22CC
:1041F600C2B07FC87E007D007C00123D4DD2B07FEC
:0A420600C87E007D007C00023D4DE3
:10409800123F9B7BFF7A3E79A91231691241F612D1
:1040A80038B39000B3E060FA7BFF7A3E79ED1231C5
:0E40B80069123010E49000B3F0439B0280E4E4
:044214004100B1763E
:07429000124297D2937F0A4E
:0A429700E4FEEEC39F50030E80F812
:0142A10022FA
:10422700D2947F01124290C2947F07124297C293A1
:054237007F0102429727
:0C42B000C2947F02124290D29402429706
:023EFB00AD0711
:103EFD00E4FCEDA804088002C333D8FC30E704D2FB
:103F0D00948002C2947F03124297D2930F1242976C
:103F1D00C2930CECB408DB7F01124297D2947F035D
:103F2D00124297D293124297309407E49000B2F068
:0F3F3D0080069000B27401F0C2937F0302429796
:10000300E4FDD294FC7F01124297C2937F04124213
:1000130097D2937F02124297ED25E0FD3094010DB4
:100023007F021242970CECB408DBC2937F051242A5
:0300330097AF057F
:0100360022A7
:1041DA00EF7004C2948002D2947F08124297D2935D
:0C41EA007F0F124297C2937F0802429799
:073ACC00900014EDF0AC07BF
:103AD300124227AF04123EFB9000B2E07002802D29
:103AE300900014E0FF123EFB9000B2E07002801DD4
:103AF300E4900019F0900018E0FFA3E0C39F502268
:103B0300121BEBFF123EFB9000B2E070061242B0B4
:103B13007F0022740129F9E43AFA900019E004F0D5
:073B230080D31242B07F01C4
:013B2A002278
:08373500900013EFF0A3EDF08A
:10373D00124227900013E0FF123EFB9000B2E070A2
:10374D00028022900014E0FF123EFB9000B2E07068
:10375D00028012124227900013E004FF123EFB90EC
:10376D0000B2E070091242B0E4121C31FF22E49065
:10377D000019F0900018E014FFA3E0C39F501B1236
:10378D000003EF121C31E4FF1241DA740129F9E450
:10379D003AFA900019E004F080D9120003EF121CE0
:0B37AD00317F011241DA1242B07F01AF
:0137B80022EE
:0240C600AE0743
:1040C800E4900012F09000B1E0FFAD067B017A00A9
:1040D80079129000187401F0123735EF60069000DD
:0640E80012E0FF227F0040
:0140EE0022AF
:02423C00AE07CB
:10423E009000B1E0FFAD06900090E0900018F012F3
:02424E00373502
:01425000224B
:07419F00900012EDF0AE07E5
:1041A6009000B1E0FFAD067B017A0079129000180D
:0641B6007401F0123ACC86
:0141BC0022E0
:02425100AE07B6
:104253009000B1E0FFAD06900095E0900018F012D9
:024263003ACC53
:014265002236
:10003E000D0A4C54393631312072696E672043688F
:10004E006970204944203D20257820002025780025
:10005E000D0A4C54393631315F4D4950495F496E66
:10006E007075745F44696774613A206C7439363107
:10007E003120736574206D697069206C616E6573D3
:10008E00203D202564000D0A4C54393631315F4D28
:10009E004950495F496E7075745F44696774613A7F
:1000AE00206C743936313120736574206D69706936
:1000BE0020706F727473203D2031000D0A4C54393C
:1000CE003631315F4D4950495F496E7075745F44EA
:1000DE00696774613A206C743936313120736574F6
:1000EE00206D69706920706F7274203D2032000D92
:1000FE000A4C54393631312E6D6970695F6D6F64FB
:10010E0065203D20637369000D0A4C543936313138
:10011E002E6D6970695F6D6F6465203D2064736933
:10012E00000D0A766964656F20636865636B3A201B
:10013E004C54393631312E6D6970695F6D6F64655F
:10014E00203D20637369000D0A766964656F206334
:10015E006865636B3A204C54393631312E6D6970B7
:10016E00695F6D6F6465203D20647369000D0A4CF4
:10017E0054393631315F566964656F5F4368656324
:10018E006B3A20685F6163745F612C20685F616306
:10019E00745F622C20765F6163742C20765F7461CD
:1001AE006C3A20000D0A4C54393631315F56696471
:1001BE00656F5F436865636B3A206D6970695F7642
:1001CE006964656F5F666F726D61743A20257800A1
:1001DE000D0A566964656F5F436865636B203D2049
:1001EE00766964656F5F363430783438305F363018
:1001FE00487A20000D0A566964656F5F436865632F
:10020E006B203D20766964656F5F37323078343805
:10021E00305F3630487A20000D0A566964656F5F8C
:10022E00436865636B203D20766964656F5F373286
:10023E0030783537365F3530487A20000D0A5669EA
:10024E0064656F5F436865636B203D207669646506
:10025E006F5F31323830783732305F3630487A203F
:10026E00000D0A566964656F5F436865636B203DD8
:10027E0020766964656F5F31323830783732305F9F
:10028E003530487A20000D0A566964656F5F436801
:10029E0065636B203D20766964656F5F313238305F
:1002AE00783732305F3330487A20000D0A56696451
:1002BE00656F5F436865636B203D20766964656F8B
:1002CE005F3139323078313038305F3630487A200D
:1002DE00000D0A566964656F5F436865636B203D68
:1002EE0020766964656F5F3139323078313038305D
:1002FE005F3530487A20000D0A566964656F5F439A
:10030E006865636B203D20766964656F5F313932B5
:10031E003078313038305F3330487A20000D0A564D
:10032E006964656F5F436865636B203D2076696421
:10033E00656F5F3139323078313038305F32354861
:10034E007A20000D0A566964656F5F436865636BBA
:10035E00203D20766964656F5F31393230783130F7
:10036E0038305F3234487A20000D0A566964656F62
:10037E005F436865636B203D20766964656F5F330C
:10038E0038343078323136305F3330487A20000DD1
:10039E000A566964656F5F436865636B203D20761E
:1003AE006964656F5F3338343078323136305F329E
:1003BE0035487A20000D0A566964656F5F4368659B
:1003CE00636B203D20766964656F5F333834307817
:1003DE00323136305F3234487A20000D0A56696465
:1003EE00656F5F436865636B203D20766964656F5A
:1003FE005F383030783630305F3630487A20000D36
:10040E000A566964656F5F436865636B203D2076AD
:10041E006964656F5F31303234783736385F363025
:10042E00487A20000D0A566964656F5F43686563FC
:10043E006B203D20766964656F5F313238307837D6
:10044E0036385F3630487A20000D0A566964656F7B
:10045E005F436865636B203D20766964656F5F312D
:10046E0032383078313032345F3630487A20000DF1
:10047E000A566964656F5F436865636B203D20763D
:10048E006964656F5F3136303078313230305F36C7
:10049E0030487A20000D0A566964656F5F436865BF
:1004AE00636B203D20766964656F5F313638307836
:1004BE00313035305F3630487A20000D0A56696487
:1004CE00656F5F436865636B203D20766964656F79
:1004DE005F31333636783736385F3630487A20001B
:1004EE000D0A566964656F5F436865636B203D2036
:1004FE00766964656F5F37323078313038305F3609
:10050E0030487A20000D0A566964656F5F4368654E
:10051E00636B203D20766964656F5F3130383078CB
:10052E00313932305F3630487A20000D0A56696410
:10053E00656F5F436865636B203D20766964656F08
:10054E005F3338343078313038305F3630487A2087
:10055E00000D0A566964656F5F436865636B203DE5
:10056E0020766964656F5F31303234783630305FB3
:10057E003630487A20000D0A566964656F5F43680D
:10058E0065636B203D20766964656F5F313238306C
:10059E00783830305F3630487A20000D0A5669645C
:1005AE00656F5F436865636B203D20766964656F98
:1005BE005F353430783936305F3630487A20000D6A
:1005CE000A566964656F5F436865636B203D2076EC
:1005DE006964656F5F3235363078313630305F366C
:1005EE0030487A20000D0A566964656F5F4368656E
:1005FE00636B203D20766964656F5F3235363078E7
:10060E00313434305F3630487A20000D0A56696432
:10061E00656F5F436865636B203D20766964656F27
:10062E005F3235363078313038305F3630487A20A8
:10063E00000D0A566964656F5F436865636B203D04
:10064E0020756E6B6E6F776E20766964656F2066AF
:10065E006F726D617420000D0A20504F4C203D20AA
:10066E0025782C202578000D0A4C54393631315F0F
:10067E00504C4C3A2073657420727820706C6C204C
:10068E003D20000D0A4C54393631315F504C4C3AF6
:10069E00207063725F6D203D2025782C2068646D7C
:1006AE00695F706F73745F646976203D2025640006
:1006BE000D0A4C54393631315F504C4C3A20484477
:1006CE004D4920706C6C206C6F636B6564000D0A75
:1006DE004C54393631315F504C4C3A2048444D49D8
:1006EE0020706C6C20756E6C6F636B65642C207261
:1006FE006573657420706C6C000D0A4C543936317C
:10070E00315F4353433A2059706270722034323253
:10071E0020746F20524742383838000D0A417564F4
:10072E00696F20696E7574203D2049325320326303
:10073E0068000D0A417564696F20696E7574203DFD
:10074E00205350444946000D0A706F7274204120A8
:10075E006279746520636C6B203D20000D0A706F0A
:10076E0072742041206279746520636C6B20756E03
:10077E00737461626C65000D0A706F727420422092
:10078E006279746520636C6B203D20000D0A706FDA
:10079E0072742042206279746520636C6B20756ED2
:1007AE00737461626C65000D0A48746F74616C5FDE
:1007BE00537973636C6B203D20000D0A706F727459
:1007CE002041206C616E6520504E20697320726945
:1007DE00676874000D0A706F72742041206C616E30
:1007EE006520504E206572726F72203078383362F9
:1007FE0063203D202578000D0A706F727420412011
:10080E006C616E65203020736F7420726967687436
:10081E0020000D0A706F72742041206C616E65208D
:10082E003020736F74206572726F72203D202578B0
:10083E00000D0A706F72742041206C616E6520315C
:10084E0020736F7420726967687420000D0A706FD0
:10085E0072742041206C616E65203120736F74209C
:10086E006572726F72203D202578000D0A706F72CE
:10087E00742041206C616E65203220736F7420727B
:10088E006967687420000D0A706F72742041206CC5
:10089E00616E65203220736F74206572726F7220E4
:1008AE003D202578000D0A706F72742041206C6116
:1008BE006E65203320736F74207269676874200030
:1008CE000D0A706F72742041206C616E65203320AA
:1008DE00736F74206572726F72203D202578000D43
:1008EE000A706F72742041206C616E652030207327
:1008FE006574746C65203D202578000D0A706F724A
:10090E00742041206C616E65203120736574746CA7
:10091E0065203D202578000D0A706F7274204120ED
:10092E006C616E65203220736574746C65203D2099
:10093E002578000D0A706F72742041206C616E650F
:10094E00203320736574746C65203D202578000D6E
:10095E000A456E74657220495251205461736B3A88
:10096E00000D0A63656320726563656976656420B0
:10097E00646174613A200048444D49206469736390
:10098E006F6E6E65637465640048444D4920636FF5
:10099E006E6E6563746564006D6970692076696456
:1009AE00656F206368616E6765643A20000D0A7397
:1009BE00657420706978656C20636C6B203D200037
:1009CE000D0A2323232323232323232323234C54BE
:1009DE003936313120496E697469616C20456E6417
:1009EE0023232323232323232323232323232323C9
:1009FE002323000D0A4465746563742068706420B7
:100A0E0048696768000D0A446574656374206870F0
:100A1E0064204C6F770000080060002802800320DD
:100A2E0000210002000A01E0020D00000001010099
:100A3E000061A80010003E003C02D0035A000900DD
:100A4E0006001E01E0020D000000020100006978A0
:100A5E00000C0040005802D003600005000500277E
:100A6E0002400271000000110100006978006E0062
:100A7E002800DC0500067200050005001402D002F5
:100A8E00EE01010004020001220A01B8002800DC78
:100A9E00050007BC00050005001402D002EE01019E
:100AAE000013020001220A0058002C00940780084F
:100ABE0098000400050024043804650101001002AA
:100ACE00000244140210002C009407800A50000407
:100ADE0000050024043804650101001F02000244D1
:100AEE00140058002C00940780089800040005009C
:100AFE00240438046501010022020001220A0210BA
:100B0E00002C009407800A500004000500240438CD
:100B1E00046501010021020001220A027E002C0060
:100B2E009407800ABE000400050024043804650101
:100B3E00010020020001220A00B0005801280F0017
:100B4E0011300008000A0048087008CA0101005F51
:100B5E0002000488280420005801280F0014A00069
:100B6E0008000A0048087008CA0101005E0200046D
:100B7E00882804FC005801280F00157C0008000A84
:100B8E000048087008CA0101005D020004882800B0
:100B9E0030008000580320042000010004001702DA
:100BAE00580274010100000000009C4000180088EB
:100BBE0000A00400054000030006001D03000326EC
:100BCE0000000000000000FDE80040008000C005AD
:100BDE000006800003000700140300031E0001003E
:100BEE0000000001368C0030007000F805000698F9
:100BFE000001000300260400042A01010000000089
:100C0E0001A5E0004000C001300640087000010060
:100C1E0003002E04B004E20101000000000278D0AF
:100C2E00006800B00118069008C000030006001E00
:100C3E00041A0441000100000000023B4A06E000D5
:100C4E002800DC05000CE400050005001402D002AB
:100C5E00EE01010000000001220A003C003C00648D
:100C6E000400048200020005000A02580269010114
:100C7E00000000000084D00028002C002803200370
:100C8E009C000A0004000C0500051A01010000007A
:100C9E0000010C8E000E00380040055605DC0001E8
:100CAE000003001C030003200101000000000121CD
:100CBE00100030002000500A000AA00003000600B9
:100CCE00250640066E0101000000000418D4003015
:100CDE00002000500A000AA000030005002105A014
:100CEE0005C901010000000003AF5C00F8002C00F4
:100CFE00940A000AA000040005000B0438044C01FD
:100D0E00010000000003057000B0005801280F001C
:100D1E0011300004000500240438046501010000B0
:100D2E00000004882800040005002404380465002F
:100D3E0058002C0094078008980101000000000262
:100D4E00441400050005001402D002EE006E0028C7
:100D5E0000DC0500067201010000000001220A00FD
:100D6E001E000A001E021C0262000A000A000A038C
:0C0D7E00C003DE0101000000000082DC68
:0E4218004700840100000000000141007F000B
:103B2B007D807FFF12419F7D017FEE12419FE4FF5D
:103B3B001240C6900015EFF07BFF7A00793E1231F0
:103B4B00697F011240C6900015EFF07BFF7A007978
:103B5B005A1231697F021240C6900015EFF07BFFBD
:103B6B007A00795A1231697D817FFF12419F7D184E
:0C3B7B007F0112419F7D807FFF02419F6F
:10413A007D817FFF12419F7D487F0212419F7D80D2
:10414A007F2312419FE4FD7F3012419FE4FD7F01EE
:03415A0002419F80
:103A08007D827FFF12419F7D117F5112419F7D82F0
:103A18007FFF12419F7D697F1B12419F7D787F1C2C
:103A280012419F7D697FCB12419F7D787FCC1241E7
:103A38009F7D807FFF12419F7DF07F0412419F7D13
:103A4800F07F0612419F7D807F0A12419F7D467F4D
:103A58000B12419F7DEF7F0D12419F7DFA7F11026E
:023A6800419F7C
:103BE3007D817FFF12419F7D207F0612419F7D3F94
:103BF3007F0712419F7D3F7F0812419F7DFE7F0A11
:103C030012419F7DBF7F0B12419F7D207F11124187
:103C13009F7D3F7F1212419F7D3F7F1312419F7D06
:103C2300FE7F1512419F7DBF7F1612419F7D037F4B
:0B3C33001C12419F7D037F2002419F77
:10358700900085E0900000F07BFF7A00795E900064
:1035970015F01231697D827FFF12419F7D807F4F39
:1035A70012419F7D107F5012419F7D837FFF124103
:1035B7009F900000E0FDE4FF12419F7D047F02120F
:1035C700419F7D047F0612419F30900FE4FD7F0AE3
:1035D70012419F7BFF7A007994800D7D037F0A1249
:1035E700419F7BFF7A0079C9123169900086E07BA1
:1035F700FFB4011C7A0079FD1231697D837FFF12C8
:10360700419F7D107F0812419F7D407F2C02419F83
:073617007A017916123169F6
:01361E002289
:100D8A00E4900005F07D827FFF12419F7F8612402A
:100D9A00C6900010E4F0A3EFF07F871240C6EFFD83
:100DAA007C00900011E0FEE42DFFEC3E900010F074
:100DBA00A3EFF07F821240C690000CE4F0A3EFF09C
:100DCA007F831240C6EFFD7C0090000DE0FEE42D0B
:100DDA00FFEC3E90000CF0A3EFF07F6C1240C6903F
:100DEA00000EE4F0A3EFF07F6D1240C6EFFD7C0029
:100DFA0090000FE0FEE42DFFEC3E90000EF0A3EF12
:100E0A00F07D837FFF12419F7F821240C6900008C7
:100E1A00E4F0A3EFF07F831240C6EFFD7C00900060
:100E2A0009E0FEE42DFFEC3E900008F0A3EFF07F0E
:100E3A00861240C690000AE4F0A3EFF07F871240C2
:100E4A00C6EFFD7C0090000BE0FEE42DFFEC3E9027
:100E5A00000AF0A3EFF0900086E07BFFB4011D7A50
:100E6A0001792F123169900008E0C313F0A3E0134F
:100E7A00F0A3E0C313F0A3E013F080337A017955AD
:100E8A00123169900008E0FEA3E0FF7C007D0312A6
:100E9A001C43900008EEF0A3EFF0A3E0FEA3E0FFEE
:100EAA007C007D03121C4390000AEEF0A3EFF07F52
:100EBA00881240C6900005EFF07BFF7A01797B1219
:100ECA003169900008E0FEA3E0FFE4FCFD121F7206
:100EDA0090000AE0FEA3E0FFE4FCFD121F729000FE
:100EEA000CE0FEA3E0FFE4FCFD121F7290000EE08E
:100EFA00FEA3E0FFE4FCFD121F727BFF7A0179B2C8
:100F0A00900005E0900015F01231692090189000C9
:100F1A000AE0FEA3E0FF900009E02FFF900008E03E
:100F2A003E900006800B900008E0FFA3E0900006C8
:100F3A00CFF0A3EFF0900A2AE493FE740193FF9096
:100F4A000006E0B50638A3E0B50733900A34E49307
:100F5A00FE740193FF90000CE0B50622A3E0B507EA
:100F6A001D7BFF7A0179DE123169E490008BF090E3
:100F7A00008174FFF0A3740AF0A37424F022900A8B
:100F8A0047E493FE740193FF900006E0B50639A387
:100F9A00E0B50734900A51E493FE740193FF900080
:100FAA000CE0B50623A3E0B5071E7BFF7A0279029F
:100FBA0012316990008B7401F090008174FFF0A3E4
:100FCA00740AF0A37441F022900A64E493FE740157
:100FDA0093FF900006E0B50633A3E0B5072E900A0A
:100FEA006EE493FE740193FF90000CE0B5061DA316
:100FFA00E0B507187BFF7A027926123169900081E1
:10100A0074FFF0A3740AF0A3745EF022900A81E4DC
:10101A0093FE740193FF900006E06E7003A3E06FE5
:10102A0060030210D1900A8B93FE740193FF900023
:10103A000CE06E7003A3E06F60030210D1C390004E
:10104A0011E09476900010E09402501E7BFF7A0221
:10105A00794A12316990008B7402F090008174FF12
:10106A00F0A3740AF0A3747BF022C3900011E094F9
:10107A00EE900010E09402501E7BFF7A02796F1204
:10108A00316990008B740AF090008174FFF0A374A8
:10109A000AF0A37498F022C3900011E094CE900055
:1010AA0010E0940440030217507BFF7A02799412ED
:1010BA00316990008B740BF090008174FFF0A37477
:1010CA000CF0A3744BF022900ABBE493FE740193D4
:1010DA00FF900006E06E7003A3E06F60030211E662
:1010EA00900AC593FE740193FF90000CE06E7003A2
:1010FA00A3E06F60030211E6C3900011E094AE9082
:10110A000010E09401501E7BFF7A0279B91231690E
:10111A0090008B7403F090008174FFF0A3740AF0BE
:10112A00A374B5F022C3900011E094FE900010E081
:10113A009401501E7BFF7A0279DF12316990008B8D
:10114A007419F090008174FFF0A3740AF0A374D2AA
:10115A00F022C3900011E0943E900010E0940350F6
:10116A001E7BFF7A03790512316990008B741AF09D
:10117A0090008174FFF0A3740AF0A374EFF022C305
:10118A00900011E094D4900010E09403501E7BFF6D
:10119A007A03792B12316990008B741BF0900081CD
:1011AA0074FFF0A3740BF0A3740CF022C390001127
:1011BA00E09406900010E0940440030217507BFF6D
:1011CA007A03795112316990008B741CF090008176
:1011DA0074FFF0A3740BF0A37429F022900B4CE473
:1011EA0093FE740193FF900006E06E7003A3E06F14
:1011FA0060030212A1900B5693FE740193FF9000B4
:10120A000CE06E7003A3E06F60030212A1C39000AA
:10121A0011E094AE900010E09401501E7BFF7A0317
:10122A00797712316990008B740CF090008174FF09
:10123A00F0A3740BF0A37446F022C3900011E0945B
:10124A00EA900010E09401501E7BFF7A03799D1208
:10125A00316990008B740DF090008174FFF0A374D3
:10126A000BF0A37463F022C3900011E0940890007D
:10127A0010E0940240030217507BFF7A0379C312ED
:10128A00316990008B740EF090008174FFF0A374A2
:10129A000BF0A37480F022900BA3E493FE740193E5
:1012AA00FF900006E0B50639A3E0B50734900BAD10
:1012BA00E493FE740193FF90000CE0B50623A3E0CB
:1012CA00B5071E7BFF7A0379E912316990008B74A6
:1012DA001DF090008174FFF0A3740BF0A3749DF0CD
:1012EA0022900BC0E493FE740193FF900006E0B5D0
:1012FA000639A3E0B50734900BCAE493FE74019350
:10130A00FF90000CE0B50623A3E0B5071E7BFF7A29
:10131A0004790D12316990008B741DF0900081746C
:10132A00FFF0A3740BF0A374BAF022900BDDE493E0
:10133A00FE740193FF900006E0B50639A3E0B507F5
:10134A0034900BE7E493FE740193FF90000CE0B530
:10135A000623A3E0B5071E7BFF7A047932123169AE
:10136A0090008B741DF090008174FFF0A3740BF051
:10137A00A374D7F022900BFAE493FE740193FF90C2
:10138A000006E0B50639A3E0B50734900C04E493EF
:10139A00FE740193FF90000CE0B50623A3E0B507A5
:1013AA001E7BFF7A04795712316990008B741DF005
:1013BA0090008174FFF0A3740BF0A374F4F02290F0
:1013CA000C17E493FE740193FF900006E0B506390A
:1013DA00A3E0B50734900C21E493FE740193FF90C7
:1013EA00000CE0B50623A3E0B5071E7BFF7A04795B
:1013FA007D12316990008B741DF090008174FFF0AA
:10140A00A3740CF0A37411F022900C34E493FE74CC
:10141A000193FF900006E0B50639A3E0B5073490C2
:10142A000C3EE493FE740193FF90000CE0B5062392
:10143A00A3E0B5071E7BFF7A0479A31231699000F5
:10144A008B741DF090008174FFF0A3740CF0A374E8
:10145A002EF022900CA8E493FE740193FF900006EC
:10146A00E0B50639A3E0B50734900CB2E493FE74F4
:10147A000193FF90000CE0B50623A3E0B5071E7B9D
:10148A00FF7A0479C912316990008B7415F09000C3
:10149A008174FFF0A3740CF0A374A2F022900D568D
:1014AA00E493FE740193FF900006E0B50639A3E0C9
:1014BA00B50734900D60E493FE740193FF90000C1D
:1014CA00E0B50623A3E0B5071E7BFF7A0479EE1286
:1014DA00316990008B7412F090008174FFF0A3744C
:1014EA000DF0A37450F022900D39E493FE74019329
:1014FA00FF900006E0B50639A3E0B50734900D4326
:10150A00E493FE740193FF90000CE0B50623A3E078
:10151A00B5071E7BFF7A05791312316990008B7427
:10152A0011F090008174FFF0A3740DF0A37433F0EE
:10153A0022900D1CE493FE740193FF900006E0B51F
:10154A000639A3E0B50734900D26E493FE7401939F
:10155A00FF90000CE0B50623A3E0B5071E7BFF7AD7
:10156A0005793912316990008B740FF090008174FB
:10157A00FFF0A3740DF0A37416F022900C6EE4939E
:10158A00FE740193FF900006E0B50639A3E0B507A3
:10159A0034900C78E493FE740193FF90000CE0B54C
:1015AA000623A3E0B5071E7BFF7A05795F1231692E
:1015BA0090008B7410F090008174FFF0A3740CF00B
:1015CA00A37468F022900C8BE493FE740193FF904D
:1015DA000006E0B50639A3E0B50734900C95E4930C
:1015EA00FE740193FF90000CE0B50623A3E0B50753
:1015FA001E7BFF7A05798412316990008B7413F08F
:10160A0090008174FFF0A3740CF0A37485F022900B
:10161A000D73E493FE740193FF900006E0B506395A
:10162A00A3E0B50734900D7DE493FE740193FF9017
:10163A00000CE0B50623A3E0B5071E7BFF7A057907
:10164A00A912316990008B7414F090008174FFF034
:10165A00A3740DF0A3746DF022900CC5E493FE748C
:10166A000193FF900006E0B50639A3E0B507349070
:10167A000CCFE493FE740193FF90000CE0B50623AF
:10168A00A3E0B5071E7BFF7A0579CD123169900078
:10169A008B7416F090008174FFF0A3740CF0A3749D
:1016AA00BFF022900CE2E493FE740193FF900006CF
:1016BA00E0B50639A3E0B50734900CECE493FE7468
:1016CA000193FF90000CE0B50623A3E0B5071E7B4B
:1016DA00FF7A0579F312316990008B7417F0900044
:1016EA008174FFF0A3740CF0A374DCF022900CFF59
:1016FA00E493FE740193FF900006E0B50639A3E077
:10170A00B50734900D09E493FE740193FF90000C21
:10171A00E0B50623A3E0B5071E7BFF7A0679191206
:10172A00316990008B7418F090008174FFF0A374F3
:10173A000CF0A374F9F02290008B741DF07BFF7AF1
:06174A0006793F1231692F
:011750002276
:102B4800900006EBF0A3EAF0A3E9F07D837FFF1283
:102B5800419F900006E0FBA3E0FAA3E0F990001281
:102B6800121D25E5F0FD7F0D12419F900006E0FB48
:102B7800A3E0FAA3E0F9900012121D25FD7F0E12C2
:102B8800419F900006E0FBA3E0FAA3E0F990001053
:102B9800121D25E5F0FD7F0F12419F900006E0FB16
:102BA800A3E0FAA3E0F9900010121D25FD7F101292
:102BB800419F900006E0FBA3E0FAA3E0F99000082B
:102BC800121D25E5F0FD7F1112419F900006E0FBE4
:102BD800A3E0FAA3E0F9900008121D25FD7F121268
:102BE800419F900006E0FBA3E0FAA3E0F9900006FD
:102BF800121D25E5F0FD7F1312419F900006E0FBB2
:102C0800A3E0FAA3E0F9900006121D25FD7F141237
:102C1800419F900006E0FBA3E0FAA3E0F990000CC6
:102C2800121D25FD7F1512419F900006E0FBA3E0D1
:102C3800FAA3E0F9900002121D25FD7F1612419FAC
:102C4800900006E0FBA3E0FAA3E0F990000A121D49
:102C580025FD7F1712419F900006E0FBA3E0FAA331
:102C6800E0F990000E121D25FFAEF090000C121D29
:102C7800252FFFE5F03EAD077F1812419F90000613
:102C8800E0FBA3E0FAA3E0F9121CFAFD7F19124158
:102C98009F900006E0FBA3E0FAA3E0F9900004127D
:102CA8001D25FFAEF0900002121D252FE5F03EFD18
:102CB800121CFAE5F0C4F8540FC868FFEF2DFD7F29
:102CC8001A12419F900006E0FBA3E0FAA3E0F990F6
:102CD8000004121D25FFAEF0900002121D252FFFE3
:0A2CE800E5F03EAD077F1B02419F9F
:0B329B00900081E0FBA3E0FAA3E0F943
:1032A600900014121C0425E0FF900015121C042F38
:1032B600900005F0F4F05403F07BFF7A06796590F0
:1032C6000015F0A3F01231697D837FFF12419F7DC7
:1032D600017F0B12419F7D107F0C12419FE4FD7F01
:1032E6004812419F7D817F4912419F7D4A7F21126D
:1032F600419F7D717F2412419F7D307F2512419F22
:103306007D017F2A12419F7D407F4A12419F900096
:1033160005E04410FD7F1D12419F90008BE024F4D0
:1033260024FC500E604B24FC604724FE24FD500212
:10333600805B2090587D037F0B12419F7DD07F0CD0
:1033460012419F7D037F4812419F7DB07F49124104
:103356009F7D727F2412419FE4FD7F2512419F7D50
:10336600017F2A12419F7D107F4A12419F7D108066
:10337600177D707F2412419F7D807F2512419F7D9E
:10338600107F2A12419F7DF07F1D12419F90008180
:10339600E0FBA3E0FAA3E0F9122B487D837FFF123E
:1033A600419F900080E0FD7F2612419F7D807FFF38
:1033B60012419F7D5A7F1112419F7DFA7F11024172
:0133C6009F67
:0B28D900900081E0FBA3E0FAA3E0F90F
:1028E400900019121E8B900005121EBB7BFF7A0606
:1028F4007975123169900005E0FCA3E0FDA3E0FEC8
:10290400A3E0FF121F727D817FFF12419F7D407FF4
:102914002312419F7D627F2412419F7D807F251277
:10292400419F7D557F2612419F7D377F2C12419F09
:102934007D017F2F12419F7D557F2612419F7D6629
:102944007F2712419F7D887F2812419F7FF07E4917
:102954007D027C00900005E0F8A3E0F9A3E0FAA36F
:10296400E0FBD3121E7A400F7D887F2D12419F9089
:1029740000097401F080387F707E117D017C009025
:102984000005E0F8A3E0F9A3E0FAA3E0FBD3121EEC
:102994007A400F7D997F2D12419F9000097402F0B7
:1029A400800D7DAA7F2D12419F9000097404F0E4EC
:1029B4007F05FEFDFC900005E0F8A3E0F9A3E0FA32
:1029C400A3E0FB121D5DA804A905AA06AB079000AD
:1029D40009E0FFE4FCFDFE121D5DE47B787A69F9F1
:1029E400F8121DE8900080EFF07BFF7A067991E001
:1029F400900015F0900009E0900016F01231697D06
:102A0400837FFF12419F7D407F2D12419F7D087F70
:102A14003112419F900080E04480FD7F2612419F47
:102A2400900005E0FCA3E0FDA3E0FEA3E0FFE47B4F
:102A340002FAF9F8121DE8900005121EBB7D827F90
:102A4400FF12419FE4FBFA7901F8900005E0FCA332
:102A5400E0FDA3E0FEA3E0FF121DE8AD077FE31253
:102A6400419F900005A3A3E0FEA3E0FFE4FDFC90DA
:102A74000005121EBBE4FB7A01F9F8900005E0FCA6
:102A8400A3E0FDA3E0FEA3E0FF121DE8AD077FE491
:102A940012419F900005E0FCA3A3E0FEA3E0FFE445
:102AA400AD077FE512419F7D207FDE12419F7DE0CF
:102AB4007FDE12419F7D807FFF12419F7DF17F1653
:102AC40012419F7DF37F1612419FE490000AF07D2E
:102AD400807FFF12419F7DE37F1612419F7DF37F2C
:102AE4001612419F7D827FFF12419F7F151240C6BF
:102AF400EF30E7097BFF7A0679BE0231697D807F7A
:102B0400FF12419F7D5A7F1112419F7DFA7F11125E
:102B1400419F7DDC7F1812419F7DFC7F1812419FED
:102B24007DF17F1612419F7DF37F1612419F7BFF3B
:102B34007A0679DC12316990000AE004F0E0C3946B
:032B440006408CBC
:012B4700226B
:103929007D817FFF12419F7D6A7F3012419F900008
:1039390089E070047D7380027D447F3112419F7D4F
:103949004A7F3212419F7D0B7F3312419FE4FD7FF5
:103959003412419FE4FD7F3512419FE4FD7F361209
:10396900419F7D447F3712419F7D0F7F3F12419FC9
:103979007DA07F4012419F7DA07F4112419F7DA084
:103989007F4212419F7DA07F4312419F7D0A7F4460
:0339990002419F49
:103A6A007D817FFF12419F7D407F2312419F7D828E
:103A7A007FFF12419F7D207FDE12419F7DE07FDE26
:103A8A0012419F7D807FFF12419F7DDC7F1812418A
:103A9A009F7DFC7F1812419F7DF17F1612419F7D09
:103AAA00F37F1612419F7D5A7F1112419F7DFA7F43
:103ABA001112419F7D817FFF12419F7DEA7F300273
:023ACA00419F1A
:104266007D817FFF12419FE4FD7F3012419F7D805B
:054276007F2302419FBF
:0B37B900900081E0FBA3E0FAA3E0F920
:1037C400900016121D25FF900018121C04C454F01A
:1037D4002408FE900006F0A3EFF0FDEE2DFFE43385
:1037E400FEC3EF945FEE64809480900006E0FFC314
:1037F400745F9FFFA3E0FEC3EF9E900005F07D84FD
:103804007FFF12419F900005E0FD7F4312419F908E
:103814000006E0FD7F4512419F900007E0FD7F47D1
:1038240012419F7D847FFF12419F7D027F101241D0
:083834009F7D647F1202419F99
:10418000900086E0B401177D827FFF12419F7D1869
:0F4190007FB912419F7BFF7A07790712316922AD
:1036AB00900088E070417BFF7A0779291231697DA0
:1036BB00827FFF12419F7D837FD612419F7D047FC6
:1036CB00D712419F7D847FFF12419F7D087F061299
:1036DB00419F7D107F0712419F7D297F0F12419FD4
:1036EB007DD47F3412419F900088E06401703A7B57
:1036FB00FF7A0779401231697D827FFF12419F7DEE
:10370B008E7FD612419F7D047FD712419F7D847F90
:10371B00FF12419F7D0C7F0612419F7D107F071288
:0A372B00419F7DD47F3412419F229C
:103FE8007D827FFF12419F7D0A7F5812419F7D800D
:103FF8007F5912419F7DF77F9E12419F7DFEE4FF0E
:1040080012419F7D3F7F0312419F7DFF7F04124134
:104018009F7DFE7F0412419F7DFF7F0712419F7D98
:064028003F7F0702419FEB
:01003A0022A3
:1041BD007D827FFF12419F7F5E1240C6EF30E20786
:0D41CD0090007F7401F022E490007FF0224A
:10415D007D857FFF12419F7D1F7F0712419F7DFE51
:10416D007F1312419F7D0F7F1712419F7D057F1594
:03417D0002419F5D
:104067007D807FFF12419F7D7F7F1412419F7DFFDF
:104077007F1412419F7D857FFF12419F7D017F1530
:1040870012419F7D717F1512419F7D657F1502410A
:014097009F89
:0E42A2007D857FFF12419F7D457F1502419F64
:103E5600EF7D807FFF604112419F7DFF7F0D124104
:103E66009F7DF97F1512419F7D867FFF12419FE45A
:103E7600FD7FFA12419F7DA57FFE12419F7D827FC5
:103E8600FF12419F7D7F7F0112419F7DFF7F0512BB
:103E9600419F7D7F7F05800712419F7DF17F15122F
:033EA600419F2217
:0142C70022D4
:0142C80022D3
:102CF200900001121EC7000000007D827FFF12417A
:102D02009F7D037FC712419F7F327E007D007C0042
:102D1200123D4D7FCD1240C6900000EFF05460642A
:102D2200606003022DB9E0540FFFE4FCFDFEFBFAE4
:102D32007901F8121D5D900001121EBB7FCE124078
:102D4200C6900000EFF0A3E0F8A3E0F9A3E0FAA335
:102D5200E0FB900000E07F00FEE4FCFDEF2BFFEAC9
:102D62003EFEED39FDEC38FCA3121EBB7FCF1240B4
:102D7200C6900000EFF0A3E0F8A3E0F9A3E0FAA305
:102D8200E0FB900000E0FFE4FCFDFEEB2FFFEE3ADB
:102D9200FEED39FDEC38FCA3121EBB7BFF7A0779EE
:102DA20055123169900001E0FCA3E0FDA3E0FEA30F
:102DB200E0FF121F7280097BFF7A07796A1231697C
:102DC2007D827FFF12419F7D047FC712419F7F3228
:102DD2007E007D007C00123D4D7FCD1240C69000EA
:102DE20000EFF0546064606003022E7DE0540FFF38
:102DF200E4FCFDFEFBFA7901F8121D5D9000011260
:102E02001EBB7FCE1240C6900000EFF0A3E0F8A3F5
:102E1200E0F9A3E0FAA3E0FB900000E07F00FEE40B
:102E2200FCFDEF2BFFEA3EFEED39FDEC38FCA31270
:102E32001EBB7FCF1240C6900000EFF0A3E0F8A3C4
:102E4200E0F9A3E0FAA3E0FB900000E0FFE4FCFD60
:102E5200FEEB2FFFEE3AFEED39FDEC38FCA3121E1D
:102E6200BB7BFF7A077985123169900001E0FCA3F0
:102E7200E0FDA3E0FEA3E0FF021F727BFF7A077969
:042E82009A12316906
:012E86002229
:103DFF00E4900002F07D827FFF12419F7F86124088
:103E0F00C6900000E4F0A3EFF07F871240C6EFFDED
:103E1F007C00900001E0FEE42DFFEC3E900000F0EE
:103E2F00A3EFF07BFF7A0779B5123169900000E0BC
:103E3F00FEA3E0FFE4FCFD121F72900002E004F00D
:063E4F00E0C3940A40AF3D
:013E5500224A
:0142C90022D2
:1033C7007D837FFF12419F7FBC1240C6900000EFB4
:1033D700F07BFFBF55067A0779C8800C7A0779E238
:1033E700900000E0900015F01231697F991240C6F5
:1033F700900000EFF07BFFBFB8067A087905800CD4
:103407007A087920900000E0900015F01231697F6A
:103417009B1240C6900000EFF07BFFBFB8067A080A
:10342700793F800C7A08795A900000E0900015F0F7
:103437001231697F9D1240C6900000EFF07BFFBFFD
:10344700B8067A087979800C7A087994900000E0B8
:10345700900015F01231697F9F1240C6900000EF6F
:10346700F07BFFBFB8067A0879B3800C7A0879CE6B
:10347700900000E0900015F01231697F9A1240C663
:10348700900015EFF07BFF7A0879ED1231697F9C88
:103497001240C6900015EFF07BFF7A0979091231C7
:1034A700697F9E1240C6900015EFF07BFF7A09797D
:1034B700251231697FA01240C6900015EFF07BFFFF
:0734C7007A09794102316925
:103010007BFF7A09795D1231697D827FFF12419FC2
:103020007F0C1240C6900001EFF07F0D1240C69059
:103030000002EFF07F0F1240C6900000EFF090000A
:1030400002E030E7647D867FFF12419F7FD212400D
:10305000C6EF30E13F7BFF7A09796F1231697FD388
:103060001240C6900003EFF0E4A3F0900003E0FFED
:10307000A3E0FEC39F501DEE24D3FF1240C6900074
:1030800015EFF07BFF7A00795A123169900004E065
:1030900004F080D77D827FFF12419F7DFF7F051264
:1030A000419F7D7F7F0512419F900000E054C0FF4B
:1030B000BFC0181241BD7D827FFF12419F7DFF7FFF
:1030C0000712419F7D3F7F0712419F900000E03033
:1030D000E7217BFF7A0979851231691242667D8288
:1030E0007FFF12419F7DBF7F0712419F7D3F7F077A
:1030F00012419F900000E030E6217BFF7A0979972A
:10310000123169123A6A7D827FFF12419F7D7F7F73
:103110000712419F7D3F7F0712419F900001E030E1
:10312000E0467BFF7A0979A61231697D827FFF1222
:10313000419F7DFF7F9E12419F7DF77F9E12419FA1
:103140007DFF7F0412419F7DFE7F0412419F7F64BB
:103150007E007D007C00123D4D120D8A1228D9128E
:08316000329B1237B9123A6AE2
:013168002244
:102E87009000AEEBF0A3EAF0A3E9F07D827FFF129A
:102E9700419F9000AEE0FBA3E0FAA3E0F9900004A5
:102EA700121D25FFAEF0900002121D252FE5F03E02
:102EB700FD7FA312419F9000AEE0FBA3E0FAA3E0E1
:102EC700F9900004121D25FFAEF0900002121D2597
:102ED7002FFFE5F03EAD077FA412419F9000AEE0C3
:102EE700FBA3E0FAA3E0F990000E121D25FFAEF058
:102EF70090000C121D252FFFE5F03EAD077FA512B0
:102F0700419F9000AEE0FBA3E0FAA3E0F990000632
:102F1700121D25E5F0FD7FA612419F9000AEE0FB54
:102F2700A3E0FAA3E0F9900006121D25FD7FA71282
:102F3700419F9000AEE0FBA3E0FAA3E0F9900010F8
:102F4700121D25E5F0FD7FA812419F9000AEE0FB22
:102F5700A3E0FAA3E0F9900010121D25FD7FA91246
:102F6700419F9000AEE0FBA3E0FAA3E0F9900008D0
:102F7700121D25E5F0FD7FAA12419F9000AEE0FBF0
:102F8700A3E0FAA3E0F9900008121D25FD7FAB121C
:102F9700419F9000AEE0FBA3E0FAA3E0F990001296
:102FA700121D25E5F0FD7FAC12419F9000AEE0FBBE
:102FB700A3E0FAA3E0F9900012121D25FD7FAD12E0
:102FC700419F9000AEE0FBA3E0FAA3E0F990000276
:102FD700121D25E5F0FD7FAE12419F9000AEE0FB8C
:102FE700A3E0FAA3E0F9900002121D25FD7FAF12BE
:102FF700419F9000AEE0FBA3E0FAA3E0F990000C3C
:09300700121D25FD7FB002419F5E
:1034CE00900019121E8B900096121EBB7BFF7A097C
:1034DE0079BB123169900096E0FCA3E0FDA3E0FEFB
:1034EE00A3E0FF121F727D837FFF12419F7D507FED
:1034FE002D12419F7F287E887D047C00900096E0EF
:10350E00F8A3E0F9A3E0FAA3E0FBC3121E7A700E53
:10351E007DB67F2612419F7DF07F2712419F7F143B
:10352E007E447D027C00900096E0F8A3E0F9A3E0D3
:10353E00FAA3E0FBC3121E7A70077DB77F261241F5
:10354E009F7F0A7E227D017C00900096E0F8A3E02A
:10355E00F9A3E0FAA3E0FBC3121E7A70077D9C7FED
:10356E002612419F7D807FFF12419F7D5A7F11124F
:09357E00419F7DFA7F1102419F7B
:10427B007D827FFF12419F7D807F4F12419F7D206A
:05428B007F5002419F7D
:10399C0090008174FFF0A3740AF0A374B5F0123B8D
:1039AC002B123A0812427B1228D9900081E0FBA31B
:1039BC00E0FAA3E0F9122E871237B9123929123A1C
:1039CC006A1242C97D827FFF12419F7D8C7FD61285
:1039DC00419F7D067FD712419F7D847FFF12419FBF
:1039EC007D0C7F0612419F7D107F0712419F7D0148
:0C39FC007F1612419F7DD47F3402419F52
:1038B300123B2B123A08123BE31235877FE87E0353
:1038C3007D007C00123D4D120D8A1228D912329BC5
:1038D3001236AB12418012415D1237B912392912E7
:1038E3003FE87F01123E567BFF7A0979CE12316998
:1038F3001241BD90007FE07BFF60127A0A790112CA
:10390300316912003A123A6A124067800D7A0A79D5
:10391300131231691242A2124266122CF21233C7F9
:06392300123DFF0242C943
:03003B0002411669
:10411600C0E0C083C082C0D0E5ECB4080575EC00F1
:10412600C2899000B37401F0539BFDD0D0D082D0E9
:0441360083D0E03220
:0300000002361FA6
:0C361F00787FE4F6D8FD75812102366644
:103CF40090009A121EBB538EF7438901D28CE4FFC5
:103D0400FEFDFC90009AE0F8A3E0F9A3E0FAA3E03A
:103D1400FBC3121E7A602F758A7E758CFF308DFD71
:103D2400C28D90009AE0FCA3E0FDA3E0FEA3E02492
:103D3400FFFFEE34FFFEED34FFFDEC34FFFC90009A
:093D44009A121EBB80B8C28C2249
:103D4D0090004F121EBB538EF7438901D28CE4FFB6
:103D5D00FEFDFC90004FE0F8A3E0F9A3E0FAA3E02C
:103D6D00FBC3121E7A602F758ACA758CFA308DFDD1
:103D7D00C28D90004FE0FCA3E0FDA3E0FEA3E02484
:103D8D00FFFFEE34FFFEED34FFFDEC34FFFC900041
:093D9D004F121EBB80B8C28C223B
:103DA60090009E121EBB538EEF438910D28EE4FF05
:103DB600FEFDFC90009EE0F8A3E0F9A3E0FAA3E084
:103DC600FBC3121E7A602F758BEA758DCB308FFD83
:103DD600C28F90009EE0FCA3E0FDA3E0FEA3E024DA
:103DE600FFFFEE34FFFEED34FFFDEC34FFFC9000E8
:093DF6009E121EBB80B8C28E2291
:103B87009000A2121EBB53C9BF53C9DF43C910D24D
:103B9700CAE4FFFEFDFC9000A2E0F8A3E0F9A3E071
:103BA700FAA3E0FBC3121E7A602F75CC3075CDF8EF
:103BB70030CFFDC2CF9000A2E0FCA3E0FDA3E0FE62
:103BC700A3E024FFFFEE34FFFEED34FFFDEC34FFEE
:0C3BD700FC9000A2121EBB80B8C2CA22E3
:103C3E009000A6121EBB75C40743C408E4FFFEFD28
:103C4E00FC9000A6E0F8A3E0F9A3E0FAA3E0FBC322
:103C5E00121E7A603275C52C75C6CFE5C430E4FBF2
:103C6E0053C4EF9000A6E0FCA3E0FDA3E0FEA3E0AA
:103C7E0024FFFFEE34FFFEED34FFFDEC34FFFC902D
:0B3C8E0000A6121EBB80B553C4F72235
:103C99009000AA121EBB75C40743C408E4FFFEFDC9
:103CA900FC9000AAE0F8A3E0F9A3E0FAA3E0FBC3C3
:103CB900121E7A603275C5D875C6FFE5C430E4FBBB
:103CC90053C4EF9000AAE0FCA3E0FDA3E0FEA3E04B
:103CD90024FFFFEE34FFFEED34FFFDEC34FFFC90D2
:0B3CE90000AA121EBB80B553C4F722D6
:10245600E5082452F582E43400F583E0050822906D
:10246600004F300703900052E475F001121EF80287
:102476001BEB2000E97F2ED2008018EF540F24902A
:10248600D43440D4FF30040BEF24BFB41A005003F9
:102496002461FFE50960021509050CE50C700205CB
:1024A6000B30070E90004FE475F001121EF8EF0294
:1024B6001C310240EF7403D2078003E4C207F5081B
:1024C60090004F121F0FE4F509F50BF50CE50960B6
:1024D600077F2012249980F5750AFFC201C200C247
:1024E60002C203C205C206C208122465FF700D307F
:1024F60007057F001224AAAF0CAE0B22B4255FC2DB
:10250600D5C204122465FF24D0B40A00501A75F00F
:102516000A780930D50508B6FF0106C6A426F620B6
:10252600D5047002D20380D924CFB41A00EF500428
:10253600C2E5D20402279CD20180C6D20080C0D256
:102546000280BCD2D580BAD20580B47F20122499ED
:102556002002077401B5090040F1122456FF122427
:10256600990224D3D208D2068095122456FB12244F
:1025760056FA122456F94A4B7006799A7A287BFF46
:1025860020022EE509602A7E008E82758300121CC9
:102596000460060EEE650A70F0C2D5EBC0E0EAC034
:1025A600E0E9C0E0EE1227FDD0E0F9D0E0FAD0E095
:1025B600FB121BEBFF60AAEBC0E0EAC0E0E9C0E05B
:1025C600122499D0E02401F9D0E03400FAD0E0FBDF
:1025D600E50A0460DCD50AD98087D20280A21227D8
:1025E600DF60F7E50A700104121751A90A600DE5CC
:1025F6000A600914F50A122887EF60F3EA30E70249
:10260600F404C3995079EAF4250A0430E701E40496
:10261600F50A800D1227DF60C1EA050A250A12179E
:1026260051EA90007EF030E701E4250A04D50A0459
:10263600200501141227FDE4C0E012288790007ED1
:10264600E0601320E70714F0122481802204F0D002
:10265600E014C0E07F00122481E50A6007122478A6
:10266600150A800B300503122478D0E00224D3D05B
:10267600E00480C41227DF609EE50A041217519019
:10268600007EEAF0E50A2005026001042404122710
:01269600FD46
:1026970074FF04C0E0122887122481E50A2005028E
:1026A7006003122478D0E0B50AE87F4512248B90A6
:1026B700007EE07F2B30E7047F2DF404C0E0122476
:1026C70099D0E075F00A84C0F0122482D0E0122479
:1026D700820224D3791080027908C206C2088008D2
:1026E700D2D5790A8004790AC2D5E50A047002F5C1
:1026F7000AE4FAFDFEFF122456FC7B0820011312A0
:102707002456FD7B1030000A122456FE122456FF71
:102717007B20EC3382D592D55013C3E43000069F5B
:10272700FFE49EFEE42001039DFDE49CFCE4CBF85E
:10273700C201EC700CCFCECDCCE824F8F870F38052
:1027470017C3EF33FFEE33FEED33FDEC33FCEB3312
:10275700FB994002FB0FD8E9EB300105F8D0E0C444
:1027670048B201C0E00AEC4D4E4F78207B0070C2A2
:10277700EAB50A0040BCC0E01227FFD0F0D0E02045
:102787000104C4C0E0C4B201C0F0122482D0F0D565
:10279700F0EB0224D3121F1825705326DB5825416E
:1027A7004C253D4226DF4F26E74426E74925564379
:1027B70026ED55261A46267A4525E44728BA502598
:1027C700452D25492E256C2B254D23256A2028A329
:1027D7002A25054800002564E50AB4FF03750A06A3
:1027E700122456FC122456FD122456FE122456FFBC
:1027F70090007702178E790AA2D5200314300509B5
:10280700B910020404B9080104A2D5200602500138
:10281700042002689202B509005034C0E07F2030DE
:1028270003197F30A20272067205500F122856C292
:1028370002C206C205C2087F30800F300503E9C017
:10284700E0122499300503D0E0F9D0E0B509CC3087
:1028570005177F30B9100C1224997F583004077F71
:10286700788003B908031224993002057F2D0224CA
:10287700997F202008F87F2B2006F322920280CF31
:102887007F00B40700500B2477F582E43400F5830A
:10289700E0FF22286E756C6C2900D2011224563095
:1028A70001F8C201780930D50108F60225052D5037
:1028B7004349581224562403B405004001E49028E4
:1028C700B59312248A743A12248AD2037509040232
:0228D70026DBFE
:10175100F920E73624F950037907E4F42402FBE584
:1017610082158270021583DBF6E024FB501BE960D1
:1017710014E4F0E582158270021583E004F0B40AE6
:0D17810008E4F0D9EE7401F00A22C2D5226E
:10178E00ED33EC3392D5FA602AB4FF33EDC2E77B2A
:10179E00FF60067A1779B3E4227A1779BC20D50454
:1017AE007A1779B7224E614E002B494E46002D49CD
:1017BE004E4600E47A08F0A3DAFC7B00740722C0E0
:1017CE0083C082ECC0E0EDC0E0EEC0E0EFC0E0EA26
:1017DE0075F010A4CAABF075F04DA42BFBE435F0F8
:1017EE00FCEA2410FAEB34C5FBEC34D9FCEDC2E76D
:1017FE00FF75F056A4F42411C5F0F434C58FF0A48F
:10180E002AE5F03BE43CF020E714121B61D0E0FF28
:10181E00D0E0FED0E0FDD0E0FC121A948014F40467
:10182E00121B61D0E0FFD0E0FED0E0FDD0E0FC1254
:10183E00198BD082D083E0FAEDD2E7CD33EC33248E
:10184E0082FBE4C3CF33CFCE33CECD33CD33DBF3F8
:10185E007B0775F00A846004F0A31B0AE5F0F0A381
:10186E008FF0740AA4FFACF08EF0740AA42CFEACB8
:10187E00F050010C8DF0740AA42CFDE435F0F0A3A9
:05188E00DBDE740722FF
:10189300021BD6E86480F8E933E83360110460F092
:1018A300ED33EC337009E8FCE9FDEAFEEBFF2204BB
:1018B30060DED3EB9FEA9EE99DE8C2E78CF0C2F7B6
:1018C30095F0400CE8CCF8E9CDF9EACEFAEBCFFB82
:1018D300121BA185D0F05804700320D5B3E804701F
:1018E300075002B2D5021BE092D5EC0460F7E4CCBA
:1018F300C0E0C398F8603B94186008400DD0E0FB4B
:10190300021BB8E4FBFAC9FC8028E830E406E4C90A
:10191300FBE4CAFCE830E305E4C9CACBFCE854079E
:101923006010F8C3E913F9EA13FAEB13FBEC13FCA9
:10193300D8F130F52FC3E49CFCEF9BFFEE9AFEED4C
:1019430099FDD0E0FBEF4E4D4C701222DB03021BDE
:10195300DDEC2CFCEF33FFEE33FEED33FDED30E732
:10196300EB021BB8EF2BFFEE3AFEED39FDD0E0FBA7
:1019730050130BBB0003021BE0ED13FDEE13FEEF50
:0819830013FFEC13FC021BB87A
:10198B00EC4D6011E8497017ED33EC3304600DE456
:10199B00FCFFFEFD22E933E8330470F8021BD6127C
:1019AB001BA158046009E4CC24815006285009027D
:1019BB001BE0284003021BDDC0E0EB4A7044B980FA
:1019CB0006D0E0FB021BCCEF4E701CBD8008EBFF7A
:1019DB00EAFEE9FD80EBE98DF0A4FEE5F0021A7456
:1019EB00E9CDF9EAFEEBFFEF89F0A4FCE5F0CE8937
:1019FB00F0A42EFFE435F0CD89F0A42DFEE435F0F4
:101A0B008067EF4E7005BD80D780C3EF8BF0A4AC21
:101A1B00F0EE8BF0A42CFCE435F0F8EF8AF0A42C5C
:101A2B00E5F038FCE433CB8DF0A42CFCE5F03BF86F
:101A3B00EE8AF0A42CFCE5F038F8E433CF89F0A45F
:101A4B002CFCE5F038CF3400CE89F0A42FFFE5F065
:101A5B003EFEE433C98DF0A42EFEE5F039CD8AF0BD
:101A6B00A42FFFE5F03EFEE43DFD33D0E0FB500735
:101A7B000BBB000F021BE0EC2CFCEF33FFEE33FE35
:061A8B00ED33FD021BB863
:101A9100021BE0EC5D046005E859047003021BD6EB
:101AA100121BA1580460F6EC4860F2EC7004FDFED4
:101AB100FF22C860DB2481C85009C3986002500628
:101AC100021BDD9850CAF582E9294B4A7005AB82A9
:101AD100021BCC75F0007C1A7880C3EF9BEE9AED67
:101AE10099400DC3EF9BFFEE9AFEED99FDE842F0A0
:101AF100DC23ACF0D0E0FFD0E0FED0E0FDAB8220F3
:101B0100E7101BEB60BAEC2CFCEF33FFEE33FEED7C
:101B110033FD021BB8E803F830E705C0F075F000AB
:101B2100EF2FFFEE33FEED33FD40B830E7C280AA60
:101B31003F8000004120000042C80000447A0000BC
:101B4100461C400047C35000497424004B1896803E
:101B51004CBEBC205A0E1BCA6753C21C749DC5AE35
:101B6100FB60065407601C2323121B8FEB54386063
:101B710009121B7B121B8A12198BECF8EDF9EEFA94
:101B8100EFCB22EB121B8A80F1543803241C901BEB
:101B910031FE93FC0EEE93FD0EEE930ECE93FF22DB
:101BA100E9D2E7C933E833F892D5EDD2E7CD33EC8A
:071BB10033FC5002B2D52203
:101BB800EC30E7100FBF000C0EBE00080DBD00048E
:101BC8000BEB6014A2D5EB13FCED92E7FD2274FF3A
:101BD800FCFDFEFF22E480F8A2D574FF13FC7D8093
:031BE800E480EFA7
:10362B00024098E493A3F8E493A34003F68001F2DD
:10363B0008DFF48029E493A3F85407240CC8C333A0
:10364B00C4540F4420C8834004F456800146F6DF6F
:10365B00E4800B0102040810204080904210E47EAD
:10366B00019360BCA3FF543F30E509541FFEE49364
:10367B00A360010ECF54C025E060A840B8E493A32B
:10368B00FAE493A3F8E493A3C8C582C8CAC583CA56
:10369B00F0A3C8C582C8CAC583CADFE9DEE780BE0E
:014226000097
:101BEB00BB010689828A83E0225002E722BBFE02F8
:091BFB00E32289828A83E493222B
:101C0400BB010CE58229F582E5833AF583E0225095
:101C140006E92582F8E622BBFE06E92582F8E222DF
:0D1C2400E58229F582E5833AF583E49322F9
:101C3100BB010689828A83F0225002F722BBFE0192
:021C4100F3228C
:101C4300BC000BBE0029EF8DF084FFADF022E4CC85
:101C5300F875F008EF2FFFEE33FEEC33FCEE9DEC4E
:101C6300984005FCEE9DFE0FD5F0E9E4CEFD22ED94
:101C7300F8F5F0EE8420D21CFEADF075F008EF2FDE
:101C8300FFED33FD4007985006D5F0F222C398FDCF
:051C93000FD5F0EA226C
:101C9800C2D5EC30E709B2D5E4C39DFDE49CFCEE67
:101CA80030E715B2D5E4C39FFFE49EFE121C43C380
:101CB800E49DFDE49CFC8003121C4330D507C3E47B
:061CC8009FFFE49EFE22D6
:101CCE00C5F0F8A3E028F0C5F0F8E58215827002A1
:061CDE001583E038F0223E
:101CE400A3F8E0C5F025F0F0E582158270021583B3
:061CF400E0C838F0E82210
:101CFA00BB010A89828A83E0F5F0A3E022500687B5
:101D0A00F009E71922BBFE07E3F5F009E319228976
:0B1D1A00828A83E493F5F074019322A9
:101D2500BB0110E58229F582E5833AF583E0F5F0FC
:101D3500A3E0225009E92582F886F008E622BBFED9
:101D45000AE92582F8E2F5F008E222E5832AF5831F
:081D5500E993F5F0A3E99322E4
:101D5D00E88FF0A4CC8BF0A42CFCE98EF0A42CFC25
:101D6D008AF0EDA42CFCEA8EF0A4CDA8F08BF0A4A3
:101D7D002DCC3825F0FDE98FF0A42CCD35F0FCEB02
:101D8D008EF0A4FEA9F0EB8FF0A4CFC5F02ECD39C7
:0F1D9D00FEE43CFCEAA42DCE35F0FDE43CFC2234
:101DAC0075F008758200EF2FFFEE33FECD33CDCCEE
:101DBC0033CCC58233C5829BED9AEC99E582984071
:101DCC000CF582EE9BFEED9AFDEC99FC0FD5F0D64E
:101DDC00E4CEFBE4CDFAE4CCF9A88222B800C1B978
:101DEC000059BA002DEC8BF084CFCECDFCE5F0CBB6
:101DFC00F97818EF2FFFEE33FEED33FDEC33FCEBEF
:101E0C0033FB10D703994004EB99FB0FD8E5E4F9A9
:101E1C00FA227818EF2FFFEE33FEED33FDEC33FC96
:101E2C00C933C910D7059BE99A4007EC9BFCE99A8A
:101E3C00F90FD8E0E4C9FAE4CCFB2275F010EF2FCF
:101E4C00FFEE33FEED33FDCC33CCC833C810D707CF
:101E5C009BEC9AE899400AED9BFDEC9AFCE899F80A
:0E1E6C000FD5F0DAE4CDFBE4CCFAE4C8F9229D
:101E7A00EB9FF5F0EA9E42F0E99D42F0E89C45F0BE
:011E8A002235
:101E8B00BB010DE58229F582E5833AF583021F4AF2
:101E9B005007E92582F8021F3EBBFE07E92582F8B1
:101EAB00021F56E58229F582E5833AF583021F620C
:0C1EBB00ECF0A3EDF0A3EEF0A3EFF0229A
:101EC700A8828583F0D083D082121EDE121EDE1216
:101ED7001EDE121EDEE473E493A3C583C5F0C5833B
:101EE700C8C582C8F0A3C583C5F0C583C8C582C865
:011EF70022C8
:101EF800F8E0FBA3A3E0F925F0F0E5821582700273
:071F08001583E0FA38F02216
:091F0F00EBF0A3EAF0A3E9F022D3
:101F1800D083D082F8E4937012740193700DA3A358
:101F280093F8740193F5828883E47374029368606C
:061F3800EFA3A3A380DF6C
:1040EF00EFB40A07740D1240FA740A309811A899A8
:1040FF00B8130CC2983098FDA899C298B811F63031
:07410F0099FDC299F5992208
:0C1F3E00E6FC08E6FD08E6FE08E6FF22CF
:0C1F4A00E0FCA3E0FDA3E0FEA3E0FF220A
:0C1F5600E2FC08E2FD08E2FE08E2FF22C7
:101F6200E493FC740193FD740293FE740393FF22C5
:00000001FF
