:03446300307800AE
:1041860053B1BF53B2BF53B17F53B27F75985043FB
:104196008920438780438E1053C4DFAB07AA06A944
:1041A60005A8047F407E427D0F7C00121ECDEF04E1
:0941B600F404F58DD28ED2992299
:08445B00C2998F993099FD22EE
:0300370002445B25
:10405800AB07AA067C007D0A121D7DC3EF940AEE09
:10406800648094805005EF2430800E7C007D0AAF78
:1040780003AE02121D7DEF2457FF1200377C007D2E
:104088000AAF03AE02121D7DC3ED940AEC6480945E
:0F40980080ED5004243080022457FF120037229D
:10380E0090004BEEF0A3EFF07BFF7A447963122524
:10381E00A67F027E007D007C00123EB490004BE03D
:10382E00FEA3E0FF7C007D10121D7DC3EF940AEE17
:10383E00648094805005EF2430801290004BE0FE9F
:10384E00A3E0FF7C007D10121D7DEF2457FF1200B8
:10385E003790004BE0FEA3E0FF7C007D10121D7D33
:10386E00C3ED940AEC64809480ED50042430800201
:07387E002457FF120037225E
:06205700900010121FA012
:10205D00E4900014F0A3121FAC00000000900010DB
:10206D00E0FCA3E0FDA3E0FEA3E0FF900015121F2E
:10207D00A07F201200377F7F7E967D987C00900098
:10208D0015E0F8A3E0F9A3E0FAA3E0FBD3121F5F7C
:10209D00407A7B807A9679987800900015E0FCA3C1
:1020AD00E0FDA3E0FEA3E0FF121ECDE47B0AFAF9EA
:1020BD00F8D3121F5F7B807A96799878009000157F
:1020CD00E0FCA3E0FDA3E0FEA3E0FF4008121ECD5F
:1020DD00EF24308006121ECDEF2457FF12003790EB
:1020ED000015E0FCA3E0FDA3E0FEA3E0FF7B807AFA
:1020FD009679987800121ECDAC00AD01AE02AF03FB
:10210D00900015121FA09000147401F07F3F7E42C5
:10211D007D0F7C00900015E0F8A3E0F9A3E0FAA391
:10212D00E0FBD3121F5F407C7B407A42790F780031
:10213D00900015E0FCA3E0FDA3E0FEA3E0FF121E5E
:10214D00CDE47B0AFAF9F8D3121F5F7B407A42790E
:10215D000F7800900015E0FCA3E0FDA3E0FEA3E0E6
:10216D00FF4008121ECDEF24308006121ECDEF2445
:10217D0057FF120037900015E0FCA3E0FDA3E0FE31
:10218D00A3E0FF7B407A42790F7800121ECDAC00A0
:10219D00AD01AE02AF03900015121FA09000147494
:1021AD0001F0800B900014E060057F301200377F46
:1021BD009F7E867D017C00900015E0F8A3E0F9A3D9
:1021CD00E0FAA3E0FBD3121F5F50030222687BA04D
:1021DD007A8679017800900015E0FCA3E0FDA3E07C
:1021ED00FEA3E0FF121ECDE47B0AFAF9F8D3121F0D
:1021FD005F7BA07A864019097800900015E0FCA35A
:10220D00E0FDA3E0FEA3E0FF121ECDEF2430801809
:10221D0079017800900015E0FCA3E0FDA3E0FEA39A
:10222D00E0FF121ECDEF2457FF120037900015E08E
:10223D00FCA3E0FDA3E0FEA3E0FF7BA07A8679017D
:10224D007800121ECDAC00AD01AE02AF03900015AB
:10225D00121FA09000147401F0800B900014E06028
:10226D00057F30120037E47F0F7E27FDFC900015AF
:10227D00E0F8A3E0F9A3E0FAA3E0FBD3121F5F504F
:10228D0003022319E47B107A27F9F8900015E0FC7E
:10229D00A3E0FDA3E0FEA3E0FF121ECDE47B0AFA4E
:1022AD00F9F8D3121F5FE47B107A274017F89000DE
:1022BD0015E0FCA3E0FDA3E0FEA3E0FF121ECDEFB1
:1022CD0024308016F9F8900015E0FCA3E0FDA3E0A2
:1022DD00FEA3E0FF121ECDEF2457FF120037900032
:1022ED0015E0FCA3E0FDA3E0FEA3E0FFE47B107A84
:1022FD0027F9F8121ECDAC00AD01AE02AF03900070
:10230D0015121FA09000147401F0800B900014E0C2
:10231D0060057F30120037E47FE77E03FDFC9000FF
:10232D0015E0F8A3E0F9A3E0FAA3E0FBD3121F5FD9
:10233D0050030223CAE47BE87A03F9F8900015E014
:10234D00FCA3E0FDA3E0FEA3E0FF121ECDE47B0A9B
:10235D00FAF9F8D3121F5FE47BE87A034017F8907F
:10236D000015E0FCA3E0FDA3E0FEA3E0FF121ECDEF
:10237D00EF24308016F9F8900015E0FCA3E0FDA3E2
:10238D00E0FEA3E0FF121ECDEF2457FF12003790A1
:10239D000015E0FCA3E0FDA3E0FEA3E0FFE47BE875
:1023AD007A03F9F8121ECDAC00AD01AE02AF039069
:1023BD000015121FA09000147401F0800B900014F2
:1023CD00E060057F30120037E47F63FEFDFC900076
:1023DD0015E0F8A3E0F9A3E0FAA3E0FBD3121F5F29
:1023ED005003022477E47B64FAF9F8900015E0FCC1
:1023FD00A3E0FDA3E0FEA3E0FF121ECDE47B0AFAED
:10240D00F9F8D3121F5FE47B644017F8900015E0D4
:10241D00FCA3E0FDA3E0FEA3E0FF121ECDEF2430F0
:10242D008017FAF9F8900015E0FCA3E0FDA3E0FE9B
:10243D00A3E0FF121ECDEF2457FF120037900015B9
:10244D00E0FCA3E0FDA3E0FEA3E0FFE47B64FAF96A
:10245D00F8121ECDAC00AD01AE02AF039000151207
:10246D001FA09000147401F0800B900014E0600523
:10247D007F30120037E47B0AFAF9F8900015E0FC82
:10248D00A3E0FDA3E0FEA3E0FF121ECDE47B0AFA5C
:10249D00F9F8D3121F5FE44017F8900015E0FCA384
:1024AD00E0FDA3E0FEA3E0FF121ECDEF2430801966
:1024BD007B0AFAF9F8900015E0FCA3E0FDA3E0FE1D
:1024CD00A3E0FF121ECDEF2457FF120037E47B0A65
:1024DD00FAF9F8900015E0FCA3E0FDA3E0FEA3E0FF
:1024ED00FF121ECDAC00AD01AE02AF03E47B0AFAC4
:1024FD00F9F8D3121F5FE44017F8900015E0FCA324
:10250D00E0FDA3E0FEA3E0FF121ECDEB2430801909
:10251D007B0AFAF9F8900015E0FCA3E0FDA3E0FEBC
:0D252D00A3E0FF121ECDEB2457FF12003774
:01253A00227E
:0B324000900010EBF0A3EAF0A3E9F00F
:10324B0090003B121FAC00000000E490003FF0A385
:10325B00F0F9A3C9F0A3F0A3E9F0E4A3F0F9A3C933
:10326B00F0A3F0A3E9F0A37401F0A37400F0A3742E
:10327B0013F0900010E0F9A3E0FAA3E0900045C929
:10328B00F0A3EAF0A3E9F0900045E0FBA3E0FAA37A
:10329B00E0F9121CAE700302337164256003023334
:1032AB0057900045A3E475F001121DB3A9F0FA1273
:1032BB001CAE24DB700302334524E1602B24EC604D
:1032CB005024F4602324EC6048241570729000485D
:1032DB00E0FBA3E475F002121DC9A9F0FA121DDF81
:1032EB00900044F0E0FF8054900048E0FBA3E475AD
:1032FB00F001121DC9A9F0FA121CAEFF90003FE4B9
:10330B00F0A3EFF090003FA3E0FF7E001240588047
:10331B002E900048E0FBA3E475F001121DC9A9F043
:10332B00FA121CAEFF90003FE4F0A3EFF090003FC9
:10333B00E0FEA3E0FF12380E80057F2512003790C8
:10334B000046E475F001121DB3023292900045E085
:10335B00FBA3E475F001121DC9A9F0FA121CAEFF14
:06336B001200370232924D
:013371002239
:104142000D0A23232323232323232323232323236C
:104152002323232323232323232323236D63752054
:10416200737461727423232323232323232323239E
:10417200232323232323232323232323232323230D
:0441820023232300D0
:044366004100D4003E
:1040F50043B30153B4FE43B30253B4FD43B3045376
:10410500B4FB43B10853B2F743B11053B2EF53AC0C
:10411500FE43AD0143B30843B40843B31043B410A1
:104125007F007EC27D017C0012418653E9FB43E995
:0D4135002043EA0853EBF7439B02D2AF2270
:10438100C2B07FC87E007D007C00123EB4D2B07FF7
:0A439100C87E007D007C00023EB4EF
:104240001240F57BFF7A41794212324012438112CB
:1042500035F19000D4E060FA1240A7E49000D4F069
:05426000439B0280ED0C
:04436A004100D276C6
:07442F00124436D2937F0A0C
:0A443600E4FEEEC39F50030E80F871
:014440002259
:1043B100D2947F0112442FC2947F07124436C293D4
:0543C1007F01024436FB
:0C444F00C2947F0212442FD29402443623
:023F6600AD07A5
:103F6800E4FCEDA804088002C333D8FC30E704D28F
:103F7800948002C2947F03124436D2930F124436BF
:103F8800C2930CECB408DB7F01124436D2947F0351
:103F9800124436D293124436309407E49000D3F09A
:0F3FA80080069000D37401F0C2937F0302443669
:10000300E4FDD294FC7F01124436C2937F04124470
:1000130036D2937F02124436ED25E0FD3094010D74
:100023007F021244360CECB408DBC2937F05124402
:0300330036AF05E0
:0100360022A7
:10432E00EF7004C2948002D2947F08124436D29366
:0C433E007F0F124436C2937F0802443601
:073C3300900012EDF0AC0758
:103C3A001243B1AF04123F669000D3E07002802DA8
:103C4A00900012E0FF123F669000D3E07002801DE0
:103C5A00E4900017F0900016E0FFA3E0C39F502203
:103C6A00121CAEFF123F669000D3E0700612444F5A
:103C7A007F0022740129F9E43AFA900017E004F06F
:073C8A0080D312444F7F01BB
:013C91002210
:08370B00900011EFF0A3EDF0B6
:103713001243B1900011E0FF123F669000D3E070B6
:10372300028022900012E0FF123F669000D3E07007
:103733000280121243B1900011E004FF123F669021
:1037430000D3E0700912444FE4121CF4FF22E4900A
:103753000017F0900016E014FFA3E0C39F501B1264
:103763000003EF121CF4E4FF12432E740129F9E461
:103773003AFA900017E004F080D9120003EF121C0C
:0B378300F47F0112432E12444F7F011F
:01378E002218
:0241F000AE0718
:1041F200E4900010F09000D2E0FFAD067B017A005F
:1042020079109000167401F012370BEF60069000DF
:0642120010E0FF227F0016
:014218002283
:0243C600AE0740
:1043C8009000D2E0FFAD069000B1E0900016F01228
:0243D800370BA1
:0143DA0022C0
:07431000900010EDF0AE0774
:104317009000D2E0FFAD067B017A0079109000167D
:064327007401F0123C33AA
:01432D00226D
:0243DB00AE072B
:1043DD009000D2E0FFAD069000B6E0900016F0120E
:0243ED003C335F
:0143EF0022AB
:10003E000D0A4C54393631312072696E672043688F
:10004E006970204944203D20257820002025780025
:10005E000D0A4C54393631315F4D4950495F496E66
:10006E007075745F44696774613A206C7439363107
:10007E003120736574206D697069206C616E6573D3
:10008E00203D202564000D0A4C54393631315F4D28
:10009E004950495F496E7075745F44696774613A7F
:1000AE00206C743936313120736574206D69706936
:1000BE0020706F727473203D2031000D0A4C54393C
:1000CE003631315F4D4950495F496E7075745F44EA
:1000DE00696774613A206C743936313120736574F6
:1000EE00206D69706920706F7274203D2032000D92
:1000FE000A4C54393631312E6D6970695F6D6F64FB
:10010E0065203D20637369000D0A4C543936313138
:10011E002E6D6970695F6D6F6465203D2064736933
:10012E00000D0A766964656F20636865636B3A201B
:10013E004C54393631312E6D6970695F6D6F64655F
:10014E00203D20637369000D0A766964656F206334
:10015E006865636B3A204C54393631312E6D6970B7
:10016E00695F6D6F6465203D20647369000D0A4CF4
:10017E0054393631315F566964656F5F4368656324
:10018E006B3A20685F6163745F612C20685F616306
:10019E00745F622C20765F6163742C20765F7461CD
:1001AE006C3A20000D0A4C54393631315F56696471
:1001BE00656F5F436865636B3A206D6970695F7642
:1001CE006964656F5F666F726D61743A20257800A1
:1001DE000D0A566964656F5F436865636B203D2049
:1001EE00766964656F5F363430783438305F363018
:1001FE00487A20000D0A566964656F5F436865632F
:10020E006B203D20766964656F5F37323078343805
:10021E00305F3630487A20000D0A566964656F5F8C
:10022E00436865636B203D20766964656F5F373286
:10023E0030783537365F3530487A20000D0A5669EA
:10024E0064656F5F436865636B203D207669646506
:10025E006F5F31323830783732305F3630487A203F
:10026E00000D0A566964656F5F436865636B203DD8
:10027E0020766964656F5F31323830783732305F9F
:10028E003530487A20000D0A566964656F5F436801
:10029E0065636B203D20766964656F5F313238305F
:1002AE00783732305F3330487A20000D0A56696451
:1002BE00656F5F436865636B203D20766964656F8B
:1002CE005F3139323078313038305F3630487A200D
:1002DE00000D0A566964656F5F436865636B203D68
:1002EE0020766964656F5F3139323078313038305D
:1002FE005F3530487A20000D0A566964656F5F439A
:10030E006865636B203D20766964656F5F313932B5
:10031E003078313038305F3330487A20000D0A564D
:10032E006964656F5F436865636B203D2076696421
:10033E00656F5F3139323078313038305F32354861
:10034E007A20000D0A566964656F5F436865636BBA
:10035E00203D20766964656F5F31393230783130F7
:10036E0038305F3234487A20000D0A566964656F62
:10037E005F436865636B203D20766964656F5F330C
:10038E0038343078323136305F3330487A20000DD1
:10039E000A566964656F5F436865636B203D20761E
:1003AE006964656F5F3338343078323136305F329E
:1003BE0035487A20000D0A566964656F5F4368659B
:1003CE00636B203D20766964656F5F333834307817
:1003DE00323136305F3234487A20000D0A56696465
:1003EE00656F5F436865636B203D20766964656F5A
:1003FE005F383030783630305F3630487A20000D36
:10040E000A566964656F5F436865636B203D2076AD
:10041E006964656F5F31303234783736385F363025
:10042E00487A20000D0A566964656F5F43686563FC
:10043E006B203D20766964656F5F313238307837D6
:10044E0036385F3630487A20000D0A566964656F7B
:10045E005F436865636B203D20766964656F5F312D
:10046E0032383078313032345F3630487A20000DF1
:10047E000A566964656F5F436865636B203D20763D
:10048E006964656F5F3136303078313230305F36C7
:10049E0030487A20000D0A566964656F5F436865BF
:1004AE00636B203D20766964656F5F313638307836
:1004BE00313035305F3630487A20000D0A56696487
:1004CE00656F5F436865636B203D20766964656F79
:1004DE005F31333636783736385F3630487A20001B
:1004EE000D0A566964656F5F436865636B203D2036
:1004FE00766964656F5F3235363078313434305F0B
:10050E003630487A20000D0A566964656F5F43687D
:10051E0065636B203D20766964656F5F32353630DA
:10052E0078313434305F3530487A20000D0A566900
:10053E0064656F5F436865636B203D207669646513
:10054E006F5F37323078313038305F3630487A204E
:10055E00000D0A566964656F5F436865636B203DE5
:10056E0020766964656F5F313038307831393230DA
:10057E005F3630487A20000D0A566964656F5F4316
:10058E006865636B203D20766964656F5F33383430
:10059E003078313038305F3630487A20000D0A56C8
:1005AE006964656F5F436865636B203D207669649F
:1005BE00656F5F31303234783630305F3630487A9E
:1005CE0020000D0A566964656F5F436865636B2092
:1005DE003D20766964656F5F31323830783830305F
:1005EE005F3630487A20000D0A566964656F5F43A6
:1005FE006865636B203D20766964656F5F353430C6
:10060E00783936305F3630487A20000D0A566964E4
:10061E00656F5F436865636B203D20766964656F27
:10062E005F3235363078313630305F3630487A20AA
:10063E00000D0A566964656F5F436865636B203D04
:10064E0020766964656F5F323536307831303830F8
:10065E005F3630487A20000D0A566964656F5F4335
:10066E006865636B203D20766964656F5F32353651
:10067E0030783732305F3630487A20000D0A5669AE
:10068E0064656F5F436865636B203D20756E6B6EAE
:10069E006F776E20766964656F20666F726D617418
:1006AE0020000D0A4C54393631315F504C4C3A20F3
:1006BE0073657420727820706C6C203D20000D0ADA
:1006CE004C54393631315F504C4C3A207063725F66
:1006DE006D203D2025782C2068646D695F706F73E6
:1006EE00745F646976203D202564000D0A4C5439F0
:1006FE003631315F504C4C3A2048444D4920706C95
:10070E006C206C6F636B6564000D0A4C5439363186
:10071E00315F504C4C3A2048444D4920706C6C204F
:10072E00756E6C6F636B65642C20726573657420D7
:10073E00706C6C000D0A4C54393631315F435343A3
:10074E003A2059706270722034323220746F205207
:10075E004742383838000D0A417564696F20696E5A
:10076E007574203D2049325320326368000D0A41D2
:10077E007564696F20696E7574203D20535044492D
:10078E0046000D0A706F72742041206279746520E4
:10079E00636C6B203D20000D0A706F727420412037
:1007AE006279746520636C6B20756E737461626C14
:1007BE0065000D0A706F7274204220627974652094
:1007CE00636C6B203D20000D0A706F727420422006
:1007DE006279746520636C6B20756E737461626CE4
:1007EE0065000D0A4C54393631315F456E61626CCD
:1007FE00655F496E74657272757074733A206870B5
:10080E00645F6972715F656E61626C65000D0A4CA2
:10081E0054393631315F456E61626C655F496E7475
:10082E00657272757074733A206870645F69727164
:10083E005F64697361626C65000D0A4C5439363120
:10084E00315F456E61626C655F496E74657272757B
:10085E007074733A207669645F6368675F6972715A
:10086E005F656E61626C65000D0A4C54393631312C
:10087E005F456E61626C655F496E7465727275700C
:10088E0074733A207669645F6368675F6972715F3B
:10089E0064697361626C65000D0A4C5439363131EE
:1008AE005F4844505F496E746572727570745F482C
:1008BE00616E646C653A2048444D4920636F6E6EDC
:1008CE006563746564004C54393631315F48445069
:1008DE005F496E746572727570745F48616E646C98
:1008EE00653A206E6F206D69706920766964656F58
:1008FE002C2064697361626C652068646D69206F79
:10090E007574707574000D0A4C54393631315F4868
:10091E0044505F496E746572727570745F48616E93
:10092E00646C653A2048444D4920646973636F6E68
:10093E006E6563746564004C54393631315F5669A7
:10094E00645F4368675F496E746572727570745F39
:10095E0048616E646C653A20004C54393631315F13
:10096E005669645F4368675F496E7465727275702D
:10097E00745F48616E646C653A206E6F206D6970AD
:10098E006920766964656F2C2064697361626C6599
:10099E002068646D69206F7574707574000D0A633C
:1009AE0065635F737461747573283078383664329A
:1009BE00293D202578000D0A636563207265633A30
:1009CE0020000D0A73656E64206461746120646F8B
:1009DE006E652E20000D0A4C54393631315F495266
:1009EE00515F5461736B203A495251205461736BBD
:1009FE00000D0A73657420706978656C20636C6BEA
:100A0E00203D20000D0A23232323232323232323E6
:100A1E0023234C543936313120496E697469616C27
:100A2E0020456E64232323232323232323232323DD
:100A3E0023232323232300001000600030028003B1
:100A4E0020000A0002002101E0020D00000001005A
:100A5E000061A80010003E003C02D0035A000900BD
:100A6E0006001E01E0020D00000003000069780080
:100A7E000C0040005802D00360000500050027025C
:100A8E004002710000001100006978006E0028001D
:100A9E00DC0500067200050005001402D002EE010E
:100AAE000100040001220A01B8002800DC0500073D
:100ABE00BC00050005001402D002EE010100130077
:100ACE0001220A0058002C009407800898000400A8
:100ADE0005002404380465010100100002441402CC
:100AEE0010002C009407800A500004000500240416
:100AFE003804650101001F000244140058002C0048
:100B0E009407800898000400050024043804650149
:100B1E000100220001220A0210002C009407800A14
:100B2E005000040005002404380465010100210072
:100B3E0001220A027E002C009407800ABE000400E7
:100B4E0005002404380465010100200001220A007A
:100B5E00B0005801280F0011300008000A004808A4
:100B6E007008CA0101005F000488280420005801A3
:100B7E00280F0014A00008000A0048087008CA01D7
:100B8E0001005E0004882804FC005801280F00159F
:100B9E007C0008000A0048087008CA0101005D00C8
:100BAE0004882800F8002C00940A000AA000040013
:100BBE0005000B0438044C01010000000305700011
:100BCE0030008000580320042000010004001702AA
:100BDE005802740101000000009C400018008800BB
:100BEE00A00400054000030006001D0300032600BC
:100BFE000000000000FDE80040008000C005000677
:100C0E00800003000700140300031E000100000013
:100C1E0001368C0030007000F805000698000100C7
:100C2E000300260400042A010100000001A5E000D3
:100C3E004000C001300640087000010003002E0481
:100C4E00B004E201010000000278D0006800B0019B
:100C5E0018069008C000030006001E041A04410086
:100C6E0001000000023B4A06E0002800DC05000CF3
:100C7E00E400050005001402D002EE0101000000A0
:100C8E0001220A003C003C006404000482000200C1
:100C9E0005000A0258026901010000000084D0001C
:100CAE0028002C00280320039C000A0004000C05D9
:100CBE0000051A0101000000010C8E000E00380024
:100CCE0040055605DC00010003001C030003200153
:100CDE000100000001211000B0011001C00A000D3A
:100CEE008000030005002405A005CC0101000000D2
:100CFE0003E8FA0030002000500A000AA0000300AA
:100D0E0005002105A005C9010100000003AF5C002C
:100D1E0030002000500A000AA0000300060025063D
:100D2E0040066E01010000000418D400B000580106
:100D3E00280F00113000040005002404380465015A
:100D4E000100000004882800DC005001B80A000CE5
:100D5E00E400050005001402D002EE0101000000BF
:100D6E0002441400040005002404380465005800F1
:100D7E002C00940780089801010000000244140022
:100D8E00050005001402D002EE006E002800DC05FE
:100D9E00000672010100000001220A001E000A0076
:100DAE001E021C0262000A000A000A03C003DE01D2
:070DBE00010000000082DCCF
:10436E004700820101010000000141008A00410066
:02437E007D00C0
:103C92007D807FFF1243107D017FEE124310E4FF0F
:103CA2001241F0900013EFF07BFF7A00793E12325E
:103CB200407F011241F0900013EFF07BFF7A007910
:103CC2005A1232407F021241F0900013EFF07BFF54
:103CD2007A00795A1232407D817FFF1243107D189B
:0C3CE2007F011243107D807FFF02431021
:104289007D817FFF1243107D487F021243107D809C
:104299007F23124310E4FD7F30124310E4FD7F01B8
:0342A900024310BD
:103FB700EF7D817FFF60231243107D497F0212430B
:103FC700107D807F23124310E4FD7F301243107D64
:103FD700807FFF1243107D0A80211243107D127FDC
:103FE700021243107D407F231243107DEA7F301277
:103FF70043107D807FFF1243107DFA7F111243101B
:014007002296
:103AAE007D827FFF1243107D117F511243107D8264
:103ABE007FFF1243107D697F1B1243107D787F1CA0
:103ACE001243107D697FCB1243107D787FCC124359
:103ADE00107D807FFF1243107DF07F041243107D16
:103AEE00F07F061243107D807F0A1243107D467FC1
:103AFE000B1243107DEF7F0D1243107DFA7F1102E2
:023B0E00431062
:103D4A007D817FFF1243107D207F061243107D3F45
:103D5A007F071243107D3F7F081243107DFE7F0AC2
:103D6A001243107DBF7F0B1243107D207F11124337
:103D7A00107D3F7F121243107D3F7F131243107D47
:103D8A00FE7F151243107DBF7F161243107D037FFD
:0B3D9A001C1243107D037F2002431029
:1034C600900083E0900000F07BFF7A00795E900028
:1034D60013F01232407D827FFF1243107D807F4FB2
:1034E6001243107D107F501243107D837FFF1243DD
:1034F60010900000E0FDE4FF1243107D047F0212ED
:1035060043107D047F0612431030900FE4FD7F0ABE
:103516001243107BFF7A007994800D7D037F0A1297
:1035260043107BFF7A0079C9123240900084E07B19
:10353600FFB4011C7A0079FD1232407D837FFF12B1
:1035460043107D107F081243107D407F2C024310EC
:073556007A017916123240E0
:01355D00224B
:100DC500E4900003F07D827FFF1243107F8612417D
:100DD500F090000EE4F0A3EFF07F871241F0EFFDF5
:100DE5007C0090000FE0FEE42DFFEC3E90000EF03D
:100DF500A3EFF07F821241F090000AE4F0A3EFF038
:100E05007F831241F0EFFD7C0090000BE0FEE42DA6
:100E1500FFEC3E90000AF0A3EFF07F6C1241F090DA
:100E2500000CE4F0A3EFF07F6D1241F0EFFD7C00C4
:100E350090000DE0FEE42DFFEC3E90000CF0A3EFDA
:100E4500F07D837FFF1243107F821241F0900006F0
:100E5500E4F0A3EFF07F831241F0EFFD7C009000FA
:100E650007E0FEE42DFFEC3E900006F0A3EFF07FD7
:100E7500861241F0900008E4F0A3EFF07F8712415D
:100E8500F0EFFD7C00900009E0FEE42DFFEC3E90C4
:100E95000008F0A3EFF0900084E07BFFB4011D7A19
:100EA50001792F123240900006E0C313F0A3E0133E
:100EB500F0A3E0C313F0A3E013F080337A01795572
:100EC500123240900006E0FEA3E0FF7C007D031295
:100ED5001D28900006EEF0A3EFF0A3E0FEA3E0FFCF
:100EE5007C007D03121D28900008EEF0A3EFF07F33
:100EF500881241F0900003EFF07BFF7A01797B12B5
:100F05003240900006E0FEA3E0FFE4FCFD1220570E
:100F1500900008E0FEA3E0FFE4FCFD1220579000DE
:100F25000AE0FEA3E0FFE4FCFD12205790000CE070
:100F3500FEA3E0FFE4FCFD1220577BFF7A0179B2A6
:100F4500900003E0900013F01232402090189000BA
:100F550008E0FEA3E0FF900007E02FFF900006E009
:100F65003E900004800B900006E0FFA3E090000493
:100F7500CFF0A3EFF0900A4BE493FE740193FF903A
:100F85000004E0B50638A3E0B50733900A55E493AD
:100F9500FE740193FF90000AE0B50622A3E0B507B1
:100FA5001D7BFF7A0179DE123240E4900089F090D2
:100FB500007F74FFF0A3740AF0A37445F022900A31
:100FC50067E493FE740193FF900004E0B50639A32E
:100FD500E0B50734900A71E493FE740193FF900025
:100FE5000AE0B50623A3E0B5071E7BFF7A02790266
:100FF5001232409000897401F090007F74FFF0A3D5
:10100500740AF0A37461F022900A83E493FE7401DC
:1010150093FF900004E0B50633A3E0B5072E900AD0
:101025008DE493FE740193FF90000AE0B5061DA3BD
:10103500E0B507187BFF7A02792612324090007FCF
:1010450074FFF0A3740AF0A3747DF022900A9FE464
:1010550093FE740193FF900004E06E7003A3E06FAC
:10106500600302110C900AA993FE740193FF90008E
:101075000AE06E7003A3E06F600302110CC39000D9
:101085000FE0947690000EE09402501E7BFF7A02EA
:10109500794A1232409000897402F090007F74FF03
:1010A500F0A3740AF0A37499F022C390000FE094A2
:1010B500EE90000EE09402501E7BFF7A02796F12CB
:1010C5003240900089740AF090007F74FFF0A37499
:1010D5000AF0A374B5F022C390000FE094CE9000FF
:1010E5000EE0940440030218137BFF7A02799412F0
:1010F5003240900089740BF090007F74FFF0A37468
:101105000CF0A37475F022900AD7E493FE74019352
:10111500FF900004E06E7003A3E06F6003021221EC
:10112500900AE193FE740193FF90000AE06E70034C
:10113500A3E06F6003021221C390000FE094AE900C
:10114500000EE09401501E7BFF7A0279B9123240FD
:101155009000897403F090007F74FFF0A3740AF087
:10116500A374D1F022C390000FE094FE90000EE02E
:101175009401501E7BFF7A0279DF1232409000897C
:101185007419F090007F74FFF0A3740AF0A374ED56
:10119500F022C390000FE0943E90000EE0940350BF
:1011A5001E7BFF7A037905123240900089741AF08C
:1011B50090007F74FFF0A3740BF0A37409F022C3B1
:1011C50090000FE094D490000EE09403501E7BFF36
:1011D5007A03792B123240900089741BF090007FBE
:1011E50074FFF0A3740BF0A37425F022C390000FD5
:1011F500E0940690000EE0940440030218137BFF70
:101205007A037951123240900089741CF090007F66
:1012150074FFF0A3740BF0A37441F022900B63E408
:1012250093FE740193FF900004E06E7003A3E06FDA
:1012350060030212DC900B6D93FE740193FF900026
:101245000AE06E7003A3E06F60030212DCC3900036
:101255000FE094AE90000EE09401501E7BFF7A03E0
:101265007977123240900089740CF090007F74FFFA
:10127500F0A3740BF0A3745DF022C390000FE0940B
:10128500EA90000EE09401501E7BFF7A03799D12CF
:101295003240900089740DF090007F74FFF0A374C4
:1012A5000BF0A37479F022C390000FE0940890002E
:1012B5000EE0940240030218137BFF7A0379C312F0
:1012C5003240900089740EF090007F74FFF0A37493
:1012D5000BF0A37495F022900BD3E493FE74019365
:1012E500FF900004E0B50639A3E0B50734900BDDA7
:1012F500E493FE740193FF90000AE0B50623A3E092
:10130500B5071E7BFF7A0379E91232409000897494
:101315001FF090007F74FFF0A3740BF0A374CDF061
:1013250022900BEFE493FE740193FF900004E0B567
:101335000639A3E0B50734900BF9E493FE740193E5
:10134500FF90000AE0B50623A3E0B5071E7BFF7AF0
:1013550004790D123240900089741FF090007F745B
:10136500FFF0A3740BF0A374E9F022900C0BE49347
:10137500FE740193FF900004E0B50639A3E0B507BC
:1013850034900C15E493FE740193FF90000AE0B5C8
:101395000623A3E0B5071E7BFF7A0479321232409B
:1013A500900089741FF090007F74FFF0A3740CF017
:1013B500A37405F022900C27E493FE740193FF902B
:1013C5000004E0B50639A3E0B50734900C31E49389
:1013D500FE740193FF90000AE0B50623A3E0B5076C
:1013E5001E7BFF7A047957123240900089741FF0F2
:1013F50090007F74FFF0A3740CF0A37421F0229089
:101405000C43E493FE740193FF900004E0B50639A4
:10141500A3E0B50734900C4DE493FE740193FF905F
:10142500000AE0B50623A3E0B5071E7BFF7A047921
:101435007D123240900089741FF090007F74FFF098
:10144500A3740CF0A3743DF022900C5FE493FE743A
:101455000193FF900004E0B50639A3E0B507349089
:101465000C69E493FE740193FF90000AE0B506232E
:10147500A3E0B5071E7BFF7A0479A31232409000E2
:1014850089741FF090007F74FFF0A3740CF0A374AF
:1014950059F022900CCFE493FE740193FF90000461
:1014A500E0B50639A3E0B50734900CD9E493FE7492
:1014B5000193FF90000AE0B50623A3E0B5071E7B64
:1014C500FF7A0479C91232409000897415F09000B2
:1014D5007F74FFF0A3740CF0A374C9F022900D077C
:1014E500E493FE740193FF900004E06E7003A3E0A3
:1014F5006F7072900D1193FE740193FF90000AE0D6
:101505006E7003A3E06F705DC390000FE09436909A
:10151500000EE09401501E7BFF7A0479EE123240F2
:101525009000897417F090007F74FFF0A3740DF09C
:10153500A37401F022C390000FE0947290000EE0B6
:10154500940140030218137BFF7A05791412324087
:10155500900089741EF090007F74FFF0A3740CF066
:10156500A374E5F022900D93E493FE740193FF902C
:101575000004E0B50639A3E0B50734900D9DE4936A
:10158500FE740193FF90000AE0B50623A3E0B507BA
:101595001E7BFF7A05793A1232409000897412F069
:1015A50090007F74FFF0A3740DF0A3748DF022906A
:1015B5000D77E493FE740193FF900004E0B50639BE
:1015C500A3E0B50734900D81E493FE740193FF9079
:1015D500000AE0B50623A3E0B5071E7BFF7A05796F
:1015E5005F1232409000897411F090007F74FFF013
:1015F500A3740DF0A37471F022900D3FE493FE7473
:101605000193FF900004E0B50639A3E0B5073490D7
:101615000D49E493FE740193FF90000AE0B506239B
:10162500A3E0B5071E7BFF7A05798512324090004D
:1016350089740FF090007F74FFF0A3740DF0A3740C
:1016450039F022900C97E493FE740193FF90000407
:10165500E0B50639A3E0B50734900CA1E493FE7418
:101665000193FF90000AE0B50623A3E0B5071E7BB2
:10167500FF7A0579AB1232409000897410F0900022
:101685007F74FFF0A3740CF0A37491F022900CB357
:10169500E493FE740193FF900004E0B50639A3E0DE
:1016A500B50734900CBDE493FE740193FF90000AD6
:1016B500E0B50623A3E0B5071E7BFF7A0579D012B6
:1016C50032409000897413F090007F74FFF0A3748A
:1016D5000CF0A374ADF022900DAFE493FE7401936A
:1016E500FF900004E0B50639A3E0B50734900DB9C5
:1016F500E493FE740193FF90000AE0B50623A3E08E
:10170500B5071E7BFF7A0579F51232409000897482
:1017150014F090007F74FFF0A3740DF0A374A9F08A
:1017250022900D23E493FE740193FF900004E0B52D
:101735000639A3E0B50734900D2DE493FE740193AB
:10174500FF90000AE0B50623A3E0B5071E7BFF7AEC
:101755000679191232409000897416F090007F7452
:10176500FFF0A3740DF0A3741DF022900BB7E49362
:10177500FE740193FF900004E0B50639A3E0B507B8
:1017850034900BC1E493FE740193FF90000AE0B519
:101795000623A3E0B5071E7BFF7A06793F12324088
:1017A5009000897418F090007F74FFF0A3740BF01B
:1017B500A374B1F022900D5BE493FE740193FF9046
:1017C5000004E0B50639A3E0B50734900D65E49350
:1017D500FE740193FF90000AE0B50623A3E0B50768
:1017E5001E7BFF7A067965123240900089741DF0E0
:1017F50090007F74FFF0A3740DF0A37455F0229050
:0E1805000089741FF07BFF7A06798A12324048
:0118130022B2
:102C2D00900006EBF0A3EAF0A3E9F07D837FFF129D
:102C3D004310900006E0FBA3E0FAA3E0F990001228
:102C4D00121E0AE5F0FD7F0D124310900006E0FB09
:102C5D00A3E0FAA3E0F9900012121E0AFD7F0E12F6
:102C6D004310900006E0FBA3E0FAA3E0F9900010FA
:102C7D00121E0AE5F0FD7F0F124310900006E0FBD7
:102C8D00A3E0FAA3E0F9900010121E0AFD7F1012C6
:102C9D004310900006E0FBA3E0FAA3E0F9900008D2
:102CAD00121E0AE5F0FD7F11124310900006E0FBA5
:102CBD00A3E0FAA3E0F9900008121E0AFD7F12129C
:102CCD004310900006E0FBA3E0FAA3E0F9900006A4
:102CDD00121E0AE5F0FD7F13124310900006E0FB73
:102CED00A3E0FAA3E0F9900006121E0AFD7F14126C
:102CFD004310900006E0FBA3E0FAA3E0F990000C6E
:102D0D00121E0AFD7F15124310900006E0FBA3E092
:102D1D00FAA3E0F9900002121E0AFD7F161243106D
:102D2D00900006E0FBA3E0FAA3E0F990000A121E62
:102D3D000AFD7F17124310900006E0FBA3E0FAA3F3
:102D4D00E0F990000E121E0AFFAEF090000C121E5C
:102D5D000A2FFFE5F03EAD077F18124310900006D5
:102D6D00E0FBA3E0FAA3E0F9121DDFFD7F1912438A
:102D7D0010900006E0FBA3E0FAA3E0F99000041226
:102D8D001E0AFFAEF0900002121E0A2FE5F03EFD66
:102D9D00121DDFE5F0C4F8540FC868FFEF2DFD7F5D
:102DAD001A124310900006E0FBA3E0FAA3E0F9909D
:102DBD000004121E0AFFAEF0900002121E0A2FFF31
:0A2DCD00E5F03EAD077F1B02431046
:0B30F50090007FE0FBA3E0FAA3E0F9ED
:10310000900006121E0AFF900004E5F0F0A3EFF015
:10311000900014121CC725E0FF900015121CC72F49
:10312000900003F0F4F05403F07D837FFF1243100E
:10313000209064900004E0FEA3E07802CEC313CE9A
:1031400013D8F9F0EE900004F0A3E02450F09000C2
:1031500004E03400F0E0FEA3E0FFC394E0EE94034B
:10316000500280047E037FE0900004EEF0A3EFF0B5
:10317000900004E0FD7F0B124310900004A3E0FDDB
:103180007F0C124310900004E0FD7F481243109022
:103190000004A3E0FD80177D017F0B1243107D101A
:1031A0007F0C124310E4FD7F481243107D817F495C
:1031B0001243107D4A7F211243107D717F241243F8
:1031C000107D307F251243107D017F2A1243107D30
:1031D000407F4A124310900003E04410FD7F1D120F
:1031E0004310900089E024F0600624FC6002801CFB
:1031F0007D707F241243107D807F251243107D1047
:103200007F2A1243107DF07F1D12431090007FE053
:10321000FBA3E0FAA3E0F9122C2D7D837FFF12437C
:103220001090007EE0FD7F261243107D807FFF120C
:1032300043107D5A7F111243107DFA7F1102431013
:0B29BE0090007FE0FBA3E0FAA3E0F92B
:1029C900900018121F70900003121FA07BFF7A0657
:1029D90079B0123240900003E0FCA3E0FDA3E0FED1
:1029E900A3E0FF1220577D817FFF1243107D407FB6
:1029F900231243107D627F241243107D807F2512AC
:102A090043107D557F261243107D377F2C124310CA
:102A19007D017F2F1243107D557F261243107D665D
:102A29007F271243107D887F281243107FF07E494B
:102A39007D027C00900003E0F8A3E0F9A3E0FAA38B
:102A4900E0FBD3121F5F400F7D887F2D124310904A
:102A590000077401F080387F707E117D017C009041
:102A69000003E0F8A3E0F9A3E0FAA3E0FBD3121F07
:102A79005F400F7D997F2D1243109000077402F07B
:102A8900800D7DAA7F2D1243109000077404F0E495
:102A99007F05FEFDFC900003E0F8A3E0F9A3E0FA4E
:102AA900A3E0FB121E42A804A905AA06AB079000E1
:102AB90007E0FFE4FCFDFE121E42E47B787A69F927
:102AC900F8121ECD90007EEFF07BFF7A0679CCE0FC
:102AD900900013F0900007E0900014F01232407D4E
:102AE900837FFF1243107D407F2D1243107D087FA5
:102AF9003112431090007EE04480FD7F261243107E
:102B0900900003E0FCA3E0FDA3E0FEA3E0FFE47B6B
:102B190002FAF9F8121ECD900003121FA07D827FE0
:102B2900FF124310E4FBFA7901F8900003E0FCA3DB
:102B3900E0FDA3E0FEA3E0FF121ECDAD077FE31287
:102B49004310900003A3A3E0FEA3E0FFE4FDFC9083
:102B59000003121FA0E4FB7A01F9F8900003E0FCDE
:102B6900A3E0FDA3E0FEA3E0FF121ECDAD077FE4C5
:102B7900124310900003E0FCA3A3E0FEA3E0FFE4EE
:102B8900AD077FE51243107D207FDE1243107DE003
:102B99007FDE1243107D807FFF1243107DF17F1687
:102BA9001243107DF37F16124310E4900008F07D64
:102BB900807FFF1243107DE37F161243107DF37F60
:102BC900161243107D827FFF1243107F151241F0C8
:102BD900EF30E7097BFF7A0679F90232407D807F81
:102BE900FF1243107D5A7F111243107DFA7F111293
:102BF90043107DDC7F181243107DFC7F18124310AF
:102C09007DF17F161243107DF37F161243107BFF6F
:102C19007A077917123240900008E004F0E0C39473
:032C290006408CD6
:012C2C002285
:1038FA007D817FFF1243107D6A7F30124310900052
:10390A0087E070047D7380027D447F311243107D0D
:10391A004A7F321243107D0B7F33124310E4FD7F3E
:10392A0034124310E4FD7F35124310E4FD7F361252
:10393A0043107D447F371243107D0F7F3F1243109F
:10394A007DA07F401243107DA07F411243107DA0CD
:10395A007F421243107DA07F431243107D0A7F44A9
:03396A0002431005
:103B10007D817FFF1243107D407F231243107D8201
:103B20007FFF1243107D207FDE1243107DE07FDE99
:103B30001243107D807FFF1243107DDC7F181243FB
:103B4000107DFC7F181243107DF17F161243107D0B
:103B5000F37F161243107D5A7F111243107DFA7FB6
:103B6000111243107D817FFF1243107DEA7F3002E6
:023B7000431000
:1043F0007D817FFF124310E4FD7F301243107D80EA
:054400007F23024310C0
:0B38850090007FE0FBA3E0FAA3E0F955
:10389000900016121E0A900004F0C3943750028064
:1038A00003900004E0FFC374379F900003F07D8213
:1038B0007FFF1243107D8E7FD61243107D047FD789
:1038C0001243107D847FFF124310900003E0FD7FC0
:1038D000431243107D287F45124310900004E0FD01
:1038E0007F471243107D847FFF1243107D027F10BB
:0A38F0001243107D647F12024310A2
:1042F100900084E0B401177D827FFF1243107D1886
:0F4301007FB91243107BFF7A07794212324022B4
:103BD300900086E0702C7BFF7A0779641232407D77
:103BE300847FFF1243107D087F061243107D107FF0
:103BF300071243107D297F0F1243107DD47F3412A7
:103C03004310900086E0640170257BFF7A07797B7F
:103C13001232407D847FFF1243107D0C7F061243D6
:103C2300107D107F071243107DD47F34124310227E
:01003A0022A3
:10439B007D827FFF1243107F5E1241F0EF30E2030C
:0643AB007F01227F0022C9
:1042AC007D857FFF1243107D1F7F071243107DFE1B
:1042BC007F131243107D0F7F171243107D057F155E
:0342CC000243109A
:1041BF007D807FFF1243107D7F7F141243107DFFA0
:1041CF007F141243107D857FFF1243107D017F15F1
:1041DF001243107D717F151243107D657F150243C9
:0141EF0010BF
:0E4441007D857FFF1243107D457F15024310DD
:103B7200EF7D807FFF604F1243107DFF7F0D124368
:103B8200107DF97F151243107D867FFF124310E4EA
:103B9200FD7FFA1243107DA57FFE1243107D7F7FC9
:103BA200FC124310E4FD7FFC1243107D827FFF1262
:103BB20043107D7F7F011243107DFF7F051243106A
:103BC2007D7F7F0580071243107DF17F1512431020
:013BD20022D0
:104405007D867FFF1243107D207FF7124310E4FD68
:054415007FF8024310D6
:0B355E00900004EBF0A3EAF0A3E9F0FA
:103569007D867FFF1243107FD31241F0900007EF51
:10357900F0900004E0FBA3E0FAA3E0F9EF121CF4D9
:103589009000087401F0900007E0FFA3E0FED39FCC
:103599005048EE24D3FF1241F0900004E0FBA3E071
:1035A900FAA3E0F9900008E0FEF582758300EF12B6
:1035B9001D06900004E0FBA3E0FAA3E0F98E8275F2
:1035C9008300121CC7900013F07BFF7A00795A120E
:1035D9003240900008E004F080ACE4FD7FF512432E
:0735E9001090008A7401F04C
:0135F00022B8
:0B3A4A00900000EBF0A3EAF0A3E9F00D
:103A5500121CAE900003F07D867FFF12431090008C
:103A650003E0FD7FF4124310E4900004F09000039E
:103A7500E0FFA3E0FED39F5029EE24E4FFEE2401EE
:103A8500FDE433FC900000E0FBA3E0FAA3E0F98D30
:103A9500828C83121CC7FD124310900004E004F0D1
:093AA50080CB7D037FF902431080
:1042CF0090009B7405F0A37450F0A37484F0A37452
:1042DF0010F0E4A3F0A37405F07B017A00799B0240
:0242EF003A4A49
:102DD700900001121FAC000000007D827FFF1243AC
:102DE700107D037FC71243107F327E007D007C0079
:102DF700123EB47FCD1241F0900000EFF0546064B2
:102E0700606003022E9EE0540FFFE4FCFDFEFBFA18
:102E17007901F8121E42900001121FA07FCE1241C5
:102E2700F0900000EFF0A3E0F8A3E0F9A3E0FAA325
:102E3700E0FB900000E07F00FEE4FCFDEF2BFFEAE3
:102E47003EFEED39FDEC38FCA3121FA07FCF1241E7
:102E5700F0900000EFF0A3E0F8A3E0F9A3E0FAA3F5
:102E6700E0FB900000E0FFE4FCFDFEEB2FFFEE3AF5
:102E7700FEED39FDEC38FCA3121FA07BFF7A077922
:102E870090123240900001E0FCA3E0FDA3E0FEA316
:102E9700E0FF12205780097BFF7A0779A51232409D
:102EA7007D827FFF1243107D047FC71243107F325C
:102EB7007E007D007C00123EB47FCD1241F0900071
:102EC70000EFF0546064606003022F62E0540FFF6C
:102ED700E4FCFDFEFBFA7901F8121E429000011294
:102EE7001FA07FCE1241F0900000EFF0A3E0F8A3FF
:102EF700E0F9A3E0FAA3E0FB900000E07F00FEE426
:102F0700FCFDEF2BFFEA3EFEED39FDEC38FCA3128A
:102F17001FA07FCF1241F0900000EFF0A3E0F8A3CD
:102F2700E0F9A3E0FAA3E0FB900000E0FFE4FCFD7A
:102F3700FEEB2FFFEE3AFEED39FDEC38FCA3121F36
:102F4700A07BFF7A0779C0123240900001E0FCA312
:102F5700E0FDA3E0FEA3E0FF0220577BFF7A07799D
:042F6700D51232400D
:012F6B002243
:014466002233
:014467002232
:014468002231
:10434A007D827FFF1243107D0A7F581243107D80C1
:0C435A007F591243107DF77F9E02431034
:10342B00900004EDF0900003EFF064017042A3E014
:10343B007D827FFF60201243107DFF7F07124310B8
:10344B007D3F7F071243107D3F7F031243107BFFAD
:10345B007A0779F080171243107DFF7F0712431014
:10346B007DFF7F031243107BFF7A08791B123240DA
:10347B00900003E064027042A3E07D827FFF602036
:10348B001243107DFF7F041243107DFE7F04124315
:10349B00107DFEE4FF1243107BFF7A0879478017FB
:1034AB001243107DFF7F041243107DFFE4FF124394
:0B34BB00107BFF7A0879761232402265
:10378F0012439B90007DEFF07D827FFF1243107DEF
:10379F00FF7F071243107D3F7F0712431090007D7C
:1037AF00E060467BFF7A0879A6123240E4FF123FB1
:1037BF00B77D017F0212342B7F647E007D007C0079
:1037CF00123EB412003A120DC5900089E0641F60DA
:1037DF000C1229BE1230F5123885023B101243F03D
:1037EF007BFF7A0879D40232407BFF7A0979141271
:0F37FF0032407F01123FB7E4FD7F0212342B22CC
:104008007BFF7A0979451232407D827FFF12431087
:104018007DFF7F9E1243107DF77F9E1243107DFF28
:104028007F041243107DFE7F04124310120DC590C9
:104038000089E0641F600C1229BE1230F512388521
:10404800023B101243F07BFF7A0979671232402253
:10396D007D867FFF1243107FD21241F0900003EF4E
:10397D00F07BFF7A0979AB900013F0123240900082
:10398D0003E030E1127BFF7A0979C41232407B01EA
:10399D007A00798B12355E900003E030E0097BFFF1
:1039AD007A0979D01232407D867FFF1243107D7FD8
:1039BD007FFC124310E4FD7FFC1243107D827FFFDC
:1039CD001243107DFF7F051243107D7F7F0502435B
:0139DD0010D9
:1040A7007BFF7A0979E31232407D827FFF1243104A
:1040B7007F0C1241F0900001EFF07F0D1241F0905C
:1040C7000002EFF07F0F1241F0900000EFF0900038
:1040D70002E030E70312396D900000E054C060033E
:0D40E70012378F900001E030E00312400816
:0140F40022A9
:102F6C009000CFEBF0A3EAF0A3E9F07D827FFF1293
:102F7C0043109000CFE0FBA3E0FAA3E0F99000042B
:102F8C00121E0AFFAEF0900002121E0A2FE5F03E50
:102F9C00FD7FA31243109000CFE0FBA3E0FAA3E067
:102FAC00F9900004121E0AFFAEF0900002121E0AE5
:102FBC002FFFE5F03EAD077FA41243109000CFE049
:102FCC00FBA3E0FAA3E0F990000E121E0AFFAEF08C
:102FDC0090000C121E0A2FFFE5F03EAD077FA512E4
:102FEC0043109000CFE0FBA3E0FAA3E0F9900006B9
:102FFC00121E0AE5F0FD7FA61243109000CFE0FBF5
:10300C00A3E0FAA3E0F9900006121E0AFD7FA712B6
:10301C0043109000CFE0FBA3E0FAA3E0F99000107E
:10302C00121E0AE5F0FD7FA81243109000CFE0FBC2
:10303C00A3E0FAA3E0F9900010121E0AFD7FA9127A
:10304C0043109000CFE0FBA3E0FAA3E0F990000856
:10305C00121E0AE5F0FD7FAA1243109000CFE0FB90
:10306C00A3E0FAA3E0F9900008121E0AFD7FAB1250
:10307C0043109000CFE0FBA3E0FAA3E0F99000121C
:10308C00121E0AE5F0FD7FAC1243109000CFE0FB5E
:10309C00A3E0FAA3E0F9900012121E0AFD7FAD1214
:1030AC0043109000CFE0FBA3E0FAA3E0F9900002FC
:1030BC00121E0AE5F0FD7FAE1243109000CFE0FB2C
:1030CC00A3E0FAA3E0F9900002121E0AFD7FAF12F2
:1030DC0043109000CFE0FBA3E0FAA3E0F990000CC2
:0930EC00121E0AFD7FB002431020
:10337200900018121F709000B7121FA07BFF7A09ED
:1033820079FF1232409000B7E0FCA3E0FDA3E0FE1B
:10339200A3E0FF1220577D837FFF1243107D507FF1
:1033A2002D1243107F287E887D047C009000B7E0B8
:1033B200F8A3E0F9A3E0FAA3E0FBC3121F5F700ECB
:1033C2007DB67F261243107DF07F271243107F14B3
:1033D2007E447D027C009000B7E0F8A3E0F9A3E010
:1033E200FAA3E0FBC3121F5F70077DB77F2612436B
:1033F200107F0A7E227D017C009000B7E0F8A3E0F6
:10340200F9A3E0FAA3E0FBC3121F5F70077D9C7F64
:10341200261243107D807FFF1243107D5A7F1112C6
:0934220043107DFA7F11024310F2
:10441A007D827FFF1243107D807F4F1243107D20E3
:05442A007F5002431069
:1039DE0090007F74FFF0A3740AF0A374D1F0123C30
:1039EE0092123AAE12441A1229BE90007FE0FBA347
:1039FE00E0FAA3E0F9122F6C1238851238FA123B56
:103A0E00101244677D827FFF1243107D8C7FD61289
:103A1E0043107D067FD71243107D847FFF12431023
:103A2E007D0C7F061243107D107F071243107D011F
:0C3A3E007F161243107DD47F3402431029
:1035F100123C92123AAE12003A123D4A1234C67F80
:10360100E87E037D007C00123EB4120DC51229BE76
:103611001230F5123BD31242F11242AC123885122C
:1036210038FA12434A1241BF7F01123B721244051C
:103631007BFF7A0A7912123240122DD71244681296
:1036410044661244677D017F0112342BE4FD7F0241
:1036510012342B12378F9000D4E0600B1240A7E494
:103661009000D4F0439B0290008AE060E990008DC5
:0E367100E0B485031242CFE490008AF080D8C6
:03003B0002426519
:10426500C0E0C083C082C0D0E5ECB4080575EC00A1
:10427500C2899000D47401F0539BFDD0D0D082D078
:0442850083D0E032D0
:0300000002367F46
:0C367F00787FE4F6D8FD7581210236C684
:103E5B009000BB121FA0538EF7438901D28CE4FF55
:103E6B00FEFDFC9000BBE0F8A3E0F9A3E0FAA3E0B1
:103E7B00FBC3121F5F602F758A7E758CFF308DFD23
:103E8B00C28D9000BBE0FCA3E0FDA3E0FEA3E02409
:103E9B00FFFFEE34FFFEED34FFFDEC34FFFC900032
:093EAB00BB121FA080B8C28C22DA
:103EB40090004D121FA0538EF7438901D28CE4FF6A
:103EC400FEFDFC90004DE0F8A3E0F9A3E0FAA3E0C6
:103ED400FBC3121F5F602F758ACA758CFA308DFD83
:103EE400C28D90004DE0FCA3E0FDA3E0FEA3E0241E
:103EF400FFFFEE34FFFEED34FFFDEC34FFFC9000D9
:093F04004D121FA080B8C28C22EE
:103F0D009000BF121FA0538EEF438910D28EE4FF95
:103F1D00FEFDFC9000BFE0F8A3E0F9A3E0FAA3E0FA
:103F2D00FBC3121F5F602F758BEA758DCB308FFD34
:103F3D00C28F9000BFE0FCA3E0FDA3E0FEA3E02450
:103F4D00FFFFEE34FFFEED34FFFDEC34FFFC90007F
:093F5D00BF121FA080B8C28E2221
:103CEE009000C3121FA053C9BF53C9DF43C910D2DE
:103CFE00CAE4FFFEFDFC9000C3E0F8A3E0F9A3E0E8
:103D0E00FAA3E0FBC3121F5F602F75CC3075CDF8A0
:103D1E0030CFFDC2CF9000C3E0FCA3E0FDA3E0FED8
:103D2E00A3E024FFFFEE34FFFEED34FFFDEC34FF85
:0C3D3E00FC9000C3121FA080B8C2CA2273
:103DA5009000C7121FA075C40743C408E4FFFEFDB9
:103DB500FC9000C7E0F8A3E0F9A3E0FAA3E0FBC399
:103DC500121F5F603275C52C75C6CFE5C430E4FBA4
:103DD50053C4EF9000C7E0FCA3E0FDA3E0FEA3E021
:103DE50024FFFFEE34FFFEED34FFFDEC34FFFC90C5
:0B3DF50000C7121FA080B553C4F722C6
:103E00009000CB121FA075C40743C408E4FFFEFD59
:103E1000FC9000CBE0F8A3E0F9A3E0FAA3E0FBC339
:103E2000121F5F603275C5D875C6FFE5C430E4FB6C
:103E300053C4EF9000CBE0FCA3E0FDA3E0FEA3E0C1
:103E400024FFFFEE34FFFEED34FFFDEC34FFFC9069
:0B3E500000CB121FA080B553C4F72266
:10253B00E5082450F582E43400F583E00508229089
:10254B00004D300703900050E475F001121FDD02BF
:10255B001CAE2000E97F2ED2008018EF540F249080
:10256B00D43440D4FF30040BEF24BFB41A00500313
:10257B002461FFE50960021509050CE50C700205E5
:10258B000B30070E90004DE475F001121FDDEF02CA
:10259B001CF40242197403D2078003E4C207F50846
:1025AB0090004D121FF4E4F509F50BF50CE50960ED
:1025BB00077F2012257E80F5750AFFC201C200C27B
:1025CB0002C203C205C206C20812254AFF700D30B3
:1025DB0007057F0012258FAF0CAE0B22B4255FC20F
:1025EB00D5C20412254AFF24D0B40A00501A75F044
:1025FB000A780930D50508B6FF0106C6A426F620D1
:10260B00D5047002D20380D924CFB41A00EF500442
:10261B00C2E5D204022881D20180C6D20080C0D28A
:10262B000280BCD2D580BAD20580B47F2012257E21
:10263B002002077401B5090040F112253BFF12255A
:10264B007E0225B8D208D206809512253BFB1225B7
:10265B003BFA12253BF94A4B7006797F7A297BFFAF
:10266B0020022EE509602A7E008E82758300121CE3
:10267B00C760060EEE650A70F0C2D5EBC0E0EAC08B
:10268B00E0E9C0E0EE1228E2D0E0F9D0E0FAD0E0C9
:10269B00FB121CAEFF60AAEBC0E0EAC0E0E9C0E0B1
:1026AB0012257ED0E02401F9D0E03400FAD0E0FB13
:1026BB00E50A0460DCD50AD98087D20280A21228F1
:1026CB00C460F7E50A700104121814A90A600DE53D
:1026DB000A600914F50A12296CEF60F3EA30E7027D
:1026EB00F404C3995079EAF4250A0430E701E404B1
:1026FB00F50A800D1228C460C1EA050A250A1218D2
:10270B0014EA90007CF030E701E4250A04D50A04B2
:10271B00200501141228E2E4C0E012296C90007C21
:10272B00E0601320E70714F0122566802204F0D036
:10273B00E014C0E07F00122566E50A600712255DF4
:10274B00150A800B30050312255DD0E00225B8D0A9
:10275B00E00480C41228C4609EE50A041218149089
:10276B00007CEAF0E50A200502600104240412282B
:01277B00E27B
:10277C0074FF04C0E012296C122566E50A200502DC
:10278C00600312255DD0E0B50AE87F4512257090F4
:10279C00007CE07F2B30E7047F2DF404C0E0122591
:1027AC007ED0E075F00A84C0F0122567D0E01225C7
:1027BC00670225B8791080027908C206C208800821
:1027CC00D2D5790A8004790AC2D5E50A047002F5DB
:1027DC000AE4FAFDFEFF12253BFC7B0820011312D4
:1027EC00253BFD7B1030000A12253BFE12253BFFDA
:1027FC007B20EC3382D592D55013C3E43000069F76
:10280C00FFE49EFEE42001039DFDE49CFCE4CBF878
:10281C00C201EC700CCFCECDCCE824F8F870F3806C
:10282C0017C3EF33FFEE33FEED33FDEC33FCEB332C
:10283C00FB994002FB0FD8E9EB300105F8D0E0C45E
:10284C0048B201C0E00AEC4D4E4F78207B0070C2BC
:10285C00EAB50A0040BCC0E01228E4D0F0D0E02079
:10286C000104C4C0E0C4B201C0F0122567D0F0D599
:10287C00F0EB0225B8121FFD26555327C05826260B
:10288C004C26224227C44F27CC4427CC49263B4315
:10289C0027D25526FF46275F4526C947299F502634
:1028AC002A2D262E2E26512B263223264F202988E0
:1028BC002A25EA4800002649E50AB4FF03750A06F2
:1028CC0012253BFC12253BFD12253BFE12253BFF3E
:1028DC00900075021851790AA2D52003143005090D
:1028EC00B910020404B9080104A2D5200602500153
:1028FC00042002689202B509005034C0E07F2030F9
:10290C0003197F30A20272067205500F12293BC2C6
:10291C0002C206C205C2087F30800F300503E9C031
:10292C00E012257E300503D0E0F9D0E0B509CC30BB
:10293C0005177F30B9100C12257E7F583004077FA5
:10294C00788003B9080312257E3002057F2D0225FD
:10295C007E7F202008F87F2B2006F322920280CF66
:10296C007F00B40700500B2475F582E43400F58326
:10297C00E0FF22286E756C6C2900D20112253B30C9
:10298C0001F8C201780930D50108F60225EA2D506C
:10299C0043495812253B2403B405004001E4902917
:1029AC009A9312256F743A12256FD203750904029B
:0229BC0027C032
:10181400F920E73624F950037907E4F42402FBE5C0
:1018240082158270021583DBF6E024FB501BE9600D
:1018340014E4F0E582158270021583E004F0B40A22
:0D18440008E4F0D9EE7401F00A22C2D522AA
:10185100ED33EC3392D5FA602AB4FF33EDC2E77B66
:10186100FF60067A187976E4227A18797F20D50408
:101871007A18797A224E614E002B494E46002D4945
:101881004E4600E47A08F0A3DAFC7B00740722C01C
:1018910083C082ECC0E0EDC0E0EEC0E0EFC0E0EA62
:1018A10075F010A4CAABF075F04DA42BFBE435F034
:1018B100FCEA2410FAEB34C5FBEC34D9FCEDC2E7A9
:1018C100FF75F056A4F42411C5F0F434C58FF0A4CB
:1018D1002AE5F03BE43CF020E714121C24D0E0FFA1
:1018E100D0E0FED0E0FDD0E0FC121B578014F404E0
:1018F100121C24D0E0FFD0E0FED0E0FDD0E0FC12CD
:101901001A4ED082D083E0FAEDD2E7CD33EC332406
:1019110082FBE4C3CF33CFCE33CECD33CD33DBF334
:101921007B0775F00A846004F0A31B0AE5F0F0A3BD
:101931008FF0740AA4FFACF08EF0740AA42CFEACF4
:10194100F050010C8DF0740AA42CFDE435F0F0A3E5
:05195100DBDE7407223B
:10195600021C99E86480F8E933E83360110460F00A
:10196600ED33EC337009E8FCE9FDEAFEEBFF2204F7
:1019760060DED3EB9FEA9EE99DE8C2E78CF0C2F7F2
:1019860095F0400CE8CCF8E9CDF9EACEFAEBCFFBBE
:10199600121C6485D0F05804700320D5B3E8047097
:1019A600075002B2D5021CA392D5EC0460F7E4CC32
:1019B600C0E0C398F8603B94186008400DD0E0FB87
:1019C600021C7BE4FBFAC9FC8028E830E406E4C983
:1019D600FBE4CAFCE830E305E4C9CACBFCE85407DB
:1019E6006010F8C3E913F9EA13FAEB13FBEC13FCE6
:1019F600D8F130F52FC3E49CFCEF9BFFEE9AFEED89
:101A060099FDD0E0FBEF4E4D4C701222DB03021C19
:101A1600A0EC2CFCEF33FFEE33FEED33FDED30E7AB
:101A2600EB021C7BEF2BFFEE3AFEED39FDD0E0FB1F
:101A360050130BBB0003021CA3ED13FDEE13FEEFC8
:081A460013FFEC13FC021C7BF2
:101A4E00EC4D6011E8497017ED33EC3304600DE492
:101A5E00FCFFFEFD22E933E8330470F8021C9912F4
:101A6E001C6458046009E4CC2481500628500902F5
:101A7E001CA3284003021CA0C0E0EB4A7044B980AE
:101A8E0006D0E0FB021C8FEF4E701CBD8008EBFFF2
:101A9E00EAFEE9FD80EBE98DF0A4FEE5F0021B37CE
:101AAE00E9CDF9EAFEEBFFEF89F0A4FCE5F0CE8973
:101ABE00F0A42EFFE435F0CD89F0A42DFEE435F030
:101ACE008067EF4E7005BD80D780C3EF8BF0A4AC5E
:101ADE00F0EE8BF0A42CFCE435F0F8EF8AF0A42C99
:101AEE00E5F038FCE433CB8DF0A42CFCE5F03BF8AC
:101AFE00EE8AF0A42CFCE5F038F8E433CF89F0A49C
:101B0E002CFCE5F038CF3400CE89F0A42FFFE5F0A1
:101B1E003EFEE433C98DF0A42EFEE5F039CD8AF0F9
:101B2E00A42FFFE5F03EFEE43DFD33D0E0FB500771
:101B3E000BBB000F021CA3EC2CFCEF33FFEE33FEAD
:061B4E00ED33FD021C7BDB
:101B5400021CA3EC5D046005E859047003021C999F
:101B6400121C64580460F6EC4860F2EC7004FDFE4C
:101B7400FF22C860DB2481C85009C3986002500664
:101B8400021CA09850CAF582E9294B4A7005AB8221
:101B9400021C8F75F0007C1A7880C3EF9BEE9AEDDF
:101BA40099400DC3EF9BFFEE9AFEED99FDE842F0DC
:101BB400DC23ACF0D0E0FFD0E0FED0E0FDAB82202F
:101BC400E7101BEB60BAEC2CFCEF33FFEE33FEEDB9
:101BD40033FD021C7BE803F830E705C0F075F00024
:101BE400EF2FFFEE33FEED33FD40B830E7C280AA9D
:101BF4003F8000004120000042C80000447A0000F9
:101C0400461C400047C35000497424004B1896807A
:101C14004CBEBC205A0E1BCA6753C21C749DC5AE71
:101C2400FB60065407601C2323121C52EB543860DB
:101C340009121C3E121C4D121A4EECF8EDF9EEFA84
:101C4400EFCB22EB121C4D80F1543803241C901B63
:101C5400F4FE93FC0EEE93FD0EEE930ECE93FF2254
:101C6400E9D2E7C933E833F892D5EDD2E7CD33ECC6
:071C740033FC5002B2D5223F
:101C7B00EC30E7100FBF000C0EBE00080DBD0004CA
:101C8B000BEB6014A2D5EB13FCED92E7FD2274FF76
:101C9B00FCFDFEFF22E480F8A2D574FF13FC7D80CF
:031CAB00E480EFE3
:10368B00024240E493A3F8E493A34003F68001F2D3
:10369B0008DFF48029E493A3F85407240CC8C33340
:1036AB00C4540F4420C8834004F456800146F6DF0F
:1036BB00E4800B0102040810204080904366E47EF6
:1036CB00019360BCA3FF543F30E509541FFEE49304
:1036DB00A360010ECF54C025E060A840B8E493A3CB
:1036EB00FAE493A3F8E493A3C8C582C8CAC583CAF6
:1036FB00F0A3C8C582C8CAC583CADFE9DEE780BEAE
:01438000003C
:101CAE00BB010689828A83E0225002E722BBFE0234
:091CBE00E32289828A83E4932267
:101CC700BB010CE58229F582E5833AF583E02250D2
:101CD70006E92582F8E622BBFE06E92582F8E2221C
:0D1CE700E58229F582E5833AF583E4932236
:101CF400BB010689828A83F0225002F722BBFE01CF
:021D0400F322C8
:101D0600F8BB010DE58229F582E5833AF583E8F013
:101D1600225006E92582C8F622BBFE05E92582C8BF
:021D2600F222A7
:101D2800BC000BBE0029EF8DF084FFADF022E4CC9F
:101D3800F875F008EF2FFFEE33FEEC33FCEE9DEC68
:101D4800984005FCEE9DFE0FD5F0E9E4CEFD22EDAE
:101D5800F8F5F0EE8420D21CFEADF075F008EF2FF8
:101D6800FFED33FD4007985006D5F0F222C398FDE9
:051D78000FD5F0EA2286
:101D7D00C2D5EC30E709B2D5E4C39DFDE49CFCEE81
:101D8D0030E715B2D5E4C39FFFE49EFE121D28C3B4
:101D9D00E49DFDE49CFC8003121D2830D507C3E4AF
:061DAD009FFFE49EFE22F0
:101DB300C5F0F8A3E028F0C5F0F8E58215827002BB
:061DC3001583E038F02258
:101DC900A3F8E0C5F025F0F0E582158270021583CD
:061DD900E0C838F0E8222A
:101DDF00BB010A89828A83E0F5F0A3E022500687CF
:101DEF00F009E71922BBFE07E3F5F009E319228991
:0B1DFF00828A83E493F5F074019322C4
:101E0A00BB0110E58229F582E5833AF583E0F5F016
:101E1A00A3E0225009E92582F886F008E622BBFEF3
:101E2A000AE92582F8E2F5F008E222E5832AF58339
:081E3A00E993F5F0A3E99322FE
:101E4200E88FF0A4CC8BF0A42CFCE98EF0A42CFC3F
:101E52008AF0EDA42CFCEA8EF0A4CDA8F08BF0A4BD
:101E62002DCC3825F0FDE98FF0A42CCD35F0FCEB1C
:101E72008EF0A4FEA9F0EB8FF0A4CFC5F02ECD39E1
:0F1E8200FEE43CFCEAA42DCE35F0FDE43CFC224E
:101E910075F008758200EF2FFFEE33FECD33CDCC08
:101EA10033CCC58233C5829BED9AEC99E58298408B
:101EB1000CF582EE9BFEED9AFDEC99FC0FD5F0D668
:101EC100E4CEFBE4CDFAE4CCF9A88222B800C1B992
:101ED1000059BA002DEC8BF084CFCECDFCE5F0CBD0
:101EE100F97818EF2FFFEE33FEED33FDEC33FCEB09
:101EF10033FB10D703994004EB99FB0FD8E5E4F9C4
:101F0100FA227818EF2FFFEE33FEED33FDEC33FCB0
:101F1100C933C910D7059BE99A4007EC9BFCE99AA4
:101F2100F90FD8E0E4C9FAE4CCFB2275F010EF2FE9
:101F3100FFEE33FEED33FDCC33CCC833C810D707E9
:101F41009BEC9AE899400AED9BFDEC9AFCE899F824
:0E1F51000FD5F0DAE4CDFBE4CCFAE4C8F922B7
:101F5F00EB9FF5F0EA9E42F0E99D42F0E89C45F0D8
:011F6F00224F
:101F7000BB010DE58229F582E5833AF58302202F26
:101F80005007E92582F8022023BBFE07E92582F8E5
:101F900002203BE58229F582E5833AF5830220475A
:0C1FA000ECF0A3EDF0A3EEF0A3EFF022B4
:101FAC00A8828583F0D083D082121FC3121FC31264
:101FBC001FC3121FC3E473E493A3C583C5F0C58389
:101FCC00C8C582C8F0A3C583C5F0C583C8C582C87F
:011FDC0022E2
:101FDD00F8E0FBA3A3E0F925F0F0E582158270028D
:071FED001583E0FA38F02231
:091FF400EBF0A3EAF0A3E9F022EE
:101FFD00D083D082F8E4937012740193700DA3A373
:10200D0093F8740193F5828883E473740293686086
:06201D00EFA3A3A380DF86
:10421900EFB40A07740D124224740A309811A89950
:10422900B8130CC2983098FDA899C298B811F63005
:0742390099FDC299F59922DD
:0C202300E6FC08E6FD08E6FE08E6FF22E9
:0C202F00E0FCA3E0FDA3E0FEA3E0FF2224
:0C203B00E2FC08E2FD08E2FE08E2FF22E1
:10204700E493FC740193FD740293FE740393FF22DF
:00000001FF
