:03419D0030780077
:103F1C0053B1BF53B2BF53B17F53B27F7598504367
:103F2C008920438780438E1053C4DFAB07AA06A9B0
:103F3C0005A8047F407E427D0F7C00121DC2EF0459
:093F4C00F404F58DD28ED2992205
:08419500C2998F993099FD22B7
:03003700024195EE
:103E3A00AB07AA067C007D0A121C72C3EF940AEE35
:103E4A00648094805005EF2430800E7C007D0AAF98
:103E5A0003AE02121C72EF2457FF1200377C007D5A
:103E6A000AAF03AE02121C72C3ED940AEC6480948A
:0F3E7A0080ED5004243080022457FF12003722BD
:10370E0090004AEEF0A3EFF07BFF7A41799D1224F0
:10371E009B7F027E007D007C00123C8E90004AE072
:10372E00FEA3E0FF7C007D10121C72C3EF940AEE24
:10373E00648094805005EF2430801290004AE0FEA1
:10374E00A3E0FF7C007D10121C72EF2457FF1200C5
:10375E003790004AE0FEA3E0FF7C007D10121C7241
:10376E00C3ED940AEC64809480ED50042430800202
:07377E002457FF120037225F
:061F4C0090000F121E952B
:101F5200E4900013F0A3121EA10000000090000FF5
:101F6200E0FCA3E0FDA3E0FEA3E0FF900014121E3C
:101F7200957F201200377F7F7E967D987C009000AF
:101F820014E0F8A3E0F9A3E0FAA3E0FBD3121E5495
:101F9200407A7B807A9679987800900014E0FCA3CE
:101FA200E0FDA3E0FEA3E0FF121DC2E47B0AFAF902
:101FB200F8D3121E547B807A967998780090001498
:101FC200E0FCA3E0FDA3E0FEA3E0FF4008121DC277
:101FD200EF24308006121DC2EF2457FF1200379003
:101FE2000014E0FCA3E0FDA3E0FEA3E0FF7B807A07
:101FF2009679987800121DC2AC00AD01AE02AF0313
:10200200900014121E959000137401F07F3F7E42DF
:102012007D0F7C00900014E0F8A3E0F9A3E0FAA39E
:10202200E0FBD3121E54407C7B407A42790F780049
:10203200900014E0FCA3E0FDA3E0FEA3E0FF121D6C
:10204200C2E47B0AFAF9F8D3121E547B407A427931
:102052000F7800900014E0FCA3E0FDA3E0FEA3E0F3
:10206200FF4008121DC2EF24308006121DC2EF2469
:1020720057FF120037900014E0FCA3E0FDA3E0FE3E
:10208200A3E0FF7B407A42790F7800121DC2AC00B8
:10209200AD01AE02AF03900014121E9590001374AE
:1020A20001F0800B900013E060057F301200377F53
:1020B2009F7E867D017C00900014E0F8A3E0F9A3E6
:1020C200E0FAA3E0FBD3121E54500302215D7BA071
:1020D2007A8679017800900014E0FCA3E0FDA3E089
:1020E200FEA3E0FF121DC2E47B0AFAF9F8D3121E26
:1020F200547BA07A864019097800900014E0FCA372
:10210200E0FDA3E0FEA3E0FF121DC2EF2430801821
:1021120079017800900014E0FCA3E0FDA3E0FEA3A7
:10212200E0FF121DC2EF2457FF120037900014E0A7
:10213200FCA3E0FDA3E0FEA3E0FF7BA07A86790189
:102142007800121DC2AC00AD01AE02AF03900014C4
:10215200121E959000137401F0800B900013E06042
:10216200057F30120037E47F0F7E27FDFC900014BC
:10217200E0F8A3E0F9A3E0FAA3E0FBD3121E545067
:102182000302220EE47B107A27F9F8900014E0FC97
:10219200A3E0FDA3E0FEA3E0FF121DC2E47B0AFA66
:1021A200F9F8D3121E54E47B107A274017F89000F6
:1021B20014E0FCA3E0FDA3E0FEA3E0FF121DC2EFCA
:1021C20024308016F9F8900014E0FCA3E0FDA3E0AF
:1021D200FEA3E0FF121DC2EF2457FF12003790004A
:1021E20014E0FCA3E0FDA3E0FEA3E0FFE47B107A91
:1021F20027F9F8121DC2AC00AD01AE02AF03900088
:1022020014121E959000137401F0800B900013E0DD
:1022120060057F30120037E47FE77E03FDFC90000B
:1022220014E0F8A3E0F9A3E0FAA3E0FBD3121E54F2
:1022320050030222BFE47BE87A03F9F8900014E02D
:10224200FCA3E0FDA3E0FEA3E0FF121DC2E47B0AB3
:10225200FAF9F8D3121E54E47BE87A034017F89097
:102262000014E0FCA3E0FDA3E0FEA3E0FF121DC208
:10227200EF24308016F9F8900014E0FCA3E0FDA3EF
:10228200E0FEA3E0FF121DC2EF2457FF12003790B9
:102292000014E0FCA3E0FDA3E0FEA3E0FFE47BE882
:1022A2007A03F9F8121DC2AC00AD01AE02AF039081
:1022B2000014121E959000137401F0800B9000130D
:1022C200E060057F30120037E47F63FEFDFC900082
:1022D20014E0F8A3E0F9A3E0FAA3E0FBD3121E5442
:1022E200500302236CE47B64FAF9F8900014E0FCDA
:1022F200A3E0FDA3E0FEA3E0FF121DC2E47B0AFA05
:10230200F9F8D3121E54E47B644017F8900014E0ED
:10231200FCA3E0FDA3E0FEA3E0FF121DC2EF243008
:102322008017FAF9F8900014E0FCA3E0FDA3E0FEA8
:10233200A3E0FF121DC2EF2457FF120037900014D2
:10234200E0FCA3E0FDA3E0FEA3E0FFE47B64FAF976
:10235200F8121DC2AC00AD01AE02AF039000141220
:102362001E959000137401F0800B900013E060053D
:102372007F30120037E47B0AFAF9F8900014E0FC8F
:10238200A3E0FDA3E0FEA3E0FF121DC2E47B0AFA74
:10239200F9F8D3121E54E44017F8900014E0FCA39D
:1023A200E0FDA3E0FEA3E0FF121DC2EF243080197E
:1023B2007B0AFAF9F8900014E0FCA3E0FDA3E0FE2A
:1023C200A3E0FF121DC2EF2457FF120037E47B0A7D
:1023D200FAF9F8900014E0FCA3E0FDA3E0FEA3E00C
:1023E200FF121DC2AC00AD01AE02AF03E47B0AFADC
:1023F200F9F8D3121E54E44017F8900014E0FCA33D
:10240200E0FDA3E0FEA3E0FF121DC2EB2430801921
:102412007B0AFAF9F8900014E0FCA3E0FDA3E0FEC9
:0D242200A3E0FF121DC2EB2457FF1200378C
:01242F00228A
:0B2FDB0090000FEBF0A3EAF0A3E9F078
:102FE60090003A121EA100000000E490003EF0A3FB
:102FF600F0F9A3C9F0A3F0A3E9F0E4A3F0F9A3C99B
:10300600F0A3F0A3E9F0A37401F0A37400F0A37495
:1030160012F090000FE0F9A3E0FAA3E0900044C993
:10302600F0A3EAF0A3E9F0900044E0FBA3E0FAA3E2
:10303600E0F9121BC5700302310C642560030230EF
:10304600F2900044A3E475F001121CA8A9F0FA124C
:103056001BC524DB70030230E024E1602B24EC6006
:103066005024F4602324EC604824157072900047C5
:10307600E0FBA3E475F002121CBEA9F0FA121CD400
:10308600900043F0E0FF8054900047E0FBA3E47516
:10309600F001121CBEA9F0FA121BC5FF90003EE417
:1030A600F0A3EFF090003EA3E0FF7E00123E3A80D0
:1030B6002E900047E0FBA3E475F001121CBEA9F0B8
:1030C600FA121BC5FF90003EE4F0A3EFF090003E1D
:1030D600E0FEA3E0FF12370E80057F251200379031
:1030E6000045E475F001121CA802302D900044E062
:1030F600FBA3E475F001121CBEA9F0FA121BC5FF72
:0631060012003702302D1B
:01310C0022A0
:103D97000D0A23232323232323232323232323231B
:103DA7002323232323232323232323236D63752003
:103DB700737461727423232323232323232323234D
:103DC70023232323232323232323232323232323BC
:103DD700232323000D0A697271207461736B2E2EE1
:023DE7002E00AC
:0440FE004100B000CD
:103E890043B30153B4FE43B30253B4FD43B30453E4
:103E9900B4FB43B10853B2F743B11053B2EF53AC7B
:103EA900FE43AD0143B30843B40843B31043B41010
:103EB9007F007EC27D017C00123F1C53E9FB43E970
:0D3EC9002043EA0853EBF7439B02D2AF22DF
:1040E400C2B07FC87E007D007C00123C8ED2B07FBF
:0A40F400C87E007D007C00023C8EB7
:103F8600123E897BFF7A3D7997122FDB1240E412AD
:103F9600386C9000B0E060FA7BFF7A3D79DB122F37
:0E3FA600DB123339E49000B0F0439B0280E45C
:044102004100AE7654
:07416900124170D2937F0A9E
:0A417000E4FEEEC39F50030E80F83A
:01417A002222
:10411500D2947F01124169C2947F07124170C29304
:054125007F0102417062
:0C418900C2947F02124169D2940241707E
:023DE900AD0724
:103DEB00E4FCEDA804088002C333D8FC30E704D20E
:103DFB00948002C2947F03124170D2930F124170D0
:103E0B00C2930CECB408DB7F01124170D2947F0398
:103E1B00124170D293124170309407E49000AFF0CE
:0F3E2B0080069000AF7401F0C2937F03024170D4
:10000300E4FDD294FC7F01124170C2937F0412413C
:1000130070D2937F02124170ED25E0FD3094010D03
:100023007F021241700CECB408DBC2937F051241CE
:0300330070AF05A6
:0100360022A7
:1040C800EF7004C2948002D2947F08124170D29398
:0C40D8007F0F124170C2937F08024170FC
:073A0D00900011EDF0AC0781
:103A1400124115AF04123DE99000AFE07002802D11
:103A2400900011E0FF123DE99000AFE07002801DAC
:103A3400E4900016F0900015E0FFA3E0C39F50222D
:103A4400121BC5FF123DE99000AFE07006124189D8
:103A54007F0022740129F9E43AFA900016E004F098
:073A640080D31241897F01AC
:013A6B002238
:08368A00900010EFF0A3EDF039
:10369200124115900010E0FF123DE99000AFE0707A
:1036A200028022900011E0FF123DE99000AFE0702D
:1036B200028012124115900010E004FF123DE990C1
:1036C20000AFE07009124189E4121C0BFF22E49062
:1036D2000016F0900015E014FFA3E0C39F501B12E8
:1036E2000003EF121C0BE4FF1240C8740129F9E435
:1036F2003AFA900016E004F080D9120003EF121C8F
:0B3702000B7F011240C81241897F01BB
:01370D002299
:023FB400AE0756
:103FB600E490000FF09000AEE0FFAD067B017A00C2
:103FC600790F9000157401F012368AEF60069000A2
:063FD6000FE0FF227F0056
:013FDC0022C2
:02412A00AE07DE
:10412C009000AEE0FFAD0690008DE0900015F0120F
:02413C00368AC1
:01413E00225E
:07408D0090000FEDF0AE07FB
:104094009000AEE0FFAD067B017A00790F90001529
:0640A4007401F0123A0D58
:0140AA0022F3
:02413F00AE07C9
:104141009000AEE0FFAD06900092E0900015F012F5
:024151003A0D25
:014153002249
:10003E000D0A4C54393631312072696E672043688F
:10004E006970204944203D20257820002025780025
:10005E000D0A4C54393631315F4D4950495F496E66
:10006E007075745F44696774613A206C7439363107
:10007E003120736574206D697069206C616E6573D3
:10008E00203D202564000D0A4C54393631315F4D28
:10009E004950495F496E7075745F44696774613A7F
:1000AE00206C743936313120736574206D69706936
:1000BE0020706F727473203D2031000D0A4C54393C
:1000CE003631315F4D4950495F496E7075745F44EA
:1000DE00696774613A206C743936313120736574F6
:1000EE00206D69706920706F7274203D2032000D92
:1000FE000A4C54393631312E6D6970695F6D6F64FB
:10010E0065203D20637369000D0A4C543936313138
:10011E002E6D6970695F6D6F6465203D2064736933
:10012E00000D0A766964656F20636865636B3A201B
:10013E004C54393631312E6D6970695F6D6F64655F
:10014E00203D20637369000D0A766964656F206334
:10015E006865636B3A204C54393631312E6D6970B7
:10016E00695F6D6F6465203D20647369000D0A4CF4
:10017E0054393631315F566964656F5F4368656324
:10018E006B3A20685F6163745F612C20685F616306
:10019E00745F622C20765F6163742C20765F7461CD
:1001AE006C3A20000D0A4C54393631315F56696471
:1001BE00656F5F436865636B3A206D6970695F7642
:1001CE006964656F5F666F726D61743A20257800A1
:1001DE000D0A566964656F5F436865636B203D2049
:1001EE00766964656F5F363430783438305F363018
:1001FE00487A20000D0A566964656F5F436865632F
:10020E006B203D20766964656F5F37323078343805
:10021E00305F3630487A20000D0A566964656F5F8C
:10022E00436865636B203D20766964656F5F373286
:10023E0030783537365F3530487A20000D0A5669EA
:10024E0064656F5F436865636B203D207669646506
:10025E006F5F31323830783732305F3630487A203F
:10026E00000D0A566964656F5F436865636B203DD8
:10027E0020766964656F5F31323830783732305F9F
:10028E003530487A20000D0A566964656F5F436801
:10029E0065636B203D20766964656F5F313238305F
:1002AE00783732305F3330487A20000D0A56696451
:1002BE00656F5F436865636B203D20766964656F8B
:1002CE005F3139323078313038305F3630487A200D
:1002DE00000D0A566964656F5F436865636B203D68
:1002EE0020766964656F5F3139323078313038305D
:1002FE005F3530487A20000D0A566964656F5F439A
:10030E006865636B203D20766964656F5F313932B5
:10031E003078313038305F3330487A20000D0A564D
:10032E006964656F5F436865636B203D2076696421
:10033E00656F5F3139323078313038305F32354861
:10034E007A20000D0A566964656F5F436865636BBA
:10035E00203D20766964656F5F31393230783130F7
:10036E0038305F3234487A20000D0A566964656F62
:10037E005F436865636B203D20766964656F5F330C
:10038E0038343078323136305F3330487A20000DD1
:10039E000A566964656F5F436865636B203D20761E
:1003AE006964656F5F3338343078323136305F329E
:1003BE0035487A20000D0A566964656F5F4368659B
:1003CE00636B203D20766964656F5F333834307817
:1003DE00323136305F3234487A20000D0A56696465
:1003EE00656F5F436865636B203D20766964656F5A
:1003FE005F383030783630305F3630487A20000D36
:10040E000A566964656F5F436865636B203D2076AD
:10041E006964656F5F31303234783736385F363025
:10042E00487A20000D0A566964656F5F43686563FC
:10043E006B203D20766964656F5F313238307837D6
:10044E0036385F3630487A20000D0A566964656F7B
:10045E005F436865636B203D20766964656F5F312D
:10046E0032383078313032345F3630487A20000DF1
:10047E000A566964656F5F436865636B203D20763D
:10048E006964656F5F3136303078313230305F36C7
:10049E0030487A20000D0A566964656F5F436865BF
:1004AE00636B203D20766964656F5F313638307836
:1004BE00313035305F3630487A20000D0A56696487
:1004CE00656F5F436865636B203D20766964656F79
:1004DE005F31333636783736385F3630487A20001B
:1004EE000D0A566964656F5F436865636B203D2036
:1004FE00766964656F5F37323078313038305F3609
:10050E0030487A20000D0A566964656F5F4368654E
:10051E00636B203D20766964656F5F3130383078CB
:10052E00313932305F3630487A20000D0A56696410
:10053E00656F5F436865636B203D20766964656F08
:10054E005F3338343078313038305F3630487A2087
:10055E00000D0A566964656F5F436865636B203DE5
:10056E0020766964656F5F31303234783630305FB3
:10057E003630487A20000D0A566964656F5F43680D
:10058E0065636B203D20766964656F5F313238306C
:10059E00783830305F3630487A20000D0A5669645C
:1005AE00656F5F436865636B203D20766964656F98
:1005BE005F353430783936305F3630487A20000D6A
:1005CE000A566964656F5F436865636B203D2076EC
:1005DE006964656F5F3235363078313630305F366C
:1005EE0030487A20000D0A566964656F5F4368656E
:1005FE00636B203D20766964656F5F3235363078E7
:10060E00313434305F3630487A20000D0A56696432
:10061E00656F5F436865636B203D20766964656F27
:10062E005F3235363078313038305F3630487A20A8
:10063E00000D0A566964656F5F436865636B203D04
:10064E0020756E6B6E6F776E20766964656F2066AF
:10065E006F726D617420000D0A4C54393631315F62
:10066E00504C4C3A2073657420727820706C6C205C
:10067E003D20000D0A4C54393631315F504C4C3A06
:10068E00207063725F6D203D2025782C2068646D8C
:10069E00695F706F73745F646976203D2025640016
:1006AE000D0A4C54393631315F504C4C3A20484487
:1006BE004D4920706C6C206C6F636B6564000D0A85
:1006CE004C54393631315F504C4C3A2048444D49E8
:1006DE0020706C6C20756E6C6F636B65642C207271
:1006EE006573657420706C6C000D0A4C543936318C
:1006FE00315F4353433A2059706270722034323264
:10070E0020746F20524742383838000D0A41756404
:10071E00696F20696E7574203D2049325320326313
:10072E0068000D0A417564696F20696E7574203D0D
:10073E00205350444946000D0A706F7274204120B8
:10074E006279746520636C6B203D20000D0A706F1A
:10075E0072742041206279746520636C6B20756E13
:10076E00737461626C65000D0A706F7274204220A2
:10077E006279746520636C6B203D20000D0A706FEA
:10078E0072742042206279746520636C6B20756EE2
:10079E00737461626C65000D0A48746F74616C5FEE
:1007AE00537973636C6B203D20000D0A706F727469
:1007BE002041206C616E6520504E20697320726955
:1007CE00676874000D0A706F72742041206C616E40
:1007DE006520504E206572726F7220307838336209
:1007EE0063203D202578000D0A706F727420412021
:1007FE006C616E65203020736F7420726967687447
:10080E0020000D0A706F72742041206C616E65209D
:10081E003020736F74206572726F72203D202578C0
:10082E00000D0A706F72742041206C616E6520316C
:10083E0020736F7420726967687420000D0A706FE0
:10084E0072742041206C616E65203120736F7420AC
:10085E006572726F72203D202578000D0A706F72DE
:10086E00742041206C616E65203220736F7420728B
:10087E006967687420000D0A706F72742041206CD5
:10088E00616E65203220736F74206572726F7220F4
:10089E003D202578000D0A706F72742041206C6126
:1008AE006E65203320736F74207269676874200040
:1008BE000D0A706F72742041206C616E65203320BA
:1008CE00736F74206572726F72203D202578000D53
:1008DE000A706F72742041206C616E652030207337
:1008EE006574746C65203D202578000D0A706F725A
:1008FE00742041206C616E65203120736574746CB8
:10090E0065203D202578000D0A706F7274204120FD
:10091E006C616E65203220736574746C65203D20A9
:10092E002578000D0A706F72742041206C616E651F
:10093E00203320736574746C65203D202578000D7E
:10094E000A456E74657220495251205461736B3A98
:10095E000048444D4920646973636F6E6E6563741D
:10096E0065640048444D4920636F6E6E656374651F
:10097E0064006D69706920766964656F20636861D3
:10098E006E6765643A20000D0A736574207069788D
:10099E00656C20636C6B203D20000D0A23232323FE
:1009AE0023232323232323234C5439363131204947
:1009BE006E697469616C20456E642323232323239F
:1009CE00232323232323232323232323000D0A441A
:1009DE006574656374206870642048696768000DEB
:1009EE000A44657465637420687064204C6F7700E8
:1009FE000008006000280280032000210002000A87
:100A0E0001E0020D0000000101000061A8001000CD
:100A1E003E003C02D0035A00090006001E01E0020F
:100A2E000D000000020100006978000C0040005823
:100A3E0002D003600005000500270240027100008D
:100A4E0000110100006978006E002800DC05000628
:100A5E007200050005001402D002EE01010004022E
:100A6E000001220A01B8002800DC050007BC0005C1
:100A7E000005001402D002EE010100130200012253
:100A8E000A0058002C009407800898000400050006
:100A9E0024043804650101001002000244140210FF
:100AAE00002C009407800A5000040005002404382E
:100ABE0004650101001F02000244140058002C00BE
:100ACE00940780089800040005002404380465018A
:100ADE00010022020001220A0210002C009407805D
:100AEE000A500004000500240438046501010021A9
:100AFE00020001220A027E002C009407800ABE002A
:100B0E0004000500240438046501010020020001E0
:100B1E00220A00B0005801280F0011300008000A08
:100B2E000048087008CA0101005F0200048828040A
:100B3E0020005801280F0014A00008000A004808E1
:100B4E007008CA0101005E020004882804FC0058E7
:100B5E0001280F00157C0008000A0048087008CA1A
:100B6E000101005D02000488280030008000580357
:100B7E002004200001000400170258027401010035
:100B8E00000000009C400018008800A004000540F2
:100B9E0000030006001D03000326000000000000F5
:100BAE0000FDE80040008000C00500068000030044
:100BBE000700140300031E00010000000001368C24
:100BCE000030007000F805000698000100030026B2
:100BDE000400042A01010000000001A5E00040000D
:100BEE00C001300640087000010003002E04B0045E
:100BFE00E20101000000000278D0006800B0011888
:100C0E00069008C000030006001E041A04410001ED
:100C1E0000000000023B4A06E0002800DC05000C44
:100C2E00E400050005001402D002EE0101000000F0
:100C3E000001220A003C003C006404000482000211
:100C4E000005000A0258026901010000000000843C
:100C5E00D00028002C00280320039C000A0004006A
:100C6E000C0500051A010100000000010C8E000E9B
:100C7E0000380040055605DC00010003001C03008F
:100C8E0003200101000000000121100030002000AF
:100C9E00500A000AA00003000600250640066E0159
:100CAE0001000000000418D40030002000500A009B
:100CBE000AA000030005002105A005C901010000DE
:100CCE00000003AF5C00F8002C00940A000AA0009C
:100CDE00040005000B0438044C0101000000000361
:100CEE00057000B0005801280F00113000040005F7
:100CFE000024043804650101000000000488280067
:100D0E000400050024043804650058002C009407E4
:100D1E00800898010100000000024414000500053F
:100D2E00001402D002EE006E002800DC05000672F0
:100D3E0001010000000001220A001E000A001E022E
:100D4E001C0262000A000A000A03C003DE01010051
:060D5E000000000082DC31
:0E4106004700810100010000000141007C0023
:103A6C007D807FFF12408D7D017FEE12408DE4FF43
:103A7C00123FB4900012EFF07BFF7A00793E122FC8
:103A8C00DB7F01123FB4900012EFF07BFF7A0079DC
:103A9C005A122FDB7F02123FB4900012EFF07BFF23
:103AAC007A00795A122FDB7D817FFF12408D7D18B1
:0C3ABC007F0112408D7D807FFF02408D55
:104028007D817FFF12408D7D487F0212408D7D800B
:104038007F2312408DE4FD7F3012408DE4FD7F0127
:0340480002408DA6
:103949007D827FFF12408D7D117F5112408D7D82D6
:103959007FFF12408D7D697F1B12408D7D787F1C12
:1039690012408D7D697FCB12408D7D787FCC1240CE
:103979008D7D807FFF12408D7DF07F0412408D7D0B
:10398900F07F0612408D7D807F0A12408D7D467F33
:103999000B12408D7DEF7F0D12408D7DFA7F110254
:0239A900408D4F
:103B24007D817FFF12408D7D207F0612408D7D3F79
:103B34007F0712408D7D3F7F0812408D7DFE7F0AF6
:103B440012408D7DBF7F0B12408D7D207F1112406E
:103B54008D7D3F7F1212408D7D3F7F1312408D7DFE
:103B6400FE7F1512408D7DBF7F1612408D7D037F31
:0B3B74001C12408D7D037F2002408D5D
:1034DC00900082E0900000F07BFF7A00795E900013
:1034EC0012F0122FDB7D827FFF12408D7D807F4F8B
:1034FC0012408D7D107F5012408D7D837FFF1240D6
:10350C008D900000E0FDE4FF12408D7D047F0212DF
:10351C00408D7D047F0612408D30900FE4FD7F0AB4
:10352C0012408D7BFF7A007994800D7D037F0A1207
:10353C00408D7BFF7A0079C9122FDB900083E07BF2
:10354C00FFB4011C7A0079FD122FDB7D837FFF1203
:10355C00408D7D107F0812408D7D407F2C02408D68
:07356C007A017916122FDB32
:013573002235
:100D6400E4900002F07D827FFF12408D7F86123F67
:100D7400B490000DE4F0A3EFF07F87123FB4EFFDD1
:100D84007C0090000EE0FEE42DFFEC3E90000DF0A0
:100D9400A3EFF07F82123FB4900009E4F0A3EFF0D8
:100DA4007F83123FB4EFFD7C0090000AE0FEE42D47
:100DB400FFEC3E900009F0A3EFF07F6C123FB4907B
:100DC400000BE4F0A3EFF07F6D123FB4EFFD7C0065
:100DD40090000CE0FEE42DFFEC3E90000BF0A3EF3E
:100DE400F07D837FFF12408D7F82123FB490000517
:100DF400E4F0A3EFF07F83123FB4EFFD7C0090009A
:100E040006E0FEE42DFFEC3E900005F0A3EFF07F3A
:100E140086123FB4900007E4F0A3EFF07F87123FFF
:100E2400B4EFFD7C00900008E0FEE42DFFEC3E9062
:100E34000007F0A3EFF0900083E07BFFB4011D7A7C
:100E440001792F122FDB900005E0C313F0A3E01308
:100E5400F0A3E0C313F0A3E013F080337A017955D3
:100E6400122FDB900005E0FEA3E0FF7C007D03125F
:100E74001C1D900005EEF0A3EFF0A3E0FEA3E0FF3D
:100E84007C007D03121C1D900007EEF0A3EFF07FA1
:100E940088123FB4900002EFF07BFF7A01797B1255
:100EA4002FDB900005E0FEA3E0FFE4FCFD121F4CE5
:100EB400900007E0FEA3E0FFE4FCFD121F4C90004D
:100EC40009E0FEA3E0FFE4FCFD121F4C90000BE0E0
:100ED400FEA3E0FFE4FCFD121F4C7BFF7A0179B214
:100EE400900002E0900012F0122FDB209018900086
:100EF40007E0FEA3E0FF900006E02FFF900005E06E
:100F04003E900003800B900005E0FFA3E0900003F7
:100F1400CFF0A3EFF0900A04E493FE740193FF90E2
:100F24000003E0B50638A3E0B50733900A0EE49356
:100F3400FE740193FF900009E0B50622A3E0B50713
:100F44001D7BFF7A0179DE122FDBE4900088F0909C
:100F5400007E74FFF0A37409F0A374FEF022900ADB
:100F640021E493FE740193FF900003E0B50639A3D6
:100F7400E0B50734900A2BE493FE740193FF9000CC
:100F840009E0B50623A3E0B5071E7BFF7A027902C8
:100F9400122FDB9000887401F090007E74FFF0A3A0
:100FA400740AF0A3741BF022900A3EE493FE7401C9
:100FB40093FF900003E0B50633A3E0B5072E900A33
:100FC40048E493FE740193FF900009E0B5061DA365
:100FD400E0B507187BFF7A027926122FDB90007E9A
:100FE40074FFF0A3740AF0A37438F022900A5BE44F
:100FF40093FE740193FF900003E06E7003A3E06F0F
:1010040060030210AB900A6593FE740193FF900095
:1010140009E06E7003A3E06F60030210ABC390009D
:101024000EE0947690000DE09402501E7BFF7A024D
:10103400794A122FDB9000887402F090007E74FFCE
:10104400F0A3740AF0A37455F022C390000EE09448
:10105400EE90000DE09402501E7BFF7A02796F122D
:101064002FDB900088740AF090007E74FFF0A37464
:101074000AF0A37472F022C390000EE094CE9000A4
:101084000DE09404400302172A7BFF7A027994123C
:101094002FDB900088740BF090007E74FFF0A37433
:1010A4000CF0A37425F022900A95E493FE74019346
:1010B400FF900003E06E7003A3E06F60030211C0B1
:1010C400900A9F93FE740193FF900009E06E7003F1
:1010D400A3E06F60030211C0C390000EE094AE90D1
:1010E400000DE09401501E7BFF7A0279B9122FDBC8
:1010F4009000887403F090007E74FFF0A3740AF0EB
:10110400A3748FF022C390000EE094FE90000DE0D3
:101114009401501E7BFF7A0279DF122FDB90008846
:101124007419F090007E74FFF0A3740AF0A374ACF9
:10113400F022C390000EE0943E90000DE094035022
:101144001E7BFF7A037905122FDB900088741AF056
:1011540090007E74FFF0A3740AF0A374C9F022C354
:1011640090000EE094D490000DE09403501E7BFF99
:101174007A03792B122FDB900088741BF090007E89
:1011840074FFF0A3740AF0A374E6F022C390000E77
:10119400E0940690000DE09404400302172A7BFFBC
:1011A4007A037951122FDB900088741CF090007E32
:1011B40074FFF0A3740BF0A37403F022900B26E4E5
:1011C40093FE740193FF900003E06E7003A3E06F3D
:1011D400600302127B900B3093FE740193FF900026
:1011E40009E06E7003A3E06F600302127BC39000FA
:1011F4000EE094AE90000DE09401501E7BFF7A0344
:101204007977122FDB900088740CF090007E74FFC5
:10121400F0A3740BF0A37420F022C390000EE094AA
:10122400EA90000DE09401501E7BFF7A03799D1231
:101234002FDB900088740DF090007E74FFF0A3748F
:101244000BF0A3743DF022C390000EE094089000CC
:101254000DE09402400302172A7BFF7A0379C3123C
:101264002FDB900088740EF090007E74FFF0A3745E
:101274000BF0A3745AF022900B7DE493FE74019357
:10128400FF900003E0B50639A3E0B50734900B875F
:10129400E493FE740193FF900009E0B50623A3E0F4
:1012A400B5071E7BFF7A0379E9122FDB900088745F
:1012B4001DF090007E74FFF0A3740BF0A37477F01C
:1012C40022900B9AE493FE740193FF900003E0B51F
:1012D4000639A3E0B50734900BA4E493FE7401939C
:1012E400FF900009E0B50623A3E0B5071E7BFF7A53
:1012F40004790D122FDB900088741DF090007E7429
:10130400FFF0A3740BF0A37494F022900BB7E49352
:10131400FE740193FF900003E0B50639A3E0B5071E
:1013240034900BC1E493FE740193FF900009E0B57F
:101334000623A3E0B5071E7BFF7A047932122FDB64
:10134400900088741DF090007E74FFF0A3740BF07D
:10135400A374B1F022900BD4E493FE740193FF9034
:101364000003E0B50639A3E0B50734900BDEE4933F
:10137400FE740193FF900009E0B50623A3E0B507CE
:101384001E7BFF7A047957122FDB900088741DF0BE
:1013940090007E74FFF0A3740BF0A374CEF022903F
:1013A4000BF1E493FE740193FF900003E0B506395A
:1013B400A3E0B50734900BFBE493FE740193FF9014
:1013C4000009E0B50623A3E0B5071E7BFF7A047984
:1013D4007D122FDB900088741DF090007E74FFF066
:1013E400A3740BF0A374EBF022900C0EE493FE7440
:1013F4000193FF900003E0B50639A3E0B5073490EC
:101404000C18E493FE740193FF900009E0B50623E1
:10141400A3E0B5071E7BFF7A0479A3122FDB9000AB
:1014240088741DF090007E74FFF0A3740CF0A37414
:1014340008F022900C82E493FE740193FF90000361
:10144400E0B50639A3E0B50734900C8CE493FE7440
:101454000193FF900009E0B50623A3E0B5071E7BC6
:10146400FF7A0479C9122FDB9000887415F090007C
:101474007E74FFF0A3740CF0A3747CF022900D3002
:10148400E493FE740193FF900003E0B50639A3E0F2
:10149400B50734900D3AE493FE740193FF9000096C
:1014A400E0B50623A3E0B5071E7BFF7A0479EE12AC
:1014B4002FDB9000887412F090007E74FFF0A37408
:1014C4000DF0A3742AF022900D13E493FE7401939B
:1014D400FF900003E0B50639A3E0B50734900D1D75
:1014E400E493FE740193FF900009E0B50623A3E0A2
:1014F400B5071E7BFF7A057913122FDB90008874E1
:1015040011F090007E74FFF0A3740DF0A3740DF03D
:1015140022900CF6E493FE740193FF900003E0B56F
:101524000639A3E0B50734900D00E493FE740193EB
:10153400FF900009E0B50623A3E0B5071E7BFF7A00
:10154400057939122FDB900088740FF090007E74B7
:10155400FFF0A3740CF0A374F0F022900C48E49311
:10156400FE740193FF900003E0B50639A3E0B507CC
:1015740034900C52E493FE740193FF900009E0B59B
:101584000623A3E0B5071E7BFF7A05795F122FDBE4
:101594009000887410F090007E74FFF0A3740CF037
:1015A400A37442F022900C65E493FE740193FF90BF
:1015B4000003E0B50639A3E0B50734900C6FE4935B
:1015C400FE740193FF900009E0B50623A3E0B5077C
:1015D4001E7BFF7A057984122FDB9000887413F048
:1015E40090007E74FFF0A3740CF0A3745FF022905B
:1015F4000D4DE493FE740193FF900003E0B50639AA
:10160400A3E0B50734900D57E493FE740193FF9063
:101614000009E0B50623A3E0B5071E7BFF7A057930
:10162400A9122FDB9000887414F090007E74FFF0F0
:10163400A3740DF0A37447F022900C9FE493FE74FE
:101644000193FF900003E0B50639A3E0B507349099
:101654000CA9E493FE740193FF900009E0B50623FE
:10166400A3E0B5071E7BFF7A0579CD122FDB90002E
:10167400887416F090007E74FFF0A3740CF0A374C9
:1016840099F022900CBCE493FE740193FF90000344
:10169400E0B50639A3E0B50734900CC6E493FE74B4
:1016A4000193FF900009E0B50623A3E0B5071E7B74
:1016B400FF7A0579F3122FDB9000887417F09000FD
:1016C4007E74FFF0A3740CF0A374B6F022900CD9CE
:1016D400E493FE740193FF900003E0B50639A3E0A0
:1016E400B50734900CE3E493FE740193FF90000972
:1016F400E0B50623A3E0B5071E7BFF7A067919122D
:101704002FDB9000887418F090007E74FFF0A374AF
:101714000CF0A374D3F022900088741DF07BFF7A40
:0617240006793F122FDBE5
:01172A00229C
:102B2200900003EBF0A3EAF0A3E9F07D837FFF12AC
:102B3200408D900003E0FBA3E0FAA3E0F9900012BD
:102B4200121CFFE5F0FD7F0D12408D900003E0FBAB
:102B5200A3E0FAA3E0F9900012121CFFFD7F0E120F
:102B6200408D900003E0FBA3E0FAA3E0F99000108F
:102B7200121CFFE5F0FD7F0F12408D900003E0FB79
:102B8200A3E0FAA3E0F9900010121CFFFD7F1012DF
:102B9200408D900003E0FBA3E0FAA3E0F990000867
:102BA200121CFFE5F0FD7F1112408D900003E0FB47
:102BB200A3E0FAA3E0F9900008121CFFFD7F1212B5
:102BC200408D900003E0FBA3E0FAA3E0F990000639
:102BD200121CFFE5F0FD7F1312408D900003E0FB15
:102BE200A3E0FAA3E0F9900006121CFFFD7F141285
:102BF200408D900003E0FBA3E0FAA3E0F990000C03
:102C0200121CFFFD7F1512408D900003E0FBA3E034
:102C1200FAA3E0F9900002121CFFFD7F1612408D0C
:102C2200900003E0FBA3E0FAA3E0F990000A121C73
:102C3200FFFD7F1712408D900003E0FBA3E0FAA393
:102C4200E0F990000E121CFFFFAEF090000C121C77
:102C5200FF2FFFE5F03EAD077F1812408D90000375
:102C6200E0FBA3E0FAA3E0F9121CD4FD7F191240A5
:102C72008D900003E0FBA3E0FAA3E0F990000412B8
:102C82001CFFFFAEF0900002121CFF2FE5F03EFD8C
:102C92007F1A12408D900003E0FBA3E0FAA3E0F953
:102CA200900004121CFFFFAEF0900002121CFF2FD6
:0B2CB200FFE5F03EAD077F1B02408DE8
:0B310D0090007EE0FBA3E0FAA3E0F9D5
:10311800E4900002F0900014121BDEF4900002F01C
:10312800900015121BDEF4FF900002E0FE25E02F50
:10313800F07D837FFF12408D7D017F0B12408D7DD6
:10314800107F0C12408DE4FD7F4812408D7D817FF9
:103158004912408D7D4A7F2112408D7D717F241256
:10316800408D7D307F2512408D7D017F2A12408D54
:103178007D407F4A12408D900002E04410FD7F1D83
:1031880012408D900088E024F424FC500E604B24FB
:10319800FC604724FE24FD5002805B2090587D038C
:1031A8007F0B12408D7DD07F0C12408D7D037F48B0
:1031B80012408D7DE07F4912408D7D727F24124040
:1031C8008DE4FD7F2512408D7D017F2A12408D7D83
:1031D800107F4A12408D7D1080177D707F24124029
:1031E8008D7D807F2512408D7D107F2A12408D7D38
:1031F800F07F1D12408D90007EE0FBA3E0FAA3E073
:10320800F9122B227D837FFF12408D90007DE0FD17
:103218007F2612408D7D807FFF12408D7D5A7F1161
:0A32280012408D7DFA7F1102408DE7
:0B28B30090007EE0FBA3E0FAA3E0F938
:1028BE00900019121E65900002121E957BFF7A067B
:1028CE007965122FDB900002E0FCA3E0FDA3E0FE91
:1028DE00A3E0FF121F4C7D817FFF12408D7D407F54
:1028EE002312408D7D627F2412408D7D807F2512C4
:1028FE00408D7D557F2612408D7D377F2C12408D69
:10290E007D017F2F12408D7D557F2612408D7D6675
:10291E007F2712408D7D887F2812408D7FF07E4963
:10292E007D027C00900002E0F8A3E0F9A3E0FAA398
:10293E00E0FBD3121E54400F7D887F2D12408D90E8
:10294E0000067401F080387F707E117D017C00904E
:10295E000002E0F8A3E0F9A3E0FAA3E0FBD3121E15
:10296E0054400F7D997F2D12408D9000067402F019
:10297E00800D7DAA7F2D12408D9000067404F0E428
:10298E007F05FEFDFC900002E0F8A3E0F9A3E0FA5B
:10299E00A3E0FB121D37A804A905AA06AB079000F9
:1029AE0006E0FFE4FCFDFE121D37E47B787A69F940
:1029BE00F8121DC290007DEFF07BFF7A067981E060
:1029CE00900012F0900006E0900013F0122FDB7DC5
:1029DE00837FFF12408D7D407F2D12408D7D087FBD
:1029EE003112408D90007DE04480FD7F2612408D97
:1029FE00900002E0FCA3E0FDA3E0FEA3E0FFE47B79
:102A0E0002FAF9F8121DC2900002121E957D827F05
:102A1E00FF12408DE4FBFA7901F8900002E0FCA36E
:102A2E00E0FDA3E0FEA3E0FF121DC2AD077FE3129F
:102A3E00408D900002A3A3E0FEA3E0FFE4FDFC9016
:102A4E000002121E95E4FB7A01F9F8900002E0FCF8
:102A5E00A3E0FDA3E0FEA3E0FF121DC2AD077FE4DD
:102A6E0012408D900002E0FCA3A3E0FEA3E0FFE481
:102A7E00AD077FE512408D7D207FDE12408D7DE01B
:102A8E007FDE12408D7D807FFF12408D7DF17F169F
:102A9E0012408D7DF37F1612408DE4900007F07D7D
:102AAE00807FFF12408D7DE37F1612408D7DF37F78
:102ABE001612408D7D827FFF12408D7F15123FB41E
:102ACE00EF30E7097BFF7A0679AE022FDB7D807F40
:102ADE00FF12408D7D5A7F1112408D7DFA7F1112AB
:102AEE00408D7DDC7F1812408D7DFC7F1812408D4D
:102AFE007DF17F1612408D7DF37F1612408D7BFF88
:102B0E007A0679CC122FDB900007E004F0E0C39434
:032B1E0006408CE2
:012B21002291
:1037F9007D817FFF12408D7D6A7F3012408D900060
:1038090086E070047D7380027D447F3112408D7D96
:103819004A7F3212408D7D0B7F3312408DE4FD7F4C
:103829003412408DE4FD7F3512408DE4FD7F361260
:10383900408D7D447F3712408D7D0F7F3F12408D33
:103849007DA07F4012408D7DA07F4112408D7DA0DB
:103859007F4212408D7DA07F4312408D7D0A7F44B7
:0338690002408D8D
:1039AB007D817FFF12408D7D407F2312408D7D8274
:1039BB007FFF12408D7D207FDE12408D7DE07FDE0C
:1039CB0012408D7D807FFF12408D7DDC7F18124071
:1039DB008D7DFC7F1812408D7DF17F1612408D7D01
:1039EB00F37F1612408D7D5A7F1112408D7DFA7F29
:1039FB001112408D7D817FFF12408D7DEA7F300259
:023A0B00408DEC
:01003A0022A3
:0B37850090007EE0FBA3E0FAA3E0F957
:10379000900016121CFF900002F0900018121BDE21
:1037A000900003F07D847FFF12408D900003E0C401
:1037B00054F0FF900002E0FEC374569EC39FFD7F4D
:1037C0004312408D7D107F4412408D900003E0C471
:1037D00054F02408FD7F4512408D900002E0FD7FEB
:1037E0004712408D7D847FFF12408D7D027F101235
:0937F000408D7D647F1202408DC2
:10406E00900083E0B401177D827FFF12408D7D1892
:0F407E007FB912408D7BFF7A0679F7122FDB2274
:10360000900085E070417BFF7A077919122FDB7DEE
:10361000827FFF12408D7D8C7FD612408D7D047F8E
:10362000D712408D7D847FFF12408D7D087F06126A
:10363000408D7D107F0712408D7D297F0F12408DB8
:103640007DD47F3412408D900085E06401703A7B18
:10365000FF7A077930122FDB7D827FFF12408D7D4C
:103660008C7FD612408D7D047FD712408D7D847F64
:10367000FF12408D7D0C7F0612408D7D107F07125A
:0A368000408D7DD47F3412408D226E
:103ED6007D827FFF12408D7D0A7F5812408D7D8046
:103EE6007F5912408D7DF77F9E12408D7DFEE4FF47
:103EF60012408D7D3F7F0312408D7DFF7F0412406F
:103F06008D7DFE7F0412408D7DFF7F0712408D7DE3
:063F16003F7F0702408D11
:0141A00022FC
:1040AB007D827FFF12408D7F5E123FB4EF30E207BF
:0D40BB0090007C7401F022E490007CF02263
:10404B007D857FFF12408D7D1F7F0712408D7DFE8A
:10405B007F1312408D7D0F7F1712408D7D057F15CD
:03406B0002408D83
:103F55007D807FFF12408D7D7F7F1412408D7DFF18
:103F65007F1412408D7D857FFF12408D7D017F1569
:103F750012408D7D717F1512408D7D657F15024044
:013F85008DAE
:0E417B007D857FFF12408D7D457F1502408DB2
:102CBD00900001121EA1000000007D827FFF1240D6
:102CCD008D7D037FC712408D7F327E007D007C009D
:102CDD00123C8E7FCD123FB4900000EFF054606433
:102CED00606003022D84E0540FFFE4FCFDFEFBFA4F
:102CFD007901F8121D37900001121E957FCE123FFB
:102D0D00B4900000EFF0A3E0F8A3E0F9A3E0FAA37C
:102D1D00E0FB900000E07F00FEE4FCFDEF2BFFEAFE
:102D2D003EFEED39FDEC38FCA3121E957FCF123F10
:102D3D00B4900000EFF0A3E0F8A3E0F9A3E0FAA34C
:102D4D00E0FB900000E0FFE4FCFDFEEB2FFFEE3A10
:102D5D00FEED39FDEC38FCA3121E957BFF7A077949
:102D6D0045122FDB900001E0FCA3E0FDA3E0FEA3E4
:102D7D00E0FF121F4C80097BFF7A07795A122FDB77
:102D8D007D827FFF12408D7D047FC712408D7F3283
:102D9D007E007D007C00123C8E7FCD123FB49000F2
:102DAD0000EFF0546064606003022E48E0540FFFA2
:102DBD00E4FCFDFEFBFA7901F8121D3790000112BB
:102DCD001E957FCE123FB4900000EFF0A3E0F8A364
:102DDD00E0F9A3E0FAA3E0FB900000E07F00FEE441
:102DED00FCFDEF2BFFEA3EFEED39FDEC38FCA312A6
:102DFD001E957FCF123FB4900000EFF0A3E0F8A333
:102E0D00E0F9A3E0FAA3E0FB900000E0FFE4FCFD95
:102E1D00FEEB2FFFEE3AFEED39FDEC38FCA3121E52
:102E2D00957BFF7A077975122FDB900001E0FCA3EB
:102E3D00E0FDA3E0FEA3E0FF021F4C7BFF7A0779C4
:042E4D008A122FDBDB
:012E5100225E
:103D4000E4900002F07D827FFF12408D7F86123F5B
:103D5000B4900000E4F0A3EFF07F87123FB4EFFDD2
:103D60007C00900001E0FEE42DFFEC3E900000F0AE
:103D7000A3EFF07BFF7A0779A5122FDB900000E01C
:103D8000FEA3E0FFE4FCFD121F4C900002E004F0F3
:063D9000E0C3940A40AFFD
:013D9600220A
:0141A10022FB
:103232007D837FFF12408D7FBC123FB4900000EF70
:10324200F07BFFBF55067A0779B8800C7A0779D2EE
:10325200900000E0900012F0122FDB7F99123FB431
:10326200900000EFF07BFFBFB8067A0779F5800C7B
:103272007A087910900000E0900012F0122FDB7FA4
:103282009B123FB4900000EFF07BFFBFB8067A08B4
:10329200792F800C7A08794A900000E0900012F0B1
:1032A200122FDB7F9D123FB4900000EFF07BFFBF37
:1032B200B8067A087969800C7A087984900000E06F
:1032C200900012F0122FDB7F9F123FB4900000EFAC
:1032D200F07BFFBFB8067A0879A3800C7A0879BE22
:1032E200900000E0900012F0122FDB7F9A123FB4A0
:1032F200900012EFF07BFF7A0879DD122FDB7F9CC2
:10330200123FB4900012EFF07BFF7A0879F9122F86
:10331200DB7F9E123FB4900012EFF07BFF7A0979B7
:1033220015122FDB7FA0123FB4900012EFF07BFF4B
:073332007A097931022FDB5B
:103339007BFF7A09794D122FDB7D827FFF12408D49
:103349007F0F123FB4900000EFF07F0C123FB49052
:103359000001EFF0900000E054C0FFBFC018124018
:10336900AB7D827FFF12408D7DFF7F0712408D7DEF
:103379003F7F0712408D900000E030E7247BFF7A01
:1033890009795F122FDB12417B12003A7D827FFFA0
:1033990012408D7DBF7F0712408D7D3F7F07124010
:1033A9008D900000E030E6247BFF7A097971122FB5
:1033B900DB123F551239AB7D827FFF12408D7D7F35
:1033C9007F0712408D7D3F7F0712408D900001E0FD
:1033D90030E0467BFF7A097980122FDB7D827FFFFF
:1033E90012408D7DFF7F9E12408D7DF77F9E12409A
:1033F9008D7DFF7F0412408D7DFE7F0412408D7FFD
:10340900647E007D007C00123C8E120D641228B38C
:0934190012310D1237851239AB96
:013422002287
:102E52009000ABEBF0A3EAF0A3E9F07D827FFF12D2
:102E6200408D9000ABE0FBA3E0FAA3E0F9900004F0
:102E7200121CFFFFAEF0900002121CFF2FE5F03E85
:102E8200FD7FA312408D9000ABE0FBA3E0FAA3E02C
:102E9200F9900004121CFFFFAEF0900002121CFF1A
:102EA2002FFFE5F03EAD077FA412408D9000ABE00E
:102EB200FBA3E0FAA3E0F990000E121CFFFFAEF0B4
:102EC20090000C121CFF2FFFE5F03EAD077FA5120C
:102ED200408D9000ABE0FBA3E0FAA3E0F99000067E
:102EE200121CFFE5F0FD7FA612408D9000ABE0FBC7
:102EF200A3E0FAA3E0F9900006121CFFFD7FA712DF
:102F0200408D9000ABE0FBA3E0FAA3E0F990001043
:102F1200121CFFE5F0FD7FA812408D9000ABE0FB94
:102F2200A3E0FAA3E0F9900010121CFFFD7FA912A2
:102F3200408D9000ABE0FBA3E0FAA3E0F99000081B
:102F4200121CFFE5F0FD7FAA12408D9000ABE0FB62
:102F5200A3E0FAA3E0F9900008121CFFFD7FAB1278
:102F6200408D9000ABE0FBA3E0FAA3E0F9900012E1
:102F7200121CFFE5F0FD7FAC12408D9000ABE0FB30
:102F8200A3E0FAA3E0F9900012121CFFFD7FAD123C
:102F9200408D9000ABE0FBA3E0FAA3E0F9900002C1
:102FA200121CFFE5F0FD7FAE12408D9000ABE0FBFE
:102FB200A3E0FAA3E0F9900002121CFFFD7FAF121A
:102FC200408D9000ABE0FBA3E0FAA3E0F990000C87
:092FD200121CFFFD7FB002408DCE
:10342300900019121E65900093121E957BFF7A0976
:103433007995122FDB900093E0FCA3E0FDA3E0FE5F
:10344300A3E0FF121F4C7D837FFF12408D7D507FD1
:103453002D12408D7F287E887D047C00900093E0B0
:10346300F8A3E0F9A3E0FAA3E0FBC3121E54700E25
:103473007DB67F2612408D7DF07F2712408D7F140D
:103483007E447D027C00900093E0F8A3E0F9A3E082
:10349300FAA3E0FBC3121E5470077DB77F261240C8
:1034A3008D7F0A7E227D017C00900093E0F8A3E0EB
:1034B300F9A3E0FAA3E0FBC3121E5470077D9C7FBF
:1034C3002612408D7D807FFF12408D7D5A7F111221
:0934D300408D7DFA7F1102408D4D
:104154007D827FFF12408D7D807F4F12408D7D20B8
:054164007F5002408DB8
:1038DD0090007E74FFF0A3740AF0A3748FF0123A77
:1038ED006C1239491241541228B390007EE0FBA3AB
:1038FD00E0FAA3E0F9122E521237851237F9123978
:10390D00AB1241A17D827FFF12408D7D8C7FD6123F
:10391D00408D7D067FD712408D7D847FFF12408DB7
:10392D007D0C7F0612408D7D107F0712408D7D012D
:0C393D007F1612408D7DD47F3402408D37
:10386C00123A6C123949123B241234DC7FE87E0385
:10387C007D007C00123C8E120D641228B312310DA7
:10388C0012360012406E12404B1237851237F91265
:10389C003ED67BFF7A0979A8122FDB1240AB900041
:1038AC007CE07BFF60127A0979DB122FDB1241A0DE
:1038BC001239AB123F55800D7A0979ED122FDB12BC
:1038CC00417B12003A122CBD123232123D400241A1
:0138DC00A14A
:03003B000240047C
:10400400C0E0C083C082C0D0E5ECB4080575EC0004
:10401400C2899000B07401F0539BFDD0D0D082D0FF
:0440240083D0E03233
:0300000002357452
:0C357400787FE4F6D8FD7581210235BB9C
:103C3500900097121E95538EF7438901D28CE4FFAD
:103C4500FEFDFC900097E0F8A3E0F9A3E0FAA3E0FD
:103C5500FBC3121E54602F758A7E758CFF308DFD57
:103C6500C28D900097E0FCA3E0FDA3E0FEA3E02455
:103C7500FFFFEE34FFFEED34FFFDEC34FFFC90005A
:093C850097121E9580B8C28C2232
:103C8E0090004C121E95538EF7438901D28CE4FF9F
:103C9E00FEFDFC90004CE0F8A3E0F9A3E0FAA3E0EF
:103CAE00FBC3121E54602F758ACA758CFA308DFDB7
:103CBE00C28D90004CE0FCA3E0FDA3E0FEA3E02447
:103CCE00FFFFEE34FFFEED34FFFDEC34FFFC900001
:093CDE004C121E9580B8C28C2224
:103CE70090009B121E95538EEF438910D28EE4FFEE
:103CF700FEFDFC90009BE0F8A3E0F9A3E0FAA3E047
:103D0700FBC3121E54602F758BEA758DCB308FFD68
:103D1700C28F90009BE0FCA3E0FDA3E0FEA3E0249C
:103D2700FFFFEE34FFFEED34FFFDEC34FFFC9000A7
:093D37009B121E9580B8C28E2279
:103AC80090009F121E9553C9BF53C9DF43C910D236
:103AD800CAE4FFFEFDFC90009FE0F8A3E0F9A3E034
:103AE800FAA3E0FBC3121E54602F75CC3075CDF8D5
:103AF80030CFFDC2CF90009FE0FCA3E0FDA3E0FE25
:103B0800A3E024FFFFEE34FFFEED34FFFDEC34FFAD
:0C3B1800FC90009F121E9580B8C2CA22CB
:103B7F009000A3121E9575C40743C408E4FFFEFD11
:103B8F00FC9000A3E0F8A3E0F9A3E0FAA3E0FBC3E5
:103B9F00121E54603275C52C75C6CFE5C430E4FBD8
:103BAF0053C4EF9000A3E0FCA3E0FDA3E0FEA3E06D
:103BBF0024FFFFEE34FFFEED34FFFDEC34FFFC90ED
:0B3BCF0000A3121E9580B553C4F7221E
:103BDA009000A7121E9575C40743C408E4FFFEFDB2
:103BEA00FC9000A7E0F8A3E0F9A3E0FAA3E0FBC386
:103BFA00121E54603275C5D875C6FFE5C430E4FBA1
:103C0A0053C4EF9000A7E0FCA3E0FDA3E0FEA3E00D
:103C1A0024FFFFEE34FFFEED34FFFDEC34FFFC9091
:0B3C2A0000A7121E9580B553C4F722BE
:10243000E508244FF582E43400F583E00508229096
:10244000004C30070390004FE475F001121ED202D9
:102450001BC52000E97F2ED2008018EF540F249076
:10246000D43440D4FF30040BEF24BFB41A0050031F
:102470002461FFE50960021509050CE50C700205F1
:102480000B30070E90004CE475F001121ED2EF02E3
:102490001C0B023FDD7403D2078003E4C207F5087A
:1024A00090004C121EE9E4F509F50BF50CE5096006
:1024B000077F2012247380F5750AFFC201C200C293
:1024C00002C203C205C206C20812243FFF700D30CB
:1024D00007057F00122484AF0CAE0B22B4255FC227
:1024E000D5C20412243FFF24D0B40A00501A75F05C
:1024F0000A780930D50508B6FF0106C6A426F620DD
:10250000D5047002D20380D924CFB41A00EF50044E
:10251000C2E5D204022776D20180C6D20080C0D2A2
:102520000280BCD2D580BAD20580B47F2012247339
:102530002002077401B5090040F1122430FF122473
:10254000730224ADD208D2068095122430FB1224E7
:1025500030FA122430F94A4B700679747A287BFFDE
:1025600020022EE509602A7E008E82758300121BF0
:10257000DE60060EEE650A70F0C2D5EBC0E0EAC080
:10258000E0E9C0E0EE1227D7D0E0F9D0E0FAD0E0E1
:10259000FB121BC5FF60AAEBC0E0EAC0E0E9C0E0A7
:1025A000122473D0E02401F9D0E03400FAD0E0FB2B
:1025B000E50A0460DCD50AD98087D20280A21227FE
:1025C000B960F7E50A70010412172BA90A600DE53E
:1025D0000A600914F50A122861EF60F3EA30E70295
:1025E000F404C3995079EAF4250A0430E701E404BD
:1025F000F50A800D1227B960C1EA050A250A1217EB
:102600002BEA90007BF030E701E4250A04D50A04A8
:10261000200501141227D7E4C0E012286190007B46
:10262000E0601320E70714F012245B802204F0D04E
:10263000E014C0E07F0012245BE50A600712245218
:10264000150A800B300503122452D0E00224ADD0CD
:10265000E00480C41227B9609EE50A0412172B908B
:10266000007BEAF0E50A2005026001042404122739
:01267000D792
:1026710074FF04C0E012286112245BE50A20050200
:102681006003122452D0E0B50AE87F451224659018
:10269100007BE07F2B30E7047F2DF404C0E012249F
:1026A10073D0E075F00A84C0F012245CD0E01224EB
:1026B1005C0224AD791080027908C206C208800844
:1026C100D2D5790A8004790AC2D5E50A047002F5E7
:1026D1000AE4FAFDFEFF122430FC7B0820011312EC
:1026E1002430FD7B1030000A122430FE122430FF0A
:1026F1007B20EC3382D592D55013C3E43000069F82
:10270100FFE49EFEE42001039DFDE49CFCE4CBF884
:10271100C201EC700CCFCECDCCE824F8F870F38078
:1027210017C3EF33FFEE33FEED33FDEC33FCEB3338
:10273100FB994002FB0FD8E9EB300105F8D0E0C46A
:1027410048B201C0E00AEC4D4E4F78207B0070C2C8
:10275100EAB50A0040BCC0E01227D9D0F0D0E02091
:102761000104C4C0E0C4B201C0F012245CD0F0D5B1
:10277100F0EB0224AD121EF2254A5326B558251B53
:102781004C25174226B94F26C14426C1492530435D
:1027910026C75525F44626544525BE47289450257D
:1027A1001F2D25232E25462B252723254420287D33
:1027B1002A24DF480000253EE50AB4FF03750A0616
:1027C100122430FC122430FD122430FE122430FF7A
:1027D100900074021768790AA2D520031430050904
:1027E100B910020404B9080104A2D520060250015F
:1027F100042002689202B509005034C0E07F203005
:1028010003197F30A20272067205500F122830C2DE
:1028110002C206C205C2087F30800F300503E9C03D
:10282100E0122473300503D0E0F9D0E0B509CC30D3
:1028310005177F30B9100C1224737F583004077FBD
:10284100788003B908031224733002057F2D022416
:10285100737F202008F87F2B2006F322920280CF7D
:102861007F00B40700500B2474F582E43400F58333
:10287100E0FF22286E756C6C2900D20112243030E1
:1028810001F8C201780930D50108F60224DF2D5084
:102891004349581224302403B405004001E4902830
:1028A1008F93122464743A122464D20375090402CA
:0228B10026B54A
:10172B00F920E73624F950037907E4F42402FBE5AA
:10173B0082158270021583DBF6E024FB501BE960F7
:10174B0014E4F0E582158270021583E004F0B40A0C
:0D175B0008E4F0D9EE7401F00A22C2D52294
:10176800ED33EC3392D5FA602AB4FF33EDC2E77B50
:10177800FF60067A17798DE4227A17799620D504C6
:101788007A177991224E614E002B494E46002D4919
:101798004E4600E47A08F0A3DAFC7B00740722C006
:1017A80083C082ECC0E0EDC0E0EEC0E0EFC0E0EA4C
:1017B80075F010A4CAABF075F04DA42BFBE435F01E
:1017C800FCEA2410FAEB34C5FBEC34D9FCEDC2E793
:1017D800FF75F056A4F42411C5F0F434C58FF0A4B5
:1017E8002AE5F03BE43CF020E714121B3BD0E0FF75
:1017F800D0E0FED0E0FDD0E0FC121A6E8014F404B4
:10180800121B3BD0E0FFD0E0FED0E0FDD0E0FC12A0
:101818001965D082D083E0FAEDD2E7CD33EC3324DA
:1018280082FBE4C3CF33CFCE33CECD33CD33DBF31E
:101838007B0775F00A846004F0A31B0AE5F0F0A3A7
:101848008FF0740AA4FFACF08EF0740AA42CFEACDE
:10185800F050010C8DF0740AA42CFDE435F0F0A3CF
:05186800DBDE74072225
:10186D00021BB0E86480F8E933E83360110460F0DE
:10187D00ED33EC337009E8FCE9FDEAFEEBFF2204E1
:10188D0060DED3EB9FEA9EE99DE8C2E78CF0C2F7DC
:10189D0095F0400CE8CCF8E9CDF9EACEFAEBCFFBA8
:1018AD00121B7B85D0F05804700320D5B3E804706B
:1018BD00075002B2D5021BBA92D5EC0460F7E4CC06
:1018CD00C0E0C398F8603B94186008400DD0E0FB71
:1018DD00021B92E4FBFAC9FC8028E830E406E4C957
:1018ED00FBE4CAFCE830E305E4C9CACBFCE85407C5
:1018FD006010F8C3E913F9EA13FAEB13FBEC13FCD0
:10190D00D8F130F52FC3E49CFCEF9BFFEE9AFEED72
:10191D0099FDD0E0FBEF4E4D4C701222DB03021B04
:10192D00B7EC2CFCEF33FFEE33FEED33FDED30E77E
:10193D00EB021B92EF2BFFEE3AFEED39FDD0E0FBF3
:10194D0050130BBB0003021BBAED13FDEE13FEEF9C
:08195D0013FFEC13FC021B92C6
:10196500EC4D6011E8497017ED33EC3304600DE47C
:10197500FCFFFEFD22E933E8330470F8021BB012C8
:101985001B7B58046009E4CC2481500628500902C9
:101995001BBA284003021BB7C0E0EB4A7044B9806C
:1019A50006D0E0FB021BA6EF4E701CBD8008EBFFC6
:1019B500EAFEE9FD80EBE98DF0A4FEE5F0021A4EA2
:1019C500E9CDF9EAFEEBFFEF89F0A4FCE5F0CE895D
:1019D500F0A42EFFE435F0CD89F0A42DFEE435F01A
:1019E5008067EF4E7005BD80D780C3EF8BF0A4AC48
:1019F500F0EE8BF0A42CFCE435F0F8EF8AF0A42C83
:101A0500E5F038FCE433CB8DF0A42CFCE5F03BF895
:101A1500EE8AF0A42CFCE5F038F8E433CF89F0A485
:101A25002CFCE5F038CF3400CE89F0A42FFFE5F08B
:101A35003EFEE433C98DF0A42EFEE5F039CD8AF0E3
:101A4500A42FFFE5F03EFEE43DFD33D0E0FB50075B
:101A55000BBB000F021BBAEC2CFCEF33FFEE33FE81
:061A6500ED33FD021B92AF
:101A6B00021BBAEC5D046005E859047003021BB05D
:101A7B00121B7B580460F6EC4860F2EC7004FDFE20
:101A8B00FF22C860DB2481C85009C398600250064E
:101A9B00021BB79850CAF582E9294B4A7005AB82F5
:101AAB00021BA675F0007C1A7880C3EF9BEE9AEDB3
:101ABB0099400DC3EF9BFFEE9AFEED99FDE842F0C6
:101ACB00DC23ACF0D0E0FFD0E0FED0E0FDAB822019
:101ADB00E7101BEB60BAEC2CFCEF33FFEE33FEEDA3
:101AEB0033FD021B92E803F830E705C0F075F000F8
:101AFB00EF2FFFEE33FEED33FD40B830E7C280AA87
:101B0B003F8000004120000042C80000447A0000E2
:101B1B00461C400047C35000497424004B18968064
:101B2B004CBEBC205A0E1BCA6753C21C749DC5AE5B
:101B3B00FB60065407601C2323121B69EB543860AF
:101B4B0009121B55121B64121965ECF8EDF9EEFA2C
:101B5B00EFCB22EB121B6480F1543803241C901B37
:101B6B000BFE93FC0EEE93FD0EEE930ECE93FF2227
:101B7B00E9D2E7C933E833F892D5EDD2E7CD33ECB0
:071B8B0033FC5002B2D52229
:101B9200EC30E7100FBF000C0EBE00080DBD0004B4
:101BA2000BEB6014A2D5EB13FCED92E7FD2274FF60
:101BB200FCFDFEFF22E480F8A2D574FF13FC7D80B9
:031BC200E480EFCD
:10358000023F86E493A3F8E493A34003F68001F29C
:1035900008DFF48029E493A3F85407240CC8C3334C
:1035A000C4540F4420C8834004F456800146F6DF1B
:1035B000E4800B01020408102040809040FEE47E6D
:1035C000019360BCA3FF543F30E509541FFEE49310
:1035D000A360010ECF54C025E060A840B8E493A3D7
:1035E000FAE493A3F8E493A3C8C582C8CAC583CA02
:1035F000F0A3C8C582C8CAC583CADFE9DEE780BEBA
:0141140000AA
:101BC500BB010689828A83E0225002E722BBFE021E
:091BD500E32289828A83E4932251
:101BDE00BB010CE58229F582E5833AF583E02250BC
:101BEE0006E92582F8E622BBFE06E92582F8E22206
:0D1BFE00E58229F582E5833AF583E4932220
:101C0B00BB010689828A83F0225002F722BBFE01B8
:021C1B00F322B2
:101C1D00BC000BBE0029EF8DF084FFADF022E4CCAB
:101C2D00F875F008EF2FFFEE33FEEC33FCEE9DEC74
:101C3D00984005FCEE9DFE0FD5F0E9E4CEFD22EDBA
:101C4D00F8F5F0EE8420D21CFEADF075F008EF2F04
:101C5D00FFED33FD4007985006D5F0F222C398FDF5
:051C6D000FD5F0EA2292
:101C7200C2D5EC30E709B2D5E4C39DFDE49CFCEE8D
:101C820030E715B2D5E4C39FFFE49EFE121C1DC3CC
:101C9200E49DFDE49CFC8003121C1D30D507C3E4C7
:061CA2009FFFE49EFE22FC
:101CA800C5F0F8A3E028F0C5F0F8E58215827002C7
:061CB8001583E038F02264
:101CBE00A3F8E0C5F025F0F0E582158270021583D9
:061CCE00E0C838F0E82236
:101CD400BB010A89828A83E0F5F0A3E022500687DB
:101CE400F009E71922BBFE07E3F5F009E31922899D
:0B1CF400828A83E493F5F074019322D0
:101CFF00BB0110E58229F582E5833AF583E0F5F023
:101D0F00A3E0225009E92582F886F008E622BBFEFF
:101D1F000AE92582F8E2F5F008E222E5832AF58345
:081D2F00E993F5F0A3E993220A
:101D3700E88FF0A4CC8BF0A42CFCE98EF0A42CFC4B
:101D47008AF0EDA42CFCEA8EF0A4CDA8F08BF0A4C9
:101D57002DCC3825F0FDE98FF0A42CCD35F0FCEB28
:101D67008EF0A4FEA9F0EB8FF0A4CFC5F02ECD39ED
:0F1D7700FEE43CFCEAA42DCE35F0FDE43CFC225A
:101D860075F008758200EF2FFFEE33FECD33CDCC14
:101D960033CCC58233C5829BED9AEC99E582984097
:101DA6000CF582EE9BFEED9AFDEC99FC0FD5F0D674
:101DB600E4CEFBE4CDFAE4CCF9A88222B800C1B99E
:101DC6000059BA002DEC8BF084CFCECDFCE5F0CBDC
:101DD600F97818EF2FFFEE33FEED33FDEC33FCEB15
:101DE60033FB10D703994004EB99FB0FD8E5E4F9D0
:101DF600FA227818EF2FFFEE33FEED33FDEC33FCBD
:101E0600C933C910D7059BE99A4007EC9BFCE99AB0
:101E1600F90FD8E0E4C9FAE4CCFB2275F010EF2FF5
:101E2600FFEE33FEED33FDCC33CCC833C810D707F5
:101E36009BEC9AE899400AED9BFDEC9AFCE899F830
:0E1E46000FD5F0DAE4CDFBE4CCFAE4C8F922C3
:101E5400EB9FF5F0EA9E42F0E99D42F0E89C45F0E4
:011E6400225B
:101E6500BB010DE58229F582E5833AF583021F243E
:101E75005007E92582F8021F18BBFE07E92582F8FD
:101E8500021F30E58229F582E5833AF583021F3C7E
:0C1E9500ECF0A3EDF0A3EEF0A3EFF022C0
:101EA100A8828583F0D083D082121EB8121EB81288
:101EB1001EB8121EB8E473E493A3C583C5F0C583AD
:101EC100C8C582C8F0A3C583C5F0C583C8C582C88B
:011ED10022EE
:101ED200F8E0FBA3A3E0F925F0F0E5821582700299
:071EE2001583E0FA38F0223D
:091EE900EBF0A3EAF0A3E9F022FA
:101EF200D083D082F8E4937012740193700DA3A37F
:101F020093F8740193F5828883E473740293686092
:061F1200EFA3A3A380DF92
:103FDD00EFB40A07740D123FE8740A309811A899CE
:103FED00B8130CC2983098FDA899C298B811F63044
:073FFD0099FDC299F599221C
:0C1F1800E6FC08E6FD08E6FE08E6FF22F5
:0C1F2400E0FCA3E0FDA3E0FEA3E0FF2230
:0C1F3000E2FC08E2FD08E2FE08E2FF22ED
:101F3C00E493FC740193FD740293FE740393FF22EB
:00000001FF
