:1039C30053B1BF53B2BF53B17F53B27F75985043C6
:1039D3008920438780438E1053C4DFAB07AA06A90F
:1039E30005A8047F407E427D0F7C001220EDEF048A
:0939F300F404F58DD28ED2992264
:083C9500C2998F993099FD22BC
:033C9D00023C9551
:103945000D0A232323232323232323232323232371
:103955002323232323232323232323236D63752059
:1039650073746172742323232323232323232323A3
:103975002323232323232323232323232323232312
:0439850023232300D5
:043B67004100920087
:10386C0043B30153B4FE43B30253B4FD43B3045307
:10387C00B4FB43B10853B2F743B11053B2EF53AC9E
:10388C00FE43AD0143B30843B40843B31043B41033
:10389C007F007EC27D017C001239C353E9FB43E9F2
:0D38AC002043EA0853EBF7439B02D2AF2202
:103BBC00C2B07FC87E007D007C00123719D2B07F66
:0A3BCC00C87E007D007C000237195E
:103C550012386C7BFF7A397945121C36123BBC123F
:043C6500301A80FE93
:043B6B00410090760F
:073C6900123C70D2937F0AA8
:0A3C7000E4FEEEC39F50030E80F83F
:013C7A002227
:103BEC00D2947F01123C69C2947F07123C70C2933D
:053BFC007F01023C7096
:0C3C8900C2947F02123C69D294023C708D
:0237CB00AD0748
:1037CD00E4FCEDA804088002C333D8FC30E704D232
:1037DD00948002C2947F03123C70D2930F123C70FE
:1037ED00C2930CECB408DB7F01123C70D2947F03C2
:1037FD00123C70D293123C70309407E4900091F01B
:0F380D0080069000917401F0C2937F03023C701B
:1039FC00E4FDD294FC7F01123C70C2937F04123C14
:103A0C0070D2937F02123C70ED25E0FD3094010DD5
:103A1C007F02123C700CECB408DBC2937F05123CA5
:033A2C0070AF0573
:013A2F002274
:103B8400EF7004C2948002D2947F08123C70D293E6
:0C3B94007F0F123C70C2937F08023C704F
:0734F400900012EDF0AC079F
:1034FB00123BECAF041237CB900091E07002802DA1
:10350B00900012E0FF1237CB900091E07002801D0B
:10351B00E4900017F0900016E0FFA3E0C39F502249
:10352B00121F30FF1237CB900091E07006123C89CE
:10353B007F0022740129F9E43AFA900017E004F0B5
:07354B0080D3123C897F01CF
:013552002256
:08312900900011EFF0A3EDF09E
:10313100123BEC900011E0FF1237CB900091E07050
:10314100028022900012E0FF1237CB900091E070D4
:10315100028012123BEC900011E004FF1237CB9079
:103161000091E07009123C89E4121F76FF22E4907D
:103171000017F0900016E014FFA3E0C39F501B124C
:1031810039FCEF121F76E4FF123B84740129F9E444
:103191003AFA900017E004F080D91239FCEF121FBF
:0B31A100767F01123B84123C897F0105
:0131AC002200
:023A3000AE07DF
:103A3200E4900010F0900090E0FFAD067B017A0068
:103A420079109000167401F0123129EF600690008F
:063A520010E0FF227F00DE
:013A5800224B
:023C0100AE070C
:103C0300900090E0FFAD0690006EE0900016F01279
:023C1300312955
:013C1500228C
:073B2B00900010EDF0AE0761
:103B3200900090E0FFAD067B017A007910900016AC
:063B42007401F01234F4DE
:013B4800225A
:023C1600AE07F7
:103C1800900090E0FFAD06900073E0900016F0125F
:023C280034F472
:013C2A002277
:10003E000A4C54393631312072696E672043686933
:10004E0070204944203D2030782562782C2030786D
:10005E002562782C2030782562782020000D0A1B2E
:10006E005B33356D4C54393631315F4C6F77506F91
:10007E007765725F6D6F64653A20656E7465722088
:10008E006C6F7720706F776572206D6F64651B5B88
:10009E0033376D000D0A1B5B33356D4C54393631D9
:1000AE00315F4C6F77506F7765725F6D6F64653A35
:1000BE002065786974206C6F7720706F7765722079
:1000CE006D6F64651B5B33376D000A4C54393631E6
:1000DE00315F4D4950495F496E7075745F44696771
:1000EE0074616C3A206C743936313120736574202A
:1000FE006D697069206C616E6573203D20256264A8
:10010E00000A4C54393631315F4D4950495F496EC2
:10011E007075745F44696774616C3A206C7439361B
:10012E00313120736574206D69706920706F72743F
:10013E0073203D2031000A4C54393631315F4D4920
:10014E0050495F496E7075745F44696774616C3AAB
:10015E00206C743936313120736574206D69706985
:10016E0020706F7274203D2032000A4C54393631A3
:10017E00315F4D4950495F496E7075745F446967D0
:10018E0074616C3A204C54393631312E6D69706978
:10019E005F6D6F6465203D20637369000A4C5439AE
:1001AE003631315F4D4950495F496E7075745F4409
:1001BE00696774616C3A204C54393631312E6D6951
:1001CE0070695F6D6F6465203D20647369001B5B11
:1001DE0033326D000A4C54393631315F56696465DD
:1001EE006F5F436865636B3A20685F746F74616C10
:1001FE005F737973636C6B203D202564000A4C5449
:10020E00393631315F566964656F5F436865636B7C
:10021E003A206C74393631312E696E7075745F63A5
:10022E006F6C6F725F7370616365203D2059555618
:10023E00343232000A4C54393631315F56696465B6
:10024E006F5F436865636B3A206C74393631312EBB
:10025E00696E7075745F636F6C6F725F73706163DC
:10026E0065203D20524742383838000A4C54393602
:10027E0031315F566964656F5F436865636B3A2021
:10028E00685F6163745F612C20685F6163745F6295
:10029E002C20765F6163742C20765F74616C3A203B
:1002AE0025642C2025642C2025642C2025642C20EC
:1002BE00000A4C54393631315F566964656F5F43BD
:1002CE006865636B3A206D6970695F766964656F06
:1002DE005F666F726D61743A203078256278000D1A
:1002EE000A4C54393631315F566964656F5F436825
:1002FE0065636B3A20566964656F5F466F726D6118
:10030E0074203D0020766964656F5F363430783432
:10031E0038305F3630487A200020766964656F5F2A
:10032E00373230783438305F3630487A20002076D5
:10033E006964656F5F373230783537365F353048F0
:10034E007A200020766964656F5F313238307837F5
:10035E0032305F3630487A200020766964656F5FF0
:10036E0031323830783732305F3530487A200020DD
:10037E00766964656F5F31323830783732305F338B
:10038E0030487A200020766964656F5F31393230EB
:10039E0078313038305F3630487A20002076696404
:1003AE00656F5F3139323078313038305F353048F3
:1003BE007A200020766964656F5F3139323078318A
:1003CE003038305F3330487A200020766964656FAC
:1003DE005F3139323078313038305F3235487A20FB
:1003EE000020766964656F5F31393230783130388C
:1003FE00305F3234487A200020766964656F5F334F
:10040E0038343078323136305F3330487A2000203D
:10041E00766964656F5F3338343078323136305FE9
:10042E003235487A200020766964656F5F33383440
:10043E003078323136305F3234487A200020766997
:10044E0064656F5F383030783630305F3630487ADA
:10045E00200020766964656F5F313032347837362C
:10046E00385F3630487A200020766964656F5F31D8
:10047E00323830783736385F3630487A200020767A
:10048E006964656F5F31323830783830305F3630BE
:10049E00487A200020766964656F5F313238307893
:1004AE003830305F3330487A200020766964656FCB
:1004BE005F31323830783936305F3630487A200046
:1004CE0020766964656F5F31323830783936305F47
:1004DE003330487A200020766964656F5F31323898
:1004EE003078313032345F3630487A2000207669E9
:1004FE0064656F5F3136303078313230305F363090
:10050E00487A200020766964656F5F31363830781E
:10051E00313035305F3630487A2000207669646598
:10052E006F5F31333636783736385F3630487A205B
:10053E000020766964656F5F323536307831343439
:10054E00305F3630487A200020766964656F5F32FE
:10055E0035363078313434305F3530487A200020EB
:10056E00766964656F5F37323078313038305F3698
:10057E0030487A200020766964656F5F31303830FC
:10058E0078313932305F3630487A2000207669640F
:10059E00656F5F3338343078313038305F363048FD
:1005AE007A200020766964656F5F31303234783698
:1005BE0030305F3630487A200020766964656F5F90
:1005CE00353430783936305F3630487A2000207630
:1005DE006964656F5F3235363078313630305F366C
:1005EE0030487A200020766964656F5F3235363088
:1005FE0078313038305F3630487A200020766964A2
:10060E00656F5F32353630783732305F3630487A44
:10061E00200020766964656F5F3732307835303769
:10062E005F3630487A200020766964656F5F313915
:10063E003230783732305F3630487A200020756E8F
:10064E006B6E6F776E20766964656F20666F726D64
:10065E00617420001B5B33376D1B5B33376D000DF0
:10066E000A4C54393631315F4D4950495F506372EF
:10067E003A20363430783438305F3630487A000DD0
:10068E000A4C54393631315F504C4C3A20736574F4
:10069E0020727820706C6C203D20256C64000D0A51
:1006AE004C54393631315F504C4C3A207063725F86
:1006BE006D203D2030782562782C2068646D695F4E
:1006CE00706F73745F646976203D20256264000D3F
:1006DE000A4C54393631315F504C4C3A2048444D17
:1006EE004920706C6C206C6F636B6564000D0A4C56
:1006FE0054393631315F504C4C3A2048444D4920E4
:10070E00706C6C20756E6C6F636B65642C207265FB
:10071E0073657420706C6C000D0A4C54393631318F
:10072E005F48444D495F54585F5068793A204143C1
:10073E0020636F75706C65000D0A4C54393631317B
:10074E005F48444D495F54585F5068793A2044439E
:10075E0020636F75706C65000D0A1B5B33356D4C35
:10076E0054393631315F48444D495F4F75745F459A
:10077E006E61626C651B5B33376D000D0A1B5B335C
:10078E00356D4C54393631315F48444D495F4F75A4
:10079E00745F44697361626C651B5B33376D000D6A
:1007AE000A4C54393631315F48444D495F54585FD5
:1007BE004469676974616C3A20484D4449206D6FF5
:1007CE006465203D2048444D49000D0A4C5439368D
:1007DE0031315F48444D495F54585F4469676974CD
:1007EE00616C3A20484D4449206D6F6465203D2070
:1007FE00445649000D0A4C54393631315F43534348
:10080E003A2059706270722034323220746F205246
:10081E004742383838000D0A417564696F20696E99
:10082E007574203D2049325320326368000D0A4111
:10083E007564696F20696E7574203D20535044496C
:10084E0046000D0A4C54393631315F484443505FEF
:10085E00456E61626C653A204F6E002030782562DD
:10086E0078000D0A706F72742041206279746520D1
:10087E00636C6B203D20256C64000D0A706F7274E2
:10088E002041206279746520636C6B20756E7374E1
:10089E0061626C65000D0A706F727420422062797D
:1008AE00746520636C6B203D20256C64000D0A700E
:1008BE006F72742042206279746520636C6B2075B0
:1008CE006E737461626C65000D0A4C5439363131A9
:1008DE005F456E61626C655F496E746572727570AC
:1008EE0074733A206870645F6972715F656E6162DD
:1008FE006C65000D0A4C54393631315F456E6162BC
:10090E006C655F496E74657272757074733A2068A7
:10091E0070645F6972715F64697361626C65000D0A
:10092E000A4C54393631315F456E61626C655F49F0
:10093E006E74657272757074733A207669645F6353
:10094E0068675F6972715F656E61626C65000D0A42
:10095E004C54393631315F456E61626C655F496E5C
:10096E0074657272757074733A207669645F636829
:10097E00675F6972715F64697361626C65000D0A0D
:10098E004C54393631315F4844505F496E7465724C
:10099E00727570745F48616E646C653A2048444DA0
:1009AE004920636F6E6E6563746564000D0A4C5466
:1009BE00393631315F4844505F496E7465727275D5
:1009CE0070745F48616E646C653A206E6F206D695D
:1009DE00706920766964656F2C2064697361626C3E
:1009EE00652068646D69206F7574707574000D0AEA
:1009FE004C54393631315F4844505F496E746572DC
:100A0E00727570745F48616E646C653A2048444D2F
:100A1E004920646973636F6E6E6563746564000D5F
:100A2E000A4C54393631315F5669645F4368675FEB
:100A3E00496E746572727570745F48616E646C6530
:100A4E003A20000D0A6365635F73746174757328D1
:100A5E00307838366432293D203078256278000DA2
:100A6E000A636563207265633A20000D0A73656E32
:100A7E0064206461746120646F6E652E20000D0A1F
:100A8E0073657420706978656C20636C6B203D20F3
:100A9E00256C64000D0A23232323232323232323DE
:100AAE0023234C543936313120496E697469616C97
:100ABE0020456E642323232323232323232323234D
:100ACE002323232323230000100060003002800321
:100ADE0020000A0002002101E0020D0000000101C9
:100AEE00000061A80010003E003C02D0035A00092D
:100AFE000006001E01E0020D000000020100006968
:100B0E0078000C0040005802D0036000050005007C
:100B1E002702400271000000110100006978006E8A
:100B2E00002800DC0500067200050005001402D046
:100B3E0002EE01010004020001220A01B8002800A1
:100B4E00DC050007BC00050005001402D002EE0112
:100B5E00010013020001220A0058002C00940780A5
:100B6E0008980004000500240438046501010010F3
:100B7E0002000244140210002C009407800A500058
:100B8E000400050024043804650101001F02000260
:100B9E0044140058002C00940780089800040005A7
:100BAE0000240438046501010022020001220A0219
:100BBE0010002C009407800A500004000500240445
:100BCE0038046501010021020001220A027E002C78
:100BDE00009407800ABE0004000500240438046552
:100BEE0001010020020001220A00B0005801280F66
:100BFE000011300008000A0048087008CA01010000
:100C0E005F02000488280420005801280F0014A059
:100C1E000008000A0048087008CA0101005E0200C0
:100C2E0004882804FC005801280F00157C000800D9
:100C3E000A0048087008CA0101005D0200048828F5
:100C4E0000F8002C00940A000AA000040005000B16
:100C5E000438044C0101000002000305700030004E
:100C6E0080005803200420000100040017025802DF
:100C7E0074010100000200009C400018008800A0D2
:100C8E000400054000030006001D030003260000BB
:100C9E000000020000FDE80040008000C0050006D4
:100CAE00800003000700140300031E000100000271
:100CBE000001368C0048008000C805000690000335
:100CCE00000600160320033F00010000020001464B
:100CDE002C006000700138050007080001000300B9
:100CEE002403C003E801010000020001A5E0004852
:100CFE00008000C8050006900003000600160320C1
:100D0E00033F00010000020000A316006000700106
:100D1E00380500070800010003002403C003E801A2
:100D2E00010000020000D2F00030007000F8050053
:100D3E0006980001000300260400042A01010000A9
:100D4E00020001A5E0004000C0013006400870001E
:100D5E00010003002E04B004E201010000020002B3
:100D6E0078D0006800B00118069008C00003000695
:100D7E00001E041A0441000100000200023B4A0654
:100D8E00E0002800DC05000CE4000500050014025C
:100D9E00D002EE01010000020001220A003C003CDC
:100DAE0000640400048200020005000A0258026971
:100DBE000101000002000084D0000E003800400542
:100DCE005605DC00010003001C0300032001010096
:100DDE0000020001211000B0011001C00A000D80B8
:100DEE0000030005002405A005CC0101000002004F
:100DFE0003E8FA0030002000500A000AA0000300A9
:100E0E0005002105A005C901010000020003AF5C29
:100E1E000030002000500A000AA000030006002542
:100E2E000640066E0101000002000418D400B00056
:100E3E005801280F00113000040005002404380466
:100E4E006501010000020004882800DC005001B892
:100E5E000A000CE400050005001402D002EE0101A8
:100E6E0000000200024414000400050024043804AB
:100E7E00650058002C0094078008980101000002BC
:100E8E000002441400050005001402D002EE006EAC
:100E9E00002800DC0500067201010000020001229C
:100EAE000A001E000A001E021C0262000A000A004E
:100EBE000A03C003DE0101000002000082DC001004
:100ECE00003E003C02D0035A00090006000301FB5D
:100EDE00020D0000000302000069780058002C008B
:100EEE00940780089800050005001402D002EE0158
:080EFE0001000002000186A0C2
:103B6F0049003D0100000001010101004100470033
:043B7F0041003800C9
:10381C007D807FFF123B2B7D017FEE123B2BE4FF63
:10382C00123A30C0077F01123A30C0077F02123AB9
:10383C0030900015EFF0900014D0E0F0900013D011
:10384C00E0F07BFF7A00793E121C367D817FFF12FF
:10385C003B2B7D187F01123B2B7D807FFF023B2B86
:103AA4007D817FFF123B2B7D487F02123B2B7D8063
:103AB4007F23123B2BE4FD7F30123B2BE4FD7F017F
:033AC400023B2B97
:10330800EF7D817FFF602E123B2B7D497F02123BB0
:103318002B7D807F23123B2BE4FD7F30123B2B7DDE
:10332800807FFF123B2B7D0A7F11123B2B7BFF7A9C
:1033380000796B802C123B2B7D127F02123B2B7D78
:10334800407F23123B2B7DEA7F30123B2B7D807F11
:10335800FF123B2B7DFA7F11123B2B7BFF7A007902
:05336800A2121C362238
:1033D1007D827FFF123B2B7D117F51123B2B7D8222
:1033E1007FFF123B2B7D697F1B123B2B7D787F1C5E
:1033F100123B2B7D697FCB123B2B7D787FCC123B1F
:103401002B7D807FFF123B2B7DF07F04123B2B7DB8
:10341100F07F06123B2B7D807F0A123B2B7D467F7E
:103421000B123B2B7DEF7F0D123B2B7DFA7F11029F
:023431003B2B33
:1035AF007D817FFF123B2B7D607F06123B2B7D3F82
:1035BF007F07123B2B7D3F7F08123B2B7DFE7F0A3F
:1035CF00123B2B7DBF7F0B123B2B7D607F11123B7C
:1035DF002B7D3F7F12123B2B7D3F7F13123B2B7DA9
:1035EF00FE7F15123B2B7DBF7F16123B2B7D037F7A
:0B35FF001C123B2B7D037F20023B2BA6
:102E630090003EE0900000F07BFF7A0079D890005C
:102E730013F0121C367D827FFF123B2B7D807F4F28
:102E8300123B2B7D107F50123B2B7D837FFF123B28
:102E93002B900000E0FDE4FF123B2B7D087F021224
:102EA3003B2B7D087F06123B2B30900FE4FD7F0AFE
:102EB300123B2B7BFF7A01790F800D7D037F0A1272
:102EC3003B2B7BFF7A017944121C3690003FE07B59
:102ED300FFB4011C7A017978121C367D837FFF12BF
:102EE3003B2B7D107F08123B2B7D407F2C023B2B1D
:072EF3007A0179AA121C36D6
:012EFA0022B5
:100F0600E4900003F07D827FFF123B2B7F86123A2E
:100F16003090000EE4F0A3EFF07F87123A30EFFD39
:100F26007C0090000FE0FEE42DFFEC3E90000EF0FA
:100F3600A3EFF07BFF7A0179DC121C367BFF7A0186
:100F460079E290000EE0FFA3E0900013CFF0A3EF4C
:100F5600F0121C367F82123A3090000AE4F0A3EFBA
:100F6600F07F83123A30EFFD7C0090000BE0FEE448
:100F76002DFFEC3E90000AF0A3EFF07F6C123A30A2
:100F860090000CE4F0A3EFF07F6D123A30EFFD7C99
:100F96000090000DE0FEE42DFFEC3E90000CF0A367
:100FA600EFF07D837FFF123B2B7F82123A30900059
:100FB60006E4F0A3EFF07F83123A30EFFD7C009059
:100FC6000007E0FEE42DFFEC3E900006F0A3EFF0F4
:100FD6007F86123A30900008E4F0A3EFF07F871284
:100FE6003A30EFFD7C00900009E0FEE42DFFEC3E78
:100FF600900008F0A3EFF0900045E0B4011F7BFFDE
:101006007A02790B121C36900006E0C313F0A3E0B7
:1010160013F0A3E0C313F0A3E013F0803B90004568
:10102600E070357BFF7A027942121C36900006E0AA
:10103600FEA3E0FF7C007D03121FAA900006EEF0DF
:10104600A3EFF0A3E0FEA3E0FF7C007D03121FAA3E
:10105600900008EEF0A3EFF07F88123A309000037C
:10106600EFF07BFF7A027979900006E0FFA3E0902B
:101076000013CFF0A3EFF0900008E0FFA3E090008C
:1010860015CFF0A3EFF090000AE0FFA3E090001761
:10109600CFF0A3EFF090000CE0FFA3E0900019CF93
:1010A600F0A3EFF0121C367BFF7A0279BF900003A3
:1010B600E0900013F0121C36209018900008E0FE15
:1010C600A3E0FF900007E02FFF900006E03E9000AF
:1010D60004800B900006E0FFA3E0900004CFF0A38D
:1010E600EFF07BFF7A0279ED121C36900ADBE4936F
:1010F600FE740193FF900004E0B5063BA3E0B5073C
:1011060036900AE5E493FE740193FF90000AE0B579
:101116000625A3E0B507207BFF7A037912121C3659
:101126009000467401F090003A74FFF0A3740AF040
:10113600A374D5F0021BC2900AF8E493FE740193DF
:10114600FF900004E0B5063BA3E0B50736900B021E
:10115600E493FE740193FF90000AE0B50625A3E030
:10116600B507207BFF7A037927121C369000467458
:1011760002F090003A74FFF0A3740AF0A374F2F040
:10118600021BC2900B15E493FE740193FF900004BA
:10119600E0B5063BA3E0B50736900B1FE493FE745B
:1011A6000193FF90000AE0B50625A3E0B507207B72
:1011B600FF7A03793C121C369000467403F09000C7
:1011C6003A74FFF0A3740BF0A3740FF0021BC290E5
:1011D6000B32E493FE740193FF900004E06E7003FB
:1011E600A3E06F6003021296900B3C93FE7401938A
:1011F600FF90000AE06E7003A3E06F600302129690
:10120600C390000FE0947690000EE0940250207B8D
:10121600FF7A037951121C369000467404F0900050
:101226003A74FFF0A3740BF0A3742CF0021BC2C334
:1012360090000FE094EE90000EE0940250207BFFA9
:101246007A037967121C36900046740BF090003AC8
:1012560074FFF0A3740BF0A37449F0021BC2C39091
:10126600000FE094CE90000EE094044003021BC2EF
:101276007BFF7A03797D121C36900046740CF09041
:10128600003A74FFF0A3740DF0A3748DF0021BC234
:10129600900B6CE493FE740193FF900004E06E7073
:1012A60003A3E06F60030213B5900B7693FE7401FF
:1012B60093FF90000AE06E7003A3E06F60030213D1
:1012C600B5C390000FE094AE90000EE0940150205C
:1012D6007BFF7A037993121C369000467405F090D2
:1012E600003A74FFF0A3740BF0A37466F0021BC2FD
:1012F600C390000FE094FE90000EE0940150207B16
:10130600FF7A0379AA121C36900046741AF09000F0
:101316003A74FFF0A3740BF0A37483F0021BC2C3EC
:1013260090000FE0943E90000EE0940350207BFF67
:101336007A0379C1121C36900046741BF090003A6D
:1013460074FFF0A3740BF0A374A0F0021BC2C39049
:10135600000FE094D490000EE0940350207BFF7AB7
:101366000379D8121C36900046741CF090003A742B
:10137600FFF0A3740BF0A374BDF0021BC2C3900070
:101386000FE0940690000EE094044003021BC27B1B
:10139600FF7A0379EF121C36900046741DF0900018
:1013A6003A74FFF0A3740BF0A374DAF0021BC29038
:1013B6000BFDE493FE740193FF900004E06E70034E
:1013C600A3E06F6003021476900C0793FE740193FA
:1013D600FF90000AE06E7003A3E06F6003021476CC
:1013E600C390000FE094AE90000EE0940150207B75
:1013F600FF7A047906121C36900046740DF09000B0
:101406003A74FFF0A3740BF0A374F7F0021BC2C387
:1014160090000FE094EA90000EE0940150207BFFCC
:101426007A04791D121C36900046740EF090003A2C
:1014360074FFF0A3740CF0A37414F0021BC2C390E3
:10144600000FE0940890000EE094024003021BC2D5
:101456007BFF7A047934121C36900046740FF090A4
:10146600003A74FFF0A3740CF0A37431F0021BC2AF
:10147600900C71E493FE740193FF900004E0B506AE
:101486002CA3E0B50727900C7BE493FE740193FF31
:1014960090000AE0B50616A3E0B507117BFF7A04B3
:1014A600794B121C369000467420021576900C8EED
:1014B600E493FE740193FF900004E0B5062CA3E0CC
:1014C600B50727900C98E493FE740193FF90000AE9
:1014D600E0B50616A3E0B507117BFF7A0479601222
:1014E6001C3690004674200215C2900CABE493FEA5
:1014F600740193FF900004E0B5063BA3E0B5073600
:10150600900CB5E493FE740193FF90000AE0B506D3
:1015160025A3E0B507207BFF7A047976121C369066
:101526000046741FF090003A74FFF0A3740CF0A309
:1015360074A5F0021BC2900C71E493FE740193FF34
:10154600900004E0B5063BA3E0B50736900C7BE4BB
:1015560093FE740193FF90000AE0B50625A3E0B55B
:1015660007207BFF7A04794B121C36900046741FC5
:10157600F090003A74FFF0A3740CF0A3746BF002C1
:101586001BC2900C8EE493FE740193FF900004E05E
:10159600B5063BA3E0B50736900C98E493FE7401BC
:1015A60093FF90000AE0B50625A3E0B507207BFF70
:1015B6007A047960121C36900046741FF090003A47
:1015C60074FFF0A3740CF0A37488F0021BC2900C95
:1015D600C8E493FE740193FF900004E06E7003A3C9
:1015E600E06F7053900CD293FE740193FF90000A43
:1015F600E06E7003A3E06F703EC390000FE094307E
:1016060090000EE094027BFF500F7A04798C121C36
:1016160036900046741F0219DB7A0479A2121C3632
:10162600900046741FF090003A74FFF0A3740CF01B
:10163600A374FCF0021BC2900CE5E493FE740193C4
:10164600FF900004E06E7003A3E06F7062900CEFF1
:1016560093FE740193FF90000AE06E7003A3E06F9F
:10166600704DC390000FE094CC90000EE094017B87
:10167600FF501E7A0479B8121C36900046741FF08B
:1016860090003A74FFF0A3740CF0A374DFF0021B11
:10169600C27A0479CE121C36900046741FF0900070
:1016A6003A74FFF0A3740DF0A37419F0021BC290F4
:1016B6000D3CE493FE740193FF900004E0B5063BF5
:1016C600A3E0B50736900D46E493FE740193FF90B0
:1016D600000AE0B50625A3E0B507207BFF7A04796A
:1016E600E4121C36900046741FF090003A74FFF026
:1016F600A3740DF0A37436F0021BC2900D59E49347
:10170600FE740193FF900004E0B5063BA3E0B50725
:1017160036900D63E493FE740193FF90000AE0B5E2
:101726000625A3E0B507207BFF7A0479FB121C3659
:10173600900046741FF090003A74FFF0A3740DF009
:10174600A37453F0021BC2900D76E493FE740193CA
:10175600FF900004E0B5063BA3E0B50736900D8088
:10176600E493FE740193FF90000AE0B50625A3E01A
:10177600B507207BFF7A057912121C369000467455
:101786001FF090003A74FFF0A3740DF0A37470F08C
:10179600021BC2900DCDE493FE740193FF900004EA
:1017A600E0B5063BA3E0B50736900DD7E493FE748B
:1017B6000193FF90000AE0B50625A3E0B507207B5C
:1017C600FF7A057929121C369000467416F09000AF
:1017D6003A74FFF0A3740DF0A374C7F0021BC29015
:1017E6000E07E493FE740193FF900004E06E70030D
:1017F600A3E06F7076900E1193FE740193FF900034
:101806000AE06E7003A3E06F7061C390000FE0946E
:101816003690000EE0940150207BFF7A05793F1246
:101826001C369000467418F090003A74FFF0A374CA
:101836000EF0A37401F0021BC2C390000FE0947275
:1018460090000EE094014003021BC27BFF7A0579EB
:1018560056121C36900046741FF090003A74FFF042
:10186600A3740DF0A374E4F0021BC2900E98E493E7
:10187600FE740193FF900004E0B5063BA3E0B507B4
:1018860036900EA2E493FE740193FF90000AE0B531
:101896000625A3E0B507207BFF7A05796D121C3675
:1018A6009000467413F090003A74FFF0A3740EF0A3
:1018B600A37492F0021BC2900E7BE493FE74019314
:1018C600FF900004E0B5063BA3E0B50736900E8511
:1018D600E493FE740193FF90000AE0B50625A3E0A9
:1018E600B507207BFF7A057983121C369000467473
:1018F60012F090003A74FFF0A3740EF0A37475F022
:10190600021BC2900E41E493FE740193FF90000403
:10191600E0B5063BA3E0B50736900E4BE493FE74A4
:101926000193FF90000AE0B50625A3E0B507207BEA
:10193600FF7A05799A121C369000467410F09000D2
:101946003A74FFF0A3740EF0A3743BF0021BC2902E
:101956000DB0E493FE740193FF900004E0B5063BDE
:10196600A3E0B50736900DBAE493FE740193FF9099
:10197600000AE0B50625A3E0B507207BFF7A0579C6
:10198600B1121C369000467411F090003A74FFF0C4
:10199600A3740DF0A374AAF0021BC2900CC8E493C2
:1019A600FE740193FF900004E0B5063BA3E0B50783
:1019B60036900CD2E493FE740193FF90000AE0B5D2
:1019C6000625A3E0B507207BFF7A04798C121C3626
:1019D6009000467414F090003A74FFF0A3740CF073
:1019E600A374C2F0021BC2900EB5E493FE74019379
:1019F600FF900004E0B5063BA3E0B50736900EBFA6
:101A0600E493FE740193FF90000AE0B50625A3E077
:101A1600B507207BFF7A0579C7121C3690004674FD
:101A260015F090003A74FFF0A3740EF0A374AFF0B3
:101A3600021BC2900E24E493FE740193FF900004EF
:101A4600E0B5063BA3E0B50736900E2EE493FE7490
:101A56000193FF90000AE0B50625A3E0B507207BB9
:101A6600FF7A0579DC121C369000467417F0900058
:101A76003A74FFF0A3740EF0A3741EF0021BC2901A
:101A86000C54E493FE740193FF900004E0B5063B0A
:101A9600A3E0B50736900C5EE493FE740193FF90C5
:101AA600000AE0B50625A3E0B507207BFF7A057995
:101AB600F3121C369000467419F090003A74FFF049
:101AC600A3740CF0A3744EF0021BC2900E5EE49356
:101AD600FE740193FF900004E0B5063BA3E0B50752
:101AE60036900E68E493FE740193FF90000AE0B509
:101AF6000625A3E0B507207BFF7A06790A121C3675
:101B0600900046741EF090003A74FFF0A3740EF035
:101B1600A37458F0021BC2900ED2E493FE74019394
:101B2600FF900004E0B5063AA3E0B50735900EDC59
:101B3600E493FE740193FF90000AE0B50624A3E047
:101B4600B5071F7BFF7A067920121C369000467473
:101B56001FF090003A74FFF0A3740EF0A374CCF05B
:101B6600805A900EEFE493FE740193FF900004E018
:101B7600B5063AA3E0B50735900EF9E493FE740175
:101B860093FF90000AE0B50624A3E0B5071F7BFF8C
:101B96007A067935121C36900046741FF090003A8A
:101BA60074FFF0A3740EF0A374E9F0800F90004662
:101BB6007420F07BFF7A06794B121C367BFF7A067F
:051BC6007962021C36EB
:10285700900006EBF0A3EAF0A3E9F07D837FFF1277
:102867003B2B900006E0FBA3E0FAA3E0F9900012EF
:1028770012202AE5F0FD7F0D123B2B900006E0FBAE
:10288700A3E0FAA3E0F990001212202AFD7F0E12AE
:102897003B2B900006E0FBA3E0FAA3E0F9900010C1
:1028A70012202AE5F0FD7F0F123B2B900006E0FB7C
:1028B700A3E0FAA3E0F990001012202AFD7F10127E
:1028C7003B2B900006E0FBA3E0FAA3E0F990000899
:1028D70012202AE5F0FD7F11123B2B900006E0FB4A
:1028E700A3E0FAA3E0F990000812202AFD7F121254
:1028F7003B2B900006E0FBA3E0FAA3E0F99000066B
:1029070012202AE5F0FD7F13123B2B900006E0FB17
:10291700A3E0FAA3E0F990000612202AFD7F141223
:102927003B2B900006E0FBA3E0FAA3E0F990000C34
:1029370012202AFD7F15123B2B900006E0FBA3E037
:10294700FAA3E0F990000212202AFD7F16123B2B12
:10295700900006E0FBA3E0FAA3E0F990000A12203A
:102967002AFD7F17123B2B900006E0FBA3E0FAA39A
:10297700E0F990000E12202AFFAEF090000C122012
:102987002A2FFFE5F03EAD077F18123B2B9000067C
:10299700E0FBA3E0FAA3E0F9121FFFFD7F19123B4A
:1029A7002B900006E0FBA3E0FAA3E0F990000412E5
:1029B700202AFFAEF090000212202A2FE5F03EFDFC
:1029C700121FFFE5F0C4F8540FC868FFEF2DFD7F15
:1029D7001A123B2B900006E0FBA3E0FAA3E0F99064
:1029E700000412202AFFAEF090000212202A2FFFC7
:0A29F700E5F03EAD077F1B023B2B0D
:0B26A70090003AE0FBA3E0FAA3E0F98A
:1026B20090000612202AFF900004E5F0F0A3EFF04C
:1026C200900014121F4925E0FF900015121F492F98
:1026D200900003F0F4F05403F07D837FFF123B2B54
:1026E200209064900004E0FEA3E07802CEC313CEF3
:1026F20013D8F9F0EE900004F0A3E02450F090001B
:1027020004E03400F0E0FEA3E0FFC394E0EE9403A3
:10271200500280047E037FE0900004EEF0A3EFF00D
:10272200900004E0FD7F0B123B2B900004A3E0FD20
:102732007F0C123B2B900004E0FD7F48123B2B9054
:102742000004A3E0FD80177D017F0B123B2B7D105F
:102752007F0C123B2BE4FD7F48123B2B7D817F498E
:10276200123B2B7D4A7F21123B2B7D717F24123B32
:102772002B7D307F25123B2B7D017F2A123B2B7D47
:10278200407F4A123B2B900003E04410FD7F1D1254
:102792003B2B900046E014600D14600A24F1606542
:1027A20024FC6061807B7D837FFF123B2B7D027F57
:1027B2000B123B2B7D407F0C123B2B7D017F48127D
:1027C2003B2B7D107F49123B2B7D707F24123B2BCC
:1027D2007D807F25123B2B7D107F2A123B2B7D8033
:1027E2007F2B123B2B7D287F23123B2B7D107F4AB0
:1027F200123B2B7DF37F1D123B2B7BFF7A06796DFB
:10280200121C36801C7D707F24123B2B7D807F251D
:10281200123B2B7D107F2A123B2B7DF07F1D123B3A
:102822002B90003AE0FBA3E0FAA3E0F91228577DCF
:10283200837FFF123B2B900039E0FD7F26123B2B5A
:102842007D807FFF123B2B7D5A7F11123B2B7DFA3D
:052852007F11023B2B89
:0B22770090003AE0FBA3E0FAA3E0F9BE
:102282009000191221909000031221C07BFF7A0660
:10229200798D900003E0FCA3E0FDA3E0FEA3E0FF44
:1022A2009000131221C0121C367D817FFF123B2B3E
:1022B2007D407F23123B2B7D627F24123B2B7D804E
:1022C2007F25123B2B7D557F26123B2B7D377F2CA2
:1022D200123B2B7D017F2F123B2B7D557F26123B1C
:1022E2002B7D667F27123B2B7D887F28123B2B7F1D
:1022F200F07E497D027C00900003E0F8A3E0F9A3A0
:10230200E0FAA3E0FBD312217F400F7D887F2D12DC
:102312003B2B9000077401F080387F807E387D016E
:102322007C00900003E0F8A3E0F9A3E0FAA3E0FB4D
:10233200D312217F400F7D997F2D123B2B900007F6
:102342007402F0800D7DAA7F2D123B2B9000077442
:1023520004F0E47F05FEFDFC900003E0F8A3E0F941
:10236200A3E0FAA3E0FB122062A804A905AA06AB27
:1023720007900007E0FFE4FCFDFE122062E47B7898
:102382007A69F9F81220ED900039EFF07BFF7A06B6
:1023920079ACE0900013F0900007E0900014F01286
:1023A2001C367D837FFF123B2B7D407F2D123B2B02
:1023B2007D087F31123B2B900039E04480FD7F265F
:1023C200123B2B900003E0FCA3E0FDA3E0FEA3E0A0
:1023D200FFE47B02FAF9F81220ED9000031221C00B
:1023E2007D827FFF123B2BE4FBFA7901F890000318
:1023F200E0FCA3E0FDA3E0FEA3E0FF1220EDAD07A9
:102402007FE3123B2B900003A3A3E0FEA3E0FFE4D3
:10241200FDFC9000031221C0E4FB7A01F9F8900060
:1024220003E0FCA3E0FDA3E0FEA3E0FF1220EDAD7C
:10243200077FE4123B2B900003E0FCA3A3E0FEA382
:10244200E0FFE4AD077FE5123B2B7D207FDE123BF0
:102452002B7DE07FDE123B2B7D807FFF123B2B7DAD
:10246200F17F16123B2B7DF37F16123B2BE490007B
:1024720008F07D807FFF123B2B7DE37F16123B2B02
:102482007DF37F16123B2B7D827FFF123B2B7F1544
:10249200123A30EF30E7097BFF7A0679DD021C360B
:1024A2007D807FFF123B2B7D5A7F11123B2B7DFAE1
:1024B2007F11123B2B7DDC7F18123B2B7DFC7F189A
:1024C200123B2B7DF17F16123B2B7DF37F16123BC5
:1024D2002B7BFF7A0679FB121C36900008E004F091
:0624E200E0C39406408CEB
:0124E80022D1
:1030A2007D817FFF123B2B7D6A7F30123B2B90008C
:1030B20042E0700F7D737F31123B2B7BFF7A0779E1
:1030C20026800D7D447F31123B2B7BFF7A077946A8
:1030D200121C367D4A7F32123B2B7D0B7F33123B13
:1030E2002BE4FD7F34123B2BE4FD7F35123B2BE4B6
:1030F200FD7F36123B2B7D447F37123B2B7D0F7FAA
:103102003F123B2B7D987F40123B2B7D987F4112D3
:103112003B2B7D987F42123B2B7D987F43123B2BAA
:073122007D0A7F44023B2BF4
:10329D007D817FFF123B2B7D407F23123B2B7D8257
:1032AD007FFF123B2B7D207FDE123B2B7DE07FDEEF
:1032BD00123B2B7D807FFF123B2B7DDC7F18123B59
:1032CD002B7DFC7F18123B2B7DF17F16123B2B7D46
:1032DD00F37F16123B2B7D5A7F11123B2B7DFA7F0C
:1032ED0011123B2B7D817FFF123B2B7DEA7F30122C
:0B32FD003B2B7BFF7A077966021C3632
:103B49007D817FFF123B2BE4FD7F30123B2B7D8073
:0E3B59007F23123B2B7BFF7A077989021C36F3
:0B2BA90090003AE0FBA3E0FAA3E0F983
:102BB40090001612202AFF900003F0900018121FB4
:102BC40049C454F02408FE900005F0A3EFF0FD7C06
:102BD40000EEFF7E002DFBEE33FAD3EB945FEA6444
:102BE4008094805013C3745F9FCBE49ECBC39DFD40
:102BF400EB9CFCFEAF058016C3745F9FFF74019EBF
:102C0400FE900006E0FDC3EF9DFFEE9400FE9000F1
:102C140004EFF07D827FFF123B2B900044E0B4016F
:102C24000F7D8E7FD6123B2B7BFF7A0779AD801305
:102C3400900044E070107D0E7FD6123B2B7BFF7A10
:102C44000779D8121C36900041E070077D047FD7C5
:102C5400123B2B900041E0B401077D807FD7123BEB
:102C64002B7D847FFF123B2B900004E0FD7F4312F9
:102C74003B2B900005E0FD7F45123B2B900006E0C6
:102C8400FD7F47123B2B7D847FFF123B2B7D027F10
:102C940010123B2B7D647F12123B2B900003E064E7
:102CA4005F7D847FFF7048123B2B7D2A7F3D123B62
:102CB4002B7D817F74123B2B7D017F75123B2B7D15
:102CC400057F76123B2B7D497F77123B2B7D037F5B
:102CD40078123B2B7D0C7F79123B2BE4FD7F7A121B
:102CE4003B2B7D207F7B123B2B7D017F7C80071259
:092CF4003B2B7D0A7F3D123B2BB6
:012CFD0022B4
:103B0C00900045E0B401177D827FFF123B2B7D189E
:0F3B1C007FB9123B2B7BFF7A087902121C3622ED
:10349400900041E0702C7BFF7A087924121C367D61
:1034A400847FFF123B2B7D087F06123B2B7D107F10
:1034B40007123B2B7D2B7F0F123B2B7DD47F3412C5
:1034C4003B2B900041E0640170257BFF7A08793B37
:1034D400121C367D847FFF123B2B7D0C7F06123B32
:1034E4002B7D107F07123B2B7DD47F34123B2B2284
:01003A0022A3
:103BD6007D827FFF123B2B7F5E123A30EF30E2038D
:063BE6007F01227F002296
:103AC7007D857FFF123B2B7D1F7F07123B2B7DFEE2
:103AD7007F13123B2B7D0F7F17123B2B7D057F1525
:033AE700023B2B74
:103989007D807FFF123B2B7D7F7F14123B2B7DFFB8
:103999007F14123B2B7D857FFF123B2B7D017F1509
:1039A900123B2B7D717F15123B2B7D657F15123BD9
:0A39B9002B7BFF7A087950021C36C0
:0E3C7B007D857FFF123B2B7D457F15023B2B85
:10343300EF7D807FFF604F123B2B7DFF7F0D123BA3
:103443002B7DF97F15123B2B7D867FFF123B2BE4EF
:10345300FD7FFA123B2B7DA57FFE123B2B7D7F7FE9
:10346300FC123B2BE4FD7FFC123B2B7D827FFF1282
:103473003B2B7D7F7F01123B2B7DFF7F05123B2B77
:103483007D7F7F058007123B2B7DF17F15123B2B40
:013493002216
:103C2B007D867FFF123B2B7D207FF7123B2BE4FD24
:053C3B007FF8023B2BA5
:0B2EFB00900004EBF0A3EAF0A3E9F064
:102F06007D867FFF123B2B7FD3123A30900007EF6E
:102F1600F0900004E0FBA3E0FAA3E0F9EF121F76BD
:102F26009000087401F0900007E0FFA3E0FED39F35
:102F36005048EE24D3FF123A30900004E0FBA3E0A1
:102F4600FAA3E0F9900008E0FEF582758300EF121F
:102F56001F88900004E0FBA3E0FAA3E0F98E8275D7
:102F66008300121F49900013F07BFF7A08796912DB
:102F76001C36900008E004F080ACE4FD7FF5123BBF
:072F86002B9000477401F0DD
:012F8D002221
:0B336D00900000EBF0A3EAF0A3E9F0F1
:10337800121F30900003F07D867FFF123B2B9000D8
:1033880003E0FD7FF4123B2BE4900004F09000036F
:10339800E0FFA3E0FED39F5029EE24E4FFEE2401D2
:1033A800FDE433FC900000E0FBA3E0FAA3E0F98D14
:1033B800828C83121F49FD123B2B900004E004F01D
:0933C80080CB7D037FF9023B2B51
:103AEA009000587405F0A37450F0A37484F0A37482
:103AFA0010F0E4A3F0A37405F07B017A0079580270
:023B0A00336D19
:102A01009000011221CC000000007BFF7A0179DCEB
:102A1100121C367D827FFF123B2B7D037FC7123B49
:102A21002B7F327E007D007C001237197FCD123A58
:102A310030900000EFF0546064606003022AD1E03E
:102A4100540FFFE4FCFDFEFBFA7901F812206290BD
:102A510000011221C07FCE123A30900000EFF0A3A6
:102A6100E0F8A3E0F9A3E0FAA3E0FB900000E07F27
:102A710000FEE4FCFDEF2BFFEA3EFEED39FDEC38F4
:102A8100FCA31221C07FCF123A30900000EFF0A3D7
:102A9100E0F8A3E0F9A3E0FAA3E0FB900000E0FF77
:102AA100E4FCFDFEEB2FFFEE3AFEED39FDEC38FCC8
:102AB100A31221C07BFF7A087970900001E0FCA38A
:102AC100E0FDA3E0FEA3E0FF9000131221C0800609
:102AD1007BFF7A087988121C367D827FFF123B2B9F
:102AE1007D047FC7123B2B7F327E007D007C00126C
:102AF10037197FCD123A30900000EFF054606460D6
:102B01006003022B97E0540FFFE4FCFDFEFBFA7912
:102B110001F81220629000011221C07FCE123A30DA
:102B2100900000EFF0A3E0F8A3E0F9A3E0FAA3E03E
:102B3100FB900000E07F00FEE4FCFDEF2BFFEA3E8E
:102B4100FEED39FDEC38FCA31221C07FCF123A30E3
:102B5100900000EFF0A3E0F8A3E0F9A3E0FAA3E00E
:102B6100FB900000E0FFE4FCFDFEEB2FFFEE3AFEE0
:102B7100ED39FDEC38FCA31221C07BFF7A0879A363
:102B8100900001E0FCA3E0FDA3E0FEA3E0FF9000C4
:102B9100131221C080067BFF7A0879BB121C367B99
:082BA100FF7A067962021C367E
:013CA0002201
:013CA1002200
:013CA20022FF
:103BA0007D827FFF123B2B7D0A7F58123B2B7D804D
:0C3BB0007F59123B2B7DF77F9E023B2BC0
:102DBA00900004EDF0900003EFF064017042A3E08C
:102DCA007D827FFF6020123B2B7DFF7F07123B2B0A
:102DDA007D3F7F07123B2B7D3F7F03123B2B7BFFFF
:102DEA007A0879D68017123B2B7DFF7F07123B2B7F
:102DFA007DFF7F03123B2B7BFF7A097901121C3678
:102E0A00900003E064027050A3E07D827FFF602E91
:102E1A00123B2B7DFF7F9E123B2B7DF77F9E123B41
:102E2A002B7DFF7F04123B2B7DFE7F04123B2B7D03
:102E3A00FEE4FF123B2B7BFF7A09792D8017123BA8
:102E4A002B7DFF7F04123B2B7DFFE4FF123B2B7B84
:092E5A00FF7A09795C121C362292
:1031AD00123BD6900038EFF07D827FFF123B2B7DD6
:1031BD00FF7F07123B2B7D3F7F07123B2B90003883
:1031CD00E060467BFF7A09798C121C36E4FF1233DE
:1031DD00087D017F02122DBA7F647E007D007C0088
:1031ED0012371912003A120F06900046E064206063
:1031FD000C1222771226A7122BA902329D123B49DF
:10320D007BFF7A0979BA021C367BFF7A0979FC12A9
:0F321D001C36E4FD7F02122DBA7F011233082206
:1038B9007BFF7A0A792D121C367D827FFF123B2B02
:1038C9007DFF7F9E123B2B7DF77F9E123B2B7DFF59
:1038D9007F04123B2B7DFE7F04123B2B120F0690B7
:1038E9000046E06420600C1222771226A7122BA949
:0738F90002329D123B49223F
:10322C007D867FFF123B2B7FD2123A30900003EF4A
:10323C00F07BFF7A0A7951900013F0121C36900043
:10324C0003E030E1127BFF7A0A796D121C367B01A8
:10325C007A007948122EFB900003E030E0097BFFE6
:10326C007A0A7979121C367D867FFF123B2B7D7F83
:10327C007FFC123B2BE4FD7FFC123B2B7D827FFFFE
:10328C00123B2B7DFF7F05123B2B7D7F7F05023B85
:01329C002B06
:0B24E900900074EBF0A3EAF0A3E9F010
:1024F400900074E0FBA3E0FAA3E0F9900015121F2A
:1025040049C43354E0FF900014121F49C454F02FFF
:10251400900077F0F4F05430F07D827FFF123B2B73
:10252400900074E0FBA3E0FAA3E0F9900004122009
:102534002AFFAEF090000212202A2FE5F03EFD7F24
:10254400A3123B2B900074E0FBA3E0FAA3E0F99004
:10255400000412202AFFAEF090000212202A2FFF5E
:10256400E5F03EAD077FA4123B2B900074E0FBA383
:10257400E0FAA3E0F990000E12202AFFAEF09000DA
:102584000C12202A2FFFE5F03EAD077FA5123B2B4E
:10259400900074E0FBA3E0FAA3E0F9900006122097
:1025A4002AE5F0FD7FA6123B2B900074E0FBA3E02C
:1025B400FAA3E0F990000612202AFD7FA7123B2B14
:1025C400900074E0FBA3E0FAA3E0F990001012205D
:1025D4002AE5F0FD7FA8123B2B900074E0FBA3E0FA
:1025E400FAA3E0F990001012202AFD7FA9123B2BD8
:1025F400900074E0FBA3E0FAA3E0F9900008122035
:102604002AE5F0FD7FAA123B2B900074E0FBA3E0C7
:10261400FAA3E0F990000812202AFD7FAB123B2BAD
:10262400900074E0FBA3E0FAA3E0F99000121220FA
:102634002AE5F0FD7FAC123B2B900074E0FBA3E095
:10264400FAA3E0F990001212202AFD7FAD123B2B71
:10265400900074E0FBA3E0FAA3E0F99000021220DA
:102664002AE5F0FD7FAE123B2B900074E0FBA3E063
:10267400FAA3E0F990000212202AFD7FAF123B2B4F
:10268400900074E0FBA3E0FAA3E0F990000C1220A0
:102694002AFD7FB0123B2B900077E04407FD7F4773
:0326A400023B2BCB
:102CFE009000191221909000781221C07BFF7A0A61
:102D0E00798C900078E0FCA3E0FDA3E0FEA3E0FF49
:102D1E009000131221C0121C367D837FFF123B2BB5
:102D2E007D507F2D123B2B7F287E887D047C00906A
:102D3E000078E0F8A3E0F9A3E0FAA3E0FBC31221C8
:102D4E007F700E7DB67F26123B2B7DF07F27123BC8
:102D5E002B7F147E447D027C00900078E0F8A3E087
:102D6E00F9A3E0FAA3E0FBC312217F70077DB77FC2
:102D7E0026123B2B7F0A7E227D017C00900078E09C
:102D8E00F8A3E0F9A3E0FAA3E0FBC312217F7007DA
:102D9E007D9C7F26123B2B7D807FFF123B2B7D5A25
:0C2DAE007F11123B2B7DFA7F11023B2BA2
:103C40007D827FFF123B2B7D807F4F123B2B7D209F
:053C50007F50023B2B38
:1000030090003A74FFF0A3740AF0A374D5F0123889
:100013001C1233D1123C4012227790003AE0FBA32A
:10002300E0FAA3E0F91224E9122BA91230A212324A
:070033009D123CA102349470
:10301A0012381C1233D112003A1235AF122E637FC6
:10302A00E87E037D007C00123719120F0612227700
:10303A001226A7123494123B0C122BA91230A21298
:10304A003BA0E4FF123433123C2B7D017F01122D89
:10305A00BAE4FD7F02122DBA122A01123CA2123CD6
:10306A00A0123CA17BFF7A0A79A2121C361231AD5A
:10307A00900092E0600B123900E4900092F0439BBA
:10308A0002900047E060E990004AE0B48503123AF2
:08309A00EAE4900047F080D841
:03003B00023A8006
:103A8000C0E0C083C082C0D0E5ECB4080575EC008E
:103A9000C2899000927401F0539BFDD0D0D082D0A7
:043AA00083D0E032BD
:103900007D827FFF123B2B7F0C123A30900001EF3B
:10391000F07F0D123A30900002EFF07F0F123A3034
:10392000900000EFF0900002E030E70312322C909C
:103930000000E054C060031231AD900001E030E0BF
:04394000031238B97D
:013944002260
:03000000022F8E3E
:0C2F8E00787FE4F6D8FD758121022FD574
:1036C00090007C1221C0538EF7438901D28CE4FF15
:1036D000FEFDFC90007CE0F8A3E0F9A3E0FAA3E093
:1036E000FBC312217F602F758A7E758CFF308DFDA4
:1036F000C28D90007CE0FCA3E0FDA3E0FEA3E024EB
:10370000FFFFEE34FFFEED34FFFDEC34FFFC9000D4
:093710007C1221C080B8C28C2299
:103719009000051221C0538EF7438901D28CE4FF32
:10372900FEFDFC900005E0F8A3E0F9A3E0FAA3E0B0
:10373900FBC312217F602F758ACA758CFA308DFD03
:10374900C28D900005E0FCA3E0FDA3E0FEA3E02408
:10375900FFFFEE34FFFEED34FFFDEC34FFFC90007B
:09376900051221C080B8C28C22B7
:103772009000801221C0538EEF438910D28EE4FF55
:10378200FEFDFC900080E0F8A3E0F9A3E0FAA3E0DC
:10379200FBC312217F602F758BEA758DCB308FFDB5
:1037A200C28F900080E0FCA3E0FDA3E0FEA3E02432
:1037B200FFFFEE34FFFEED34FFFDEC34FFFC900022
:0937C200801221C080B8C28E22E1
:103553009000841221C053C9BF53C9DF43C910D29D
:10356300CAE4FFFEFDFC900084E0F8A3E0F9A3E0C9
:10357300FAA3E0FBC312217F602F75CC3075CDF821
:1035830030CFFDC2CF900084E0FCA3E0FDA3E0FEBA
:10359300A3E024FFFFEE34FFFEED34FFFDEC34FF28
:0C35A300FC9000841221C080B8C2CA2233
:10360A009000881221C075C40743C408E4FFFEFD78
:10361A00FC900088E0F8A3E0F9A3E0FAA3E0FBC37A
:10362A0012217F603275C52C75C6CFE5C430E4FB24
:10363A0053C4EF900088E0FCA3E0FDA3E0FEA3E002
:10364A0024FFFFEE34FFFEED34FFFDEC34FFFC9067
:0B365A0000881221C080B553C4F72285
:1036650090008C1221C075C40743C408E4FFFEFD19
:10367500FC90008CE0F8A3E0F9A3E0FAA3E0FBC31B
:1036850012217F603275C5D875C6FFE5C430E4FBED
:1036950053C4EF90008CE0FCA3E0FDA3E0FEA3E0A3
:1036A50024FFFFEE34FFFEED34FFFDEC34FFFC900C
:0B36B500008C1221C080B553C4F72226
:102F9A00023C55E493A3F8E493A34003F68001F2BC
:102FAA0008DFF48029E493A3F85407240CC8C33338
:102FBA00C4540F4420C8834004F456800146F6DF07
:102FCA00E4800B0102040810204080903B67E47EF5
:102FDA00019360BCA3FF543F30E509541FFEE493FC
:102FEA00A360010ECF54C025E060A840B8E493A3C3
:102FFA00FAE493A3F8E493A3C8C582C8CAC583CAEE
:10300A00F0A3C8C582C8CAC583CADFE9DEE780BEA5
:013B83000041
:101F3000BB010689828A83E0225002E722BBFE02AF
:091F4000E32289828A83E49322E2
:101F4900BB010CE58229F582E5833AF583E022504D
:101F590006E92582F8E622BBFE06E92582F8E22297
:0D1F6900E58229F582E5833AF583E49322B1
:101F7600BB010689828A83F0225002F722BBFE014A
:021F8600F32244
:101F8800F8BB010DE58229F582E5833AF583E8F08F
:101F9800225006E92582C8F622BBFE05E92582C83B
:021FA800F22223
:101FAA00BC000BBE0029EF8DF084FFADF022E4CC1B
:101FBA00F875F008EF2FFFEE33FEEC33FCEE9DECE4
:101FCA00984005FCEE9DFE0FD5F0E9E4CEFD22ED2A
:101FDA00F8F5F0EE8420D21CFEADF075F008EF2F74
:101FEA00FFED33FD4007985006D5F0F222C398FD65
:051FFA000FD5F0EA2202
:101FFF00BB010A89828A83E0F5F0A3E022500687AD
:10200F00F009E71922BBFE07E3F5F009E31922896E
:0B201F00828A83E493F5F074019322A1
:10202A00BB0110E58229F582E5833AF583E0F5F0F4
:10203A00A3E0225009E92582F886F008E622BBFED1
:10204A000AE92582F8E2F5F008E222E5832AF58317
:08205A00E993F5F0A3E99322DC
:10206200E88FF0A4CC8BF0A42CFCE98EF0A42CFC1D
:102072008AF0EDA42CFCEA8EF0A4CDA8F08BF0A49B
:102082002DCC3825F0FDE98FF0A42CCD35F0FCEBFA
:102092008EF0A4FEA9F0EB8FF0A4CFC5F02ECD39BF
:0F20A200FEE43CFCEAA42DCE35F0FDE43CFC222C
:1020B10075F008758200EF2FFFEE33FECD33CDCCE6
:1020C10033CCC58233C5829BED9AEC99E582984069
:1020D1000CF582EE9BFEED9AFDEC99FC0FD5F0D646
:1020E100E4CEFBE4CDFAE4CCF9A88222B800C1B970
:1020F1000059BA002DEC8BF084CFCECDFCE5F0CBAE
:10210100F97818EF2FFFEE33FEED33FDEC33FCEBE6
:1021110033FB10D703994004EB99FB0FD8E5E4F9A1
:10212100FA227818EF2FFFEE33FEED33FDEC33FC8E
:10213100C933C910D7059BE99A4007EC9BFCE99A82
:10214100F90FD8E0E4C9FAE4CCFB2275F010EF2FC7
:10215100FFEE33FEED33FDCC33CCC833C810D707C7
:102161009BEC9AE899400AED9BFDEC9AFCE899F802
:0E2171000FD5F0DAE4CDFBE4CCFAE4C8F92295
:10217F00EB9FF5F0EA9E42F0E99D42F0E89C45F0B6
:01218F00222D
:10219000BB010DE58229F582E5833AF58302220928
:1021A0005007E92582F80221FDBBFE07E92582F8E8
:1021B000022215E58229F582E5833AF58302222180
:0C21C000ECF0A3EDF0A3EEF0A3EFF02292
:1021CC00A8828583F0D083D0821221E31221E312FE
:1021DC0021E31221E3E473E493A3C583C5F0C58323
:1021EC00C8C582C8F0A3C583C5F0C583C8C582C85D
:0121FC0022C0
:101BCB00E5082413F582E43400F583E00508229040
:101BDB000010300703900013E475F001122231025C
:101BEB001F302000E97F2ED2008018EF540F249075
:101BFB00D43440D4FF30040BEF24BFB41A0050038D
:101C0B002461FFE50960021509050CE50C7002055E
:101C1B000B30070E900010E475F001122231EF0229
:101C2B001F76023A597403D2078003E4C207F50802
:101C3B00900010122248E4F509F50BF50CE509604C
:101C4B00077F20121C0E80F5750AFFC201C200C26D
:101C5B0002C203C205C206C208121BDAFF700D30A6
:101C6B0007057F00121C1FAF0CAE0B22B4255FC201
:101C7B00D5C204121BDAFF24D0B40A00501A75F037
:101C8B000A780930D50508B6FF0106C6A426F6204A
:101C9B00D5047002D20380D924CFB41A00EF5004BC
:101CAB00C2E5D204021E20D20180C6D20080C0D26F
:101CBB000280BCD2D580BAD20580B47F20121C0E14
:101CCB002002077401B5090040F1121BCBFF121C57
:101CDB000E021C48D208D2068095121BCBFB121B9E
:101CEB00CBFA121BCBF94A4B700679F17A1E7BFFAC
:101CFB0020022EE509602A7E008E82758300121F5A
:101D0B004960060EEE650A70F0C2D5EBC0E0EAC082
:101D1B00E0E9C0E0EE121E67D0E0F9D0E0FAD0E0C7
:101D2B00FB121F30FF60AAEBC0E0EAC0E0E9C0E0A5
:101D3B00121C0ED0E02401F9D0E03400FAD0E0FB05
:101D4B00E50A0460DCD50AD980877BFF7A1E7963AC
:101D5B00D202809C791080027908C206C2088008E2
:101D6B00D2D5790A8004790AC2D5E50A047002F546
:101D7B000AE4FAFDFEFF121BCBFC7B0820011312B9
:101D8B001BCBFD7B1030000A121BCBFE121BCBFFB3
:101D9B007B20EC3382D592D55013C3E43000069FE1
:101DAB00FFE49EFEE42001039DFDE49CFCE4CBF8E4
:101DBB00C201EC700CCFCECDCCE824F8F870F380D8
:101DCB0017C3EF33FFEE33FEED33FDEC33FCEB3398
:101DDB00FB994002FB0FD8E9EB300105F8D0E0C4CA
:101DEB0048B201C0E00AEC4D4E4F78207B0070C228
:101DFB00EAB50A0040BCC0E0121E69D0F0D0E0206A
:101E0B000104C4C0E0C4B201C0F0121BF7D0F0D57E
:101E1B00F0EB021C481222511CE5531D5F581CB6F7
:101E2B004C1CB2421D634F1D6B441D6B491CCB43B5
:081E3B001D71551D55461D5592
:101E4300451D55471F11501CBA2D1CBE2E1CE12BDE
:101E53001CC2231CDF201EFA2A1C7A4800001CD94E
:101E63003F3F3F00790AA2D5200314300509B9107A
:101E7300020404B9080104A2D5200602500104207B
:101E830002689202B509005034C0E07F2030031984
:101E93007F30A20272067205500F121EC0C202C228
:101EA30006C205C2087F30800F300503E9C0E01287
:101EB3001C0E300503D0E0F9D0E0B509CC3005178E
:101EC3007F30B9100C121C0E7F583004077F7880C6
:101ED30003B90803121C0E3002057F2D021C0E7F6E
:101EE300202008F87F2B2006F322920280CF286E51
:101EF300756C6C2900D201121BCB3001F8C201783A
:101F03000930D50108F6021C7A2D50434958121B9B
:101F1300CB2403B405004001E4901F0C93121BFF74
:0D1F2300743A121BFFD203750904021D5F02
:0C21FD00E6FC08E6FD08E6FE08E6FF220E
:0C220900E0FCA3E0FDA3E0FEA3E0FF2248
:0C221500E2FC08E2FD08E2FE08E2FF2205
:10222100E493FC740193FD740293FE740393FF2203
:10223100F8E0FBA3A3E0F925F0F0E5821582700236
:072241001583E0FA38F022DA
:09224800EBF0A3EAF0A3E9F02297
:10225100D083D082F8E4937012740193700DA3A31C
:1022610093F8740193F5828883E473740293686030
:06227100EFA3A3A380DF30
:103A5900EFB40A07740D123A64740A309811A899E0
:103A6900B8130CC2983098FDA899C298B811F630CD
:073A790099FDC299F59922A5
:00000001FF
