:03451900307800F7
:10426D0053B1BF53B2BF53B17F53B27F7598504313
:10427D008920438780438E1053C4DFAB07AA06A95C
:10428D0005A8047F407E427D0F7C00121F77EF044E
:09429D00F404F58DD28ED29922B1
:08451100C2998F993099FD2237
:030037000245116E
:10410500AB07AA067C007D0A121E27C3EF940AEEB0
:10411500648094805005EF2430800E7C007D0AAFCA
:1041250003AE02121E27EF2457FF1200377C007DD5
:104135000AAF03AE02121E27C3ED940AEC64809405
:0F41450080ED5004243080022457FF12003722EF
:1038B80090004BEEF0A3EFF07BFF7A4579191226C2
:1038C800507F027E007D007C00123F5E90004BE03E
:1038D800FEA3E0FF7C007D10121E27C3EF940AEEC2
:1038E800648094805005EF2430801290004BE0FEF5
:1038F800A3E0FF7C007D10121E27EF2457FF120063
:103908003790004BE0FEA3E0FF7C007D10121E27DD
:10391800C3ED940AEC64809480ED50042430800256
:073928002457FF12003722B3
:0621010090001012204ABC
:10210700E4900014F0A31220560000000090001085
:10211700E0FCA3E0FDA3E0FEA3E0FF900015122082
:102127004A7F201200377F7F7E967D987C00900043
:1021370015E0F8A3E0F9A3E0FAA3E0FBD312200926
:10214700407A7B807A9679987800900015E0FCA316
:10215700E0FDA3E0FEA3E0FF121F77E47B0AFAF994
:10216700F8D31220097B807A967998780090001529
:10217700E0FCA3E0FDA3E0FEA3E0FF4008121F7709
:10218700EF24308006121F77EF2457FF1200379095
:102197000015E0FCA3E0FDA3E0FEA3E0FF7B807A4F
:1021A7009679987800121F77AC00AD01AE02AF03A5
:1021B70090001512204A9000147401F07F3F7E4270
:1021C7007D0F7C00900015E0F8A3E0F9A3E0FAA3E7
:1021D700E0FBD3122009407C7B407A42790F7800DC
:1021E700900015E0FCA3E0FDA3E0FEA3E0FF121FB3
:1021F70077E47B0AFAF9F8D31220097B407A42790F
:102207000F7800900015E0FCA3E0FDA3E0FEA3E03B
:10221700FF4008121F77EF24308006121F77EF2444
:1022270057FF120037900015E0FCA3E0FDA3E0FE86
:10223700A3E0FF7B407A42790F7800121F77AC004A
:10224700AD01AE02AF0390001512204A900014743E
:1022570001F0800B900014E060057F301200377F9B
:102267009F7E867D017C00900015E0F8A3E0F9A32E
:10227700E0FAA3E0FBD312200950030223127BA04C
:102287007A8679017800900015E0FCA3E0FDA3E0D1
:10229700FEA3E0FF121F77E47B0AFAF9F8D31220B6
:1022A700097BA07A864019097800900015E0FCA305
:1022B700E0FDA3E0FEA3E0FF121F77EF24308018B4
:1022C70079017800900015E0FCA3E0FDA3E0FEA3F0
:1022D700E0FF121F77EF2457FF120037900015E039
:1022E700FCA3E0FDA3E0FEA3E0FF7BA07A867901D3
:1022F7007800121F77AC00AD01AE02AF0390001556
:1023070012204A9000147401F0800B900014E060D2
:10231700057F30120037E47F0F7E27FDFC90001504
:10232700E0F8A3E0F9A3E0FAA3E0FBD312200950F9
:10233700030223C3E47B107A27F9F8900015E0FC29
:10234700A3E0FDA3E0FEA3E0FF121F77E47B0AFAF8
:10235700F9F8D3122009E47B107A274017F8900088
:1023670015E0FCA3E0FDA3E0FEA3E0FF121F77EF5B
:1023770024308016F9F8900015E0FCA3E0FDA3E0F7
:10238700FEA3E0FF121F77EF2457FF1200379000DC
:1023970015E0FCA3E0FDA3E0FEA3E0FFE47B107AD9
:1023A70027F9F8121F77AC00AD01AE02AF0390001A
:1023B7001512204A9000147401F0800B900014E06D
:1023C70060057F30120037E47FE77E03FDFC900055
:1023D70015E0F8A3E0F9A3E0FAA3E0FBD312200984
:1023E7005003022474E47BE87A03F9F8900015E0BF
:1023F700FCA3E0FDA3E0FEA3E0FF121F77E47B0A46
:10240700FAF9F8D3122009E47BE87A034017F89029
:102417000015E0FCA3E0FDA3E0FEA3E0FF121F7799
:10242700EF24308016F9F8900015E0FCA3E0FDA337
:10243700E0FEA3E0FF121F77EF2457FF120037904B
:102447000015E0FCA3E0FDA3E0FEA3E0FFE47BE8CA
:102457007A03F9F8121F77AC00AD01AE02AF039013
:10246700001512204A9000147401F0800B9000149C
:10247700E060057F30120037E47F63FEFDFC9000CB
:1024870015E0F8A3E0F9A3E0FAA3E0FBD3122009D3
:102497005003022521E47B64FAF9F8900015E0FC6B
:1024A700A3E0FDA3E0FEA3E0FF121F77E47B0AFA97
:1024B700F9F8D3122009E47B644017F8900015E07F
:1024C700FCA3E0FDA3E0FEA3E0FF121F77EF24309B
:1024D7008017FAF9F8900015E0FCA3E0FDA3E0FEF1
:1024E700A3E0FF121F77EF2457FF12003790001564
:1024F700E0FCA3E0FDA3E0FEA3E0FFE47B64FAF9C0
:10250700F8121F77AC00AD01AE02AF0390001512B1
:10251700204A9000147401F0800B900014E06005CD
:102527007F30120037E47B0AFAF9F8900015E0FCD7
:10253700A3E0FDA3E0FEA3E0FF121F77E47B0AFA06
:10254700F9F8D3122009E44017F8900015E0FCA32E
:10255700E0FDA3E0FEA3E0FF121F77EF2430801910
:102567007B0AFAF9F8900015E0FCA3E0FDA3E0FE72
:10257700A3E0FF121F77EF2457FF120037E47B0A0F
:10258700FAF9F8900015E0FCA3E0FDA3E0FEA3E054
:10259700FF121F77AC00AD01AE02AF03E47B0AFA6E
:1025A700F9F8D3122009E44017F8900015E0FCA3CE
:1025B700E0FDA3E0FEA3E0FF121F77EB24308019B4
:1025C7007B0AFAF9F8900015E0FCA3E0FDA3E0FE12
:0D25D700A3E0FF121F77EB2457FF1200371F
:0125E40022D4
:0B32EA00900010EBF0A3EAF0A3E9F065
:1032F50090003B12205600000000E490003FF0A330
:10330500F0F9A3C9F0A3F0A3E9F0E4A3F0F9A3C988
:10331500F0A3F0A3E9F0A37401F0A37400F0A37483
:1033250013F0900010E0F9A3E0FAA3E0900045C97E
:10333500F0A3EAF0A3E9F0900045E0FBA3E0FAA3CF
:10334500E0F9121D58700302341B64256003023432
:1033550001900045A3E475F001121E5DA9F0FA1273
:103365001D5824DB70030233EF24E1602B24EC604D
:103375005024F4602324EC604824157072900048B2
:10338500E0FBA3E475F002121E73A9F0FA121E8980
:10339500900044F0E0FF8054900048E0FBA3E47502
:1033A500F001121E73A9F0FA121D58FF90003FE4B8
:1033B500F0A3EFF090003FA3E0FF7E0012410580EF
:1033C5002E900048E0FBA3E475F001121E73A9F0EE
:1033D500FA121D58FF90003FE4F0A3EFF090003F74
:1033E500E0FEA3E0FF1238B880057F251200379074
:1033F5000046E475F001121E5D02333C900045E085
:10340500FBA3E475F001121E73A9F0FA121D58FF13
:0634150012003702333CF7
:01341B00228E
:1041EF000D0A2323232323232323232323232323BF
:1041FF002323232323232323232323236D637520A7
:10420F0073746172742323232323232323232323F0
:10421F00232323232323232323232323232323235F
:04422F002323230022
:04441C004100D40087
:1041A20043B30153B4FE43B30253B4FD43B30453C8
:1041B200B4FB43B10853B2F743B11053B2EF53AC5F
:1041C200FE43AD0143B30843B40843B31043B410F4
:1041D2007F007EC27D017C0012426D53E9FB43E900
:0D41E2002043EA0853EBF7439B02D2AF22C3
:10443700C2B07FC87E007D007C00123F5ED2B07F95
:0A444700C87E007D007C00023F5E8D
:1042F6001241A27BFF7A4179EF1232EA1244371259
:1043060037279000D4E060FA124154E49000D4F0CC
:05431600439B0280ED55
:044420004100D2760F
:0744E5001244ECD2937F0AA0
:0A44EC00E4FEEEC39F50030E80F8BB
:0144F60022A3
:10446700D2947F011244E5C2947F071244ECC293B1
:054477007F010244EC8E
:0C450500C2947F021244E5D2940244EC00
:02406300AD07A7
:10406500E4FCEDA804088002C333D8FC30E704D291
:10407500948002C2947F031244ECD2930F1244EC55
:10408500C2930CECB408DB7F011244ECD2947F039D
:104095001244ECD2931244EC309407E49000D3F030
:0F40A50080069000D37401F0C2937F030244ECB5
:10000300E4FDD294FC7F011244ECC2937F041244BA
:10001300ECD2937F021244ECED25E0FD3094010D08
:100023007F021244EC0CECB408DBC2937F0512444C
:03003300ECAF052A
:0100360022A7
:1043E400EF7004C2948002D2947F081244ECD293FA
:0C43F4007F0F1244ECC2937F080244ECDF
:073CDD00900012EDF0AC07AE
:103CE400124467AF041240639000D3E07002802D49
:103CF400900012E0FF1240639000D3E07002801D38
:103D0400E4900017F0900016E0FFA3E0C39F502258
:103D1400121D58FF1240639000D3E070061245054F
:103D24007F0022740129F9E43AFA900017E004F0C4
:073D340080D31245057F0159
:013D3B002265
:0837B200900011EFF0A3EDF00F
:1037BA00124467900011E0FF1240639000D3E0705A
:1037CA00028022900012E0FF1240639000D3E07062
:1037DA00028012124467900011E004FF12406390C5
:1037EA0000D3E07009124505E4121D9EFF22E49001
:1037FA000017F0900016E014FFA3E0C39F501B12BD
:10380A000003EF121D9EE4FF1243E4740129F9E458
:10381A003AFA900017E004F080D9120003EF121D63
:0B382A009E7F011243E41245057F0160
:013835002270
:0242A600AE0761
:1042A800E4900010F09000D2E0FFAD067B017A00A8
:1042B80079109000167401F01237B2EF6006900082
:0642C80010E0FF227F0060
:0142CE0022CD
:02447C00AE0789
:10447E009000D2E0FFAD069000B1E0900016F01271
:02448E0037B243
:014490002209
:0743C600900010EDF0AE07BE
:1043CD009000D2E0FFAD067B017A007910900016C7
:0643DD007401F0123CDD4A
:0143E30022B7
:02449100AE0774
:104493009000D2E0FFAD069000B6E0900016F01257
:0244A3003CDDFE
:0144A50022F4
:10003E000D0A4C54393631312072696E672043688F
:10004E006970204944203D20257820002025780025
:10005E000D0A4C54393631315F4D4950495F496E66
:10006E007075745F44696774613A206C7439363107
:10007E003120736574206D697069206C616E6573D3
:10008E00203D202564000D0A4C54393631315F4D28
:10009E004950495F496E7075745F44696774613A7F
:1000AE00206C743936313120736574206D69706936
:1000BE0020706F727473203D2031000D0A4C54393C
:1000CE003631315F4D4950495F496E7075745F44EA
:1000DE00696774613A206C743936313120736574F6
:1000EE00206D69706920706F7274203D2032000D92
:1000FE000A4C54393631312E6D6970695F6D6F64FB
:10010E0065203D20637369000D0A4C543936313138
:10011E002E6D6970695F6D6F6465203D2064736933
:10012E00000D0A766964656F20636865636B3A201B
:10013E004C54393631312E6D6970695F6D6F64655F
:10014E00203D20637369000D0A766964656F206334
:10015E006865636B3A204C54393631312E6D6970B7
:10016E00695F6D6F6465203D20647369000D0A4CF4
:10017E0054393631315F566964656F5F4368656324
:10018E006B3A20685F6163745F612C20685F616306
:10019E00745F622C20765F6163742C20765F7461CD
:1001AE006C3A20000D0A4C54393631315F56696471
:1001BE00656F5F436865636B3A206D6970695F7642
:1001CE006964656F5F666F726D61743A20257800A1
:1001DE000D0A566964656F5F436865636B203D2049
:1001EE00766964656F5F363430783438305F363018
:1001FE00487A20000D0A566964656F5F436865632F
:10020E006B203D20766964656F5F37323078343805
:10021E00305F3630487A20000D0A566964656F5F8C
:10022E00436865636B203D20766964656F5F373286
:10023E0030783537365F3530487A20000D0A5669EA
:10024E0064656F5F436865636B203D207669646506
:10025E006F5F31323830783732305F3630487A203F
:10026E00000D0A566964656F5F436865636B203DD8
:10027E0020766964656F5F31323830783732305F9F
:10028E003530487A20000D0A566964656F5F436801
:10029E0065636B203D20766964656F5F313238305F
:1002AE00783732305F3330487A20000D0A56696451
:1002BE00656F5F436865636B203D20766964656F8B
:1002CE005F3139323078313038305F3630487A200D
:1002DE00000D0A566964656F5F436865636B203D68
:1002EE0020766964656F5F3139323078313038305D
:1002FE005F3530487A20000D0A566964656F5F439A
:10030E006865636B203D20766964656F5F313932B5
:10031E003078313038305F3330487A20000D0A564D
:10032E006964656F5F436865636B203D2076696421
:10033E00656F5F3139323078313038305F32354861
:10034E007A20000D0A566964656F5F436865636BBA
:10035E00203D20766964656F5F31393230783130F7
:10036E0038305F3234487A20000D0A566964656F62
:10037E005F436865636B203D20766964656F5F330C
:10038E0038343078323136305F3330487A20000DD1
:10039E000A566964656F5F436865636B203D20761E
:1003AE006964656F5F3338343078323136305F329E
:1003BE0035487A20000D0A566964656F5F4368659B
:1003CE00636B203D20766964656F5F333834307817
:1003DE00323136305F3234487A20000D0A56696465
:1003EE00656F5F436865636B203D20766964656F5A
:1003FE005F383030783630305F3630487A20000D36
:10040E000A566964656F5F436865636B203D2076AD
:10041E006964656F5F31303234783736385F363025
:10042E00487A20000D0A566964656F5F43686563FC
:10043E006B203D20766964656F5F313238307837D6
:10044E0036385F3630487A20000D0A566964656F7B
:10045E005F436865636B203D20766964656F5F312D
:10046E0032383078313032345F3630487A20000DF1
:10047E000A566964656F5F436865636B203D20763D
:10048E006964656F5F3136303078313230305F36C7
:10049E0030487A20000D0A566964656F5F436865BF
:1004AE00636B203D20766964656F5F313638307836
:1004BE00313035305F3630487A20000D0A56696487
:1004CE00656F5F436865636B203D20766964656F79
:1004DE005F31333636783736385F3630487A20001B
:1004EE000D0A566964656F5F436865636B203D2036
:1004FE00766964656F5F3235363078313434305F0B
:10050E003630487A20000D0A566964656F5F43687D
:10051E0065636B203D20766964656F5F32353630DA
:10052E0078313434305F3530487A20000D0A566900
:10053E0064656F5F436865636B203D207669646513
:10054E006F5F37323078313038305F3630487A204E
:10055E00000D0A566964656F5F436865636B203DE5
:10056E0020766964656F5F313038307831393230DA
:10057E005F3630487A20000D0A566964656F5F4316
:10058E006865636B203D20766964656F5F33383430
:10059E003078313038305F3630487A20000D0A56C8
:1005AE006964656F5F436865636B203D207669649F
:1005BE00656F5F31303234783630305F3630487A9E
:1005CE0020000D0A566964656F5F436865636B2092
:1005DE003D20766964656F5F31323830783830305F
:1005EE005F3630487A20000D0A566964656F5F43A6
:1005FE006865636B203D20766964656F5F353430C6
:10060E00783936305F3630487A20000D0A566964E4
:10061E00656F5F436865636B203D20766964656F27
:10062E005F3235363078313630305F3630487A20AA
:10063E00000D0A566964656F5F436865636B203D04
:10064E0020766964656F5F323536307831303830F8
:10065E005F3630487A20000D0A566964656F5F4335
:10066E006865636B203D20766964656F5F32353651
:10067E0030783732305F3630487A20000D0A5669AE
:10068E0064656F5F436865636B203D2076696465C2
:10069E006F5F373230783530375F3630487A20002A
:1006AE000D0A566964656F5F436865636B203D2074
:1006BE00756E6B6E6F776E20766964656F20666FF0
:1006CE00726D617420000D0A4C54393631315F5011
:1006DE004C4C3A2073657420727820706C6C203DFF
:1006EE0020000D0A4C54393631315F504C4C3A20B3
:1006FE007063725F6D203D2025782C2068646D69D3
:10070E005F706F73745F646976203D202564000D01
:10071E000A4C54393631315F504C4C3A2048444DD6
:10072E004920706C6C206C6F636B6564000D0A4C15
:10073E0054393631315F504C4C3A2048444D4920A3
:10074E00706C6C20756E6C6F636B65642C207265BB
:10075E0073657420706C6C000D0A4C54393631314F
:10076E005F4353433A205970627072203432322004
:10077E00746F20524742383838000D0A417564694B
:10078E006F20696E7574203D2049325320326368A4
:10079E00000D0A417564696F20696E7574203D20E5
:1007AE005350444946000D0A4C54393631315F4896
:1007BE004443505F456E61626C653A204F6E000D8A
:1007CE000A706F72742041206279746520636C6BBD
:1007DE00203D20000D0A706F7274204120627974E2
:1007EE006520636C6B20756E737461626C65000DB1
:1007FE000A706F72742042206279746520636C6B8C
:10080E00203D20000D0A706F7274204220627974B0
:10081E006520636C6B20756E737461626C65000D80
:10082E000A4C54393631315F456E61626C655F49F1
:10083E006E74657272757074733A206870645F6955
:10084E0072715F656E61626C65000D0A4C543936CB
:10085E0031315F456E61626C655F496E74657272AF
:10086E00757074733A206870645F6972715F646941
:10087E007361626C65000D0A4C54393631315F4537
:10088E006E61626C655F496E7465727275707473B9
:10089E003A207669645F6368675F6972715F656E3F
:1008AE0061626C65000D0A4C54393631315F456E0C
:1008BE0061626C655F496E74657272757074733ABD
:1008CE00207669645F6368675F6972715F646973DC
:1008DE0061626C65000D0A4C54393631315F484403
:1008EE00505F496E746572727570745F48616E64A4
:1008FE006C653A2048444D4920636F6E6E65637493
:10090E006564004C54393631315F4844505F496E4E
:10091E00746572727570745F48616E646C653A20AE
:10092E006E6F206D69706920766964656F2C206426
:10093E00697361626C652068646D69206F7574708F
:10094E007574000D0A4C54393631315F4844505F8E
:10095E00496E746572727570745F48616E646C6511
:10096E003A2048444D4920646973636F6E6E656327
:10097E00746564004C54393631315F5669645F4397
:10098E0068675F496E746572727570745F48616EE8
:10099E00646C653A20004C54393631315F566964C7
:1009AE005F4368675F496E746572727570745F48F5
:1009BE00616E646C653A206E6F206D697069207689
:1009CE006964656F2C2064697361626C652068646C
:1009DE006D69206F7574707574000D0A6365635FC1
:1009EE0073746174757328307838366432293D20FB
:1009FE002578000D0A636563207265633A20000D49
:100A0E000A73656E64206461746120646F6E652E76
:100A1E0020000D0A4C54393631315F4952515F5422
:100A2E0061736B203A495251205461736B000D0A69
:100A3E0073657420706978656C20636C6B203D2043
:100A4E00000D0A2323232323232323232323234C91
:100A5E00543936313120496E697469616C20456EA6
:100A6E006423232323232323232323232323232307
:100A7E002323230000100060003002800320000AB0
:100A8E000002002101E0020D00000001000061A83B
:100A9E000010003E003C02D0035A00090006001E62
:100AAE0001E0020D0000000300006978000C004018
:100ABE00005802D0036000050005002702400271B5
:100ACE000000001100006978006E002800DC0500AF
:100ADE00067200050005001402D002EE01010004AA
:100AEE000001220A01B8002800DC050007BC000541
:100AFE000005001402D002EE010100130001220ACB
:100B0E000058002C0094078008980004000500246B
:100B1E000438046501010010000244140210002C78
:100B2E00009407800A500004000500240438046570
:100B3E000101001F000244140058002C009407808D
:100B4E000898000400050024043804650101002201
:100B5E000001220A0210002C009407800A500004A3
:100B6E000005002404380465010100210001220A59
:100B7E00027E002C009407800ABE000400050024AB
:100B8E0004380465010100200001220A00B000585B
:100B9E0001280F0011300008000A0048087008CA2A
:100BAE000101005F000488280420005801280F006E
:100BBE0014A00008000A0048087008CA0101005E6F
:100BCE000004882804FC005801280F00157C00083A
:100BDE00000A0048087008CA0101005D0004882858
:100BEE0000F8002C00940A000AA000040005000B77
:100BFE000438044C01010000000305700030008031
:100C0E00005803200420000100040017025802744B
:100C1E000101000000009C400018008800A00400A4
:100C2E00054000030006001D03000326000000001F
:100C3E000000FDE80040008000C0050006800003B3
:100C4E00000700140300031E000100000001368C93
:100C5E000030007000F80500069800010003002621
:100C6E000400042A010100000001A5E0004000C0BC
:100C7E0001300640087000010003002E04B004E2AB
:100C8E0001010000000278D0006800B00118069043
:100C9E0008C000030006001E041A044100010000F3
:100CAE0000023B4A06E0002800DC05000CE40005CB
:100CBE000005001402D002EE010100000001220A1C
:100CCE00003C003C00640400048200020005000A9F
:100CDE000258026901010000000084D00028002C97
:100CEE0000280320039C000A0004000C0500051ACE
:100CFE000101000000010C8E000E00380040055668
:100D0E0005DC00010003001C0300032001010000AC
:100D1E000001211000B0011001C00A000D80000377
:100D2E000005002405A005CC010100000003E8FA2F
:100D3E000030002000500A000AA000030005002128
:100D4E0005A005C9010100000003AF5C00300020C2
:100D5E0000500A000AA00003000600250640066E99
:100D6E0001010000000418D400B0005801280F0043
:100D7E001130000400050024043804650101000050
:100D8E000004882800DC005001B80A000CE40005BD
:100D9E000005001402D002EE01010000000244140E
:100DAE00000400050024043804650058002C00944B
:100DBE000780089801010000000244140005000598
:100DCE00001402D002EE006E002800DC0500067250
:100DDE00010100000001220A001E000A001E021C72
:100DEE000262000A000A000A03C003DE01010000CD
:100DFE00000082DC0010003E003C02D0035A0009C5
:100E0E000006000301FB020D0000000300006978DC
:104424004700820101010000000141008A004100AF
:024434007D0009
:103D3C007D807FFF1243C67D017FEE1243C6E4FFF8
:103D4C001242A6900013EFF07BFF7A00793E1232FC
:103D5C00EA7F011242A6900013EFF07BFF7A007904
:103D6C005A1232EA7F021242A6900013EFF07BFF48
:103D7C007A00795A1232EA7D817FFF1243C67D1890
:0C3D8C007F011243C67D807FFF0243C60A
:10433F007D817FFF1243C67D487F021243C67D8079
:10434F007F231243C6E4FD7F301243C6E4FD7F0195
:03435F000243C650
:1040B400EF7D817FFF60231243C67D497F02124357
:1040C400C67D807F231243C6E4FD7F301243C67D44
:1040D400807FFF1243C67D0A80211243C67D127F72
:1040E400021243C67D407F231243C67DEA7F30120D
:1040F40043C67D807FFF1243C67DFA7F111243C6FB
:014104002298
:103B58007D827FFF1243C67D117F511243C67D824D
:103B68007FFF1243C67D697F1B1243C67D787F1C89
:103B78001243C67D697FCB1243C67D787FCC124342
:103B8800C67D807FFF1243C67DF07F041243C67D49
:103B9800F07F061243C67D807F0A1243C67D467FAA
:103BA8000B1243C67DEF7F0D1243C67DFA7F1102CB
:023BB80043C602
:103DF4007D817FFF1243C67D207F061243C67D3F2F
:103E04007F071243C67D3F7F081243C67DFE7F0AAB
:103E14001243C67DBF7F0B1243C67D207F11124320
:103E2400C67D3F7F121243C67D3F7F131243C67D7A
:103E3400FE7F151243C67DBF7F161243C67D037FE6
:0B3E44001C1243C67D037F200243C612
:10357000900083E0900000F07BFF7A00795E90007D
:1035800013F01232EA7D827FFF1243C67D807F4FA7
:103590001243C67D107F501243C67D837FFF1243C6
:1035A000C6900000E0FDE4FF1243C67D047F0212D6
:1035B00043C67D047F061243C630900FE4FD7F0AA8
:1035C0001243C67BFF7A007994800D7D037F0A1237
:1035D00043C67BFF7A0079C91232EA900084E07B0F
:1035E000FFB4011C7A0079FD1232EA7D837FFF125D
:1035F00043C67D107F081243C67D407F2C0243C620
:073600007A0179161232EA8B
:0136070022A0
:100E1E00E4900003F07D827FFF1243C67F8612426C
:100E2E00A690000EE4F0A3EFF07F871242A6EFFD2E
:100E3E007C0090000FE0FEE42DFFEC3E90000EF0E3
:100E4E00A3EFF07F821242A690000AE4F0A3EFF027
:100E5E007F831242A6EFFD7C0090000BE0FEE42D96
:100E6E00FFEC3E90000AF0A3EFF07F6C1242A690CA
:100E7E00000CE4F0A3EFF07F6D1242A6EFFD7C00B4
:100E8E0090000DE0FEE42DFFEC3E90000CF0A3EF81
:100E9E00F07D837FFF1243C67F821242A69000062A
:100EAE00E4F0A3EFF07F831242A6EFFD7C009000EA
:100EBE0007E0FEE42DFFEC3E900006F0A3EFF07F7E
:100ECE00861242A6900008E4F0A3EFF07F8712424C
:100EDE00A6EFFD7C00900009E0FEE42DFFEC3E90B5
:100EEE000008F0A3EFF0900084E07BFFB4011D7AC0
:100EFE0001792F1232EA900006E0C313F0A3E0133B
:100F0E00F0A3E0C313F0A3E013F080337A01795518
:100F1E001232EA900006E0FEA3E0FF7C007D031291
:100F2E001DD2900006EEF0A3EFF0A3E0FEA3E0FFCB
:100F3E007C007D03121DD2900008EEF0A3EFF07F2F
:100F4E00881242A6900003EFF07BFF7A01797B12A4
:100F5E0032EA900006E0FEA3E0FFE4FCFD12210160
:100F6E00900008E0FEA3E0FFE4FCFD1221019000DA
:100F7E000AE0FEA3E0FFE4FCFD12210190000CE06C
:100F8E00FEA3E0FFE4FCFD1221017BFF7A0179B2A2
:100F9E00900003E0900013F01232EA2090189000B7
:100FAE0008E0FEA3E0FF900007E02FFF900006E0B0
:100FBE003E900004800B900006E0FFA3E09000043A
:100FCE00CFF0A3EFF0900A88E493FE740193FF90A4
:100FDE000004E0B50639A3E0B50734900A92E49315
:100FEE00FE740193FF90000AE0B50623A3E0B50757
:100FFE001E7BFF7A0179DE1232EA9000897401F0CD
:10100E0090007F74FFF0A3740AF0A37482F0229014
:10101E000AA4E493FE740193FF900004E0B5063930
:10102E00A3E0B50734900AAEE493FE740193FF90EB
:10103E00000AE0B50623A3E0B5071E7BFF7A02790E
:10104E00021232EA9000897402F090007F74FFF071
:10105E00A3740AF0A3749EF022900AC0E493FE7467
:10106E000193FF900004E0B50639A3E0B507349074
:10107E000ACAE493FE740193FF90000AE0B50623BA
:10108E00A3E0B5071E7BFF7A0279261232EA9000A2
:10109E00897403F090007F74FFF0A3740AF0A374B8
:1010AE00BAF022900ADCE493FE740193FF900004E0
:1010BE00E06E7003A3E06F600302116C900AE6937A
:1010CE00FE740193FF90000AE06E7003A3E06F6060
:1010DE000302116CC390000FE0947690000EE09422
:1010EE0002501E7BFF7A02794A1232EA900089740E
:1010FE0004F090007F74FFF0A3740AF0A374D6F08E
:10110E0022C390000FE094EE90000EE09402501E69
:10111E007BFF7A02796F1232EA900089740BF0909D
:10112E00007F74FFF0A3740AF0A374F2F022C39050
:10113E00000FE094CE90000EE0940440030218BD20
:10114E007BFF7A0279941232EA900089740CF09047
:10115E00007F74FFF0A3740CF0A374B2F022900B16
:10116E0014E493FE740193FF900004E06E7003A3E9
:10117E00E06F6003021281900B1E93FE740193FFC9
:10118E0090000AE06E7003A3E06F6003021281C349
:10119E0090000FE094AE90000EE09401501E7BFF85
:1011AE007A0279B91232EA9000897405F090007FC4
:1011BE0074FFF0A3740BF0A3740EF022C390000F13
:1011CE00E094FE90000EE09401501E7BFF7A0279AF
:1011DE00DF1232EA900089741AF090007F74FFF0EB
:1011EE00A3740BF0A3742AF022C390000FE0943E78
:1011FE0090000EE09403501E7BFF7A0379051232A5
:10120E00EA900089741BF090007F74FFF0A3740BBA
:10121E00F0A37446F022C390000FE094D490000E19
:10122E00E09403501E7BFF7A03792B1232EA900072
:10123E0089741CF090007F74FFF0A3740BF0A374FC
:10124E0062F022C390000FE0940690000EE094042A
:10125E0040030218BD7BFF7A0379511232EA9000E7
:10126E0089741DF090007F74FFF0A3740BF0A374CB
:10127E007EF022900BA0E493FE740193FF90000485
:10128E00E06E7003A3E06F600302133C900BAA9311
:10129E00FE740193FF90000AE06E7003A3E06F608E
:1012AE000302133CC390000FE094AE90000EE09446
:1012BE0001501E7BFF7A0379771232EA900089740F
:1012CE000DF090007F74FFF0A3740BF0A3749AF0EE
:1012DE0022C390000FE094EA90000EE09401501E9D
:1012EE007BFF7A03799D1232EA900089740EF0909A
:1012FE00007F74FFF0A3740BF0A374B6F022C390BA
:10130E00000FE0940890000EE0940240030218BD16
:10131E007BFF7A0379C31232EA900089740FF09042
:10132E00007F74FFF0A3740BF0A374D2F022900C24
:10133E0010E493FE740193FF900004E0B50639A308
:10134E00E0B50734900C1AE493FE740193FF9000FD
:10135E000AE0B50623A3E0B5071E7BFF7A0379E901
:10136E001232EA9000897420F090007F74FFF0A38F
:10137E00740CF0A3740AF022900C2CE493FE74010A
:10138E0093FF900004E0B50639A3E0B50734900C46
:10139E0036E493FE740193FF90000AE0B50623A392
:1013AE00E0B5071E7BFF7A04790D1232EA900089B0
:1013BE007420F090007F74FFF0A3740CF0A37426D9
:1013CE00F022900C48E493FE740193FF900004E029
:1013DE00B50639A3E0B50734900C52E493FE7401C0
:1013EE0093FF90000AE0B50623A3E0B5071E7BFF2E
:1013FE007A0479321232EA9000897420F090007FDC
:10140E0074FFF0A3740CF0A37442F022900C64E409
:10141E0093FE740193FF900004E0B50639A3E0B586
:10142E000734900C6EE493FE740193FF90000AE073
:10143E00B50623A3E0B5071E7BFF7A047957123257
:10144E00EA9000897420F090007F74FFF0A3740C72
:10145E00F0A3745EF022900C80E493FE740193FF6F
:10146E00900004E0B50639A3E0B50734900C8AE489
:10147E0093FE740193FF90000AE0B50623A3E0B536
:10148E00071E7BFF7A04797D1232EA900089742060
:10149E00F090007F74FFF0A3740CF0A3747AF02226
:1014AE00900C9CE493FE740193FF900004E0B5064B
:1014BE0039A3E0B50734900CA6E493FE740193FFB4
:1014CE0090000AE0B50623A3E0B5071E7BFF7A0461
:1014DE0079A31232EA9000897420F090007F74FF95
:1014EE00F0A3740CF0A37496F022900D0CE493FE0E
:1014FE00740193FF900004E0B50639A3E0B50734FC
:10150E00900D16E493FE740193FF90000AE0B50669
:10151E0023A3E0B5071E7BFF7A0479C91232EA9045
:10152E0000897416F090007F74FFF0A3740DF0A381
:10153E007406F022900D44E493FE740193FF900024
:10154E0004E06E7003A3E06F7072900D4E93FE7404
:10155E000193FF90000AE06E7003A3E06F705DC30D
:10156E0090000FE0943690000EE09401501E7BFF29
:10157E007A0479EE1232EA9000897418F090007FA6
:10158E0074FFF0A3740DF0A3743EF022C390000F0D
:10159E00E0947290000EE0940140030218BD7BFFB0
:1015AE007A0579141232EA900089741FF090007F48
:1015BE0074FFF0A3740DF0A37422F022900DD0E40A
:1015CE0093FE740193FF900004E0B50639A3E0B5D5
:1015DE000734900DDAE493FE740193FF90000AE055
:1015EE00B50623A3E0B5071E7BFF7A05793A1232C2
:1015FE00EA9000897413F090007F74FFF0A3740DCD
:10160E00F0A374CAF022900DB4E493FE740193FF1C
:10161E00900004E0B50639A3E0B50734900DBEE4A2
:10162E0093FE740193FF90000AE0B50623A3E0B584
:10163E00071E7BFF7A05795F1232EA9000897412D9
:10164E00F090007F74FFF0A3740DF0A374AEF0223F
:10165E00900D7CE493FE740193FF900004E0B506B8
:10166E0039A3E0B50734900D86E493FE740193FF21
:10167E0090000AE0B50623A3E0B5071E7BFF7A05AE
:10168E0079851232EA9000897410F090007F74FF11
:10169E00F0A3740DF0A37476F022900CD4E493FEB4
:1016AE00740193FF900004E0B50639A3E0B507344A
:1016BE00900CDEE493FE740193FF90000AE0B506F1
:1016CE0023A3E0B5071E7BFF7A0579AB1232EA90B1
:1016DE0000897411F090007F74FFF0A3740CF0A3D6
:1016EE0074CEF022900CF0E493FE740193FF900000
:1016FE0004E0B50639A3E0B50734900CFAE493FE86
:10170E00740193FF90000AE0B50623A3E0B5071E0F
:10171E007BFF7A0579D01232EA9000897414F0902A
:10172E00007F74FFF0A3740CF0A374EAF022900D06
:10173E00ECE493FE740193FF900004E0B50639A328
:10174E00E0B50734900DF6E493FE740193FF90001C
:10175E000AE0B50623A3E0B5071E7BFF7A0579F5EF
:10176E001232EA9000897415F090007F74FFF0A396
:10177E00740DF0A374E6F022900D60E493FE7401F4
:10178E0093FF900004E0B50639A3E0B50734900D41
:10179E006AE493FE740193FF90000AE0B50623A35A
:1017AE00E0B5071E7BFF7A0679191232EA9000899E
:1017BE007417F090007F74FFF0A3740DF0A3745AA9
:1017CE00F022900BF4E493FE740193FF900004E07A
:1017DE00B50639A3E0B50734900BFEE493FE740111
:1017EE0093FF90000AE0B50623A3E0B5071E7BFF2A
:1017FE007A06793F1232EA9000897419F090007FD0
:10180E0074FFF0A3740BF0A374EEF022900D98E425
:10181E0093FE740193FF900004E0B50639A3E0B582
:10182E000734900DA2E493FE740193FF90000AE03A
:10183E00B50623A3E0B5071E7BFF7A067965123243
:10184E00EA900089741EF090007F74FFF0A3740D6F
:10185E00F0A37492F022900E08E493FE740193FFAD
:10186E00900004E0B50639A3E0B50734900E12E4FB
:10187E0093FE740193FF90000AE0B50623A3E0B532
:10188E00071E7BFF7A06798A1232EA900089741F4E
:10189E00F090007F74FFF0A3740EF0A37402F02298
:0F18AE009000897420F07BFF7A0679AE1232EA3F
:0118BD002208
:102CD700900006EBF0A3EAF0A3E9F07D837FFF12F3
:102CE70043C6900006E0FBA3E0FAA3E0F9900012C8
:102CF700121EB4E5F0FD7F0D1243C6900006E0FBFF
:102D0700A3E0FAA3E0F9900012121EB4FD7F0E12A1
:102D170043C6900006E0FBA3E0FAA3E0F990001099
:102D2700121EB4E5F0FD7F0F1243C6900006E0FBCC
:102D3700A3E0FAA3E0F9900010121EB4FD7F101271
:102D470043C6900006E0FBA3E0FAA3E0F990000871
:102D5700121EB4E5F0FD7F111243C6900006E0FB9A
:102D6700A3E0FAA3E0F9900008121EB4FD7F121247
:102D770043C6900006E0FBA3E0FAA3E0F990000643
:102D8700121EB4E5F0FD7F131243C6900006E0FB68
:102D9700A3E0FAA3E0F9900006121EB4FD7F141217
:102DA70043C6900006E0FBA3E0FAA3E0F990000C0D
:102DB700121EB4FD7F151243C6900006E0FBA3E088
:102DC700FAA3E0F9900002121EB4FD7F161243C663
:102DD700900006E0FBA3E0FAA3E0F990000A121EB8
:102DE700B4FD7F171243C6900006E0FBA3E0FAA3E9
:102DF700E0F990000E121EB4FFAEF090000C121E08
:102E0700B42FFFE5F03EAD077F181243C6900006CA
:102E1700E0FBA3E0FAA3E0F9121E89FD7F19124334
:102E2700C6900006E0FBA3E0FAA3E0F990000412C5
:102E37001EB4FFAEF0900002121EB42FE5F03EFD67
:102E4700121E89E5F0C4F8540FC868FFEF2DFD7F07
:102E57001A1243C6900006E0FBA3E0FAA3E0F9903C
:102E67000004121EB4FFAEF0900002121EB42FFF32
:0A2E7700E5F03EAD077F1B0243C6E5
:0B319F0090007FE0FBA3E0FAA3E0F942
:1031AA00900006121EB4FF900004E5F0F0A3EFF0C1
:1031BA00900014121D7125E0FF900015121D712F49
:1031CA00900003F0F4F05403F07D837FFF1243C6AE
:1031DA00209064900004E0FEA3E07802CEC313CEF0
:1031EA0013D8F9F0EE900004F0A3E02450F0900018
:1031FA0004E03400F0E0FEA3E0FFC394E0EE9403A1
:10320A00500280047E037FE0900004EEF0A3EFF00A
:10321A00900004E0FD7F0B1243C6900004A3E0FD7A
:10322A007F0C1243C6900004E0FD7F481243C6900B
:10323A000004A3E0FD80177D017F0B1243C67D10B9
:10324A007F0C1243C6E4FD7F481243C67D817F4945
:10325A001243C67D4A7F211243C67D717F241243E1
:10326A00C67D307F251243C67D017F2A1243C67D63
:10327A00407F4A1243C6900003E04410FD7F1D12AE
:10328A0043C6900089E024EF600624FC6002801C9B
:10329A007D707F241243C67D807F251243C67D1030
:1032AA007F2A1243C67DF07F1D1243C690007FE03D
:1032BA00FBA3E0FAA3E0F9122CD77D837FFF124328
:1032CA00C690007EE0FD7F261243C67D807FFF12F6
:1032DA0043C67D5A7F111243C67DFA7F110243C647
:0B2A680090007FE0FBA3E0FAA3E0F980
:102A730090001812201A90000312204A7BFF7A0656
:102A830079D41232EA900003E0FCA3E0FDA3E0FE58
:102A9300A3E0FF1221017D817FFF1243C67D407FAA
:102AA300231243C67D627F241243C67D807F251295
:102AB30043C67D557F261243C67D377F2C1243C6FE
:102AC3007D017F2F1243C67D557F261243C67D6647
:102AD3007F271243C67D887F281243C67FF07E4935
:102AE3007D027C00900003E0F8A3E0F9A3E0FAA3E1
:102AF300E0FBD3122009400F7D887F2D1243C6903F
:102B030000077401F080387F707E117D017C009096
:102B13000003E0F8A3E0F9A3E0FAA3E0FBD312205B
:102B230009400F7D997F2D1243C69000077402F070
:102B3300800D7DAA7F2D1243C69000077404F0E434
:102B43007F05FEFDFC900003E0F8A3E0F9A3E0FAA3
:102B5300A3E0FB121EECA804A905AA06AB0790008C
:102B630007E0FFE4FCFDFE121EECE47B787A69F9D2
:102B7300F8121F7790007EEFF07BFF7A0679F0E082
:102B8300900013F0900007E0900014F01232EA7DF9
:102B9300837FFF1243C67D407F2D1243C67D087F8E
:102BA300311243C690007EE04480FD7F261243C667
:102BB300900003E0FCA3E0FDA3E0FEA3E0FFE47BC1
:102BC30002FAF9F8121F7790000312204A7D827FE0
:102BD300FF1243C6E4FBFA7901F8900003E0FCA37B
:102BE300E0FDA3E0FEA3E0FF121F77AD077FE31232
:102BF30043C6900003A3A3E0FEA3E0FFE4FDFC9023
:102C0300000312204AE4FB7A01F9F8900003E0FC88
:102C1300A3E0FDA3E0FEA3E0FF121F77AD077FE46F
:102C23001243C6900003E0FCA3A3E0FEA3E0FFE48D
:102C3300AD077FE51243C67D207FDE1243C67DE0EC
:102C43007FDE1243C67D807FFF1243C67DF17F1670
:102C53001243C67DF37F161243C6E4900008F07D4D
:102C6300807FFF1243C67DE37F161243C67DF37F49
:102C7300161243C67D827FFF1243C67F151242A6FA
:102C8300EF30E7097BFF7A07791D0232EA7D807F07
:102C9300FF1243C67D5A7F111243C67DFA7F11127C
:102CA30043C67DDC7F181243C67DFC7F181243C6E2
:102CB3007DF17F161243C67DF37F161243C67BFF59
:102CC3007A07793B1232EA900008E004F0E0C394FB
:032CD30006408C2C
:012CD60022DB
:1039A4007D817FFF1243C67D6A7F301243C690003B
:1039B40087E070047D7380027D447F311243C67DAD
:1039C4004A7F321243C67D0B7F331243C6E4FD7F28
:1039D400341243C6E4FD7F351243C6E4FD7F36123C
:1039E40043C67D447F371243C67D0F7F3F1243C6D3
:1039F4007DA07F401243C67DA07F411243C67DA0B7
:103A04007F421243C67DA07F431243C67D0A7F4492
:033A14000243C6A4
:103BBA007D817FFF1243C67D407F231243C67D82EB
:103BCA007FFF1243C67D207FDE1243C67DE07FDE83
:103BDA001243C67D807FFF1243C67DDC7F181243E5
:103BEA00C67DFC7F181243C67DF17F161243C67D3F
:103BFA00F37F161243C67D5A7F111243C67DFA7FA0
:103C0A00111243C67D817FFF1243C67DEA7F3002CF
:023C1A0043C69F
:1044A6007D817FFF1243C6E4FD7F301243C67D80C7
:0544B6007F230243C654
:0B392F0090007FE0FBA3E0FAA3E0F9AA
:10393A00900016121EB4900004F0C394375002800F
:10394A0003900004E0FFC374379F900003F07D8268
:10395A007FFF1243C67D8E7FD61243C67D047FD772
:10396A001243C67D847FFF1243C6900003E0FD7FA9
:10397A00431243C67D287F451243C6900004E0FDEA
:10398A007F471243C67D847FFF1243C67D027F10A4
:0A399A001243C67D647F120243C68B
:1043A700900084E0B401177D827FFF1243C67D1819
:0F43B7007FB91243C67BFF7A0779661232EA227A
:103C7D00900086E0702C7BFF7A0779881232EA7DFE
:103C8D00847FFF1243C67D087F061243C67D107FD9
:103C9D00071243C67D297F0F1243C67DD47F341290
:103CAD0043C6900086E0640170257BFF7A07799FFB
:103CBD001232EA7D847FFF1243C67D0C7F061243CC
:103CCD00C67D107F071243C67DD47F341243C622B2
:01003A0022A3
:104451007D827FFF1243C67F5E1242A6EF30E203E8
:064461007F01227F002212
:104362007D857FFF1243C67D1F7F071243C67DFEF8
:104372007F131243C67D0F7F171243C67D057F153B
:034382000243C62D
:104233007D807FFF1243C67D7F7F141243C67DFFBF
:104243007F141243C67D857FFF1243C67D017F1510
:104253001243C67D717F151243C67D657F151243D8
:0A426300C67BFF7A0779B40232EA45
:0E44F7007D857FFF1243C67D457F150243C6BB
:103C1C00EF7D807FFF604F1243C67DFF7F0D124307
:103C2C00C67DF97F151243C67D867FFF1243C6E41D
:103C3C00FD7FFA1243C67DA57FFE1243C67D7F7FB2
:103C4C00FC1243C6E4FD7FFC1243C67D827FFF124B
:103C5C0043C67D7F7F011243C67DFF7F051243C69D
:103C6C007D7F7F0580071243C67DF17F151243C609
:013C7C002225
:1044BB007D867FFF1243C67D207FF71243C6E4FD46
:0544CB007FF80243C66A
:0B360800900004EBF0A3EAF0A3E9F04F
:103613007D867FFF1243C67FD31242A6900007EF39
:10362300F0900004E0FBA3E0FAA3E0F9EF121D9E83
:103633009000087401F0900007E0FFA3E0FED39F21
:103643005048EE24D3FF1242A6900004E0FBA3E00F
:10365300FAA3E0F9900008E0FEF582758300EF120B
:103663001DB0900004E0FBA3E0FAA3E0F98E82759D
:103673008300121D71900013F07BFF7A00795A12B8
:1036830032EA900008E004F080ACE4FD7FF51243D9
:07369300C690008A7401F0EB
:01369A00220D
:0B3AF400900000EBF0A3EAF0A3E9F063
:103AFF00121D58900003F07D867FFF1243C6900081
:103B0F0003E0FD7FF41243C6E4900004F09000033D
:103B1F00E0FFA3E0FED39F5029EE24E4FFEE240143
:103B2F00FDE433FC900000E0FBA3E0FAA3E0F98D85
:103B3F00828C83121D71FD1243C6900004E004F0C5
:093B4F0080CB7D037FF90243C61F
:1043850090009B7405F0A37450F0A37484F0A3749B
:1043950010F0E4A3F0A37405F07B017A00799B0289
:0243A5003AF4E8
:102E8100900001122056000000007D827FFF124356
:102E9100C67D037FC71243C67F327E007D007C0062
:102EA100123F5E7FCD1242A6900000EFF0546064A5
:102EB100606003022F48E0540FFFE4FCFDFEFBFAC3
:102EC1007901F8121EEC90000112204A7FCE1242C5
:102ED100A6900000EFF0A3E0F8A3E0F9A3E0FAA3C5
:102EE100E0FB900000E07F00FEE4FCFDEF2BFFEA39
:102EF1003EFEED39FDEC38FCA312204A7FCF124291
:102F0100A6900000EFF0A3E0F8A3E0F9A3E0FAA394
:102F1100E0FB900000E0FFE4FCFDFEEB2FFFEE3A4A
:102F2100FEED39FDEC38FCA312204A7BFF7A0779CC
:102F3100CD1232EA900001E0FCA3E0FDA3E0FEA384
:102F4100E0FF12210180097BFF7A0779E21232EA60
:102F51007D827FFF1243C67D047FC71243C67F3245
:102F61007E007D007C00123F5E7FCD1242A6900064
:102F710000EFF054606460600302300CE0540FFF16
:102F8100E4FCFDFEFBFA7901F8121EEC900001123F
:102F9100204A7FCE1242A6900000EFF0A3E0F8A3F2
:102FA100E0F9A3E0FAA3E0FB900000E07F00FEE47B
:102FB100FCFDEF2BFFEA3EFEED39FDEC38FCA312E0
:102FC100204A7FCF1242A6900000EFF0A3E0F8A3C1
:102FD100E0F9A3E0FAA3E0FB900000E0FFE4FCFDD0
:102FE100FEEB2FFFEE3AFEED39FDEC38FCA312208B
:102FF1004A7BFF7A0779FD1232EA900001E0FCA3D7
:10300100E0FDA3E0FEA3E0FF0221017BFF7A087946
:04301100121232EA7B
:013015002298
:01451C00227C
:01451D00227B
:01451E00227A
:104400007D827FFF1243C67D0A7F581243C67D809E
:0C4410007F591243C67DF77F9E0243C611
:1034D500900004EDF0900003EFF064017042A3E06A
:1034E5007D827FFF60201243C67DFF7F071243C6A2
:1034F5007D3F7F071243C67D3F7F031243C67BFF97
:103505007A08792D80171243C67DFF7F071243C6BF
:103515007DFF7F031243C67BFF7A0879581232EA92
:10352500900003E064027042A3E07D827FFF60208B
:103535001243C67DFF7F041243C67DFE7F041243FE
:10354500C67DFEE4FF1243C67BFF7A0879848017A7
:103555001243C67DFF7F041243C67DFFE4FF12437D
:0B356500C67BFF7A0879B31232EA221D
:1038360012445190007DEFF07D827FFF1243C67DDA
:10384600FF7F071243C67D3F7F071243C690007D68
:10385600E060497BFF7A0879E31232EAE4FF12401E
:10386600B47D017F021234D57F647E007D007C002A
:10387600123F5E12003A120E1E900089E06420602C
:103886000F122A6812319F12392F123BBA024233A5
:103896001244A67BFF7A0979110232EA7BFF7A0984
:1038A60079511232EA7F011240B4E4FD7F021234EC
:0238B600D52219
:104010007BFF7A0979821232EA7D827FFF1243C6E2
:104020007DFF7F9E1243C67DF77F9E1243C67DFFB4
:104030007F041243C67DFE7F041243C6120E1E90FB
:104040000089E06420600F122A6812319F12392F14
:10405000123BBA0242331244A67BFF7A0979A412BA
:0340600032EA221F
:103A17007D867FFF1243C67FD21242A6900003EF36
:103A2700F07BFF7A0979E8900013F01232EA9000F0
:103A370003E030E1127BFF7A0A79011232EA7B0157
:103A47007A00798B123608900003E030E0097BFF9B
:103A57007A0A790D1232EA7D867FFF1243C67D7F8F
:103A67007FFC1243C6E4FD7FFC1243C67D827FFFC5
:103A77001243C67DFF7F051243C67D7F7F05024344
:013A8700C678
:104154007BFF7A0A79201232EA7D827FFF1243C6FE
:104164007F0C1242A6900001EFF07F0D1242A69040
:104174000002EFF07F0F1242A6900000EFF09000D3
:1041840002E030E703123A17900000E054C06003E5
:0D419400123836900001E030E003124010B8
:0141A10022FB
:103016009000CFEBF0A3EAF0A3E9F07D827FFF12E8
:1030260043C69000CFE0FBA3E0FAA3E0F9900004CA
:10303600121EB4FFAEF0900002121EB42FE5F03E51
:10304600FD7FA31243C69000CFE0FBA3E0FAA3E006
:10305600F9900004121EB4FFAEF0900002121EB4E6
:103066002FFFE5F03EAD077FA41243C69000CFE0E8
:10307600FBA3E0FAA3E0F990000E121EB4FFAEF037
:1030860090000C121EB42FFFE5F03EAD077FA5128F
:1030960043C69000CFE0FBA3E0FAA3E0F990000658
:1030A600121EB4E5F0FD7FA61243C69000CFE0FBEA
:1030B600A3E0FAA3E0F9900006121EB4FD7FA71262
:1030C60043C69000CFE0FBA3E0FAA3E0F99000101E
:1030D600121EB4E5F0FD7FA81243C69000CFE0FBB8
:1030E600A3E0FAA3E0F9900010121EB4FD7FA91226
:1030F60043C69000CFE0FBA3E0FAA3E0F9900008F6
:10310600121EB4E5F0FD7FAA1243C69000CFE0FB85
:10311600A3E0FAA3E0F9900008121EB4FD7FAB12FB
:1031260043C69000CFE0FBA3E0FAA3E0F9900012BB
:10313600121EB4E5F0FD7FAC1243C69000CFE0FB53
:10314600A3E0FAA3E0F9900012121EB4FD7FAD12BF
:1031560043C69000CFE0FBA3E0FAA3E0F99000029B
:10316600121EB4E5F0FD7FAE1243C69000CFE0FB21
:10317600A3E0FAA3E0F9900002121EB4FD7FAF129D
:1031860043C69000CFE0FBA3E0FAA3E0F990000C61
:09319600121EB4FD7FB00243C615
:10341C0090001812201A9000B712204A7BFF7A0AEB
:10342C00793C1232EA9000B7E0FCA3E0FDA3E0FE89
:10343C00A3E0FF1221017D837FFF1243C67D507FE5
:10344C002D1243C67F287E887D047C009000B7E057
:10345C00F8A3E0F9A3E0FAA3E0FBC3122009700E75
:10346C007DB67F261243C67DF07F271243C67F149C
:10347C007E447D027C009000B7E0F8A3E0F9A3E065
:10348C00FAA3E0FBC312200970077DB77F26124315
:10349C00C67F0A7E227D017C009000B7E0F8A3E095
:1034AC00F9A3E0FAA3E0FBC312200970077D9C7F0F
:1034BC00261243C67D807FFF1243C67D5A7F1112B0
:0934CC0043C67DFA7F110243C6DC
:1044D0007D827FFF1243C67D807F4F1243C67D20C1
:0544E0007F500243C6FD
:103A880090007F74FFF0A3740BF0A3740EF0123D46
:103A98003C123B581244D0122A6890007FE0FBA3E6
:103AA800E0FAA3E0F912301612392F1239A4123BAA
:103AB800BA12451D7D827FFF1243C67D8C7FD612C8
:103AC80043C67D067FD71243C67D847FFF1243C657
:103AD8007D0C7F061243C67D107F071243C67D0109
:0C3AE8007F161243C67DD47F340243C613
:10372700123D3C123B5812003A123DF41235707F9D
:10373700E87E037D007C00123F5E120E1E122A688F
:1037470012319F123C7D1243A712436212392F1286
:1037570039A41244007F01123C1C1244BB7BFF7A40
:103767000A794F1232EA122E8112451E12451C1297
:10377700451D7D017F011234D5E4FD7F021234D54A
:103787001238369000D4E0600B124154E49000D414
:10379700F0439B0290008AE060E990008DE0B485D9
:0B37A70003124385E490008AF080D8F4
:03003B0002431B62
:10431B00C0E0C083C082C0D0E5ECB4080575EC00EA
:10432B00C2899000D47401F0539BFDD0D0D082D0C1
:04433B0083D0E03219
:0300000002369B2A
:0C369B00787FE4F6D8FD7581210236E24C
:103F05009000BB12204A538EF7438901D28CE4FFFF
:103F1500FEFDFC9000BBE0F8A3E0F9A3E0FAA3E006
:103F2500FBC3122009602F758A7E758CFF308DFDCD
:103F3500C28D9000BBE0FCA3E0FDA3E0FEA3E0245E
:103F4500FFFFEE34FFFEED34FFFDEC34FFFC900087
:093F5500BB12204A80B8C28C2284
:103F5E0090004D12204A538EF7438901D28CE4FF14
:103F6E00FEFDFC90004DE0F8A3E0F9A3E0FAA3E01B
:103F7E00FBC3122009602F758ACA758CFA308DFD2D
:103F8E00C28D90004DE0FCA3E0FDA3E0FEA3E02473
:103F9E00FFFFEE34FFFEED34FFFDEC34FFFC90002E
:093FAE004D12204A80B8C28C2299
:103FB7009000BF12204A538EEF438910D28EE4FF40
:103FC700FEFDFC9000BFE0F8A3E0F9A3E0FAA3E050
:103FD700FBC3122009602F758BEA758DCB308FFDDF
:103FE700C28F9000BFE0FCA3E0FDA3E0FEA3E024A6
:103FF700FFFFEE34FFFEED34FFFDEC34FFFC9000D5
:09400700BF12204A80B8C28E22CB
:103D98009000C312204A53C9BF53C9DF43C910D288
:103DA800CAE4FFFEFDFC9000C3E0F8A3E0F9A3E03D
:103DB800FAA3E0FBC3122009602F75CC3075CDF84B
:103DC80030CFFDC2CF9000C3E0FCA3E0FDA3E0FE2E
:103DD800A3E024FFFFEE34FFFEED34FFFDEC34FFDB
:0C3DE800FC9000C312204A80B8C2CA221E
:103E4F009000C712204A75C40743C408E4FFFEFD63
:103E5F00FC9000C7E0F8A3E0F9A3E0FAA3E0FBC3EE
:103E6F00122009603275C52C75C6CFE5C430E4FB4E
:103E7F0053C4EF9000C7E0FCA3E0FDA3E0FEA3E076
:103E8F0024FFFFEE34FFFEED34FFFDEC34FFFC901A
:0B3E9F0000C712204A80B553C4F72270
:103EAA009000CB12204A75C40743C408E4FFFEFD04
:103EBA00FC9000CBE0F8A3E0F9A3E0FAA3E0FBC38F
:103ECA00122009603275C5D875C6FFE5C430E4FB17
:103EDA0053C4EF9000CBE0FCA3E0FDA3E0FEA3E017
:103EEA0024FFFFEE34FFFEED34FFFDEC34FFFC90BF
:0B3EFA0000CB12204A80B553C4F72211
:1025E500E5082450F582E43400F583E005082290DF
:1025F500004D300703900050E475F001122087026A
:102605001D582000E97F2ED2008018EF540F24902A
:10261500D43440D4FF30040BEF24BFB41A00500368
:102625002461FFE50960021509050CE50C7002053A
:102635000B30070E90004DE475F001122087EF0274
:102645001D9E0242CF7403D2078003E4C207F5083A
:1026550090004D12209EE4F509F50BF50CE5096097
:10266500077F2012262880F5750AFFC201C200C225
:1026750002C203C205C206C2081225F4FF700D305E
:1026850007057F00122639AF0CAE0B22B4255FC2B9
:10269500D5C2041225F4FF24D0B40A00501A75F0EF
:1026A5000A780930D50508B6FF0106C6A426F62026
:1026B500D5047002D20380D924CFB41A00EF500498
:1026C500C2E5D20402292BD20180C6D20080C0D235
:1026D5000280BCD2D580BAD20580B47F20122628CC
:1026E5002002077401B5090040F11225E5FF122605
:1026F50028022662D208D20680951225E5FB12250E
:10270500E5FA1225E5F94A4B700679297A2A7BFF05
:1027150020022EE509602A7E008E82758300121D37
:102725007160060EEE650A70F0C2D5EBC0E0EAC036
:10273500E0E9C0E0EE12298CD0E0F9D0E0FAD0E073
:10274500FB121D58FF60AAEBC0E0EAC0E0E9C0E05B
:10275500122628D0E02401F9D0E03400FAD0E0FBBD
:10276500E50A0460DCD50AD98087D20280A2122945
:102775006E60F7E50A7001041218BEA90A600DE53E
:102785000A600914F50A122A16EF60F3EA30E70227
:10279500F404C3995079EAF4250A0430E701E40406
:1027A500F50A800D12296E60C1EA050A250A12187C
:1027B500BEEA90007CF030E701E4250A04D50A045E
:1027C5002005011412298CE4C0E0122A1690007C21
:1027D500E0601320E70714F0122610802204F0D0E1
:1027E500E014C0E07F00122610E50A6007122607F4
:1027F500150A800B300503122607D0E0022662D0A9
:10280500E00480C412296E609EE50A041218BE9089
:10281500007CEAF0E50A200502600104240412297F
:012825008C26
:1028260074FF04C0E0122A16122610E50A200502DB
:102836006003122607D0E0B50AE87F4512261A90F3
:10284600007CE07F2B30E7047F2DF404C0E01226E5
:1028560028D0E075F00A84C0F0122611D0E01226C6
:1028660011022662791080027908C206C208800821
:10287600D2D5790A8004790AC2D5E50A047002F530
:102886000AE4FAFDFEFF1225E5FC7B08200113127F
:1028960025E5FD7B1030000A1225E5FE1225E5FF31
:1028A6007B20EC3382D592D55013C3E43000069FCB
:1028B600FFE49EFEE42001039DFDE49CFCE4CBF8CE
:1028C600C201EC700CCFCECDCCE824F8F870F380C2
:1028D60017C3EF33FFEE33FEED33FDEC33FCEB3382
:1028E600FB994002FB0FD8E9EB300105F8D0E0C4B4
:1028F60048B201C0E00AEC4D4E4F78207B0070C212
:10290600EAB50A0040BCC0E012298ED0F0D0E02023
:102916000104C4C0E0C4B201C0F0122611D0F0D543
:10292600F0EB0226621220A726FF53286A5826D00B
:102936004C26CC42286E4F28764428764926E54315
:10294600287C5527A9462809452773472A49502632
:10295600D42D26D82E26FB2B26DC2326F9202A3238
:102966002A269448000026F3E50AB4FF03750A06F2
:102976001225E5FC1225E5FD1225E5FE1225E5FFEB
:102986009000750218FB790AA2D5200314300509B8
:10299600B910020404B9080104A2D52006025001A8
:1029A600042002689202B509005034C0E07F20304E
:1029B60003197F30A20272067205500F1229E5C272
:1029C60002C206C205C2087F30800F300503E9C087
:1029D600E0122628300503D0E0F9D0E0B509CC3066
:1029E60005177F30B9100C1226287F583004077F50
:1029F600788003B908031226283002057F2D0226A7
:102A0600287F202008F87F2B2006F322920280CF11
:102A16007F00B40700500B2475F582E43400F5837B
:102A2600E0FF22286E756C6C2900D2011225E53074
:102A360001F8C201780930D50108F60226942D5016
:102A46004349581225E52403B405004001E4902AC1
:102A56004493122619743A122619D20375090402F0
:022A6600286ADC
:1018BE00F920E73624F950037907E4F42402FBE516
:1018CE0082158270021583DBF6E024FB501BE96063
:1018DE0014E4F0E582158270021583E004F0B40A78
:0D18EE0008E4F0D9EE7401F00A22C2D52200
:1018FB00ED33EC3392D5FA602AB4FF33EDC2E77BBC
:10190B00FF60067A197920E4227A19792920D50407
:10191B007A197924224E614E002B494E46002D49EF
:10192B004E4600E47A08F0A3DAFC7B00740722C071
:10193B0083C082ECC0E0EDC0E0EEC0E0EFC0E0EAB7
:10194B0075F010A4CAABF075F04DA42BFBE435F089
:10195B00FCEA2410FAEB34C5FBEC34D9FCEDC2E7FE
:10196B00FF75F056A4F42411C5F0F434C58FF0A420
:10197B002AE5F03BE43CF020E714121CCED0E0FF4C
:10198B00D0E0FED0E0FDD0E0FC121C018014F4048A
:10199B00121CCED0E0FFD0E0FED0E0FDD0E0FC1278
:1019AB001AF8D082D083E0FAEDD2E7CD33EC3324B2
:1019BB0082FBE4C3CF33CFCE33CECD33CD33DBF38A
:1019CB007B0775F00A846004F0A31B0AE5F0F0A313
:1019DB008FF0740AA4FFACF08EF0740AA42CFEAC4A
:1019EB00F050010C8DF0740AA42CFDE435F0F0A33B
:0519FB00DBDE74072291
:101A0000021D43E86480F8E933E83360110460F0B4
:101A1000ED33EC337009E8FCE9FDEAFEEBFF22044C
:101A200060DED3EB9FEA9EE99DE8C2E78CF0C2F747
:101A300095F0400CE8CCF8E9CDF9EACEFAEBCFFB13
:101A4000121D0E85D0F05804700320D5B3E8047041
:101A5000075002B2D5021D4D92D5EC0460F7E4CCDC
:101A6000C0E0C398F8603B94186008400DD0E0FBDC
:101A7000021D25E4FBFAC9FC8028E830E406E4C92D
:101A8000FBE4CAFCE830E305E4C9CACBFCE8540730
:101A90006010F8C3E913F9EA13FAEB13FBEC13FC3B
:101AA000D8F130F52FC3E49CFCEF9BFFEE9AFEEDDE
:101AB00099FDD0E0FBEF4E4D4C701222DB03021D6E
:101AC0004AEC2CFCEF33FFEE33FEED33FDED30E757
:101AD000EB021D25EF2BFFEE3AFEED39FDD0E0FBCA
:101AE00050130BBB0003021D4DED13FDEE13FEEF73
:081AF00013FFEC13FC021D259D
:101AF800EC4D6011E8497017ED33EC3304600DE4E8
:101B0800FCFFFEFD22E933E8330470F8021D43129E
:101B18001D0E58046009E4CC24815006285009029F
:101B28001D4D284003021D4AC0E0EB4A7044B980AD
:101B380006D0E0FB021D39EF4E701CBD8008EBFF9C
:101B4800EAFEE9FD80EBE98DF0A4FEE5F0021BE179
:101B5800E9CDF9EAFEEBFFEF89F0A4FCE5F0CE89C8
:101B6800F0A42EFFE435F0CD89F0A42DFEE435F085
:101B78008067EF4E7005BD80D780C3EF8BF0A4ACB3
:101B8800F0EE8BF0A42CFCE435F0F8EF8AF0A42CEE
:101B9800E5F038FCE433CB8DF0A42CFCE5F03BF801
:101BA800EE8AF0A42CFCE5F038F8E433CF89F0A4F1
:101BB8002CFCE5F038CF3400CE89F0A42FFFE5F0F7
:101BC8003EFEE433C98DF0A42EFEE5F039CD8AF04F
:101BD800A42FFFE5F03EFEE43DFD33D0E0FB5007C7
:101BE8000BBB000F021D4DEC2CFCEF33FFEE33FE58
:061BF800ED33FD021D2586
:101BFE00021D4DEC5D046005E859047003021D439F
:101C0E00121D0E580460F6EC4860F2EC7004FDFEF6
:101C1E00FF22C860DB2481C85009C39860025006B9
:101C2E00021D4A9850CAF582E9294B4A7005AB82CB
:101C3E00021D3975F0007C1A7880C3EF9BEE9AED89
:101C4E0099400DC3EF9BFFEE9AFEED99FDE842F031
:101C5E00DC23ACF0D0E0FFD0E0FED0E0FDAB822084
:101C6E00E7101BEB60BAEC2CFCEF33FFEE33FEED0E
:101C7E0033FD021D25E803F830E705C0F075F000CE
:101C8E00EF2FFFEE33FEED33FD40B830E7C280AAF2
:101C9E003F8000004120000042C80000447A00004E
:101CAE00461C400047C35000497424004B189680D0
:101CBE004CBEBC205A0E1BCA6753C21C749DC5AEC7
:101CCE00FB60065407601C2323121CFCEB54386087
:101CDE0009121CE8121CF7121AF8ECF8EDF9EEFADC
:101CEE00EFCB22EB121CF780F1543803241C901C0E
:101CFE009EFE93FC0EEE93FD0EEE930ECE93FF2200
:101D0E00E9D2E7C933E833F892D5EDD2E7CD33EC1B
:071D1E0033FC5002B2D52294
:101D2500EC30E7100FBF000C0EBE00080DBD00041F
:101D35000BEB6014A2D5EB13FCED92E7FD2274FFCB
:101D4500FCFDFEFF22E480F8A2D574FF13FC7D8024
:031D5500E480EF38
:1036A7000242F6E493A3F8E493A34003F68001F201
:1036B70008DFF48029E493A3F85407240CC8C33324
:1036C700C4540F4420C8834004F456800146F6DFF3
:1036D700E4800B010204081020408090441CE47E23
:1036E700019360BCA3FF543F30E509541FFEE493E8
:1036F700A360010ECF54C025E060A840B8E493A3AF
:10370700FAE493A3F8E493A3C8C582C8CAC583CAD9
:10371700F0A3C8C582C8CAC583CADFE9DEE780BE91
:014436000085
:101D5800BB010689828A83E0225002E722BBFE0289
:091D6800E32289828A83E49322BC
:101D7100BB010CE58229F582E5833AF583E0225027
:101D810006E92582F8E622BBFE06E92582F8E22271
:0D1D9100E58229F582E5833AF583E493228B
:101D9E00BB010689828A83F0225002F722BBFE0124
:021DAE00F3221E
:101DB000F8BB010DE58229F582E5833AF583E8F069
:101DC000225006E92582C8F622BBFE05E92582C815
:021DD000F222FD
:101DD200BC000BBE0029EF8DF084FFADF022E4CCF5
:101DE200F875F008EF2FFFEE33FEEC33FCEE9DECBE
:101DF200984005FCEE9DFE0FD5F0E9E4CEFD22ED04
:101E0200F8F5F0EE8420D21CFEADF075F008EF2F4D
:101E1200FFED33FD4007985006D5F0F222C398FD3E
:051E22000FD5F0EA22DB
:101E2700C2D5EC30E709B2D5E4C39DFDE49CFCEED6
:101E370030E715B2D5E4C39FFFE49EFE121DD2C35F
:101E4700E49DFDE49CFC8003121DD230D507C3E45A
:061E57009FFFE49EFE2245
:101E5D00C5F0F8A3E028F0C5F0F8E5821582700210
:061E6D001583E038F022AD
:101E7300A3F8E0C5F025F0F0E58215827002158322
:061E8300E0C838F0E8227F
:101E8900BB010A89828A83E0F5F0A3E02250068724
:101E9900F009E71922BBFE07E3F5F009E3192289E6
:0B1EA900828A83E493F5F07401932219
:101EB400BB0110E58229F582E5833AF583E0F5F06C
:101EC400A3E0225009E92582F886F008E622BBFE49
:101ED4000AE92582F8E2F5F008E222E5832AF5838F
:081EE400E993F5F0A3E9932254
:101EEC00E88FF0A4CC8BF0A42CFCE98EF0A42CFC95
:101EFC008AF0EDA42CFCEA8EF0A4CDA8F08BF0A413
:101F0C002DCC3825F0FDE98FF0A42CCD35F0FCEB71
:101F1C008EF0A4FEA9F0EB8FF0A4CFC5F02ECD3936
:0F1F2C00FEE43CFCEAA42DCE35F0FDE43CFC22A3
:101F3B0075F008758200EF2FFFEE33FECD33CDCC5D
:101F4B0033CCC58233C5829BED9AEC99E5829840E0
:101F5B000CF582EE9BFEED9AFDEC99FC0FD5F0D6BD
:101F6B00E4CEFBE4CDFAE4CCF9A88222B800C1B9E7
:101F7B000059BA002DEC8BF084CFCECDFCE5F0CB25
:101F8B00F97818EF2FFFEE33FEED33FDEC33FCEB5E
:101F9B0033FB10D703994004EB99FB0FD8E5E4F919
:101FAB00FA227818EF2FFFEE33FEED33FDEC33FC06
:101FBB00C933C910D7059BE99A4007EC9BFCE99AFA
:101FCB00F90FD8E0E4C9FAE4CCFB2275F010EF2F3F
:101FDB00FFEE33FEED33FDCC33CCC833C810D7073F
:101FEB009BEC9AE899400AED9BFDEC9AFCE899F87A
:0E1FFB000FD5F0DAE4CDFBE4CCFAE4C8F9220D
:10200900EB9FF5F0EA9E42F0E99D42F0E89C45F02D
:0120190022A4
:10201A00BB010DE58229F582E5833AF5830220D9D1
:10202A005007E92582F80220CDBBFE07E92582F890
:10203A000220E5E58229F582E5833AF5830220F15B
:0C204A00ECF0A3EDF0A3EEF0A3EFF02209
:10205600A8828583F0D083D08212206D12206D1263
:10206600206D12206DE473E493A3C583C5F0C58388
:10207600C8C582C8F0A3C583C5F0C583C8C582C8D4
:012086002237
:10208700F8E0FBA3A3E0F925F0F0E58215827002E2
:072097001583E0FA38F02286
:09209E00EBF0A3EAF0A3E9F02243
:1020A700D083D082F8E4937012740193700DA3A3C8
:1020B70093F8740193F5828883E4737402936860DC
:0620C700EFA3A3A380DFDC
:1042CF00EFB40A07740D1242DA740A309811A899E4
:1042DF00B8130CC2983098FDA899C298B811F6304F
:0742EF0099FDC299F5992227
:0C20CD00E6FC08E6FD08E6FE08E6FF223F
:0C20D900E0FCA3E0FDA3E0FEA3E0FF227A
:0C20E500E2FC08E2FD08E2FE08E2FF2237
:1020F100E493FC740193FD740293FE740393FF2235
:00000001FF
