:03434500307800CD
:1040AF0053B1BF53B2BF53B17F53B27F75985043D3
:1040BF008920438780438E1053C4DFAB07AA06A91C
:1040CF0005A8047F407E427D0F7C00121E69EF041D
:0940DF00F404F58DD28ED2992271
:08433D00C2998F993099FD220D
:0300370002433D44
:103FCD00AB07AA067C007D0A121D19C3EF940AEEF9
:103FDD00648094805005EF2430800E7C007D0AAF04
:103FED0003AE02121D19EF2457FF1200377C007D1E
:103FFD000AAF03AE02121D19C3ED940AEC6480944E
:0F400D0080ED5004243080022457FF1200372228
:1038BD0090004DEEF0A3EFF07BFF7A437945122592
:1038CD00427F027E007D007C00123DCE90004DE0D7
:1038DD00FEA3E0FF7C007D10121D19C3EF940AEECC
:1038ED00648094805005EF2430801290004DE0FEEE
:1038FD00A3E0FF7C007D10121D19EF2457FF12006D
:10390D003790004DE0FEA3E0FF7C007D10121D19E5
:10391D00C3ED940AEC64809480ED50042430800251
:07392D002457FF12003722AE
:061FF300900012121F3CD9
:101FF900E4900016F0A3121F4800000000900012A0
:10200900E0FCA3E0FDA3E0FEA3E0FF900017121F90
:102019003C7F201200377F7F7E967D987C00900060
:1020290017E0F8A3E0F9A3E0FAA3E0FBD3121EFB43
:10203900407A7B807A9679987800900017E0FCA323
:10204900E0FDA3E0FEA3E0FF121E69E47B0AFAF9B2
:10205900F8D3121EFB7B807A967998780090001746
:10206900E0FCA3E0FDA3E0FEA3E0FF4008121E6927
:10207900EF24308006121E69EF2457FF12003790B3
:102089000017E0FCA3E0FDA3E0FEA3E0FF7B807A5C
:102099009679987800121E69AC00AD01AE02AF03C3
:1020A900900017121F3C9000167401F07F3F7E428A
:1020B9007D0F7C00900017E0F8A3E0F9A3E0FAA3F4
:1020C900E0FBD3121EFB407C7B407A42790F7800FB
:1020D900900017E0FCA3E0FDA3E0FEA3E0FF121EC1
:1020E90069E47B0AFAF9F8D3121EFB7B407A42793C
:1020F9000F7800900017E0FCA3E0FDA3E0FEA3E049
:10210900FF4008121E69EF24308006121E69EF2471
:1021190057FF120037900017E0FCA3E0FDA3E0FE93
:10212900A3E0FF7B407A42790F7800121E69AC0068
:10213900AD01AE02AF03900017121F3C9000167458
:1021490001F0800B900016E060057F301200377FA8
:102159009F7E867D017C00900017E0F8A3E0F9A33B
:10216900E0FAA3E0FBD3121EFB50030222047BA07A
:102179007A8679017800900017E0FCA3E0FDA3E0DE
:10218900FEA3E0FF121E69E47B0AFAF9F8D3121ED6
:10219900FB7BA07A864019097800900017E0FCA320
:1021A900E0FDA3E0FEA3E0FF121E69EF24308018D2
:1021B90079017800900017E0FCA3E0FDA3E0FEA3FD
:1021C900E0FF121E69EF2457FF120037900017E055
:1021D900FCA3E0FDA3E0FEA3E0FF7BA07A867901E2
:1021E9007800121E69AC00AD01AE02AF0390001772
:1021F900121F3C9000167401F0800B900016E060ED
:10220900057F30120037E47F0F7E27FDFC90001711
:10221900E0F8A3E0F9A3E0FAA3E0FBD3121EFB5018
:10222900030222B5E47B107A27F9F8900017E0FC45
:10223900A3E0FDA3E0FEA3E0FF121E69E47B0AFA16
:10224900F9F8D3121EFBE47B107A274017F89000A7
:1022590017E0FCA3E0FDA3E0FEA3E0FF121E69EF77
:1022690024308016F9F8900017E0FCA3E0FDA3E004
:10227900FEA3E0FF121E69EF2457FF1200379000FA
:1022890017E0FCA3E0FDA3E0FEA3E0FFE47B107AE6
:1022990027F9F8121E69AC00AD01AE02AF03900038
:1022A90017121F3C9000167401F0800B900016E085
:1022B90060057F30120037E47FE77E03FDFC900064
:1022C90017E0F8A3E0F9A3E0FAA3E0FBD3121EFBA1
:1022D9005003022366E47BE87A03F9F8900017E0DB
:1022E900FCA3E0FDA3E0FEA3E0FF121E69E47B0A64
:1022F900FAF9F8D3121EFBE47BE87A034017F89049
:102309000017E0FCA3E0FDA3E0FEA3E0FF121E69B5
:10231900EF24308016F9F8900017E0FCA3E0FDA344
:10232900E0FEA3E0FF121E69EF2457FF1200379069
:102339000017E0FCA3E0FDA3E0FEA3E0FFE47BE8D7
:102349007A03F9F8121E69AC00AD01AE02AF039031
:102359000017121F3C9000167401F0800B900016B4
:10236900E060057F30120037E47F63FEFDFC9000DA
:1023790017E0F8A3E0F9A3E0FAA3E0FBD3121EFBF0
:102389005003022413E47B64FAF9F8900017E0FC87
:10239900A3E0FDA3E0FEA3E0FF121E69E47B0AFAB5
:1023A900F9F8D3121EFBE47B644017F8900017E09C
:1023B900FCA3E0FDA3E0FEA3E0FF121E69EF2430B9
:1023C9008017FAF9F8900017E0FCA3E0FDA3E0FEFE
:1023D900A3E0FF121E69EF2457FF12003790001780
:1023E900E0FCA3E0FDA3E0FEA3E0FFE47B64FAF9CF
:1023F900F8121E69AC00AD01AE02AF0390001712CE
:102409001F3C9000167401F0800B900016E06005E7
:102419007F30120037E47B0AFAF9F8900017E0FCE4
:10242900A3E0FDA3E0FEA3E0FF121E69E47B0AFA24
:10243900F9F8D3121EFBE44017F8900017E0FCA34B
:10244900E0FDA3E0FEA3E0FF121E69EF243080192E
:102459007B0AFAF9F8900017E0FCA3E0FDA3E0FE7F
:10246900A3E0FF121E69EF2457FF120037E47B0A2D
:10247900FAF9F8900017E0FCA3E0FDA3E0FEA3E061
:10248900FF121E69AC00AD01AE02AF03E47B0AFA8C
:10249900F9F8D3121EFBE44017F8900017E0FCA3EB
:1024A900E0FDA3E0FEA3E0FF121E69EB24308019D2
:1024B9007B0AFAF9F8900017E0FCA3E0FDA3E0FE1F
:0D24C900A3E0FF121E69EB2457FF1200373D
:0124D60022E3
:0B31EA00900012EBF0A3EAF0A3E9F064
:1031F50090003D121F4800000000E4900041F0A33C
:10320500F0F9A3C9F0A3F0A3E9F0E4A3F0F9A3C989
:10321500F0A3F0A3E9F0A37401F0A37400F0A37484
:1032250015F0900012E0F9A3E0FAA3E0900047C979
:10323500F0A3EAF0A3E9F0900047E0FBA3E0FAA3CE
:10324500E0F9121C6C700302331B64256003023322
:1032550001900047A3E475F001121D4FA9F0FA1281
:103265001C6C24DB70030232EF24E1602B24EC603C
:103275005024F4602324EC60482415707290004AB1
:10328500E0FBA3E475F002121D65A9F0FA121D7B9F
:10329500900046F0E0FF805490004AE0FBA3E475FF
:1032A500F001121D65A9F0FA121C6CFF900041E4B3
:1032B500F0A3EFF0900041A3E0FF7E00123FCD8028
:1032C5002E90004AE0FBA3E475F001121D65A9F0FC
:1032D500FA121C6CFF900041E4F0A3EFF09000415E
:1032E500E0FEA3E0FF1238BD80057F251200379070
:1032F5000048E475F001121D4F02323C900047E092
:10330500FBA3E475F001121D65A9F0FA121C6CFF10
:0633150012003702323CF9
:01331B00228F
:103F2A000D0A232323232323232323232323232386
:103F3A002323232323232323232323236D6375206E
:103F4A0073746172742323232323232323232323B8
:103F5A002323232323232323232323232323232327
:103F6A00232323000D0A697271207461736B2E2E4C
:023F7A002E0017
:044291004100B30035
:10401C0043B30153B4FE43B30253B4FD43B304534F
:10402C00B4FB43B10853B2F743B11053B2EF53ACE6
:10403C00FE43AD0143B30843B40843B31043B4107B
:10404C007F007EC27D017C001240AF53E9FB43E947
:0D405C002043EA0853EBF7439B02D2AF224A
:10427700C2B07FC87E007D007C00123DCED2B07FE9
:0A428700C87E007D007C00023DCEE1
:1041190012401C7BFF7A3F792A1231EA1242771248
:1041290039349000B3E060FA7BFF7A3F796E12313F
:0E413900EA123091E49000B3F0439B0280E460
:044295004100B176BD
:07431100124318D2937F0A4A
:0A431800E4FEEEC39F50030E80F890
:014322002278
:1042A800D2947F01124311C2947F07124318C2931C
:0542B8007F0102431824
:0C433100C2947F02124311D29402431880
:023F7C00AD078F
:103F7E00E4FCEDA804088002C333D8FC30E704D279
:103F8E00948002C2947F03124318D2930F124318E7
:103F9E00C2930CECB408DB7F01124318D2947F035A
:103FAE00124318D293124318309407E49000B2F0E3
:0F3FBE0080069000B27401F0C2937F0302431893
:10000300E4FDD294FC7F01124318C2937F04124390
:1000130018D2937F02124318ED25E0FD3094010DB1
:100023007F021243180CECB408DBC2937F05124322
:0300330018AF05FE
:0100360022A7
:10425B00EF7004C2948002D2947F08124318D29359
:0C426B007F0F124318C2937F0802431813
:073B4D00900014EDF0AC073D
:103B54001242A8AF04123F7C9000B2E07002802DA4
:103B6400900014E0FF123F7C9000B2E07002801DD0
:103B7400E4900019F0900018E0FFA3E0C39F5022E6
:103B8400121C6CFF123F7C9000B2E07006124331AD
:103B94007F0022740129F9E43AFA900019E004F054
:073BA40080D31243317F01C1
:013BAB0022F7
:0837B600900013EFF0A3EDF009
:1037BE001242A8900013E0FF123F7C9000B2E0701E
:1037CE00028022900014E0FF123F7C9000B2E07065
:1037DE000280121242A8900013E004FF123F7C9068
:1037EE0000B2E07009124331E4121CB2FF22E490E1
:1037FE000019F0900018E014FFA3E0C39F501B12B5
:10380E000003EF121CB2E4FF12425B740129F9E4CB
:10381E003AFA900019E004F080D9120003EF121C5E
:0B382E00B27F0112425B1243317F01A8
:01383900226C
:02414700AE07C1
:10414900E4900012F09000B1E0FFAD067B017A0027
:1041590079129000187401F01237B6EF60069000DA
:0641690012E0FF227F00BE
:01416F00222D
:0242BD00AE074A
:1042BF009000B1E0FFAD06900090E0900018F01272
:0242CF0037B600
:0142D10022CA
:07422000900012EDF0AE0763
:104227009000B1E0FFAD067B017A0079129000188B
:064237007401F0123B4D82
:01423D00225E
:0242D200AE0735
:1042D4009000B1E0FFAD06900095E0900018F01258
:0242E4003B4D50
:0142E60022B5
:10003E000D0A4C54393631312072696E672043688F
:10004E006970204944203D20257820002025780025
:10005E000D0A4C54393631315F4D4950495F496E66
:10006E007075745F44696774613A206C7439363107
:10007E003120736574206D697069206C616E6573D3
:10008E00203D202564000D0A4C54393631315F4D28
:10009E004950495F496E7075745F44696774613A7F
:1000AE00206C743936313120736574206D69706936
:1000BE0020706F727473203D2031000D0A4C54393C
:1000CE003631315F4D4950495F496E7075745F44EA
:1000DE00696774613A206C743936313120736574F6
:1000EE00206D69706920706F7274203D2032000D92
:1000FE000A4C54393631312E6D6970695F6D6F64FB
:10010E0065203D20637369000D0A4C543936313138
:10011E002E6D6970695F6D6F6465203D2064736933
:10012E00000D0A766964656F20636865636B3A201B
:10013E004C54393631312E6D6970695F6D6F64655F
:10014E00203D20637369000D0A766964656F206334
:10015E006865636B3A204C54393631312E6D6970B7
:10016E00695F6D6F6465203D20647369000D0A4CF4
:10017E0054393631315F566964656F5F4368656324
:10018E006B3A20685F6163745F612C20685F616306
:10019E00745F622C20765F6163742C20765F7461CD
:1001AE006C3A20000D0A4C54393631315F56696471
:1001BE00656F5F436865636B3A206D6970695F7642
:1001CE006964656F5F666F726D61743A20257800A1
:1001DE000D0A566964656F5F436865636B203D2049
:1001EE00766964656F5F363430783438305F363018
:1001FE00487A20000D0A566964656F5F436865632F
:10020E006B203D20766964656F5F37323078343805
:10021E00305F3630487A20000D0A566964656F5F8C
:10022E00436865636B203D20766964656F5F373286
:10023E0030783537365F3530487A20000D0A5669EA
:10024E0064656F5F436865636B203D207669646506
:10025E006F5F31323830783732305F3630487A203F
:10026E00000D0A566964656F5F436865636B203DD8
:10027E0020766964656F5F31323830783732305F9F
:10028E003530487A20000D0A566964656F5F436801
:10029E0065636B203D20766964656F5F313238305F
:1002AE00783732305F3330487A20000D0A56696451
:1002BE00656F5F436865636B203D20766964656F8B
:1002CE005F3139323078313038305F3630487A200D
:1002DE00000D0A566964656F5F436865636B203D68
:1002EE0020766964656F5F3139323078313038305D
:1002FE005F3530487A20000D0A566964656F5F439A
:10030E006865636B203D20766964656F5F313932B5
:10031E003078313038305F3330487A20000D0A564D
:10032E006964656F5F436865636B203D2076696421
:10033E00656F5F3139323078313038305F32354861
:10034E007A20000D0A566964656F5F436865636BBA
:10035E00203D20766964656F5F31393230783130F7
:10036E0038305F3234487A20000D0A566964656F62
:10037E005F436865636B203D20766964656F5F330C
:10038E0038343078323136305F3330487A20000DD1
:10039E000A566964656F5F436865636B203D20761E
:1003AE006964656F5F3338343078323136305F329E
:1003BE0035487A20000D0A566964656F5F4368659B
:1003CE00636B203D20766964656F5F333834307817
:1003DE00323136305F3234487A20000D0A56696465
:1003EE00656F5F436865636B203D20766964656F5A
:1003FE005F383030783630305F3630487A20000D36
:10040E000A566964656F5F436865636B203D2076AD
:10041E006964656F5F31303234783736385F363025
:10042E00487A20000D0A566964656F5F43686563FC
:10043E006B203D20766964656F5F313238307837D6
:10044E0036385F3630487A20000D0A566964656F7B
:10045E005F436865636B203D20766964656F5F312D
:10046E0032383078313032345F3630487A20000DF1
:10047E000A566964656F5F436865636B203D20763D
:10048E006964656F5F3136303078313230305F36C7
:10049E0030487A20000D0A566964656F5F436865BF
:1004AE00636B203D20766964656F5F313638307836
:1004BE00313035305F3630487A20000D0A56696487
:1004CE00656F5F436865636B203D20766964656F79
:1004DE005F31333636783736385F3630487A20001B
:1004EE000D0A566964656F5F436865636B203D2036
:1004FE00766964656F5F3235363078313434305F0B
:10050E003630487A20000D0A566964656F5F43687D
:10051E0065636B203D20766964656F5F32353630DA
:10052E0078313434305F3530487A20000D0A566900
:10053E0064656F5F436865636B203D207669646513
:10054E006F5F37323078313038305F3630487A204E
:10055E00000D0A566964656F5F436865636B203DE5
:10056E0020766964656F5F313038307831393230DA
:10057E005F3630487A20000D0A566964656F5F4316
:10058E006865636B203D20766964656F5F33383430
:10059E003078313038305F3630487A20000D0A56C8
:1005AE006964656F5F436865636B203D207669649F
:1005BE00656F5F31303234783630305F3630487A9E
:1005CE0020000D0A566964656F5F436865636B2092
:1005DE003D20766964656F5F31323830783830305F
:1005EE005F3630487A20000D0A566964656F5F43A6
:1005FE006865636B203D20766964656F5F353430C6
:10060E00783936305F3630487A20000D0A566964E4
:10061E00656F5F436865636B203D20766964656F27
:10062E005F3235363078313630305F3630487A20AA
:10063E00000D0A566964656F5F436865636B203D04
:10064E0020766964656F5F323536307831303830F8
:10065E005F3630487A20000D0A566964656F5F4335
:10066E006865636B203D20756E6B6E6F776E2076BE
:10067E006964656F20666F726D617420000D0A20CB
:10068E00504F4C203D2025782C202578000D0A4C0B
:10069E0054393631315F504C4C3A207365742072A8
:1006AE007820706C6C203D20000D0A4C5439363188
:1006BE00315F504C4C3A207063725F6D203D2025A7
:1006CE00782C2068646D695F706F73745F646976EF
:1006DE00203D202564000D0A4C54393631315F50CF
:1006EE004C4C3A2048444D4920706C6C206C6F6322
:1006FE006B6564000D0A4C54393631315F504C4CE9
:10070E003A2048444D4920706C6C20756E6C6F63B6
:10071E006B65642C20726573657420706C6C000DB3
:10072E000A4C54393631315F4353433A2059706283
:10073E0070722034323220746F205247423838386B
:10074E00000D0A417564696F20696E7574203D2035
:10075E0049325320326368000D0A417564696F2077
:10076E00696E7574203D205350444946000D0A7041
:10077E006F72742041206279746520636C6B203D2A
:10078E0020000D0A706F727420412062797465200A
:10079E00636C6B20756E737461626C65000D0A700C
:1007AE006F72742042206279746520636C6B203DF9
:1007BE0020000D0A706F72742042206279746520D9
:1007CE00636C6B20756E737461626C65000D0A4804
:1007DE00746F74616C5F537973636C6B203D200092
:1007EE000D0A706F72742041206C616E6520504E40
:1007FE00206973207269676874000D0A706F7274D5
:10080E002041206C616E6520504E206572726F72B1
:10081E0020307838336263203D202578000D0A7031
:10082E006F72742041206C616E65203020736F747E
:10083E0020726967687420000D0A706F727420410F
:10084E00206C616E65203020736F74206572726F3C
:10085E0072203D202578000D0A706F7274204120A1
:10086E006C616E65203120736F74207269676874D5
:10087E0020000D0A706F72742041206C616E65202D
:10088E003120736F74206572726F72203D2025784F
:10089E00000D0A706F72742041206C616E652032FB
:1008AE0020736F7420726967687420000D0A706F70
:1008BE0072742041206C616E65203220736F74203B
:1008CE006572726F72203D202578000D0A706F726E
:1008DE00742041206C616E65203320736F7420721A
:1008EE006967687420000D0A706F72742041206C65
:1008FE00616E65203320736F74206572726F722083
:10090E003D202578000D0A706F72742041206C61B5
:10091E006E65203020736574746C65203D202578DB
:10092E00000D0A706F72742041206C616E6520316B
:10093E0020736574746C65203D202578000D0A7057
:10094E006F72742041206C616E6520322073657465
:10095E00746C65203D202578000D0A706F7274202E
:10096E0041206C616E65203320736574746C652054
:10097E003D202578000D0A456E746572204952514E
:10098E00205461736B3A000D0A63656320726563D0
:10099E00656976656420646174613A200048444D4F
:1009AE004920646973636F6E6E6563746564004895
:1009BE00444D4920636F6E6E6563746564006D69A6
:1009CE00706920766964656F206368616E6765641F
:1009DE003A20000D0A73657420706978656C206387
:1009EE006C6B203D20000D0A232323232323232376
:1009FE00232323234C543936313120496E697469CF
:100A0E00616C20456E642323232323232323232376
:100A1E002323232323232323000D0A4465746563B4
:100A2E0074206870642048696768000D0A44657414
:100A3E0065637420687064204C6F77000008006056
:100A4E0000280280032000210002000A01E0020DAE
:100A5E000000000101000061A80010003E003C02F1
:100A6E00D0035A00090006001E01E0020D0000002E
:100A7E00020100006978000C0040005802D00360AB
:100A8E000005000500270240027100000011010060
:100A9E00006978006E002800DC0500067200050073
:100AAE0005001402D002EE01010004020001220A28
:100ABE0001B8002800DC050007BC00050005001485
:100ACE0002D002EE01010013020001220A005800BA
:100ADE002C009407800898000400050024043804B4
:100AEE00650101001002000244140210002C009453
:100AFE0007800A5000040005002404380465010133
:100B0E00001F02000244140058002C0094078008B5
:100B1E009800040005002404380465010100220237
:100B2E000001220A0210002C009407800A500004D3
:100B3E000005002404380465010100210200012291
:100B4E000A027E002C009407800ABE0004000500F5
:100B5E00240438046501010020020001220A00B0BD
:100B6E00005801280F0011300008000A00480870D4
:100B7E0008CA0101005F0200048828042000580101
:100B8E00280F0014A00008000A0048087008CA01C7
:100B9E0001005E020004882804FC005801280F00A2
:100BAE00157C0008000A0048087008CA0101005DA3
:100BBE000200048828003000800058032004200022
:100BCE000100040017025802740101000000000029
:100BDE009C400018008800A0040005400003000699
:100BEE00001D0300032600000000000000FDE800C9
:100BFE0040008000C00500068000030007001403BB
:100C0E0000031E00010000000001368C0030007051
:100C1E0000F8050006980001000300260400042ACF
:100C2E0001010000000001A5E0004000C0013006F7
:100C3E0040087000010003002E04B004E201010020
:100C4E000000000278D0006800B00118069008C0BD
:100C5E0000030006001E041A0441000100000000FB
:100C6E00023B4A06E0002800DC05000CE40005000B
:100C7E0005001402D002EE01010000000001220A5C
:100C8E00003C003C00640400048200020005000ADF
:100C9E00025802690101000000000084D000280003
:100CAE002C00280320039C000A0004000C050005FC
:100CBE001A010100000000010C8E000E00380040E9
:100CCE00055605DC00010003001C03000320010192
:100CDE000000000001211000B0011001C00A000D3B
:100CEE008000030005002405A005CC0101000000D2
:100CFE000003E8FA0030002000500A000AA00003AA
:100D0E00000600250640066E0101000000000418D2
:100D1E00D40030002000500A000AA0000300050095
:100D2E002105A005C901010000000003AF5C00F819
:100D3E00002C00940A000AA000040005000B0438E1
:100D4E00044C01010000000003057000B0005801C2
:100D5E00280F00113000040005002404380465013A
:100D6E000100000000048828000400050024043857
:100D7E0004650058002C00940780089801010000BB
:100D8E00000002441400050005001402D002EE001B
:100D9E006E002800DC050006720101000000000153
:100DAE00220A001E000A001E021C0262000A000A2D
:0F0DBE00000A03C003DE0101000000000082DC18
:0E4299004700840100010000000141007F0089
:103BAC007D807FFF1242207D017FEE124220E4FFD8
:103BBC00124147900015EFF07BFF7A00793E1231ED
:103BCC00EA7F01124147900015EFF07BFF7A0079F4
:103BDC005A1231EA7F02124147900015EFF07BFF39
:103BEC007A00795A1231EA7D817FFF1242207D18CA
:0C3BFC007F011242207D807FFF024220EA
:1041BB007D817FFF1242207D487F021242207D804D
:1041CB007F23124220E4FD7F30124220E4FD7F0169
:0341DB000242207D
:103A89007D827FFF1242207D117F511242207D826B
:103A99007FFF1242207D697F1B1242207D787F1CA7
:103AA9001242207D697FCB1242207D787FCC124261
:103AB900207D807FFF1242207DF07F041242207D0D
:103AC900F07F061242207D807F0A1242207D467FC8
:103AD9000B1242207DEF7F0D1242207DFA7F1102E9
:023AE900422079
:103C64007D817FFF1242207D207F061242207D3F0E
:103C74007F071242207D3F7F081242207DFE7F0A8B
:103C84001242207DBF7F0B1242207D207F11124201
:103C9400207D3F7F121242207D3F7F131242207D00
:103CA400FE7F151242207DBF7F161242207D037FC6
:0B3CB4001C1242207D037F20024220F2
:10360800900085E0900000F07BFF7A00795E9000E2
:1036180015F01231EA7D827FFF1242207D807F4FB4
:103628001242207D107F501242207D837FFF12427C
:1036380020900000E0FDE4FF1242207D047F02128A
:1036480042207D047F0612422030900FE4FD7F0A5D
:103658001242207BFF7A007994800D7D037F0A1245
:1036680042207BFF7A0079C91231EA900086E07B1C
:10367800FFB4011C7A0079FD1231EA7D837FFF12C5
:1036880042207D107F081242207D407F2C0242207C
:073698007A0179161231EAF4
:01369F002208
:100DCD00E4900005F07D827FFF1242207F86124164
:100DDD0047900010E4F0A3EFF07F87124147EFFD3D
:100DED007C00900011E0FEE42DFFEC3E900010F031
:100DFD00A3EFF07F8212414790000CE4F0A3EFF0D7
:100E0D007F83124147EFFD7C0090000DE0FEE42D45
:100E1D00FFEC3E90000CF0A3EFF07F6C1241479079
:100E2D00000EE4F0A3EFF07F6D124147EFFD7C0063
:100E3D0090000FE0FEE42DFFEC3E90000EF0A3EFCE
:100E4D00F07D837FFF1242207F8212414790000880
:100E5D00E4F0A3EFF07F83124147EFFD7C0090009B
:100E6D0009E0FEE42DFFEC3E900008F0A3EFF07FCB
:100E7D008612414790000AE4F0A3EFF07F871241FC
:100E8D0047EFFD7C0090000BE0FEE42DFFEC3E9063
:100E9D00000AF0A3EFF0900086E07BFFB4011D7A0D
:100EAD0001792F1231EA900008E0C313F0A3E0138B
:100EBD00F0A3E0C313F0A3E013F080337A0179556A
:100ECD001231EA900008E0FEA3E0FF7C007D0312E2
:100EDD001CC4900008EEF0A3EFF0A3E0FEA3E0FF2A
:100EED007C007D03121CC490000AEEF0A3EFF07F8E
:100EFD0088124147900005EFF07BFF7A01797B1254
:100F0D0031EA900008E0FEA3E0FFE4FCFD121FF3C0
:100F1D0090000AE0FEA3E0FFE4FCFD121FF3900039
:100F2D000CE0FEA3E0FFE4FCFD121FF390000EE0C9
:100F3D00FEA3E0FFE4FCFD121FF37BFF7A0179B203
:100F4D00900005E0900015F01231EA209018900005
:100F5D000AE0FEA3E0FF900009E02FFF900008E0FB
:100F6D003E900006800B900008E0FFA3E090000685
:100F7D00CFF0A3EFF0900A50E493FE740193FF902D
:100F8D000006E0B50638A3E0B50733900A5AE4939E
:100F9D00FE740193FF90000CE0B50622A3E0B507A7
:100FAD001D7BFF7A0179DE1231EAE490008BF0901F
:100FBD00008174FFF0A3740AF0A3744AF022900A22
:100FCD006DE493FE740193FF900006E0B50639A31E
:100FDD00E0B50734900A77E493FE740193FF900017
:100FED000CE0B50623A3E0B5071E7BFF7A0279025C
:100FFD001231EA90008B7401F090008174FFF0A320
:10100D00740AF0A37467F022900A8AE493FE7401C7
:10101D0093FF900006E0B50633A3E0B5072E900AC6
:10102D0094E493FE740193FF90000CE0B5061DA3AC
:10103D00E0B507187BFF7A0279261231EA9000811C
:10104D0074FFF0A3740AF0A37484F022900AA7E44D
:10105D0093FE740193FF900006E06E7003A3E06FA2
:10106D006003021114900AB193FE740193FF900076
:10107D000CE06E7003A3E06F6003021114C39000C7
:10108D0011E09476900010E09402501E7BFF7A02DE
:10109D00794A1231EA90008B7402F090008174FF4E
:1010AD00F0A3740AF0A374A1F022C3900011E09490
:1010BD00EE900010E09402501E7BFF7A02796F12C1
:1010CD0031EA90008B740AF090008174FFF0A374E4
:1010DD000AF0A374BEF022C3900011E094CE9000EC
:1010ED0010E0940440030217D17BFF7A0279941229
:1010FD0031EA90008B740BF090008174FFF0A374B3
:10110D000CF0A37471F022900AE1E493FE74019344
:10111D00FF900006E06E7003A3E06F6003021229DA
:10112D00900AEB93FE740193FF90000CE06E700338
:10113D00A3E06F6003021229C3900011E094AE90FA
:10114D000010E09401501E7BFF7A0279B91231EA4A
:10115D0090008B7403F090008174FFF0A3740AF07B
:10116D00A374DBF022C3900011E094FE900010E018
:10117D009401501E7BFF7A0279DF1231EA90008BC9
:10118D007419F090008174FFF0A3740AF0A374F841
:10119D00F022C3900011E0943E900010E0940350B3
:1011AD001E7BFF7A0379051231EA90008B741AF0D9
:1011BD0090008174FFF0A3740BF0A37415F022C39B
:1011CD00900011E094D4900010E09403501E7BFF2A
:1011DD007A03792B1231EA90008B741BF090008109
:1011ED0074FFF0A3740BF0A37432F022C3900011BE
:1011FD00E09406900010E0940440030217D17BFFA9
:10120D007A0379511231EA90008B741CF0900081B1
:10121D0074FFF0A3740BF0A3744FF022900B72E4E3
:10122D0093FE740193FF900006E06E7003A3E06FD0
:10123D0060030212E4900B7C93FE740193FF900007
:10124D000CE06E7003A3E06F60030212E4C3900024
:10125D0011E094AE900010E09401501E7BFF7A03D4
:10126D0079771231EA90008B740CF090008174FF45
:10127D00F0A3740BF0A3746CF022C3900011E094F2
:10128D00EA900010E09401501E7BFF7A03799D12C5
:10129D0031EA90008B740DF090008174FFF0A3740F
:1012AD000BF0A37489F022C3900011E09408900014
:1012BD0010E0940240030217D17BFF7A0379C31229
:1012CD0031EA90008B740EF090008174FFF0A374DE
:1012DD000BF0A374A6F022900BC9E493FE74019356
:1012ED00FF900006E0B50639A3E0B50734900BD3A7
:1012FD00E493FE740193FF90000CE0B50623A3E088
:10130D00B5071E7BFF7A0379E91231EA90008B74E1
:10131D001EF090008174FFF0A3740BF0A374C3F062
:10132D0022900BE6E493FE740193FF900006E0B566
:10133D000639A3E0B50734900BF0E493FE740193E6
:10134D00FF90000CE0B50623A3E0B5071E7BFF7AE6
:10135D0004790D1231EA90008B741EF090008174A7
:10136D00FFF0A3740BF0A374E0F022900C03E49350
:10137D00FE740193FF900006E0B50639A3E0B507B2
:10138D0034900C0DE493FE740193FF90000CE0B5C6
:10139D000623A3E0B5071E7BFF7A0479321231EAEA
:1013AD0090008B741EF090008174FFF0A3740BF00D
:1013BD00A374FDF022900C20E493FE740193FF9032
:1013CD000006E0B50639A3E0B50734900C2AE49386
:1013DD00FE740193FF90000CE0B50623A3E0B50762
:1013ED001E7BFF7A0479571231EA90008B741EF040
:1013FD0090008174FFF0A3740CF0A3741AF0229086
:10140D000C3DE493FE740193FF900006E0B50639A0
:10141D00A3E0B50734900C47E493FE740193FF905D
:10142D00000CE0B50623A3E0B5071E7BFF7A047917
:10143D007D1231EA90008B741EF090008174FFF0E4
:10144D00A3740CF0A37437F022900C5AE493FE743D
:10145D000193FF900006E0B50639A3E0B50734907F
:10146D000C64E493FE740193FF90000CE0B5062329
:10147D00A3E0B5071E7BFF7A0479A31231EA900031
:10148D008B741EF090008174FFF0A3740CF0A374A4
:10149D0054F022900CCEE493FE740193FF9000065D
:1014AD00E0B50639A3E0B50734900CD8E493FE748B
:1014BD000193FF90000CE0B50623A3E0B5071E7B5A
:1014CD00FF7A0479C91231EA90008B7415F09000FF
:1014DD008174FFF0A3740CF0A374C8F022900D2555
:1014ED00E493FE740193FF900006E06E7003A3E099
:1014FD006F7072900D2F93FE740193FF90000CE0AE
:10150D006E7003A3E06F705DC3900011E094369090
:10151D000010E09401501E7BFF7A0479EE1231EA3F
:10152D0090008B7417F090008174FFF0A3740DF090
:10153D00A3741FF022C3900011E09472900010E08C
:10154D00940140030217D17BFF7A0579141231EA19
:10155D0090008B741DF090008174FFF0A3740CF05B
:10156D00A374E5F022900D99E493FE740193FF901E
:10157D000006E0B50639A3E0B50734900DA3E4935A
:10158D00FE740193FF90000CE0B50623A3E0B507B0
:10159D001E7BFF7A05793A1231EA90008B7412F0B6
:1015AD0090008174FFF0A3740DF0A37493F022905A
:1015BD000D7CE493FE740193FF900006E0B50639AF
:1015CD00A3E0B50734900D86E493FE740193FF906C
:1015DD00000CE0B50623A3E0B5071E7BFF7A057965
:1015ED005F1231EA90008B7411F090008174FFF05E
:1015FD00A3740DF0A37476F022900D5FE493FE7446
:10160D000193FF900006E0B50639A3E0B5073490CD
:10161D000D69E493FE740193FF90000CE0B5062371
:10162D00A3E0B5071E7BFF7A0579851231EA90009C
:10163D008B740FF090008174FFF0A3740DF0A37400
:10164D0059F022900C94E493FE740193FF900006E0
:10165D00E0B50639A3E0B50734900C9EE493FE7413
:10166D000193FF90000CE0B50623A3E0B5071E7BA8
:10167D00FF7A0579AB1231EA90008B7410F090006F
:10168D008174FFF0A3740CF0A3748EF022900CB152
:10169D00E493FE740193FF900006E0B50639A3E0D4
:1016AD00B50734900CBBE493FE740193FF90000CCE
:1016BD00E0B50623A3E0B5071E7BFF7A0579D012AE
:1016CD0031EA90008B7413F090008174FFF0A374D5
:1016DD000CF0A374ABF022900DB6E493FE7401935D
:1016ED00FF900006E0B50639A3E0B50734900DC0B4
:1016FD00E493FE740193FF90000CE0B50623A3E084
:10170D00B5071E7BFF7A0579F51231EA90008B74CF
:10171D0014F090008174FFF0A3740DF0A374B0F079
:10172D0022900D08E493FE740193FF900006E0B53E
:10173D000639A3E0B50734900D12E493FE740193BE
:10174D00FF90000CE0B50623A3E0B5071E7BFF7AE2
:10175D000679191231EA90008B7416F0900081749D
:10176D00FFF0A3740DF0A37402F022900D42E493E8
:10177D00FE740193FF900006E0B50639A3E0B507AE
:10178D0034900D4CE493FE740193FF90000CE0B582
:10179D000623A3E0B5071E7BFF7A06793F1231EAD7
:1017AD0090008B7418F090008174FFF0A3740DF00D
:1017BD00A3743CF02290008B741EF07BFF7A0679A7
:0417CD00651231EA86
:0117D10022F5
:102BC900900006EBF0A3EAF0A3E9F07D837FFF1202
:102BD9004220900006E0FBA3E0FAA3E0F99000127E
:102BE900121DA6E5F0FD7F0D124220900006E0FBC4
:102BF900A3E0FAA3E0F9900012121DA6FD7F0E12C0
:102C09004220900006E0FBA3E0FAA3E0F99000104F
:102C1900121DA6E5F0FD7F0F124220900006E0FB91
:102C2900A3E0FAA3E0F9900010121DA6FD7F10128F
:102C39004220900006E0FBA3E0FAA3E0F990000827
:102C4900121DA6E5F0FD7F11124220900006E0FB5F
:102C5900A3E0FAA3E0F9900008121DA6FD7F121265
:102C69004220900006E0FBA3E0FAA3E0F9900006F9
:102C7900121DA6E5F0FD7F13124220900006E0FB2D
:102C8900A3E0FAA3E0F9900006121DA6FD7F141235
:102C99004220900006E0FBA3E0FAA3E0F990000CC3
:102CA900121DA6FD7F15124220900006E0FBA3E04D
:102CB900FAA3E0F9900002121DA6FD7F1612422028
:102CC900900006E0FBA3E0FAA3E0F990000A121DC8
:102CD900A6FD7F17124220900006E0FBA3E0FAA3AD
:102CE900E0F990000E121DA6FFAEF090000C121D27
:102CF900A62FFFE5F03EAD077F181242209000068F
:102D0900E0FBA3E0FAA3E0F9121D7BFD7F19124253
:102D190020900006E0FBA3E0FAA3E0F9900004127A
:102D29001DA6FFAEF0900002121DA62FE5F03EFD94
:102D3900121D7BE5F0C4F8540FC868FFEF2DFD7F25
:102D49001A124220900006E0FBA3E0FAA3E0F990F2
:102D59000004121DA6FFAEF0900002121DA62FFF5F
:0A2D6900E5F03EAD077F1B0242209B
:0B331C00900081E0FBA3E0FAA3E0F9C1
:10332700900014121C8525E0FF900015121C852FB4
:10333700900005F0F4F05403F07BFF7A06798B9048
:103347000015F0A3F01231EA7D837FFF1242207D42
:10335700017F0B1242207D107F0C124220E4FD7F7B
:10336700481242207D817F491242207D4A7F2112E7
:1033770042207D717F241242207D307F251242201A
:103387007D017F2A1242207D407F4A124220900011
:1033970005E04410FD7F1D12422090008BE024F4CD
:1033A70024FC500E604B24FC604724FE24FD500291
:1033B700805B2090587D037F0B1242207DD07F0CCD
:1033C7001242207D037F481242207DB07F4912427E
:1033D700207D727F24124220E4FD7F251242207D4A
:1033E700017F2A1242207D107F4A1242207D1080E1
:1033F700177D707F241242207D807F251242207D19
:10340700107F2A1242207DF07F1D124220900081FA
:10341700E0FBA3E0FAA3E0F9122BC97D837FFF123B
:103427004220900080E0FD7F261242207D807FFFB2
:103437001242207D5A7F111242207DFA7F110242EB
:013447002064
:0B295A00900081E0FBA3E0FAA3E0F98D
:10296500900019121F0C900005121F3C7BFF7A0680
:10297500799B1231EA900005E0FCA3E0FDA3E0FE9F
:10298500A3E0FF121FF37D817FFF1242207D407F70
:10299500231242207D627F241242207D807F2512F2
:1029A50042207D557F261242207D377F2C12422002
:1029B5007D017F2F1242207D557F261242207D66A4
:1029C5007F271242207D887F281242207FF07E4992
:1029D5007D027C00900005E0F8A3E0F9A3E0FAA3EE
:1029E500E0FBD3121EFB400F7D887F2D1242209005
:1029F50000097401F080387F707E117D017C0090A4
:102A05000005E0F8A3E0F9A3E0FAA3E0FBD3121E6A
:102A1500FB400F7D997F2D1242209000097402F032
:102A2500800D7DAA7F2D1242209000097404F0E4E8
:102A35007F05FEFDFC900005E0F8A3E0F9A3E0FAB0
:102A4500A3E0FB121DDEA804A905AA06AB079000AA
:102A550009E0FFE4FCFDFE121DDEE47B787A69F9EE
:102A6500F8121E69900080EFF07BFF7A0679B7E0D7
:102A7500900015F0900009E0900016F01231EA7D03
:102A8500837FFF1242207D407F2D1242207D087FEB
:102A950031124220900080E04480FD7F26124220C2
:102AA500900005E0FCA3E0FDA3E0FEA3E0FFE47BCE
:102AB50002FAF9F8121E69900005121F3C7D827F0B
:102AC500FF124220E4FBFA7901F8900005E0FCA32F
:102AD500E0FDA3E0FEA3E0FF121E69AD077FE31250
:102AE5004220900005A3A3E0FEA3E0FFE4FDFC90D7
:102AF5000005121F3CE4FB7A01F9F8900005E0FCA3
:102B0500A3E0FDA3E0FEA3E0FF121E69AD077FE48D
:102B1500124220900005E0FCA3A3E0FEA3E0FFE441
:102B2500AD077FE51242207D207FDE1242207DE049
:102B35007FDE1242207D807FFF1242207DF17F16CD
:102B45001242207DF37F16124220E490000AF07DA8
:102B5500807FFF1242207DE37F161242207DF37FA6
:102B6500161242207D827FFF1242207F15124147B7
:102B7500EF30E7097BFF7A0679E40231EA7D807F51
:102B8500FF1242207D5A7F111242207DFA7F1112D9
:102B950042207DDC7F181242207DFC7F18124220E6
:102BA5007DF17F161242207DF37F161242207BFFB6
:102BB5007A0779021231EA90000AE004F0E0C39442
:032BC50006408C3B
:012BC80022EA
:1039AA007D817FFF1242207D6A7F30124220900083
:1039BA0089E070047D7380027D447F311242207D4C
:1039CA004A7F321242207D0B7F33124220E4FD7F70
:1039DA0034124220E4FD7F35124220E4FD7F361284
:1039EA0042207D447F371242207D0F7F3F124220C2
:1039FA007DA07F401242207DA07F411242207DA0FF
:103A0A007F421242207DA07F431242207D0A7F44DA
:033A1A0002422045
:103AEB007D817FFF1242207D407F231242207D8209
:103AFB007FFF1242207D207FDE1242207DE07FDEA1
:103B0B001242207D807FFF1242207DDC7F18124203
:103B1B00207DFC7F181242207DF17F161242207D02
:103B2B00F37F161242207D5A7F111242207DFA7FBD
:103B3B00111242207D817FFF1242207DEA7F3002ED
:023B4B00422016
:1042E7007D817FFF124220E4FD7F301242207D80D6
:0542F7007F23024220BC
:0B383A00900081E0FBA3E0FAA3E0F99E
:10384500900016121DA6FF900018121C85C454F096
:103855002408FE900006F0A3EFF0FDEE2DFFE43303
:10386500FEC3EF945FEE64809480900006E0FFC392
:10387500745F9FFFA3E0FEC3EF9E900005F07D847B
:103885007FFF124220900005E0FD7F431242209009
:103895000006E0FD7F45124220900007E0FD7F47CE
:1038A5001242207D847FFF1242207D027F1012424A
:0838B500207D647F1202422015
:10420100900086E0B401177D827FFF1242207D1865
:0F4211007FB91242207BFF7A07792D1231EA2202
:10372C00900088E070417BFF7A07794F1231EA7D77
:10373C00827FFF1242207D837FD61242207D047F40
:10374C00D71242207D847FFF1242207D087F061213
:10375C0042207D107F071242207D297F0F124220CC
:10376C007DD47F34124220900088E06401703A7B53
:10377C00FF7A0779661231EA7D827FFF1242207D43
:10378C008E7FD61242207D047FD71242207D847F0B
:10379C00FF1242207D0C7F061242207D107F071203
:0A37AC0042207DD47F341242202217
:104069007D827FFF1242207D0A7F581242207D8087
:104079007F591242207DF77F9E1242207DFEE4FF88
:104089001242207D3F7F031242207DFF7F041242AE
:10409900207DFE7F041242207DFF7F071242207D92
:0640A9003F7F07024220E8
:01003A0022A3
:10423E007D827FFF1242207F5E124147EF30E20700
:0D424E0090007F7401F022E490007FF022C8
:1041DE007D857FFF1242207D1F7F071242207DFECC
:1041EE007F131242207D0F7F171242207D057F150F
:0341FE000242205A
:1040E8007D807FFF1242207D7F7F141242207DFF5A
:1040F8007F141242207D857FFF1242207D017F15AB
:104108001242207D717F151242207D657F15024283
:014118002086
:0E4323007D857FFF1242207D457F15024220DE
:103ED700EF7D807FFF60411242207DFF7F0D124200
:103EE700207DF97F151242207D867FFF124220E454
:103EF700FD7FFA1242207DA57FFE1242207D827F40
:103F0700FF1242207D7F7F011242207DFF7F051235
:103F170042207D7F7F0580071242207DF17F1512A9
:033F270042202213
:014348002252
:014349002251
:102D7300900001121F48000000007D827FFF124275
:102D8300207D037FC71242207F327E007D007C00BE
:102D9300123DCE7FCD124147900000EFF0546064A6
:102DA300606003022E3AE0540FFFE4FCFDFEFBFAE1
:102DB3007901F8121DDE900001121F3C7FCE1241F3
:102DC30047900000EFF0A3E0F8A3E0F9A3E0FAA333
:102DD300E0FB900000E07F00FEE4FCFDEF2BFFEA48
:102DE3003EFEED39FDEC38FCA3121F3C7FCF1241B0
:102DF30047900000EFF0A3E0F8A3E0F9A3E0FAA303
:102E0300E0FB900000E0FFE4FCFDFEEB2FFFEE3A59
:102E1300FEED39FDEC38FCA3121F3C7BFF7A0779EA
:102E23007B1231EA900001E0FCA3E0FDA3E0FEA3E6
:102E3300E0FF121FF380097BFF7A0779901231EAD2
:102E43007D827FFF1242207D047FC71242207F32A2
:102E53007E007D007C00123DCE7FCD124147900065
:102E630000EFF0546064606003022EFEE0540FFF35
:102E7300E4FCFDFEFBFA7901F8121DDE900001125D
:102E83001F3C7FCE124147900000EFF0A3E0F8A370
:102E9300E0F9A3E0FAA3E0FB900000E07F00FEE48A
:102EA300FCFDEF2BFFEA3EFEED39FDEC38FCA312EF
:102EB3001F3C7FCF124147900000EFF0A3E0F8A33F
:102EC300E0F9A3E0FAA3E0FB900000E0FFE4FCFDDF
:102ED300FEEB2FFFEE3AFEED39FDEC38FCA3121F9B
:102EE3003C7BFF7A0779AB1231EA900001E0FCA347
:102EF300E0FDA3E0FEA3E0FF021FF37BFF7A077967
:042F0300C01231EADD
:012F070022A7
:103E8000E4900002F07D827FFF1242207F86124183
:103E900047900000E4F0A3EFF07F87124147EFFD69
:103EA0007C00900001E0FEE42DFFEC3E900000F06D
:103EB000A3EFF07BFF7A0779DB1231EA900000E094
:103EC000FEA3E0FFE4FCFD121FF3900002E004F00B
:063ED000E0C3940A40AFBC
:013ED60022C9
:01434A002250
:103448007D837FFF1242207FBC124147900000EF2E
:10345800F07BFFBF55067A0779EE800C7A08790869
:10346800900000E0900015F01231EA7F9912414770
:10347800900000EFF07BFFBFB8067A08792B800C2C
:103488007A087946900000E0900015F01231EA7F42
:103498009B124147900000EFF07BFFBFB8067A0807
:1034A8007965800C7A087980900000E0900015F02A
:1034B8001231EA7F9D124147900000EFF07BFFBF79
:1034C800B8067A08799F800C7A0879BA900000E0EB
:1034D800900015F01231EA7F9F124147900000EFEB
:1034E800F07BFFBFB8067A0879D9800C7A0879F49E
:1034F800900000E0900015F01231EA7F9A124147DF
:10350800900015EFF07BFF7A0979131231EA7F9C5E
:10351800124147900015EFF07BFF7A09792F12319D
:10352800EA7F9E124147900015EFF07BFF7A0979F8
:103538004B1231EA7FA0124147900015EFF07BFF54
:073548007A0979670231EAFC
:103091007BFF7A0979831231EA7D827FFF12422018
:1030A1007F0C124147900001EFF07F0D12414790D4
:1030B1000002EFF07F0F124147900000EFF0900007
:1030C10002E030E7647D867FFF1242207FD2124109
:1030D10047EF30E13F7BFF7A0979951231EA7FD3DF
:1030E100124147900003EFF0E4A3F0900003E0FFEA
:1030F100A3E0FEC39F501DEE24D3FF124147900071
:1031010015EFF07BFF7A00795A1231EA900004E062
:1031110004F080D77D827FFF1242207DFF7F051260
:1031210042207D7F7F05124220900000E054C0FFC5
:10313100BFC01812423E7D827FFF1242207DFF7F79
:10314100071242207D3F7F07124220900000E030AD
:10315100E7217BFF7A0979AB1231EA1242E77D82DE
:103161007FFF1242207DBF7F071242207D3F7F07F4
:10317100124220900000E030E6217BFF7A0979BD00
:103181001231EA123AEB7D827FFF1242207D7F7F6E
:10319100071242207D3F7F07124220900001E0305C
:1031A100E0467BFF7A0979CC1231EA7D827FFF12FA
:1031B10042207DFF7F9E1242207DF77F9E1242209A
:1031C1007DFF7F041242207DFE7F041242207F6436
:1031D1007E007D007C00123DCE120DCD12295A12C7
:0831E100331C12383A123AEBDC
:0131E90022C3
:102F08009000AEEBF0A3EAF0A3E9F07D827FFF1218
:102F180042209000AEE0FBA3E0FAA3E0F9900004A1
:102F2800121DA6FFAEF0900002121DA62FE5F03E7E
:102F3800FD7FA31242209000AEE0FBA3E0FAA3E0DD
:102F4800F9900004121DA6FFAEF0900002121DA613
:102F58002FFFE5F03EAD077FA41242209000AEE0BF
:102F6800FBA3E0FAA3E0F990000E121DA6FFAEF055
:102F780090000C121DA62FFFE5F03EAD077FA512AD
:102F880042209000AEE0FBA3E0FAA3E0F99000062F
:102F9800121DA6E5F0FD7FA61242209000AEE0FBD0
:102FA800A3E0FAA3E0F9900006121DA6FD7FA71280
:102FB80042209000AEE0FBA3E0FAA3E0F9900010F5
:102FC800121DA6E5F0FD7FA81242209000AEE0FB9E
:102FD800A3E0FAA3E0F9900010121DA6FD7FA91244
:102FE80042209000AEE0FBA3E0FAA3E0F9900008CD
:102FF800121DA6E5F0FD7FAA1242209000AEE0FB6C
:10300800A3E0FAA3E0F9900008121DA6FD7FAB1219
:1030180042209000AEE0FBA3E0FAA3E0F990001292
:10302800121DA6E5F0FD7FAC1242209000AEE0FB39
:10303800A3E0FAA3E0F9900012121DA6FD7FAD12DD
:1030480042209000AEE0FBA3E0FAA3E0F990000272
:10305800121DA6E5F0FD7FAE1242209000AEE0FB07
:10306800A3E0FAA3E0F9900002121DA6FD7FAF12BB
:1030780042209000AEE0FBA3E0FAA3E0F990000C38
:09308800121DA6FD7FB0024220DA
:10354F00900019121F0C900096121F3C7BFF7A09F6
:10355F0079E11231EA900096E0FCA3E0FDA3E0FED2
:10356F00A3E0FF121FF37D837FFF1242207D507F68
:10357F002D1242207F287E887D047C00900096E0EB
:10358F00F8A3E0F9A3E0FAA3E0FBC3121EFB700E51
:10359F007DB67F261242207DF07F271242207F14B6
:1035AF007E447D027C00900096E0F8A3E0F9A3E052
:1035BF00FAA3E0FBC3121EFB70077DB77F261242F2
:1035CF00207F0A7E227D017C00900096E0F8A3E028
:1035DF00F9A3E0FAA3E0FBC3121EFB70077D9C7FEB
:1035EF00261242207D807FFF1242207D5A7F1112CA
:0935FF0042207DFA7F11024220F6
:1042FC007D827FFF1242207D807F4F1242207D20E5
:05430C007F5002422079
:103A1D0090008174FFF0A3740AF0A374DBF0123BE5
:103A2D00AC123A891242FC12295A900081E0FBA394
:103A3D00E0FAA3E0F9122F0812383A1239AA123A15
:103A4D00EB12434A7D827FFF1242207D8C7FD6127E
:103A5D0042207D067FD71242207D847FFF124220B7
:103A6D007D0C7F061242207D107F071242207D01C2
:0C3A7D007F161242207DD47F34024220CC
:10393400123BAC123A89123C641236087FE87E03CB
:103944007D007C00123DCE120DCD12295A12331C7B
:1039540012372C1242011241DE12383A1239AA12DD
:1039640040697F01123ED77BFF7A0979F41231EA6C
:1039740012423E90007FE07BFF60127A0A792712A0
:1039840031EA12003A123AEB1240E8800D7A0A79D1
:10399400391231EA1243231242E7122D73123448CA
:0639A400123E8002434ABE
:03003B00024197E8
:10419700C0E0C083C082C0D0E5ECB4080575EC0070
:1041A700C2899000B37401F0539BFDD0D0D082D068
:0441B70083D0E0329F
:030000000236A025
:0C36A000787FE4F6D8FD7581210236E742
:103D750090009A121F3C538EF7438901D28CE4FFC1
:103D8500FEFDFC90009AE0F8A3E0F9A3E0FAA3E0B9
:103D9500FBC3121EFB602F758A7E758CFF308DFD6F
:103DA500C28D90009AE0FCA3E0FDA3E0FEA3E02411
:103DB500FFFFEE34FFFEED34FFFDEC34FFFC900019
:093DC5009A121F3C80B8C28C2246
:103DCE0090004F121F3C538EF7438901D28CE4FFB3
:103DDE00FEFDFC90004FE0F8A3E0F9A3E0FAA3E0AB
:103DEE00FBC3121EFB602F758ACA758CFA308DFDCF
:103DFE00C28D90004FE0FCA3E0FDA3E0FEA3E02403
:103E0E00FFFFEE34FFFEED34FFFDEC34FFFC9000BF
:093E1E004F121F3C80B8C28C2237
:103E270090009E121F3C538EEF438910D28EE4FF01
:103E3700FEFDFC90009EE0F8A3E0F9A3E0FAA3E002
:103E4700FBC3121EFB602F758BEA758DCB308FFD80
:103E5700C28F90009EE0FCA3E0FDA3E0FEA3E02458
:103E6700FFFFEE34FFFEED34FFFDEC34FFFC900066
:093E77009E121F3C80B8C28E228D
:103C08009000A2121F3C53C9BF53C9DF43C910D249
:103C1800CAE4FFFEFDFC9000A2E0F8A3E0F9A3E0EF
:103C2800FAA3E0FBC3121EFB602F75CC3075CDF8EC
:103C380030CFFDC2CF9000A2E0FCA3E0FDA3E0FEE0
:103C4800A3E024FFFFEE34FFFEED34FFFDEC34FF6C
:0C3C5800FC9000A2121F3C80B8C2CA22DF
:103CBF009000A6121F3C75C40743C408E4FFFEFD25
:103CCF00FC9000A6E0F8A3E0F9A3E0FAA3E0FBC3A1
:103CDF00121EFB603275C52C75C6CFE5C430E4FBF0
:103CEF0053C4EF9000A6E0FCA3E0FDA3E0FEA3E029
:103CFF0024FFFFEE34FFFEED34FFFDEC34FFFC90AC
:0B3D0F0000A6121F3C80B553C4F72231
:103D1A009000AA121F3C75C40743C408E4FFFEFDC5
:103D2A00FC9000AAE0F8A3E0F9A3E0FAA3E0FBC341
:103D3A00121EFB603275C5D875C6FFE5C430E4FBB8
:103D4A0053C4EF9000AAE0FCA3E0FDA3E0FEA3E0C9
:103D5A0024FFFFEE34FFFEED34FFFDEC34FFFC9050
:0B3D6A0000AA121F3C80B553C4F722D2
:1024D700E5082452F582E43400F583E005082290EC
:1024E700004F300703900052E475F001121F790284
:1024F7001C6C2000E97F2ED2008018EF540F249027
:10250700D43440D4FF30040BEF24BFB41A00500377
:102517002461FFE50960021509050CE50C70020549
:102527000B30070E90004FE475F001121F79EF0290
:102537001CB20241707403D2078003E4C207F50896
:1025470090004F121F90E4F509F50BF50CE50960B3
:10255700077F2012251A80F5750AFFC201C200C243
:1025670002C203C205C206C2081224E6FF700D307C
:1025770007057F0012252BAF0CAE0B22B4255FC2D7
:10258700D5C2041224E6FF24D0B40A00501A75F00D
:102597000A780930D50508B6FF0106C6A426F62035
:1025A700D5047002D20380D924CFB41A00EF5004A7
:1025B700C2E5D20402281DD20180C6D20080C0D253
:1025C7000280BCD2D580BAD20580B47F2012251AEA
:1025D7002002077401B5090040F11224D7FF122524
:1025E7001A022554D208D20680951224D7FB12244A
:1025F700D7FA1224D7F94A4B7006791B7A297BFF41
:1026070020022EE509602A7E008E82758300121C47
:102617008560060EEE650A70F0C2D5EBC0E0EAC031
:10262700E0E9C0E0EE12287ED0E0F9D0E0FAD0E091
:10263700FB121C6CFF60AAEBC0E0EAC0E0E9C0E057
:1026470012251AD0E02401F9D0E03400FAD0E0FBDB
:10265700E50A0460DCD50AD98087D20280A2122855
:102667006060F7E50A7001041217D2A90A600DE548
:102677000A600914F50A122908EF60F3EA30E70245
:10268700F404C3995079EAF4250A0430E701E40415
:10269700F50A800D12286060C1EA050A250A12179B
:1026A700D2EA90007EF030E701E4250A04D50A0457
:1026B7002005011412287EE4C0E012290890007E4C
:1026C700E0601320E70714F0122502802204F0D0FF
:1026D700E014C0E07F00122502E50A60071224F922
:1026E700150A800B3005031224F9D0E0022554D0D7
:1026F700E00480C4122860609EE50A041217D29095
:10270700007EEAF0E50A200502600104240412288D
:012717007E43
:1027180074FF04C0E0122908122502E50A20050208
:1027280060031224F9D0E0B50AE87F4512250C9021
:10273800007EE07F2B30E7047F2DF404C0E01225F3
:102748001AD0E075F00A84C0F0122503D0E01225F3
:1027580003022554791080027908C206C20880084D
:10276800D2D5790A8004790AC2D5E50A047002F53F
:102778000AE4FAFDFEFF1224D7FC7B08200113129D
:1027880024D7FD7B1030000A1224D7FE1224D7FF6D
:102798007B20EC3382D592D55013C3E43000069FDA
:1027A800FFE49EFEE42001039DFDE49CFCE4CBF8DD
:1027B800C201EC700CCFCECDCCE824F8F870F380D1
:1027C80017C3EF33FFEE33FEED33FDEC33FCEB3391
:1027D800FB994002FB0FD8E9EB300105F8D0E0C4C3
:1027E80048B201C0E00AEC4D4E4F78207B0070C221
:1027F800EAB50A0040BCC0E0122880D0F0D0E02042
:102808000104C4C0E0C4B201C0F0122503D0F0D561
:10281800F0EB022554121F9925F153275C5825C265
:102828004C25BE4227604F27684427684925D7436F
:10283800276E55269B4626FB45266547293B50258E
:10284800C62D25CA2E25ED2B25CE2325EB202924A0
:102858002A258648000025E5E50AB4FF03750A061F
:102868001224D7FC1224D7FD1224D7FE1224D7FF36
:1028780090007702180F790AA2D5200314300509B1
:10288800B910020404B9080104A2D52006025001B7
:10289800042002689202B509005034C0E07F20305D
:1028A80003197F30A20272067205500F1228D7C290
:1028B80002C206C205C2087F30800F300503E9C096
:1028C800E012251A300503D0E0F9D0E0B509CC3084
:1028D80005177F30B9100C12251A7F583004077F6E
:1028E800788003B9080312251A3002057F2D0225C6
:1028F8001A7F202008F87F2B2006F322920280CF2F
:102908007F00B40700500B2477F582E43400F58388
:10291800E0FF22286E756C6C2900D2011224D73092
:1029280001F8C201780930D50108F60225862D5034
:102938004349581224D72403B405004001E49029E0
:10294800369312250B743A12250BD203750904022B
:02295800275CFA
:1017D200F920E73624F950037907E4F42402FBE503
:1017E20082158270021583DBF6E024FB501BE96050
:1017F20014E4F0E582158270021583E004F0B40A65
:0D18020008E4F0D9EE7401F00A22C2D522EC
:10180F00ED33EC3392D5FA602AB4FF33EDC2E77BA8
:10181F00FF60067A187934E4227A18793D20D504CE
:10182F007A187938224E614E002B494E46002D49C9
:10183F004E4600E47A08F0A3DAFC7B00740722C05E
:10184F0083C082ECC0E0EDC0E0EEC0E0EFC0E0EAA4
:10185F0075F010A4CAABF075F04DA42BFBE435F076
:10186F00FCEA2410FAEB34C5FBEC34D9FCEDC2E7EB
:10187F00FF75F056A4F42411C5F0F434C58FF0A40D
:10188F002AE5F03BE43CF020E714121BE2D0E0FF26
:10189F00D0E0FED0E0FDD0E0FC121B158014F40464
:1018AF00121BE2D0E0FFD0E0FED0E0FDD0E0FC1252
:1018BF001A0CD082D083E0FAEDD2E7CD33EC33248B
:1018CF0082FBE4C3CF33CFCE33CECD33CD33DBF377
:1018DF007B0775F00A846004F0A31B0AE5F0F0A300
:1018EF008FF0740AA4FFACF08EF0740AA42CFEAC37
:1018FF00F050010C8DF0740AA42CFDE435F0F0A328
:05190F00DBDE7407227D
:10191400021C57E86480F8E933E83360110460F08E
:10192400ED33EC337009E8FCE9FDEAFEEBFF220439
:1019340060DED3EB9FEA9EE99DE8C2E78CF0C2F734
:1019440095F0400CE8CCF8E9CDF9EACEFAEBCFFB00
:10195400121C2285D0F05804700320D5B3E804701B
:10196400075002B2D5021C6192D5EC0460F7E4CCB6
:10197400C0E0C398F8603B94186008400DD0E0FBC9
:10198400021C39E4FBFAC9FC8028E830E406E4C907
:10199400FBE4CAFCE830E305E4C9CACBFCE854071D
:1019A4006010F8C3E913F9EA13FAEB13FBEC13FC28
:1019B400D8F130F52FC3E49CFCEF9BFFEE9AFEEDCB
:1019C40099FDD0E0FBEF4E4D4C701222DB03021C5C
:1019D4005EEC2CFCEF33FFEE33FEED33FDED30E730
:1019E400EB021C39EF2BFFEE3AFEED39FDD0E0FBA4
:1019F40050130BBB0003021C61ED13FDEE13FEEF4D
:081A040013FFEC13FC021C3976
:101A0C00EC4D6011E8497017ED33EC3304600DE4D4
:101A1C00FCFFFEFD22E933E8330470F8021C571278
:101A2C001C2258046009E4CC248150062850090279
:101A3C001C61284003021C5EC0E0EB4A7044B98074
:101A4C0006D0E0FB021C4DEF4E701CBD8008EBFF76
:101A5C00EAFEE9FD80EBE98DF0A4FEE5F0021AF553
:101A6C00E9CDF9EAFEEBFFEF89F0A4FCE5F0CE89B5
:101A7C00F0A42EFFE435F0CD89F0A42DFEE435F072
:101A8C008067EF4E7005BD80D780C3EF8BF0A4ACA0
:101A9C00F0EE8BF0A42CFCE435F0F8EF8AF0A42CDB
:101AAC00E5F038FCE433CB8DF0A42CFCE5F03BF8EE
:101ABC00EE8AF0A42CFCE5F038F8E433CF89F0A4DE
:101ACC002CFCE5F038CF3400CE89F0A42FFFE5F0E4
:101ADC003EFEE433C98DF0A42EFEE5F039CD8AF03C
:101AEC00A42FFFE5F03EFEE43DFD33D0E0FB5007B4
:101AFC000BBB000F021C61EC2CFCEF33FFEE33FE32
:061B0C00ED33FD021C395F
:101B1200021C61EC5D046005E859047003021C5765
:101B2200121C22580460F6EC4860F2EC7004FDFED0
:101B3200FF22C860DB2481C85009C39860025006A6
:101B4200021C5E9850CAF582E9294B4A7005AB82A5
:101B5200021C4D75F0007C1A7880C3EF9BEE9AED63
:101B620099400DC3EF9BFFEE9AFEED99FDE842F01E
:101B7200DC23ACF0D0E0FFD0E0FED0E0FDAB822071
:101B8200E7101BEB60BAEC2CFCEF33FFEE33FEEDFB
:101B920033FD021C39E803F830E705C0F075F000A8
:101BA200EF2FFFEE33FEED33FD40B830E7C280AADF
:101BB2003F8000004120000042C80000447A00003B
:101BC200461C400047C35000497424004B189680BD
:101BD2004CBEBC205A0E1BCA6753C21C749DC5AEB4
:101BE200FB60065407601C2323121C10EB54386060
:101BF20009121BFC121C0B121A0CECF8EDF9EEFA8E
:101C0200EFCB22EB121C0B80F1543803241C901BE7
:101C1200B2FE93FC0EEE93FD0EEE930ECE93FF22D8
:101C2200E9D2E7C933E833F892D5EDD2E7CD33EC08
:071C320033FC5002B2D52281
:101C3900EC30E7100FBF000C0EBE00080DBD00040C
:101C49000BEB6014A2D5EB13FCED92E7FD2274FFB8
:101C5900FCFDFEFF22E480F8A2D574FF13FC7D8011
:031C6900E480EF25
:1036AC00024119E493A3F8E493A34003F68001F2DA
:1036BC0008DFF48029E493A3F85407240CC8C3331F
:1036CC00C4540F4420C8834004F456800146F6DFEE
:1036DC00E4800B0102040810204080904291E47EAB
:1036EC00019360BCA3FF543F30E509541FFEE493E3
:1036FC00A360010ECF54C025E060A840B8E493A3AA
:10370C00FAE493A3F8E493A3C8C582C8CAC583CAD4
:10371C00F0A3C8C582C8CAC583CADFE9DEE780BE8C
:0142A7000016
:101C6C00BB010689828A83E0225002E722BBFE0276
:091C7C00E32289828A83E49322A9
:101C8500BB010CE58229F582E5833AF583E0225014
:101C950006E92582F8E622BBFE06E92582F8E2225E
:0D1CA500E58229F582E5833AF583E4932278
:101CB200BB010689828A83F0225002F722BBFE0111
:021CC200F3220B
:101CC400BC000BBE0029EF8DF084FFADF022E4CC04
:101CD400F875F008EF2FFFEE33FEEC33FCEE9DECCD
:101CE400984005FCEE9DFE0FD5F0E9E4CEFD22ED13
:101CF400F8F5F0EE8420D21CFEADF075F008EF2F5D
:101D0400FFED33FD4007985006D5F0F222C398FD4D
:051D14000FD5F0EA22EA
:101D1900C2D5EC30E709B2D5E4C39DFDE49CFCEEE5
:101D290030E715B2D5E4C39FFFE49EFE121CC4C37D
:101D3900E49DFDE49CFC8003121CC430D507C3E478
:061D49009FFFE49EFE2254
:101D4F00C5F0F8A3E028F0C5F0F8E582158270021F
:061D5F001583E038F022BC
:101D6500A3F8E0C5F025F0F0E58215827002158331
:061D7500E0C838F0E8228E
:101D7B00BB010A89828A83E0F5F0A3E02250068733
:101D8B00F009E71922BBFE07E3F5F009E3192289F5
:0B1D9B00828A83E493F5F07401932228
:101DA600BB0110E58229F582E5833AF583E0F5F07B
:101DB600A3E0225009E92582F886F008E622BBFE58
:101DC6000AE92582F8E2F5F008E222E5832AF5839E
:081DD600E993F5F0A3E9932263
:101DDE00E88FF0A4CC8BF0A42CFCE98EF0A42CFCA4
:101DEE008AF0EDA42CFCEA8EF0A4CDA8F08BF0A422
:101DFE002DCC3825F0FDE98FF0A42CCD35F0FCEB81
:101E0E008EF0A4FEA9F0EB8FF0A4CFC5F02ECD3945
:0F1E1E00FEE43CFCEAA42DCE35F0FDE43CFC22B2
:101E2D0075F008758200EF2FFFEE33FECD33CDCC6C
:101E3D0033CCC58233C5829BED9AEC99E5829840EF
:101E4D000CF582EE9BFEED9AFDEC99FC0FD5F0D6CC
:101E5D00E4CEFBE4CDFAE4CCF9A88222B800C1B9F6
:101E6D000059BA002DEC8BF084CFCECDFCE5F0CB34
:101E7D00F97818EF2FFFEE33FEED33FDEC33FCEB6D
:101E8D0033FB10D703994004EB99FB0FD8E5E4F928
:101E9D00FA227818EF2FFFEE33FEED33FDEC33FC15
:101EAD00C933C910D7059BE99A4007EC9BFCE99A09
:101EBD00F90FD8E0E4C9FAE4CCFB2275F010EF2F4E
:101ECD00FFEE33FEED33FDCC33CCC833C810D7074E
:101EDD009BEC9AE899400AED9BFDEC9AFCE899F889
:0E1EED000FD5F0DAE4CDFBE4CCFAE4C8F9221C
:101EFB00EB9FF5F0EA9E42F0E99D42F0E89C45F03D
:011F0B0022B3
:101F0C00BB010DE58229F582E5833AF583021FCBEF
:101F1C005007E92582F8021FBFBBFE07E92582F8AE
:101F2C00021FD7E58229F582E5833AF583021FE388
:0C1F3C00ECF0A3EDF0A3EEF0A3EFF02218
:101F4800A8828583F0D083D082121F5F121F5F1290
:101F58001F5F121F5FE473E493A3C583C5F0C583B5
:101F6800C8C582C8F0A3C583C5F0C583C8C582C8E3
:011F78002246
:101F7900F8E0FBA3A3E0F925F0F0E58215827002F1
:071F89001583E0FA38F02295
:091F9000EBF0A3EAF0A3E9F02252
:101F9900D083D082F8E4937012740193700DA3A3D7
:101FA90093F8740193F5828883E4737402936860EB
:061FB900EFA3A3A380DFEB
:10417000EFB40A07740D12417B740A309811A899A4
:10418000B8130CC2983098FDA899C298B811F630AF
:0741900099FDC299F5992287
:0C1FBF00E6FC08E6FD08E6FE08E6FF224E
:0C1FCB00E0FCA3E0FDA3E0FEA3E0FF2289
:0C1FD700E2FC08E2FD08E2FE08E2FF2246
:101FE300E493FC740193FD740293FE740393FF2244
:00000001FF
