:03376900307800B5
:1034FF0053B1BF53B2BF53B17F53B27F759850438F
:10350F008920438780438E1053C4DFAB07AA06A9D7
:10351F0005A8047F407E427D0F7C001206E7EF0472
:09352F00F404F58DD28ED299222C
:08376100C2998F993099FD22F5
:030037000237612C
:1033E000AB07AA067C007D0A120597C3EF940AEE8C
:1033F000648094805005EF2430800E7C007D0AAFFD
:1034000003AE02120597EF2457FF1200377C007DB0
:103410000AAF03AE02120597C3ED940AEC648094E0
:0F34200080ED5004243080022457FF1200372221
:102D9400900179EEF0A3EFF07BFF7A377969121492
:102DA4009A7F027E007D007C00123234900179E02B
:102DB400FEA3E0FF7C007D10120597C3EF940AEE9A
:102DC400648094805005EF24308012900179E0FEF5
:102DD400A3E0FF7C007D10120597EF2457FF12003B
:102DE40037900179E0FEA3E0FF7C007D1012059787
:102DF400C3ED940AEC64809480ED50042430800286
:072E04002457FF12003722E2
:060F4B0090013E1207BAFE
:100F5100E4900142F0A31207C60000000090013E98
:100F6100E0FCA3E0FDA3E0FEA3E0FF900143120734
:100F7100BA7F201200377F7F7E967D987C0090019A
:100F810043E0F8A3E0F9A3E0FAA3E0FBD312077969
:100F9100407A7B807A9679987800900143E0FCA3AF
:100FA100E0FDA3E0FEA3E0FF1206E7E47B0AFAF905
:100FB100F8D31207797B807A96799878009001436B
:100FC100E0FCA3E0FDA3E0FEA3E0FF40081206E77A
:100FD100EF243080061206E7EF2457FF1200379006
:100FE1000143E0FCA3E0FDA3E0FEA3E0FF7B807AE8
:100FF10096799878001206E7AC00AD01AE02AF0316
:101001009001431207BA9001427401F07F3F7E4282
:101011007D0F7C00900143E0F8A3E0F9A3E0FAA37F
:10102100E0FBD3120779407C7B407A42790F78004C
:10103100900143E0FCA3E0FDA3E0FEA3E0FF120664
:10104100E7E47B0AFAF9F8D31207797B407A42790F
:101051000F7800900143E0FCA3E0FDA3E0FEA3E0D4
:10106100FF40081206E7EF243080061206E7EF245E
:1010710057FF120037900143E0FCA3E0FDA3E0FE1F
:10108100A3E0FF7B407A42790F78001206E7AC00BB
:10109100AD01AE02AF039001431207BA9001427451
:1010A10001F0800B900142E060057F301200377F34
:1010B1009F7E867D017C00900143E0F8A3E0F9A3C7
:1010C100E0FAA3E0FBD3120779500302115C7BA085
:1010D1007A8679017800900143E0FCA3E0FDA3E06A
:1010E100FEA3E0FF1206E7E47B0AFAF9F8D3120740
:1010F100797BA07A864019097800900143E0FCA32E
:10110100E0FDA3E0FEA3E0FF1206E7EF2430801824
:1011110079017800900143E0FCA3E0FDA3E0FEA388
:10112100E0FF1206E7EF2457FF120037900143E07A
:10113100FCA3E0FDA3E0FEA3E0FF7BA07A8679019A
:1011410078001206E7AC00AD01AE02AF0390014397
:101151001207BA9001427401F0800B900142E060E5
:10116100057F30120037E47F0F7E27FDFC9001439D
:10117100E0F8A3E0F9A3E0FAA3E0FBD3120779506A
:101181000302120DE47B107A27F9F8900143E0FC89
:10119100A3E0FDA3E0FEA3E0FF1206E7E47B0AFA69
:1011A100F9F8D3120779E47B107A274017F89001F8
:1011B10043E0FCA3E0FDA3E0FEA3E0FF1206E7EF9E
:1011C10024308016F9F8900143E0FCA3E0FDA3E090
:1011D100FEA3E0FF1206E7EF2457FF12003790014C
:1011E10043E0FCA3E0FDA3E0FEA3E0FFE47B107A73
:1011F10027F9F81206E7AC00AD01AE02AF0390018A
:10120100431207BA9001427401F0800B900142E051
:1012110060057F30120037E47FE77E03FDFC90011B
:1012210043E0F8A3E0F9A3E0FAA3E0FBD3120779C6
:1012310050030212BEE47BE87A03F9F8900143E01F
:10124100FCA3E0FDA3E0FEA3E0FF1206E7E47B0AB6
:10125100FAF9F8D3120779E47BE87A034017F8909A
:101261000143E0FCA3E0FDA3E0FEA3E0FF1206E7DB
:10127100EF24308016F9F8900143E0FCA3E0FDA3D0
:10128100E0FEA3E0FF1206E7EF2457FF12003790BC
:101291000143E0FCA3E0FDA3E0FEA3E0FFE47BE863
:1012A1007A03F9F81206E7AC00AD01AE02AF039084
:1012B10001431207BA9001427401F0800B90014280
:1012C100E060057F30120037E47F63FEFDFC900192
:1012D10043E0F8A3E0F9A3E0FAA3E0FBD312077916
:1012E100500302136BE47B64FAF9F8900143E0FCCC
:1012F100A3E0FDA3E0FEA3E0FF1206E7E47B0AFA08
:10130100F9F8D3120779E47B644017F8900143E0C0
:10131100FCA3E0FDA3E0FEA3E0FF1206E7EF24300B
:101321008017FAF9F8900143E0FCA3E0FDA3E0FE89
:10133100A3E0FF1206E7EF2457FF120037900143A5
:10134100E0FCA3E0FDA3E0FEA3E0FFE47B64FAF987
:10135100F81206E7AC00AD01AE02AF0390014312F3
:1013610007BA9001427401F0800B900142E06005E0
:101371007F30120037E47B0AFAF9F8900143E0FC70
:10138100A3E0FDA3E0FEA3E0FF1206E7E47B0AFA77
:10139100F9F8D3120779E44017F8900143E0FCA370
:1013A100E0FDA3E0FEA3E0FF1206E7EF2430801981
:1013B1007B0AFAF9F8900143E0FCA3E0FDA3E0FE0B
:1013C100A3E0FF1206E7EF2457FF120037E47B0A80
:1013D100FAF9F8900143E0FCA3E0FDA3E0FEA3E0ED
:1013E100FF1206E7AC00AD01AE02AF03E47B0AFADF
:1013F100F9F8D3120779E44017F8900143E0FCA310
:10140100E0FDA3E0FEA3E0FF1206E7EB2430801924
:101411007B0AFAF9F8900143E0FCA3E0FDA3E0FEAA
:0D142100A3E0FF1206E7EB2457FF1200378F
:01142E00229B
:0B25B30090013EEBF0A3EAF0A3E9F07A
:1025BE009001691207C600000000E490016DF0A3BF
:1025CE00F0F9A3C9F0A3F0A3E9F0E4A3F0F9A3C9CD
:1025DE00F0A3F0A3E9F0A37401F0A37401F0A374C7
:1025EE0041F090013EE0F9A3E0FAA3E0900173C937
:1025FE00F0A3EAF0A3E9F0900173E0FBA3E0FAA3E5
:10260E00E0F91204D870030226E464256003022662
:10261E00CA900173A3E475F0011205CDA9F0FA1268
:10262E0004D824DB70030226B824E1602B24EC606E
:10263E005024F4602324EC604824157072900176C7
:10264E00E0FBA3E475F0021205E3A9F0FA1205F916
:10265E00900172F0E0FF8054900176E0FBA3E475E8
:10266E00F0011205E3A9F0FA1204D8FF90016DE40F
:10267E00F0A3EFF090016DA3E0FF7E001233E08037
:10268E002E900176E0FBA3E475F0011205E3A9F0AC
:10269E00FA1204D8FF90016DE4F0A3EFF090016DF3
:1026AE00E0FEA3E0FF122D9480057F2512003790E7
:1026BE000174E475F0011205CD022605900173E058
:1026CE00FBA3E475F0011205E3A9F0FA1204D8FF9A
:0626DE0012003702260580
:0126E40022D3
:10333D000D0A23232323232323232323232323237F
:10334D002323232323232323232323236D63752067
:10335D0073746172742323232323232323232323B1
:10336D002323232323232323232323232323232320
:10337D00232323000D0A697271207461736B2E2E45
:02338D002E0010
:042450004101D20074
:10342F0043B30153B4FE43B30253B4FD43B3045348
:10343F00B4FB43B10853B2F743B11053B2EF53ACDF
:10344F00FE43AD0143B30843B40843B31043B41074
:10345F007F007EC27D017C001234FF53E9FB43E9FC
:0D346F002043EA0853EBF7439B02D2AF2243
:1036C700C2B07FC87E007D007C00123234D2B07F4A
:0A36D700C87E007D007C0002323442
:1035690012342F7BFF7A33793D1225B31236C712F5
:103579002E7E9001D2E060FA7BFF7A3379811225A1
:0E358900B31227ECE49001D2F0439B0280E4E1
:042454004101D076FC
:0737350012373CD2937F0A1A
:0A373C00E4FEEEC39F50030E80F878
:013746002260
:1036E100D2947F01123735C2947F0712373CC293BF
:0536F1007F0102373CDF
:0C375500C2947F02123735D29402373C38
:02338F00AD0788
:10339100E4FCEDA804088002C333D8FC30E704D272
:1033A100948002C2947F0312373CD2930F12373CB0
:1033B100C2930CECB408DB7F0112373CD2947F033B
:1033C10012373CD29312373C309407E49001D1F08C
:0F33D10080069001D17401F0C2937F0302373C54
:10000300E4FDD294FC7F0112373CC2937F04123784
:100013003CD2937F0212373CED25E0FD3094010D75
:100023007F0212373C0CECB408DBC2937F05123716
:030033003CAF05DA
:0100360022A7
:1036AB00EF7004C2948002D2947F0812373CD293FD
:0C36BB007F0F12373CC2937F0802373C9F
:072FB300900140EDF0AC07B6
:102FBA001236E1AF0412338F9001D1E07002802DF6
:102FCA00900140E0FF12338F9001D1E07002801D22
:102FDA00E4900145F0900144E0FFA3E0C39F502232
:102FEA001204D8FF12338F9001D1E07006123755C0
:102FFA007F0022740129F9E43AFA900145E004F0CD
:07300A0080D31237557F014E
:01301100229C
:082B900090013FEFF0A3EDF00E
:102B98001236E190013FE0FF12338F9001D1E070CF
:102BA800028022900140E0FF12338F9001D1E07043
:102BB8000280121236E190013FE004FF12338F9039
:102BC80001D1E07009123755E412051EFF22E49086
:102BD8000145F0900144E014FFA3E0C39F501B128D
:102BE8000003EF12051EE4FF1236AB740129F9E465
:102BF8003AFA900145E004F080D9120003EF12057B
:0B2C08001E7F011236AB1237557F0112
:012C1300229E
:02359700AE077D
:10359900E490013EF09001D0E0FFAD067B017A0195
:1035A900793E9001447401F0122B90EF600690016E
:0635B9003EE0FF227F004E
:0135BF0022E9
:0236F600AE071D
:1036F8009001D0E0FFAD069001AFE0900144F012D8
:023708002B9004
:01370A00229C
:0736700090013EEDF0AE07F2
:103677009001D0E0FFAD067B017A01793E900144CD
:063687007401F0122FB3E4
:01368D00221A
:02370B00AE0707
:10370D009001D0E0FFAD069001B4E0900144F012BD
:02371D002FB3C8
:01371F002287
:100871000D0A4C54393631312072696E6720436854
:100881006970204944203D202578200020257800EA
:100891000D0A4C54393631315F4D4950495F496E2B
:1008A1007075745F44696774613A206C74393631CC
:1008B1003120736574206D697069206C616E657398
:1008C100203D202564000D0A4C54393631315F4DED
:1008D1004950495F496E7075745F44696774613A44
:1008E100206C743936313120736574206D697069FB
:1008F10020706F727473203D2031000D0A4C543901
:100901003631315F4D4950495F496E7075745F44AE
:10091100696774613A206C743936313120736574BA
:10092100206D69706920706F7274203D2032000D56
:100931000A4C54393631312E6D6970695F6D6F64BF
:1009410065203D20637369000D0A4C5439363131FD
:100951002E6D6970695F6D6F6465203D20647369F8
:10096100000D0A4C54393631315F566964656F5F49
:10097100436865636B3A20685F6163745F612C2033
:10098100685F6163745F622C20765F6163742C2001
:10099100765F74616C3A20000D0A4C54393631315E
:1009A1005F566964656F5F436865636B3A206D6983
:1009B10070695F766964656F5F666F726D61743AC5
:1009C100202578000D0A766964656F206368656388
:1009D1006B3A204C54393631312E6D6970695F6D37
:1009E1006F6465203D20637369000D0A7669646553
:1009F1006F20636865636B3A204C54393631312E70
:100A01006D6970695F6D6F6465203D206473690075
:100A11000D0A566964656F5F436865636B203D200D
:100A2100766964656F5F363430783438305F3630DC
:100A3100487A20000D0A566964656F5F43686563F3
:100A41006B203D20766964656F5F373230783438CA
:100A5100305F3630487A20000D0A566964656F5F51
:100A6100436865636B203D20766964656F5F313251
:100A71003830783732305F3630487A20000D0A56E8
:100A81006964656F5F436865636B203D20766964C7
:100A9100656F5F37323078313038305F3630487AC1
:100AA10020000D0A566964656F5F436865636B20BA
:100AB1003D20766964656F5F313932307831303885
:100AC100305F3630487A20000D0A566964656F5FE1
:100AD100436865636B203D20766964656F5F3130E3
:100AE100383078313932305F3630487A20000D0A9B
:100AF100566964656F5F436865636B203D20766965
:100B010064656F5F3338343078323136305F33307B
:100B1100487A20000D0A566964656F5F4368656312
:100B21006B203D20766964656F5F333834307831EE
:100B31003038305F3630487A20000D0A56696465D6
:100B41006F5F436865636B203D20766964656F5F05
:100B510031303234783630305F3630487A20000D0B
:100B61000A566964656F5F436865636B203D207653
:100B71006964656F5F31323830783830305F3630D4
:100B8100487A20000D0A566964656F5F43686563A2
:100B91006B203D20756E6B6E6F776E207669646594
:100BA1006F20666F726D617420000D0A4C543936E6
:100BB10031315F504C4C3A2073657420727820704B
:100BC1006C6C203D20000D0A4C54393631315F5098
:100BD1004C4C3A207063725F6D203D2025782C20AB
:100BE10068646D695F706F73745F646976203D201E
:100BF1002564000D0A4C54393631315F504C4C3A62
:100C01002048444D4920706C6C206C6F636B6564A7
:100C1100000D0A4C54393631315F504C4C3A204862
:100C2100444D4920706C6C20756E6C6F636B65640C
:100C31002C20726573657420706C6C000D0A4C5425
:100C4100393631315F4353433A2059706270722013
:100C510034323220746F20524742383838000D0A3E
:100C6100417564696F20696E7574203D2049325366
:100C710020326368000D0A417564696F20696E75E1
:100C810074203D205350444946000D0A706F727420
:100C91002041206279746520636C6B203D20000D3A
:100CA1000A706F72742041206279746520636C6BE5
:100CB10020756E737461626C65000D0A706F7274D9
:100CC1002042206279746520636C6B203D20000D09
:100CD1000A706F72742042206279746520636C6BB4
:100CE10020756E737461626C65000D0A48746F74CF
:100CF100616C5F537973636C6B203D20000D0A4D6D
:100D01003A2578000D0A706F72742041206C616E73
:100D11006520504E206973207269676874000D0A5E
:100D2100706F72742041206C616E6520504E206599
:100D310072726F7220307838336263203D202578DB
:100D4100000D0A706F72742041206C616E65203055
:100D510020736F7420726967687420000D0A706FC8
:100D610072742041206C616E65203020736F742095
:100D71006572726F72203D202578000D0A706F72C6
:100D8100742041206C616E65203120736F74207274
:100D91006967687420000D0A706F72742041206CBD
:100DA100616E65203120736F74206572726F7220DD
:100DB1003D202578000D0A706F72742041206C610E
:100DC1006E65203220736F74207269676874200029
:100DD1000D0A706F72742041206C616E65203220A3
:100DE100736F74206572726F72203D202578000D3B
:100DF1000A706F72742041206C616E65203320731C
:100E01006F7420726967687420000D0A706F7274C4
:100E11002041206C616E65203320736F74206572F0
:100E2100726F72203D202578000D0A706F72742058
:100E310041206C616E65203020736574746C65208F
:100E41003D202578000D0A706F72742041206C617D
:100E51006E65203120736574746C65203D202578A2
:100E6100000D0A706F72742041206C616E65203232
:100E710020736574746C65203D202578000D0A701F
:100E81006F72742041206C616E652033207365742C
:100E9100746C65203D202578000D0A456E746572DD
:100EA10020495251205461736B3A0048444D492006
:100EB100646973636F6E6E65637465640048444D65
:100EC1004920636F6E6E6563746564006D69706956
:100ED10020766964656F206368616E6765643A2096
:100EE100000D0A73657420706978656C20636C6B02
:100EF100203D20000D0A23232323232323232323FF
:100F010023234C543936313120496E697469616C3F
:100F110020456E64232323232323232323232323F5
:100F2100232323232323000D0A446574656374205E
:100F31006870642048696768000D0A4465746563D8
:0A0F41007420687064204C6F770084
:1024580047007F0100000000000158009E000800AE
:102468006000280280032000210002000A01E00227
:102478000D000061A85800860010003E003C02D004
:10248800035A00090006001E01E0020D00006978E9
:10249800580118006E002800DC05000672000500CF
:1024A80005001402D002EE0001220A5800D0006E86
:1024B800002800DC0500067200050005001402D0A3
:1024C80002EE0001220A5800020058002C0094076E
:1024D80080089800040005002404380465000122DF
:1024E8000A58004B0058002C0094078008980004F4
:1024F80000050024043804650002441458006400F0
:10250800B0005801280F0011300004000500240411
:102518003804650004882858003300B000580128A2
:102528000F0011300008000A0048087008CA0004AB
:10253800882858001B00040005002404380465009E
:1025480058002C0094078008980002441458010091
:1025580000050005001402D002EE006E002800DC21
:10256800050006720001220A5800B8003C003C0031
:10257800640400048200020005000A02580269008F
:102588000084D05800E80028002C00280320039C71
:10259800000A0004000C0500051A00010C8E410019
:0A25A8000100410130004100B700BE
:103012007D807FFF1236707D017FEE123670E4FFF5
:10302200123597900141EFF07BFF7A0879711225F2
:10303200B37F01123597900141EFF07BFF7A087957
:103042008D1225B37F02123597900141EFF07BFF7D
:103052007A08798D1225B37D817FFF1236707D1833
:0C3062007F011236707D807FFF02367007
:10360B007D817FFF1236707D487F021236707D8080
:10361B007F23123670E4FD7F30123670E4FD7F019C
:03362B00023670F4
:102EEF007D827FFF1236707D117F511236707D8289
:102EFF007FFF1236707D697F1B1236707D787F1CC5
:102F0F001236707D697FCB1236707D787FCC12368A
:102F1F00707D807FFF1236707DF07F041236707DDA
:102F2F00F07F061236707D807F0A1236707D467FE5
:102F3F000B1236707DEF7F0D1236707DFA7F110206
:022F4F003670DA
:1030CA007D817FFF1236707D207F061236707D3F2C
:1030DA007F071236707D3F7F081236707DFE7F0AA9
:1030EA001236707DBF7F0B1236707D207F1112362B
:1030FA00707D3F7F121236707D3F7F131236707DCE
:10310A00FE7F151236707DBF7F161236707D037FE3
:0B311A001C1236707D037F200236700F
:102B0A00900080E0900131F07BFF7A087991900182
:102B1A0041F01225B37D827FFF1236707D807F4F90
:102B2A001236707D107F501236707D837FFF123609
:102B3A0070900131E0FDE4FF1236707D047F0212CD
:102B4A0036707D047F06123670E4FD7F0A123670F5
:102B5A007BFF7A0879C71225B3900081E07BFFB426
:102B6A00011C7A0979301225B37D837FFF123670F2
:102B7A007D107F081236707D407F2C0236707A09EC
:052B8A0079491225B39A
:012B8F002223
:1018B200E4900133F07D827FFF1236707F82123511
:1018C2009790013AE4F0A3EFF07F83123597EFFD92
:1018D2007C0090013BE0FEE42DFFEC3E90013AF0EB
:1018E200A3EFF07F6C12359790013CE4F0A3EFF088
:1018F2007F6D123597EFFD7C0090013DE0FEE42DF7
:10190200FFEC3E90013CF0A3EFF07D837FFF1236A7
:10191200707F82123597900136E4F0A3EFF07F8357
:10192200123597EFFD7C00900137E0FEE42DFFECCD
:101932003EFE900136F0A3EFF07D031205429001C6
:1019420036EEF0A3EFF07F86123597900138E4F07F
:10195200A3EFF07F87123597EFFD7C00900139E00D
:10196200FEE42DFFEC3EFE900138F0A3EFF07D0384
:10197200120542900138EEF0A3EFF07F88123597FE
:10198200900133EFF07BFF7A0979621225B390015F
:1019920036E0FEA3E0FFE4FCFD120F4B900138E0BD
:1019A200FEA3E0FFE4FCFD120F4B90013AE0FEA320
:1019B200E0FFE4FCFD120F4B90013CE0FEA3E0FFD0
:1019C200E4FCFD120F4B7BFF7A097999900133E019
:1019D200900141F01225B3209018900138E0FEA347
:1019E200E0FF900137E02FFF900136E03E90013496
:1019F200800B900136E0FFA3E0900134CFF0A3EF1B
:101A0200F0900081E07BFFB4012B7A0979C51225A1
:101A1200B3900134E0C313FEA3E013FF900134EE50
:101A2200F0A3EFF07C007D03120530900134EEF05C
:101A3200A3EFF080077A0979EB1225B39000A4E0B6
:101A4200FEA3E0FF900134E0B50639A3E0B5073408
:101A52009000AEE0FEA3E0FF90013AE0B50625A3B8
:101A6200E0B507207BFF7A0A79111225B3E49000D2
:101A7200B6F090013004F090007CF0A37400F0A363
:101A8200749EF02290008CE0FEA3E0FF900134E00F
:101A9200B5063BA3E0B50736900096E0FEA3E0FF53
:101AA20090013AE0B50627A3E0B507227BFF7A0A48
:101AB20079351225B39000B67401F090007CF0A342
:101AC2007400F0A37486F09001307403F022900148
:101AD2001EE0FEA3E0FF900134E0B5063CA3E0B5B2
:101AE2000737900128E0FEA3E0FF90013AE0B50637
:101AF20028A3E0B507237BFF7A0A79591225B39010
:101B020000B67402F090007C14F0A37401F0A37488
:101B120018F09001307404F022900106E0FEA3E078
:101B2200FF900134E0B50638A3E0B5073390011009
:101B3200E0FEA3E0FF90013AE0B50624A3E0B5077A
:101B42001F7BFF7A0A797E1225B39000B67410F0DB
:101B520090007C7401F0A37401F0A37400021D11C3
:101B6200900051E0FEA3E0FF900134E0B50637A3F8
:101B7200E0B5073290005BE0FEA3E0FF90013AE09F
:101B8200B50623A3E0B5071E7BFF7A0A79A31225C7
:101B9200B39000B67403F090007C7401F0A374005B
:101BA200F0A3744B8044900021E0FEA3E0FF90017B
:101BB20034E0B5063DA3E0B5073890002BE0FEA364
:101BC200E0FF90013AE0B50629A3E0B507247BFFC8
:101BD2007A0A79C91225B39000B6740FF090007C8E
:101BE2007401F0A37400F0A3741BF0900130741020
:101BF200F022900039E0FEA3E0FF900134E0B50648
:101C02003DA3E0B50738900043E0FEA3E0FF90015A
:101C12003AE0B50629A3E0B507247BFF7A0A79EFFB
:101C22001225B39000B6740CF090007C7401F0A3FE
:101C32007400F0A37433F0900130745FF0229000CE
:101C42006AE0FEA3E0FF900134E0B50638A3E0B5F8
:101C52000733900074E0FEA3E0FF90013AE0B5067E
:101C620024A3E0B5071F7BFF7A0B79151225B390E9
:101C720000B6740DF090007C7401F0A37400F0A320
:101C82007464021D119000BEE0FEA3E0FF900134D7
:101C9200E0B50637A3E0B507329000C8E0FEA3E046
:101CA200FF90013AE0B50623A3E0B5071E7BFF7A59
:101CB2000B793B1225B39000B6740EF090007C7441
:101CC20001F0A37400F0A374B880449000EEE0FE2B
:101CD200A3E0FF900134E0B5063CA3E0B5073790DE
:101CE20000F8E0FEA3E0FF90013AE0B50628A3E089
:101CF200B507237BFF7A0B79601225B39000B67487
:101D020011F090007C7401F0A37400F0A374E8F069
:101D1200E4900130F0229000B67412F07BFF7A0B4F
:051D220079851225B3D4
:011D27002299
:101F9700900133EBF0A3EAF0A3E9F07D837FFF1212
:101FA7003670900133E0FBA3E0FAA3E0F99000124A
:101FB700120624E5F0FD7F0D123670900133E0FB29
:101FC700A3E0FAA3E0F9900012120624FD7F0E1297
:101FD7003670900133E0FBA3E0FAA3E0F99000101C
:101FE700120624E5F0FD7F0F123670900133E0FBF7
:101FF700A3E0FAA3E0F9900010120624FD7F101267
:102007003670900133E0FBA3E0FAA3E0F9900008F3
:10201700120624E5F0FD7F11123670900133E0FBC4
:10202700A3E0FAA3E0F9900008120624FD7F12123C
:102037003670900133E0FBA3E0FAA3E0F9900006C5
:10204700120624E5F0FD7F13123670900133E0FB92
:10205700A3E0FAA3E0F9900006120624FD7F14120C
:102067003670900133E0FBA3E0FAA3E0F990000C8F
:10207700120624FD7F15123670900133E0FBA3E0B2
:10208700FAA3E0F9900002120624FD7F16123670BB
:10209700900133E0FBA3E0FAA3E0F990000A1206EF
:1020A70024FD7F17123670900133E0FBA3E0FAA3FB
:1020B700E0F990000E120624FFAEF090000C120615
:1020C700242FFFE5F03EAD077F18123670900133DD
:1020D700E0FBA3E0FAA3E0F91205F9FD7F19123638
:1020E70070900133E0FBA3E0FAA3E0F9900004123B
:1020F7000624FFAEF09000021206242FE5F03EFD05
:102107007F1A123670900133E0FBA3E0FAA3E0F9DF
:10211700900004120624FFAEF09000021206242F4E
:0B212700FFE5F03EAD077F1B023670A5
:1028DD007D837FFF1236707D017F0B1236707D1068
:1028ED007F0C123670E4FD7F481236707D817F4972
:1028FD001236707D4A7F211236707D717F2412361B
:10290D00707D507F251236707D027F2A1236707DC4
:10291D00407F4A1236707D807F1D1236709000B652
:10292D00E024F36007146040240270587D037F0B90
:10293D001236707DD07F0C1236707D037F481236B3
:10294D00707DE07F491236707D727F24123670E4FF
:10295D00FD7F251236707D017F2A1236707D107F26
:10296D004A1236707D1080177D707F241236707D6F
:10297D00807F251236707D107F2A1236707DF07F94
:10298D001D12367090007CE0FBA3E0FAA3E0F91273
:10299D001F977D837FFF12367090001AE0FD7F2612
:1029AD001236707D807FFF1236707D5A7F11123680
:0829BD00707DFA7F11023670F3
:0B1D280090007CE0FBA3E0FAA3E0F9D0
:101D330090001412078A9001331207BA7BFF7A0BC3
:101D430079AB1225B3900133E0FCA3E0FDA3E0FEE1
:101D5300A3E0FF120F4B7D817FFF1236707D407F22
:101D6300231236707D647F241236707D807F2512A6
:101D730036707D557F261236707D377F2C12367074
:101D83007D017F2F1236707D557F261236707D665A
:101D93007F271236707D887F281236707FF07E4948
:101DA3007D027C00900133E0F8A3E0F9A3E0FAA3FD
:101DB300E0FBD3120779400F7D887F2D1236709098
:101DC30001377401F080387F707E117D017C0090B3
:101DD3000133E0F8A3E0F9A3E0FAA3E0FBD3120791
:101DE30079400F7D997F2D1236709001377402F080
:101DF300800D7DAA7F2D1236709001377404F0E4B4
:101E03007F05FEFDFC900133E0F8A3E0F9A3E0FABF
:101E1300A3E0FB12065CA804A905AA06AB07900180
:101E230037E0FFE4FCFDFE12065CE47B787A69F997
:101E3300F81206E790001AEFF07BFF7A0B79C7E000
:101E4300900141F0900137E0900142F01225B37DFB
:101E5300837FFF1236707D407F2D1236707D087FA1
:101E63003112367090001AE04480FD7F26123670DE
:101E7300900133E0FCA3E0FDA3E0FEA3E0FFE47BDD
:101E830002FAF9F81206E79001331207BA7D827F4E
:101E9300FF123670E4FBFA7901F8900133E0FCA3FA
:101EA300E0FDA3E0FEA3E0FF1206E7AD077FE31228
:101EB3003670900133A3A3E0FEA3E0FFE4FDFC90A2
:101EC30001331207BAE4FB7A01F9F8900133E0FC1D
:101ED300A3E0FDA3E0FEA3E0FF1206E7AD077FE466
:101EE300123670900133E0FCA3A3E0FEA3E0FFE40D
:101EF300AD077FE51236707D207FDE1236707DE000
:101F03007FDE1236707D807FFF1236707DF17F1683
:101F13001236707DF37F16123670E4900138F07D2F
:101F2300807FFF1236707DE37F161236707DF37F5C
:101F3300161236707D827FFF1236707F1512359729
:101F4300EF30E7097BFF7A0B79F40225B37D807FBD
:101F5300FF1236707D5A7F111236707DFA7F11128F
:101F630036707DDC7F181236707DFC7F1812367058
:101F73007DF17F161236707DF37F161236707BFF6C
:101F83007A0C79121225B3900138E004F0E0C3947F
:031F930006408C79
:011F96002228
:102E0B007D817FFF1236707D6A7F301236709000A5
:102E1B0084E070047D7380027D447F311236707DB7
:102E2B004A7F321236707D0B7F33123670E4FD7F92
:102E3B0034123670E4FD7F35123670E4FD7F3612A6
:102E4B0036707D447F371236707D0F7F3F123670A0
:102E5B007DA07F401236707DA07F411236707DA021
:102E6B007F421236707DA07F431236707D0A7F44FD
:032E7B00023670AC
:102F51007D817FFF1236707D407F231236707D8226
:102F61007FFF1236707D207FDE1236707DE07FDEBE
:102F71001236707D807FFF1236707DDC7F1812362D
:102F8100707DFC7F181236707DF17F161236707DD0
:102F9100F37F161236707D5A7F111236707DFA7FDB
:102FA100111236707D817FFF1236707DEA7F30020B
:022FB100367078
:01003A0022A3
:1034C2007D847FFF1236709000B7E0C43354E0244D
:1034D20010FF900130E0FEC374569EC39FFD7F43F0
:1034E2001236709000B7E0C43354E02410FD7F44DC
:0D34F200123670900130E0FD7F4702367009
:10365100900081E0B401177D827FFF1236707D18E2
:0F3661007FB91236707BFF7A0C793D1225B322A8
:102C1400900083E0703A7BFF7A0C795F1225B37DD4
:102C2400827FFF1236707D8C7FD61236707D047FD2
:102C3400D71236707D847FFF1236707D087F0612AE
:102C440036707D107F071236707DD47F3412367053
:102C5400900083E06401703A7BFF7A0C7976122548
:102C6400B37D827FFF1236707D8C7FD61236707DE5
:102C7400047FD71236707D847FFF1236707D0C7FFF
:102C8400061236707D107F071236707DD47F3412A1
:032C940036702275
:10347C007D827FFF1236707D0A7F581236707D80F8
:10348C007F591236707DF77F9E1236707DFEE4FFF9
:10349C001236707D3F7F031236707DFF7F0412362B
:1034AC00707DFE7F041236707DFF7F071236707DB3
:0634BC003F7F070236709D
:01376C00223A
:10368E007D827FFF1236707F5E123597EF30E20734
:0D369E009000017401F022E4900001F02280
:10362E007D857FFF1236707D1F7F071236707DFEFF
:10363E007F131236707D0F7F171236707D057F1542
:03364E00023670D1
:103538007D807FFF1236707D7F7F141236707DFF8D
:103548007F141236707D857FFF1236707D017F15DE
:103558001236707D717F151236707D657F150236C3
:0135680070F2
:0E3747007D857FFF1236707D457F150236703E
:102132009001321207C6000000007D827FFF123636
:10214200707D037FC71236707F327E007D007C0077
:102152001232347FCD123597900131EFF054606422
:102162006060030221F9E0540FFFE4FCFDFEFBFA7C
:102172007901F812065C9001321207BA7FCE12354D
:1021820097900131EFF0A3E0F8A3E0F9A3E0FAA3FE
:10219200E0FB900131E07F00FEE4FCFDEF2BFFEA63
:1021A2003EFEED39FDEC38FCA31207BA7FCF1235A3
:1021B20097900131EFF0A3E0F8A3E0F9A3E0FAA3CE
:1021C200E0FB900131E0FFE4FCFDFEEB2FFFEE3A75
:1021D200FEED39FDEC38FCA31207BA7BFF7A0C79CD
:1021E2008B1225B3900132E0FCA3E0FDA3E0FEA335
:1021F200E0FF120F4B80097BFF7A0C79A01225B306
:102202007D827FFF1236707D047FC71236707F3267
:102212007E007D007C001232347FCD123597900112
:1022220031EFF05460646060030222BDE0540FFF9E
:10223200E4FCFDFEFBFA7901F812065C9001321211
:1022420007BA7FCE123597900131EFF0A3E0F8A3E1
:10225200E0F9A3E0FAA3E0FB900131E07F00FEE4A5
:10226200FCFDEF2BFFEA3EFEED39FDEC38FCA3123C
:1022720007BA7FCF123597900131EFF0A3E0F8A3B0
:10228200E0F9A3E0FAA3E0FB900131E0FFE4FCFDFA
:10229200FEEB2FFFEE3AFEED39FDEC38FCA3120700
:1022A200BA7BFF7A0C79BB1225B3900132E0FCA312
:1022B200E0FDA3E0FEA3E0FF020F4B7BFF7A0C7967
:0422C200D01225B35E
:0122C60022F5
:1032E600E4900133F07D827FFF1236707F861235BF
:1032F60097900131E4F0A3EFF07F87123597EFFD49
:103306007C00900132E0FEE42DFFEC3E900131F0AE
:10331600A3EFF07BFF7A0C79EB1225B3900131E035
:10332600FEA3E0FFE4FCFD120F4B900133E004F036
:06333600E0C3940A40AF61
:01333C00226E
:102C9700E4900131F07D837FFF1236707F97123504
:102CA70097900141EFF07BFF7A0C79FE1225B37FF5
:102CB700B4123597900141EFF07BFF7A08798D12B6
:102CC70025B37FB5123597900141EFF07BFF7A0866
:102CD700798D1225B37FB6123597900141EFF07BBE
:102CE700FF7A08798D1225B37FB712359790014186
:102CF700EFF07BFF7A08798D1225B37FE87E037D9D
:102D0700007C00123234900131E004F0E0C39408F3
:022D17004083F7
:012D19002297
:1026E5007D837FFF1236707FBC123597900131EFE5
:1026F500F07BFFBF55067A0D7905800C7A0D791FA1
:10270500900131E0900141F01225B37F9912359780
:10271500900131EFF07BFFBFB8067A0D7942800C4E
:102725007A0D795D900131E0900141F01225B37F7A
:102735009B123597900131EFF07BFFBFB8067A0DFC
:10274500797C800C7A0D7997900131E0900141F008
:102755001225B37F9D123597900131EFF07BFFBFB6
:10276500B8067A0D79B6800C7A0D79D1900131E0F1
:10277500900141F01225B37F9F123597900131EFFB
:10278500F07BFFBFB8067A0D79F0800C7A0E790BD5
:10279500900131E0900141F01225B37F9A123597EF
:1027A500900141EFF07BFF7A0E792A1225B37F9CC9
:1027B500123597900141EFF07BFF7A0E794612258D
:1027C500B37F9E123597900141EFF07BFF7A0E792A
:1027D500621225B37FA0123597900141EFF07BFF80
:0727E5007A0E797E0225B394
:1027EC007BFF7A0E799A1225B37D827FFF123670A9
:1027FC007F0F123597900131EFF07F0C12359790C7
:10280C000132EFF0900131E054C0FFBFC018123616
:10281C008E7D827FFF1236707DFF7F071236707DB2
:10282C003F7F07123670900131E030E7247BFF7A4E
:10283C000E79AC1225B312374712003A7D827FFF16
:10284C001236707DBF7F071236707D3F7F071236C0
:10285C0070900131E030E6247BFF7A0E79BE1225B0
:10286C00B3123538122F517D827FFF1236707D7F67
:10287C007F071236707D3F7F07123670900132E071
:10288C0030E04D7BFF7A0E79CD1225B37D827FFF30
:10289C001236707DFF7F9E1236707DF77F9E12364A
:1028AC00707DFF7F041236707DFE7F041236707FC0
:1028BC00647E007D007C001232341218B29000B697
:1028CC00E0B4120302003A121D281228DD122F5117
:0128DC0022D9
:1022C7009001CDEBF0A3EAF0A3E9F07D827FFF1246
:1022D70036709001CDE0FBA3E0FAA3E0F99000048B
:1022E700120624FFAEF09000021206242FE5F03EFE
:1022F700FD7FA31236709001CDE0FBA3E0FAA3E0C7
:10230700F9900004120624FFAEF090000212062492
:102317002FFFE5F03EAD077FA41236709001CDE0A8
:10232700FBA3E0FAA3E0F990000E120624FFAEF03B
:1023370090000C1206242FFFE5F03EAD077FA51293
:1023470036709001CDE0FBA3E0FAA3E0F990000618
:10235700120624E5F0FD7FA61236709001CDE0FB52
:10236700A3E0FAA3E0F9900006120624FD7FA71266
:1023770036709001CDE0FBA3E0FAA3E0F9900010DE
:10238700120624E5F0FD7FA81236709001CDE0FB20
:10239700A3E0FAA3E0F9900010120624FD7FA9122A
:1023A70036709001CDE0FBA3E0FAA3E0F9900008B6
:1023B700120624E5F0FD7FAA1236709001CDE0FBEE
:1023C700A3E0FAA3E0F9900008120624FD7FAB1200
:1023D70036709001CDE0FBA3E0FAA3E0F99000127C
:1023E700120624E5F0FD7FAC1236709001CDE0FBBC
:1023F700A3E0FAA3E0F9900012120624FD7FAD12C4
:1024070036709001CDE0FBA3E0FAA3E0F99000025B
:10241700120624E5F0FD7FAE1236709001CDE0FB89
:10242700A3E0FAA3E0F9900002120624FD7FAF12A1
:1024370036709001CDE0FBA3E0FAA3E0F990000C21
:09244700120624FD7FB00236707C
:1029C50090001412078A9001B51207BA7BFF7A0EA0
:1029D50079E21225B39001B5E0FCA3E0FDA3E0FE8A
:1029E500A3E0FF120F4B7D837FFF1236707D507F72
:1029F5002D1236707F287E887D047C009001B5E01D
:102A0500F8A3E0F9A3E0FAA3E0FBC3120779700E7F
:102A15007DB67F261236707DF07F271236707F14C3
:102A25007E447D027C009001B5E0F8A3E0F9A3E0C7
:102A3500FAA3E0FBC312077970077DB77F2612362C
:102A4500707F0A7E227D017C009001B5E0F8A3E04D
:102A5500F9A3E0FAA3E0FBC312077970077D9C7F19
:102A6500261236707D807FFF1236707D5A7F1112D7
:092A750036707DFA7F1102367003
:103720007D827FFF1236707D807F4F1236707D2044
:053730007F500236701D
:102D1A0090007C7401F0A37400F0A3744BF012309D
:102D2A0012122EEF123720121D2890007CE0FBA30E
:102D3A00E0FAA3E0F91229C590007CE0FBA3E0FACF
:102D4A00A3E0F91222C71234C2122E0B122F51120B
:102D5A002C977D827FFF1236707D8C7FD61236705B
:102D6A007D067FD71236707D847FFF1236707D0C08
:102D7A007F061236707D107F071236707D017F162E
:0A2D8A001236707DD47F34023670DB
:102E7E00123012122EEF1230CA122B0A7FE87E0386
:102E8E007D007C001232341218B2121D281228DD79
:102E9E00122C1412365112362E1234C2122E0B125E
:102EAE00347C7BFF7A0E79F51225B312368E9000A4
:102EBE0001E07BFF60127A0F79281225B312376C6E
:102ECE00122F51123538800D7A0F793A1225B3121E
:102EDE00374712003A1221321226E51232E6022C40
:012EEE00974C
:03003B000235E7A4
:1035E700C0E0C083C082C0D0E5ECB4080575EC002C
:1035F700C2899001D27401F0539BFDD0D0D082D004
:0436070083D0E0325A
:03000000022A7E53
:0C2A7E00787FE4F6D8FD758121022AC59E
:1031DB009001B91207BA538EF7438901D28CE4FFE1
:1031EB00FEFDFC9001B9E0F8A3E0F9A3E0FAA3E03F
:1031FB00FBC3120779602F758A7E758CFF308DFDAE
:10320B00C28D9001B9E0FCA3E0FDA3E0FEA3E02496
:10321B00FFFFEE34FFFEED34FFFDEC34FFFC9001BD
:09322B00B91207BA80B8C28C2266
:1032340090017B1207BA538EF7438901D28CE4FFC5
:10324400FEFDFC90017BE0F8A3E0F9A3E0FAA3E023
:10325400FBC3120779602F758ACA758CFA308DFD0D
:10326400C28D90017BE0FCA3E0FDA3E0FEA3E0247B
:10327400FFFFEE34FFFEED34FFFDEC34FFFC900164
:093284007B1207BA80B8C28C224B
:10328D009001BD1207BA538EEF438910D28EE4FF21
:10329D00FEFDFC9001BDE0F8A3E0F9A3E0FAA3E088
:1032AD00FBC3120779602F758BEA758DCB308FFDBF
:1032BD00C28F9001BDE0FCA3E0FDA3E0FEA3E024DE
:1032CD00FFFFEE34FFFEED34FFFDEC34FFFC90010B
:0932DD00BD1207BA80B8C28E22AE
:10306E009001C11207BA53C9BF53C9DF43C910D269
:10307E00CAE4FFFEFDFC9001C1E0F8A3E0F9A3E075
:10308E00FAA3E0FBC3120779602F75CC3075CDF82B
:10309E0030CFFDC2CF9001C1E0FCA3E0FDA3E0FE66
:1030AE00A3E024FFFFEE34FFFEED34FFFDEC34FF12
:0C30BE00FC9001C11207BA80B8C2CA22FF
:103125009001C51207BA75C40743C408E4FFFEFD44
:10313500FC9001C5E0F8A3E0F9A3E0FAA3E0FBC326
:10314500120779603275C52C75C6CFE5C430E4FB2E
:1031550053C4EF9001C5E0FCA3E0FDA3E0FEA3E0AE
:1031650024FFFFEE34FFFEED34FFFDEC34FFFC9051
:0B31750001C51207BA80B553C4F72251
:103180009001C91207BA75C40743C408E4FFFEFDE5
:10319000FC9001C9E0F8A3E0F9A3E0FAA3E0FBC3C7
:1031A000120779603275C5D875C6FFE5C430E4FBF7
:1031B00053C4EF9001C9E0FCA3E0FDA3E0FEA3E04F
:1031C00024FFFFEE34FFFEED34FFFDEC34FFFC90F6
:0B31D00001C91207BA80B553C4F722F2
:10142F00E508247EF582E43401F583E00508229077
:10143F00017B30070390017EE475F0011207F7027C
:10144F0004D82000E97F2ED2008018EF540F24908B
:10145F00D43440D4FF30040BEF24BFB41A00500330
:10146F002461FFE50960021509050CE50C70020502
:10147F000B30070E90017BE475F0011207F7EF02B6
:10148F00051E0235C07403D2078003E4C207F508B6
:10149F0090017B12080EE4F509F50BF50CE50960D8
:1014AF00077F2012147280F5750AFFC201C200C2B5
:1014BF0002C203C205C206C20812143EFF700D30ED
:1014CF0007057F00121483AF0CAE0B22B4255FC249
:1014DF00D5C20412143EFF24D0B40A00501A75F07E
:1014EF000A780930D50508B6FF0106C6A426F620EE
:1014FF00D5047002D20380D924CFB41A00EF500460
:10150F00C2E5D204021775D20180C6D20080C0D2C4
:10151F000280BCD2D580BAD20580B47F201214725B
:10152F002002077401B5090040F112142FFF1214A5
:10153F00720214ACD208D206809512142FFB12142B
:10154F002FFA12142FF94A4B700679737A187BFF12
:10155F0020022EE509602A7E008E82758300120418
:10156F00F160060EEE650A70F0C2D5EBC0E0EAC07E
:10157F00E0E9C0E0EE1217D6D0E0F9D0E0FAD0E003
:10158F00FB1204D8FF60AAEBC0E0EAC0E0E9C0E0BC
:10159F00121472D0E02401F9D0E03400FAD0E0FB4D
:1015AF00E50A0460DCD50AD98087D20280A212171F
:1015BF00B860F7E50A70010412003EA90A600DE554
:1015CF000A600914F50A121860EF60F3EA30E702B7
:1015DF00F404C3995079EAF4250A0430E701E404CE
:1015EF00F50A800D1217B860C1EA050A250A120024
:1015FF003EEA9001AAF030E701E4250A04D50A0477
:10160F00200501141217D6E4C0E01218609001AA49
:10161F00E0601320E70714F012145A802204F0D070
:10162F00E014C0E07F0012145AE50A60071214514B
:10163F00150A800B300503121451D0E00214ACD000
:10164F00E00480C41217B8609EE50A0412003E90B1
:10165F0001AAEAF0E50A200502600104240412172A
:01166F00D6A4
:1016700074FF04C0E012186012145AE50A20050233
:101680006003121451D0E0B50AE87F45121464904B
:1016900001AAE07F2B30E7047F2DF404C0E0121490
:1016A00072D0E075F00A84C0F012145BD0E012141E
:1016B0005B0214AC791080027908C206C208800867
:1016C000D2D5790A8004790AC2D5E50A047002F5F8
:1016D0000AE4FAFDFEFF12142FFC7B08200113120E
:1016E000142FFD7B1030000A12142FFE12142FFF4E
:1016F0007B20EC3382D592D55013C3E43000069F93
:10170000FFE49EFEE42001039DFDE49CFCE4CBF895
:10171000C201EC700CCFCECDCCE824F8F870F38089
:1017200017C3EF33FFEE33FEED33FDEC33FCEB3349
:10173000FB994002FB0FD8E9EB300105F8D0E0C47B
:1017400048B201C0E00AEC4D4E4F78207B0070C2D9
:10175000EAB50A0040BCC0E01217D8D0F0D0E020B3
:101760000104C4C0E0C4B201C0F012145BD0F0D5D3
:10177000F0EB0214AC12081715495316B458151A99
:101780004C15164216B84F16C04416C049152F43C3
:1017900016C65515F34616534515BD4718935015F3
:1017A0001E2D15222E15452B152623154320187C9A
:1017B0002A14DE480000153DE50AB4FF03750A0649
:1017C00012142FFC12142FFD12142FFE12142FFFCF
:1017D0009001A302007B790AA2D5200314300509E9
:1017E000B910020404B9080104A2D5200602500170
:1017F000042002689202B509005034C0E07F203016
:1018000003197F30A20272067205500F12182FC200
:1018100002C206C205C2087F30800F300503E9C04E
:10182000E0121472300503D0E0F9D0E0B509CC30F5
:1018300005177F30B9100C1214727F583004077FDF
:10184000788003B908031214723002057F2D021448
:10185000727F202008F87F2B2006F322920280CF8F
:101860007F00B40700500B24A3F582E43401F58314
:10187000E0FF22286E756C6C2900D20112142F3003
:1018800001F8C201780930D50108F60214DE2D50A6
:1018900043495812142F2403B405004001E4901862
:1018A0008E93121463743A121463D20375090402FE
:0218B00016B46C
:10003E00F920E73624F950037907E4F42402FBE5AE
:10004E0082158270021583DBF6E024FB501BE960FB
:10005E0014E4F0E582158270021583E004F0B40A10
:0D006E0008E4F0D9EE7401F00A22C2D52298
:10007B00ED33EC3392D5FA602AB4FF33EDC2E77B54
:10008B00FF60067A0079A0E4227A0079A920D504D2
:10009B007A0079A4224E614E002B494E46002D4921
:1000AB004E4600E47A08F0A3DAFC7B00740722C00A
:1000BB0083C082ECC0E0EDC0E0EEC0E0EFC0E0EA50
:1000CB0075F010A4CAABF075F04DA42BFBE435F022
:1000DB00FCEA2410FAEB34C5FBEC34D9FCEDC2E797
:1000EB00FF75F056A4F42411C5F0F434C58FF0A4B9
:1000FB002AE5F03BE43CF020E71412044ED0E0FF7D
:10010B00D0E0FED0E0FDD0E0FC1203818014F404BB
:10011B0012044ED0E0FFD0E0FED0E0FDD0E0FC12A8
:10012B000278D082D083E0FAEDD2E7CD33EC3324E2
:10013B0082FBE4C3CF33CFCE33CECD33CD33DBF322
:10014B007B0775F00A846004F0A31B0AE5F0F0A3AB
:10015B008FF0740AA4FFACF08EF0740AA42CFEACE2
:10016B00F050010C8DF0740AA42CFDE435F0F0A3D3
:05017B00DBDE74072229
:100180000204C3E86480F8E933E83360110460F0E6
:10019000ED33EC337009E8FCE9FDEAFEEBFF2204E5
:1001A00060DED3EB9FEA9EE99DE8C2E78CF0C2F7E0
:1001B00095F0400CE8CCF8E9CDF9EACEFAEBCFFBAC
:1001C00012048E85D0F05804700320D5B3E8047073
:1001D000075002B2D50204CD92D5EC0460F7E4CC0E
:1001E000C0E0C398F8603B94186008400DD0E0FB75
:1001F0000204A5E4FBFAC9FC8028E830E406E4C95F
:10020000FBE4CAFCE830E305E4C9CACBFCE85407C8
:100210006010F8C3E913F9EA13FAEB13FBEC13FCD3
:10022000D8F130F52FC3E49CFCEF9BFFEE9AFEED76
:1002300099FDD0E0FBEF4E4D4C701222DB0302041F
:10024000CAEC2CFCEF33FFEE33FEED33FDED30E76F
:10025000EB0204A5EF2BFFEE3AFEED39FDD0E0FBFB
:1002600050130BBB00030204CDED13FDEE13FEEFA4
:0802700013FFEC13FC0204A5CE
:10027800EC4D6011E8497017ED33EC3304600DE480
:10028800FCFFFEFD22E933E8330470F80204C312D0
:10029800048E58046009E4CC2481500628500902D1
:1002A80004CD2840030204CAC0E0EB4A7044B98078
:1002B80006D0E0FB0204B9EF4E701CBD8008EBFFCE
:1002C800EAFEE9FD80EBE98DF0A4FEE5F0020361AA
:1002D800E9CDF9EAFEEBFFEF89F0A4FCE5F0CE8961
:1002E800F0A42EFFE435F0CD89F0A42DFEE435F01E
:1002F8008067EF4E7005BD80D780C3EF8BF0A4AC4C
:10030800F0EE8BF0A42CFCE435F0F8EF8AF0A42C86
:10031800E5F038FCE433CB8DF0A42CFCE5F03BF899
:10032800EE8AF0A42CFCE5F038F8E433CF89F0A489
:100338002CFCE5F038CF3400CE89F0A42FFFE5F08F
:100348003EFEE433C98DF0A42EFEE5F039CD8AF0E7
:10035800A42FFFE5F03EFEE43DFD33D0E0FB50075F
:100368000BBB000F0204CDEC2CFCEF33FFEE33FE89
:06037800ED33FD0204A5B7
:10037E000204CDEC5D046005E8590470030204C369
:10038E0012048E580460F6EC4860F2EC7004FDFE28
:10039E00FF22C860DB2481C85009C3986002500652
:1003AE000204CA9850CAF582E9294B4A7005AB82FD
:1003BE000204B975F0007C1A7880C3EF9BEE9AEDBB
:1003CE0099400DC3EF9BFFEE9AFEED99FDE842F0CA
:1003DE00DC23ACF0D0E0FFD0E0FED0E0FDAB82201D
:1003EE00E7101BEB60BAEC2CFCEF33FFEE33FEEDA7
:1003FE0033FD0204A5E803F830E705C0F075F00000
:10040E00EF2FFFEE33FEED33FD40B830E7C280AA8A
:10041E003F8000004120000042C80000447A0000E6
:10042E00461C400047C35000497424004B18968068
:10043E004CBEBC205A0E1BCA6753C21C749DC5AE5F
:10044E00FB60065407601C232312047CEB543860B7
:10045E0009120468120477120278ECF8EDF9EEFA3C
:10046E00EFCB22EB12047780F1543803241C900456
:10047E001EFE93FC0EEE93FD0EEE930ECE93FF2218
:10048E00E9D2E7C933E833F892D5EDD2E7CD33ECB4
:07049E0033FC5002B2D5222D
:1004A500EC30E7100FBF000C0EBE00080DBD0004B8
:1004B5000BEB6014A2D5EB13FCED92E7FD2274FF64
:1004C500FCFDFEFF22E480F8A2D574FF13FC7D80BD
:0304D500E480EFD1
:102A8A00023569E493A3F8E493A34003F68001F2C4
:102A9A0008DFF48029E493A3F85407240CC8C3334D
:102AAA00C4540F4420C8834004F456800146F6DF1C
:102ABA00E4800B0102040810204080902450E47E38
:102ACA00019360BCA3FF543F30E509541FFEE49311
:102ADA00A360010ECF54C025E060A840B8E493A3D8
:102AEA00FAE493A3F8E493A3C8C582C8CAC583CA03
:102AFA00F0A3C8C582C8CAC583CADFE9DEE780BEBB
:0125B2000028
:1004D800BB010689828A83E0225002E722BBFE0222
:0904E800E32289828A83E4932255
:1004F100BB010CE58229F582E5833AF583E02250C0
:1005010006E92582F8E622BBFE06E92582F8E22209
:0D051100E58229F582E5833AF583E4932223
:10051E00BB010689828A83F0225002F722BBFE01BC
:02052E00F322B6
:10053000EF8DF0A4A8F0CF8CF0A428CE8DF0A42EDF
:02054000FE2299
:10054200BC000BBE0029EF8DF084FFADF022E4CC9D
:10055200F875F008EF2FFFEE33FEEC33FCEE9DEC66
:10056200984005FCEE9DFE0FD5F0E9E4CEFD22EDAC
:10057200F8F5F0EE8420D21CFEADF075F008EF2FF6
:10058200FFED33FD4007985006D5F0F222C398FDE7
:050592000FD5F0EA2284
:10059700C2D5EC30E709B2D5E4C39DFDE49CFCEE7F
:1005A70030E715B2D5E4C39FFFE49EFE120542C3B0
:1005B700E49DFDE49CFC800312054230D507C3E4AB
:0605C7009FFFE49EFE22EE
:1005CD00C5F0F8A3E028F0C5F0F8E58215827002B9
:0605DD001583E038F02256
:1005E300A3F8E0C5F025F0F0E582158270021583CB
:0605F300E0C838F0E82228
:1005F900BB010A89828A83E0F5F0A3E022500687CD
:10060900F009E71922BBFE07E3F5F009E31922898E
:0B061900828A83E493F5F074019322C1
:10062400BB0110E58229F582E5833AF583E0F5F014
:10063400A3E0225009E92582F886F008E622BBFEF1
:100644000AE92582F8E2F5F008E222E5832AF58337
:08065400E993F5F0A3E99322FC
:10065C00E88FF0A4CC8BF0A42CFCE98EF0A42CFC3D
:10066C008AF0EDA42CFCEA8EF0A4CDA8F08BF0A4BB
:10067C002DCC3825F0FDE98FF0A42CCD35F0FCEB1A
:10068C008EF0A4FEA9F0EB8FF0A4CFC5F02ECD39DF
:0F069C00FEE43CFCEAA42DCE35F0FDE43CFC224C
:1006AB0075F008758200EF2FFFEE33FECD33CDCC06
:1006BB0033CCC58233C5829BED9AEC99E582984089
:1006CB000CF582EE9BFEED9AFDEC99FC0FD5F0D666
:1006DB00E4CEFBE4CDFAE4CCF9A88222B800C1B990
:1006EB000059BA002DEC8BF084CFCECDFCE5F0CBCE
:1006FB00F97818EF2FFFEE33FEED33FDEC33FCEB07
:10070B0033FB10D703994004EB99FB0FD8E5E4F9C1
:10071B00FA227818EF2FFFEE33FEED33FDEC33FCAE
:10072B00C933C910D7059BE99A4007EC9BFCE99AA2
:10073B00F90FD8E0E4C9FAE4CCFB2275F010EF2FE7
:10074B00FFEE33FEED33FDCC33CCC833C810D707E7
:10075B009BEC9AE899400AED9BFDEC9AFCE899F822
:0E076B000FD5F0DAE4CDFBE4CCFAE4C8F922B5
:10077900EB9FF5F0EA9E42F0E99D42F0E89C45F0D6
:01078900224D
:10078A00BB010DE58229F582E5833AF58302084922
:10079A005007E92582F802083DBBFE07E92582F8E1
:1007AA00020855E58229F582E5833AF58302086154
:0C07BA00ECF0A3EDF0A3EEF0A3EFF022B2
:1007C600A8828583F0D083D0821207DD1207DD125E
:1007D60007DD1207DDE473E493A3C583C5F0C58383
:1007E600C8C582C8F0A3C583C5F0C583C8C582C87D
:0107F60022E0
:1007F700F8E0FBA3A3E0F925F0F0E582158270028B
:070807001583E0FA38F0222E
:09080E00EBF0A3EAF0A3E9F022EB
:10081700D083D082F8E4937012740193700DA3A370
:1008270093F8740193F5828883E473740293686084
:06083700EFA3A3A380DF84
:1035C000EFB40A07740D1235CB740A309811A8991C
:1035D000B8130CC2983098FDA899C298B811F6306B
:0735E00099FDC299F5992243
:0C083D00E6FC08E6FD08E6FE08E6FF22E7
:0C084900E0FCA3E0FDA3E0FEA3E0FF2222
:0C085500E2FC08E2FD08E2FE08E2FF22DF
:10086100E493FC740193FD740293FE740393FF22DD
:00000001FF
