:1038690053B1BF53B2BF53B17F53B27F7598504321
:103879008920438780438E1053C4DFAB07AA06A96A
:1038890005A8047F407E427D0F7C0012200AEF04C8
:09389900F404F58DD28ED29922BF
:083B0700C2998F993099FD224B
:03003700023B0782
:1037EB000D0A2323232323232323232323232323CD
:1037FB002323232323232323232323236D637520B5
:10380B0073746172742323232323232323232323FE
:10381B00232323232323232323232323232323236D
:04382B002323230030
:0439D9004100910018
:1037120043B30153B4FE43B30253B4FD43B3045362
:10372200B4FB43B10853B2F743B11053B2EF53ACF9
:10373200FE43AD0143B30843B40843B31043B4108E
:103742007F007EC27D017C0012386953E9FB43E9A8
:0D3752002043EA0853EBF7439B02D2AF225D
:103A2E00C2B07FC87E007D007C001235BFD2B07F51
:0A3A3E00C87E007D007C000235BF49
:103AC7001237127BFF7A3779EB121B53123A2E12F9
:043AD7002E6880FED7
:0439DD0041008F76A0
:073ADB00123AE2D2937F0AC8
:0A3AE200E4FEEEC39F50030E80F8CF
:013AEC0022B7
:103A5E00D2947F01123ADBC2947F07123AE2C293EC
:053A6E007F01023AE2B5
:0C3AFB00C2947F02123ADBD294023AE23D
:02367100AD07A3
:10367300E4FCEDA804088002C333D8FC30E704D28D
:10368300948002C2947F03123AE2D2930F123AE279
:10369300C2930CECB408DB7F01123AE2D2947F03AD
:1036A300123AE2D293123AE2309407E4900090F097
:0F36B30080069000907401F0C2937F03023AE208
:10000300E4FDD294FC7F01123AE2C2937F04123AD8
:10001300E2D2937F02123AE2ED25E0FD3094010D26
:100023007F02123AE20CECB408DBC2937F05123A6A
:03003300E2AF0534
:0100360022A7
:1039F600EF7004C2948002D2947F08123AE2D29306
:0C3A06007F0F123AE2C2937F08023AE2FE
:07339A00900012EDF0AC07FA
:1033A100123A5EAF04123671900090E07002802DE7
:1033B100900012E0FF123671900090E07002801DC3
:1033C100E4900017F0900016E0FFA3E0C39F5022A5
:1033D100121E4DFF123671900090E07006123AFBFA
:1033E1007F0022740129F9E43AFA900017E004F011
:0733F10080D3123AFB7F01BB
:0133F80022B2
:082EF000900011EFF0A3EDF0DA
:102EF800123A5E900011E0FF123671900090E07077
:102F0800028022900012E0FF123671900090E0706B
:102F1800028012123A5E900011E004FF123671909E
:102F28000090E07009123AFBE4121E93FF22E4902D
:102F38000017F0900016E014FFA3E0C39F501B1287
:102F48000003EF121E93E4FF1239F6740129F9E425
:102F58003AFA900017E004F080D9120003EF121E2D
:0B2F6800937F011239F6123AFB7F0143
:012F7300223B
:0238A200AE076F
:1038A400E4900010F090008FE0FFAD067B017A00F9
:1038B40079109000167401F0122EF0EF600690005B
:0638C40010E0FF227F006E
:0138CA0022DB
:023A7300AE079C
:103A750090008FE0FFAD0690006EE0900016F0120A
:023A85002EF021
:013A8700221C
:07399D00900010EDF0AE07F1
:1039A40090008FE0FFAD067B017A0079109000163D
:0639B4007401F012339AC9
:0139BA0022EA
:023A8800AE0787
:103A8A0090008FE0FFAD06900073E0900016F012F0
:023A9A00339A5D
:013A9C002207
:10003E000A4C54393631312072696E672043686933
:10004E0070204944203D2030782562782C2030786D
:10005E002562782C2030782562782020000D0A1B2E
:10006E005B33356D4C54393631315F4C6F77506F91
:10007E007765725F6D6F64653A20656E7465722088
:10008E006C6F7720706F776572206D6F64651B5B88
:10009E0033376D000D0A1B5B33356D4C54393631D9
:1000AE00315F4C6F77506F7765725F6D6F64653A35
:1000BE002065786974206C6F7720706F7765722079
:1000CE006D6F64651B5B33376D000A4C54393631E6
:1000DE00315F4D4950495F496E7075745F44696771
:1000EE0074616C3A206C743936313120736574202A
:1000FE006D697069206C616E6573203D20256264A8
:10010E00000A4C54393631315F4D4950495F496EC2
:10011E007075745F44696774616C3A206C7439361B
:10012E00313120736574206D69706920706F72743F
:10013E0073203D2031000A4C54393631315F4D4920
:10014E0050495F496E7075745F44696774616C3AAB
:10015E00206C743936313120736574206D69706985
:10016E0020706F7274203D2032000A4C54393631A3
:10017E00315F4D4950495F496E7075745F446967D0
:10018E0074616C3A204C54393631312E6D69706978
:10019E005F6D6F6465203D20637369000A4C5439AE
:1001AE003631315F4D4950495F496E7075745F4409
:1001BE00696774616C3A204C54393631312E6D6951
:1001CE0070695F6D6F6465203D20647369001B5B11
:1001DE0033326D000A4C54393631315F56696465DD
:1001EE006F5F436865636B3A20685F746F74616C10
:1001FE005F737973636C6B203D202564000A4C5449
:10020E00393631315F566964656F5F436865636B7C
:10021E003A206C74393631312E696E7075745F63A5
:10022E006F6C6F725F7370616365203D2059555618
:10023E00343232000A4C54393631315F56696465B6
:10024E006F5F436865636B3A206C74393631312EBB
:10025E00696E7075745F636F6C6F725F73706163DC
:10026E0065203D20524742383838000A4C54393602
:10027E0031315F566964656F5F436865636B3A2021
:10028E00685F6163745F612C20685F6163745F6295
:10029E002C20765F6163742C20765F74616C3A203B
:1002AE0025642C2025642C2025642C2025642C20EC
:1002BE00000A4C54393631315F566964656F5F43BD
:1002CE006865636B3A206D6970695F766964656F06
:1002DE005F666F726D61743A203078256278000D1A
:1002EE000A4C54393631315F566964656F5F436825
:1002FE0065636B3A20566964656F5F466F726D6118
:10030E0074203D0020766964656F5F363430783432
:10031E0038305F3630487A200020766964656F5F2A
:10032E00373230783438305F3630487A20002076D5
:10033E006964656F5F373230783537365F353048F0
:10034E007A200020766964656F5F313238307837F5
:10035E0032305F3630487A200020766964656F5FF0
:10036E0031323830783732305F3530487A200020DD
:10037E00766964656F5F31323830783732305F338B
:10038E0030487A200020766964656F5F31393230EB
:10039E0078313038305F3630487A20002076696404
:1003AE00656F5F3139323078313038305F353048F3
:1003BE007A200020766964656F5F3139323078318A
:1003CE003038305F3330487A200020766964656FAC
:1003DE005F3139323078313038305F3235487A20FB
:1003EE000020766964656F5F31393230783130388C
:1003FE00305F3234487A200020766964656F5F334F
:10040E0038343078323136305F3330487A2000203D
:10041E00766964656F5F3338343078323136305FE9
:10042E003235487A200020766964656F5F33383440
:10043E003078323136305F3234487A200020766997
:10044E0064656F5F383030783630305F3630487ADA
:10045E00200020766964656F5F313032347837362C
:10046E00385F3630487A200020766964656F5F31D8
:10047E00323830783736385F3630487A200020767A
:10048E006964656F5F31323830783830305F3630BE
:10049E00487A200020766964656F5F313238307893
:1004AE003830305F3330487A200020766964656FCB
:1004BE005F31323830783936305F3630487A200046
:1004CE0020766964656F5F31323830783936305F47
:1004DE003330487A200020766964656F5F31323898
:1004EE003078313032345F3630487A2000207669E9
:1004FE0064656F5F3136303078313230305F363090
:10050E00487A200020766964656F5F31363830781E
:10051E00313035305F3630487A2000207669646598
:10052E006F5F31333636783736385F3630487A205B
:10053E000020766964656F5F323536307831343439
:10054E00305F3630487A200020766964656F5F32FE
:10055E0035363078313434305F3530487A200020EB
:10056E00766964656F5F37323078313038305F3698
:10057E0030487A200020766964656F5F31303830FC
:10058E0078313932305F3630487A2000207669640F
:10059E00656F5F3338343078313038305F363048FD
:1005AE007A200020766964656F5F31303234783698
:1005BE0030305F3630487A200020766964656F5F90
:1005CE00353430783936305F3630487A2000207630
:1005DE006964656F5F3235363078313630305F366C
:1005EE0030487A200020766964656F5F3235363088
:1005FE0078313038305F3630487A200020766964A2
:10060E00656F5F32353630783732305F3630487A44
:10061E00200020766964656F5F3732307835303769
:10062E005F3630487A200020756E6B6E6F776E20C5
:10063E00766964656F20666F726D617420001B5B56
:10064E0033376D1B5B33376D000D0A4C5439363121
:10065E00315F4D4950495F5063723A2036343078DD
:10066E003438305F3630487A000D0A4C5439363102
:10067E00315F504C4C3A2073657420727820706C48
:10068E006C203D20256C64000D0A4C5439363131F6
:10069E005F504C4C3A207063725F6D203D20307875
:1006AE002562782C2068646D695F706F73745F6467
:1006BE006976203D20256264000D0A4C543936318E
:1006CE00315F504C4C3A2048444D4920706C6C20A0
:1006DE006C6F636B6564000D0A4C54393631315FB3
:1006EE00504C4C3A2048444D4920706C6C20756E2D
:1006FE006C6F636B65642C20726573657420706C0F
:10070E006C000D0A1B5B33356D4C54393631315F3D
:10071E0048444D495F4F75745F456E61626C651B51
:10072E005B33376D000D0A1B5B33356D4C54393618
:10073E0031315F48444D495F4F75745F4469736151
:10074E00626C651B5B33376D000D0A4C54393631C4
:10075E00315F48444D495F54585F4469676974611D
:10076E006C3A20484D4449206D6F6465203D204809
:10077E00444D49000D0A4C54393631315F48444DD1
:10078E00495F54585F4469676974616C3A20484DFB
:10079E004449206D6F6465203D20445649000D0A82
:1007AE004C54393631315F4353433A20597062709D
:1007BE00722034323220746F20524742383838005B
:1007CE000D0A417564696F20696E7574203D20496C
:1007DE00325320326368000D0A417564696F2069D7
:1007EE006E7574203D205350444946000D0A4C54FA
:1007FE00393631315F484443505F456E61626C65F6
:10080E003A204F6E00203078256278000D0A706F06
:10081E0072742041206279746520636C6B203D20D8
:10082E00256C64000D0A706F727420412062797419
:10083E006520636C6B20756E737461626C65000D60
:10084E000A706F72742042206279746520636C6B3B
:10085E00203D20256C64000D0A706F7274204220BA
:10086E006279746520636C6B20756E737461626C53
:10087E0065000D0A4C54393631315F456E61626C3C
:10088E00655F496E74657272757074733A20687024
:10089E00645F6972715F656E61626C65000D0A4C12
:1008AE0054393631315F456E61626C655F496E74E5
:1008BE00657272757074733A206870645F697271D4
:1008CE005F64697361626C65000D0A4C5439363190
:1008DE00315F456E61626C655F496E7465727275EB
:1008EE007074733A207669645F6368675F697271CA
:1008FE005F656E61626C65000D0A4C54393631319C
:10090E005F456E61626C655F496E7465727275707B
:10091E0074733A207669645F6368675F6972715FAA
:10092E0064697361626C65000D0A4C54393631315D
:10093E005F4844505F496E746572727570745F489B
:10094E00616E646C653A2048444D4920636F6E6E4B
:10095E006563746564000D0A4C54393631315F4855
:10096E0044505F496E746572727570745F48616E43
:10097E00646C653A206E6F206D69706920766964CB
:10098E00656F2C2064697361626C652068646D69A3
:10099E00206F7574707574000D0A4C5439363131F0
:1009AE005F4844505F496E746572727570745F482B
:1009BE00616E646C653A2048444D492064697363E6
:1009CE006F6E6E6563746564000D0A4C5439363172
:1009DE00315F5669645F4368675F496E7465727212
:1009EE007570745F48616E646C653A20000D0A6321
:1009FE0065635F737461747573283078383664324A
:100A0E00293D203078256278000D0A6365632072D7
:100A1E0065633A20000D0A73656E6420646174612B
:100A2E0020646F6E652E20000D0A73657420706948
:100A3E0078656C20636C6B203D20256C64000D0A7C
:100A4E002323232323232323232323234C543936E5
:100A5E00313120496E697469616C20456E642323BF
:100A6E002323232323232323232323232323232348
:100A7E000000100060003002800320000A00020017
:100A8E002101E0020D00000001000061A80010002D
:100A9E003E003C02D0035A00090006001E01E0028F
:100AAE000D0000000300006978000C0040005802A1
:100ABE00D00360000500050027024002710000000F
:100ACE001100006978006E002800DC050006720037
:100ADE00050005001402D002EE01010004000122FF
:100AEE000A01B8002800DC050007BC00050005005F
:100AFE001402D002EE010100130001220A00580078
:100B0E002C00940780089800040005002404380483
:100B1E006501010010000244140210002C0094071D
:100B2E00800A500004000500240438046501010009
:100B3E001F000244140058002C00940780089800EF
:100B4E00040005002404380465010100220001227E
:100B5E000A0210002C009407800A500004000500C1
:100B6E002404380465010100210001220A027E00DE
:100B7E002C009407800ABE000400050024043804EB
:100B8E0065010100200001220A00B0005801280F63
:100B9E000011300008000A0048087008CA01010060
:100BAE005F000488280420005801280F0014A000BC
:100BBE0008000A0048087008CA0101005E00048897
:100BCE002804FC005801280F00157C0008000A00BC
:100BDE0048087008CA0101005D0004882800F8006A
:100BEE002C00940A000AA000040005000B0438042F
:100BFE004C01010000000305700030008000580316
:100C0E0020042000010004001702580274010100A4
:100C1E000000009C400018008800A0040005400061
:100C2E00030006001D03000326000000000000FD67
:100C3E00E80040008000C0050006800003000700A9
:100C4E00140300031E000100000001368C00480052
:100C5E008000C8050006900003000600160320035E
:100C6E003F000100000001462C00600070013805B5
:100C7E0000070800010003002403C003E80101007F
:100C8E00000001A5E00048008000C80500069000A5
:100C9E0003000600160320033F000100000000A31E
:100CAE0016006000700138050007080001000300FF
:100CBE002403C003E8010100000000D2F000300060
:100CCE007000F805000698000100030026040004D9
:100CDE002A010100000001A5E0004000C00130061D
:100CEE0040087000010003002E04B004E201010070
:100CFE0000000278D0006800B00118069008C0000D
:100D0E00030006001E041A04410001000000023B0D
:100D1E004A06E0002800DC05000CE4000500050092
:100D2E001402D002EE010100000001220A003C0074
:100D3E003C00640400048200020005000A0258020E
:100D4E006901010000000084D0000E00380040054B
:100D5E005605DC00010003001C0300032001010006
:100D6E00000001211000B0011001C00A000D80002A
:100D7E00030005002405A005CC010100000003E8D6
:100D8E00FA0030002000500A000AA00003000500FF
:100D9E002105A005C9010100000003AF5C00300071
:100DAE002000500A000AA000030006002506400697
:100DBE006E01010000000418D400B0005801280F85
:100DCE000011300004000500240438046501010000
:100DDE00000004882800DC005001B80A000CE40072
:100DEE00050005001402D002EE01010000000244CD
:100DFE0014000400050024043804650058002C007B
:100E0E0094078008980101000000024414000500B8
:100E1E0005001402D002EE006E002800DC0500066C
:100E2E0072010100000001220A001E000A001E02CB
:100E3E001C0262000A000A000A03C003DE01010060
:100E4E0000000082DC0010003E003C02D0035A007D
:100E5E00090006000301FB020D00000003000069FB
:010E6E00780B
:1039E10049003D01000000000101010041004700C4
:0439F1004100380059
:1036C2007D807FFF12399D7D017FEE12399DE4FFDF
:1036D2001238A2C0077F011238A2C0077F02123837
:1036E200A2900015EFF0900014D0E0F0900013D0FB
:1036F200E0F07BFF7A00793E121B537D817FFF123F
:10370200399D7D187F0112399D7D807FFF02399D91
:103916007D817FFF12399D7D487F0212399D7D8012
:103926007F2312399DE4FD7F3012399DE4FD7F012E
:0339360002399DB6
:1031AE00EF7D817FFF602E12399D7D497F0212399E
:1031BE009D7D807F2312399DE4FD7F3012399D7DE8
:1031CE00807FFF12399D7D0A7F1112399D7BFF7A18
:1031DE0000796B802C12399D7D127F0212399D7DF4
:1031EE00407F2312399D7DEA7F3012399D7D807F8D
:1031FE00FF12399D7DFA7F1112399D7BFF7A00797E
:05320E00A2121B532277
:103277007D827FFF12399D7D117F5112399D7D829D
:103287007FFF12399D7D697F1B12399D7D787F1CD9
:1032970012399D7D697FCB12399D7D787FCC12399C
:1032A7009D7D807FFF12399D7DF07F0412399D7DC2
:1032B700F07F0612399D7D807F0A12399D7D467FFA
:1032C7000B12399D7DEF7F0D12399D7DFA7F11021B
:0232D700399D1F
:103455007D817FFF12399D7D607F0612399D7D3FFD
:103465007F0712399D7D3F7F0812399D7DFE7F0ABA
:1034750012399D7DBF7F0B12399D7D607F111239F9
:103485009D7D3F7F1212399D7D3F7F1312399D7DB2
:10349500FE7F1512399D7DBF7F1612399D7D037FF5
:0B34A5001C12399D7D037F2002399D21
:102CB10090003EE0900000F07BFF7A0079D8900010
:102CC10013F0121B537D827FFF12399D7D807F4F50
:102CD10012399D7D107F5012399D7D837FFF1239FE
:102CE1009D900000E0FDE4FF12399D7D087F0212F6
:102CF100399D7D087F0612399D30900FE4FD7F0AD2
:102D010012399D7BFF7A01790F800D7D037F0A12B5
:102D1100399D7BFF7A017944121B5390003FE07B80
:102D2100FFB4011C7A017978121B537D837FFF1256
:102D3100399D7D107F0812399D7D407F2C02399D80
:072D41007A0179AA121B536D
:012D48002268
:100E6F00E4900003F07D827FFF12399D7F86123858
:100E7F00A290000EE4F0A3EFF07F871238A2EFFDEF
:100E8F007C0090000FE0FEE42DFFEC3E90000EF092
:100E9F00A3EFF07BFF7A0179DC121B537BFF7A0102
:100EAF0079E290000EE0FFA3E0900013CFF0A3EFE4
:100EBF00F0121B537F821238A290000AE4F0A3EFC6
:100ECF00F07F831238A2EFFD7C0090000BE0FEE470
:100EDF002DFFEC3E90000AF0A3EFF07F6C1238A2CA
:100EEF0090000CE4F0A3EFF07F6D1238A2EFFD7CC1
:100EFF000090000DE0FEE42DFFEC3E90000CF0A3FF
:100F0F00EFF07D837FFF12399D7F821238A2900010
:100F1F0006E4F0A3EFF07F831238A2EFFD7C009080
:100F2F000007E0FEE42DFFEC3E900006F0A3EFF08B
:100F3F007F861238A2900008E4F0A3EFF07F8712AB
:100F4F0038A2EFFD7C00900009E0FEE42DFFEC3E9F
:100F5F00900008F0A3EFF0900045E0B4011F7BFF75
:100F6F007A02790B121B53900006E0C313F0A3E033
:100F7F0013F0A3E0C313F0A3E013F0803B90004500
:100F8F00E070357BFF7A027942121B53900006E026
:100F9F00FEA3E0FF7C007D03121EC7900006EEF05B
:100FAF00A3EFF0A3E0FEA3E0FF7C007D03121EC7BA
:100FBF00900008EEF0A3EFF07F881238A2900003A4
:100FCF00EFF07BFF7A027979900006E0FFA3E090C3
:100FDF000013CFF0A3EFF0900008E0FFA3E0900024
:100FEF0015CFF0A3EFF090000AE0FFA3E0900017F9
:100FFF00CFF0A3EFF090000CE0FFA3E0900019CF2B
:10100F00F0A3EFF0121B537BFF7A0279BF9000031E
:10101F00E0900013F0121B53209018900008E0FE90
:10102F00A3E0FF900007E02FFF900006E03E900046
:10103F0004800B900006E0FFA3E0900004CFF0A324
:10104F00EFF07BFF7A0279ED121B53900A85E49340
:10105F00FE740193FF900004E0B5063BA3E0B507D3
:10106F0036900A8FE493FE740193FF90000AE0B567
:10107F000625A3E0B507207BFF7A037912121B53D5
:10108F009000467401F090003A74FFF0A3740AF0D8
:10109F00A3747FF0021ADF900AA1E493FE74019308
:1010AF00FF900004E0B5063BA3E0B50736900AAB0E
:1010BF00E493FE740193FF90000AE0B50625A3E0C8
:1010CF00B507207BFF7A037927121B5390004674D4
:1010DF0002F090003A74FFF0A3740AF0A3749BF02F
:1010EF00021ADF900ABDE493FE740193FF9000048F
:1010FF00E0B5063BA3E0B50736900AC7E493FE744C
:10110F000193FF90000AE0B50625A3E0B507207B09
:10111F00FF7A03793C121B539000467403F0900042
:10112F003A74FFF0A3740AF0A374B7F0021ADF90B9
:10113F000AD9E493FE740193FF900004E06E7003EC
:10114F00A3E06F60030211FF900AE393FE74019313
:10115F00FF90000AE06E7003A3E06F60030211FFBF
:10116F00C390000FE0947690000EE0940250207B25
:10117F00FF7A037951121B539000467404F09000CC
:10118F003A74FFF0A3740AF0A374D3F0021ADFC30A
:10119F0090000FE094EE90000EE0940250207BFF41
:1011AF007A037967121B53900046740BF090003A44
:1011BF0074FFF0A3740AF0A374EFF0021ADFC39068
:1011CF00000FE094CE90000EE094044003021ADF6B
:1011DF007BFF7A03797D121B53900046740CF090BD
:1011EF00003A74FFF0A3740DF0A3741FF0021ADF1E
:1011FF00900B11E493FE740193FF900004E06E7066
:10120F0003A3E06F600302131E900B1B93FE740188
:10121F0093FF90000AE06E7003A3E06F6003021368
:10122F001EC390000FE094AE90000EE0940150208A
:10123F007BFF7A037993121B539000467405F0904D
:10124F00003A74FFF0A3740BF0A3740BF0021ADFD3
:10125F00C390000FE094FE90000EE0940150207BAD
:10126F00FF7A0379AA121B53900046741AF090006C
:10127F003A74FFF0A3740BF0A37427F0021ADFC3C4
:10128F0090000FE0943E90000EE0940350207BFFFF
:10129F007A0379C1121B53900046741BF090003AE9
:1012AF0074FFF0A3740BF0A37443F0021ADFC39022
:1012BF00000FE094D490000EE0940350207BFF7A4F
:1012CF000379D8121B53900046741CF090003A74A7
:1012DF00FFF0A3740BF0A3745FF0021ADFC390004A
:1012EF000FE0940690000EE094044003021ADF7B97
:1012FF00FF7A0379EF121B53900046741DF0900094
:10130F003A74FFF0A3740BF0A3747BF0021ADF9012
:10131F000B9DE493FE740193FF900004E06E700345
:10132F00A3E06F60030213DF900BA793FE7401938A
:10133F00FF90000AE06E7003A3E06F60030213DFFB
:10134F00C390000FE094AE90000EE0940150207B0C
:10135F00FF7A047906121B53900046740DF090002B
:10136F003A74FFF0A3740BF0A37497F0021ADFC363
:10137F0090000FE094EA90000EE0940150207BFF64
:10138F007A04791D121B53900046740EF090003AA8
:10139F0074FFF0A3740BF0A374B3F0021ADFC390C1
:1013AF00000FE0940890000EE094024003021ADF51
:1013BF007BFF7A047934121B53900046740FF09020
:1013CF00003A74FFF0A3740BF0A374CFF0021ADF8E
:1013DF00900C0DE493FE740193FF900004E0B506AA
:1013EF002CA3E0B50727900C17E493FE740193FF2D
:1013FF0090000AE0B50616A3E0B507117BFF7A044B
:10140F00794B121B5390004674200214DF900C2965
:10141F00E493FE740193FF900004E0B5062CA3E063
:10142F00B50727900C33E493FE740193FF90000AE5
:10143F00E0B50616A3E0B507117BFF7A04796012B9
:10144F001B53900046742002152B900C45E493FE1D
:10145F00740193FF900004E0B5063BA3E0B5073697
:10146F00900C4FE493FE740193FF90000AE0B506D1
:10147F0025A3E0B507207BFF7A047976121B5390E2
:10148F000046741FF090003A74FFF0A3740CF0A3A1
:10149F00743FF0021ADF900C0DE493FE740193FF7A
:1014AF00900004E0B5063BA3E0B50736900C17E4B7
:1014BF0093FE740193FF90000AE0B50625A3E0B5F3
:1014CF0007207BFF7A04794B121B53900046741F41
:1014DF00F090003A74FFF0A3740CF0A37407F002BD
:1014EF001ADF900C29E493FE740193FF900004E03F
:1014FF00B5063BA3E0B50736900C33E493FE7401B9
:10150F0093FF90000AE0B50625A3E0B507207BFF07
:10151F007A047960121B53900046741FF090003AC2
:10152F0074FFF0A3740CF0A37423F0021ADF900C75
:10153F0061E493FE740193FF900004E06E7003A3C7
:10154F00E06F7053900C6B93FE740193FF90000A41
:10155F00E06E7003A3E06F703EC390000FE0943015
:10156F0090000EE094027BFF500F7A04798C121BCF
:10157F0053900046741F0219447A0479A2121B5328
:10158F00900046741FF090003A74FFF0A3740CF0B3
:10159F00A37493F0021ADF900C7DE493FE74019311
:1015AF00FF900004E06E7003A3E06F7062900C87F1
:1015BF0093FE740193FF90000AE06E7003A3E06F37
:1015CF00704DC390000FE094CC90000EE094017B1F
:1015DF00FF501E7A0479B8121B53900046741FF007
:1015EF0090003A74FFF0A3740CF0A37477F0021A12
:1015FF00DF7A0479CE121B53900046741FF09000CF
:10160F003A74FFF0A3740CF0A374AFF0021ADF90DA
:10161F000CD1E493FE740193FF900004E0B5063BF8
:10162F00A3E0B50736900CDBE493FE740193FF90B3
:10163F00000AE0B50625A3E0B507207BFF7A047901
:10164F00E4121B53900046741FF090003A74FFF0A1
:10165F00A3740CF0A374CBF0021ADF900CEDE4939B
:10166F00FE740193FF900004E0B5063BA3E0B507BD
:10167F0036900CF7E493FE740193FF90000AE0B5E7
:10168F000625A3E0B507207BFF7A0479FB121B53D5
:10169F00900046741FF090003A74FFF0A3740CF0A2
:1016AF00A374E7F0021ADF900D09E493FE7401931F
:1016BF00FF900004E0B5063BA3E0B50736900D138D
:1016CF00E493FE740193FF90000AE0B50625A3E0B2
:1016DF00B507207BFF7A057912121B5390004674D1
:1016EF001FF090003A74FFF0A3740DF0A37403F091
:1016FF00021ADF900D5DE493FE740193FF900004D6
:10170F00E0B5063BA3E0B50736900D67E493FE7492
:10171F000193FF90000AE0B50625A3E0B507207BF3
:10172F00FF7A057929121B539000467416F090002A
:10173F003A74FFF0A3740DF0A37457F0021ADF9000
:10174F000D95E493FE740193FF900004E06E700317
:10175F00A3E06F7076900D9F93FE740193FF90003E
:10176F000AE06E7003A3E06F7061C390000FE09406
:10177F003690000EE0940150207BFF7A05793F12DE
:10178F001B539000467418F090003A74FFF0A37446
:10179F000DF0A3748FF0021ADFC390000FE0947264
:1017AF0090000EE094014003021ADF7BFF7A057967
:1017BF0056121B53900046741FF090003A74FFF0BE
:1017CF00A3740DF0A37473F0021ADF900E21E4934B
:1017DF00FE740193FF900004E0B5063BA3E0B5074C
:1017EF0036900E2BE493FE740193FF90000AE0B540
:1017FF000625A3E0B507207BFF7A05796D121B53F1
:10180F009000467413F090003A74FFF0A3740EF03A
:10181F00A3741BF0021ADF900E05E493FE7401937C
:10182F00FF900004E0B5063BA3E0B50736900E0F1E
:10183F00E493FE740193FF90000AE0B50625A3E040
:10184F00B507207BFF7A057983121B5390004674EE
:10185F0012F090003A74FFF0A3740DF0A374FFF030
:10186F00021ADF900DCDE493FE740193FF900004F4
:10187F00E0B5063BA3E0B50736900DD7E493FE74B1
:10188F000193FF90000AE0B50625A3E0B507207B82
:10189F00FF7A05799A121B539000467410F090004E
:1018AF003A74FFF0A3740DF0A374C7F0021ADF901F
:1018BF000D41E493FE740193FF900004E0B5063BE5
:1018CF00A3E0B50736900D4BE493FE740193FF90A0
:1018DF00000AE0B50625A3E0B507207BFF7A05795E
:1018EF00B1121B539000467411F090003A74FFF040
:1018FF00A3740DF0A3743BF0021ADF900C61E49314
:10190F00FE740193FF900004E0B5063BA3E0B5071A
:10191F0036900C6BE493FE740193FF90000AE0B5D0
:10192F000625A3E0B507207BFF7A04798C121B53A1
:10193F009000467414F090003A74FFF0A3740CF00A
:10194F00A3745BF0021ADF900E3DE493FE740193D3
:10195F00FF900004E0B5063BA3E0B50736900E47B5
:10196F00E493FE740193FF90000AE0B50625A3E00F
:10197F00B507207BFF7A0579C7121B539000467479
:10198F0015F090003A74FFF0A3740EF0A37437F0C3
:10199F00021ADF900DB1E493FE740193FF900004DF
:1019AF00E0B5063BA3E0B50736900DBBE493FE749C
:1019BF000193FF90000AE0B50625A3E0B507207B51
:1019CF00FF7A0579DC121B539000467417F09000D4
:1019DF003A74FFF0A3740DF0A374ABF0021ADF900A
:1019EF000BF1E493FE740193FF900004E0B5063B06
:1019FF00A3E0B50736900BFBE493FE740193FF90C1
:101A0F00000AE0B50625A3E0B507207BFF7A05792C
:101A1F00F3121B539000467419F090003A74FFF0C4
:101A2F00A3740BF0A374EBF0021ADF900DE9E493AB
:101A3F00FE740193FF900004E0B5063AA3E0B507EA
:101A4F0035900DF3E493FE740193FF90000AE0B517
:101A5F000624A3E0B5071F7BFF7A06790A121B53F2
:101A6F00900046741EF090003A74FFF0A3740DF0CE
:101A7F00A374E3F0805A900E59E493FE740193FF20
:101A8F00900004E0B5063AA3E0B50735900E63E485
:101A9F0093FE740193FF90000AE0B50624A3E0B50E
:101AAF00071F7BFF7A067920121B53900046741F85
:101ABF00F090003A74FFF0A3740EF0A37453F0800B
:101ACF000F9000467420F07BFF7A067935121B5376
:091ADF007BFF7A06794C021B53CF
:1025C300900006EBF0A3EAF0A3E9F07D837FFF120E
:1025D300399D900006E0FBA3E0FAA3E0F990001216
:1025E300121F47E5F0FD7F0D12399D900006E0FBB9
:1025F300A3E0FAA3E0F9900012121F47FD7F0E1229
:10260300399D900006E0FBA3E0FAA3E0F9900010E7
:10261300121F47E5F0FD7F0F12399D900006E0FB86
:10262300A3E0FAA3E0F9900010121F47FD7F1012F8
:10263300399D900006E0FBA3E0FAA3E0F9900008BF
:10264300121F47E5F0FD7F1112399D900006E0FB54
:10265300A3E0FAA3E0F9900008121F47FD7F1212CE
:10266300399D900006E0FBA3E0FAA3E0F990000691
:10267300121F47E5F0FD7F1312399D900006E0FB22
:10268300A3E0FAA3E0F9900006121F47FD7F14129E
:10269300399D900006E0FBA3E0FAA3E0F990000C5B
:1026A300121F47FD7F1512399D900006E0FBA3E042
:1026B300FAA3E0F9900002121F47FD7F1612399D1D
:1026C300900006E0FBA3E0FAA3E0F990000A121FD2
:1026D30047FD7F1712399D900006E0FBA3E0FAA3A4
:1026E300E0F990000E121F47FFAEF090000C121F8E
:1026F300472FFFE5F03EAD077F1812399D90000686
:10270300E0FBA3E0FAA3E0F9121F1CFD7F191239C5
:102713009D900006E0FBA3E0FAA3E0F99000041209
:102723001F47FFAEF0900002121F472FE5F03EFD5A
:10273300121F1CE5F0C4F8540FC868FFEF2DFD7F8E
:102743001A12399D900006E0FBA3E0FAA3E0F9908A
:102753000004121F47FFAEF0900002121F472FFF25
:0A276300E5F03EAD077F1B02399D33
:0B24060090003AE0FBA3E0FAA3E0F92D
:10241100900006121F47FF900004E5F0F0A3EFF0D3
:10242100900014121E6625E0FF900015121E662F03
:10243100900003F0F4F05403F07D837FFF12399D87
:10244100209064900004E0FEA3E07802CEC313CE96
:1024510013D8F9F0EE900004F0A3E02450F09000BE
:1024610004E03400F0E0FEA3E0FFC394E0EE940347
:10247100500280047E037FE0900004EEF0A3EFF0B1
:10248100900004E0FD7F0B12399D900004A3E0FD54
:102491007F0C12399D900004E0FD7F4812399D9018
:1024A1000004A3E0FD80177D017F0B12399D7D1093
:1024B1007F0C12399DE4FD7F4812399D7D817F4952
:1024C10012399D7D4A7F2112399D7D717F241239F8
:1024D1009D7D307F2512399D7D017F2A12399D7D99
:1024E100407F4A12399D900003E04410FD7F1D1288
:1024F100399D900046E024FD700302258F240224BB
:10250100FB501024F5606B24FC606724FA600424FE
:102511000F707B7D837FFF12399D7D027F0B123906
:102521009D7D407F0C12399D7D017F4812399D7D33
:10253100107F4912399D7D707F2412399D7D807FE6
:102541002512399D7D107F2A12399D7D807F2B12A6
:10255100399D7D287F2312399D7D107F4A12399D37
:102561007DF07F1D12399D7BFF7A067957121B532F
:10257100801C7D707F2412399D7D807F2512399DBD
:102581007D107F2A12399D7DF07F1D12399D9000AB
:102591003AE0FBA3E0FAA3E0F91225C37D837FFFB4
:1025A10012399D900039E0FD7F2612399D7D807F93
:1025B100FF12399D7D5A7F1112399D7DFA7F1102DB
:0225C100399D42
:0B21940090003AE0FBA3E0FAA3E0F9A2
:10219F009000181220AD9000031220DD7BFF7A060D
:1021AF007977900003E0FCA3E0FDA3E0FEA3E0FF3E
:1021BF009000131220DD121B537D817FFF12399D7A
:1021CF007D407F2312399D7D627F2412399D7D8052
:1021DF007F2512399D7D557F2612399D7D377F2CA6
:1021EF0012399D7D017F2F12399D7D557F26123922
:1021FF009D7D667F2712399D7D887F2812399D7FAF
:10220F00F07E497D027C00900003E0F8A3E0F9A383
:10221F00E0FAA3E0FBD312209C400F7D887F2D12A4
:10222F00399D9000077401F080387F807E387D01E2
:10223F007C00900003E0F8A3E0F9A3E0FAA3E0FB31
:10224F00D312209C400F7D997F2D12399D9000074E
:10225F007402F0800D7DAA7F2D12399D90000774B6
:10226F0004F0E47F05FEFDFC900003E0F8A3E0F925
:10227F00A3E0FAA3E0FB121F7FA804A905AA06ABEF
:10228F0007900007E0FFE4FCFDFE121F7FE47B7860
:10229F007A69F9F812200A900039EFF07BFF7A067D
:1022AF007996E0900013F0900007E0900014F01280
:1022BF001B537D837FFF12399D7D407F2D12399DEA
:1022CF007D087F3112399D900039E04480FD7F26D3
:1022DF0012399D900003E0FCA3E0FDA3E0FEA3E014
:1022EF00FFE47B02FAF9F812200A9000031220DDB6
:1022FF007D827FFF12399DE4FBFA7901F89000038C
:10230F00E0FCA3E0FDA3E0FEA3E0FF12200AAD076F
:10231F007FE312399D900003A3A3E0FEA3E0FFE447
:10232F00FDFC9000031220DDE4FB7A01F9F8900028
:10233F0003E0FCA3E0FDA3E0FEA3E0FF12200AAD43
:10234F00077FE412399D900003E0FCA3A3E0FEA3F6
:10235F00E0FFE4AD077FE512399D7D207FDE123966
:10236F009D7DE07FDE12399D7D807FFF12399D7D3F
:10237F00F17F1612399D7DF37F1612399DE490007F
:10238F0008F07D807FFF12399D7DE37F1612399D06
:10239F007DF37F1612399D7D827FFF12399D7F1548
:1023AF001238A2EF30E7097BFF7A0679C7021B5379
:1023BF007D807FFF12399D7D5A7F1112399D7DFAE5
:1023CF007F1112399D7DDC7F1812399D7DFC7F189E
:1023DF0012399D7DF17F1612399D7DF37F161239CB
:1023EF009D7BFF7A0679E5121B53900008E004F0FD
:0623FF00E0C39406408CCF
:0124050022B4
:102FF3007D817FFF12399D7D6A7F3012399D90005C
:1030030042E070047D7380027D447F3112399D7DDF
:103013004A7F3212399D7D0B7F3312399DE4FD7F48
:103023003412399DE4FD7F3512399DE4FD7F36125C
:10303300399D7D447F3712399D7D0F7F3F12399D26
:103043007D987F4012399D7D987F4112399D7D98EF
:103053007F4212399D7D987F4312399D7D0A7F44BB
:0330630002399D92
:103143007D817FFF12399D7D407F2312399D7D82D2
:103153007FFF12399D7D207FDE12399D7DE07FDE6A
:1031630012399D7D807FFF12399D7DDC7F181239D6
:103173009D7DFC7F1812399D7DF17F1612399D7D4F
:10318300F37F1612399D7D5A7F1112399D7DFA7F87
:103193001112399D7D817FFF12399D7DEA7F3012A7
:0B31A300399D7BFF7A077910021B5357
:1039BB007D817FFF12399DE4FD7F3012399D7D8023
:0E39CB007F2312399D7BFF7A077933021B534D
:0B2B5A0090003AE0FBA3E0FAA3E0F9D2
:102B6500900016121F47900004F0C394375002805E
:102B750003900004E0FFC374379F900003F07D824B
:102B85007FFF12399D900044E0B4010F7D8E7FD602
:102B950012399D7BFF7A0779578013900044E070C6
:102BA500107D0E7FD612399D7BFF7A077982121B25
:102BB50053900041E070077D047FD712399D900046
:102BC50041E0B401077D807FD712399D7D847FFF69
:102BD50012399D900003E0FD7F4312399D7D287FCA
:102BE5004512399D900004E0FD7F4712399D7D8493
:102BF5007FFF12399D7D027F1012399D7D647F1202
:032C050002399DF4
:10397E00900045E0B401177D827FFF12399D7D18BE
:0F398E007FB912399D7BFF7A0779AC121B532248
:10333A00900041E0702C7BFF7A0779CE121B537DF7
:10334A00847FFF12399D7D087F0612399D7D107F8B
:10335A000712399D7D2B7F0F12399D7DD47F341240
:10336A00399D900041E0640170257BFF7A0779E579
:10337A00121B537D847FFF12399D7D0C7F06123903
:10338A009D7D107F0712399D7DD47F3412399D228D
:01003A0022A3
:103A48007D827FFF12399D7F5E1238A2EF30E2033C
:063A58007F01227F002225
:103939007D857FFF12399D7D1F7F0712399D7DFE91
:103949007F1312399D7D0F7F1712399D7D057F15D4
:0339590002399D93
:10382F007D807FFF12399D7D7F7F1412399D7DFF33
:10383F007F1412399D7D857FFF12399D7D017F1584
:10384F0012399D7D717F1512399D7D657F15123956
:0A385F009D7BFF7A0779FA021B53E4
:0E3AED007D857FFF12399D7D457F1502399D35
:1032D900EF7D807FFF604F12399D7DFF7F0D123991
:1032E9009D7DF97F1512399D7D867FFF12399DE4F9
:1032F900FD7FFA12399D7DA57FFE12399D7D7F7F65
:10330900FC12399DE4FD7FFC12399D7D827FFF12FD
:10331900399D7D7F7F0112399D7DFF7F0512399D82
:103329007D7F7F05800712399D7DF17F1512399DBB
:013339002271
:103A9D007D867FFF12399D7D207FF712399DE4FDD4
:053AAD007FF802399DC5
:0B2D4900900004EBF0A3EAF0A3E9F017
:102D54007D867FFF12399D7FD31238A2900007EF42
:102D6400F0900004E0FBA3E0FAA3E0F9EF121E9355
:102D74009000087401F0900007E0FFA3E0FED39FE9
:102D84005048EE24D3FF1238A2900004E0FBA3E0E5
:102D9400FAA3E0F9900008E0FEF582758300EF12D3
:102DA4001EA5900004E0FBA3E0FAA3E0F98E82756F
:102DB4008300121E66900013F07BFF7A08791312C9
:102DC4001B53900008E004F080ACE4FD7FF5123959
:072DD4009D9000477401F01F
:012DDB0022D5
:0B321300900000EBF0A3EAF0A3E9F04C
:10321E00121E4D900003F07D867FFF12399D9000A7
:10322E0003E0FD7FF412399DE4900004F09000035A
:10323E00E0FFA3E0FED39F5029EE24E4FFEE24012D
:10324E00FDE433FC900000E0FBA3E0FAA3E0F98D6F
:10325E00828C83121E66FD12399D900004E004F0EC
:09326E0080CB7D037FF902399D3C
:10395C009000587405F0A37450F0A37484F0A37411
:10396C0010F0E4A3F0A37405F07B017A00795802FF
:02397C00321304
:10276D009000011220E9000000007BFF7A0179DC66
:10277D00121B537D827FFF12399D7D037FC7123956
:10278D009D7F327E007D007C001235BF7FCD1238DB
:10279D00A2900000EFF054606460600302283DE0F9
:1027AD00540FFFE4FCFDFEFBFA7901F8121F7F9038
:1027BD0000011220DD7FCE1238A2900000EFF0A3B1
:1027CD00E0F8A3E0F9A3E0FAA3E0FB900000E07FBE
:1027DD0000FEE4FCFDEF2BFFEA3EFEED39FDEC388B
:1027ED00FCA31220DD7FCF1238A2900000EFF0A3E2
:1027FD00E0F8A3E0F9A3E0FAA3E0FB900000E0FF0E
:10280D00E4FCFDFEEB2FFFEE3AFEED39FDEC38FC5E
:10281D00A31220DD7BFF7A08791A900001E0FCA35A
:10282D00E0FDA3E0FEA3E0FF9000131220DD800683
:10283D007BFF7A087932121B537D827FFF12399DFF
:10284D007D047FC712399D7F327E007D007C001292
:10285D0035BF7FCD1238A2900000EFF05460646058
:10286D006003022903E0540FFFE4FCFDFEFBFA793F
:10287D0001F8121F7F9000011220DD7FCE1238A2C9
:10288D00900000EFF0A3E0F8A3E0F9A3E0FAA3E0D5
:10289D00FB900000E07F00FEE4FCFDEF2BFFEA3E25
:1028AD00FEED39FDEC38FCA31220DD7FCF1238A2EE
:1028BD00900000EFF0A3E0F8A3E0F9A3E0FAA3E0A5
:1028CD00FB900000E0FFE4FCFDFEEB2FFFEE3AFE77
:1028DD00ED39FDEC38FCA31220DD7BFF7A08794D34
:1028ED00900001E0FCA3E0FDA3E0FEA3E0FF90005B
:1028FD00131220DD80067BFF7A087965121B537B4E
:08290D00FF7A06794C021B530E
:013B0F002293
:013B10002292
:013B11002291
:103A12007D827FFF12399D7D0A7F5812399D7D80FC
:0C3A22007F5912399D7DF77F9E02399D6F
:102C0800900004EDF0900003EFF064017042A3E03F
:102C18007D827FFF602012399D7DFF7F0712399DDD
:102C28007D3F7F0712399D7D3F7F0312399D7BFFD2
:102C38007A087980801712399D7DFF7F0712399DA8
:102C48007DFF7F0312399D7BFF7A0879AB121B53F6
:102C5800900003E064027050A3E07D827FFF602E45
:102C680012399D7DFF7F9E12399D7DF77F9E123917
:102C78009D7DFF7F0412399D7DFE7F0412399D7D65
:102C8800FEE4FF12399D7BFF7A0879D78017123945
:102C98009D7DFF7F0412399D7DFFE4FF12399D7BE6
:092CA800FF7A097906121B532280
:102F7400123A48900038EFF07D827FFF12399D7D30
:102F8400FF7F0712399D7D3F7F0712399D900038DE
:102F9400E060467BFF7A097936121B53E4FF123155
:102FA400AE7D017F02122C087F647E007D007C00D0
:102FB4001235BF12003A120E6F900046E064206092
:102FC4000C122194122406122B5A0231431239BBDB
:102FD4007BFF7A097964021B537BFF7A0979A61275
:0F2FE4001B53E4FD7F02122C087F011231AE2235
:10375F007BFF7A0979D7121B537D827FFF12399D28
:10376F007DFF7F9E12399D7DF77F9E12399D7DFFD4
:10377F007F0412399D7DFE7F0412399D120E6F90CA
:10378F000046E06420600C122194122406122B5A7A
:07379F000231431239BB2285
:103066007D867FFF12399D7FD21238A2900003EF32
:10307600F07BFF7A0979FB900013F0121B53900046
:1030860003E030E1127BFF7A0A7917121B537B01AA
:103096007A007948122D49900003E030E0097BFF61
:1030A6007A0A7923121B537D867FFF12399D7D7F15
:1030B6007FFC12399DE4FD7FFC12399D7D827FFFE6
:1030C60012399D7DFF7F0512399D7D7F7F0502396F
:0130D6009D5C
:1029150090008CEBF0A3EAF0A3E9F07D827FFF1233
:10292500399D90008CE0FBA3E0FAA3E0F990000448
:10293500121F47FFAEF0900002121F472FE5F03E31
:10294500FD7FA312399D90008CE0FBA3E0FAA3E084
:10295500F9900004121F47FFAEF0900002121F47C6
:102965002FFFE5F03EAD077FA412399D90008CE066
:10297500FBA3E0FAA3E0F990000E121F47FFAEF0AB
:1029850090000C121F472FFFE5F03EAD077FA51203
:10299500399D90008CE0FBA3E0FAA3E0F9900006D6
:1029A500121F47E5F0FD7FA612399D90008CE0FBD4
:1029B500A3E0FAA3E0F9900006121F47FD7FA712D6
:1029C500399D90008CE0FBA3E0FAA3E0F99000109C
:1029D500121F47E5F0FD7FA812399D90008CE0FBA2
:1029E500A3E0FAA3E0F9900010121F47FD7FA9129A
:1029F500399D90008CE0FBA3E0FAA3E0F990000874
:102A0500121F47E5F0FD7FAA12399D90008CE0FB6F
:102A1500A3E0FAA3E0F9900008121F47FD7FAB126F
:102A2500399D90008CE0FBA3E0FAA3E0F990001239
:102A3500121F47E5F0FD7FAC12399D90008CE0FB3D
:102A4500A3E0FAA3E0F9900012121F47FD7FAD1233
:102A5500399D90008CE0FBA3E0FAA3E0F990000219
:102A6500121F47E5F0FD7FAE12399D90008CE0FB0B
:102A7500A3E0FAA3E0F9900002121F47FD7FAF1211
:102A8500399D90008CE0FBA3E0FAA3E0F990000CDF
:092A9500121F47FD7FB002399DBC
:102A9E009000181220AD9000741220DD7BFF7A0A90
:102AAE007936900074E0FCA3E0FDA3E0FEA3E0FF06
:102ABE009000131220DD121B537D837FFF12399D70
:102ACE007D507F2D12399D7F287E887D047C00905D
:102ADE000074E0F8A3E0F9A3E0FAA3E0FBC3122030
:102AEE009C700E7DB67F2612399D7DF07F271239A0
:102AFE009D7F147E447D027C00900074E0F8A3E07C
:102B0E00F9A3E0FAA3E0FBC312209C70077DB77F08
:102B1E002612399D7F0A7E227D017C00900074E092
:102B2E00F8A3E0F9A3E0FAA3E0FBC312209C700720
:102B3E007D9C7F2612399D7D807FFF12399D7D5AA7
:0C2B4E007F1112399D7DFA7F1102399D24
:103AB2007D827FFF12399D7D807F4F12399D7D204F
:053AC2007F5002399D58
:1030D70090003A74FFF0A3740BF0A37497F01236C4
:1030E700C2123277123AB212219490003AE0FBA34F
:1030F700E0FAA3E0F9122915122B5A122FF3123115
:1031070043123B107D827FFF12399D7D8C7FD61243
:10311700399D7D067FD712399D7D847FFF12399DAA
:103127007D0C7F0612399D7D107F0712399D7D0129
:0C3137007F1612399D7DD47F3402399D33
:102E68001236C212327712003A123455122CB17F40
:102E7800E87E037D007C001235BF120E6F1221948C
:102E880012240612333A12397E122B5A122FF312D9
:102E98003A12E4FF1232D9123A9D7D017F01122CB9
:102EA80008E4FD7F02122C0812276D123B11123B19
:102EB8000F123B107BFF7A0A794C121B53122F74A6
:102EC800900091E0600B1237A6E4900091F0439BCC
:102ED80002900047E060E990004AE0B485031239A7
:082EE8005CE4900047F080D883
:03003B000238F296
:1038F200C0E0C083C082C0D0E5ECB4080575EC001E
:10390200C2899000917401F0539BFDD0D0D082D037
:0439120083D0E0324C
:1037A6007D827FFF12399D7F0C1238A2900001EFB7
:1037B600F07F0D1238A2900002EFF07F0F1238A2B0
:1037C600900000EFF0900002E030E70312306690C0
:1037D6000000E054C06003122F74900001E030E056
:0437E6000312375F34
:0137EA0022BC
:03000000022DDCF2
:0C2DDC00787FE4F6D8FD758121022E23DB
:103566009000781220DD538EF7438901D28CE4FF58
:10357600FEFDFC900078E0F8A3E0F9A3E0FAA3E0F2
:10358600FBC312209C602F758A7E758CFF308DFDE3
:10359600C28D900078E0FCA3E0FDA3E0FEA3E0244A
:1035A600FFFFEE34FFFEED34FFFDEC34FFFC900030
:0935B600781220DD80B8C28C22DD
:1035BF009000051220DD538EF7438901D28CE4FF72
:1035CF00FEFDFC900005E0F8A3E0F9A3E0FAA3E00C
:1035DF00FBC312209C602F758ACA758CFA308DFD43
:1035EF00C28D900005E0FCA3E0FDA3E0FEA3E02464
:1035FF00FFFFEE34FFFEED34FFFDEC34FFFC9000D7
:09360F00051220DD80B8C28C22F6
:1036180090007C1220DD538EEF438910D28EE4FF98
:10362800FEFDFC90007CE0F8A3E0F9A3E0FAA3E03B
:10363800FBC312209C602F758BEA758DCB308FFDF4
:10364800C28F90007CE0FCA3E0FDA3E0FEA3E02491
:10365800FFFFEE34FFFEED34FFFDEC34FFFC90007D
:093668007C1220DD80B8C28E2224
:1033F9009000801220DD53C9BF53C9DF43C910D2E1
:10340900CAE4FFFEFDFC900080E0F8A3E0F9A3E028
:10341900FAA3E0FBC312209C602F75CC3075CDF860
:1034290030CFFDC2CF900080E0FCA3E0FDA3E0FE19
:10343900A3E024FFFFEE34FFFEED34FFFDEC34FF83
:0C344900FC9000801220DD80B8C2CA2276
:1034B0009000841220DD75C40743C408E4FFFEFDBC
:1034C000FC900084E0F8A3E0F9A3E0FAA3E0FBC3DA
:1034D00012209C603275C52C75C6CFE5C430E4FB64
:1034E00053C4EF900084E0FCA3E0FDA3E0FEA3E062
:1034F00024FFFFEE34FFFEED34FFFDEC34FFFC90C3
:0B35000000841220DD80B553C4F722C8
:10350B009000881220DD75C40743C408E4FFFEFD5C
:10351B00FC900088E0F8A3E0F9A3E0FAA3E0FBC37A
:10352B0012209C603275C5D875C6FFE5C430E4FB2C
:10353B0053C4EF900088E0FCA3E0FDA3E0FEA3E002
:10354B0024FFFFEE34FFFEED34FFFDEC34FFFC9067
:0B355B0000881220DD80B553C4F72269
:102DE800023AC7E493A3F8E493A34003F68001F200
:102DF80008DFF48029E493A3F85407240CC8C333EC
:102E0800C4540F4420C8834004F456800146F6DFBA
:102E1800E4800B01020408102040809039D9E47E38
:102E2800019360BCA3FF543F30E509541FFEE493AF
:102E3800A360010ECF54C025E060A840B8E493A376
:102E4800FAE493A3F8E493A3C8C582C8CAC583CAA1
:102E5800F0A3C8C582C8CAC583CADFE9DEE780BE59
:0139F50000D1
:101E4D00BB010689828A83E0225002E722BBFE0293
:091E5D00E32289828A83E49322C6
:101E6600BB010CE58229F582E5833AF583E0225031
:101E760006E92582F8E622BBFE06E92582F8E2227B
:0D1E8600E58229F582E5833AF583E4932295
:101E9300BB010689828A83F0225002F722BBFE012E
:021EA300F32228
:101EA500F8BB010DE58229F582E5833AF583E8F073
:101EB500225006E92582C8F622BBFE05E92582C81F
:021EC500F22207
:101EC700BC000BBE0029EF8DF084FFADF022E4CCFF
:101ED700F875F008EF2FFFEE33FEEC33FCEE9DECC8
:101EE700984005FCEE9DFE0FD5F0E9E4CEFD22ED0E
:101EF700F8F5F0EE8420D21CFEADF075F008EF2F58
:101F0700FFED33FD4007985006D5F0F222C398FD48
:051F17000FD5F0EA22E5
:101F1C00BB010A89828A83E0F5F0A3E02250068790
:101F2C00F009E71922BBFE07E3F5F009E319228952
:0B1F3C00828A83E493F5F07401932285
:101F4700BB0110E58229F582E5833AF583E0F5F0D8
:101F5700A3E0225009E92582F886F008E622BBFEB5
:101F67000AE92582F8E2F5F008E222E5832AF583FB
:081F7700E993F5F0A3E99322C0
:101F7F00E88FF0A4CC8BF0A42CFCE98EF0A42CFC01
:101F8F008AF0EDA42CFCEA8EF0A4CDA8F08BF0A47F
:101F9F002DCC3825F0FDE98FF0A42CCD35F0FCEBDE
:101FAF008EF0A4FEA9F0EB8FF0A4CFC5F02ECD39A3
:0F1FBF00FEE43CFCEAA42DCE35F0FDE43CFC2210
:101FCE0075F008758200EF2FFFEE33FECD33CDCCCA
:101FDE0033CCC58233C5829BED9AEC99E58298404D
:101FEE000CF582EE9BFEED9AFDEC99FC0FD5F0D62A
:101FFE00E4CEFBE4CDFAE4CCF9A88222B800C1B954
:10200E000059BA002DEC8BF084CFCECDFCE5F0CB91
:10201E00F97818EF2FFFEE33FEED33FDEC33FCEBCA
:10202E0033FB10D703994004EB99FB0FD8E5E4F985
:10203E00FA227818EF2FFFEE33FEED33FDEC33FC72
:10204E00C933C910D7059BE99A4007EC9BFCE99A66
:10205E00F90FD8E0E4C9FAE4CCFB2275F010EF2FAB
:10206E00FFEE33FEED33FDCC33CCC833C810D707AB
:10207E009BEC9AE899400AED9BFDEC9AFCE899F8E6
:0E208E000FD5F0DAE4CDFBE4CCFAE4C8F92279
:10209C00EB9FF5F0EA9E42F0E99D42F0E89C45F09A
:0120AC002211
:1020AD00BB010DE58229F582E5833AF583022126F0
:1020BD005007E92582F802211ABBFE07E92582F8AF
:1020CD00022132E58229F582E5833AF58302213E2C
:0C20DD00ECF0A3EDF0A3EEF0A3EFF02276
:1020E900A8828583F0D083D08212210012210012A8
:1020F9002100122100E473E493A3C583C5F0C583CD
:10210900C8C582C8F0A3C583C5F0C583C8C582C840
:0121190022A3
:101AE800E5082413F582E43400F583E00508229024
:101AF8000010300703900013E475F00112214E0224
:101B08001E4D2000E97F2ED2008018EF540F24903C
:101B1800D43440D4FF30040BEF24BFB41A00500370
:101B28002461FFE50960021509050CE50C70020542
:101B38000B30070E900010E475F00112214EEF02F1
:101B48001E930238CB7403D2078003E4C207F5085A
:101B5800900010122165E4F509F50BF50CE5096014
:101B6800077F20121B2B80F5750AFFC201C200C235
:101B780002C203C205C206C208121AF7FF700D306E
:101B880007057F00121B3CAF0CAE0B22B4255FC2C9
:101B9800D5C204121AF7FF24D0B40A00501A75F0FF
:101BA8000A780930D50508B6FF0106C6A426F6202E
:101BB800D5047002D20380D924CFB41A00EF5004A0
:101BC800C2E5D204021D3DD20180C6D20080C0D237
:101BD8000280BCD2D580BAD20580B47F20121B2BDC
:101BE8002002077401B5090040F1121AE8FF121B20
:101BF8002B021B65D208D2068095121AE8FB121A2E
:101C0800E8FA121AE8F94A4B7006790E7A1E7BFF39
:101C180020022EE509602A7E008E82758300121E3E
:101C28006660060EEE650A70F0C2D5EBC0E0EAC049
:101C3800E0E9C0E0EE121D84D0E0F9D0E0FAD0E08F
:101C4800FB121E4DFF60AAEBC0E0EAC0E0E9C0E06D
:101C5800121B2BD0E02401F9D0E03400FAD0E0FBCD
:101C6800E50A0460DCD50AD980877BFF7A1D798074
:101C7800D202809C791080027908C206C2088008C6
:101C8800D2D5790A8004790AC2D5E50A047002F52A
:101C98000AE4FAFDFEFF121AE8FC7B082001131281
:101CA8001AE8FD7B1030000A121AE8FE121AE8FF43
:101CB8007B20EC3382D592D55013C3E43000069FC5
:101CC800FFE49EFEE42001039DFDE49CFCE4CBF8C8
:101CD800C201EC700CCFCECDCCE824F8F870F380BC
:101CE80017C3EF33FFEE33FEED33FDEC33FCEB337C
:101CF800FB994002FB0FD8E9EB300105F8D0E0C4AE
:101D080048B201C0E00AEC4D4E4F78207B0070C20B
:101D1800EAB50A0040BCC0E0121D86D0F0D0E02031
:101D28000104C4C0E0C4B201C0F0121B14D0F0D545
:101D3800F0EB021B6512216E1C02531C7C581BD34E
:101D48004C1BCF421C804F1C88441C88491BE8430D
:081D58001C8E551C72461C7222
:101D6000451C72471E2E501BD72D1BDB2E1BFE2B36
:101D70001BDF231BFC201E172A1B974800001BF6A5
:101D80003F3F3F00790AA2D5200314300509B9105E
:101D9000020404B9080104A2D5200602500104205F
:101DA00002689202B509005034C0E07F2030031968
:101DB0007F30A20272067205500F121DDDC202C2F0
:101DC00006C205C2087F30800F300503E9C0E0126B
:101DD0001B2B300503D0E0F9D0E0B509CC30051756
:101DE0007F30B9100C121B2B7F583004077F78808E
:101DF00003B90803121B2B3002057F2D021B2B7F1A
:101E0000202008F87F2B2006F322920280CF286E34
:101E1000756C6C2900D201121AE83001F8C2017801
:101E20000930D50108F6021B972D50434958121A64
:101E3000E82403B405004001E4901E2993121B1C02
:0D1E4000743A121B1CD203750904021C7CAD
:0C211A00E6FC08E6FD08E6FE08E6FF22F1
:0C212600E0FCA3E0FDA3E0FEA3E0FF222C
:0C213200E2FC08E2FD08E2FE08E2FF22E9
:10213E00E493FC740193FD740293FE740393FF22E7
:10214E00F8E0FBA3A3E0F925F0F0E582158270021A
:07215E001583E0FA38F022BE
:09216500EBF0A3EAF0A3E9F0227B
:10216E00D083D082F8E4937012740193700DA3A300
:10217E0093F8740193F5828883E473740293686014
:06218E00EFA3A3A380DF14
:1038CB00EFB40A07740D1238D6740A309811A89900
:1038DB00B8130CC2983098FDA899C298B811F6305D
:0738EB0099FDC299F5992235
:00000001FF
