:030000000221706A
:0C217000787FE4F6D8FD7581210221B7CC
:10260C004C543932313143202573202573004665F3
:10261C006220303620323032330031313A30333AA6
:03262C0030360045
:10253D0012259312268B7BFF7A26791A90011A1297
:10254D0008AC7A26792690011D1208AC7A26790CF2
:0D255D007F011220D312250712272B80FBCF
:1023380090020512084F538EF7438901D28CE4FFAF
:10234800FEFDFC900205120843C31207D0602975F0
:102358008A7E758CFF308DFDC28D9002051208377C
:10236800EF24FFFFEE34FFFEED34FFFDEC34FFFCFD
:0B23780090020512084F80C6C28C22A4
:1023830090011612084F538EF7438901D28CE4FF54
:10239300FEFDFC900116120843C31207D060297595
:1023A3008ACA758CFA308DFDC28D900116120837DA
:1023B300EF24FFFFEE34FFFEED34FFFDEC34FFFCB2
:0B23C30090011612084F80C6C28C2249
:101E2A00444542554700494E464F005741524E00DD
:101E3A004552524F520043524954000A5B252D35F0
:101E4A00735D20257300FF1E2AFF1E30FF1E35FF1B
:101E5A001E3AFF1E400000000000000000000000C3
:101E6A000000000000000000000000000000000068
:101E7A000000000000000000000000000000000058
:101E8A000000000000000000000000000000000048
:101E9A000000000000000000000000000000000038
:101EAA000000000000000000000000000000000028
:101EBA000000000000000000000000000000000018
:101ECA000000000000000000000000000000000008
:051EDA00000000000003
:041C430041020F014A
:1024960053B1BF53B2BF53B17F53B27F7598504308
:1024A6008920438780438E1053C4DFAB07AA06A951
:1024B60005A8047F407E427D0F7C00120730EF04A2
:0924C600F404F58DD28ED29922A6
:0627250090020FEFF0220C
:0920D300900116EFF0A31208AC15
:1020DC0078427C017D017BFF7A1E795F7E007F80D8
:1020EC001205E2900116E0FFD394057480948050A1
:1020FC007290020FE0FEEFC39E40687B017A01797B
:10210C001A9001C21208AC90011712088C9001C5EC
:10211C001208AC9001C212088C9001C81208AC7B5A
:10212C00017A0179421223CE7B007A00790090016A
:10213C00C21208AC900116E075F003A42450F5828D
:10214C00E4341EF5831208B59001CE1208AC7B0165
:10215C007A0179429001D11208AC7BFF7A1E794545
:03216C00120EEE62
:01216F00224D
:041C470041020D5AEF
:0726E2001226E9D2937F0AE2
:0A26E900E4FEEEC39F50030E80F8DC
:0126F30022C4
:1026A500D2947F011226E2C2947F071226E9C293D3
:0526B5007F010226E98F
:0C270200C2947F021226E2D2940226E963
:0222DF00AD0749
:1022E100E4FCECC39408748094805023A804ED08A6
:1022F1008002C333D8FC30E704D2948002C2947FB9
:10230100031226E9D2930F1226E9C2930C80D37FE0
:10231100011226E9D2947F031226E9D2931226E90B
:10232100309407E490020EF0800690020E7401F0E2
:07233100C2937F030226E9BD
:10245A00E4FDD294FCECC394087480948050237FEA
:10246A00011226E9C2937F041226E9D2937F02124F
:10247A0026E9ED25E0FD3094010D7F021226E90CD4
:0B248A0080D3C2937F051226E9AF0546
:012495002224
:10266F00EF7004C2948002D2947F081226E9D293AD
:0C267F007F0F1226E9C2937F080226E9B3
:0722800090011CEDF0AC071A
:102287001226A5AF041222DF90020EE07002802D05
:1022970090011CE0FF1222DF90020EE07002801D09
:1022A700E4900121F0900120E0FFA3E0C39F5022BA
:1022B700120608FF1222DF90020EE07006122702B4
:1022C7007F0022740129F9E43AFA900121E004F031
:0722D70080D31227027F01F2
:0122DE0022DD
:0821FC0090011BEFF0A3EDF0D0
:102204001226A590011BE0FF1222DF90020EE0705F
:1022140002802290011CE0FF1222DF90020EE07087
:102224000280121226A590011BE004FF1222DF9007
:10223400020EE07009122702E412064EFF22E49017
:102244000121F0900120E014FFA3E0C39F501B1272
:10225400245AEF12064EE4FF12266F740129F9E4A2
:102264003AFA900121E004F080D912245AEF1206C0
:0B2274004E7F0112266F1227027F012F
:01227F00223C
:02256A00AE07BA
:10256C00E490011AF090020DE0FFAD067B017A01B8
:10257C00791A9001207401F01221FCEF6006900191
:06258C001AE0FF227F00AF
:012592002226
:0226BA00AE0769
:1026BC0090020DE0FFAD069001FFE0900120F002CA
:0226CC0021FCEF
:0726520090011AEDF0AE0744
:1026590090020DE0FFAD067B017A01791A90012005
:062669007401F002228062
:0226CE00AE0755
:1026D00090020DE0FFAD06900204E0900120F002B0
:0226E000228056
:101F8A00E4FF90011612085B000000007D867FFFC7
:101F9A001226527F4312256AE4FCFDFE90011612B6
:101FAA00084F7F4412256AE4FCFDFEC004C005C048
:101FBA0006C00790011612083778081207F4D003F2
:101FCA00D002D001D00012069890011612084F7F55
:101FDA004512256AE4FCFDFEC004C005C006C00720
:101FEA0090011612083778081207F4D003D002D0ED
:101FFA0001D00012069890011612084F900116128D
:10200A000837E412019BA804A905AA06AB077F209A
:10201A007EBC7DBE7C4B1200FEE4FBFAF9783F12CF
:05202A00000A0201D9CB
:051D7000900109EFF0F5
:101D7500A312085B000000007D867FFF12265290AB
:101D85000109E0FD7F901226527F057E007D007CD3
:101D950000122383900109E04480FD7F90122652B2
:101DA5007F9812256A7E00EF540FFFEE3395E0FD14
:101DB500FC90010A12084F7F9912256AE4FCFDFE8A
:101DC500C004C005C006C00790010A12083778088C
:101DD5001207F4D003D002D001D00012069890016A
:101DE5000A12084F7F9A12256AE4FCFDFEC004C062
:101DF50005C006C00790010A12083778081207F4D3
:101E0500D003D002D001D00012069890010A120822
:101E15004F7F9012256AEF547FFD7F9012265290D6
:051E2500010A0208376C
:1025BC004C54393231314320436869702049443AD4
:1025CC0020307825303262782030782530326278AD
:0925DC00203078253032627800CD
:1025930053B3FE43B40153B3FD43B40243B30843FF
:1025A300B40843B31043B41043B30453B4FB7F00E4
:0925B3007EC27D017C0002249629
:10268B00C2917F647E007D007C00122383D2917FF8
:0A269B00647E007D007C00022383B2
:102507007D817FFF122652E4FF12256AC0077F01F3
:1025170012256AC0077F0212256A90011CEFF0900E
:10252700011BD0E0F090011AD0E0F07BFF7A25790B
:06253700BC7F010220D36D
:10090F0070636C6B5F6B687A3A20256C640075635B
:10091F006672616D65726174653A20256264007359
:10092F00796E635F706F6C6172697479203D2030EE
:10093F0078253032627800566964656F2050617493
:10094F007465726E205365742036343078343830C5
:10095F0000566964656F205061747465726E205320
:10096F00657420373230783438305F3630487A004B
:10097F00566964656F205061747465726E2053659B
:10098F00742031323830783732305F3630487A0061
:10099F00566964656F205061747465726E2053657B
:1009AF00742031393230783732305F3630487A0040
:1009BF00566964656F205061747465726E2053655B
:1009CF0074203139323078313038305F3930487AED
:1009DF0000566964656F205061747465726E2053A0
:1009EF006574203139323078313038305F31303002
:1009FF00487A00566964656F205061747465726E31
:100A0F0020536574203139323078313038305F36C9
:100A1F0030487A00566964656F205061747465724E
:100A2F006E20536574203235363078313434305F70
:100A3F003630487A00566964656F2050617474656A
:100A4F00726E20536574203338343078323136303B
:100A5F005F3330487A004E6F20566964656F2053BC
:100A6F006574006866702C2068732C206862702C87
:100A7F0020686163742C2068746F74616C203D2052
:100A8F0025642025642025642025642025640076B4
:100A9F0066702C2076732C207662702C2076616322
:100AAF00742C2076746F74616C203D202564202592
:100ABF00642025642025642025640054544C547808
:100ACF00204F7574707574204D6F64653A20202027
:100ADF00205247423838380054544C5478204F75C0
:100AEF0074707574204D6F64653A20202020524732
:100AFF00423636360054544C5478204F7574707506
:100B0F0074204D6F64653A202020205247423536BD
:100B1F00350054544C5478204F7574707574204DB3
:100B2F006F64653A202020205943424352343434B5
:100B3F000054544C5478204F7574707574204D6F59
:100B4F0064653A2020202059434243523432325FA9
:100B5F00384249540054544C5478204F7574707572
:100B6F0074204D6F64653A20202020594342435230
:100B7F003432325F31304249540054544C5478204F
:100B8F004F7574707574204D6F64653A2020202066
:100B9F0059434243523432325F3132424954005446
:100BAF00544C5478204F7574707574204D6F646574
:100BBF003A2020202059434243523432325F31369B
:100BCF004249540054544C5478204F7574707574C6
:100BDF00204D6F64653A2020202059434243523400
:100BEF0032325F32304249540054544C5478204FC3
:100BFF007574707574204D6F64653A2020202059EC
:100C0F00434243523432325F3234424954005454D7
:100C1F004C5478204F7574707574204D6F64653A1D
:100C2F002020202042543635365F38424954005434
:100C3F00544C5478204F7574707574204D6F6465E3
:100C4F003A2020202042543635365F313042495405
:100C5F000054544C5478204F7574707574204D6F38
:100C6F0064653A2020202042543635365F313242B7
:100C7F0049540054544C5478204F75747075742037
:100C8F004D6F64653A202020204254313132305F5D
:100C9F00384249540054544C5478204F7574707531
:100CAF0074204D6F64653A20202020425431313238
:100CBF00305F31304249540054544C5478204F75B2
:100CCF0074707574204D6F64653A20202020425453
:100CDF00313132305F31324249540054544C5478E0
:100CEF00204F7574707574204D6F64653A20202005
:100CFF00204254415F54313030345F3136424954D1
:100D0F000054544C5478204F7574707574204D6F87
:100D1F0064653A202020204254415F5431303034F2
:100D2F005F32304249540054544C5478204F7574FC
:100D3F00707574204D6F64653A2020202042544115
:100D4F005F54313030345F32344249540054544C84
:100D5F005478204F7574707574204D6F64653A2008
:100D6F002020204254313132305F31364249540015
:100D7F0054544C5478204F7574707574204D6F64B3
:100D8F00653A202020204254313132305F323042D8
:100D9F0049540054544C5478204F75747075742016
:100DAF004D6F64653A202020204254313132305F3C
:100DBF00323442495400436F6C6F7220466F726D2C
:100DCF0061743A20202020524742007069782063D6
:100DDF006C6B203D20256C64206B487A006F757416
:100DEF0020636C6B203D20256C64206B487A004497
:100DFF004C4C207068617365207365743A203078AD
:100E0F002530326278002A2A2A2A2A2A2A2A2A2ACE
:100E1F002A2A2A4C5439323131432054544C5458D5
:100E2F00205061747465726E20436F6E6669672A15
:100E3F002A2A2A2A2A2A2A2A2A2A2A2A002A2A2A2D
:100E4F002A2A2A2A2A2A2A2A2A2A4C543932313182
:100E5F00432054544C545820566964205061747484
:100E6F0065726E204F75742A2A2A2A2A2A2A2A2A5C
:040E7F002A2A2A00F1
:101C4B0059007E00B0005801280F00113000080029
:101C5B000A0048087008CA00048828005500540080
:101C6B0018006000280280032000210002000A01F6
:101C7B00E0020D0F55003F001800600028028003A2
:101C8B002000210002000A01E0020D3C55002A0051
:101C9B0010003E003C02D0035A00090006001E0152
:101CAB00E0020D3C550097006E002800DC05000695
:101CBB007200050005001402D002EE3C5500AC008A
:101CCB00300020005007800820000500050014029A
:101CDB00D002EE3C5500C10058002C009407800840
:101CEB0098000400050024043804651E5500EB0021
:101CFB0058002C0094078008980004000500240469
:101D0B003804653C5500150058002C0094078008DA
:101D1B0098000400050024043804655A5500690036
:101D2B0058002C0094078008980004000500240438
:101D3B00380465645500000030002000500A000A8A
:101D4B00A000030005002105A005C93C5500D600E5
:101D5B00B0005801280F0011300008000A00480895
:041D6B007008CA1E14
:0E26F4007D857FFF1226527D887FE9022652E7
:1017100090001412080790010012084F7BFF7A090D
:10172000790F90010012083790011A12084F7F01BB
:101730001220D37D827FFF1226527D207F26122623
:1017400052E47FF87E2AFDFC900100120843C31288
:1017500007D0501F7D077F2F12265290010474106E
:10176000F07D027F2C122652900100120837E47B94
:10177000048030E47FF07E55FDFC900100120843A8
:10178000C31207D0502C7D077F2F122652900104E0
:101790007410F07D017F2C12265290010012083740
:1017A000E47B02FAF9F81206A590010012084F0234
:1017B0001839E47FE07EABFDFC900100120843C3C2
:1017C0001207D0500F7D077F2F122652900104740C
:1017D00010F080657FC07E577D017C009001001273
:1017E0000843C31207D0500F7D067F2F1226529058
:1017F00001047408F080427F807EAF7D027C0090FF
:101800000100120843C31207D0500F7D057F2F122D
:1018100026529001047404F0801F7F007E5F7D05D6
:101820007C00900100120843C31207D07D047F2F73
:101830001226529001047402F0900104E0FFE4FCCF
:10184000FDFE9001001208431206A5E47B19FAF987
:10185000F812073090010512084FE47BE87A03F98B
:10186000F8900105120837120730AC00AD01AE0246
:10187000AF0390010912084F900105120837E47B6D
:10188000E87A03F9F812073090010512084F900129
:1018900009120837780E1207F490010912084F7DDB
:1018A000D07FFF1226527D7F7F2D122652E4FD7FCE
:1018B00031122652900105120837EF4480FD7F2631
:1018C00012265290010912083778101207E1AD076D
:1018D0007F2712265290010912083778081207E173
:1018E000AD077F28122652900109120837AD077FF5
:1018F000291226527D817FFF1226527DFE7F031220
:1019000026527F0A7E007D007C001223837DFF7FAC
:041910000302265256
:101306007D867FFF1226527D037F3F1226527F6421
:101316007E007D007C00122383121F8A900115EF48
:10132600F07BFF7A09791D90011AF07F011220D314
:101336007D867FFF1226527F4F12256A900114EF99
:10134600F07F5212256A900106E4F0A3EFF07F5376
:1013560012256AEFFD7C00900107E0FEE42DFFEC0C
:101366003E900106F0A3EFF07F5012256A9001042B
:10137600E4F0A3EFF07F5112256AEFFD7C009001A7
:1013860005E0FEE42DFFEC3E900104F0A3EFF07FB4
:101396005712256A90010AE4F0A3EFF07F5B12254D
:1013A6006A900112E4F0A3EFF07F5412256A9001CF
:1013B60008E4F0A3EFF07F5512256AEFFD7C00905C
:1013C6000109E0FEE42DFFEC3E900108F0A3EFF0EA
:1013D6007F5812256A900110E4F0A3EFF07F5912AE
:1013E600256AEFFD7C00900111E0FEE42DFFEC3E46
:1013F600900110F0A3EFF07F6212256A90010EE4CF
:10140600F0A3EFF07F6312256AEFFD7C0090010FD9
:10141600E0FEE42DFFEC3E90010EF0A3EFF07F60BE
:1014260012256A90010CE4F0A3EFF07F6112256AA1
:10143600EFFD7C0090010DE0FEE42DFFEC3E9001F7
:101446000CF0A3EFF07F5E12256A900102E4F0A390
:10145600EFF07F5F12256AEFFD7C00900103E0FE4E
:10146600E42DFFEC3E900102F0A3EFF07F5C122525
:101476006A900100E4F0A3EFF07F5D12256AEFFDAC
:101486007C00900101E0FEE42DFFEC3E900100F0AF
:10149600A3EFF07BFF7A09792E900114E090011AF0
:1014A600F07F011220D3900045E0FEA3E0FF9001FB
:1014B60000E0B50622A3E0B5071D90004FE0FEA3AD
:1014C600E0FF900102E0B5060EA3E0B507097BFF39
:1014D6007A09794602165F900030E0FEA3E0FF909D
:1014E6000100E0B50622A3E0B5071D90003AE0FE34
:1014F600A3E0FF900102E0B5060EA3E0B507097B65
:10150600FF7A09796002165F90009DE0FEA3E0FF76
:10151600900100E0B50622A3E0B5071D9000A7E004
:10152600FEA3E0FF900102E0B5060EA3E0B50709B1
:101536007BFF7A09797F02165F9000B2E0FEA3E096
:10154600FF900100E0B50622A3E0B5071D9000BCA0
:10155600E0FEA3E0FF900102E0B5060EA3E0B507AA
:10156600097BFF7A09799F02165F9000F1E0FEA3DE
:10157600E0FF900100E06E7003A3E06F70759000CD
:10158600FBE0FEA3E0FF900102E06E7003A3E06FB4
:101596007061900029E0FF24FDFE900115E0FDD367
:1015A6009E401CEF2403FFE433FEC3ED9FEE6480F0
:1015B600F874809850097BFF7A0979BF02165F900C
:1015C600007DE0FF24FDFE900115E0FDD39E401B4B
:1015D600EF2403FFE433FEC3ED9FEE6480F87480CE
:1015E6009850087BFF7A0979E0806E7BFF7A0A794A
:1015F600028066900006E0FEA3E0FF900100E0B5E1
:101606000621A3E0B5071C900010E0FEA3E0FF90C2
:101616000102E0B5060DA3E0B507087BFF7A0A795B
:101626002380369000DCE0FEA3E0FF900100E0B5E9
:101636000621A3E0B5071C9000E6E0FEA3E0FF90BC
:101646000102E0B5060DA3E0B507087BFF7A0A792B
:101656004480067BFF7A0A79657F011220D37BFFDF
:101666007A0A7972900110E0FFA3E090011ACFF098
:10167600A3EFF0900104E0FFA3E090011CCFF0A3DC
:10168600EFF0900108E0FFA3E090011ECFF0A3EF7A
:10169600F0900100E0FFA3E0900120CFF0A3EFF06F
:1016A60090010CE0FFA3E0900122CFF0A3EFF07FC2
:1016B600011220D37BFF7A0A799E900112E0FFA3E4
:1016C600E090011ACFF0A3EFF0900106E0FFA3E04F
:1016D60090011CCFF0A3EFF090010AE0FFA3E09089
:1016E600011ECFF0A3EFF0900102E0FFA3E090010E
:1016F60020CFF0A3EFF090010EE0FFA3E0900122CF
:0A170600CFF0A3EFF07F010220D323
:101ACC009001001208AC7D817FFF1226527D017FB0
:101ADC00801226527D107F811226527D857FFF1247
:101AEC0026527D437F301226527D867FFF1226526E
:101AFC007D117F251226527D047F261226527D777A
:101B0C007F111226527DFF7F121226529001001275
:101B1C00088C900004120660FFAEF09000021206D2
:101B2C00602FE5F03EFD7F13122652900100120843
:101B3C008C900004120660FFAEF09000021206605A
:101B4C002FFFAD077F1412265290010012088C90C3
:101B5C00000E120660FFAEF090000C1206602FFF14
:101B6C00AD077F1612265290010012088C900006C9
:101B7C00120660E5F0FD7F17122652900100120844
:101B8C008C900006120660FD7F1812265290010000
:101B9C0012088C900010120660E5F0FD7F191226D9
:101BAC005290010012088C900010120660FD7F1AF2
:101BBC0012265290010012088C900008120660E563
:101BCC00F0FD7F1B12265290010012088C90000829
:101BDC00120660FD7F1C12265290010012088C9098
:101BEC000012120660E5F0FD7F1D122652900100D6
:101BFC0012088C900012120660FD7F1E1226529065
:101C0C00010012088C900002120660E5F0FD7F1FA7
:101C1C0012265290010012088C900002120660FDF0
:101C2C007F2012265290010012088C90000C120694
:071C3C0060FD7F210226522A
:01272E002288
:01272F002287
:012730002286
:012731002285
:0C270E0012272E12272F1227300227312D
:10262F007D827FFF1226527DFF7F641226527D80AE
:10263F007F651226527D177F631226527D377F6387
:03264F000226520E
:1024CF007D867FFF122652E4FD7FA5122652E4FD82
:1024DF007FA8122652E4FD7FA91226527D3F7FAFBF
:1024EF001226527D817FFF1226527D7D7F0D12268F
:0824FF00527D7F7F0D02265281
:101914007D867FFF122652E46003021ACB1208C1AF
:10192400196A00197A0119910219A80319B804193E
:10193400C10519CA0619D30719E30819FA091A11B6
:101944000A1A210B1A310C1A410D1A500E1A5F0F84
:101954001A6E101A7D111A8C121A9B131AAA141AD1
:10196400B91500001ACB7D707FA81226527BFF7A2E
:101974000A79CA021AC6E4FD7FA7122652E4FD7F43
:10198400A81226527BFF7A0A79E7021AC67D077FDE
:10199400A71226527D707FA81226527BFF7A0B79FC
:1019A40004021AC6E4FD7FA81226527BFF7A0B7943
:1019B40021021AC67BFF7A0B7940021AC67BFF7A92
:1019C4000B7964021AC67BFF7A0B7989021AC6E482
:1019D400FD7FA81226527BFF7A0B79AE021AC67DD0
:1019E400027FA71226527D407FA81226527BFF7ADF
:1019F4000B79D3021AC67D017FA71226527D407F40
:101A0400A81226527BFF7A0B79F8021AC67D097F49
:101A1400A91226527BFF7A0C791D021AC67D087F13
:101A2400A91226527BFF7A0C793E021AC67D017FE9
:101A3400A91226527BFF7A0C7960021AC67D097FAF
:101A4400A91226527BFF7A0C798280767D087FA9C1
:101A54001226527BFF7A0C79A480677D017FA9123C
:101A640026527BFF7A0C79C780587D067FA91226FF
:101A7400527BFF7A0C79EA8049E4FD7FA912265251
:101A84007BFF7A0D7910803AE4FD7FA91226527B00
:101A9400FF7A0D7936802B7D067FA91226527BFFB3
:101AA4007A0D795C801CE4FD7FA91226527BFF7AB3
:101AB4000D797F800DE4FD7FA91226527BFF7A0DFC
:081AC40079A27F011220D32258
:10202F0090008CE0FEA3E0FF90008BE02FFF90006C
:10203F008AE03E900209F0A3EFF0900082E0FEA349
:10204F00E0FF900081E02FFF900080E03E90020BB8
:10205F00F0A3EFF07D867FFF122652900086E0FD01
:10206F007FB6122652900086A3E0FD7FB71226524C
:10207F00900084E0FD7FB8122652900084A3E0FD0B
:10208F007FB912265290020BE0FD7FBA12265290B2
:10209F00020BA3E0FD7FBB12265290008EE0FD7F66
:1020AF00BC12265290008EA3E0FD7FBD12265290E7
:1020BF000209E0FD7FBE122652900209A3E0FD7FC8
:0420CF00BF022652D4
:0B271A007BFF7A0D79C57F010220D300
:101EDF007F10121D7090010012084F900100120820
:101EEF003790010412084FE4900108F07D827FFFC4
:101EFF001226527F6512256A900108E0FEC454F045
:101F0F004FFD7F651226527FA07E867D017C00905B
:101F1F000100120843D31207D0500A7F2B12256AF3
:101F2F00EF4408800F7D827FFF1226527F2B1225F0
:101F3F006AEF54F7FD7F2B1226527BFF7A0D79DA69
:101F4F0090010012083790011A12084F7F011220DA
:101F5F00D37BFF7A0D79EC90010412083790011AA8
:101F6F0012084F7F011220D37BFF7A0D79FE90016B
:0B1F7F0008E090011AF07F010220D35F
:102418007BFF7A0E79157F011220D31226F47B01F7
:102428007A00797E121ACC7B017A00797E12171015
:1024380012270E12262F1224CF12191412271A123D
:102448001EDF1213067BFF7A0E794C7F011220D310
:0224580080FE04
:03272B000224186D
:10000300020245E86480F8E933E83360110460F0E4
:10001300ED33EC337009E8FCE9FDEAFEEBFF220463
:1000230060DED3EB9FEA9EE99DE8C2E78CF0C2F75E
:1000330095F0400CE8CCF8E9CDF9EACEFAEBCFFB2A
:1000430012021085D0F05804700320D5B3E8047071
:10005300075002B2D502024F92D5EC0460F7E4CC0C
:10006300C0E0C398F8603B94186008400DD0E0FBF3
:10007300020227E4FBFAC9FC8028E830E406E4C95D
:10008300FBE4CAFCE830E305E4C9CACBFCE8540747
:100093006010F8C3E913F9EA13FAEB13FBEC13FC52
:1000A300D8F130F52FC3E49CFCEF9BFFEE9AFEEDF5
:1000B30099FDD0E0FBEF4E4D4C701222DB030202A0
:1000C3004CEC2CFCEF33FFEE33FEED33FDED30E76C
:1000D300EB020227EF2BFFEE3AFEED39FDD0E0FBFA
:1000E30050130BBB000302024FED13FDEE13FEEFA3
:0800F30013FFEC13FC020227CD
:1000FB0002024FEC5D046005E859047003020245EF
:10010B00120210580460F6EC4860F2EC7004FDFE2D
:10011B00FF22C860DB2481C85009C39860025006D7
:10012B0002024C9850CAF582E9294B4A7005AB8202
:10013B0002023B75F0007C1A7880C3EF9BEE9AEDC0
:10014B0099400DC3EF9BFFEE9AFEED99FDE842F04F
:10015B00DC23ACF0D0E0FFD0E0FED0E0FDAB8220A2
:10016B00E7101BEB60BAEC2CFCEF33FFEE33FEED2C
:10017B0033FD020227E803F830E705C0F075F00005
:10018B00EF2FFFEE33FEED33FD40B830E7C280AA10
:10019B0075F020800E75F010800575F0087D007EDF
:1001AB00007F003392D530D5031207C2EC334010D9
:1001BB00EF33FFEE33FEED33FDEC33FCD5F0ED22E8
:0E01CB00E5F0247EA2D513CC92E7CDCEFF2224
:1001D900EDD2E7CD33EC3392D524814006E4FFFE1E
:1001E900FDFC22FCE4CFCECDCC24E0501174FF807D
:1001F900EDC3CC13CCCD13CDCE13CECF13CF04701A
:07020900F030D5DE0207C250
:100E8300E50824CEF582E43401F583E005082290D9
:100E930001CB3007039001CEE475F00112089502EF
:100EA30006082000E97F2ED2008018EF540F24900B
:100EB300D43440D4FF30040BEF24BFB41A005003E2
:100EC3002461FFE50960021509050CE50C700205B4
:100ED3000B30070E9001CBE475F001120895EF0279
:100EE300064E0225E57403D2078003E4C207F50822
:100EF3009001CB1208ACE4F509F50BF50CE509609C
:100F0300077F20120EC680F5750AFFC201C200C218
:100F130002C203C205C206C208120E92FF700D3050
:100F230007057F00120ED7AF0CAE0B22B4255FC2AC
:100F3300D5C204120E92FF24D0B40A00501A75F0E1
:100F43000A780930D50508B6FF0106C6A426F6209F
:100F5300D5047002D20380D924CFB41A00EF500411
:100F6300C2E5D2040211C9D20180C6D20080C0D228
:100F73000280BCD2D580BAD20580B47F20120EC6BF
:100F83002002077401B5090040F1120E83FF120E0F
:100F9300C6020F00D208D2068095120E83FB120EF2
:100FA30083FA120E83F94A4B700679C77A127BFFD4
:100FB30020022EE509602A7E008E827583001206C8
:100FC3002160060EEE650A70F0C2D5EBC0E0EAC000
:100FD300E0E9C0E0EE12122AD0E0F9D0E0FAD0E066
:100FE300FB120608FF60AAEBC0E0EAC0E0E9C0E03C
:100FF300120EC6D0E02401F9D0E03400FAD0E0FBB1
:10100300E50A0460DCD50AD98087D20280A21212D5
:101013000C60F7E50A70010412025AA90A600DE593
:101023000A600914F50A1212B4EF60F3EA30E7021A
:10103300F404C3995079EAF4250A0430E701E4047F
:10104300F50A800D12120C60C1EA050A250A120284
:101053005AEA9001FAF030E701E4250A04D50A04BC
:101063002005011412122AE4C0E01212B49001FA0E
:10107300E0601320E70714F0120EAE802204F0D0D4
:10108300E014C0E07F00120EAEE50A6007120EA561
:10109300150A800B300503120EA5D0E0020F00D015
:1010A300E00480C412120C609EE50A0412025A90F6
:1010B30001FAEAF0E50A2005026001042404121291
:0110C3002A02
:1010C40074FF04C0E01212B4120EAEE50A20050249
:1010D4006003120EA5D0E0B50AE87F45120EB89061
:1010E40001FAE07F2B30E7047F2DF404C0E0120EF8
:1010F400C6D0E075F00A84C0F0120EAFD0E0120E34
:10110400AF020F00791080027908C206C208800875
:10111400D2D5790A8004790AC2D5E50A047002F5A9
:101124000AE4FAFDFEFF120E83FC7B082001131271
:101134000E83FD7B1030000A120E83FE120E83FF15
:101144007B20EC3382D592D55013C3E43000069F44
:10115400FFE49EFEE42001039DFDE49CFCE4CBF847
:10116400C201EC700CCFCECDCCE824F8F870F3803B
:1011740017C3EF33FFEE33FEED33FDEC33FCEB33FB
:10118400FB994002FB0FD8E9EB300105F8D0E0C42D
:1011940048B201C0E00AEC4D4E4F78207B0070C28B
:1011A400EAB50A0040BCC0E012122CD0F0D0E02016
:1011B4000104C4C0E0C4B201C0F0120EAFD0F0D537
:1011C400F0EB020F001208C10F9D531108580F6E67
:1011D4004C0F6A42110C4F1114441114490F8343EC
:1011E400111A5510474610A74510114712E7500F22
:1011F400722D0F762E0F992B0F7A230F972012D072
:101204002A0F324800000F91E50AB4FF03750A065D
:10121400120E83FC120E83FD120E83FE120E83FF48
:101224009001F3020297790AA2D52003143005092C
:10123400B910020404B9080104A2D5200602500121
:10124400042002689202B509005034C0E07F2030C7
:1012540003197F30A20272067205500F121283C264
:1012640002C206C205C2087F30800F300503E9C000
:10127400E0120EC6300503D0E0F9D0E0B509CC3059
:1012840005177F30B9100C120EC67F583004077F43
:10129400788003B90803120EC63002057F2D020EB2
:1012A400C67F202008F87F2B2006F322920280CFED
:1012B4007F00B40700500B24F3F582E43401F58376
:1012C400E0FF22286E756C6C2900D201120E833067
:1012D40001F8C201780930D50108F6020F322D5009
:1012E400434958120E832403B405004001E49012CC
:1012F400E293120EB7743A120EB7D20375090402C0
:021304001108CE
:1023CE009001C5E0FFA3E0FEA3E0CF9001CEF0A305
:1023DE00EEF0A3EFF09001C8E0CBF0A3E0CAF0A3BB
:1023EE00E0C9F07F229001D1AD82AC831206088D38
:1023FE00828C83F0A309E970010ADFEC9001C8E03A
:0A240E00FBA3E0FAA3E0F9020EE8D8
:10021000E9D2E7C933E833F892D5EDD2E7CD33EC34
:0702200033FC5002B2D522AD
:10022700EC30E7100FBF000C0EBE00080DBD000438
:100237000BEB6014A2D5EB13FCED92E7FD2274FFE4
:10024700FCFDFEFF22E480F8A2D574FF13FC7D803D
:03025700E480EF51
:10025A00F920E73624F950037907E4F42402FBE590
:10026A0082158270021583DBF6E024FB501BE960DD
:10027A0014E4F0E582158270021583E004F0B40AF2
:0D028A0008E4F0D9EE7401F00A22C2D5227A
:10029700ED33EC3392D5FA602AB4FF33EDC2E77B36
:1002A700FF60067A0279BCE4227A0279C520D50478
:1002B7007A0279C0224E614E002B494E46002D49E5
:1002C7004E4600E47A08F0A3DAFC7B00740722C0EC
:1002D70083C082ECC0E0EDC0E0EEC0E0EFC0E0EA32
:1002E70075F010A4CAABF075F04DA42BFBE435F004
:1002F700FCEA2410FAEB34C5FBEC34D9FCEDC2E779
:10030700FF75F056A4F42411C5F0F434C58FF0A49A
:100317002AE5F03BE43CF020E7141204D2D0E0FFDA
:10032700D0E0FED0E0FDD0E0FC1200FE8014F40423
:100337001204D2D0E0FFD0E0FED0E0FDD0E0FC1206
:10034700039CD082D083E0FAEDD2E7CD33EC33249F
:1003570082FBE4C3CF33CFCE33CECD33CD33DBF304
:100367007B0775F00A846004F0A31B0AE5F0F0A38D
:100377008FF0740AA4FFACF08EF0740AA42CFEACC4
:10038700F050010C8DF0740AA42CFDE435F0F0A3B5
:05039700DBDE7407220B
:10039C00EC4D6011E8497017ED33EC3304600DE45B
:1003AC00FCFFFEFD22E933E8330470F8020245122B
:1003BC00021058046009E4CC24815006285009022C
:1003CC00024F28400302024CC0E0EB4A7044B98053
:1003DC0006D0E0FB02023BEF4E701CBD8008EBFF29
:1003EC00EAFEE9FD80EBE98DF0A4FEE5F002048560
:1003FC00E9CDF9EAFEEBFFEF89F0A4FCE5F0CE893C
:10040C00F0A42EFFE435F0CD89F0A42DFEE435F0F8
:10041C008067EF4E7005BD80D780C3EF8BF0A4AC26
:10042C00F0EE8BF0A42CFCE435F0F8EF8AF0A42C61
:10043C00E5F038FCE433CB8DF0A42CFCE5F03BF874
:10044C00EE8AF0A42CFCE5F038F8E433CF89F0A464
:10045C002CFCE5F038CF3400CE89F0A42FFFE5F06A
:10046C003EFEE433C98DF0A42EFEE5F039CD8AF0C2
:10047C00A42FFFE5F03EFEE43DFD33D0E0FB50073A
:10048C000BBB000F02024FEC2CFCEF33FFEE33FEE4
:06049C00ED33FD02022712
:1004A2003F8000004120000042C80000447A000062
:1004B200461C400047C35000497424004B189680E4
:1004C2004CBEBC205A0E1BCA6753C21C749DC5AEDB
:1004D200FB60065407601C2323120500EB543860AE
:1004E200091204EC1204FB12039CECF8EDF9EEFA8B
:1004F200EFCB22EB1204FB80F1543803241C90044E
:10050200A2FE93FC0EEE93FD0EEE930ECE93FF220F
:10217C0002253DE493A3F8E493A34003F68001F217
:10218C0008DFF48029E493A3F85407240CC8C33364
:10219C00C4540F4420C8834004F456800146F6DF33
:1021AC00E4800B0102040810204080901C43E47E64
:1021BC00019360BCA3FF543F30E509541FFEE49328
:1021CC00A360010ECF54C025E060A840B8E493A3EF
:1021DC00FAE493A3F8E493A3C8C582C8CAC583CA1A
:1021EC00F0A3C8C582C8CAC583CADFE9DEE780BED2
:011D6F000073
:10051200E709F608DFFA8046E709F208DFFA803ECB
:1005220088828C83E709F0A3DFFA8032E309F608B8
:10053200DFFA8078E309F208DFFA807088828C8320
:10054200E309F0A3DFFA806489828A83E0A3F608D4
:10055200DFFA805889828A83E0A3F208DFFA804CAE
:1005620080D280FA80C680D4806980F28033801085
:1005720080A680EA809A80A880DA80E280CA8033EE
:1005820089828A83ECFAE493A3C8C582C8CCC58366
:10059200CCF0A3C8C582C8CCC583CCDFE9DEE78036
:1005A2000D89828A83E493A3F608DFF9ECFAA9F0B5
:1005B200EDFB2289828A83ECFAE0A3C8C582C8CC0B
:1005C200C583CCF0A3C8C582C8CCC583CCDFEADE24
:1005D200E880DB89828A83E493A3F208DFF980CC86
:1005E20088F0EF60010E4E60C388F0ED2402B4047F
:1005F2000050B9F582EB2402B4040050AF23234526
:06060200822390056273E3
:10060800BB010689828A83E0225002E722BBFE02F0
:09061800E32289828A83E4932223
:10062100BB010CE58229F582E5833AF583E022508E
:1006310006E92582F8E622BBFE06E92582F8E222D8
:0D064100E58229F582E5833AF583E49322F2
:10064E00BB010689828A83F0225002F722BBFE018B
:02065E00F32285
:10066000BB0110E58229F582E5833AF583E0F5F0D8
:10067000A3E0225009E92582F886F008E622BBFEB5
:100680000AE92582F8E2F5F008E222E5832AF583FB
:08069000E993F5F0A3E99322C0
:0D069800EF2BFFEE3AFEED39FDEC38FC22B1
:1006A500E88FF0A4CC8BF0A42CFCE98EF0A42CFCF4
:1006B5008AF0EDA42CFCEA8EF0A4CDA8F08BF0A472
:1006C5002DCC3825F0FDE98FF0A42CCD35F0FCEBD1
:1006D5008EF0A4FEA9F0EB8FF0A4CFC5F02ECD3996
:0F06E500FEE43CFCEAA42DCE35F0FDE43CFC2203
:1006F40075F008758200EF2FFFEE33FECD33CDCCBD
:1007040033CCC58233C5829BED9AEC99E58298403F
:100714000CF582EE9BFEED9AFDEC99FC0FD5F0D61C
:10072400E4CEFBE4CDFAE4CCF9A88222B800C1B946
:100734000059BA002DEC8BF084CFCECDFCE5F0CB84
:10074400F97818EF2FFFEE33FEED33FDEC33FCEBBD
:1007540033FB10D703994004EB99FB0FD8E5E4F978
:10076400FA227818EF2FFFEE33FEED33FDEC33FC65
:10077400C933C910D7059BE99A4007EC9BFCE99A59
:10078400F90FD8E0E4C9FAE4CCFB2275F010EF2F9E
:10079400FFEE33FEED33FDCC33CCC833C810D7079E
:1007A4009BEC9AE899400AED9BFDEC9AFCE899F8D9
:0E07B4000FD5F0DAE4CDFBE4CCFAE4C8F9226C
:0E07C200C3E49FFFE49EFEE49DFDE49CFC2248
:1007D000EB9FF5F0EA9E42F0E99D42F0E89C45F07F
:0107E00022F6
:1007E100E8600FECC313FCED13FDEE13FEEF13FFF6
:0307F100D8F1221A
:1007F400E8600FEFC333FFEE33FEED33FDEC33FC63
:03080400D8F12206
:10080700BB010DE58229F582E5833AF583020837B6
:100817005007E92582F80208E7BBFE07E92582F8B9
:100827000208F3E58229F582E5833AF5830208FF9A
:0C083700E0FCA3E0FDA3E0FEA3E0FF2234
:0C084300E0F8A3E0F9A3E0FAA3E0FB2238
:0C084F00ECF0A3EDF0A3EEF0A3EFF0221C
:10085B00A8828583F0D083D082120872120872129C
:10086B000872120872E473E493A3C583C5F0C583C1
:10087B00C8C582C8F0A3C583C5F0C583C8C582C8E7
:01088B00224A
:09088C00E0FBA3E0FAA3E0F9226D
:10089500F8E0FBA3A3E0F925F0F0E58215827002EC
:0708A5001583E0FA38F02290
:0908AC00EBF0A3EAF0A3E9F0224D
:0C08B500E493FB740193FA740293F9229F
:1008C100D083D082F8E4937012740193700DA3A3C6
:1008D10093F8740193F5828883E4737402936860DA
:0608E100EFA3A3A380DFDA
:1025E500EFB40A07740D1225F0740A309811A899F2
:1025F500B8130CC2983098FDA899C298B811F63056
:0726050099FDC299F599222D
:0C08E700E6FC08E6FD08E6FE08E6FF223D
:0C08F300E2FC08E2FD08E2FE08E2FF2241
:1008FF00E493FC740193FD740293FE740393FF223F
:00000001FF
